:020000040800F2
:10000000800500207D010008113000083122000821
:1000100000000000000000000000000000000000E0
:100020000000000000000000000000007D3100081A
:100030000000000000000000133000087F310008BD
:100040008F0100088F0100088F0100088F01000850
:100050008F0100081D2200088F0100088F01000891
:10006000000000008F0100088F0100088F010008C8
:100070008F0100088F010008000000008F010008B8
:10008000000000008F0100080000000000000000D8
:100090008F010008000000008F0100088F01000898
:1000A0008F0100088F0100088F0100088F010008F0
:1000B0008F0100088F010008000000000000000010
:1000C00000F002F800F04AF80CA030C808382418F4
:1000D0002D18671EA246AB4654465D46AC4201D180
:1000E00000F03CF87E460F3EB6460FCC0126334268
:1000F00000D0FB1A3343A246AB461847AC4300007E
:10010000BC4300000023002400250026103A01D340
:1001100078C1FBD8520700D330C100D50B607047BF
:1001200010B5662902D104F05DF810BD642902D132
:1001300000F082F810BD782902D100F0B3F810BDAC
:10014000002010BD1FB500F015FC040000200021A8
:1001500003F002FFE0601FBD10B510BD00F0C0FF4E
:100160001146FFF7EFFF03F0F1F900F0D8FF03B4F9
:10017000FFF7F2FF03BC01F0D5F800000748804705
:1001800007480047FEE7FEE7FEE7FEE7FEE7FEE77B
:1001900004480549034A054B7047000081310008B7
:1001A000C10000088001002080050020800100209F
:1001B0000FB41CB50C0007AA009001D00019401E16
:1001C000084B7B4469460190069800F09EFB002C8A
:1001D00003D06946002000F0ABFB1CBC08BC04B097
:1001E000184700007507000070B50446856900686F
:1001F000C10601D5302600E02026C00707D070BD1B
:1002000062683046A1689047206A401C20626D1EDB
:10021000F6D570BD70B5044685690078C00707D172
:1002200070BD6268A16820209047206A401C20624F
:100230006D1EF6D570BD0000F7B500257529106854
:10024000009914A611D0C046C046002802DA4042E8
:1002500011A608E0009909688A0701D50FA602E0F7
:10026000490704D50EA6012501E0C046C046009FFF
:100270000024243704E000F068FB30313955641C59
:100280000028F8D12B4632462146009800F0D5F8D8
:10029000FEBD0000000000002D0000002B0000004B
:1002A0002000000070B504460D4621461068C04687
:1002B000C0462188090502D50F4A7A4402E00E4A59
:1002C0007A440E3223460021243305E00607000954
:1002D000360F965D5E54491C0028F7D12078002324
:1002E000000705D5702D03D0002901D0022311325B
:1002F000204600F0A2F870BD363F0000F3B504467A
:10030000002081B020622046E168884700287DD027
:10031000252802D06268A16883E0454F00257F440C
:100320002046E16888472028064608DB312E06D2A1
:10033000B81920380078002801D00543F0E7A80755
:1003400001D5042085430020E0610746A0612A2EE4
:100350000AD0304603F0F8FD002827D0B800001975
:10036000303E0090866119E00298BA00121902C866
:10037000916102902046E1688847012F064617D117
:10038000E06900281FDA202085431CE000980A213C
:100390008069484300998019303888612046E168B7
:1003A0008847064603F0D0FD0028EFD1012F0AD080
:1003B0002E2E08D12046E1688847064620200543B6
:1003C0007F1C022FC3DBA069002803DA4042A06132
:1003D00001200543E80701D010208543002E24D0DA
:1003E00030464138192803D80120C0020543203681
:1003F000204625603146029A1546FFF791FE0028F7
:100400000CD0012807D0ED1DE80800E00DE0C00089
:100410000830029077E72D1D029574E76268304638
:10042000A1689047206A401C6CE7206AFEBD00006E
:10043000FA3E0000704770477047FFB504460D460E
:1004400081B0243000902168880604D51022E0692C
:100450009143216000E00120A84201DD471B00E03C
:1004600000270498A1697A191018081AA061207849
:10047000C00602D42046FFF7B7FE002608E0039826
:100480006268A168805D9047206A401C761C2062EB
:1004900004988642F3DB2078C0060AD52046FFF791
:1004A000A3FE06E06268A16830209047206A401CE5
:1004B000206238467F1E0028F4DC07E0009862685E
:1004C000A168405D9047206A401C206228466D1E4E
:1004D0000028F3DC2046FFF79DFE2078000602D5B9
:1004E000022005B0F0BD0120FBE70000FFB50C467F
:1004F0001E468FB003CA089009914F007D0D00D1B0
:100500006D1E002108460020C0460321099A890576
:100510000840002A03DA8200801840080840800D55
:1005200001280A9002DD0020C0430A900898074382
:100530000DD0F048F04928184843071418980028AF
:100540001DD07542291E1DDD0A9842421BE01898F5
:10055000012802D00020302104E00020F24305E011
:100560002154401CB042FBDB30460022189B002186
:1005700021540F998B600A60486013B0F0BDBD1B19
:100580006D1CDFE70A9A002900DA69420BA800F027
:1005900077FA0BAB07CB03AB07C30899099800F0B8
:1005A000DBFA6B4607C30146D4480918002D0091B9
:1005B0000BDDD24903980A9A49424018002303A947
:1005C0000390684600F038FD08E003990A9A00237A
:1005D000081803A90390684600F0D8FC6B4607C3CF
:1005E0000004000C03D00020C043410800E0104686
:1005F000189A002A03D00022009215461EE0751EAC
:1006000005D400F0BBF9303262556D1EF9D50122D8
:100610000843079602D000227F1C04E0207830288F
:1006200001D100227F1E002A069787D01EE0112DDF
:1006300007DA00F0A3F9303262556D1C02460A4316
:10064000F5D1084303D00098002819D00EE000210E
:10065000681E05E0235C625C63542254401E491C02
:100660008142F7DBA81B401E07950690079A189950
:100670000020A0540F98079B069A81600CC07CE76D
:1006800011260020189059E7D21DF0B50D460446FA
:10069000D10893B0C90003C90C900D9103F028FC58
:1006A00002460D98C00F01D02D2007E02068810779
:1006B00001D52B2002E04007C00F4001032A0F9014
:1006C00001D0072A05DB03462946204600F094F9AD
:1006D0000EE12078800601D5E76900E0062728466C
:1006E000652D04D0662814D0672D69D12DE0002037
:1006F000112F009001DB112300E07B1C0CAA03A941
:1007000010A8FFF7F3FE1199002610987D1C0E919A
:1007100042E001203B460CAAC0070B90012000904C
:1007200003A910A8FFF7E2FE119D12981099002668
:1007300000280E9501D1781C0D18781B02D4464272
:100740007D1C761EE81B00903AE0012F00DA01279D
:100750000020112F009001DD112300E03B460CAA80
:1007600003A910A8FFF7C2FE11993D461098002674
:100770000E91217809070BD40E99A94200DA0D4693
:1007800003A9012D04DD4A19203AD27F302A06D070
:10079000B84201DA011D04DA012100910FE06D1E5B
:1007A000EFE7002802DC86192D1A03E0411CA9425C
:1007B00000DD0D46801B401C00900120C0070B90FF
:1007C0002078000705D40098A84202DB0020C0432F
:1007D000009069460020C8720B98012102AF0337D0
:1007E000C907884225D0022010902B2011900B9829
:1007F00000280BDA40420B902D20119006E00B9858
:1008000000F0A3F830317F1E0B9039701099481E0C
:1008100000291090F3DC0B980028F0D111987F1E6E
:1008200038702088000501D5452000E065207F1E36
:10083000387001A8C01BC01D0B900F98002800D075
:10084000012041190098C01709180B980818A169D0
:10085000081A401EA0612078C00602D42046FFF787
:10086000C3FC0F98002805D06268A1689047206AF1
:10087000401C20622078C00625D52046FFF7B4FC36
:1008800021E0002E07DB0E98B04204DD03A8626869
:10089000805DA16802E06268A16830209047206A0C
:1008A000761C401C20620098401E002800900AD14F
:1008B00000F060F8C06862680168405CA168904719
:1008C000206A401C206228466D1E0028D9DC07E003
:1008D00062683878A1687F1C9047206A401C2062BB
:1008E0000B99481E00290B90F2DC2046FFF792FC82
:1008F000032042E601FCFFFF104D0000E1DFFFFF97
:1009000001694A1C02610878704700B58FB00291F6
:100910000021059105490193794403911146049002
:100920006846FFF7EBFC0FB000BD0000E5FFFFFFDE
:100930000A681070521C0A6070470CC908399A4244
:1009400002D2531C0B601070704701468008081AD1
:1009500002091018020A1018020C1018C0088200B0
:1009600012185200891A01E0401C0A390A29FBD2E8
:100970007047000000487047200000200B4670B50B
:10098000024689078008084319469D08141AA941A0
:1009900025090807054308092C194841250A0106BD
:1009A0000D43010A2C194141200C0D0428430D0C64
:1009B00000194D41002140194D41C0086907084305
:1009C000E908840F8D002543840024184D41241923
:1009D0006D41121BAB4107E00925ED432C11521963
:1009E00063410024401C61411C460A250026551B1A
:1009F000B441F1D270BD0000F8B51F460446012392
:100A00000068DB02032601461840072A05DB0028A0
:100A100001D017A506E017A504E0002801D016A50F
:100A200000E016A5102081432160A069C01E002FA0
:100A3000A06101D0401EA0612046FFF7D5FB002F2A
:100A400009D038466268A1689047206A401C20623D
:100A5000C01C206206E0206AFAE762682878A16874
:100A60006D1C9047761EF8D22046FFF7D3FBF8BDE9
:100A70004E414E006E616E00494E4600696E660042
:100A8000F7B516468AB0334878446C4603467C3343
:100A9000C06F5A689B680DC42E487844763003AC0A
:100AA0000DC80DC43720C001081837211B3000F0D5
:100AB0008DFB05460C46803D1B3C02D5644201205F
:100AC00000E000200027099010E0E0070CD00C2087
:100AD00020497843794432464C394118684601230D
:100AE00000F054FA6B4607C364107F1C002CECD155
:100AF000184F7F442E3F16E0E80712D02001C0199E
:100B00000EC80691089307920068F04201D1981927
:100B100008903246012306A903A800F037FA03AB78
:100B200007C36D10641C002DE6D10998002806D07B
:100B300032466946012303A800F07EFA05E001234E
:100B40003246694603A800F021FA0A9B07C30DB09C
:100B5000F0BD0000A4370000034640000A4610B56F
:100B6000400D0BD00121C9070F24A40200191C035A
:100B700064082143540D2143D20207E000210120E3
:100B8000F2E7D40F490021435200401E0029F8DA51
:100B9000DB0FDB07184310BDFFB50D46144685B0CB
:100BA0004868516803F08CF900910190A868A16829
:100BB00003F086F902910390A868616803F080F958
:100BC000029A12188242029201D2012000E0002013
:100BD000019A0B18D2180028019202D08A4202D939
:100BE00003E08A4201D2012000E0002000990818A9
:100BF00000906868A16803F063F9029A12188242B3
:100C0000029201D2012000E00020019A0B18D218B4
:100C10000028019202D08A4202D903E08A4201D21E
:100C2000012000E000200099081800902868216841
:100C300040004900400849084018FA49471814E0A4
:100C400001994000C90F08430090019802994000A3
:100C5000C90F08430190029803994000C90F084347
:100C60000290039840007F1E039000980028E7DA66
:100C70000898002801D0EC4E00E00026B74201DAC7
:100C8000012000E00020002804902AD0F71BF8067D
:100C9000C00E15D0029B2021091A039A8B401A43DB
:100CA0000392029A019BC2408B401A430292019A1E
:100CB000009BC2408B4000991A430192C1400091B1
:100CC0007B110DD06F460320C11A03D5002182008D
:100CD000B95003E08A008100BA587A50401EF3D51B
:100CE000374603980299002800D001200143089854
:100CF0000291002808460CD0002800D0012001995C
:100D0000019A490508430121D20AC902D20201927F
:100D100000E001210E9B0122D207012B02D0002B03
:100D200003D013E0002807D120E0904204D890427D
:100D30000CD1019B0B4209D0019B5918019105D19F
:100D40000099491C009101D17F1C009200280DD010
:100D5000102108460020C0460498002806D00F98AD
:100D6000002803D0082108460020C04628682168D2
:100D7000019B009A4840C10F0598C90739430EC02E
:100D800009B0F0BDFFB587B0099A08980899536873
:100D900092684068896896460022039317469446F5
:100DA000089A12685300099A5B08126852005208A8
:100DB0009A1A9E4BD4180A9A002A01D0352200E0D4
:100DC000402206920022012315460492DB07059378
:100DD00024E0002D05D175460346039E4D1BB3410B
:100DE00009D375466646039B491B049D9841059BA4
:100DF0007519AC465F4163463B4308D0059B049E92
:100E0000DD0776082E435B080496059301E0521E29
:100E1000641EC50FED0749184041521C069B9A42BB
:100E2000D7DB002D04D17546039A6B1A824101D29B
:100E300003200CE0039A0B466B404240134303D05F
:100E4000014303D0012002E0022000E000206146BF
:100E500001910021009702910A99002905D061466D
:100E600040020143704B019102E080070023029091
:100E70009C4201DA012000E0002007003AD01A1B52
:100E8000D006C00E15D0029D2021019C091AC54034
:100E90008C402543029C8C4000D001242543019CBA
:100EA0000295009DC4408D4000992C430194C1409F
:100EB000009154111DD06D460221002202290CD14F
:100EC0000320001B07E0002804DB8600AE59002E3B
:100ED00000D00122401C0328F5DB081B02D5880046
:100EE0002A5004E08000285810438A00A850491E68
:100EF000E3D51C460A98002802980CD0002800D0A0
:100F000001200199019A490508430121D20AC90229
:100F1000D202019200E00121109B0122D207012B95
:100F200002D0002B03D013E0002807D11FE090422D
:100F300004D890420CD1019B0B4209D0019B591857
:100F4000019105D10099491C009101D1641C0092C6
:100F500000280CD0102108460020C046002F06D0E3
:100F60001198002803D0082108460020C0460898A0
:100F70000999019A009B006809684840C10F0798C9
:100F8000C907214382600AC00BB0F0BD00B585B02F
:100F9000019300920A460146002302A8FFF7FCFDD8
:100FA00002A807C805B000BDFFB50A461F4685B0B8
:100FB0000799019301230091014602A8FFF7ECFD78
:100FC00002990398049ECA0F4900D20700920F228B
:100FD000490892028C1A0021002800DB0C464500CB
:100FE00013486D08844214D3079A002A04DA441E79
:100FF0000026104DF64302E004460D460E46102131
:1010000008460020C046002F03D0042108460020D7
:10101000C0462005E90A0843009908436905F20A19
:101020001143ADE602C0FFFF013C0000FF3F00009E
:10103000FF070000FFFFFF7F00B585B0019300921E
:101040000A460146002302A8FFF79CFE02A807C833
:10105000A8E7FFB50A461F4685B00799019301230B
:101060000091014602A8FFF78DFE02990398049EA5
:10107000CA0F4900D20700920F22490892028C1A27
:101080000021002800DB0C46450011486D08844211
:1010900014D3079A002A04DA441E00260D4DF643A5
:1010A00002E004460D460E46102108460020C046C8
:1010B000002F03D0042108460020C0462005E90A7D
:1010C0000843009908436905F20A114358E60000F5
:1010D000FF070000FFFFFF7F00487047000000206F
:1010E0007546FFF7F9FFAE46050069465346C0084E
:1010F000C000854618B020B5FFF74AF860BCB64678
:1011000000260027C0C5C0C5C0C5C0C5C0C5C0C574
:10111000C0C5C0C5403D490849008D46704710B55F
:101120000446C046C0462046FFF721F810BD000027
:10113000024670B50A4392072AD11E4DEE0104C83B
:1011400008C9541B9443344017D0D0B2D9B2401AC6
:101150002106014310D190B299B2401A21040143F3
:101160000AD110021902000A090A401A2102014399
:1011700002D1100E190E401A70BD9A42DFD010BA7B
:1011800019BA884201D9012070BD0020C04370BD4A
:1011900002780B78401C491C002A09D09A4207D1DA
:1011A00002780B78401C491C002A01D09A42EFD0EB
:1011B000D01A70BD01010101002203098B422CD31A
:1011C000030A8B4211D300239C464EE003460B4397
:1011D0003CD4002243088B4231D303098B421CD3F9
:1011E000030A8B4201D394463FE0C3098B4201D3EB
:1011F000CB01C01A524183098B4201D38B01C01A23
:10120000524143098B4201D34B01C01A5241030999
:101210008B4201D30B01C01A5241C3088B4201D348
:10122000CB00C01A524183088B4201D38B00C01AF5
:10123000524143088B4201D34B00C01A5241411A1C
:1012400000D201465241104670475DE0CA0F00D0FF
:101250004942031000D3404253409C4600220309F8
:101260008B422DD3030A8B4212D38901FC2212BA7E
:10127000030A8B420CD3890192118B4208D3890156
:1012800092118B4204D389013AD0921100E089096E
:10129000C3098B4201D3CB01C01A524183098B424F
:1012A00001D38B01C01A524143098B4201D34B0138
:1012B000C01A524103098B4201D30B01C01A52419B
:1012C000C3088B4201D3CB00C01A524183088B4222
:1012D00001D38B00C01A5241D9D243088B4201D3AB
:1012E0004B00C01A5241411A00D2014652411046E9
:1012F00063465B1001D34042002B00D54942704742
:1013000063465B1000D3404201B50549002802DC6A
:10131000491C084000E00846C046C04602BD00BF68
:10132000FFFFFF7F01491820ABBEFEE72600020049
:10133000704700000246C80FC00781434B0030B51C
:101340004B405B009B0D20D01923DB06C9180123FD
:101350001B05994220DB0324A40704251346AB4058
:101360000BD3002B04D1EB0613409B00E34204D4C3
:1013700001246407002312195941FF231B059942D8
:101380000BD2C9000143500F09E0CB0204D5014341
:101390000803024305D0054830BDFF21C9050843B5
:1013A00030BD084607210905884330BD0000C07FD5
:1013B000F0B50C46871A9C410D46861A9D4103D212
:1013C000C01BA141D21963410D0D1F0DC94EEC1B6D
:1013D000AE435CD07F057F0D0026002F51D02D0538
:1013E000AC46A943DD020123ED0A1B051D43202362
:1013F0001B1B24D41746E740381871412F46E7409D
:10140000CC199D402818314661410C0D27D161440B
:101410009A4013D50023401C594152000ED1400878
:10142000400001224B005205D34207D3052040075C
:10143000C14201D5B04900E0B0493046F0BD6B0073
:10144000002A00D001229A181F23203C1B1B01D523
:10145000002302E0E540281871410C0DD7D001248B
:1014600024050919C407CD0740084908E40F28439B
:101470006144002CD5D00024401C61419A40D0D159
:10148000CDE76A05520DD9D1C90FC907D5E79C4DE3
:101490004E00002801D0012400E0002434195F0030
:1014A000002A01D0012600E00026BE19954FAC426B
:1014B0000CD8AE420AD8B44206D001256D05EC42E4
:1014C000BCD010461946F0BD9942FCD000203946E8
:1014D000F0BDF0B51FB40C460F46811A9F4125465A
:1014E000861A9D4106D20125ED076F40401ABC4186
:1014F00052187B41210D1E0D8D1BAC467D4D8D4339
:101500007ED075056D0D7CD00D05AE46AC431B033A
:101510001B0B794D52429D41202366469B1B14D3E1
:101520001746F740381800260090744160462F4651
:101530000741E41900989D402818664116D4714669
:1015400071189A4025D5012320E093182A466A4154
:101550005200002B00D0521C1E23203E9B1B002B50
:1015600061DD3541EE1728186641E8D5001876414F
:101570005B1C9A4000D3401C4B05F3181524E34034
:1015800010D3002B52D071467118D30FC01802D35C
:10159000491C05B0F0BD0123DB079A42F9D1400890
:1015A0004000F6E701225205B21801D1002853D0BD
:1015B0000123CC0ADB029943891E002A08D1020CC0
:1015C00003D0020C0004103902E00246002020394A
:1015D0000023550B05D112020823550B01D15201EE
:1015E0000D23550C01D112011B1DD50C01D1920008
:1015F0009B1C150D01D152005B1C2025EE1A01E049
:101600002CE022E00546F54015439840CA1AE10750
:1016100069181305C918002ABBDA03204007081807
:10162000C10FC9070FE071466118B2E7F107400822
:101630000843711071444A000CD001235B059A42A3
:10164000A7D2C90FC9070020A3E74905490D26D134
:10165000002001E00028F4D100219AE7284D66001F
:10166000002801D0012100E0002171185F00002A4C
:1016700001D0012600E00026BE19224FA94210D851
:10168000AE420ED8B14208D001256D05E94206D020
:101690001946A802414010467BE79C4201D02146F2
:1016A00077E70020394674E710B50C465C4005D555
:1016B0000124E4076340FFF70CFF10BDFFF778FE3D
:1016C00010BD30B40C465C4004D50124E4076340EF
:1016D00030BC6DE630BCFCE670B50124E407614027
:1016E0000D465D4002D4FFF763FE70BD6340FFF717
:1016F000F0FE70BDFF0700000000F0FF0000F07F6B
:101700000000E0FF0000F87FF0B5F94D0C091E095C
:101710002C402E402F468BB0A7437DD0B543FCD044
:10172000002E7AD0002CFCD00D465D40ED0F2543F5
:10173000AC1BFF25AD0464190894C502440DC90211
:101740002143500DDC0204430120C0070143044340
:10175000D2020191200C110C00958C460104234605
:101760008B430A9161460904E24D8A430991010ABB
:101770007D4449198039097805464D4301266D1885
:10178000F605751B6943C90C640B891C4C4364182E
:10179000B5012C1B250C2E04B4434C434D43210CA6
:1017A000691889090591009DE90701D00121C90740
:1017B00004912C4601996708CD072F434C08059DDD
:1017C000E10B4D432D0C29466646754302950D46A7
:1017D00045432E46029D7D1BB44100950D465D4359
:1017E00001942C0C2F040D465543AE462D0C3D4361
:1017F000029503947546049C2D04641B049406D240
:10180000029C039D641C002675410395029401AC63
:1018100070CC009F7D1B01E03EE162E1B441090410
:101820000095079101940599A4086143090C0C46A1
:101830004443650BE7040C4666467443A646640BB6
:101840003C43039502947446049DE4042C1B0494C9
:1018500006D2029C039D641C0026754103950294E8
:1018600001AC70CC009F7D1BB44101940C465C43DD
:101870000095650FE7000C465443A646640F3C43B1
:10188000039502947446049DE4002C1B049406D234
:10189000029C039D641C002675410395029401ACD3
:1018A00070CC009F7D1BB441AE09AF06049DC900FA
:1018B000AD092F43049DA406AD060495079D34434E
:1018C00069180791059DE10B4D432D0C294666468D
:1018D000754302950D4645432E46029D7D1BB4413E
:1018E00000950D465D4301942C0C2F040D46554385
:1018F000AE462D0C3D43029503947546049C2D0481
:10190000641B049406D2029C039D641C002675414E
:101910000395029401AC70CC009F7D1BB4410194EF
:101920008C050694079C890A611800950791019C13
:101930000599A4086143090C0D464543680BEF0463
:101940000D46644665436C0B3C43049FED047D1BD0
:10195000AC4602D20025641C6841009E019D371BE5
:1019600085410846584301950C46460FC50054432F
:10197000600F28436546E4002C1B02D20025401C62
:101980006E41019D3F1AB5412846BD098006284396
:101990008446A009BF064E020699A406761807439E
:1019A000079D002068410A99079019430020099B70
:1019B00000906046FF1913434041E20F64003A4330
:1019C000A4460446D71A8C41A04203D901200090B6
:1019D00020463A46C70F941840416246D20F224330
:1019E000644664000494009CBE466400D71AA44672
:1019F000044602978C417746002F01D1A04204D9BA
:101A00006046401C8446029A2046C40FA64694189D
:101A10004041049A0546D20F224364466400D31A1B
:101A20008D417146002901D1A84202D928461A46A3
:101A3000641C10430122002800D0164361020020DC
:101A4000079B891904465C410223002C02DB4918DC
:101A500013466441089DCE0A2D145D194B05670598
:101A6000E10A2C050D1908993E43C9076940002B6E
:101A700008D0934006D30022761C5141002B01D19F
:101A8000760876001C4A002D43DB154241D0AA435C
:101A90003FD030460BB0F0BD06180D464D41174CF7
:101AA0007642AC411AD395181C465C41134A6D42EC
:101AB000A24113D3012252054C00D4420AD15C004A
:101AC000D4420BD04B4002D592021143E2E74900C9
:101AD0004908DFE75940C90FC90718E00020084945
:101AE000D8E7054801420DD10342F7D0F2E70000E4
:101AF0000000FF07502B00000000F07F0000E0FF17
:101B00000000F87F114859400143C01241400020B5
:101B1000C0E70123089A9B069A4205DC032252077C
:101B20008918C90FC907B5E7052252078918074A5E
:101B30001143D2125140ADE770B515461C4602461E
:101B40000B4628462146FFF7DFFD70BDFFFFFF7FF4
:101B50001F22030C02D10F22000402D0030E03D077
:101B600004E00020014670470002083A030F01D14B
:101B70000001121F830F01D18000921E002801DB9B
:101B80004000521E120551184205C012411810465D
:101B90007047C10FC90700D040420122920711438C
:101BA000D6E701218907D3E7F0B58B4C0F0925460D
:101BB00089B0BD437BD01D092646AE43FAD00E4600
:101BC0005E402740F60F3E43254071D0240121425C
:101BD000FBD0FF24AD19A4042D1B039501252D0571
:101BE000DB02DB0AC9022B43C90A29431E01090192
:101BF000040F130F050121431701880B8203914342
:101C00002D098C46A90B1E438A039543B30B9A03F7
:101C100096433F09BA0B9403A74302962E467E4390
:101C20000497B6464E19D7190C46019654430597AA
:101C30007E43371B7646BF1B3601B646BE0B3619B0
:101C400000967646BC043719009C01D3641C0094AE
:101C50006400002F01D001263443029E049F754387
:101C600066467E430496760034196E00341900945B
:101C7000029C019E1C196643751BAE460694654680
:101C80004519059C05956C43594375460891691A99
:101C90000191049E01465143A41B0491611A009CCA
:101CA0000791E10605D061090122114302E072E0CB
:101CB0006EE06109089D00272C0A2D066918049D15
:101CC0007C412A0A2D066918019D6241AC0DAD02C6
:101CD0006D185441079A910D920255196141029A6B
:101CE000644658435443069B059A5A43121A131BE1
:101CF0009A0E9B015B187A41010B0005C3185141F4
:101D0000220A200644195A419A4200D2491C012055
:101D10004002814203D315230226F64302E0142336
:101D20000326F6432020C51AA9401746AF40DA40E3
:101D30000A4320460399D84009147318190551180D
:101D4000039A3843D2075140AC4009D00122944055
:101D500006D30022401C5141002C01D14008400014
:101D60001E4A934212D3012203989206904207DB47
:101D70000520400709181A480143C012414004E0F9
:101D8000032040070818C10FC907002009B0F0BDA3
:101D90000020F107FAE705180C464C4111486D4246
:101DA000A04115D394181A465A410E4864429041F6
:101DB0000ED301204A004005824209D35A008242D4
:101DC00006D35940C90F084AC90700201143DDE76F
:101DD00000200649DAE700000000FF07FE070000C8
:101DE000FFFFFF7F0000E0FF0000F07F0000F87FB2
:101DF0000121C9050123411842001B06D3185B0EBF
:101E00000AD0C1100722D206891840075242D14297
:101E100001D5520089187047090208D50146002AE9
:101E200003D0C10FC9070020704710467047420217
:101E300002D0002002497047072109050143F4E759
:101E40000000F87FF0B5FF252D04C609C209FF2761
:101E500004462E400137CB093E4348402A402B40E0
:101E60000746002A6BD0002B69D0AA4267D0AB424C
:101E700065D0002800DA32460125ED0529432C43C0
:101E800009022002090AD21A4B0C7F24E31A434CA0
:101E9000000A7C44E35C7D242404121914145B00C2
:101EA000A218884201D3521C00E0400049420C466F
:101EB0005C4324115C43DB016415E318040A5C43B2
:101EC000C502200D0C4644436419250A5D432303D3
:101ED000EC0C0D46654300030019EB184C42A3427D
:101EE00001D35B18401CD4052018002B07D05B00E1
:101EF000C91804D3401C002901D1400840003F21EB
:101F000089048A4209D3002A08DC1106090F04D08B
:101F1000032149074018C00FC007F0BD012241004E
:101F2000120689187F2252069142F6D205214907EE
:101F3000C84201D59010F0BDFF20C005F0BD002FB4
:101F400000DA32461648AA4207D2AB4205D219023D
:101F5000090E17D0F80FC007F0BDFF2563002D064E
:101F6000AB42F9D84900A942F6D8AB4201D1A94207
:101F7000F2D0A94201D1002101E061004908D00559
:101F80000843F0BD1102090EFBD0FF200243D0052B
:101F9000F0BD0A460146104654E70000AE2400009A
:101FA0000000C07F10B501469E240002CA15A30799
:101FB000002A02D01843002A04DBA21A002A0CDDF2
:101FC000D04010BD1206120E01D140004008A21AE6
:101FD00003D4D04040420028F3DDFF22480012061F
:101FE000904201D9002010BDC817C043584010BD11
:101FF0001F22030C02D10F2200041CD0030E01D1BA
:102000000002083A030F01D10001121F830F01D112
:102010008000921E002801DB4000521ED20551189C
:10202000021251181922904004D3491C002801D1F2
:102030004908490008467047C10FC90700D040420F
:10204000012292071143D3E701218907D0E700005D
:1020500010B5FF231B0644009C421DD84C009C4237
:102060001AD80346124A0B4307D4401A02D3EFF39F
:10207000008010BDEFF3008010BD081A03D3EFF30A
:102080000080904305E0EFF3008001219043C907F1
:10209000084380F3008810BD0D231B041A4204D0AE
:1020A0001146002000F006F810BD00F01BF810BD2E
:1020B00000000090C80212D54803400F002804D049
:1020C000C803C043012188407047EFF3008000013E
:1020D000000903210907084380F3008870470020A6
:1020E0007047000010B5024800F004F810BD000071
:1020F0000000C07F10B50C461107090F092904D054
:102100000A290AD008290CD104E011460820FFF75B
:10211000D1FF06E0510606D501E0510601D50120A8
:10212000C007214610BDD10607D501010909CC0819
:102130004907000E0006044309E0410F2002490749
:10214000000A0143200E00061D22D141014308462A
:10215000E7E70000F0B585B003462C4C2068C507C2
:102160000120002D4FD00392019029480340A36223
:1021700008200090206004272760A068384045426E
:1021800045417D20C0000023A44EEA0704D0A26888
:10219000204D2A403A43A26032680492049A0546D0
:1021A0002268520705D43268D203D2175519F7D1E5
:1021B00028E0226C184D2A405D004A532760A2682F
:1021C0003A40554255415B1C0297074603988342AB
:1021D0003846029FD9D1002A03D100982060002000
:1021E00011E0A1680B4A114010220A43A260316835
:1021F00004910499A168C906EFD53168C903C917CC
:102200000818F7D1019805B0F0BDC0460024014080
:10221000FFFF0700E8FFFF7FFF0F00000348016892
:10222000C90701D0012101607047C0461404014074
:1022300082B0084D08A4204601F018F828680190E3
:1022400001987D20C0002968C903C9170818FAD170
:10225000F1E7C04610E000E0494E204841524420DA
:102260004641554C5421000080B582B06B4801684E
:10227000019101996A4A6B490B685B0708D40368AE
:10228000DB03DB179A18F7D101F0ACF8002000E06F
:10229000C868C0B202B080BDF0B583B001920A46F2
:1022A0004F4B5C6924045E4D5C4E11D40121CF027A
:1022B0001C68BC431C60324C641C1F6827403818E3
:1022C000186018681746002A14D08A02104313E0D9
:1022D00034680294029C2C465F69FF07E6D1376898
:1022E000FF03FF173C19F7D101F07CF8002842D119
:1022F000012441E0224A10400C46186008061A6882
:1023000082431A60FF2000041A6882430198000487
:102310001018186048061A6882431A6048031A6841
:1023200002431A60306802900298002F18D0002DE6
:102330001DD05869400718D43068C003C01745192C
:102340005869C006F3D598691021014399610324A7
:1023500012E03068C003C01745195869C006F2D4AE
:10236000002D04D05869C007F3D0002404E001F028
:1023700039F8002800D00224204603B0F0BDC04642
:10238000FFFBFFFF10B582B024480168019101995D
:102390002349134A0B465469E40705D10468E40352
:1023A000E417E318F7D10FE001239B0314681C43E3
:1023B000146003680193019B53691B040CD50368E7
:1023C000DB03DB175918F7D101F00CF8002801D016
:1023D000022002E0012000E0002002B010BDC04653
:1023E0000454004010B582B00C490A680192019A69
:1023F0000B4B0C4A1468E4070AD10C68E403E41799
:10240000E318F7D100F0EEFF002804D0022003E02B
:102410001061002000E0012002B010BD10E000E0DB
:10242000B80B000018540040F0B584B00C68002CC4
:1024300055D00123019303915A1E019F97402740D5
:1024400048D04A68551E022D02943D4615D27D4360
:1024500003998C686C4303266E438168B143214322
:1024600081600399C9680092029A51434468944379
:10247000009A0C434460039902E07D4303266E43B7
:10248000F64309696943C46834400C43C460022AB6
:10249000029C19D13C0A01D0242200E02022039999
:1024A0004F6902928258002C02D06443644301E0D9
:1024B0002C466C430F2161438A43674317430299BB
:1024C000475003990C684A685543016831402943D5
:1024D000016003992246DA405B1C002AACD104B0AB
:1024E000F0BD0000B0B5012213020E4841689943C7
:1024F0004160046804210C430460046808252543F6
:10250000056044681C43446052020368134303603F
:102510000268022313430360034802680A4302600F
:1025200030BFB0BD0070004010ED00E099B07548BC
:102530000078012421020D91734D012851D0032808
:1025400000D1BFE0022800D0E9E00F2000F0B8FD84
:1025500040B2002800D4E2E00EA8142181710A21C3
:10256000417104710521C1700025857045700570A9
:10257000062D0AD10EA88079642806D364380EA9E6
:1025800088714879802202434A710EAE745D0A2137
:102590002046FEF711FE0921C9434143611800019D
:1025A000084370556D1C072DE2D107200EA900F0DD
:1025B000C1FD002800D0B2E00E25284600F080FDC5
:1025C00001467F242140284600F097FD002800D0D6
:1025D000A5E00F25284600F073FD0440284621465B
:1025E0009BE0DB480168090700D598E00168C9064F
:1025F00000D594E029680E910E990A212A68D20329
:10260000D2175118FAD10168090700D587E0006890
:10261000C00600D583E0CF4C8021CFA2204600F039
:102620003FFE8121D2A2204600F03AFED4A00EA99E
:102630000A46E8C8E8C200781070112000F07AFD60
:102640008321D4A2204600F02BFE8421D5A220466F
:1026500000F026FED74801680D9A114203D10168A7
:102660000D9A114301600125E904D34A13680B4315
:10267000136013688B4313600268D0490A400260FC
:10268000ED31CF48B14E0A58002A01D1091DFAD1C7
:10269000B04C8621CBA2204600F002FE8721CDA2BD
:1026A000204600F0FDFD30680E900E986421CD4864
:1026B0004269D20700D168E33268D203D2175118B9
:1026C000F6D1A4E30F2000F0FBFC80071ED428689D
:1026D0000E900E980A202968C903C9170818FAD164
:1026E000C148016809041AD4E1032A680E920E9ABF
:1026F00022462B68DB03DB179A18FAD102680A42DC
:10270000F3D00CE06000002010E000E00F24204631
:1027100000F0D6FCFD210140204600F0EEFCD02068
:10272000002401222146FFF7B7FD00280ED1002624
:102730003046FFF757FE002808D1D0200127072296
:102740003946FFF7A9FD002800D1C5E2A748047269
:10275000046044600C940A940B94099408942746EE
:1027600000F098FC054600F095FC064600F092FC4F
:10277000FFF718FCFFF760FC0146304601F0CAFC89
:102780009B4901F06FFCFFF70DFC06462846FFF75A
:1027900009FC08990091099901910B9902910A99F4
:1027A00003910C990491059406900796FBB2914C05
:1027B000914A20460D99FDF7FBFC204600F056FD9E
:1027C0008E480EA9062200F003FD002800D0A7E0E5
:1027D0000EAA511CFF241378634000245D003120B1
:1027E0001B0600D54540EBB2651C072C2C46F5D3E3
:1027F000541C8A4222461C46EDD10EA98978994282
:1028000000D08DE00EAA111DD21CFF241378634066
:1028100000245D001B0600D54540EBB2651C072C6B
:102820002C46F6D3541C8A4222461C46EED10EA8F2
:102830004079984274D10EAE3079F17809020818C7
:10284000FFF7A7F900246E4B2246FEF75DFF6D4BA4
:102850002246FFF7A9F9FEF76DFD0546214601F076
:1028600068FB07462846FFF7C3FA02460B4666494F
:102870006648002F00D101466548FEF715FFFEF7B8
:1028800059FD0C90FFF78EFB0746624807703088B1
:10289000000400BAFFF77DF92246594BFEF734FFDA
:1028A0005D4B2246FFF780F95C4B2246FEF7FCFEAB
:1028B000FEF740FD0546214601F03BFB0446284655
:1028C000FFF796FA02460B46002C4F4900D14F49BC
:1028D0004F48FEF7E9FEFEF72DFD0446FFF762FBC9
:1028E00006464F4806703846FFF7A6FB01460C988F
:1028F00001F010FC3E4D294601F0B4FBFFF752FBFE
:10290000484908703046FFF797FB0146204601F022
:1029100001FC294601F0A6FBFFF744FB4249087081
:10292000414800780C903F4800780B903C48047870
:10293000384805783D480EA9032200F049FC69B2E9
:1029400063B2002874D0FE20A1E0C04610E000E091
:10295000100400509C440008424547494E2045520F
:1029600041534520414C4C2044415441000000005B
:102970005254432072657365742E2E2E00000000A1
:1029800000000000000000000000000000001C8BA0
:102990000000000052544320726573657420646F18
:1029A0006E650000424B50522072657365742E2E86
:1029B0002E0000000070004050100240FFFEFFFF9C
:1029C00064280040424B5052207265736574206445
:1029D0006F6E6500454550524F4D207265736574AA
:1029E0002E2E2E0004200240100000507000002007
:1029F0000000C84279000020C2430008062C0000F5
:102A0000E0FFEF4000005940E17A743FE17A74BF83
:102A10007B14AE476400002000E06540008046C0A3
:102A20006A000020680000206C0000202DF30000E8
:102A30000EAA501CFF261478744000266700240656
:102A400001D531246740FCB2751C072E2E46F5D304
:102A5000551C82422A462646EDD10EA88078A04217
:102A600014D10EA8027846780027F6A43846E55D12
:102A7000032F02D8154202D104E0354202D040258E
:102A8000FD4028437F1C072FF1D100E0FF20C0B29A
:102A90000C9A009201910B9902910390FB4CFC4A15
:102AA00020460D99FDF784FB204600F0DFFB002453
:102AB000F84E0C9418A90122F748FFF74BFB0028A9
:102AC0001FD1F6480088F6494843FFF7BDFA05468E
:102AD00018A80088FFF7B8FA01462846FFF7B2F9B0
:102AE0003146FFF7AFF90EA90851241D282CE1D17A
:102AF0000EA800F031FCFFF77BF90B900A910C9EB9
:102B000002E00C9E0B960A9618A90222FD48FFF7D8
:102B100021FB002843D1F8480088F6494843FFF7D5
:102B200093FA074618AC2088FFF78EFA014638461C
:102B3000FFF788F907466088FFF786FA01463846AE
:102B400001F090FAF049FFF77DF90546EA4C6788F5
:102B50003846FFF779FA0146284601F0DBFAEB49DF
:102B600001F080FAEA4901F00DFA0546E088C01B41
:102B7000FFF762FA01462846FFF764F9E54901F0DC
:102B800001FA0EA98851361D282EBDD10EA800F0DD
:102B9000E3FBFFF72DF9099008910C9C02E00C9CD7
:102BA00009940894D548801C18A902263246FFF7DC
:102BB000D1FA002828D1D0480088CE494843FFF7F1
:102BC00043FA074618AD6888FFF73EFA01463846D3
:102BD000FFF738F9D049FFF735F907462888FFF79E
:102BE00033FA0146384601F03DFAC549FFF72AF9A4
:102BF0000EA90851241D282CD4D10EA800F0ACFB3E
:102C0000FFF7F6F80C9C02E00C9C204621460B9A3C
:102C100000920A9A0192099A0292089A03920490E9
:102C20000591B34DBD4A28460D99FDF7C1FA2846D6
:102C300000F01CFB20460B30C5B2284600F040FADD
:102C400080210143284600F058FA641C032CF1D17E
:102C50000E25284600F034FA06432846314600F097
:102C60004CFA284600F02CFA04210143284600F0D3
:102C700044FAAB4CE621AB4A204600F011FBFFF7CB
:102C800031FCEB21A84A204600F00AFB854A106877
:102C90000E900E987D20C0001168C903C91708184E
:102CA000FAD19F4CED21A14A204600F0F9FAFFF736
:102CB00019FCEF219C4A204600F0F2FAF0219C4AD0
:102CC000204600F0EDFABFF34F8F9A489A49016011
:102CD000BFF34F8F00BFFDE7844DFFF7C5FAA8553E
:102CE000761C072EF9D1FFF74DFB002001467F220D
:102CF0000A40022A05D0052A0CD12A56002A14D5EA
:102D000021E02A5C520607D400222A72EA712B5C69
:102D10003F2208E02A5C08E0EF712A5C9206D20F9D
:102D20002A722B5C1F221A402A540F231340D2B25E
:102D300012090A245443E2182A54491C401C07284B
:102D4000D5D1AF790FE00F21D3060A40DB0F0A245B
:102D500063439A182A54A87901400009604308186F
:102D600064300746A871E8780C300721FEF724FA92
:102D7000481C0B90E8702C7868780C90A8780A9022
:102D80002879099068790890EAE40C950168C907E8
:102D900003D04649816046498160212109010268CA
:102DA0000A4302600022434C1646B70025462743DB
:102DB0003A603C4B1C680E940E9C64244369DB070C
:102DC00006D0384B1B68DB03DB171C19F6D108E073
:102DD0003B68002B05D12C46731C374DAE421E4676
:102DE000E3D302688A4302602E4B19680E910E9954
:102DF00064210C9C4269D20705D01A68D203D2170D
:102E00005118F7D103E00168214301600068264CA6
:102E100089212A4A204600F043FA8A2128A2204626
:102E200000F03EFA29A000F021FA00242746F8B26B
:102E300000F046F90546204629468140090605D599
:102E4000312104E0802008041002010030210EAA84
:102E50001154401C0828EFD10EAE002030723046CD
:102E600000F0E4F9092130461CA22B46FDF7A0F939
:102E7000304600F0FBF9781C122F0746D7D31948CB
:102E800000F0F4F9184800F0F1F948E47900002066
:102E90009343000800007A44000002C47800F81F41
:102EA000B80B000010E000E09C440008EFCDAB89B7
:102EB0000504030200000808FF0100001044000898
:102EC000416C6C20646F6E65000000003D2044532F
:102ED0003332333120524547203D000020307825E1
:102EE0003032580084430008A444000870000020D9
:102EF00079000020B80B00007800F81F000002C421
:102F000000007A44000006CC00803B4500000243EC
:102F10000000F0C10000F04100F07F4522440008AD
:102F200097440008F4430008474400087744000829
:102F30005F4400080CED00E00400FA05F0B587B02E
:102F40002D49086802242043086008682040069044
:102F500001270597049703970326029601944020C2
:102F60000090069825486D462946FFF75DFA0597BB
:102F7000049701A8D0C08020009020482946FFF780
:102F800053FA78051C4AD1680143D160D1680140E9
:102F90000691069879061A4842680A434260C26858
:102FA00018490A40C260FA040368934303607A0434
:102FB0000368934303600268BA4302601F2212024F
:102FC000036893430360104A026102683A43026057
:102FD00082680A40826082680C4B1A408260320527
:102FE00004689443046042680A404260591CC26805
:102FF0000A40C26007B0F0BD2C100240000400502F
:1030000000540040FF7FFFFF0B02100000F8FFFF9D
:103010007047704780B51849C8680007820F174885
:103020007A441279520097440108250D01200004CA
:1030300049680904490F884080BD0868C00609D561
:10304000104880BDCA68D20307D40868C00603D5FB
:103050000C4802E00A4880BD0948CA689202120F73
:1030600009A39A5C4243C8680002800F411C1046C5
:10307000FEF7A2F880BDC0460010024000127A00A0
:103080000024F40000093D00030406080C10182079
:103090003000000010B5112000F012F8840012205A
:1030A00000F00EF880092018FEF773FD0022034B94
:1030B000FEF77AFDFEF73EF910BDC0460000D03F96
:1030C000B0B50546D020002401222146FFF7E4F8E0
:1030D000002810D12846FFF785F900280BD1D02011
:1030E00001210A46FFF7D8F8002804D1FFF7BCF801
:1030F0000446FFF747F92046B0BDF0B581B00E4653
:103100000746D020002402222146FFF7C5F80125FA
:1031100000280CD13846FFF765F9002807D1304662
:10312000FFF760F9002802D1FFF72CF92546284661
:1031300001B0F0BDF0B581B00C460546401CC2B2EE
:10314000D0200021FFF7A8F80127002813D100267E
:103150003046FFF747F900280DD102E0641C6D1ED0
:1031600006D02078FFF73EF90028F7D0012700E0CD
:103170003746FFF707F9384601B0F0BD7047704792
:10318000012002020E490B6813430B60CA680D4B05
:103190001340CB600A680C4B13400B608A68824373
:1031A0008A6082040B6893430B60FD221204CB6893
:1031B0009343CB6000220A61C0060449086070474F
:1031C000001002400C40FF88F6FFF6FE08ED00E01C
:1031D000F0B581B014460D46074688200021022232
:1031E000FFF75AF8012600281CD1380AFFF7FAF831
:1031F000002817D1F8B2FFF7F5F8002812D188207F
:10320000012631462246FFF747F800280AD1FFF78A
:103210002BF828706D1C641EF9D1FFF7B3F8064631
:10322000401E8641304601B0F0BD000010B5027866
:103230001A49002A15D0431C0022521CD2B21C7815
:10324000002C0CD05B1CFF2AF7D108E00B681B0692
:10325000FCD540234B600378CB60521E401C002AF3
:10326000F4D108684006FCD510BDC04680B5FFF714
:10327000DDFF09A10222094803681B06FCD5402393
:1032800043600B78C360521E491C002AF4D10168C8
:103290004906FCD580BDC0460D0A00001C3801401F
:1032A00070B584B014460D46064613A0FFF7BEFF66
:1032B00015A0FFF7BBFF17A0FFF7B8FF1AA0FFF795
:1032C000B5FF3046FFF7B2FF1AA0FFF7AFFF01AE20
:1032D0000B211BA230462B46FCF76AFF3046FFF756
:1032E000A5FF18A0FFF7A2FF2046FFF79FFF18A039
:1032F000FFF79CFF04B070BD0D0A2A2A44454255D1
:1033000047205052494E54000D0A46494C45202052
:103310003A2000002E2E2F5372632F555345522F03
:1033200066756E632E6300000D0A46554E432020DD
:103330003A2000000D0A4C494E4520203A2000005A
:10334000256400000D0A494E464F20203A20000017
:103350000D0A0D0A00000000F0B583B001460026FA
:1033600009220446374602900192F8B280000858BC
:103370002568294600F0DDFD002803D03746029974
:10338000019A10E00097019FF8B280000299085856
:10339000294600F0C3FD002802D13246029901E01F
:1033A00002993A46009F241D761C0A2EDCD1F8B201
:1033B0008400D0B2860000273D46BC420CD0BE42FD
:1033C0000AD0C8591F21490600F04CFE0146284684
:1033D00000F0D8FD029905463F1D282FEDD1284663
:1033E00003B0F0BDF0B587B0514C216820680127CB
:1033F000B8432060394004910A202168C90701D0F0
:10340000401EFAD178054B490A6802430A600A68EF
:1034100082430A6048480168484A1140BB03C91802
:1034200001604168802631434160C1681140C9187C
:10343000C1600168424B19403D0349190160416870
:10344000402211434160C16819404919C160019689
:103450008661826106A964260E800B880988002B8C
:1034600006D0491E06AB19801D881988002DF8D199
:1034700000200390C04302902F48016909062AD416
:103480000097304B1968059105992F4F002F25D0D3
:1034900019682948826206AD2E80C9032C882D88C0
:1034A000002C03D06C1E06AD2C80F7E7C91722480C
:1034B000826106AC268020882588002803D0681EFB
:1034C00006AC2080F7E7CF191B4800690006DDD560
:1034D000039D029E04E0039D029E1AE0039D2E467A
:1034E0001548019A8262186806900698009F39462E
:1034F0000F4C1868C003C0174118FAD10E488261FA
:1035000018680690069801201968C903C917081899
:10351000FAD1FFF713FD0498002802D02068384341
:103520002060E843301A411E884107B0F0BDC04614
:10353000005400402810024000040050FF3FFFFFED
:10354000FFCFFFFF10E000E0B80B00009FB0104D70
:10355000686B012630436863686B30401890189898
:103560003107A86B0843A863A86B06910840189020
:103570001898084A90692021109108431021119150
:103580008843906104480168B143016006E0C04689
:103590000010024008000140002002400168C907F5
:1035A000FCD10322D002054C21688143F0020F9028
:1035B0000818206028683043286001E0007000404F
:1035C00028684007FCD51F2000026968814330034A
:1035D000149008186860E86880210B9108437021F6
:1035E00003918843E86007242002E9688143E96089
:1035F0000A94E002E9688143E960E8683043022107
:1036000015918843E860E8680C2101400429FAD14B
:103610009F49A048486000248C6005270F60D14373
:103620000991E86C0840E864E86C9B490840E8644C
:103630001D941C941B941A94E86A04231843E862AE
:10364000E86A184013931E901E98E86A3043E862B7
:10365000E86A30401E901E98E86A15990843E862AF
:10366000E86A08401E901E9804973D0708201290B3
:10367000A8621198A86240200C90A8621498A862D1
:1036800086491098886230020D9088628B61A8612B
:103690000F98A8611C941992B00307901890169285
:1036A0007F4F179618AE38463146FEF7BDFE1C9484
:1036B000169819901798C003059018903846169FD1
:1036C0003146FEF7B1FE1C941B941A971798199077
:1036D0001298189028463146FEF7A6FE1C941B94BB
:1036E0001A94179819901198189028463146FEF7A9
:1036F0009BFE1C941B941A97179819900C9818907D
:1037000028463146FEF790FE1C941997159818909C
:10371000624F38463146FEF787FE1C941B941A947C
:10372000179819901398189038463146FEF77CFE8A
:103730001C941B941A94179819900D981890284669
:103740003146FEF771FE1C941B941A941798199039
:103750000F98189028463146FEF766FE1C941B947D
:103760001A94179819901498189028463146FEF725
:103770005BFE1C9419940598189028463146FEF774
:1037800053FE1C9419941298189038463146FEF74F
:103790004BFE1C9419941198189038463146FEF748
:1037A00043FE1C941B941A94179819901098189023
:1037B00038463146FEF738FE1C941B941A9417982D
:1037C00019900D98189038463146179EFEF72CFE3A
:1037D000344A106830430E2188431060F868304343
:1037E000159B9843F8603868099908403860F043A1
:1037F0002D4A516801405160116831431160D16810
:103800000140D1609068304390602848BF3028491B
:103810000A6802400A602748109901601D941C94B0
:103820001B941A947102244A506B08435063506BE6
:10383000099108401E901E98D06A3043D062D06A29
:1038400030401E901698199018931F461E9818A97C
:103850002846FEF7E9FD194B986A38439862B00490
:10386000996A01439962164F386816490840F20573
:1038700001928018386070049A6A02439A6238682C
:103880000840B105401838609868C00720D11BE097
:1038900010E000E03F1F0000FFCFFFFF00040050DA
:1038A0000008005008000140000401404000FFFFF4
:1038B00004E400E000E100E00010024000240140C8
:1038C00008270140FFFF3FFFD868C7490140D96082
:1038D0000E9558690A99084358611869B0431861F0
:1038E0001398C043D9680140D96071063A680A4309
:1038F0003A60596801405960586812998843586085
:103900009868BA4908400699084398609868C007C3
:103910000BD1D868B6490140D9601698800719695B
:103920008143B448183008431861FFF707FBB24AD7
:10393000506B149908435063506B084018901898C6
:10394000D06A3043D062D06A30401E901D941C94DF
:103950001B9416981A90159D1995109818901E98FA
:1039600018AE0E9F38463146FEF75EFD1D941C943E
:1039700008941B9416981A9019950B98189038462D
:103980003146FEF751FD7D20C5009C4B186840066E
:10399000139A09D418689A4908402946E139014325
:1039A0001960586890435860D8690F998843D86166
:1039B00058681199884358608F4B586B0799084392
:1039C0005863586B084018901898D86A179908439C
:1039D000D862D86A08401E901D92089C1C941B94C3
:1039E00016981A90159F1997099818901E9818A95B
:1039F00002910E9E3046FEF717FD13981D901C9401
:103A00001B9416981A9019970795183518953046F3
:103A10000299FEF709FD7B4F3868C0077A4AFC4DD2
:103A20004DD13868794901400C3139607868FC49DA
:103A30000840786010467030B9680140B960E86CA1
:103A40001699084009044018FD49884209D0FD49EB
:103A500088420CD0FC491546884211D1FFF7DAFAAA
:103A60001DE0EB48006D80010599084018E0E84D25
:103A70002868400723D52868C00615D5F44814E007
:103A8000FFF7C8FAE24AD168D2689204520FF1A354
:103A90009A5C0906090FF1A3595CC840D0402A4638
:103AA0000028DB4D02D10AE0E848D94DE121164655
:103AB0000A0280184902FDF77FFB3246F8600920B0
:103AC000C002796881437960B8682A218843B86068
:103AD0003868179E30433860A86B3043A863A86BE2
:103AE000304018901898B007016811400160F92122
:103AF000C1620A9981624169314341610B99CC43AA
:103B000011460268224002608268D84B13408360ED
:103B1000C269129B1A43C261026A0D9B9A430262F8
:103B2000026A4368C769436060233B431327BB4372
:103B3000C3617C23C36370311140099A1143016250
:103B4000C269139B9A43C2614268039FBA434260B1
:103B5000826822408260E86A3043E862E86A304066
:103B60001E9015981D9008991C911B911A911990FF
:103B700018931E9818A90E98FEF756FCA74E3068A9
:103B80001890189814203168C903C9170818FAD179
:103B9000B748A821B7A2FFF783FBA34A106804998E
:103BA000884310609B4A9069302188439061286D5A
:103BB0000001169C2A460F9F2AD4106D000E00D1DA
:103BC0009FE095490868129B18430860AD48179913
:103BD0000170106D019908431065A548B221B3A288
:103BE000FFF75EFB0E9D25E03CC2FEFFE8FFFF6F86
:103BF000C73FFFFFE8FFFF7F001002400030014099
:103C00004000FFFF003801408FFCFFFFF369FFEF2A
:103C100081490868129B184308609A4815990170F9
:103C2000106D0199084310650E9D9148AF219BA22C
:103C3000FFF736FB814A106840060C9902D51068E0
:103C4000884310601198A8621298A862A96213981C
:103C500074498861AF62109888611498A86118A9A6
:103C6000142008800A880988002A06D0491E18AA4C
:103C7000118013881188002BF8D11499A96218A912
:103C800008800A880888002A684B06D0401E18A9B8
:103C900008800A880888002AF8D11498A86130683A
:103CA0001890189815993068C003C0174118FAD1B8
:103CB00082480168C9075E4D03D10168179A114314
:103CC00001609868C00746D09868400731D498686A
:103CD00059490840022101439960306818901898AA
:103CE00007989968C90705D03168C903C91708182A
:103CF000F7D130E01798186098684E4908409860EE
:103D000029E0454B58681968129D294319608007BE
:103D1000C01720405B490870116D019B1943116564
:103D2000012800D159E703280E9D6CD0022881D1CB
:103D30007BE79868404908401199084398603068CB
:103D40001890189807989968C906C0D53168C903B2
:103D5000C9170818F7D19868C00722D11F60986862
:103D60003549084018310143996030681890189817
:103D700007981968394205D13168C903C91708186D
:103D8000F7D10EE01F601EA8022101800188008883
:103D9000002906D0401E1EA908800A880888002A2B
:103DA000F8D19868C0072CD11798186098682149F5
:103DB0000840069908439860A005296801432960D6
:103DC00018A86421018001880088002906D0401EBF
:103DD00018A908800A880888002AF8D19868164926
:103DE0000840179908439860306818901898186828
:103DF000C00706D13068C003C01707994118079162
:103E0000F5D1FEF793FB1A48B5211FA210E7C04673
:103E100000100240080001400070004010E000E087
:103E2000FFCFFFFF000400500004014000240140C8
:103E300008270140E8FFFF6FE8FFFF7F00300140E7
:103E40000300030002000300010003000024F4004B
:103E500000093D0000000000010203040000000012
:103E6000000000000102030406070809F8BFFFFF75
:103E7000A044000853595354454D205245534554CE
:103E8000000000006000002057616B6575702066BF
:103E9000726F6D207374616E64627900506F776524
:103EA00072206F6E20726573657400004E6F726DC4
:103EB000616C20726573657400000000005400405E
:103EC000F8B5040C8BB2264682B25E4310465843C6
:103ED0000D0C370C360400218019164679416E43CB
:103EE000370C36048019264679416E438919F8BD8E
:103EF0004900CA020243100000D004204A0D01D03C
:103F000001221043044A490D914201D10221084384
:103F1000012800D105207047FF07000010B500F010
:103F200077F8EFF30080800001D5012010BD00205C
:103F300010BD10B500F06CF8EFF300804000800F6A
:103F4000012800D0002010BD30380A2801D20120FD
:103F5000704700207047000010B500290AD008788B
:103F6000002807D005487844FDF7E2F8002801D082
:103F7000002010BD0248784410BD0000520500002A
:103F80004A05000070B50125ED0704004C4020D41F
:103F9000441A01D2001B0919C60D4B00F2B2FF2AC8
:103FA00029D01B0E2CD000020C0228432C43D31A1C
:103FB000DC40051910D2280A02D3401C6D0611D02E
:103FC000761EF6058019FF2A00DA70BDC00DC00507
:103FD00070BD694000F0A4F801200543C541521CA2
:103FE000761CE8E764089C40C90161408900E7D17C
:103FF0000124A043E4E71B0E440200D0034870BD37
:10400000002AFCD1C00FC00770BD00BF0000C07FF8
:104010000123DB0502000A430DD4DA4203D49A429D
:1040200007D488427047D84214D4D94212D4884267
:10403000704780427047DA4203D59A42F9D58142EF
:1040400070475B004200DA4204D24A00DA4201D2F1
:104050008142704710B5024AFDF7FAFF10BD00BF5C
:104060000900130470B5420064414B005C41120E1C
:1040700039D01B0E38D0FF2A3CD0FF2B3AD0D218B3
:104080007F3A40024902400A490A4518ED010600FC
:104090004E43000A090A48430104731A4019190CD7
:1040A0004318990F04D05B08012149075B1A521C81
:1040B000D80904D3401CF50301D19D0607D0FF2A7F
:1040C00008D2D50506D0E4072043401970BD01256C
:1040D000A843F4E7002A01DCE00770BD2402FF20BA
:1040E0002043C00570BD1B0EFF2A03D0FF2B01D05B
:1040F000E00770BDFF2636064500B54206D84D00E4
:10410000B54203D8D218FF2A00D0E7E7004870BDB7
:104110000000C07F70B50125ED0704004C4022D49B
:10412000441A02D26C40001B0919C60D4B00F2B2B2
:10413000FF2A4BD01B0E50D000020C02A8432C4388
:10414000D31ADC40051B05D5AD0019D36D08761ECA
:10415000521E37D0F605280A01D2801970BD704171
:104160006D0603D070BD6940FFF712FF9C40090245
:104170006140490001D0401E70BD0124A04370BDC4
:104180006D081DD001202B0C01D12D0410302B0EF9
:1041900001D12D0208302B0F01D12D01001DAB0FD5
:1041A00001D1AD00801CEB0F01D16D00401C361A0F
:1041B000121A6D00680AF5054019012A02DB70BD6C
:1041C000002070BDC036300AC00770BD1B0E44020F
:1041D00001D1FF2B00D1024870BD002AF0D070BD84
:1041E0000000C07F03B402487844844603BC6047A3
:1041F0009DC4FFFF303132333435363738394142D0
:104200004344454640305800303132333435363738
:1042100038396162636465664030780004000008E4
:10422000000000000000000200010000100000007B
:1042300002400000000000A0000000000540000057
:10424000000000C8000000000C4000000000409C7E
:1042500000000000194000000020BCBE000000006B
:1042600034400000BFC91B8E00000004B5400000B0
:10427000504BCFD06607E2CF010000006C41000038
:104280003E8251AADFEEA73401000000D9420000AF
:10429000DCB5A0E23A301F97FFFFFFFFB4450000F6
:1042A000FD25A0C8E9A3C14FFFFFFFFFFF3F0000AE
:1042B0000000008000000000FF3F000000000080C0
:1042C0000000000080807F7E7D7C7B7A7978777625
:1042D00076757473727171706F6E6E6D6C6C6B6AE3
:1042E0006A69686867666665646463636261616081
:1042F000605F5F5E5E5D5D5C5C5B5B5A5A595958FE
:104300005857575656555555545453535252525167
:10431000515050504F4F4F4E4E4D4D4D4C4C4C4BBD
:104320004B4B4A4A4A494949484848474747474604
:104330004646454545444444444343434342424240
:10434000424141418182838485868788898B8C8D17
:104350008E8F919293959697999A9C9D9FA0A2A3D8
:10436000A5A7A8AAACAEB0B2B3B5B7B9BCBEC0C21F
:10437000C5C7C9CCCED1D4D7D9DCDFE2E6E9ECF0B1
:10438000F3F7FAFE3D3D3D3D3D3D3D3D3D3D3D3D6F
:104390003D3D005448203A2054454D503A25303296
:1043A000642E253032642052483A253032642E255E
:1043B000303264205354415455533A3078253032CA
:1043C00058005254433A203225303364202564206B
:1043D000256420256420253032643A253032643A41
:1043E000253032642054454D503A253032642E2514
:1043F00030326400526561647920746F20656E7498
:104400006572207374616E646279206D6F646500FB
:10441000454550524F4D20726573657420646F6E30
:1044200065004144433A20564444413A25352E32F2
:10443000662054454D503A25352E3266204348318A
:104440003A25352E326600456E74657220737461AC
:104450006E646279206D6F6465206661696C0054DA
:10446000727920746F20726573657420746865209A
:1044700073797374656D0054727920746F20656E62
:10448000746572207374616E646279206D6F646507
:1044900020616761696E004C6F6F700046756C6CCF
:1044A000496E697400000000D44400080000002038
:1044B00080050000040100081C000000430000000B
:1044C000F8FFFFFF0C0000000E0000000F000000CE
:0444D0002E000000BA
:04000005080000C12E
:00000001FF
