:020000040800F2
:1000000030050020D5000008092B0008C5140008A1
:1000100000000000000000000000000000000000E0
:10002000000000000000000000000000E72D0008B4
:1000300000000000000000000B2B00084B2E000801
:10004000E7000008E7000008E7000008E7000008F4
:10005000E7000008B1140008E7000008E700000806
:1000600000000000E7000008E7000008E7000008C3
:10007000E7000008E700000800000000E7000008B3
:1000800000000000E7000008000000000000000081
:10009000E700000800000000E7000008E700000893
:1000A000E7000008E7000008E7000008E700000894
:1000B000E7000008E7000008000000000000000062
:1000C0000348854600F0ECF9004800470932000873
:1000D000300500200448804704480047FEE7FEE75B
:1000E000FEE7FEE7FEE7FEE74D2E0008C100000830
:1000F00030B50B46014600202022012409E00D46C0
:10010000D5409D4205D31D469540491B2546954047
:1001100040191546521E002DF1DC30BDF0B51FB45C
:100120000646002082B005464024019100901BE065
:10013000019922460F46304600F0D4F9049A059BF7
:10014000801A994110D310461946224600F0BAF998
:10015000361A8F410197224601200021009F00F0AE
:10016000B1F938184D4100902046641E0028DFDCAC
:10017000019B00982946324607B0F0BDF0B507460E
:100180000846584087B0C00F049048000E465900FA
:1001900040084908BC1A884105D2384631461E46F7
:1001A00017460B4602465800400810434CD0300D0D
:1001B000039040055900400D490D0590401A0290EA
:1001C000402872DA18030121000B09050843019049
:1001D00004980092002805D00199524200208841DD
:1001E00000920190029840210A1A0199009800F0AB
:1001F00069F905460C466B4607CB00F084F9C01937
:100200007141039A0E0D0023D71756401A467A40C3
:10021000164344D0049A002A2DD0029A012A039A48
:1002200015DC1205C01A914101263605001C7141EA
:10023000D20F059ED2070093019202962A462346CA
:1002400000F081F907B0F0BD38463146FAE71605EF
:10025000224A0F46B218C01AB74101210905001CF5
:100260004F4100187F41114618187941E20F1043A1
:100270006D19644113E0E2076D0815436408C20775
:100280001443039A01261205C01A91413605001C39
:100290007141CE07400830434908C01851412A46F1
:1002A000234600F043F9CDE7FFE704980122400020
:1002B000C117121A00238B4104983146C417381A0B
:1002C000A141EEE730B40124E407634030BC55E7B8
:1002D00030B40124E407614030BC4FE70000E0FF88
:1002E000F0B51FB488B00B990998002448400999CB
:1002F000C00F490049080991C0070B9900904900B7
:1003000049080B9109990898A64608431CD00B99F7
:100310000A98084318D0099801244000420D48006B
:10032000410D099824050003000B204309900B9808
:100330000003000B20430B9050181C49401800226A
:1003400001901446104605E0002001460DB0F0BDB6
:10035000032801DA034600E003239C46C11A0AAED3
:100360000AE05F0008ADED5B4F00F75B7D430027BF
:10037000AA187C41491C5B1E6145F2DD410004ABBB
:100380005A522104120C0A43240C401C0828DFDBBB
:10039000019802900099704601910090059B049A83
:1003A0000799069800F0CFF8D0E700000DFCFFFF9A
:1003B000F0B50C465C4085B0E40FE40703944C00B4
:1003C00000266408590094464908024602962243D2
:1003D00021D062460A431ED06200570D4A000E0328
:1003E0002303550D012402462C492405781B1B0BC1
:1003F000360B401823432643614600901C46501A92
:10040000B44103D30098401C009002E09218009879
:100410005B41002803DA0020014605B0F0BD002052
:10042000012109050746864611E064461D46141B56
:10043000B54106D36546521BB341744607430C438E
:10044000A646CD0740084908284392185B41054657
:100450000D43EAD11046184313D060461946504068
:100460007140084306D06046101AB34106D20122FB
:10047000002306E000220123DB0702E00122D24331
:100480005310009874460105381C6141029C039D7D
:100490000019694100F04AF8BFE70000FD030000C1
:1004A000064C0125064E05E0E36807CC2B430C3CC7
:1004B00098471034B442F7D3FFF706FECC75000816
:1004C000DC75000810B5202A04DB0146203A914073
:1004D000002010BD914020239C1A0346E34019439D
:1004E000904010BD10B5202A04DB0846203AD040C9
:1004F000002110BD0B46D340D0402024A21A9140C9
:100500000843194610BD10B5202A06DBCB17084654
:10051000203A1041C1170B4306E00B461341D0406F
:100520002024A21A91400843194610BD10B5002B93
:1005300008DA0024401C614192185B411A4301D142
:100540004008400010BDF0B51FB482B005460C0055
:1005500003D0084603F094FE02E003F091FE203041
:100560000246009021462846FFF7ACFF049B059AFF
:1005700004460F4618431143084314D0184610434D
:100580001BD0009840210A1A18460599FFF7AAFFC8
:1005900005460E46009A05990498FFF793FF084315
:1005A00005D0012004E02046394607B0F0BD002008
:1005B000C11705430E432C43374300990E9863053A
:1005C000401A7905E40A00220C43FD0A0A3002D5DC
:1005D00000200146E9E70105101969410C9C0D9DB9
:1005E00000196941FFF7A2FFDFE770B50024254637
:1005F000002801DA01244042002901DA012549429C
:10060000FFF776FDAC4200D04042002C00D04942BA
:1006100070BD03460B439B0703D009E008C9121FB6
:1006200008C0042AFAD203E00B780370401C491C6E
:10063000521EF9D27047D2B201E00270401C491E2E
:10064000FBD270470022F6E710B513460A4604466F
:100650001946FFF7F0FF204610BDF8B502464A40A4
:10066000D40F42004B0052085B089A4202D2024665
:10067000084611464A0023D0C30D4A00DDB2120ECF
:10068000AD1A202D35DA49020126490AF6058A19E4
:10069000002C00D0524220214F1B1146B9402A4164
:1006A0001018C20D9A4221D0002C17D0012D08DC61
:1006B000DA05801AD20F8019D207DBB200F0E4F914
:1006C000F8BDDA05801A012340001B06C018801807
:1006D0005A428018CA0F1043490007E04908C20770
:1006E0001143DA05801A80194008801800F0C4F917
:1006F000F8BD61000122511A001BF7E70122D20761
:100700005140AAE70122D2075040A6E7024670B541
:100710004A40D30FDB0740002DD04A002AD0010EFB
:10072000140E000212020919400A520A8418E50147
:1007300004465443000A120A2E045043A4194219D5
:10074000200CC543AA18120C0125AD03521C5219E6
:1007500012047F39240400D0521C104301D44000FD
:10076000491EC2B20C06C0092018401C4008802A4D
:1007700002D003E0002070BD40084000002900DAEC
:100780000020184370BD70B502464A40D50F4000A6
:100790004A00ED0740085208002814D0002A12D061
:1007A000C40DD30D41020120C0055202490A520A6C
:1007B000E41A091812187D34914201D3641C00E038
:1007C0004900002C01DA002070BD0023914201D3C2
:1007D000891A0343400849000028F7D100290AD0AC
:1007E000914202D10121C90705E0914201D20121C4
:1007F00001E00121C943E005C018401900F03CF9AF
:1008000070BD0122D207002800DB101A002900DB8E
:10081000511A814201D801207047002070470122FF
:10082000D207002800DB101A002900DB511A814290
:1008300001D201207047002070470122D207002812
:1008400000DB101A002900DB511A814201D301207C
:100850007047002070470122D207002800DB101AE1
:10086000002900DB511A814201D901207047002084
:10087000704710B5002904DB0C460121C90740422E
:10088000A141002B04DB1C460123DB075242A3419C
:10089000801A994101D3012010BD002010BD10B570
:1008A000002904DB0C460121C9074042A141002B6D
:1008B00004DB1C460123DB075242A341101A8B4183
:1008C00001D2012010BD002010BD10B5002904DBAD
:1008D0000C460121C9074042A141002B04DB1C4604
:1008E0000123DB075242A341101A8B4101D301209F
:1008F00010BD002010BDC217C10F504010B54018E8
:10090000CA079623002100F0BFF810BD10B50022E1
:100910009623114600F0B8F810BD00000EB5C217BE
:10092000C10F5040CA0740180021054B02930192A5
:1009300000910A460B46FFF706FE03B000BD00001B
:10094000330400000EB505490291002100910A46CA
:100950000B460191FFF7F7FD03B000BD3304000023
:10096000C20F410040020123400ADB05D207090EF5
:10097000C0187F2901DA00207047962903DC9623EE
:10098000591AC84001E096398840002AF4D0404204
:100990007047000070B5CD0F4A0009030123090B11
:1009A0001B0519430B4BED070024520D9A4201DA47
:1009B000002070BD074B34339A4203DC9A1AFFF7CC
:1009C00091FD02E00449511888402C43F1D0404287
:1009D00070BD0000FF030000CDFBFFFF4A000903CC
:1009E0000123090B1B051943094B10B5520D9A42FF
:1009F00001DA002010BD064B34339A4203DC9A1A08
:100A0000FFF770FD10BD03495118884010BD00006C
:100A1000FF030000CDFBFFFFC20FD20740004008DC
:100A20000BD0C10D0723DB01C91840020905400A9C
:100A30001143C20840071143704700200146704728
:100A4000CB0FDB07490010B5490802460A4307D01F
:100A50000A0D07240903E401090B121B002A01DC1B
:100A6000002010BDC900440F0C43C100E018D2059E
:100A7000801800F001F810BD002904DA401C49007C
:100A800001D140084000704770B40024050C05D126
:100A90001024000402D1002921D01124050E01D117
:100AA00000020834050F01D10001241D850F01D17A
:100AB0008000A41C002801DB4000641C002908D031
:100AC00020252E1B0D46F540A14000D001212943D1
:100AD000084301061B1B000ADB1D02D5002070BC69
:100AE0007047DB05181880180029F8DA401C490007
:100AF000F5D170BC4008400070470000F0B589B0E7
:100B00000023554CE34D01932068C00768D053483B
:100B1000A06208200090206004272760A168394067
:100B20004B424B417D21C9000022DB0704D0A36862
:100B30004B4803401B1DA3602B680893089B0B4682
:100B40002668760705D42E68F603F617F318F7D152
:100B500046E0236C43480340560007A883532760B0
:100B6000A6683E4073427341521C022ADDD1002E1A
:100B700026D1009820603C4800883C494843FFF754
:100B8000C5FE009007AE7088FFF7C0FE01460098D2
:100B9000FFF7F9FD3649FFF7F6FD00903088FFF7C3
:100BA000B5FE01460098FFF7B1FD3249FFF7EBFDB6
:100BB000019B990002AA50505B1C052BA3D113E0A6
:100BC000A068274A10401030A06028680890089854
:100BD000A068C006CDD52868C003C0174118F7D15A
:100BE0000025284609B0F0BD002502AE2C46E0B233
:100BF000800002A9085831680191FFF72CFE0028F7
:100C000001D02C460BE00094F8B2800002A90858ED
:100C10000199FFF712FE002800D12F46009C361DD7
:100C20006D1C052DE3D1E0B28600F8B287000024E8
:100C30002546A6420BD0A74209D002A800590E496A
:100C4000FFF7A1FD01462846FFF707FD0546241DD5
:100C5000142CEED1C5E7C04600240140020002007A
:100C6000E8FFFF7FFF0F00007800F81FB80B0000BF
:100C700000F07F4500007A440000404010B582B08B
:100C80003348017B00291CD0324CF921E1606168B6
:100C9000FA2901D300216160407B00F027F901208F
:100CA00000022168014321608F490A680192019A7C
:100CB00014220B68DB03DB179A18FAD121688143F1
:100CC000216002B010BDC046B0B582B02048017BA3
:100CD00000293AD01F4CF925E5606168FA2901D353
:100CE00000216160407B00F001F91B48E060606812
:100CF000C0087D2801D30020606001200102206827
:100D000008432060784802680192019A1E22036815
:100D1000DB03DB179A18FAD12368224A13402360B9
:100D2000E5606368FA2B01D30023636023680B43FB
:100D300023600168009100991E210368DB03DB1723
:100D40005918FAD120681040206002B0B0BDC046EA
:100D50001000002020000040E703000010B5012033
:100D60000E490A68D20503D402020B6813430B60D4
:100D7000C2040B4B1C6814431C601C6894431C6029
:100D80000B68084A13400B60ED3207495358002B9B
:100D900002D1121DFAD1002010BDC04600700040E3
:100DA00050100240FFFEFFFF64280040F0B589B0FC
:100DB00001930292039106AD0021297005900678F7
:100DC000642130460491FFF793F968706321CF43A3
:100DD000784384190A2620463146FFF706FCA8709E
:100DE0005A3747433819E87003200399411A8A0F8C
:100DF0008A1882438A1A3B4B186800070F980E998D
:100E000014D4394C25680795079D14252768FF03DE
:100E1000FF177D19FAD11C68240707D4D2B206AB9C
:100E20009C5C029DAC4219D3019C1AE01C68E4064C
:100E30001DD42D4C25680895089D14252768FF03AF
:100E4000FF177D19FAD11B68DB0610D4D2B206ABAE
:100E50009C5C019DAC4203D8029C02E0641C00E053
:100E6000641E9C5401220A700270FFF707FF1720CE
:100E7000C0430699414306A84278049B534359183E
:100E8000827856438919C07808180599087009B006
:100E9000F0BDC04610E000E0B0B581B00120C00355
:100EA0000F49104A104B0C680442FCD01468240708
:100EB000F9D51468E406F6D51C680094009C142447
:100EC0001D68ED03ED172C19FAD10C680442EAD025
:100ED00014682407E7D51468E406E4D501B0B0BD72
:100EE000100000501004005010E000E0F0B581B098
:100EF0000B21FFF7FDF80C460F4F3868FFF722FD76
:100F000000250E4B2A46FFF7EBF90D4B2A46FFF75B
:100F10004FFA05460E462046FFF714FD02460B46E3
:100F2000FFF7DEF92A463346FFF7DAF9FFF756FDF9
:100F3000386101B0F0BDC0462C0000400000E03F29
:100F400000005940F0B583B02B4801F039FF2B4D1C
:100F500002242846214601F007FF29A001F030FFB6
:100F60002846214601F000FF294801F029FF2846C4
:100F7000214601F0F9FE0026274F284C300710D1FA
:100F80001D4801F01DFF02211C4801F0EDFE6D46D9
:100F90000A2128461F4A334603F056F9284601F035
:100FA0000FFF3046384303786D460A212846224613
:100FB00003F04AF9284601F003FF761C0120C00225
:100FC0008642DBD10C4C204601F0FAFE0B4D022686
:100FD0002846314601F0C8FE11A001F0F1FE284676
:100FE000314601F0C1FE204601F0EAFE28463146B6
:100FF00001F0BAFE03B0F0BDC975000864730008C3
:10100000454550524F4D2044554D503A0000000088
:10101000FB7300086773000800000808727300087B
:10102000454550524F4D2044554D5020454E4400AB
:10103000B0B501468D204400621C0520012300F05C
:10104000EFF9242001F086FF0025FF2001F0AEFF1C
:10105000681CA9B2A1420546F7D30E340020102324
:101060000146224600F0DCF9B0BD000070B5252035
:10107000C4000025102328462946224600F0D0F956
:10108000242001F067FF074EFF2001F08FFF681C4E
:10109000B5420546F8D3002010230146224600F051
:1010A000BFF970BD7F120000F0B587B007240B4672
:1010B000059423405B1CDB0804935B1C0191C90869
:1010C000029200F0ADF900273A46039202250198FA
:1010D00039460C4606A90F7005990840394680220A
:1010E000C24011436D1E2A0603D0401C0828F6D1C9
:1010F00000E03D46C84306AE3070242001F02AFFD0
:101100000121304601F07EFF611CE0B2049A90425A
:101110003846DED3039A521C90B202998842D4D347
:1011200007B0F0BD70B5144612786378DD082B4621
:1011300000F076F92678242001F00CFF6E43A01C05
:10114000314601F05FFF70BDF0B58DB00A92069197
:1011500005901878002800D1E8E01C46139E129FE5
:10116000391D0791F11D039100250896049701068A
:1011700015D40B95002F25D03978401A7A78B97894
:1011800013464B43DE087043079D281809908019C9
:10119000FB787343EB18984250D90B9D5EE0002E0C
:1011A00000D1BEE00CA900220A701146034693400C
:1011B0001B0632D5521C491C052AF7D10CA8052163
:1011C0000170AAE0002E4ED020284CD105980B9932
:1011D000081880B2B17872785608CF08069932465E
:1011E0003B4600F01DF97E430ED000250CAFFF20DA
:1011F0003870242001F0AEFE0121384601F002FFD4
:101200006D1CE8B28642F1D80B980A994018089EE6
:10121000717849084518049F83E00CAA11707F2259
:101220000A40042A21D0032A32D0022A75D16178DB
:10123000002972D0641CC006420D35E005980B9D54
:10124000281880B2CB08069900F0EAF8242001F0B3
:1012500081FE0998314601F0D5FE7A780A9828185F
:101260008518089E5DE00B9D5BE06278002A54D0F3
:10127000A378002B51D0E17800294ED0E41C400720
:10128000C00A9206920B10189A06120D82180BE0F3
:101290006278002A41D0A17800293ED0A41C000722
:1012A000000C9206120D12183F200840104334D053
:1012B000F178002931D00B957378B27801930092C0
:1012C0005343DA080292D21C09920223DB43039EA5
:1012D000F55C2D04F21857783F027D199278AA1810
:1012E000824207D0099AB618491EF1D1089E049F80
:1012F0000B9D12E005980B9D281880B20099CB0831
:101300000699019A00F08CF8242001F023FE304663
:10131000029901F077FE089E049F0A9828187178B8
:1013200045186078641C002800D020E70DB0F0BD9F
:10133000B0B582B00446364910220A61E948036814
:101340000093009B01230568ED03ED17EB18FAD11C
:101350000A6001680191019901210268D203D21744
:101360005118FAD1012C04D0122001F0F3FD01F044
:1013700073FE0125284601F0EDFD272001F016FE41
:10138000284601F013FE002001F010FE0C2001F0B1
:10139000E1FDD72001F00AFED62001F007FE9D20D6
:1013A00001F004FE112001F0D5FD284601F0FEFDFC
:1013B0002C2001F0CFFD9A2001F0F8FD3A2001F039
:1013C000C9FD1A2001F0F2FD3B2001F0C3FD082009
:1013D00001F0ECFD3C2001F0BDFD012C08D03320D4
:1013E00001F0E4FD002C08D0022C0ED10B4C05E0DE
:1013F000012001F0DBFD074C00E0074C322001F03A
:10140000A9FD1E21204601F0FDFD02B0B0BDC04681
:1014100018000050886B00086A6B00084C6B0008CD
:10142000F0B581B01F4600920C460646442001F0FC
:1014300091FD204601F0BAFDE019411E1F20084031
:1014400001F0B4FD452001F085FDFF202830851B0B
:10145000EEB2304601F0AAFDE805C70F384601F0AC
:10146000A5FD0098281A451CE8B201F09FFDE8058B
:10147000C00F01F09BFD4E2001F06CFD204601F0F5
:1014800095FD4F2001F066FD304601F08FFD384696
:1014900001F08CFD01B0F0BD80B5222001F05AFDB5
:1014A000C62001F083FD202001F054FD80BD000026
:1014B00003480168C90701D0012101607047C04697
:1014C0001404014082B00DA001F07AFC1248022100
:1014D00001F04AFC83480168019101997D21C9000E
:1014E0000268D203D2175118FAD1BFF34F8F0B48BD
:1014F0000B490160BFF34F8F00BFFDE72A2A2A2A5C
:101500002A20494E2048415244204641554C5421FE
:10151000202A2A2A2A2A0000647300080CED00E021
:101520000400FA0580B582B06E4801680191019906
:101530007D21CA006C490B685B0708D40368DB0394
:10154000DB179A18F7D101F0ADFD002000E0C86864
:10155000C0B202B080BDC046F0B583B001917D231A
:10156000DD00504B5C6924045E4E14D400920122CD
:101570001146D7021C68BC431C60324A541C1F68C9
:101580002740381818601868019F002F15D02A4688
:101590001832104312E034680294029C2C465F69B2
:1015A000FF07E3D13768FF03FF173C19F7D101F0BC
:1015B00079FD002841D1012440E0104018600C461C
:1015C00008061A6882431A60FF2000041A688243E2
:1015D000009800041018186048061A6882431A60C0
:1015E00048031A6802431A60306802900298002F7C
:1015F00018D0002D1DD05869400718D43068C0039A
:10160000C01745195869C006F3D5986910210143E0
:101610009961032412E03068C003C0174519586966
:10162000C006F2D4002D04D05869C007F3D00024BE
:1016300004E001F037FD002800D00224204603B06A
:10164000F0BDC046FFFBFFFF10B582B02548016822
:10165000019101997D21C900124A0B465469E407A2
:1016600005D10468E403E417E318F7D10FE0012380
:101670009B0314681C43146003680193019B536926
:101680001B040CD50368DB03DB175918F7D101F0F5
:1016900009FD002801D0022002E0012000E0002026
:1016A00002B010BD0454004010B582B00D490A6864
:1016B0000192019A7D22D3000B4A1468E4070AD1F3
:1016C0000C68E403E417E318F7D101F0EBFC002801
:1016D00004D0022003E01061002000E0012002B0ED
:1016E00010BDC04610E000E018540040F0B584B0D2
:1016F0000C68002C55D00123019303915A1E019FC1
:101700009740274048D04A68551E022D02943D4616
:1017100015D27D4303998C686C4303266E43816820
:10172000B143214381600399C9680092029A5143F1
:1017300044689443009A0C434460039902E07D435B
:1017400003266E43F64309696943C46834400C4379
:10175000C460022A029C19D13C0A01D0242200E074
:10176000202203994F6902928258002C02D06443D0
:10177000644301E02C466C430F2161438A43674375
:1017800017430299475003990C684A68554301680A
:1017900031402943016003992246DA405B1C002A4C
:1017A000ACD104B0F0BD0000B0B5012213020E4868
:1017B000416899434160046804210C430460046853
:1017C00008252543056044681C43446052020368B1
:1017D0001343036002680223134303600348026853
:1017E0000A43026030BFB0BD0070004010ED00E061
:1017F000ABB001200F90C503F8480078411EF84CAB
:10180000F84E02290AD20F2001F050FA40B2002807
:1018100001D500F00BFDFFF7A1FA43E0032841D109
:101820000F2001F043FA800733D4206828422DD1DD
:1018300030681290129814203168C903C91708182B
:10184000FAD12068284221D1E7480068C0061DD49B
:1018500030681290129814203168C903C91708180B
:10186000FAD1E1480068C00610D4DF4800680007DC
:101870000FD430681290129814203168C903C91728
:101880000818FAD1D8480068000702D400F0CEFC4E
:1018900008E00F24204601F009FAFD21014020460E
:1018A00001F021FA0C95D14801F098F9002528465D
:1018B0000B30C4B2204601F0F9F9014680273943C4
:1018C000204601F010FA6D1C032DF0D110970E2464
:1018D000204601F0EBF902210143204601F003FA12
:1018E0000F24204601F0E2F9FD210140204601F0DD
:1018F000FAF90025E81DC4B2204601F0D7F97F218E
:101900000140204601F0EFF96D1C042DF2D10E27A5
:10191000384601F0CBF90146FE242140384601F05B
:10192000E2F90F25284601F0C1F904402846214676
:1019300001F0D9F9384601F0B9F9042101430B97B8
:10194000384601F0D0F98820002111910222FFF7DA
:1019500003FE0028A24F77D12C20FFF7A5FE002818
:1019600072D10620FFF7A0FE00286DD1882001214A
:101970000622FFF7F1FD002866D10024FFF7D2FD13
:1019800012A90855641C062CF8D1FFF75DFE00284B
:101990005AD112AA511CFF241378634000245D0021
:1019A00031201B0600D54540EBB2651C072C2C46A8
:1019B000F5D3541C8A4222461C46EDD112A98978DF
:1019C000994241D112AA111DD21CFF241378634001
:1019D00000245D001B0600D54540EBB2651C072CBA
:1019E0002C46F6D3541C8A4222461C46EED112A83D
:1019F0004079984228D112AC2079E1780902081880
:101A0000FEF78CFF00257A4B2A46FEF7D1FC794B76
:101A10002A46FEF765FCFFF713F87749086020882F
:101A2000000400BAFEF77AFF2A46714BFEF7C0FCAD
:101A3000724B2A46FEF754FC714B2A46FEF79EFB7A
:101A4000FEF7FEFF6F4908606F480168C9070F9CE9
:101A500002D00168A143016020206349886120030E
:101A6000B861E002B860694800680D90FEF7D4FFE5
:101A700007460D46664A674BFEF711FF002807D15F
:101A8000654A664B38462946FEF7F3FE002802D128
:101A9000FFF734F80D90624840680D99FEF7B1FEEB
:101AA00021020E915F4F002809D15FA06121634A96
:101AB00001F0F4F9FFF778FE0C9B494D2CE24B4BFB
:101AC0005979481EC0B20B280DD81A79501EC0B2E1
:101AD0001E2808D87D2000019B791818584BC5187E
:101AE000C82D00D25FE257480021017056480170AE
:101AF00056480170434800680F903F48066801F05F
:101B000005F802252846FFF713FCFFF7AFFAFF2779
:101B100004970837059721371C21119C20463A4627
:101B2000FFF7C2FA682120463A46FFF7BDFAD520F2
:101B300043214C22FFF7B8FACA20042108230B9155
:101B40002A460A93FFF76CFC3046FEF765FF304AE1
:101B50003F4D2B46FEF712FBFEF71CFF0990FEF7E8
:101B6000CAFE01463046FEF7C9FD3A490E46FEF769
:101B7000CDFD08900F9821460446FEF750FE07461B
:101B80002046FEF749FF02460B46002F00D0324D9B
:101B90001F482946FEF7F2FAFEF7FCFE0690FEF714
:101BA000AAFE01462046FEF7A9FD3146FEF7AEFD2E
:101BB0000790119D28460F900720382429460E468D
:101BC00012A90D702946109B1A46C2401143641E8B
:101BD000220643D0401C0828F6D140E00500002032
:101BE0001000005010E000E010040050240100201C
:101BF000E0FFEF40000059400800002000E0654091
:101C0000008046C00C0000200054004050280040D6
:101C10009A9999999999B93FCDCCCCCCCCCC0C4020
:101C20001000002010ED00E0557064617465486F8D
:101C30006D65446973706C61790000005B74000825
:101C400030F8FFFF02000020040000200000002008
:101C50009999A93F000020419999A9BF2C46C843F2
:101C600012AD2870242001F075F901272846119D36
:101C7000394601F0C7F9711C072E28469FD30F99EA
:101C8000481C002997D0EF48456828460D9C2146FE
:101C9000FEF7B7FD06460798FEF762FE109008981B
:101CA000FEF75EFE002E119008D10021F14A059842
:101CB000FFF738FAE14F0E99069E41E012A8E94974
:101CC0006222FEF7A6FC20462946FEF717FD0446D1
:101CD000E5482946FEF712FDE449FEF754FD0146AA
:101CE0002046FEF750FDFEF797FE0024E04B22460B
:101CF000FEF744FAFEF74EFE1428014600D31421E5
:101D00000028D74E00D00F46002F049D10D012A8F7
:101D1000553031184A5DF82313404B55421E14705C
:101D200002781F2313400370FE317F1E0846F0D156
:101D3000002112AA0598FFF7F5F9C04F069E0E99EB
:101D4000BB79F8787C793A79019200948000CA4A8C
:101D500010180290C94CCAA2204602F075FACE4D66
:101D60000195CE4800900020012201462346FFF74E
:101D7000EBF9387A002813D0F879002807D0C74843
:101D800000900195002009210222C5A306E0C34866
:101D900000900195002005210222C2A3FFF7D4F98B
:101DA000BB7878780090B54CBFA220460E9902F01F
:101DB0004BFA387A0195BF490091002801D02220C2
:101DC00000E01620052106222346FFF7BDF9092071
:101DD000C043864202DCA948BDA208E0632E04DCB1
:101DE00010980090A548B7A201E0A448B2A20E99AD
:101DF000334602F029FAA94800900195D520052420
:101E000000279E4B21463A46FFF79EF9099B632B1C
:101E100004DC119800909948B3A201E09748AFA262
:101E20000E9E314602F010FA9C4800900195D52094
:101E30000921924D3A462B46FFF786F986480078ED
:101E400007214843AB4A1018824A1278834B1B780B
:101E500001904B43A848C01800909000A7490B1868
:101E6000A7A22846314602F0EFF9A9480097019051
:101E70000E21022238462B46FFF766F9FFF70CFBCE
:101E8000A4480168A143016001680760A24A426159
:101E90000268224302606C4F3A680B9B9A433A6097
:101EA0009E4A13680A9C2343136030BF0160FEF70B
:101EB00025FE9B490A68324202D10A6832430A6011
:101EC0005F4A10600868664B18400860106822205E
:101ED00001F040F8032001F069F8202001F03AF801
:101EE00001F0BAF81024204601F034F8012001F086
:101EF0005DF88C48016849064F4E0C9B4C4D03D54C
:101F00000168402291430160AC610A98A8614020B9
:101F1000A86148480B99816028681842FCD0306855
:101F20001290129814203168C903C9170818FAD101
:101F300028681842F0D00E9D29460A317A4C7BA2BF
:101F4000204600F0ABFFFFF72FFC29460F317E4AF9
:101F5000204600F0A3FF3068129012987D20C00048
:101F60003168C903C9170818FAD1294611316E4CD6
:101F7000764A204600F092FFFFF716FC29461331FF
:101F8000714A204600F08AFF1435714A20462946DE
:101F900000F084FFBFF34F8F381F6E490160BFF31D
:101FA0004F8F00BFFDE7EC1CA600284B9E5947024F
:101FB0004B013B4313439E4200D9AC1C234BA4006E
:101FC0001E5900F011FF05461F223240F002000D9D
:101FD000F105090F00F008FF281A401C1C490B5995
:101FE000D9030A0F0D240F99641E0F9DA5401D40B3
:101FF000E540012D01D01D2500E01E2586B2B54229
:1020000004D2401B491C002CEED10B99119C114BA2
:102010001C70002A08D0CCB2A24205D2521CA242A7
:1020200001D101221A70491E0B4A10700B4860E55D
:10203000100000501004005010E000E024010020C7
:10204000502800401000002010ED00E0347000081F
:10205000046D0008000000200200002004000020A1
:10206000FFFEFFFF886A0008000040400000A0411A
:102070000000E03FEA6A00087F6C000824000020AE
:1020800032253033642F25642F2530326420E698C2
:102090009FE69C9F25730000A26100087547000819
:1020A000504D0000414D0000253032643A25303259
:1020B00064000000D55400082530336420E2848396
:1020C00000000000253032642E2564E28483000085
:1020D0002530326420E28483000000002530336420
:1020E00020EFBC8500000000253032642E2564EF0F
:1020F000BC850000A66B0008A76C00089F6C000858
:10210000E5869CE58E86EFBC9A25732573257300C2
:10211000F85C000800040140FFFF7B000020024043
:1021200000700040003001409D75000852656164F8
:102130007920746F20656E746572207374616E64AB
:102140006279206D6F6465000A7500087D7500086E
:10215000657500080400FA05F0B587B02D490868D8
:102160000224204308600868204006900127059754
:102170000497039703260296019440200090069846
:1021800025486D462946FFF7B1FA0597049701A83F
:10219000D0C08020009020482946FFF7A7FA780594
:1021A0001C4AD1680143D160D1680140069106986C
:1021B00079061A4842680A434260C26818490A40D0
:1021C000C260FA040368934303607A04036893438C
:1021D00003600268BA4302601F221202036893433D
:1021E0000360104A026102683A43026082680A4052
:1021F000826082680C4B1A40826032050468944306
:10220000046042680A404260591CC2680A40C260C9
:1022100007B0F0BD2C1002400004005000540040F4
:10222000FF7FFFFF0B02100000F8FFFFF0B59FB02B
:10223000FEF74AFD00F06AFC02200990FFF778F8EB
:10224000FEF714FFC148002500950190C04B2846B9
:1022500029462A46FEF778FFA1201690BD4C294654
:102260002246FEF75FFFD120159029462246FEF751
:1022700059FFFF2002300646129029462246FEF7FB
:1022800051FFB54800950190044695201490012710
:10229000B24B39462A46FEF757FF00950194CD20F0
:1022A0001190AF4B39462A46FEF74EFF0095019438
:1022B000FD201090AB4B39462A46FEF745FF3246CB
:1022C00027320F921B210E912846FEF7EDFEFFF7F5
:1022D000E3F83A02A44E7168179291437160316835
:1022E00004200A9001433160A04802680524A243FB
:1022F000026001680D9105609D4B4361036807947E
:10230000234303603A467B0234681C433460F9037C
:10231000984C276813910F43276034681443346046
:102320003468099884433460934C27680A980743BB
:10233000276030BF0D988D4908603168994331603E
:1023400016461046FEF7F4FFFEF790FE222000F03E
:1023500001FE099800F02AFE202000F0FBFD00F0AD
:102360007BFE009579480190284629462A46784BFD
:10237000FEF7EAFE16982946764C2246FEF7D2FE74
:10238000159829462246FEF7CDFE12982946224688
:10239000FEF7C8FE0095704C0194149831462A4609
:1023A0006E4BFEF7D1FE00950194119831462A46F6
:1023B0006B4BFEF7C9FE00950194109808963146C4
:1023C0002A46684BFEF7C0FE2E4628460E990F9A05
:1023D000FEF76AFEFEF760FD1AA800F0FFFB0F2073
:1023E000039000F063FC40B2002803D41AA840799F
:1023F000002805D161481AA90CC80CC100780870E2
:1024000018A8067019A8089901701AA8811D0F91C3
:10241000411D0E91011D0D91C11C0691C11D05911B
:10242000014608310491811C0C91401C0B90544CC6
:10243000139F206838421AD1524A10681D901D9887
:1024400014201168C903C9170818FAD12068384246
:102450000DD118A80121017019A801702546F4B208
:10246000FEF70CFC102C2C46139F1BD8761CF0B2E8
:10247000112800D931E14000784480884000874429
:1024800011001B002900350041004D005900830058
:102490008F009B00AC00B900C500D100DD00E90051
:1024A000F500090119A8019018A800900221012245
:1024B00000260F98334670E019A8019018A80090E4
:1024C000092200230F982546089E3146FEF76EFC30
:1024D000139F02E119A8019018A800900922002179
:1024E0000F980B46FEF762FC099EF6E019A80190D2
:1024F00018A80090012100230E980A46FEF756FC0A
:102500000326EAE019A8019018A8009009220021EA
:102510000E980B46FEF74AFC0A9EDEE019A80190D1
:1025200018A800900121032200230D98FEF73EFC1D
:10253000079ED2E019A8019018A800900922002156
:102540000D980B46FEF732FC0626C6E0A261000895
:10255000AF7500087E6A0008F85C0008C3750008C3
:10256000BF750008AB750008007000400004014012
:10257000FFFF7B000C10024010ED00E06C470008EC
:102580001000005010E000E019A8019018A8009079
:1025900000210726012306983246FEF707FC9CE03F
:1025A00019A8019018A800900122002104980B4658
:1025B000FEF7FCFB082690E025461AA8047A19A825
:1025C000019018A800900122002105980B46FEF703
:1025D000EDFB002C72D0092671E01AA8007A0028C1
:1025E00070D019A8019018A80090012100230C9820
:1025F0000A466FE019A8019018A80090092200214E
:102600000C980B46FEF7D2FB0B2666E019A801904A
:1026100018A800900121052200230B98FEF7C6FBA5
:102620000C265AE019A8019018A800900922002150
:102630000B980B46FEF7BAFB0D264EE019A8019049
:1026400018A800901AA8012105220023FEF7AEFB6E
:102650000E2642E019A8019018A800901AA8092295
:1026600000210B46FEF7A2FB0F2636E0F748006874
:102670001026000731D4F64A10681D901D981420CA
:102680001168C903C9170818FAD1F0480068000793
:1026900023D447E1ED480068112600071DD4EC4A19
:1026A00010681D901D9814201168C903C9170818D7
:1026B000FAD1E648006800070FD4A2E10A26139F6A
:1026C0002C460AE019A8019018A8009001210222C6
:1026D00000230C98FEF76AFB0A2619A80078002848
:1026E00000D1E1E0D9480068C00700D0DCE019A8BB
:1026F00000250570FE203040102810D10095D04FE5
:102700000197C520012421462A46D6A3FEF71CFDC9
:1027100000950197FD2021462A46D4A317E0009595
:10272000C74F0197C520012421462A46CA4BFEF710
:102730000BFD00950197CD2021462A46C7A3FEF741
:1027400003FD00950197FD2021462A46BD4BFEF76B
:10275000FBFCBA4F1696F0B215901AACA3796079CB
:102760002179E27800AE07C6C14E30461799C1A262
:1027700001F06AFDC7480090019707200421052257
:1027800014903346FEF7E0FC207A00281AD0304639
:10279000C1A11CC91CC01CC91CC00A880280897840
:1027A0008170BC4800900197052008210022334623
:1027B000FEF7CAFC1AA8C079072200281AD03046B2
:1027C000BCA119E03046BFA11CC91CC01CC91CC05B
:1027D0000A88028089788170AE48009001970524AC
:1027E0000821002220463346FEF7AEFC30469A49C7
:1027F000224601E03046B1A1FDF70BFF009501979D
:1028000005270C24384621462A463346FEF79CFC11
:102810001AA8837841780078009101903046179982
:10282000AFA201F011FD9B480090844801903A202E
:1028300021463A463346FEF787FC0095804E0196C6
:10284000D3200D2421462A46A9A3FEF77DFC00953E
:1028500001961298401C21462A46A7A3FEF774FC55
:102860001599022903D811204843183004E004299F
:1028700025D8112048433530149C0646724D139FCD
:102880000720FEF7D5FB0B20FEF7D2FB0F20FEF74B
:10289000CFFB1196B0B21094E1B29A4AFEF742FC17
:1028A000FEF7FAFD169E2C4618A80078002800D1E5
:1028B000BFE5FEF7F1FA18A800210170B9E5062975
:1028C000614D139F04D811264E435236149CD7E70E
:1028D000092906D0082906D0072907D1129E1336E8
:1028E000F4E717261CE084260B24C9E70B2903D83C
:1028F00011264E43703E13E00D2903D811264E4396
:102900005F3E0DE00F2903D811264E434E3E07E0EF
:102910001129119E109CB3D82F204843784946189E
:10292000039CADE719A80025057018A805701DAC1B
:102930001A9820701AA8417861708178A1701B994B
:102940002171417961718179A171C078C01D072120
:10295000FDF7CEFB481CE070062D0AD11DA880793A
:10296000642806D364381DA98871487980220243FF
:102970004A711DAE745D0A212046FDF7B9FB09219D
:10298000C943414361180001084370556D1C072D70
:10299000E2D11AA8007A00280DD01DA98A781F203C
:1029A0001040024640328A701AA9C979002902D023
:1029B00060301DA9887007201DA900F0B1F900281A
:1029C00014D10E25284600F071F901467F242140DC
:1029D000284600F088F9002808D10F25284600F085
:1029E00065F904402846214600F07DF90F24204671
:1029F00000F05CF97F210140204600F074F9124C90
:102A000004E019A80021017018A80170114801689C
:102A1000490603D501684022914301601020A0615E
:102A20000820A0614020A0610A9808498860FEF74C
:102A30004BF9FEF731FA1FB0F0BDC046A2610008A5
:102A4000F85C0008AB75000810000050100400503E
:102A500010E000E0003001406D730008E58AA0201E
:102A600020000000E98089E68BA90000E7A9BA00F0
:102A7000240000203225303364E5B9B425303264B7
:102A8000E69C8825303264E697A520E591A8256468
:102A90000000000075470008E697B6E997B4E6A085
:102AA000BCE5BC8FEFBC9A3132E5B08FE697B6E556
:102AB00088B60000E4B88BE58D880000E4B88AE5AC
:102AC0008D880000E697B6E997B4E6A0BCE5BC8F18
:102AD000EFBC9A3234E5B08FE697B6E588B60000D1
:102AE000253032643A253032643A253032640000B1
:102AF000E4BF9DE5AD980000E58F96E6B68800003E
:102B0000EDFDFFFF706A00087047704781B0104804
:102B1000042101600F494020086008220A60102249
:102B20000A60694664220A800A880988002A06D059
:102B3000491E6A46118013881188002BF8D1064976
:102B40000A68520602D40A6802430A6001B070475C
:102B500028040050180000500030014080B518498A
:102B6000C8680007820F17487A44127952009744C8
:102B70000108250D0120000449680904490F884017
:102B800080BD0868C00609D5104880BDCA68D20358
:102B900007D40868C00603D50C4802E00A4880BD87
:102BA0000948CA689202120F09A39A5C4243C86896
:102BB0000002800F411C1046FDF79AFA80BDC04606
:102BC0000010024000127A000024F40000093D00C9
:102BD000030406080C1018203000000070B50446ED
:102BE000D02000210122FEF7B7FC00280DD10026DD
:102BF0003046FEF759FD002807D1D02001250722D5
:102C00002946FEF7A9FC002804D009212046FDF73B
:102C100019FD70BDFEF786FCA055761C072EF9D174
:102C2000FEF712FD002001467F220A40022A05D04D
:102C3000052A0CD12256002A14D520E0225C520627
:102C400007D40022E2712272235C3F2208E0225C5A
:102C500008E02572225C9206D20FE271235C1F22EB
:102C60001A4022540F231340D2B212090A265643A7
:102C7000F2182254491C401C0728D5D10EE00F2120
:102C8000D3060A40DB0F0A256B439A182254A07919
:102C900001400009684308186430A071E0780C30E6
:102CA0000721FDF725FA481CE07070BDB0B5054658
:102CB000D020002401222146FEF74EFC002810D12E
:102CC0002846FEF7F1FC00280BD1D02001210A464E
:102CD000FEF742FC002804D1FEF724FC0446FEF770
:102CE000B3FC2046B0BDF0B581B00E460746D020FB
:102CF000002402222146FEF72FFC012500280CD1DA
:102D00003846FEF7D1FC002807D13046FEF7CCFC50
:102D1000002802D1FEF798FC2546284601B0F0BDF8
:102D2000F0B581B00C460546401CC2B2D02000214F
:102D3000FEF712FC0127002813D100263046FEF7CB
:102D4000B3FC00280DD102E0641C6D1E06D0207873
:102D5000FEF7AAFC0028F7D0012700E03746FEF76F
:102D600073FC384601B0F0BD70B581B0CA4A136833
:102D70000093009B7D23DB00104C002913D01D46DF
:102D80002668360605D41668F603F6177519F7D1C6
:102D900011E0402565600578E56015680095009DA7
:102DA000491E401CE9E72068400604D41068C003AF
:102DB000C017C318F7D101B070BDC0461C38014020
:102DC00080B5017800290AD0421C0021491CC9B2F3
:102DD0001378002B04D0521CFF29F7D100E000210A
:102DE000FFF7C2FF80BD7047F0B581B000920A4680
:102DF000054609320C211046FDF77AF90E460A27DE
:102E000008463946FDF774F904469920400070439E
:102E1000401D3946FDF76CF900990818291B8CB242
:102E2000A1084018FF216E316143451864212046F6
:102E3000FDF75EF92D1A192001012046FDF758F91A
:102E40002818401EC11701B0F0BD704701200202D2
:102E50000E490B6813430B60CA680D4B1340CB60DF
:102E60000A680C4B13400B608A6882438A608204B4
:102E70000B6893430B60FD221204CB689343CB6035
:102E800000220A61C0060449086070470010024031
:102E90000C40FF88F6FFF6FE08ED00E070B584B048
:102EA00014460D46064613A0FFF78AFF15A0FFF74C
:102EB00087FF17A0FFF784FF1AA0FFF781FF3046B6
:102EC000FFF77EFF1AA0FFF77BFF01AE0B211BA2CD
:102ED00030462B4601F0B8F93046FFF771FF18A0D5
:102EE000FFF76EFF2046FFF76BFF18A0FFF768FFA4
:102EF00004B070BD0D0A2A2A44454255472050525D
:102F0000494E54000D0A46494C4520203A20000005
:102F10002E2E2F5372632F555345522F66756E63B5
:102F20002E6300000D0A46554E4320203A20000033
:102F30000D0A4C494E4520203A200000256400002F
:102F40000D0A494E464F20203A2000000D0A0D0A76
:102F50000000000070B584B03E4D0821296101A930
:102F6000087040262E6103A801240480018800888F
:102F7000002906D0401E03A908800A880888002A74
:102F8000F8D101A8214601F02BF902A8048001889C
:102F90000088002906D0401E02A908800A880888F7
:102FA000002AF8D12E6004B070BDC04670B584B060
:102FB000284D0821296001A9087040262E6103A828
:102FC0000124048001880088002906D0401E03A93E
:102FD00008800A880888002AF8D101A8214601F053
:102FE000FFF802A8048001880088002906D0401E4E
:102FF00002A908800A880888002AF8D12E6004B047
:1030000070BDC046F0B583B0124C08222260402546
:10301000256102AA0126168013881288002B06D08B
:10302000521E02AB1A801F881A88002FF8D101F0B7
:10303000D7F801A8068001880088002906D0401E24
:1030400001A908800A880888002AF8D1256003B001
:10305000F0BDC0461800005082B001A80A210180CE
:1030600001880088002906D0401E01A908800A882E
:103070000888002AF8D1634801680091009907493F
:10308000074A1368DB0705D00368DB03DB17C918A1
:103090000B04F6D102B0704710E000E010270000EA
:1030A00010040050F0B587B0514C2168206801270A
:1030B000B8432060394004910A202168C90701D033
:1030C000401EFAD178054B490A6802430A600A6833
:1030D00082430A6048480168484A1140BB03C91846
:1030E00001604168802631434160C1681140C918C0
:1030F000C1600168424B19403D03491901604168B4
:10310000402211434160C16819404919C1600196CC
:103110008661826106A964260E800B880988002BCF
:1031200006D0491E06AB19801D881988002DF8D1DC
:1031300000200390C04302902F48016909062BD458
:103140000097304B1968059105997D21CF00002F1C
:1031500025D019682848826206AD2E80C9032C88C4
:103160002D88002C03D06C1E06AD2C80F7E7C91704
:103170002148826106AC268020882588002803D05B
:10318000681E06AC2080F7E7CF191B4800690006CF
:10319000DDD5039D029E04E0039D029E1AE0039D7F
:1031A0002E461548019A8262186806900698009F7C
:1031B00039460F4C1868C003C0174118FAD10E48A1
:1031C000826118680690069801201968C903C9171A
:1031D0000818FAD1FEF7C0FF0498002802D0206832
:1031E00038432060E843301A411E884107B0F0BDE3
:1031F000005400402810024000040050FF3FFFFF31
:10320000FFCFFFFF10E000E000B59FB0104C606BF7
:10321000012210436063606B1040189018981107EA
:10322000A06B0843A063A06B079108401890189802
:10323000084B986920211391084310210F9188436E
:1032400098610548001F01689143016006E0C0468F
:103250000010024008000140042002400168C90734
:10326000FCD10323D802054D29688143D0020E907A
:103270000818286020681043206001E000700040BA
:1032800020684007FCD51F200002616881431003BD
:10329000159008186060E06880210991084370214A
:1032A00003918843E06007252802E1688143E160DB
:1032B0000895E802E1688143E160E068104302217B
:1032C00017918843E060E0680C2101400429FAD19D
:1032D0009F49A048486000278F6005250D60D943AD
:1032E0000C91E06C0840E064E06C9B490840E064AD
:1032F0001D971C971B971A97E06A04210843E06208
:10330000E06A084016930B4612911E901E98E06AE0
:103310001043E062E06A10401E901E98E06A179920
:103320000843E062E06A08401E901E9804952E074C
:1033300008201190B0620F98B06240200B90B062EC
:103340001598B06285491398886210020D908862C2
:103350008B61B0610E98B0611C971698199090031C
:103360000A90189010927E4D18AC28462146FEF720
:10337000BDF91C97169819901098C00305901890E5
:103380002846109D2146FEF7B1F91C971B97169809
:103390001A9019951198189030462146FEF7A6F913
:1033A0001C971B971A9719950F981890304621462D
:1033B000FEF79CF91C971B9716981A9019950B9875
:1033C000189030462146FEF791F91C9716981990EF
:1033D0001798189061482146FEF788F91C971B97AB
:1033E0001A971995129818905C482146FEF77EF9B5
:1033F0001C971B971A9719950D98189030462146DF
:10340000FEF774F91C971B971A9719950E98189048
:1034100030462146FEF76AF91C971B971A971995B3
:103420001598189030462146FEF760F91C971997B9
:103430000598189030462146FEF758F91C971997C1
:103440001198189045482146FEF750F91C97199796
:103450000F98189041482146FEF748F91C971B9792
:103460001A971995139818903C482146FEF73EF993
:103470001C971B971A9719950D9818903748214655
:10348000FEF734F9374A106828430E21884310604C
:10349000324AD16817980143E8430140D16011686E
:1034A00014460C9A1140216033462F4C2F4A516824
:1034B0000140516011682943116091680140916099
:1034C000D0682843D0602A48BF302A490A680240A1
:1034D0000A602948139901601D971C971B971A973A
:1034E0006902606B08436063606B0C9108401E903A
:1034F0001E98E06A2843E062E06A28401E90169811
:103500001990179E18961E9818A914931846FEF73E
:10351000EDF81A4B986A30439862A804996A0143FF
:103520009962174E306817490840EA0501928018E1
:10353000306068049A6A02439A621A46306808400A
:10354000A905401830609868C00721D11CE0C0462A
:1035500010E000E03F1F0000FFCFFFFF000400501D
:103560000008005008000140001002400004014023
:103570004000FFFF04E400E000E100E0002401401F
:1035800008270140FFFF3FFFD068FF490140D1609D
:1035900050690899084350611069A8431061129856
:1035A000C043D1680140D160690632688A43326005
:1035B000F64A516801405160506811998843506043
:1035C0009068F3490840079908439060A8070B905A
:1035D0009068C007169E09D1D068EE490140D160BD
:1035E000B007116981430B9801431161FEF7B4FDE7
:1035F000606B159908436063606B084018901898D9
:10360000E06A2843E062E06A28401E901D971C97FC
:103610001B971A96179D1995139818901E9818A91C
:1036200002913446149E3046FEF760F81D971C97B1
:103630001B971A9419950998189030460299FEF72D
:1036400055F87D20C300D44801684906129E09D46C
:103650000168D24A11401A46E13A0A4302604168C1
:10366000B1434160C1690E9A9143C16141680F9AAB
:1036700091434160CA4A506B0A9908435063506BAA
:10368000084018901898D06A10990843D062D06A00
:1036900008401E901D961C971B97169C1A9417980D
:1036A00019900C9818901E981D4618A90291149E06
:1036B0003046FEF71BF812981D901C9706971B9733
:1036C00027461A94179819900A952846183018908A
:1036D00030460299FEF70AF8B24D2868C007B24C8E
:1036E000AF4E119B47D12868B04901400C31296089
:1036F0006868AF490840686020467030A96801409A
:10370000A960F06C384039044018AA49884209D0B1
:10371000A94988420BD01F46A849884211D1FFF71A
:103720001DFA1CE0306D80010599084018E03068F2
:10373000400720D53068C00601D400F002FDA04843
:1037400010E0FFF70BFAF168F2689204520F9DA3A4
:103750009A5C0906090F9DA3595CC840D0403B46BE
:10376000002808D0E1210A02801849021F46FCF710
:10377000BFFC3B46E8600920C0026968814369607C
:10378000A8682A218843A8602868109908432860FF
:103790000D46B06B0843B063B06B084018901898A2
:1037A0000B9E306820403060F9200590F062089848
:1037B000B0627069084370610998C0433168014084
:1037C0003160B168854A0A40B260F1691943F1611C
:1037D000316A834A11403162316A7268F3697260FA
:1037E00060221A4313239A43F2617C22F2637034FD
:1037F0000C400C990C433462F169129B9943F161BE
:103800007168039A91437160B1680140B160644E80
:10381000F06A2843F062F06A28401E90179C1D94BD
:10382000069F1C971B9718A898C01E9818A9149853
:10383000FDF75CFF6BA0FFF7C3FA72482146FFF764
:1038400093FA714C20681890189814202168C903C5
:10385000C9170818FAD16D4A106804998843106096
:103860006B4A90693021129188439061306D00015C
:1038700016D4306D000E00D1E8E066490868119A50
:1038800010430860644801210170306D01990843BC
:1038900030656248CB2162A2FFF700FB149E11E065
:1038A0005C490868119A104308605B4817990170D9
:1038B000306D019908433065149E5848C8215CA2B8
:1038C000FFF7ECFA0E9BB3625D481399816115987E
:1038D000B06118A81426068001880088002906D047
:1038E000401E18A908800A880888002AF8D115986F
:1038F0001499886218A8068001880088002906D0DB
:10390000401E18A908800A880888002AF8D115984E
:103910001499886120681890189817991B4A206894
:10392000C003C0174118FAD146480168C90704D13D
:10393000016801220A430260144A9068C00700D15E
:10394000B9E09168490700D59EE091683E48014082
:1039500002220A430D4882600C4A21681891189986
:103960000A9910469268D20706D02268D203D2176D
:1039700051180246F5D19EE005608168044A114065
:103980008160024697E0C0463CC2FEFF0024014031
:10399000E8FFFF6FC73FFFFF003001404000FFFF1F
:1039A00000100240003801408FFCFFFFF369FFEF79
:1039B000FFCFFFFF0300030002000300010003002C
:1039C00000093D00000000000102030400000000A7
:1039D000000000000102030406070809F8BFFFFF0A
:1039E000FFFEFFFF0D0A0D0A2A2A2A2A2A20535910
:1039F0005354454D205245534554202A2A2A2A2AF9
:103A00000D0A00006473000810E000E000040140AB
:103A1000080001400070004005000020A675000865
:103A20004E6F726D616C20726573657400000000EA
:103A3000506F776572206F6E207265736574000039
:103A40000004005000540040E8FFFF7FF54A506832
:103A50001168119B194311608007C017169908401F
:103A6000FB490870316D019A11433165012800D17D
:103A70000FE70328149E00D15EE3022800D11CE763
:103A8000F448D121F4A21BE79168F74801400F9A4E
:103A90001143F64881602168189118990A99F348F2
:103AA0008268D206F14A00D44FE72268D203D217C7
:103AB0005118EE4AF4D19168C90727D11360916873
:103AC000E94A114018320A43E8488260E74A21680F
:103AD000189118990A99104612681A4206D122685C
:103AE000D203D21751180246F5D10FE003601EA988
:103AF00002220A800A880988002A06D0491E1EAAC6
:103B0000118013881188002BF8D1D84A9168C90711
:103B100030D10121116010469268D54B1A40079BA5
:103B20001A438260169A9205D248036813430360D1
:103B300018AA6423138013881288002B06D0521E03
:103B400018AB1A801C881A88002CF8D1C7488268E4
:103B5000C54B1A400A4382600246C74C2068189041
:103B600018980A981168C90704D12168C903C917B0
:103B70000818F7D10B99086AC04A104008624F62D2
:103B8000086828430860FCF7B9FFFCF745FFBC4A0A
:103B9000BC4BFCF79AFE002818D1AE48DB21BA4A8C
:103BA000FFF77CF90F242046FFF780F8FD21014044
:103BB0002046FFF798F82046FFF778F8FE210140ED
:103BC0002046AD4CFFF78FF8FDF7EEFDA0480078DA
:103BD000AE4A01280D9D00D096E2AD48006900076D
:103BE000AC491ED42068189018982068C003C017EC
:103BF0008619FAD1A6480069000712D4A4480069C2
:103C0000C0060ED40B46206818901898142021681E
:103C1000C903C9170818FAD19D480069C00619469A
:103C200004D54868C0B2AA2800D06DE20B9E059862
:103C3000F062706AFA2801D3002070620320FDF759
:103C400055F9306A2843306220681890189832205D
:103C50002168C903C9170818FAD1306A8749084092
:103C6000306220681890189832202168C903C9175B
:103C70000818FAD1306A28433062206818901898E2
:103C800032202168C903C9170818FAD1306A7B4964
:103C90000840306220681890189832202168C903C3
:103CA000C9170818FAD1306A284330622068189082
:103CB000189832202168C903C9170818FAD1306A48
:103CC0006E49084030622946C231734C734A20461F
:103CD000FFF7E4F82946C33171A22046FFF7DEF86A
:103CE00073A018A90A462F4678C878C200781070C9
:103CF0001120FFF715F83946002803D1CA3166486C
:103D0000704A02E0C63164486F4AFFF7C7F86F4E49
:103D10003D463946CC3160486D4AFFF7BFF88820F0
:103D20000021022417912246FDF716FC00281BD122
:103D30003020FDF7B9FC002816D14120FDF7B4FC76
:103D4000002811D1FDF780FC00280DD14A490868F0
:103D5000189018980868C003C0170419FAD12946AA
:103D6000D3314D48F84A03E02946CF314A48F74A53
:103D7000FFF794F82946D5314748F54AFFF78EF802
:103D8000FCF7ECFF0028F44C294603D1DC31424813
:103D9000504A02E0D831FC48FC4AFFF77FF8294638
:103DA000DE31F948FA4AFFF779F820681890189838
:103DB0000A987169C90705D02168C903C91708188D
:103DC000F7D197E03068C00703D0F248B060F248FE
:103DD000B0600C9810303168014331600020EF4929
:103DE00002469300E64D2B43186024681894189CF3
:103DF0000A9C7569ED0706D0D74D2D68ED03ED17C8
:103E00002C19F6D10AE01B68002B0D9D0CD1531C18
:103E10008A421A46D04CE4D3002007E01098CE4CDA
:103E20000D9D03E0007000401098CB4C212109014A
:103E300032688A4332602168189118990A99726928
:103E4000D20749D02268D203D2175118F7D151E0D6
:103E500005000020A6750008556E6B6E6F77207206
:103E60006573657400000000E8FFFF7F00240140D7
:103E7000E8FFFF6F0827014010E000E0FFFEFFFFB2
:103E8000333333333333EB3F5B74000800000808EF
:103E90000004005050280040A2750008C4730008B8
:103EA0005254432072657365742E2E2E000000005C
:103EB00000000000000000000000000000001C8B5B
:103EC000000000008F7400082275000804200240E2
:103ED0008A730008C2740008316801220A43326004
:103EE0003168C90706D0002804D12946E531A64823
:103EF000AC4A03E02946E131A348A94AFEF7CEFFC8
:103F00002946E731A048A84AFEF7C8FFFDF71AF88E
:103F1000A648FEF755FF934D022428462146FEF79A
:103F200023FFA348FEF74CFF28462146FEF71CFF5F
:103F3000179EF0B2FEF7BAFE04461798129B214670
:103F400081400906194600D5312118AA1154401C98
:103F50000828F4D118AD00272F722846FEF730FF4D
:103F600009212846934A234600F06EF92846FEF7B9
:103F700027FF02217B48FEF7F7FE701C122E064633
:103F8000D7D38D48FEF71CFF764D022428462146E4
:103F9000FEF7EAFE854E3046FEF712FF2846214620
:103FA000FEF7E2FE3046FEF70BFF28462146FEF7FD
:103FB000DBFE8248FEF704FF28462146FEF7D4FECA
:103FC0007F48FEF7FDFE28462146FEF7CDFE3C4623
:103FD000200710D17548FEF7F3FE02212846FEF7B0
:103FE000C3FE18AE0A213046764A234600F02CF96B
:103FF0003046FEF7E5FE18203840FC212140614A9A
:104000008958C140CBB218AE0A2130466E4A00F042
:104010001BF93046FEF7D4FE0837641C142CD7D1A8
:10402000624C2046FEF7CCFE4E4D02262846314615
:10403000FEF79AFE6548FEF7C3FE28463146FEF7B6
:1040400093FE2046FEF7BCFE28463146FEF78CFE66
:104050000B9B186A0D99084318623F4A1068189024
:104060001898C8201168C903C9170818FAD1186A26
:104070003B49084018620020554C414A069F255C88
:10408000034613431E78AE4231D033490E6818966A
:10409000189E0A9E2F4A5169C90707D02E49096800
:1040A000C903C9178E19F5D1354A20E01168C9072F
:1040B000164603D03749B1603749B1601D702649B3
:1040C0000968189118990A9D2D4A7169C90706D087
:1040D00021490968C903C9174D19F6D107E03168AC
:1040E000109D294331603168C90700D01978401C00
:1040F0001428C4D1FCF726FF364806CC06C00ECCE7
:104100000EC0FEF793F81E4A324C38461043007832
:10411000E0557F1C142FF8D12078AA280C9909D0DB
:10412000B9312D482D4AFEF7B9FE294806C806C404
:104130000EC80EC4FDF75CFB0B48CE210BA2FFF7A7
:10414000BFFB0648FFF70EFBB0740008437500087C
:104150009A7300080420024010E000E00024F400FC
:10416000FFFEFFFF64730008A675000857616B65CA
:1041700075702066726F6D207374616E6462790071
:104180000000080850280040A27500085575000876
:104190007A730008EFCDAB8905040302FF0100002C
:1041A000317500089E74000882740008C975000803
:1041B000A873000853740008D9730008B973000885
:1041C000FB7300086773000872730008ED73000842
:1041D0005847000810000020D2740008E37400085B
:1041E000B0B582B0164A53680193019B13680193DE
:1041F000019B144B1C680094009C002912D0491E9E
:1042000064241568AD0705D41D68ED03ED172C195E
:10421000F7D112E0047814711C680094009C401CD3
:104220000C04ECD164201168090605D51968C9038E
:10423000C9170818F7D100E0106802B0B0BDC04639
:104240000830014010E000E00FB47CB50C0009AD6F
:1042500001D0611E00E0002101910090074B6A46E9
:104260002946089800F032F8002C02D0009A00216C
:1042700011707CBC08BC04B018470000414700081E
:104280002021020C01D010211046020A01D0104654
:104290000839020901D01046091F820801D01046D2
:1042A000891E420801D0881E7047081A704702E034
:1042B00008C8121F08C1002AFAD1704770470020B1
:1042C00001E001C1121F002AFBD17047FFB591B078
:1042D0000F460546002606E025280AD0149A1399B1
:1042E00090476D1C761C28780028F5D1304615B013
:1042F000F0BD002400940121F34A029400E004433D
:104300006D1C2B780846203B98401042F7D1287846
:104310002A280ED0022128780246303A092A15D8D8
:10432000009A0A235A43303A80180C436D1C0090BF
:10433000F1E701CF0090002805DA01204003044393
:10434000009840420090022004436D1C28782E28DB
:1043500015D10420044368786D1C2A280AD101CFA6
:104360006D1C02900BE002990A225143303940182B
:104370006D1C02902878014630390929F3D9287834
:104380006C2810D006DC4C281AD068280ED06A2879
:1043900017D104E0742813D07A2812D110E001203C
:1043A000400504430CE00121090501E00321090552
:1043B0000C436978814203D10120000524186D1C4B
:1043C0006D1C287803906E281ED00CDC632831D039
:1043D00004DC00288AD0582811D1B2E064287BD0B0
:1043E00069280CD178E073282DD004DC6F2870D0B8
:1043F000702804D1A7E075286CD078286BD0149A67
:1044000013999047761C62E06002400F022807D0A3
:1044100003280AD0042838680AD006603F1D56E0F9
:104420003868F11706604160F8E738680680F5E7FC
:104430000670F3E73878694608740020487404A8C9
:104440000390012003E0386803900020C0433F1D23
:1044500061070FD5002101E00199491C029A0191E1
:10446000914213DA8142F7DB019A0399895C0029B2
:10447000F2D10BE0002101E00199491C0191814238
:10448000FADB019A0399895C0029F5D1019900981A
:10449000139A401A00902146149B00F03BF90199B1
:1044A0008019461807E0039803990078491C039186
:1044B000149A139990470198401E0190401CF2D124
:1044C0002146149B139A009800F014F986196D1C6C
:1044D00009E741E033E034E00A200021049005912F
:1044E0006002410F022905D001CFC217944603296B
:1044F00005D007E0FF1DFF08FF0003CF06E000B274
:10450000C2179446042902D140B2C1178C4600223A
:104510006146944506DA0A460021404291418C46A4
:104520002D2102E0210504D52B216A4611760121B7
:1045300003E0E10701D02021F7E7019154E00A20D0
:104540000BE0102009E01020049000210420044317
:1045500008200591029003E00820002105910490B5
:104560006002410F022905D001CF002294460329A1
:1045700006D006E0FF1DFF08FF0003CF8C4603E0D6
:1045800080B2042900D1C0B20021019121072BD5AE
:104590000399702906D0049A1021059B4A401A43BA
:1045A00005D00EE040216A461176012108E06146FF
:1045B000014306D030216A461176039951760221D3
:1045C0000191049A0821059B4A401A430CD1614687
:1045D000014301D1610707D530216A4611760121D7
:1045E00001910299491E02910399582904D037A1DB
:1045F00003910FA90F910DE039A1F9E76146059BE1
:10460000049AFBF78BFD039B8C469B5C0F9A521E12
:104610000F92137061460143F0D10F9807A9081A51
:1046200020300390600704D50120000484430298E1
:1046300001E0012002900399884201DD401A00E068
:10464000002041180290019809180098401A009023
:10465000E00306D42146149B139A009800F05AF800
:1046600086190020049008E006A9085C149A1399A2
:1046700090470498401C761C049001998842F3DB13
:10468000E0030CD52146149B139A009800F042F8E1
:10469000861904E0149A302013999047761C0299E9
:1046A000481E02900029F5DC08E00F980F99007869
:1046B000491C0F91149A13999047761C0399481E30
:1046C00003900029F1DCFBE6092801003031323388
:1046D000343536373839616263646566000000003E
:1046E0003031323334353637383941424344454628
:1046F00000000000F8B5044600251E461746880451
:1047000004D405E039462020B0476D1C641EF9D55D
:104710002846F8BDFFB50446002581B01E46C803F3
:1047200001D5302700E02027880404D505E038466D
:104730000399B0476D1C641EF9D5284605B0F0BD3D
:104740004A68002A06D00A68531C0B60107048683B
:10475000401E486070470000AA0000009A99993FE7
:104760000000803F01030000CDCCCC3D00000004E0
:10477000010A140000200C185FFFFFFFFFFFFFFF7E
:10478000FFFFFFFFFFFFFFFFFFFFFFFFFFFFFFFF39
:10479000FFFFFFFFFFFFFFFFFFFFFFFFFFFFFFFF29
:1047A000FFFFFFFFFFFFFFFFFFFFFFFFF011C7F05D
:1047B00001C7F00FC7FFFFFFFFFFFFFFFFFFFFFF76
:1047C000FFFFFFFFFFFFFFFEFFFFF8FFFFF1FFFF0F
:1047D000C3FFFFC6FFFFC8FFFFF1FFFFC3FFFFC717
:1047E000FFFFCFFFFFFFFFFFFF3E7FFF3E07FF0002
:1047F00007F0007FF03E7FFF3E7FFF3E7FFF2007F8
:10480000F00007F01E7FFF3E7FFFFFFFFFFFFFFE70
:104810003F1FFC1F0FF80F07F9C7B7E00001E000CA
:1048200001F87007F8780FFC7E1FFFFFFFFC1FFFE9
:10483000F007FFF3E7E7F3E707F0041FFC00FFFFD3
:10484000801FFC1007F073E7F3F3E7FFF007FFFCAE
:104850001FFFFC1FFFF80FF81007F003E7F000F749
:10486000F00037F01C07F82F0FFFE007FFE067FFAD
:10487000EFF7FFEFC7FFFFFFFFFFFFCEFFFFCCFF0C
:10488000FFC1FFFFE3FFFFFFFFFFFFFFFFFFFFFF92
:10489000FFFFFFFFFFFFFFFFFFFFFFFFFFFFFFFF28
:1048A000FFFFFFFFFFFFFFFFFF80FFFE003FF87FDE
:1048B0000FF1FFC7E7FFF3CFFFF9DFFFFDFFFFFFBA
:1048C000DFFFFDCFFFF9E7FFF3F1FFC7F87F0FFE32
:1048D000003FFF80FFFFFFFFFFFFFFFFFFFFFFFF26
:1048E000FFFFFFFFFF99FFFF99FFFF99FFFFC3FF46
:1048F000FFE3FFFC003FFC003FFEC3FFFFC3FFFFE1
:1049000099FFFF99FFFFFFFFFFF7FFFFF7FFFFF79B
:10491000FFFFF7FFFFF7FFFE003FFE003FFFF7FF3F
:10492000FFF7FFFFF7FFFFF7FFFFFFFFFFFFFFFFAF
:10493000FFCEFFFFCCFFFFC1FFFFE3FFFFFFFFFF45
:10494000FFFFFFFFFFFFFFFFFFFFFFFFFFFFFFFF77
:10495000FFF7FFFFF7FFFFF7FFFFF7FFFFF7FFFF8F
:10496000F7FFFFF7FFFFF7FFFFF7FFFFF7FFFFF787
:10497000FFFFFFFFFFFFFFFFFFC7FFFFC7FFFFC7EF
:10498000FFFFC7FFFFFFFFFFFFFFFFFFFFFFFFFF6F
:10499000FFFFFFFFFFFFFFFFFFFFF9FFFFE1FFFF4B
:1049A00083FFFE0FFFF07FFFC1FFFF07FFF83FFF10
:1049B000E0FFFFC3FFFFCFFFFFFFFFFFFF00FFFC94
:1049C000003FF8001FF0FF0FF3FFCFF7FFEFF3FFFB
:1049D000CFF0FF0FF8001FFC003FFF00FFFFFFFFBD
:1049E000FFFFFFFBFFEFFBFFEFFBFFEFF8000FF018
:1049F000000FF0000FFFFFEFFFFFEFFFFFEFFFFFE4
:104A0000FFFFFFFFFC7FCFF87F8FF27F0FF7FE6F76
:104A1000F7F8EFF7F1EFF3E3EFF007EFF80F0FFC24
:104A20003F0FFFFFFFFFFFFFF8FF1FF8FF1FF0FF23
:104A30000FF7EFEFF7EFEFF3CFEFF007CFF8100F2F
:104A4000FC301FFFFC3FFFFFFFFFFFFFFFF9FFFFF1
:104A5000F1FFFFC5FFFF8DFFFE3DEFFC7DEFF00096
:104A60000FF0000FF0000FFFFDEFFFFDEFFFFFFF66
:104A7000FFFE3FF0061FF0064FF7CFEFF7DFEFF72F
:104A8000DFEFF7CF8FF7C00FF7E01FF7F07FFFFFE3
:104A9000FFFFFFFFFF80FFFC003FF8001FF8E78FDC
:104AA000F3CFCFF7DFEFF7DFEFF1CFCFF1C01FF993
:104AB000E01FFFF07FFFFFFFFFFFFFF8FFFFF0FFAA
:104AC000FFF3FFFFF7FE0FF7F00FF7C00FF60FFF32
:104AD000F03FFFF1FFFFF3FFFFFFFFFFFC7C3FF81C
:104AE000181FF0101FF383CFF7CFEFF7E7EFF7E7CB
:104AF000EFF3C3CFF0100FF8181FFC7C3FFFFFFF50
:104B0000FE0FFFF8079FF8038FF1F38FF7FBEFF726
:104B1000FBEFF7F3CFF1E61FF8001FFC007FFF016A
:104B2000FFFFFFFFFFFFFFFFFFFFFFFFFFFFFFFF95
:104B3000FFC7C7FFC7C7FFC7C7FFC7C7FFFFFFFF45
:104B4000FFFFFFFFFFFFFFFFFFFFFFFFFFFFFFFF75
:104B5000FFFFFFFFFFCFE4FFCFE0FFCFE3FFFFFF4B
:104B6000FFFFFFFFFFFFFFFFFFFFFFFFFFFFFFFF55
:104B7000F7FFFFE3FFFFC9FFFF9CFFFF3E7FFE7FC4
:104B80003FFCFF9FF9FFCFF3FFE7F7FFF7FFFFFFC2
:104B9000FFDDFFFFDDFFFFDDFFFFDDFFFFDDFFFFCF
:104BA000DDFFFFDDFFFFDDFFFFDDFFFFDDFFFFDDE1
:104BB000FFFFFFFFFFFFFFF7FFF7F3FFE7F9FFCF6F
:104BC000FCFF9FFE7F3FFF3E7FFF9CFFFFC9FFFF73
:104BD000E3FFFFF7FFFFFFFFFFFFFFFE1FFFFC1FCD
:104BE000FFFD9FFFF9FFC7FBF8C7FBF0C7FBE7C757
:104BF000F9E7FFF80FFFFC0FFFFFFFFFFF80FFFC4F
:104C0000001FF8000FF8E087F30067F60077F60062
:104C100077F20067F81E4FF8008FFE01BFFFFFF725
:104C2000FFFFC7FFFE07FFE037FE01F7F81DFFF8A3
:104C30007DFFF805FFFF0077FFF007FFFE07FFFF8E
:104C4000E7FFFFFFFBFFF7F80007F80007F8000792
:104C5000FBF7F7FBF7F7F9E7F7F803E7FC0807FCC2
:104C6000180FFFFE1FFFFFFFFFC07FFE001FFC00AD
:104C70000FFC7F87F9FFE7FBFFF7FBFFF7F9FFE783
:104C8000F8FFCFF83F0FFE3F3FFBFFF7FBFFF7F8C2
:104C90000007F80007F80007FBFFF7FBFFF7F9FF35
:104CA000E7FC7F8FFC000FFE001FFF807FFBFFF7FC
:104CB000F80007F80007F80007FBF7F7FBF7F7FB2A
:104CC000F7F7FBC0F7F9C0F7F9FFE7F87F87FE7F3A
:104CD0009FFBFFF7F80007F80007F80007FBF7F75E
:104CE000FBF7F7FBF7FFFBC0FFF9C0FFF9FFFFF889
:104CF0007FFFFE7FFFFFFFFFFFC07FFE001FFC0066
:104D00000FF87F87F9FFE7FBFDF7FBFDF7F9FC07DD
:104D1000FC3C0FFE3C0FFFFDFFFBFFF7F80007F820
:104D20000007F80007FBF7F7FFF7FFFFF7FFFFF7B4
:104D3000FFFBF7F7F80007F80007F80007FFFFFF91
:104D4000FFFFFFFBFFF7FBFFF7FBFFF7F80007F89C
:104D50000007F80007FBFFF7FBFFF7FBFFF7FFFF7C
:104D6000FFFFFFFFFFFFF9FFFFF8FBFFF8FBFFFE70
:104D7000FBFFFCF80000F80001F80003FBFFFFFB5D
:104D8000FFFFFBFFFFFBFFF7F80007F80007F80045
:104D900007FBC3F7FF83FFFA20FFF87837F8FE0719
:104DA000F9FF87FBFFE7FFFFF7FBFFF7F80007F8C6
:104DB0000007F80007FBFFF7FBFFF7FFFFF7FFFF18
:104DC000F7FFFFF7FFFFE7FFFF87FFFF9FFBFFF7FF
:104DD000F80007F80007F800F7FF000FFFF80FFFD3
:104DE000C01FFC01F7F80007F80007F80007FBFFF9
:104DF000F7FFFFF7FBFFF7F80007F80007F81FF7CA
:104E0000FE07F7FF81FFFBE03FFBFC0FF80007F810
:104E10000007FBFFFFFFFFFFFF807FFE001FFC007E
:104E20000FF87F87F9FFE7FBFFF7F9FFE7F8FFC708
:104E3000FC000FFE001FFF807FFBFFF7F80007F864
:104E40000007F80007FBFBF7FBFBF7FBFBFFFBF39F
:104E5000FFF9F3FFFC07FFFC07FFFE0FFFFFFFFF5B
:104E6000FF807FFE001FFC000FF87F07F9FF67FB44
:104E7000FF17F9FF03F8FFC1FC0009FE0019FF80CE
:104E80007BFBFFF7F80007F80007F80007FBF7F7D0
:104E9000FBF7FFFBF1FFFBF07FF9E41FF80F07FCC6
:104EA0000F87FE1FE7FFFFFFFE1F1FFC0F0FF80716
:104EB000CFF9C7E7FBE3F7FBE3F7FBF1F7F9F0E71F
:104EC000F87807F8780FFFFE1FFE7FFFF87FFFF9E5
:104ED000FFFFFBFFF7FBFFF7F80007F80007F800FC
:104EE00007FBFFF7FBFFF7F9FFFFF87FFFFFFFFF6F
:104EF000FBFFFFF8001FF8000FF80007FBFFE7FFBC
:104F0000FFF7FFFFF7FBFFE7F8000FF8001FFBFFBD
:104F1000FFFBFFFFF9FFFFF81FFFF801FFFB801FFA
:104F2000FFF807FFFE07FFE03FFA01FFF81FFFF958
:104F3000FFFFFBFFFFFBFFFFF83FFFF800FFFB0059
:104F400007FBFC07F9C03FF803FFF80007FBF00779
:104F5000FBC01FF801FFF83FFFFFFFFFFBFFF7F962
:104F6000FFE7F87F87F81E17FB007FFFC0FFFB8875
:104F700037F81E07F87F87FBFFE7FBFFF7FBFFFF14
:104F8000F9FFFFF87FFFF80FF7FB03F7FFC007FFFC
:104F9000E007FFE007FB87F7FA1FF7F87FFFF9FF4D
:104FA000FFFFFFFFFE7FF7F87FC7F8FF07F9FE1747
:104FB000FBF877FBE1F7FB87F7FA1FF7F83FE7F815
:104FC000FF87FBFF9FFFFFFFFFFFFFFFFFFFFFFFCD
:104FD000FFFFFFFFC00001C00001DFFFFDDFFFFD9D
:104FE000DFFFFDDFFFFDFFFFFFFFFFFFFFFFFFF321
:104FF000FFFFF0FFFFFC1FFFFF07FFFFE0FFFFF8D1
:105000003FFFFE0FFFFFC1FFFFF0FFFFFEFFFFFFAF
:10501000FFFFFFDFFFFDDFFFFDDFFFFDDFFFFDC067
:105020000001C00001FFFFFFFFFFFFFFFFFFFFFFC9
:10503000FFFFFFFFFFFFFFFFFFFFEFFFFFCFFFFFC0
:105040009FFFFFBFFFFF9FFFFFCFFFFFEFFFFFFFB0
:10505000FFFFFFFFFFFFFFFEFFFFFEFFFFFEFFFF63
:10506000FEFFFFFEFFFFFEFFFFFEFFFFFEFFFFFE56
:10507000FFFFFEFFFFFEFFFFFEFFFFFFFFFFFFFF43
:10508000FFFFDFFFFFDFFFFFCFFFFFEFFFFFEFFFC0
:10509000FFFFFFFFFFFFFFFFFFFFFFFFFFFFFFFF20
:1050A000FFFF0FFFE607FFE607FFC667FFDCF7FF1E
:1050B000DDF7FFDDE7FFC00FFFC007FFE007FFFFE1
:1050C000E7FFFFFFFBFFFFF80007F00007F0000F0E
:1050D000FFE7E7FFCFF7FFDFF7FFCFE7FFC007FFEF
:1050E000E00FFFF03FFFFFFFFFF83FFFE00FFFE0A3
:1050F0000FFFC7C7FFDFF7FFDFF7FFC3F7FFC3E708
:10510000FFE38FFFFF9FFFFFFFFFFFFFFFF83FFF62
:10511000E00FFFC007FFC7E7FFDFF7FBDFF7FBCFBD
:10512000E7F80007F00007F0000FFFFFEFFFFFFFB9
:10513000FFFFFFFFF83FFFE00FFFE00FFFCEC7FFCD
:10514000DEF7FFDEF7FFCEF7FFC0E7FFE0CFFFF8A7
:10515000DFFFFFFFFFDFFFFFDFF7FFDFF7FE0007E7
:10516000FC0007F80007F9DFF7FBDFF7F8DFF7F8D7
:10517000FFFFFCFFFFFFFFFFFFFFF1FFF181FFE0FB
:1051800000FFC00CFFCE5EFFCF4EFFC04CFFC04003
:10519000FFC0E1FFCFE1FFCFFFFFFFFFFBFFF7F80D
:1051A0000007F00007F00007FFCFF7FFDFFFFFDF8A
:1051B000F7FFC007FFC007FFE007FFFFF7FFFFFF94
:1051C000FFFFFFFFDFF7FFDFF7FFDFF7F9C007F9AA
:1051D0008007F98007FFFFF7FFFFF7FFFFF7FFFFEB
:1051E000FFFFFFFFFFFFFFFFFFFCFFFFFCFFDFFCF8
:1051F000FFDFFEF9DFFCF9C000F98001F98003FF51
:10520000FFFFFFFFFFFFFFFFFBFFF7F80007F000C6
:1052100007F00007FFFCF7FFF8FFFFC037FFC707E5
:10522000FFDF87FFDFE7FFFFF7FFFFFFFFFFFFFB6A
:10523000FFF7FBFFF7FBFFF7F80007F00007F000B0
:1052400007FFFFF7FFFFF7FFFFF7FFFFFFFFDFF7A6
:10525000FFC007FFC007FFC007FFCFF7FFC007FF72
:10526000C007FFE007FFCFF7FFC007FFC007FFC081
:1052700007FFFFFFFFDFF7FFC007FFC007FFC00703
:10528000FFCFF7FFDFFFFFDFF7FFC007FFC007FF1C
:10529000E007FFFFF7FFFFFFFFF83FFFF00FFFE022
:1052A0000FFFC7C7FFCFF7FFDFF7FFCFF7FFC7C776
:1052B000FFE00FFFF00FFFF83FFFFFFFFFDFFEFFF4
:1052C000C000FFC000FFC000FFCFE6FFDFF6FFDF3A
:1052D000F7FFCFC7FFC007FFE00FFFF03FFFFFFF63
:1052E000FFF83FFFE00FFFC007FFC7E7FFDFF7FF53
:1052F000DFF6FFCFE6FFE000FFC000FFC000FFFFCA
:10530000FEFFDFF7FFDFF7FFDFF7FFC007FFC00794
:10531000FFC007FFE7F7FFCFF7FFDFF7FFC7FFFF8C
:10532000C7FFFFE7FFFFFFFFFFFFFFFFE387FFE18F
:1053300087FFC0E7FFCCF7FFDC77FFDE67FFCE0714
:10534000FFC307FFC30FFFFFFFFFFFFFFFDFFFFFED
:10535000DFFFFFDFFFFF000FFC0007FC0007FFDFA0
:10536000F7FFDFF7FFDFC7FFFFCFFFFFFFFFFFFF05
:10537000FFDFFFFFC00FFF8007FF8007FFFFE7FF92
:10538000FFF7FFDFE7FFC007FF8007FF800FFFFF8A
:10539000EFFFFFFFFFDFFFFFCFFFFFC1FFFFC03FBA
:1053A000FFDC07FFFF07FFFE0FFFD03FFFC1FFFF3E
:1053B000CFFFFFDFFFFFDFFFFFC7FFFFC07FFFD093
:1053C00007FFDE07FFC80FFFC0FFFFC00FFFDE0FA4
:1053D000FFD80FFFC0FFFFC7FFFFFFFFFFFFF7FF73
:1053E000DFF7FFCFC7FFC387FFC037FFD87FFFD8E6
:1053F00037FFC307FFC7C7FFDFE7FFDFF7FFFFFF89
:10540000FFDFFFFFDFFCFFC3FCFFC07EFFDC00FF10
:10541000FF01FFDC0FFFC07FFFC3FFFFDFFFFFDFE8
:10542000FFFFFFFFFFFFFFFFC3E7FFC387FFDF07AC
:10543000FFDC37FFD077FFC1F7FFC7E7FFCF87FF5C
:10544000FF8FFFFFFFFFFFFFFFFFFFFFFFFFFFFFDC
:10545000FFFFFFFFFFF7FFFFE3FFE00803C01C01B2
:10546000DFFFFDDFFFFDFFFFFFFFFFFFFFFFFFFF90
:10547000FFFFFFFFFFFFFFFFFFFFFF000000000037
:1054800000FFFFFFFFFFFFFFFFFFFFFFFFFFFFFF2B
:10549000FFFFFFDFFFFDDFFFFDC01C01E00803FF92
:1054A000E3FFFFF7FFFFFFFFFFFFFFFFFFFFFFFF30
:1054B000FFFFFFFFCFFFFF8FFFFFBFFFFFBFFFFF1C
:1054C0009FFFFFCFFFFFE7FFFFE7FFFFF7FFFFC7EC
:1054D000FFFFCFFFFF301B380BFF00001C00007FD9
:1054E000FE00000800003FFE00001800007FF700EB
:1054F000003C0000FFE3C0007E0001E7E1E000FFA8
:105500008003C3E0F001FFC00783E07FFFFFFFFFE0
:1055100003E03FFFFFFFFE03E03FFFFFFFFE03E06E
:105520003FFFFFFFFE03E03FFFFFFFFE03E03FFF03
:10553000FFFFFE03E03FFFFFFFFE03E03FFFFFFF33
:10554000FE03E03FFFFFFFFE03E03FFFFFFFFE0320
:10555000E03FFFFFFFFE03E03FFFFFFFFE03E07FB2
:10556000FFFFFFFF03E0E000FF800783E3C0007F51
:105570000001C3F780003E0000E7FF00001C0000B0
:105580007FFE00000800003FFE00000800003FFF13
:1055900000001C00007FFFFFFFFFFFFFFFFFFFFF7A
:1055A000FFFFFFFFFFFFFFFFFFFFFFFFFFFFFFFF0B
:1055B000FFFFFFFFFFFFFFFFFFFFFFFFFFFFFFFFFB
:1055C000FFFFFFFFFFFFFFFFFFFFFFFFFFFFFFFFEB
:1055D000FFFFFFFFFFFFFFFFFFFFFFFFFFFFFFFFDB
:1055E000FFFFFFFFFFFFFFFFFFFFFFFFFFFFFFFFCB
:1055F000FFFFFFFFFFFFFFFFFFFFFFFFFFFFFFFFBB
:10560000FFFFFFFFFFFFFFFFFFFFFFFFFFFFFFFFAA
:10561000FFFFFFFFFFFFFFFFFFFFFFFFFFFFFFFF9A
:10562000FFFFFFE000FF8007FFFFC0007F0001FFDA
:10563000FF80003E0000FFFF00001C00007FFE0016
:10564000000800003FFE00000800003FFF00001CB3
:1056500000007FFFFFFFFC00007FFFFFFFF800005E
:105660003FFFFFFFF800007FF7FFFFFC0000FFE3B4
:10567000FFFFFE0001E7E1FFFFF78003C3E0FFFF4C
:10568000E3C00783E07FFFC1FFFF03E03FFF80FF30
:10569000FE03E03FFF80FFFE03E03FFF80FFFE03CD
:1056A000E03FFF80FFFE03E03FFF80FFFE03E03F9F
:1056B000FF80FFFE03E03FFF80FFFE03E03FFF802F
:1056C000FFFE03E03FFF80FFFE03E03FFF80FFFEA1
:1056D00003E03FFF80FFFE03E07FFFC1FFFF03E029
:1056E000E000E3FFFF83E3C0007FFFFFC3F780001C
:1056F0003FFFFFE7FF00001FFFFFFFFE00000FFF5F
:10570000FFFFFE00000FFFFFFFFF00001FFFFFFF76
:10571000FFFFFFFFFFFFFFFFFFFFFFFFFFFFFFFF99
:10572000FFFFFFFFFFF7FFFFFFFFFFFFE3FFFFFFAD
:10573000FFFFE7E1FFFFF7FFFFC3E0FFFFE3FFFF2E
:1057400083E07FFFC1FFFF03E03FFF80FFFE03E038
:105750003FFF80FFFE03E03FFF80FFFE03E03FFFCF
:1057600080FFFE03E03FFF80FFFE03E03FFF80FF7E
:10577000FE03E03FFF80FFFE03E03FFF80FFFE03EC
:10578000E03FFF80FFFE03E03FFF80FFFE03E03FBE
:10579000FF80FFFE03E07FFFC1FFFF03E0E000E3C7
:1057A000800783E3C0007F0001C3F780003E000054
:1057B000E7FF00001C00007FFE00000800003FFE25
:1057C00000000800003FFF00001C00007FFF0000F9
:1057D0001FFFFFFFFE00000FFFFFFFFE00001FFF87
:1057E000FFFFFF00003FFFFFFFFFC0007FFFFFFF45
:1057F000FFE000F7FFFFFFFFF001E3FFFFFFFFFF08
:10580000FFC1FFFFFFFFFFFF80FFFFFFFFFFFF80E4
:10581000FFFFFFFFFFFF80FFFFFFFFFFFF80FFFF96
:10582000FFFFFFFF80FFFFFFFFFFFF80FFFFFFFF86
:10583000FFFF80FFFFFFFFFFFF80FFFFFFFFFFFF76
:1058400080FFFFFFFFFFFF80FFFFFFFFFFFF80FFE5
:10585000FFFFFFFFFFC1FFFFFFFFE000E38007FF47
:10586000FFC0007F0001FFFF80003E0000FFFF003F
:10587000001C00007FFE00000800003FFE00000842
:1058800000003FFF00001C00007FFF00001FFFFF23
:10589000FFFE00000FFFFFFFFE00001FFFFFFFF7EE
:1058A00000003FFFFFFFE3C0007FFFFFE7E1E000F4
:1058B000F7FFFFC3E0F001E3FFFF83E07FFFC1FFDD
:1058C000FF03E03FFF80FFFE03E03FFF80FFFE039A
:1058D000E03FFF80FFFE03E03FFF80FFFE03E03F6D
:1058E000FF80FFFE03E03FFF80FFFE03E03FFF80FD
:1058F000FFFE03E03FFF80FFFE03E03FFF80FFFE6F
:1059000003E03FFF80FFFE03E03FFF80FFFE03E078
:105910007FFFC1FFFF03E0FFFFE3800783E3FFFF9B
:10592000FF0001C3F7FFFFFE0000E7FFFFFFFC00E1
:10593000007FFFFFFFF800003FFFFFFFF800003F80
:10594000FFFFFFFC00007FFF00001C00007FFE0047
:10595000000800003FFE00001800007FF700003C38
:105960000000FFE3C0007E0001E7E1E000F78003F4
:10597000C3E0F001E3C00783E07FFFC1FFFF03E066
:105980003FFF80FFFE03E03FFF80FFFE03E03FFF9D
:1059900080FFFE03E03FFF80FFFE03E03FFF80FF4C
:1059A000FE03E03FFF80FFFE03E03FFF80FFFE03BA
:1059B000E03FFF80FFFE03E03FFF80FFFE03E03F8C
:1059C000FF80FFFE03E03FFF80FFFE03E07FFFC19B
:1059D000FFFF03E0FFFFE3800783E3FFFFFF00011A
:1059E000C3F7FFFFFE0000E7FFFFFFFC00007FFFA3
:1059F000FFFFF800003FFFFFFFF800003FFFFFFF41
:105A0000FC00007FFF00001FFFFFFFFE00000FFFF4
:105A1000FFFFFE00001FFFFFFFF700003FFFFFFF3B
:105A2000E3C0007FFFFFFFE1E000FFFFFFFFE0F0CA
:105A300001FFFFFFFFE07FFFFFFFFFFFE03FFFFFF2
:105A4000FFFFFFE03FFFFFFFFFFFE03FFFFFFFFF24
:105A5000FFE03FFFFFFFFFFFE03FFFFFFFFFFFE033
:105A60003FFFFFFFFFFFE03FFFFFFFFFFFE03FFFC4
:105A7000FFFFFFFFE03FFFFFFFFFFFE03FFFFFFFF4
:105A8000FFFFE03FFFFFFFFFFFE07FFFFFFFFFFFA4
:105A9000E0E000FF8007FFE3C0007F0001FFF78028
:105AA000003E0000FFFF00001C00007FFE00000819
:105AB00000003FFE00000800003FFF00001C000047
:105AC0007FFF00001C00007FFE00000800003FFE7A
:105AD00000001800007FF700003C0000FFE3C0005A
