:020000040800F2
:1000000028050020D5000008D9270008391100086C
:1000100000000000000000000000000000000000E0
:10002000000000000000000000000000812C00081B
:100030000000000000000000DB270008832C0008FF
:10004000E7000008E7000008E7000008E7000008F4
:10005000E700000825110008E7000008E700000895
:1000600000000000E7000008E7000008E7000008C3
:10007000E7000008E700000800000000E7000008B3
:1000800000000000E7000008000000000000000081
:10009000E700000800000000E7000008E700000893
:1000A000E7000008E7000008E7000008E700000894
:1000B000E7000008E7000008000000000000000062
:1000C0000348854600F086FC00480047613F000871
:1000D000280500200448804704480047FEE7FEE763
:1000E000FEE7FEE7FEE7FEE7392D0008C100000845
:1000F00030B50B46014600202022012409E00D46C0
:10010000D5409D4205D31D469540491B2546954047
:1001100040191546521E002DF1DC30BDD2B201E06F
:100120000270401C491EFBD270470022F6E710B552
:1001300013460A4604461946FFF7F0FF204610BD55
:10014000F8B502464A40D40F42004B0052085B0803
:100150009A4202D20246084611464A0023D0C30DF5
:100160004A00DDB2120EAD1A202D35DA4902012601
:10017000490AF6058A19002C00D0524220214F1B53
:100180001146B9402A411018C20D9A4221D0002CC4
:1001900017D0012D08DCDA05801AD20F8019D2079A
:1001A000DBB200F037FBF8BDDA05801A012340000E
:1001B0001B06C01880185A428018CA0F1043490005
:1001C00007E04908C2071143DA05801A8019400880
:1001D000801800F017FBF8BD61000122511A001BC6
:1001E000F7E70122D2075140AAE70122D207504087
:1001F000A6E7024670B54A40D30FDB0740002DD07A
:100200004A002AD0010E140E000212020919400AF7
:10021000520A8418E50104465443000A120A2E04C7
:100220005043A4194219200CC543AA18120C0125E9
:10023000AD03521C521912047F39240400D0521C01
:10024000104301D44000491EC2B20C06C009201858
:10025000401C4008802A02D003E0002070BD400806
:100260004000002900DA0020184370BD70B5024636
:100270004A40D50F40004A00ED07400852080028C8
:1002800014D0002A12D0C40DD30D41020120C005A4
:100290005202490A520AE41A091812187D3491428E
:1002A00001D3641C00E04900002C01DA002070BD7D
:1002B0000023914201D3891A0343400849000028D2
:1002C000F7D100290AD0914202D10121C90705E0E6
:1002D000914201D2012101E00121C943E005C0188A
:1002E000401900F08FFA70BDF0B507460846584037
:1002F00087B0C00F049048000E46590040084908D6
:10030000BC1A884105D2384631461E4617460B4670
:1003100002465800400810434CD0300D0390400571
:100320005900400D490D0590401A0290402872DA9C
:1003300018030121000B090508430190049800925D
:10034000002805D001995242002088410092019076
:10035000029840210A1A0199009800F01FFA0546F8
:100360000C466B4607CB00F03AFAC0197141039A6C
:100370000E0D0023D71756401A467A40164344D034
:10038000049A002A2DD0029A012A039A15DC12053C
:10039000C01A914101263605001C7141D20F059EFD
:1003A000D2070093019202962A46234600F078FA7B
:1003B00007B0F0BD38463146FAE71605224A0F4627
:1003C000B218C01AB74101210905001C4F4100189D
:1003D0007F41114618187941E20F10436D196441AD
:1003E00013E0E2076D0815436408C2071443039A3B
:1003F00001261205C01A91413605001C7141CE0735
:10040000400830434908C01851412A46234600F0AD
:100410003AFACDE7FFE7049801224000C117121A0B
:1004200000238B4104983146C417381AA141EEE7E6
:1004300030B40124E407634030BC55E730B40124F4
:10044000E407614030BC4FE70000E0FFF0B51FB4A7
:1004500088B00B990998002448400999C00F4900B9
:1004600049080991C0070B990090490049080B9170
:1004700009990898A64608431CD00B990A98084386
:1004800018D0099801244000420D4800410D0998F8
:1004900024050003000B204309900B980003000B78
:1004A00020430B9050181C4940180022019014461C
:1004B000104605E0002001460DB0F0BD032801DA2A
:1004C000034600E003239C46C11A0AAE0AE05F001F
:1004D00008ADED5B4F00F75B7D430027AA187C4118
:1004E000491C5B1E6145F2DD410004AB5A522104F8
:1004F000120C0A43240C401C0828DFDB01980290F0
:100500000099704601910090059B049A07990698FE
:1005100000F0C6F9D0E700000DFCFFFFF0B50C4677
:100520005C4085B0E40FE40703944C0000266408A7
:1005300059009446490802460296224321D0624659
:100540000A431ED06200570D4A000E032303550DC7
:10055000012402462C492405781B1B0B360B40183E
:1005600023432643614600901C46501AB44103D3EE
:100570000098401C009002E0921800985B4100280F
:1005800003DA0020014605B0F0BD00200121090575
:100590000746864611E064461D46141BB54106D346
:1005A0006546521BB341744607430C43A646CD072C
:1005B00040084908284392185B4105460D43EAD19B
:1005C0001046184313D06046194650407140084306
:1005D00006D06046101AB34106D20122002306E07D
:1005E00000220123DB0702E00122D24353100098CE
:1005F00074460105381C6141029C039D0019694144
:1006000000F041F9BFE70000FD03000070B54B00AA
:100610005B0803430BD04B005C0D0026334665425C
:10062000B341D417AD1AA34102DB0020014670BDCF
:1006300012053018514170BDC217C10F504010B59E
:100640004018CA079623002100F0E4F810BD10B549
:1006500000229623114600F0DDF810BD0EB50549C5
:100660000291002100910A460B46019100F018F911
:1006700003B000BD330400004A0009030123090B45
:100680001B051943094B10B5520D9A4201DA00209F
:1006900010BD064B34339A4203DC9A1A00F08EF8F0
:1006A00010BD03495118884010BD0000FF03000031
:1006B000CDFBFFFFC20FD207400040080BD0C10D99
:1006C0000723DB01C91840020905400A1143C2088B
:1006D000400711437047002001467047CB0FDB07EE
:1006E000490010B5490802460A4307D00A0D0724FD
:1006F0000903E401090B121B002A01DC002010BDD4
:10070000C900440F0C43C100E018D205801800F066
:1007100079F810BD0122D207002800DB101A002949
:1007200000DB511A814270470122D207002800DB0A
:10073000101A002900DB511A88427047F0B51FB427
:100740000646002082B005464024019100901BE03F
:10075000019922460F46304600F030F8049A059B76
:10076000801A994110D310461946224600F016F817
:10077000361A8F410197224601200021009F00F088
:100780000DF838184D4100902046641E0028DFDC2B
:10079000019B00982946324607B0F0BD10B5202ACB
:1007A00004DB0146203A9140002010BD91402023F7
:1007B0009C1A0346E3401943904010BD10B5202A0F
:1007C00004DB0846203AD040002110BD0B46D34040
:1007D000D0402024A21A91400843194610BD10B5FC
:1007E000202A06DBCB170846203A1041C1170B43DD
:1007F00006E00B461341D0402024A21A9140084342
:10080000194610BD002904DA401C490001D14008F6
:100810004000704770B40024050C05D1102400047A
:1008200002D1002921D01124050E01D10002083483
:10083000050F01D10001241D850F01D18000A41CEA
:10084000002801DB4000641C002908D020252E1B55
:100850000D46F540A14000D001212943084301067F
:100860001B1B000ADB1D02D5002070BC7047DB0596
:10087000181880180029F8DA401C4900F5D170BC1E
:1008800040084000704710B5002B08DA0024401CD7
:10089000614192185B411A4301D14008400010BDEC
:1008A000F0B51FB482B005460C0003D0084602F034
:1008B0001BFC02E002F018FC2030024600902146AA
:1008C0002846FFF76BFF049B059A04460F46184322
:1008D0001143084314D0184610431BD00098402100
:1008E0000A1A18460599FFF769FF05460E46009A51
:1008F00005990498FFF752FF084305D0012004E052
:100900002046394607B0F0BD0020C11705430E430D
:100910002C43374300990E986305401A7905E40A81
:1009200000220C43FD0A0A3002D500200146E9E707
:100930000105101969410C9C0D9D00196941FFF7D3
:10094000A2FFDFE70EB5C217C10F5040CA0740181B
:100950000021054B0293019200910A460B46FFF7D6
:100960009FFF03B000BD0000330400004A000903EC
:100970000123090B1B0519430A4B10B5520D9A426E
:1009800002DA0020014610BD064B34339A4203DCE4
:100990009A1AFFF713FF10BD034BD218FFF7FEFEA4
:1009A00010BD0000FF030000CDFBFFFF10B50029C4
:1009B00004DB0124E40740428C412146002B04DB88
:1009C0001C460123DB075242A341994200D19042C9
:1009D00010BD0000064C0125064E05E0E36807CC7B
:1009E0002B430C3C98471034B442F7D3FFF76CFB11
:1009F000784B0008984B0008FEB500231A461B1AD6
:100A00008A4103DB0020014603B0F0BD4A000D031C
:100A100001212D0B0905520D0D43D10702D10018FC
:100A20006D41521E5110FF31FF3101310027044644
:100A30003E463846009701910246012100200905F3
:100A4000FFF7BCFEC3197141F818324684468E4642
:100A50004A4161462846611A904104D36046241AEF
:100A6000954176461F46241900986D41401C009020
:100A70003428E1DDF91930467041091BA84103D241
:100A80000022D243134601E00022134601980105DB
:100A9000381C7141FFF7F7FEB6E7000038B41F4875
:100AA0008168C943C90733D181681D4CC9434A07CE
:100AB0001C491D4B13D482682240103282601D698C
:100AC0000A46009505E01D69ED0300D5521E002A77
:100AD00021D08568ED43ED06F5D5002A1BD082684C
:100AE0002240921C82601A69009205E01A69D203C2
:100AF00000D5491E00290ED08268D243D207F5D016
:100B0000002908D0012101608168084A11408160F4
:100B100038BC0020704738BC0120704700240140D9
:100B2000E8FFFF7FE803000000E000E0E8FFFF6F60
:100B300010B4344883B08168C943C9074ED001213D
:100B400001608168304C012221401207114381600D
:100B50002E4903220B689205934313430B606422D2
:100B600069460A810A890A800988002969463DD0B8
:100B70000988002908D069460988C907C90F03D028
:100B80006B461A89521E1A816A461288491C521CE9
:100B900091420BDA6A4613895B1E138113895B1E2F
:100BA00013811288891C521C9142F3DB6946098922
:100BB00081682140491C8160154A7D211369C90063
:100BC000019305E01369DB0300D5491E002909D014
:100BD0000368DB43DB07F5D1002903D003B010BC69
:100BE0000020704703B010BC01207047098900291C
:100BF000DCD06A461189491E118111890029F8D17A
:100C0000D4E7000000240140E8FFFF7F08270140EF
:100C100000E000E0F0B51D4900248BB00843054614
:100C200002AF022208A9284600F02CF9002802D0C1
:100C300000200BB0F0BD6846408CFFF708FD06466B
:100C400013481449008B4843FFF701FD3146FFF775
:100C50000DFB06466846008CFFF7F9FC01900E4933
:100C60003046FFF703FB0199FFF7C3FA0B49FFF783
:100C7000FDFAA100641CE4B27850052CD1D3052103
:100C800002A802F057FF0BB0F0BD0000000002C444
:100C90006000F81FB80B000000F07F4500007A44A8
:100CA000F0B5274D8BB00024022209A9254800F099
:100CB000E9F8002802D000200BB0F0BD6846808C17
:100CC000FFF7C5FC0646288B1F494843FFF7BFFCCA
:100CD0003146FFF7CBFA06466846C08C05906F8B0D
:100CE0003846FFF7B4FC06900598FFF7B0FC314694
:100CF000FFF77FFA1549FFF7B9FA0699FFF771FA7E
:100D00001349FFF776FA1349FFF76BFA0646E88BAB
:100D1000C01BFFF791FC01463046FFF7A7FA0D49CB
:100D2000FFF70EFAA200641C6946E4B28850052C55
:100D3000BAD30521684602F0FDFE0BB0F0BD0000FD
:100D40006000F81F000006CCB80B000000803B4597
:100D5000000002430000F041F0B589B0144F154E79
:100D600000246D46012207A9384600F08BF80028C0
:100D700002D0002009B0F0BD6846808BFFF767FC09
:100D80000590308B0C494843FFF761FC0599FFF74C
:100D90006DFA0A49FFF76AFAA100641CE4B26850D0
:100DA000052CDFD30521684602F0C4FE09B0F0BD72
:100DB000000002C46000F81FB80B000000007A4475
:100DC00010B42E4883B08168C943C90747D0C31403
:100DD0000360816817229143420511438160284ACC
:100DE0007D211469C900019405E01469E40300D56C
:100DF000491E002933D00468E4432405F5D40029B2
:100E00002DD003600221684601810189018000889C
:100E10000028684627D00088002808D06846008847
:100E2000C007C00F03D06A461189491E1181694667
:100E30000988401C491C88420BDA69460A89521EFF
:100E40000A810A89521E0A810988801C491C88422D
:100E5000F3DB6846008903B010BC0020704703B084
:100E600010BC0120704700890028F2D0694608892B
:100E7000401E088108890028F8D1EAE700240140D3
:100E800000E000E0F8B42C4D2B68DB43DB074FD1CA
:100E9000002802D04003400BA862082028600420EC
:100EA00028607D260027F600244C002A23D9A86854
:100EB000C043400704D5A868214B1840001DA86016
:100EC00023693046009305E02369DB0300D5401E0B
:100ED00000282DD02B68DB435B07F5D4002827D0F2
:100EE000286C0005000D7B00C852042028607F1C80
:100EF000FFB29742DBD3A868C043400713D4A86869
:100F00000F4908401030A8602069009005E0206972
:100F1000C00300D5761E002E0AD0A868C043C006C4
:100F2000F5D5002E04D008202860F8BC00207047BA
:100F3000F8BC0120704700000024014000E000E000
:100F4000E8FFFF7F10B413480168134AC943C9057D
:100F500002D501681143016010490C690123DB04CB
:100F60001C430C610C699C430C6101689143016056
:100F70000B4A002081008918096D002902D010BC9D
:100F800001207047401CC0B20528F3D310BC0020DC
:100F90007047000000700040000100004010024057
:100FA0000028004070B50E460F4C104D010014D0C3
:100FB0000F4A914201D9012006E01046FFF798F848
:100FC0000C49884200D90020E062616A814201D95F
:100FD00000206062206A28432062304600F0ECFD69
:100FE000206AA843206270BD00000040000100009C
:100FF00040420F00FFFF0000FF2201329005016A0E
:101000009143016201684908490001600021416281
:101010007047FF2201329005016A9143016200216D
:10102000416201680122114301607047F8B5012651
:10103000B607F76A0B21FFF75BF80846FFF70EFBD0
:101040000022334602F0BCFF04460D463846FFF747
:1010500005FB0022D243FFF7D9FA0022054BFFF728
:101060005DFA22462B46FFF7F1F9FFF705FBF06327
:10107000F8BD000000005940F0B583B00D460446AD
:1010800002F02CFE002836D1204B5868212109019E
:101090000843586000206D1C0090A8B28446644547
:1010A00020D27D25ED001A4800271A49A2005618C3
:1010B000376002692946019205E00269D20300D532
:1010C000491E002907D09A69D207F6D1002902D01B
:1010D0003168002902D00120009003E0641CA4B212
:1010E0006445E2D35868212109018843586002F021
:1010F000D1FD002802D0012003B0F0BD00980028E7
:10110000FAD0641CA0B203B0F0BD00000020024081
:1011100000E000E00000080801494018007870472E
:101120000000080803484169C943C90701D10121EA
:10113000416170470004014007A001F08BFD0D489C
:1011400000F03AFDBFF34F8F0C490B48C860BFF366
:101150004F8F00BFFDE700002A2A2A2A2A20494E85
:101160002048415244204641554C5421202A2A2AE5
:101170002A2A0000E70300000400FA0500ED00E061
:1011800008B50D4B7D201969C00000910B4905E0A1
:101190001A69D20300D5401E002808D08A69D243BC
:1011A0005207F5D4002802D0486AC0B208BD02F048
:1011B000BDFD002008BD000000E000E0005400403C
:1011C000F8B53C4DAB693C4E1B043C4FDB0F0FD0D8
:1011D0003C693346009405E03C69E40300D55B1E9E
:1011E000002B31D0AC69E443E407F5D1002B2BD0C0
:1011F0006B680124E402A3436B606B689B0A9B024B
:1012000003436B6060106B68002922D08343034363
:101210006B60686801231B06984368606868FF2359
:101220001B04984312041043686068680122520648
:1012300090436860686812131043686038690090D2
:101240001020002911D024E002F070FD00282ED0DB
:101250002BE08343DCE73969C90300D5761EA96911
:10126000C943C9060ED5002E1BD0A969C943C907B9
:10127000F1D112E03969C90300D5761EA969C943C5
:10128000C90604D4E9690143E9610320F8BD002ED1
:1012900007D0A969C9434907ECD4002E01D000202A
:1012A000F8BD02F043FD002801D00220F8BD012066
:1012B000F8BD000000540040E803000000E000E03A
:1012C00038B51B4B7D20C0001A6901460092194AAF
:1012D00005E01C69E40300D5491E00290DD094697E
:1012E000E443E407F5D1002907D051680124A403A1
:1012F00021435160196900910AE002F017FD0028AE
:1013000014D011E01969C90300D5401E002807D088
:1013100091690904C90FF5D1002801D0002038BD1A
:1013200002F004FD002801D0022038BD012038BDA4
:1013300000E000E00054004038B50F4B7D211A69F1
:10134000C90000920D4A05E01C69E40300D5491E5E
:10135000002908D09469E443E407F5D1002902D0BC
:101360009062002038BD02F0E1FC002801D002208C
:1013700038BD012038BD000000E000E0005400400E
:1013800030B583B064A001F065FC132000F014FCBC
:101390006948052102688A4302606848016A302270
:1013A0009143016200F040FC6549012808700BD0B0
:1013B000022802D0032814D10DE062A38B226549D4
:1013C00065A001F0B1FD0CE068A38E22614962A026
:1013D00001F0AAFD05E069A391225E495EA001F03B
:1013E000A3FD6B480168C943490603D40168402244
:1013F00091430160102005242407A0620820A06208
:101400004020A062634D0420A861FFF7F5FD012094
:10141000C002A0622020A861C201A2611423684614
:101420000381018901800088002868465DD000881A
:10143000002808D068460088C007C00F03D06D465A
:101440002989491E298169460988401C491C88420E
:101450000BDA69460D896D1E0D810D896D1E0D819A
:101460000988801C491C8842F3DB68460089A26217
:1014700068460381018901800088002868463FD0C2
:101480000088002808D068460088C007C00F03D035
:101490006B461989491E198169460988401C491CF7
:1014A00088420BDA69460B895B1E0B810B895B1E38
:1014B0000B810988801C491C8842F3DB684600893F
:1014C000A261012000F078FB33480168C943C907D5
:1014D00003D00168012211430160FFF7DFFAFFF733
:1014E0006FFCFFF725FB03B030BD00890028BCD09E
:1014F00069460889401E088108890028F8D1B4E7A8
:1015000000890028DAD069460889401E08810889C8
:101510000028F8D1D2E700000D0A0D0A2A2A2A2A4B
:101520002A2053595354454D205245534554202A9F
:101530002A2A2A2A0D0A0000000401400000014066
:1015400004000020506F776572206F6E2072657303
:1015500065740000C74A00082E2E5C5372635C5508
:101560005345525C66756E632E6300004E6F726D5C
:10157000616C2072657365740000000057616B65D3
:1015800075702066726F6D207374616E646279008D
:1015900000300140000400500054004070B48368E3
:1015A0000022DB43DB0710D08C684B68C5682343FF
:1015B000CC68084E35402C432343C3600369096857
:1015C0009B009B080B43036100E0012270BC1046A6
:1015D00070470000C73FFFFF30B483680022DB4341
:1015E000DB070ED04C680B68CD6823438C68096913
:1015F0002C4323430B43C168044C21400B43C3607D
:1016000000E0012230BC1046704700003CC2FEFFE3
:1016100010B4047900232B490268002C47D0002A1B
:101620004CD04479002C0FD0012C15D0022C1BD0AB
:1016300001238279002A41D0012A1DD0022A24D018
:10164000032A2BD0012339E04C6894434C60026894
:101650000C6814430C60ECE70C6894430C6002685F
:101660004C6814434C60E4E70C6814430C60026857
:101670004C6814434C60DCE70268CC689443CC604F
:1016800000688A6802438A6018E002688C689443A4
:101690008C600068CA680243CA600FE002688C6808
:1016A00014438C600068CA680243CA6006E00C6894
:1016B00094430C6000684A6882434A6010BC184634
:1016C0007047000000040140F0B40A680024002ABA
:1016D00051D001230A68A3401A4048D04B68012B1F
:1016E00001D0022B10D18E688568134653435F00EA
:1016F000DF19BD4373431D438560CE680B684568A1
:101700009D4373431D4345600F69C66813465343A9
:101710005D005D19AE435F433E43C6604E68022ED6
:101720001FD1FF2A0ED817464A69066A94461A4600
:101730007A437A431701BF1ABE4367467A4316437A
:1017400006620EE0160A324672434F6972437243D4
:10175000BC461601B71A466ABE4367467A4316432B
:1017600046624E6802687343AA431A4302600A68DD
:10177000641CE240ADD1F0BC0020704702460E4B25
:1017800000200E499A4208D101228B6A5205134368
:101790008B628B6A93438B627047094B9A4208D1E4
:1017A00001228B6A920513438B628B6A93438B628F
:1017B00070470120704700000054004000100240B4
:1017C0000058004030B402685208520002608C6831
:1017D000CA6803681F252D021202AB43224313433C
:1017E00003604A680261026801231A43026082684A
:1017F000DB039A4382608C690A6985682243ED0A9B
:10180000ED02154385600A69002A02D082681A43F6
:1018100082600C68026803252D05AA4322430260FA
:101820004A69416899431143416030BC00207047C8
:1018300010B57D21C900FEF75BFC0449401E4861DC
:10184000002088610520086110BD000000E000E074
:10185000F8B5324B014600209E00F025304A314C4D
:1018600003291BD00C2918D1D7680F4009040F4356
:101870002D4979183CD004293DD0082947D000F0E3
:10188000ADFFE16829400A092849895CC840E16840
:10189000274A4905490F515CC840F8BDD168032764
:1018A0008907890F3F043943FF43C91920D0012913
:1018B00010D0022917D000F091FFE16829400A09F1
:1018C0001A49895CC840E168194A8904490F515C8A
:1018D000C840F8BD2168C9434907FAD42068C0430D
:1018E000C00610D511E011698905C90F13D1F8BDE3
:1018F00000F074FFF8BD2168C9434907FAD4206895
:10190000C043C00601D41846F8BD3046F8BD116981
:101910008905C90FFAD00120C003F8BD00093D00B8
:101920004010024000100240FCFFF3FFA64A0008EE
:10193000BF4A000810B403680122DB435B0625D5CB
:101940004B680A68CC681A438B6823431A430B69B7
:101950001A434B691A438B691A43CB691A430B6AC2
:101960001A4303680D4C23401A4302604268042363
:101970009A434B691B0C1A43426001230A6A5B03BA
:101980009A4202D1898C89B201610022C169012386
:10199000DB029943C16110BC104670474000FFFF55
:1019A00001490860704700000000002070B4026820
:1019B00001239B07114C124D984203D0A04201D045
:1019C000A84203D17026B2434E683243984203D0F6
:1019D000A04201D0A84204D103231B029A43CB6842
:1019E0001A4302608A68C2620988816241690122E1
:1019F0001143416170BC00207047000000080140A5
:101A000000140140F0B401240023702501292AD0DC
:101A100003263602102940D0FF39491E5BD00F251E
:101A20002D02A9421CD1016A2503A9430162016A62
:101A30004768C469B44307263603B44316683602C0
:101A400034436E00B143D66836033143A943556829
:101A500047602D032943C4619268026401621C46F9
:101A60002046F0BC7047016A490849000162046AD7
:101A70004668816989088900A943156829430225B8
:101A8000AC43D5682C436408556864002C43466019
:101A900081619168416304621BE0016A1025A943DA
:101AA0000162016A47688469B44307263603B44378
:101AB0001668360234432026B143D66836013143D6
:101AC000A943556847602D01294384619268826368
:101AD00001621C46C4E7016AFF260136B143016278
:101AE000016A4768C469A408A400AC4315682C4384
:101AF0007500A943D5682D0229435568B1432D02CD
:101B000029434760C4619268C26301621C46A7E72B
:101B100070B5044600680D460126C043C00741D099
:101B2000E9686868AA69084329691143084321687C
:101B30001D4A114008432060A9686068032212030F
:101B40009043084360606969A0681211904308439C
:101B5000A0601648844201D1032003E01448844267
:101B600020D10C20FFF774FE00281BD02968002923
:101B700018D00123AA690026DB039A420CD1400049
:101B80004A088018FEF7B4FA81B20A4808400907EB
:101B9000490F0143E16005E04A081018FEF7A8FA72
:101BA00080B2E060304670BDF369FFEF003801405D
:101BB00000440040F0FF0000074981B00A6900922C
:101BC000421C00D0401C0A69D20300D5401E0028E8
:101BD000F9D101B07047000000E000E010B41048F7
:101BE000FF21426801318A434260036804221343A3
:101BF0000360036808242343036043680B43436086
:101C00000168431519430160016802239943194390
:101C10000160044801691143016130BF10BC704785
:101C20000070004000ED00E010B40F4A10690F4949
:101C30000001C00F01D002200BE01069000E01D09E
:101C4000012006E04868C043800701D4032000E07B
:101C500000200B68082423430B60116923051943F6
:101C6000116110BC7047000040100240007000403D
:101C700088B0BF48007801280CD0022802D0032881
:101C80007DD1CDE000F0FCFD002878D0B94800F00F
:101C90002BFFDCE0B84C2069C04300076FD52069FA
:101CA000C043C0066BD50920FFF786FF2069C043FB
:101CB000000764D52069C043C00660D5FFF7A9F9C5
:101CC0000A20FFF7B3F90520FFF7B0F97D25ED00F5
:101CD00031212846FFF766F93120FFF76DFF3121EA
:101CE0002846FFF75FF93120FFF766FF31212846CC
:101CF000FFF758F9A1A33D22A649A7A001F014F9C6
:101D0000AAA33E22A349A4A001F00EF900F0B6FE5A
:101D1000002806D0A9A341229E499FA001F004F902
:101D200005E0AAA345229B499BA001F0FDF8ABA3C7
:101D30004722984998A001F0F7F801F0CDF8002863
:101D400006D0AAA34A22934993A001F0EDF805E03A
:101D5000ABA34E228F4990A001F0E6F8ADA350222C
:101D60008C498DA001F0E0F8FFF7ECF8002807D0CF
:101D7000ACA35322874988A001F0D6F806E066E0BC
:101D8000ACA35722834984A001F0CEF8ADA3592219
:101D9000804981A001F0C8F8AE490020FFF76CF936
:101DA000002806D0ACA35C227A497BA001F0BCF8E5
:101DB00005E0AEA36022774977A001F0B5F8B0A3A3
:101DC0006222744974A001F0AFF8B1A000F042FFA4
:101DD00000240126F602200702D16DA000F03AFF90
:101DE0002046FFF799F90346ACA20921684601F0A5
:101DF00061F9684600F01EFF641CA4B2B442EAD345
:101E000063A000F027FFA7A000F024FF60A000F06F
:101E100021FFC7212846FFF7C5F8FFF7EDF816E0C8
:101E200000F025FD002802D000F01AFD0FE0092087
:101E3000FFF7C2FE052424072069C043000406D52D
:101E40000020FFF7B9FE2069C0430004F8D4984889
:101E500000F032FD00F01DFDFEF72CFC06909448CA
:101E60000791047843788278C178059404930392AB
:101E7000029102794179009101928379FF218DA22B
:101E80000131984801F016F9964800F0E3FE9649B2
:101E9000002000F0BBFF00F079FF934F0646386842
:101EA000FEF708FC04460D467868FEF703FC6B4617
:101EB00073C3FF218DA201318A4801F0FBF88948E4
:101EC00000F0C8FE9348FEF7A5FEFEF7F3FB0646BA
:101ED0000F46FEF7E5FEFEF7EDFB04460D46FEF766
:101EE0003BFFFEF7E7FB0A46009001A8F4C0FF2184
:101EF00089A201317B4801F0DDF87A4800F0AAFEA2
:101F0000072000F054FD012000F047FD012000F003
:101F10006DFD8BA3C42291491FA001F005F8FFF7C6
:101F20005DFE8FA3C9228D491BA000F0FDFF9248E2
:101F3000FFF742FE91A3CB22884917A000F0F4FFDF
:101F4000FFF74CFE86A3CD22844913A000F0ECFFDE
:101F500092A3CE22814910A000F0E6FFBFF34F8F7D
:101F600095499448C860BFF34F8F00BFFDE700005C
:101F700004000020D14A00080004005042454749AF
:101F80004E20524553455420414C4C20444154412D
:101F900000000000DA4A00082E2E5C5372635C5584
:101FA0005345525C66756E632E63000052544320A5
:101FB00072657365742E2E2E00000000525443206B
:101FC0007265736574206661696C00005254432029
:101FD000726573657420646F6E65000053454E53DF
:101FE0004F522072657365742E2E2E0053454E534A
:101FF0004F52207265736574206661696C00000041
:1020000053454E534F5220726573657420646F6E52
:1020100065000000424B50522072657365742E2E8D
:102020002E000000424B505220726573657420668A
:1020300061696C00424B5052207265736574206474
:102040006F6E6500454550524F4D20726573657443
:102050002E2E2E00FF010000454550524F4D20729C
:1020600065736574206661696C00000045455052D7
:102070004F4D20726573657420646F6E65000000BB
:1020800050726F6365737320646F6E6500000000AB
:102090003D20454550524F4D203D000030782530C1
:1020A000325820003D3D3D3D3D3D3D3D3D3D000024
:1020B0001C0100205254433A20322530336420253D
:1020C0006420256420256420253032643A2530328E
:1020D000643A253032642054454D503A25352E322D
:1020E000660000001C000020080000205448203A30
:1020F0002054454D503A25352E32662052483A2517
:10210000352E3266205354415455533A3078253099
:1021100032580000020000044144433A205644442F
:10212000413A25352E32662054454D503A25352EFC
:102130003266204348313A25352E326600000000D1
:10214000526561647920746F20656E7465722073C6
:1021500074616E646279206D6F646500CC4A00081A
:10216000456E746572207374616E646279206D6F60
:102170006465206661696C00E70300005472792091
:10218000746F20656E746572207374616E64627919
:10219000206D6F646520616761696E0054727920FB
:1021A000746F207265736574207468652073797329
:1021B00074656D000400FA0500ED00E070B590B0A4
:1021C00000250295039504950095019507950895BE
:1021D00009953D4806950C950D950E950F95012195
:1021E000426B49020A434263426B0A400592C26A4B
:1021F00001210A43C262C06A022608400A9605907D
:1022000003200B9005200AA90007FFF75DFA2F4C69
:10221000A06A3043A062A06A71040843A0622C4EF9
:102220004A01316803208005814311433160A16A6E
:1022300092111143A162316852018143114331600F
:102240000095019502950395694620460495FFF790
:10225000C3F9616907208143014361612069400836
:1022600040002061E16804208143E1603168C205DB
:1022700091433160616881436160606808218843EF
:102280006060A06813490840D1000843A06013486B
:1022900011490068FDF72CFF0A214843FDF728FF8C
:1022A000002802D00E4A90420BD8012080070690E9
:1022B0000795089506A909952046FFF76FF910B014
:1022C00070BD401EFDD1F0E7001002400024014027
:1022D00008270140E8FFFF7F400D030000000020B9
:1022E000FFFFFF7FF0B589B000240094019474498A
:1022F0000494059406940794C96A0420704A014323
:10230000D162D16A01400891D16A01200143D162B2
:10231000D06AC007C00F0890D16A02200143D16281
:10232000D16A014008910820052109078862102020
:1023300088624020886280018862624D2020A86205
:10234000C700AF620420A8618F6140028861C000AD
:102350000326029002A903965B48FFF7B5F96801CE
:10236000029002A9039606945748FFF7ADF908209A
:102370000290012003900520059402A9049606947A
:102380000007FFF7A1F9102002900120039005201B
:102390000494059402A906940007FFF795F94020DC
:1023A0000290012003900520059402A9049606944A
:1023B0000007FFF789F90220029002A9039606940C
:1023C0002846FFF781F9042002900120039004942D
:1023D000059402A906942846FFF776F90120039098
:1023E00005200494059402A9029706940007FFF7BC
:1023F0006BF9F800029001200390052004940594E5
:1024000002A906940007FFF75FF938010290012046
:10241000039005200494059402A906940007FFF791
:1024200053F9680102900520039402A9069400075D
:10243000FFF74AF908200290039402A9069428465F
:10244000FFF742F910200290039402A9069428464F
:10245000FFF73AF90120202603900494059402A97D
:10246000029606942846FFF72FF901200390049462
:10247000059402A9029706942846FFF725F9134808
:10248000816801220909090111438160E868800817
:1024900080001043E8602868800880002860684653
:1024A0000092027144718271FFF7B2F8084908681E
:1024B000FF221202904308600648066009B0F0BD92
:1024C00000100240000400500008005000000140CD
:1024D00004E400E000E100E0F0B58FB000250695CF
:1024E0000795284C089509950A950B950C95E16A76
:1024F00002200143E162E16A012601404020009090
:102500000D910320022702900197039604966946D5
:1025100005961D48FFF7D8F8802000900320029010
:10252000019703960496694605961748FFF7CCF87D
:10253000A16B70050143A163A16B144C01400D9187
:102540006068710608436060E06889128843E06053
:102550002068090188432060206889108843206032
:102560000B480C9506950790089509950A950B95CB
:1025700006A92046FFF726F9E06806490840E06012
:102580000FB0F0BD001002400004005000540040A5
:102590000B02100001F8FFFFF0B591B00024009489
:1025A0000394049401940294059408940994234894
:1025B000069407940D940E940F940121426B090325
:1025C0000A434263426B0A401092C26A01210A43E5
:1025D000C262C06A05270840109020200225032609
:1025E0003F070A900AA90C960B953846FFF76CF83E
:1025F00080200F940A900D940E940AA90C960B95C6
:102600003846FFF761F8FF20053001900120009463
:102610000490039502944002069407940894059050
:102620000720074C099069462046FFF783F9606848
:1026300010218843606011B0F0BD0000001002401E
:1026400000300140F0B591B0002600960196039647
:10265000049605960696079608962E4F09960A96B2
:102660000B960C960D96B96B01200143B963B86BBC
:102670006946C007C00F0E9007200880F920840724
:1026800002902046FFF792F9216880208143216063
:10269000A06821490840A0602048A115027920487F
:1026A000151828681F4A137908229A401043286099
:1026B000602004907C20069002200790059604AAD2
:1026C0002046FFF79FF9296816480279042003463F
:1026D0009340994329606168702291436160A168C9
:1026E00080229143A160FA6A01210A43FA62F96AE1
:1026F0000890C907C90F0E91022009900D9005207E
:102700000A960B9608A90C960007FEF7DDFF11B09C
:10271000F0BD000000100240F8BFFFFF984A00081B
:10272000180000409F4A0008F0B58FB000240694BE
:1027300007940894099426480A940B940C940394E3
:1027400004940121426B89030A434263426B0A40AD
:102750000D92C26A01210A43C262C06A042708407E
:102760000D90480205970090022503260520694632
:10277000029601950007FEF7A7FF680205970090F3
:102780000520039469460296019504940007FEF71C
:102790009BFFE120400206900794089409940B9453
:1027A0000C940C200B4C0A9006A92046FFF7B0F9B8
:1027B00060680921C90288436060A0682A218843B3
:1027C000A06020680121084320600FB0F0BD000028
:1027D00000100240003801407047704770B51C4837
:1027E000C5680C210D401B4908D01B4A9300042DDD
:1027F0000BD05400082D10D00C2D10D040680004D0
:10280000420F0846521C904070BD0068C043C0068D
:1028100001D4104670BD184670BD204670BDC16819
:1028200001252D04294205D10168C943C90602D5F5
:102830001A4600E02246C168C0680902890F80027A
:10284000064B000F185C491C5043FDF751FC70BD4E
:10285000001002400080000000093D00B64A000858
:1028600010B5002202210F2000F0CAF810BD10B5EB
:102870000F20022400F0E4F8204000D0012010BD19
:1028800010B50F20802400F0DBF8204000D001209C
:1028900010BD10B5112000F0D3F88400122000F014
:1028A000CFF880092043FDF7D9FE0122D243FDF77E
:1028B000ADFEFDF713FF10BDF8B504460025072651
:1028C00001222946D020FEF77BFC012700280BD1EE
:1028D0002846FEF731FD002806D132460121D020DE
:1028E000FEF76EFC002805D009212046FDF71DFCEF
:1028F0000120F8BD0025FEF743FC60556D1CEDB2CC
:10290000B542F8D3FEF7DCFC0021084630E002288F
:1029100002D005282CD114E0A27852060BD5E7711D
:10292000A278920601D5277200E02172A278D30620
:10293000DB0EA3701CE0E1712172A27893069B0E5E
:10294000F7E76279130613D5D006C00E0207000917
:102950000A23120F584380186071A2790A251307C1
:1029600012091B0F6A430620D2186432A27107E0D5
:10297000225C0A25130712091B0F6A43D21822543E
:10298000401CC0B20728C2D3E07807210C30FDF705
:10299000AFFB491CE1700020F8BD10B5002800D045
:1029A0000220024602210E2000F02AF810BD70B568
:1029B0000024064601252846A040304207D0204684
:1029C0000B308022C0B2114600F01AF806E0204613
:1029D0000B30C0B20022802100F012F8641CE4B277
:1029E000032CE8D3002800D0012070BD10B50028CA
:1029F00000D00420024604210E2000F001F810BD92
:102A000070B514460E46054600F01AF8B04334403F
:102A1000044302220021D020FEF7D2FB002809D176
:102A20002846FEF789FC002804D12046FEF784FCE6
:102A3000002801D0012070BDFEF742FC002070BDCF
:102A400010B5044601220021D020FEF7B9FB002872
:102A50000BD12046FEF770FC002806D1012211465A
:102A6000D020FEF7ADFB002801D0002010BDFEF7FE
:102A700087FB0446FEF724FC204610BDF0B515A0E8
:102A80001EC885B06D461EC500680024049011273D
:102A90006E4612222146D020FEF792FB002804D178
:102AA0002046FEF749FC002802D0012005B0F0BD09
:102AB00000252C46305DFEF73FFC002801D00125A3
:102AC00003E0641CE4B2BC42F4D3FEF7F9FB2846F1
:102AD00005B0F0BD00000000000000000000000094
:102AE00000001C8B00000000F0B583B005460178A3
:102AF0006846017069784170A9788170E87807218B
:102B0000C01DFDF7F5FA491C6846C17029790171AD
:102B100069794171A979002481716E4680270BE0A3
:102B2000062C09D168468079632805D9694664383E
:102B30008871487938434871305D0A21FDF7D8FA29
:102B4000000140183055641CE4B2072CE8D3E87942
:102B500000280ED0694688784021C006C00E084380
:102B600069468870297A002903D0202108436946E4
:102B70008870002407266D4608222146D020FEF7E3
:102B80001FFB002820D12046FEF7D6FB00281BD1D2
:102B9000285DFEF7D1FB002802D0FEF791FB13E081
:102BA000641CE4B2B442F3D3FEF78AFB0022802116
:102BB0000E20FFF725FF002806D1002280210F20DC
:102BC000FFF71EFF002800D0012003B0F0BD000079
:102BD000F8B47D26F600154C154D002916D0402777
:102BE00023693246009305E02369DB0300D5521EBA
:102BF000002A18D0EB69DB431B06F5D4002A12D05B
:102C00002F620278AA62401C491EE9D12069009017
:102C100005E02069C00300D5761E002E03D0E869C8
:102C2000C0434006F5D4F8BC7047000000E000E067
:102C30000038014000B50021024602E0491CC9B23B
:102C4000521C1378002B01D0FF29F7D3FFF7C0FFE8
:102C500000BD000000B50346002102E0491CC9B2D6
:102C6000401C0278002A01D0FF29F7D31846FFF74D
:102C7000AFFF022101A0FFF7ABFF00BD0D0A00006E
:102C80007047704710B5274801684908490001603E
:102C90000168C907C90FFBD1234801220168D2028C
:102CA0000323DB029943114301602048016801229C
:102CB000114301600168C9434907FBD441681F22E1
:102CC000120291430122120311434160C168802224
:102CD000F02399431143C160C16807221202914356
:102CE000C160C168D2009143C160C26801219208ED
:102CF00092000A43C2600C22C16811400429FBD132
:102D00000B4C2046FEF794FD2046FEF749FE09488D
:102D1000C16889088900C160C16803221203914318
:102D2000C16010BD00200240007000400010024051
:102D300000127A00401002401048016882151143C9
:102D40000160C1680E4A1140C16001680D4A11401E
:102D5000016081684908490081600168012292048C
:102D600091430160C168FD2212049143C1600021BA
:102D700001610549C00388607047000000100240EF
:102D80000C40FF88F6FFF6FE00ED00E0F0B51CA158
:102D9000086883B0496802910190032269461A4885
:102DA00000F06EF8002802D0FE2003B0F0BD022132
:102DB000684600F04FFF69468978884202D0FF20BC
:102DC00003B0F0BD00206C46072501AA0146402350
:102DD0002778667801E0042906DA1478274206D0BD
:102DE0001C46CC40204302E014782642F8D1491C0E
:102DF000521C6D1E2D062D0EEDD103B0F0BD00004E
:102E000080200804100201002DF3000010B5194ABB
:102E100082B00C46002803D0012803D0022803D03A
:102E2000104602E0144800E014480622694600F00B
:102E300027F8002802D0012002B010BD0221684608
:102E400000F008FF69468978884208D100A802216D
:102E5000033000F0FFFE69464979884202D0022023
:102E600002B010BD2146684601F0A8FD002002B066
:102E700010BD0000062C00000D2C0000102C0000DE
:102E800070B515460E460446022200218820FEF742
:102E900097F900281ED1200AFEF74EFA002819D112
:102EA000E0B2FEF749FA002814D12A460121882011
:102EB000FEF786F900280DD10024002D06D9FEF773
:102EC0005FF93055641CE4B2AC42F8D3FEF7F8F970
:102ED000002800D0012070BD10B5054800F00AF8A8
:102EE000040002D10120FEF767FE204610BD00005D
:102EF0004130000010B50446022200218820FEF770
:102F00005FF900280DD1200AFEF716FA002808D133
:102F1000E0B2FEF711FA002803D1FEF7D1F900283C
:102F200000D0012010BD0000F0B5074615460E4642
:102F30004DA083B01C460246002102E0491CC9B2E4
:102F4000401C0378002B01D0FF29F7D31046FFF770
:102F50003FFE49A00246002102E0491CC9B2401CC4
:102F60000378002B01D0FF29F7D31046FFF730FE7E
:102F70000021384602E0491CC9B2401C0278002AF0
:102F800001D0FF29F7D33846FFF722FE3DA20021EA
:102F9000104602E0491CC9B2401C0378002B01D046
:102FA000FF29F7D31046FFF713FE0021304602E059
:102FB000491CC9B2401C0278002A01D0FF29F7D36E
:102FC0003046FFF705FE32A20021104602E0491C00
:102FD000C9B2401C0378002B01D0FF29F7D310465B
:102FE000FFF7F6FD2B462DA20B21684600F062F894
:102FF0006A460021104602E0491CC9B2401C037811
:10300000002B01D0FF29F7D31046FFF7E1FD24A0E4
:103010000246002102E0491CC9B2401C0378002B83
:1030200001D0FF29F7D31046FFF7D2FD204600213B
:10303000234602E0491CC9B25B1C1A78002A01D061
:10304000FF29F7D3FFF7C4FD18A000210246491C51
:103050005378521CC9B2002B01D0FF29F7D3FFF7D8
:10306000B7FD03B0F0BD00000D0A2A2A44454255C1
:1030700047205052494E54000D0A46494C452020E5
:103080003A2000000D0A46554E4320203A20000009
:103090000D0A4C494E4520203A20000025640000CE
:1030A0000D0A494E464F20203A2000000D0A0D0A15
:1030B000000000000FB41CB50246002007AC002938
:1030C0000BD0491E01910092064B6A462146069894
:1030D00000F088F9009A002111701CBC08BC04B0F3
:1030E000184700001D3B00082021020C01D01021D0
:1030F0001046020A01D010460839020901D01046D4
:10310000091F820801D01046891E420801D0881E7E
:103110007047081A704700004900CA0202431000B5
:1031200000D004204A0D01D001221043044A490D69
:10313000914201D102210843012800D105207047A6
:10314000FF070000F8B504464F1EC80008382118D4
:1031500015461E46086849683A4606239A4310D029
:103160002A463346FDF772F93A46D200083AA318C8
:103170001A687F1E5B68FDF7B7F806223B4693434B
:10318000EED1022F23D0042F11D0062F2FD12A46A3
:103190003346FDF75BF9E36AA26AFDF7A5F82A4614
:1031A0003346FDF753F9636A226AFDF79DF82A4614
:1031B0003346FDF74BF9E369A269FDF795F82A4616
:1031C0003346FDF743F963692269FDF78DF82A4616
:1031D0003346FDF73BF9E368A268FDF785F82A4618
:1031E0003346FDF733F963682268FDF77DF8F8BDD3
:1031F000002210B5134610460149FDF78FF910BDA6
:103200000000F03F10B5FDF76FF810BD002210B5BB
:10321000134610461146FDF781F910BD10B5072180
:10322000024A00200907FDF7F1F910BD0103000073
:10323000034A10B500201107FDF7E8F910BD0000A2
:1032400001FDFFFF02E008C8121F08C1002AFAD1E1
:1032500070477047002001E001C1121F002AFBD116
:103260007047000001490860704700001800002006
:10327000F0B51FB486B00998089A030D00210243E7
:1032800014D05148514A1818504305141198012878
:1032900010981AD0281A401C00264D4F4D49009610
:1032A00001910490002812DA444211E0119801249F
:1032B00049A3012801D11098C1430698119A84604E
:1032C0000360C26041600BB0F0BD4042E4E70446D9
:1032D000210500203F4A001C51410391029012E059
:1032E000E00707D032463B4601990098FDF7AEF85B
:1032F0000191009032463B4610461946FDF7A6F86C
:1033000006460F466410002CEAD10498039B00285F
:10331000029A0999089806DAFDF798F8019B009A35
:10332000FDF794F805E0FDF7F9F8019B009AFDF729
:10333000F5F804460E460022284BFDF737FB03D86C
:103340000020C043014607E00022254B20463146BD
:10335000FCF7CAFFFDF70AFB102409E0002C0ADB8A
:103360000A220023FDF7EAF9079B30321A55641E42
:1033700002460A43F2D11122641C079B121B1C193E
:10338000119B012B03D0012308430ED10AE008430F
:1033900004D0112010900020119077E71098151A92
:1033A0006D1E0BE01098824202DD00236D1C03E0CD
:1033B000824201DA00236D1E002BEED0069811998F
:1033C0008260C16030C07EE701FCFFFF104D00004D
:1033D000000014400000F03F300000000000F04307
:1033E0000000E03FFFB597B00646002518E225280B
:1033F00077D100242746FD49049400E00443761C5D
:1034000032780120203A90400842F7D130782A28BB
:103410000ED00222307801463039092916D8049995
:103420000A235943303940181443761C0490F1E7BD
:10343000189802C804911890002904DA012040036A
:1034400004434842049002200443761C30782E281E
:1034500014D1042004437078761C2A2809D11898C6
:10346000761C80C8189009E00A214F43303FC719E5
:10347000761C3078014630390929F5D930786C2826
:1034800010D006DC4C281AD068280ED06A2817D134
:1034900004E0742813D07A2812D110E001204005EE
:1034A00004430CE00121090501E0032109050C4357
:1034B0007178814203D1012000052418761C761C06
:1034C0003078119066280BD013DC58287DD009DCA9
:1034D00000287BD04528F6D04628F4D047281AD1BA
:1034E000A5E118E0632835D0642870D0652812D192
:1034F0009DE170286CD008DC6728F1D069287BD06A
:103500006E280DD06F2806D1BAE073282ED075280A
:1035100071D0782859D01A9A199990476D1C7EE17C
:103520006002400F022809D003280DD00428189803
:1035300001680DD00D60001D189070E11898EA1711
:1035400001680D604A60F6E7189801680D80F2E79F
:103550000D70F0E718986A4601781172001D1890F6
:103560000020507202A80090012005E0189802C8BF
:10357000189000200091C04361070DD5002101E0A3
:103580000199491C0191B94212DA8142F8DB009A93
:10359000515C0029F4D10BE0002101E00199491CA4
:1035A00001918142FADB019A0099895C0029F5D1E9
:1035B000019904981A9B471A21463846199A00F037
:1035C00097FA0199401945180BE04FE02CE113E000
:1035D0004EE0009800990078491C00911A9A1999B8
:1035E00090470198401E0190401CF2D12146384678
:1035F0001A9B199A10E137E00A20002100900191EE
:103600006002410F022907D0189A01CA1892C21706
:103610009446032908D00AE01898C01DC108C900C3
:1036200005C91891944607E000B2C21794460429D0
:1036300002D140B2C1178C4600226146944506DA99
:103640000A460021404291418C462D2102E021058D
:1036500004D52B216A461173012103E0E10701D053
:103660002021F7E7029155E00A200AE0102008E047
:10367000102000900021042004430191082703E05A
:1036800008200021019100906002410F022907D01B
:10369000189A01CA189200229446032908D008E01B
:1036A0001898C01DC108C90005C91891944603E0C7
:1036B00080B2042900D1C0B200210291210729D58E
:1036C0001199702906D0009A1021019B4A401A4393
:1036D00005D00EE040216A461173012108E06146E1
:1036E000014306D030216A461173119951730221AA
:1036F0000291009A0821019B4A401A430AD161466F
:10370000014301D1610705D530216A4611730121BA
:103710007F1E02911199582904D035A10E910DA94F
:103720000D910DE037A1F9E76146019B009AFDF785
:1037300005F80E9B8C469B5C0D9A521E0D921370E1
:1037400061460143F0D10D9805A9081A2030019077
:10375000600703D501200004844300E0012701989D
:10376000874201DD381A00E00020019900904118DD
:10377000029809180498401A0490E00306D42146E0
:103780001A9B199A049800F0B3F94519002706E02E
:1037900003A81A9AC05D199990476D1C7F1C029866
:1037A0008742F5DBE0030CD521461A9B199A049851
:1037B00000F09EF9451904E01A9A302019999047B3
:1037C0006D1C0099481E00900029F5DC08E00D985A
:1037D0000D990078491C0D911A9A199990476D1C02
:1037E0000199481E01900029F1DC63E109280100DC
:1037F0003031323334353637383961626364656667
:103800000000000030313233343536373839414228
:10381000434445460000000000F05AF94519761C63
:103820003078002800D0E2E528461BB0F0BD6007E4
:1038300000D406271898C01DC108C90048680A6846
:103840000831C30FDB071891190001D09CA108E0D3
:10385000210501D59BA104E0E10701D09AA100E078
:103860009AA1430011985B08109165280CD006DCE2
:10387000452809D046281DD0472841D141E0662877
:1038800018D067283CD13CE00021112F01DB11202A
:1038900000E0781C0191009008A911A8FFF7E8FC4E
:1038A000139905910021119A15927F1C1298019786
:1038B000009150E00120C00703900120019008A969
:1038C000009711A8FFF7D4FC139A149905920022CF
:1038D000119B009212981593059A0192002901D02C
:1038E000104602E0791C40180190381A01D5019861
:1038F00004E04042401E0090781C0190C01B0290E2
:1039000043E0012F00DA01270021112F01DD1120F2
:1039100000E038460191009008A911A8FFF7A8FC23
:1039200013990591119A002112981592009101970F
:1039300021070CD40599B94201DB019900E00191FE
:10394000012904DD159A491E515C302906D0B84280
:1039500001DA011D05DA0121029115E00199491EE4
:10396000EDE7002805DC0099411800910199091A3A
:1039700003E0019A411C914200DD01910099401A37
:10398000401C02900120C0070390200706D4029932
:103990000198814202DB0020C0430290002069466A
:1039A000C87707AF012103980337C907884224D09D
:1039B000022011902B201290039800280CDA40422C
:1039C00003902D20129007E00A210398FCF790FB4A
:1039D00030317F1E039039701199481E11900029D3
:1039E000F2DC03980028EFD1791E12980870307825
:1039F000202108404530BF1E387006A8C01BC01DDE
:103A0000039010980078002800D0012001994118F7
:103A10000298C0170918039809180498401A401E04
:103A20000490E00306D421461A9B199A049800F0EA
:103A30005FF8451910980078002803D01A9A199950
:103A400090476D1CE00324D521461A9B199A0498CF
:103A500000F04EF845191CE00098002807DB00999B
:103A60000598884203DD1598405C199901E0199981
:103A700030201A9A904700986D1C401C00900298C4
:103A8000401E0290002804D11A9A2E2019999047BE
:103A90006D1C0199481E01900029DDDC05E0387895
:103AA0001A9A7F1C199990476D1C0399481E039020
:103AB0000029F4DC21461A9B199A0498ACE6000010
:103AC0002D0000002B00000020000000000000007E
:103AD000F8B5044600251E461746880404D405E0C0
:103AE00039462020B0476D1C641EF9D52846F8BD24
:103AF000FFB50446002581B01E46C80301D5302716
:103B000000E02027880404D505E038460399B04733
:103B10006D1C641EF9D5284605B0F0BD4A68002A20
:103B200006D00A68531C0B6010704868401E48603D
:103B300070470000F8B504460068002604250146D9
:103B4000FCF7F2FD05D321682069FCF7E3FD00D204
:103B5000002561682068FCF7E7FD01D2012606E038
:103B6000A80020586168FCF7D5FD00D20125B000FF
:103B70002058A168FCF7D8FD01D2022606E0A80073
:103B80002058A168FCF7C6FD00D20225B0002058DD
:103B9000E168FCF7C9FD01D2032606E0A800205821
:103BA000E168FCF7B7FD00D20325B0002058216979
:103BB000FCF7BAFD02D20426002709E0A80020582D
:103BC0002169FCF7A7FD00D204250027002E0BD0A9
:103BD000002D07D01E492068FCF748FB3946FCF74A
:103BE000AFFA0746012E0BD0012D07D018496068A7
:103BF000FCF73CFB3946FCF7A3FA0746022E0BD034
:103C0000022D07D01249A068FCF730FB3946FCF7BB
:103C100097FA0746032E0BD0032D15D00C49E06808
:103C2000FCF724FB3946FCF78BFA0746042E09D033
:103C3000042D07D006492069FCF718FB3946FCF72C
:103C40007FFA07463846F8BD042EF3D1FAE70000A4
:103C50000000404030B40346FF2000223124197890
:103C6000484004215B1C050602D54000604000E08E
:103C70004000C0B2050602D54000604000E04000B0
:103C8000C0B2491EEFD1521CD2B2022AE7D330BCD7
:103C90007047000018B40F4B7D221869D2000090C5
:103CA00001240D4805E01969C90300D5521E002AF8
:103CB0000DD08169C907F6D1002A08D04168214397
:103CC00041604068C00702D018BC0020704718BC93
:103CD0000120704700E000E0002002400F4B7D21F2
:103CE000186981B0C90000900D4805E01A69D20337
:103CF00000D5491E00290ED08269D207F6D10029CD
:103D000009D04168C90703D00649C1600649C160AE
:103D1000002001B07047012001B0704700E000E0D2
:103D200000200240EFCDAB8905040302F0B58948BD
:103D300085B00168CF070168FF0F4908490001609D
:103D400000210268D243D20706D10268D243D207CB
:103D500002D1891C0A29F4D37E48FDF70FFD7E4D60
:103D600028682901032292039043084328606B6866
:103D700080208343044623436B60E86890430843F4
:103D8000E86028688A1003210903884310432860EB
:103D900068684023984318436860E8688843104384
:103DA000E860AC61AB6164236846038101890180EE
:103DB0000088002868467DD00088002808D0684622
:103DC0000088C007C00F03D06A461189491E1181BF
:103DD00069460988401C491C88420BDA6A461189E9
:103DE000491E11811189491E11811188801C491CAD
:103DF0008842F3DB684600892869C043000673D512
:103E0000564E7D243069E40000903069C00300D52F
:103E1000641E4020A86268468381818901800088F1
:103E20000028684670D00088002808D068460088BE
:103E3000C007C00F03D06A469189491E9181694627
:103E40000988401C491C88420BDA69468A89521E3F
:103E50008A818A89521E8A810988801C491C88426D
:103E6000F3DB684680894020A861684683818189A8
:103E7000018000880028684661D00088002808D0AA
:103E800068460088C007C00F03D06A469189491E62
:103E9000918169460988401C491C88420DDA6946AF
:103EA0008A89521E8A818A89521E8A810988801CC9
:103EB000491C00E02CE08842F1DB684680892869D3
:103EC000C043000602D40024E44301E0002C9CD14E
:103ED0008020A8620020FDF76FFE8020A8610020EE
:103EE000FDF76AFE02E0FFE70024E443FEF7F4FA80
:103EF000002F04D017490868012210430860641C91
:103F000003D0012005B0F0BD0EE0002005B0F0BDEB
:103F10000089002800D16DE769460889401E0881A4
:103F200008890028F8D165E78089002899D069467A
:103F30008889401E888188890028F8D191E7808986
:103F40000028BAD069468889401E8881888900285F
:103F5000F8D1B2E7005400400004005000E000E057
:103F6000154882B0426B01210A434263416BC90785
:103F7000C90F0091826B01040A438263806B084081
:103F80000E490090086A20223023984310430862AB
:103F9000FEF778FEFEF7A6F9FEF710F9FEF79CFA99
:103FA000FEF7FAFAFEF7C0FBFEF74CFBFDF7E8F967
:103FB000FDF75EFEFCE7000000100240000001403B
:103FC000F0B51FB496B084460C460246199D189869
:103FD0000390490068006300490840080193002AE3
:103FE00001D0012600E000269E19FE4BF6185B105A
:103FF0009E422BD36E00039F0296002F00D0012714
:10400000F719F84EF84BBE199E421FD3039E034684
:10401000F64F334309D03B469C4201D1002A04D0DD
:10402000019B002A05D0012604E0002039461BB080
:10403000F0BD00269E19EE4B9E4207D8039F029EBC
:10404000002F00D00127F6199E4207D92B46604663
:104050002146189AFFF7D6F81BB0F0BD0023002CBC
:1040600029DAE44EB04226DAE34EB04201DB022305
:1040700021E0DE4EB0421EDBE04E070DBE19142ECD
:1040800009DD3427BF1B039EFE400196BE40039FFF
:10409000BE420BD00FE0039F002F0CD11427BF1B93
:1040A0000646FE400196BE40864204D1019BDE07D3
:1040B000F60F02239B1B0E46164318D1002D16DA6D
:1040C000002C03D0022B01D0012B06D00220FFF7D9
:1040D000C9F8FFF78DF81BB0F0BD0220FFF7C2F85A
:1040E000FFF786F80122D20751401BB0F0BD039EB6
:1040F000002E61D1BF4EB04220D1C148844201D1CF
:10410000002A08D0B948814209DB002D10DB18983D
:1041100029461BB0F0BD0020B4491BB0F0BD002DF6
:1041200006DA01222946D207189851401BB0F0BD8B
:10413000B4497944086849681BB0F0BDAB4FB84238
:1041400025D1002D1FDA002904D0B14212D1002A56
:1041500009D018E0002A72D1A649E20F0020D20748
:1041600011431BB0F0BD0020E20F0146D2071143FE
:104170001BB0F0BDB14206DA234600203946FCF7F9
:10418000CDF91BB0F0BD104621461BB0F0BDB142C9
:1041900012DA0126B607B54203D123461046194666
:1041A000FEE3994EB54207D1261E05DB1046314687
:1041B00000F04EFC1BB0F0BD67007F081646002AD9
:1041C00040D100290AD08B4A914229D1002C0EDD22
:1041D000002D1CDB002011461BB0F0BD022B16D0B9
:1041E000002C14D0012B12D1002C14DB0FE0002C7A
:1041F00028DA002D09DB012B03D000207D491BB0FC
:10420000F0BD002081491BB0F0BD012B03D0002080
:1042100001461BB0F0BD00200121C9071BB0F0BD55
:10422000724A91420ED1002C01DA002B17D0022BDA
:1042300006D00020C043FCF785FB1BB0F0BD90E228
:104240000120F8E7E217521C94461A4307D00022D7
:104250000892664C62465B1E1A4307D009E00120B3
:10426000FFF700F8FEF7D2FF1BB0F0BD0022644C50
:104270000892674A90427DDD664B674A98421FDD8F
:10428000914202DC002D05DB4DE05848814217DBEE
:10429000002D48DD0220FEF7E5FFFEF7BFFF0546D3
:1042A0000E460022534B21460898FCF7CFF80846EB
:1042B00071004908C00FC007014328461BB0F0BD7C
:1042C000914215DA002D2EDA0220FEF7CBFFFEF721
:1042D000A5FF05460E460022464B21460898FCF7EE
:1042E000B5F872005208C80FC0070243114617E024
:1042F0003E4B994223DD002D15DD0220FEF7B2FF73
:10430000FEF78CFF05460E4600223A4B21460898E0
:10431000FCF79CF8084671004908C00FC00701432C
:1043200028461BB0F0BD0220FEF79CFFFEF780FF81
:1043300049004908E20FD20711431BB0F0BD00222B
:1043400030463946FCF774F8012205460E46D24342
:10435000FCF75CF9314A324BFCF770F82A463346D9
:10436000FCF774F80022284BFCF768F807462A4649
:10437000334600E064E0039110461946FCF766F806
:104380003A46039BFCF762F807460322099152075D
:10439000244B28463146FCF759F807910C90224AE5
:1043A000204B38460999FCF751F8074601911F4AFE
:1043B0001F4B28463146FCF749F83A46019BFCF76B
:1043C00037F807460B460246099107990C98FBF708
:1043D0008BFF00250E462846079B0C9AFCF728F811
:1043E0003A4627E0FFFF1F00FFFF0F000000F03FED
:1043F0000000E0FF0000F07F0000404301FCFFFFF1
:104400000000F0BF3A0A00000000E03F0000F0FFAB
:104410000000E0410000F043FFFFEF3F55555555C8
:104420005555D53F4715F73FFE822B6544DF5DF8B4
:104430000BAE543E099BFCF701F802460B4652E1D5
:10444000012500202D05A94207DA352230463946DC
:10445000FCF7DCF806463420C0430A151218FE4863
:10446000101803900803FD49000B01430F46FC4957
:10447000884201DC002003E0FA49884202DA012088
:10448000119005E0002011900398401C7F1B0390C1
:1044900011980597C200F4480F9278448018436839
:1044A0000268394630460D930292FBF7C1FF07912F
:1044B0000C9030460D9B029A0599FBF715FF0246BA
:1044C0000B460020E549FCF729F809910490079B69
:1044D0000C9AFBF7BBFF129000201090E3480D46AA
:1044E000784400680E90012178104907084311991B
:1044F0000D9B890440180121C90447183946029AC6
:104500000E98FBF795FF3246059BFBF797FF024697
:104510000B4629461098FBF799FF064602913B4649
:1045200029460E9A1098FBF791FF079B0C9AFBF710
:1045300085FF3246029BFBF77BFF099B049AFBF742
:1045400085FF0591129A0A902B4610461946FBF7F3
:104550007DFF06460246C6480F460B4606217844B4
:10456000FEF7F0FD32463B46009104901046194696
:10457000FBF76CFF009B049AFBF768FF06460F46AB
:104580002B461946129A1098FBF7AEFE059B0A9A25
:10459000FBF75CFF32463B46FBF7A6FE109A0791FD
:1045A00004902B4610461946FBF750FFB14E0022EF
:1045B000334609910290FBF797FE079B049AFBF79D
:1045C00093FE00200746024633460091FBF730FF7A
:1045D000099B029AFBF72CFF079B049AFBF72EFF1F
:1045E00006460D913A462946009B1098FBF72EFF90
:1045F00007910C902B463046129A0D99FBF726FF37
:1046000005460E463A46009B05990A98FBF71EFFA1
:1046100033462A46FBF768FE02460B4607460991D9
:1046200007990C98FBF760FE00250E462846079B6D
:104630000C9AFBF7FDFE3A46099BFBF7FFFE074687
:104640000722099152078C4B31462846FBF7FEFEA4
:1046500007910090894A884B38460999FBF7F6FE86
:1046600007460191864A874B31462846FBF7EEFE06
:104670003A46019BFBF738FE834B7B440F9A9B180D
:104680001A685B68FBF730FE029009910398FCF70B
:1046900059F905910490099B029A07990098FBF734
:1046A00023FE7A4B7B440F9A9B181A685B68174667
:1046B0000393FBF719FE059B049AFBF715FE0E46C4
:1046C0002846059B049AFBF7B3FE3A46039BFBF78B
:1046D000AFFE079B009AFBF7ABFE099B029AFBF724
:1046E000ADFE02460B46199900200C900F46189813
:1046F000FBF7ACFE029104903B460C9A199918986E
:10470000FBF796FE2A463346FBF7A0FE029B049A6F
:10471000FBF7EAFD09910E902A46334639460C987C
:10472000FBF794FE06460F46099B0E9AFBF7DCFD4D
:10473000574A0D46914220DB5242AA18024310D13B
:1047400032463B46FBF774FE04900391514A524BAC
:1047500009990E98FBF7C8FD039B049AFCF726F90C
:104760001ED20220FEF77EFDFEF758FD49004908E3
:10477000E20FD20711431BB0F0BD6A00474B52084D
:104780009A420DD3464AAA18024300D0CBE53246DE
:104790003B46FBF74DFE099B0E9AFCF707F9F5D94E
:1047A0006800002340082C490393020D3D4B52182A
:1047B000984223DD01200005521CD04042195000D0
:1047C000400D401838497944096813468C463749EA
:1047D000C1408B4312030121120B09055118142209
:1047E000101AC1400391002D01DA4842039062463D
:1047F00030463946FBF71CFE06460F4632463B461E
:1048000009990E98FBF770FD00252A46284B28468B
:104810000591FBF71BFE07910C90264A264B284674
:104820000599FBF713FE0091029032463B4628465D
:104830000599FBF7FDFD099B0E9AFBF7FFFD1F4A4B
:104840001F4BFBF703FE009B029AFBF74DFD07464B
:104850000B460246099135E001FCFFFF0000F03FE6
:104860008E9803007AB60B004A0600008C06000002
:10487000B60500000000084009C7EE3FFD033ADC22
:10488000F5015B14E02F3EBE8A04000050040000D6
:1048900000009040FE822B654715973C00CC90406D
:1048A00000346F3F0000E03FA6030000FFFF0F0051
:1048B000432EE63F396CA80C615C20BEEF39FAFE4E
:1048C000422EE63F07990C98FBF70EFD05460E4673
:1048D000079B0C9AFBF7ACFD3A46099BFBF7AEFD34
:1048E00009912A4633460E9010461946FBF7AEFD55
:1048F000074602462F480B46059105217844FEF7EE
:1049000021FC3A46059BFBF7A1FD2A463346FBF7FF
:1049100095FD0746019128463146099B0E9AFBF703
:1049200095FD099B0E9AFBF7DFFC012304910C9087
:1049300000229B0738460199FBF77AFD05910E90FE
:104940003A4628463146019BFBF780FD059B0E9AAF
:10495000FBF7E4FD049B0C9AFBF76AFD2A463346FD
:10496000FBF766FD0022144BFBF768FD0646039833
:104970000D46000541190915002912DC304629466B
:10498000039AFBF743FEFEF7C7FB042801D1FEF7AD
:104990004FFC30462946039AFBF738FE064601E0F5
:1049A00004E029180B46324621460898FBF74EFDD5
:1049B0001BB0F0BD480200000000F03FF8B504460F
:1049C0001E480F460068FBF775FE05460E466078E8
:1049D00021780002084340BAFBF740FE0022184B42
:1049E000FBF79CFD0022174BFBF730FD0022164B16
:1049F000FBF77AFC2A463346FBF776FCFBF76EFEA4
:104A000078600E484068FBF755FE05460E46207953
:104A1000E1780002084340BAFBF720FE0022084B71
:104A2000FBF77CFD0022094BFBF710FD2A463346BD
:104A3000FBF75AFCFBF752FE3860F8BD100000206F
:104A4000E0FFEF4000E06540008046C000005940B4
:104A5000F8B506460C46FBF7CFFF051E0F4600D003
:104A60000120014349000B484908411AC90F0DD0E4
:104A7000002E01D0012100E000210C436100490813
:104A8000401AC00F02D10120FEF7ECFB2846394640
:104A9000F8BD00000000F07F0000000004000400EA
:104AA00000080000000800000000000000000102F3
:104AB000030406070809030406080C101820300038
:104AC00000000001020304496E6974004C6F6F70AE
:104AD0000000000004010A14000046756C6C496E69
:104AE0006974000000000000000000000000F03FBA
:104AF000000000000000F83F00000000000000007F
:104B00000000004003B8E23F000000000000000089
:104B100006D0CF43EBFD4C3E033333333333E33F17
:104B2000FFAB6FDBB66DDB3F4D268F515555D53F43
:104B300001411DA96074D13F65DBC9934A86CD3F11
:104B4000EF4E454A287ECA3F3E5555555555C53FFF
:104B500093BDBE166CC166BF2CDE25AF6A56113FF1
:104B6000F16BD2C541BDBBBED0A4BE726937663EF3
:104B70000000000000000000984B0008000000202A
:104B80001C00000044320008B44B00081C00002048
:104B90000C05000054320008000020000000000056
:104BA0000000000000000000000000000000000005
:044BB0000000000001
:04000005080000C12E
:00000001FF
