:020000040800F2
:1000000048050020D5000008C94D000871150008FA
:1000100000000000000000000000000000000000E0
:10002000000000000000000000000000295000084F
:100030000000000000000000CB4D00082B5100081C
:10004000E7000008E7000008E7000008E7000008F4
:10005000E7000008E7000008E7000008E7000008E4
:1000600000000000E7000008E7000008E7000008C3
:10007000E7000008E700000800000000E7000008B3
:1000800000000000E7000008000000000000000081
:10009000E700000800000000E7000008E700000893
:1000A000E7000008E7000008E7000008E700000894
:1000B000E7000008E7000008000000000000000062
:1000C0000348854600F02AFA004800479D5600087C
:1000D000480500200448804704480047FEE7FEE743
:1000E000FEE7FEE7FEE7FEE72D510008C10000082D
:1000F00030B50B46014600202022012409E00D46C0
:10010000D5409D4205D31D469540491B2546954047
:1001100040191546521E002DF1DC30BDF0B51FB45C
:100120000646002082B005464024019100901BE065
:10013000019922460F46304600F012FA049A059BB8
:10014000801A994110D310461946224600F0F8F95A
:10015000361A8F410197224601200021009F00F0AE
:10016000EFF938184D4100902046641E0028DFDC6E
:10017000019B00982946324607B0F0BDF0B507460E
:100180000846584087B0C00F049048000E465900FA
:1001900040084908BC1A884105D2384631461E46F7
:1001A00017460B4602465800400810434CD0300D0D
:1001B000039040055900400D490D0590401A0290EA
:1001C000402872DA18030121000B09050843019049
:1001D00004980092002805D00199524200208841DD
:1001E00000920190029840210A1A0199009800F0AB
:1001F000A7F905460C466B4607CB00F0C2F9C019BB
:100200007141039A0E0D0023D71756401A467A40C3
:10021000164344D0049A002A2DD0029A012A039A48
:1002200015DC1205C01A914101263605001C7141EA
:10023000D20F059ED2070093019202962A462346CA
:1002400000F0BFF907B0F0BD38463146FAE71605B1
:10025000224A0F46B218C01AB74101210905001CF5
:100260004F4100187F41114618187941E20F1043A1
:100270006D19644113E0E2076D0815436408C20775
:100280001443039A01261205C01A91413605001C39
:100290007141CE07400830434908C01851412A46F1
:1002A000234600F081F9CDE7FFE7049801224000E2
:1002B000C117121A00238B4104983146C417381A0B
:1002C000A141EEE730B40124E407634030BC55E7B8
:1002D00030B40124E407614030BC4FE70000E0FF88
:1002E000F0B51FB488B00B990998002448400999CB
:1002F000C00F490049080991C0070B9900904900B7
:1003000049080B9109990898A64608431CD00B99F7
:100310000A98084318D0099801244000420D48006B
:10032000410D099824050003000B204309900B9808
:100330000003000B20430B9050181C49401800226A
:1003400001901446104605E0002001460DB0F0BDB6
:10035000032801DA034600E003239C46C11A0AAED3
:100360000AE05F0008ADED5B4F00F75B7D430027BF
:10037000AA187C41491C5B1E6145F2DD410004ABBB
:100380005A522104120C0A43240C401C0828DFDBBB
:10039000019802900099704601910090059B049A83
:1003A0000799069800F00DF9D0E700000DFCFFFF5B
:1003B000F0B50C465C4085B0E40FE40703944C00B4
:1003C00000266408590094464908024602962243D2
:1003D00021D062460A431ED06200570D4A000E0328
:1003E0002303550D012402462C492405781B1B0BC1
:1003F000360B401823432643614600901C46501A92
:10040000B44103D30098401C009002E09218009879
:100410005B41002803DA0020014605B0F0BD002052
:10042000012109050746864611E064461D46141B56
:10043000B54106D36546521BB341744607430C438E
:10044000A646CD0740084908284392185B41054657
:100450000D43EAD11046184313D060461946504068
:100460007140084306D06046101AB34106D20122FB
:10047000002306E000220123DB0702E00122D24331
:100480005310009874460105381C6141029C039D7D
:100490000019694100F088F8BFE70000FD03000083
:1004A00070B54B005B0803430BD04B005C0D00267E
:1004B00033466542B341D417AD1AA34102DB002095
:1004C000014670BD12053018514170BD0EB5C217FE
:1004D000C10F5040CA0740180021054B02930192FA
:1004E00000910A460B4600F06CF803B000BD000016
:1004F0003304000010B5002904DB0124E407404266
:100500008C412146002B04DB1C460123DB075242B1
:10051000A341994200D1904210BD0000064C012534
:10052000064E05E0E36807CC2B430C3C984710349B
:10053000B442F7D3FFF7C8FDBCE70008DCE70008CA
:1005400010B5202A04DB0146203A9140002010BD5E
:10055000914020239C1A0346E3401943904010BD6C
:1005600010B5202A04DB0846203AD040002110BDF7
:100570000B46D340D0402024A21A9140084319468C
:1005800010BD10B5202A06DBCB170846203A1041D3
:10059000C1170B4306E00B461341D0402024A21A9A
:1005A00091400843194610BD10B5002B08DA00240D
:1005B000401C614192185B411A4301D14008400040
:1005C00010BDF0B51FB482B005460C0003D008463C
:1005D00005F07CFE02E005F079FE20300246009036
:1005E00021462846FFF7ACFF049B059A04460F46B8
:1005F00018431143084314D0184610431BD00098E9
:1006000040210A1A18460599FFF7AAFF05460E462B
:10061000009A05990498FFF793FF084305D001203D
:1006200004E02046394607B0F0BD0020C11705435D
:100630000E432C43374300990E986305401A790501
:10064000E40A00220C43FD0A0A3002D500200146CC
:10065000E9E70105101969410C9C0D9D00196941DC
:10066000FFF7A2FFDFE7FEB500231A461B1A8A41F7
:1006700003DB0020014603B0F0BD4A000D03012159
:100680002D0B0905520D0D43D10702D100186D4104
:10069000521E5110FF31FF310131002704463E4602
:1006A0003846009701910246012100200905FFF715
:1006B00057FFC3197141F818324684468E464A41A5
:1006C00061462846611A904104D36046241A954138
:1006D00076461F46241900986D41401C009034282E
:1006E000E1DDF91930467041091BA84103D200220F
:1006F000D243134601E00022134601980105381C3D
:100700007141FFF751FFB6E703460B439B0703D048
:1007100009E008C9121F08C0042AFAD203E00B78C6
:100720000370401C491C521EF9D27047D2B201E03E
:100730000270401C491EFBD270470022F6E710B53C
:1007400013460A4604461946FFF7F0FF204610BD3F
:10075000F8B502464A40D40F42004B0052085B08ED
:100760009A4202D20246084611464A0023D0C30DDF
:100770004A00DDB2120EAD1A202D35DA49020126EB
:10078000490AF6058A19002C00D0524220214F1B3D
:100790001146B9402A411018C20D9A4221D0002CAE
:1007A00017D0012D08DCDA05801AD20F8019D20784
:1007B000DBB200F0ABF9F8BDDA05801A0123400086
:1007C0001B06C01880185A428018CA0F10434900EF
:1007D00007E04908C2071143DA05801A801940086A
:1007E000801800F08BF9F8BD61000122511A001B3E
:1007F000F7E70122D2075140AAE70122D207504071
:10080000A6E7024670B54A40D30FDB0740002DD063
:100810004A002AD0010E140E000212020919400AE1
:10082000520A8418E50104465443000A120A2E04B1
:100830005043A4194219200CC543AA18120C0125D3
:10084000AD03521C521912047F39240400D0521CEB
:10085000104301D44000491EC2B20C06C009201842
:10086000401C4008802A02D003E0002070BD4008F0
:100870004000002900DA0020184370BD70B5024620
:100880004A40D50F40004A00ED07400852080028B2
:1008900014D0002A12D0C40DD30D41020120C0058E
:1008A0005202490A520AE41A091812187D34914278
:1008B00001D3641C00E04900002C01DA002070BD67
:1008C0000023914201D3891A0343400849000028BC
:1008D000F7D100290AD0914202D10121C90705E0D0
:1008E000914201D2012101E00121C943E005C01874
:1008F000401900F003F970BD0122D207002800DB87
:10090000101A002900DB511A814201D801207047DA
:10091000002070470122D207002800DB101A0029AE
:1009200000DB511A814201D201207047002070473C
:100930000122D207002800DB101A002900DB511A1F
:10094000814201D301207047002070470122D20765
:10095000002800DB101A002900DB511A814201D95E
:10096000012070470020704710B5002904DB0C46B9
:100970000121C9074042A141002B04DB1C46012391
:10098000DB075242A341801A994101D3012010BDD7
:10099000002010BD10B5002904DB0C460121C90759
:1009A0004042A141002B04DB1C460123DB075242DD
:1009B000A341101A8B4101D2012010BD002010BDAF
:1009C00010B5002904DB0C460121C9074042A141B2
:1009D000002B04DB1C460123DB075242A341801A93
:1009E000994101D2012010BD002010BDC217C10FD6
:1009F000504010B54018CA079623002100F086F831
:100A000010BD10B500229623114600F07FF810BDEE
:100A10000EB505490291002100910A460B4601914D
:100A2000FFF7CFFD03B000BD33040000C20F41004B
:100A300040020123400ADB05D207090EC0187F29B6
:100A400001DA00207047962903DC9623591AC84022
:100A500001E096398840002AF4D0404270470000F7
:100A60004A0009030123090B1B051943094B10B563
:100A7000520D9A4201DA002010BD064B34339A42DF
:100A800003DC9A1AFFF76CFD10BD0349511888402A
:100A900010BD0000FF030000CDFBFFFFC20FD20717
:100AA000400040080BD0C10D0723DB01C9184002EC
:100AB0000905400A1143C20840071143704700204E
:100AC00001467047CB0FDB07490010B549080246C5
:100AD0000A4307D00A0D07240903E401090B121B7E
:100AE000002A01DC002010BDC900440F0C43C100E6
:100AF000E018D205801800F001F810BD002904DAD2
:100B0000401C490001D140084000704770B40024E7
:100B1000050C05D11024000402D1002921D0112494
:100B2000050E01D100020834050F01D10001241D7A
:100B3000850F01D18000A41C002801DB4000641C4B
:100B4000002908D020252E1B0D46F540A14000D0DD
:100B500001212943084301061B1B000ADB1D02D5A6
:100B6000002070BC7047DB05181880180029F8DADF
:100B7000401C4900F5D170BC40084000704700009F
:100B8000B0B581B01B480168C90731D07D21C900CB
:100B9000026852076A4BBC4A10D404681C40022306
:100BA0002343036013680093009B0368DB0717D09F
:100BB0001368DB03DB175918F7D119E004681C40F0
:100BC00010252543056014680094009C0C460568B8
:100BD000ED06E2D51568ED03ED172C19F7D107E006
:100BE0000146083901220A600168034A0A4002608E
:100BF00001B0B0BD08240140E8FFFF6FF0B587B039
:100C00000026134D009606A9284600F027F8002874
:100C10001AD106AF788804F0AFFB0E49FFF72EFE1D
:100C200004463888FFF7EDFE01462046FFF7E9FD50
:100C30000949FFF723FE01A98851361D142EE2D180
:100C400001A804F051FB00E0009807B0F0BDC046D9
:100C5000020002C400F07F4500007A44F0B583B082
:100C60000246334B1C680120E4074DD0314C224032
:100C70009A62082200921A6004241C6000252E4A01
:100C80002E4E37683F0705D46F1CADB295423D46E6
:100C9000F7D106E0ADB2954203D100224A800A8026
:100CA00032E0019098682040424242417D20C000DD
:100CB0000027DF4ED20704D09A68214D2A402243F4
:100CC0009A6032680292029A02461D686D0705D446
:100CD0003568ED03ED17AA18F7D114E01A6C194D19
:100CE0002A407D004A531C609D6825406A426A4143
:100CF0007F1C022FDED10446002D019806D10098FA
:100D00001860002000E0019803B0F0BD99680C4A1B
:100D1000114010220A439A60316802910299996841
:100D2000C906ECD53168C903C9170C19F7D1EBE72F
:100D300000240140FFFF0700FEFF00000470004098
:100D4000E8FFFF7FFF0F000010B582B04B484178ED
:100D500000291FD04A4CF921E1606168FA2901D3CA
:100D600000216160807800F065F9E068400860600B
:100D700001200002216801432160AD490A68019207
:100D8000019A14220B68DB03DB179A18FAD1216849
:100D90008143216002B010BD10B582B03748417860
:100DA00000291FD0364CF921E1606168FA2901D38E
:100DB00000216160807800F03DF9E06840086060E3
:100DC0000120000221680143216099490A680192CB
:100DD000019A05220B68DB03DB179A18FAD1216808
:100DE0008143216002B010BDB0B582B02348417884
:100DF000002940D0224CF925E5606168FA2901D329
:100E000000216160807800F015F91E48E06060689C
:100E1000C0087D2801D300206060E0684008606061
:100E20000120010220680843206081480268019285
:100E3000019A28220368DB03DB179A18FAD123688A
:100E4000234A13402360E5606368FA2B01D3002333
:100E50006360E3685B08636023680B432360016899
:100E60000091009928210368DB03DB175918FAD198
:100E700020681040206002B0B0BDC0461C000020B9
:100E800020000040E703000010E000E001210E48D0
:100E90000268D20503D40A02036813430360C9043D
:100EA0000A4A13680B43136013688B43136002688C
:100EB00007490A400260ED3106480A58002A01D16C
:100EC000091DFAD17047C046007000405010024022
:100ED000FFFEFFFF64280040F0B585B01E461546B2
:100EE0000746524A1068000731D4514803680393FB
:100EF000039B14230468E403E417E318FAD1106891
:100F0000000724D400960846FFF782FD02460B46F0
:100F10000020324905F0E4FC029505460E46019793
:100F20003F783846FFF774FD2A463346FFF740FA0C
:100F3000FFF796FD0A21FFF7DBF80C4628463146FD
:100F4000FFF78EFD02998C4237D2381840E01368C3
:100F50000020DB063FD40295354B1C680494049CAA
:100F600014241D68ED03ED172C19FAD11268D2066E
:100F700031D40846FFF74CFD02460B4600201749C6
:100F800005F0AEFC054600960E4601973C782046DB
:100F9000FFF73EFD2A463346FFF70AFAFFF760FDEA
:100FA0000A21FFF7A5F80F4628463146FFF758FDFE
:100FB00000998F4207D9201A0AE04443009941431F
:100FC000C819001B04E04743029941430819C01B9C
:100FD00001990870012005B0F0BDC0460000244012
:100FE000B0B581B00120C0030F49104A104B0C6806
:100FF0000442FCD014682407F9D51468E406F6D539
:101000001C680094009C14241D68ED03ED172C1936
:10101000FAD10C680442EAD014682407E7D51468B2
:10102000E406E4D501B0B0BD10000050100400503B
:1010300010E000E0F0B581B00B21FFF759F80C4645
:101040000F4F3868FFF7E4FC00250E4B2A46FFF7E8
:1010500047F90D4B2A46FFF7ABF905460E462046E9
:10106000FFF7D6FC02460B46FFF73AF92A4633460D
:10107000FFF736F9FFF7F4FC386101B0F0BDC04668
:101080002C0000400000E03F0000594070B51D46B4
:10109000144600F001FA242004F08AF96C4320047D
:1010A00009D0049D0026284604F0AEF9A0B2761CB3
:1010B000B1B28142F7D32520C2000020102301469F
:1010C00000F0EAF970BD000070B52520C4000025CD
:1010D000102328462946224600F0DEF9242004F099
:1010E00067F9074EFF2004F08FF9681CB5420546EA
:1010F000F8D3002010230146224600F0CDF970BD40
:101100007F120000F0B587B007240B4605942340FA
:101110005B1CDB0804935B1C0191C908029200F080
:10112000BBF900273A4603920225019839460C463E
:1011300006A90F700599084039468022C240114324
:101140006D1E2A0603D0401C0828F6D100E03D465B
:10115000C84306AE3070242004F02AF9012130463D
:1011600004F07EF9611CE0B2049A90423846DED366
:10117000039A521C90B202998842D4D307B0F0BDB2
:10118000F0B581B01446127863789A18A378DD0818
:101190002B4600F081F966782778242004F008F9BE
:1011A000F1196943E01C04F05BF901B0F0BDF0B542
:1011B0008DB00A92069105901878002800D1E8E0D9
:1011C0001C46139E129F391D0791F11D03910025A6
:1011D00008960497010615D40B95002F25D0397871
:1011E000401A7A78B97813464B43DE087043079D5E
:1011F000281809908019FB787343EB18984250D94E
:101200000B9D5EE0002E00D1BEE00CA900220A700A
:101210001146034693401B0632D5521C491C052A31
:10122000F7D10CA805210170AAE0002E4ED020288D
:101230004CD105980B99081880B2B178727856088D
:10124000CF08069932463B4600F026F97E430ED081
:1012500000250CAFFF203870242004F0A9F80121EC
:10126000384604F0FDF86D1CE8B28642F1D80B98C0
:101270000A994018089E717849084518049F83E030
:101280000CAA11707F220A40042A21D0032A32D0EE
:10129000022A75D16178002972D0641CC006420D03
:1012A00035E005980B9D281880B2CB08069900F010
:1012B000F3F8242004F07CF80998314604F0D0F8C3
:1012C0007A780A9828188518089E5DE00B9D5BE0E7
:1012D0006278002A54D0A378002B51D0E1780029FD
:1012E0004ED0E41C4007C00A9206920B10189A06D2
:1012F000120D82180BE06278002A41D0A1780029F3
:101300003ED0A41C0007000C9206120D12183F20BC
:101310000840104334D0F178002931D00B95737810
:10132000B278019300925343DA080292D21C0992D8
:101330000223DB43039EF55C2D04F21857783F022D
:101340007D199278AA18824207D0099AB618491EC8
:10135000F1D1089E049F0B9D12E005980B9D281863
:1013600080B20099CB080699019A00F095F82420E4
:1013700004F01EF83046029904F072F8089E049FAB
:101380000A982818717845186078641C002800D0E5
:1013900020E70DB0F0BD80B5222004F009F803204D
:1013A00004F032F8202004F003F800F0BDF810201B
:1013B00003F0FEFF012004F027F880BDB0B582B035
:1013C0000446304910220A612F4803680093009BAD
:1013D00001230568ED03ED17EB18FAD10A600168E7
:1013E0000191019901210268D203D2175118FAD153
:1013F000012C04D0122003F0DBFF00F095F801254A
:10140000284603F0D5FF272003F0FEFF284603F00F
:10141000FBFF002003F0F8FF0C2003F0C9FFD720EA
:1014200003F0F2FFD62003F0EFFF9D2003F0ECFF66
:10143000112003F0BDFF284603F0E6FF2C2003F047
:10144000B7FF9A2003F0E0FF3A2003F0B1FF1A2023
:1014500003F0DAFF3B2003F0ABFF082003F0D4FFDA
:101460003C2003F0A5FF332003F0CEFF322003F031
:101470009FFF60B2800005A108581E2103F0F0FF15
:1014800002B0B0BD1800005010E000E0CEDB000854
:10149000ECDB0008B0DB0008F0B581B01F4600921D
:1014A0000C460646442003F083FF204603F0ACFFC1
:1014B000E019411E1F20084003F0A6FF452003F05D
:1014C00077FFFF202830851BEEB2304603F09CFFEB
:1014D000E805C70F384603F097FF0098281A451C07
:1014E000E8B203F091FFE805C00F03F08DFF4E2036
:1014F00003F05EFF204603F087FF4F2003F058FF04
:10150000304603F081FF384603F07EFF01B0F0BDA6
:1015100080B5222003F04CFFC62003F075FF202089
:1015200003F046FF80BD000082B001A80A210180BF
:1015300001880088002906D0401E01A908800A8879
:101540000888002AF8D1814801680091009906496D
:10155000064A1368DB0705D00368DB03DB17C918ED
:101560000B04F6D102B070471027000010040050A1
:10157000BFF34F8F034804490160BFF34F8F00BF93
:10158000FDE7C0460CED00E00400FA0580B582B02E
:101590006E480168019101997D21CA006C490B6870
:1015A0005B0708D40368DB03DB179A18F7D103F055
:1015B00081FF002000E0C868C0B202B080BDC04614
:1015C000F0B583B001917D23DD00504B5C692404AC
:1015D0005E4E14D4009201221146D7021C68BC430F
:1015E0001C60324A541C1F6827403818186018685D
:1015F000019F002F15D02A461832104312E034689C
:101600000294029C2C465F69FF07E3D13768FF0311
:10161000FF173C19F7D103F04DFF002841D10124F9
:1016200040E0104018600C4608061A6882431A60B1
:10163000FF2000041A688243009800041018186004
:1016400048061A6882431A6048031A6802431A60FF
:10165000306802900298002F18D0002D1DD05869D4
:10166000400718D43068C003C01745195869C00630
:10167000F3D59869102101439961032412E0306881
:10168000C003C01745195869C006F2D4002D04D014
:101690005869C007F3D0002404E003F00BFF0028D2
:1016A00000D00224204603B0F0BDC046FFFBFFFF80
:1016B00010B582B025480168019101997D21C900CA
:1016C000124A0B465469E40705D10468E403E417A1
:1016D000E318F7D10FE001239B0314681C43146047
:1016E00003680193019B53691B040CD50368DB035A
:1016F000DB175918F7D103F0DDFE002801D00220D6
:1017000002E0012000E0002002B010BD04540040BF
:1017100010B582B00D490A680192019A7D22D3006A
:101720000B4A1468E4070AD10C68E403E417E318D1
:10173000F7D103F0BFFE002804D0022003E01061BF
:10174000002000E0012002B010BDC04610E000E023
:1017500018540040F0B584B00C68002C55D001231B
:10176000019303915A1E019F9740274048D04A6831
:10177000551E022D02943D4615D27D4303998C6877
:101780006C4303266E438168B14321438160039912
:10179000C9680092029A514344689443009A0C43EA
:1017A0004460039902E07D4303266E43F6430969D2
:1017B0006943C46834400C43C460022A029C19D1B6
:1017C0003C0A01D0242200E0202203994F690292B2
:1017D0008258002C02D06443644301E02C466C43E1
:1017E0000F2161438A436743174302994750039986
:1017F0000C684A68554301683140294301600399E8
:101800002246DA405B1C002AACD104B0F0BD0000D7
:10181000F0B587B072B62B4F786A00902A4CA0685A
:101820000290E06801906569A6692848411C3A6801
:101830000A433A6039680140396003A800F04AF869
:101840003046284333D003208004796A204A11406F
:101850007962002D0FD0216901220A43226165615E
:10186000039923680822491E01D01340F9D0636808
:10187000134363600391009D0540002E12D0206940
:10188000012101432161A66103A800F023F8039818
:1018900022681021401E01D00A40F9D062680A4334
:1018A00062600390786A0A49084028437862206998
:1018B0000121884320610298A0600198E06062B62F
:1018C00007B0F0BD28100240007C0040FFFFFF7F02
:1018D000FFFFF3FFB0B5044603F0A0FA20608C4987
:1018E0000A681206120F094B9A5CD04060600A68C1
:1018F0005205520F064B9A5C0546D540A560096813
:101900008904490F595CC840E060B0BD66DD00083D
:1019100076DD0008F0B581B072B601242102754D64
:101920006A688A436A6029680427394329607A4AC9
:1019300020211160704B1A68A2431A605C616F4AE3
:10194000116003F069FE6002296801432960A10269
:101950002A688A432A60E1036D4A13680B431360C7
:101960002968214329600221CA432B6813402B6058
:10197000684B1E683E431E6030BF2B6883432B605C
:101980006003654B1860654B5D6815405D601A68C3
:101990000A431A606107584A516158490860FFF7C5
:1019A00037FF62B601B0F0BD70B572B651484168FC
:1019B000144A11404160036804210B43036003682B
:1019C00008241C43046001231C024568254345602C
:1019D0009C040D4D2E68A6432E602C689C432C6001
:1019E0002C6814402C605A02036813430360026899
:1019F000022313430360474802680A43026030BF72
:101A000070BDC046FFFEFFFF50100240F0B585B02C
:101A100072B601242002374E7168814371603068CC
:101A20000421039108433060E1430491324A106875
:101A30000840106054613148202707601068204337
:101A400010602F480760FF2000022E490A68824379
:101A50000A602D4803F0E0FD3068019030682B49A2
:101A60000840210340183060610202913068084349
:101A70003060A002336883433360E003244B1A686C
:101A800002431A603068204330600223D843326832
:101A9000024032601F4A1168039D294311600321EF
:101AA000C902019A114030BF3268184D2A405118BE
:101AB000316019490F60104D2A6804990A402A6064
:101AC0006C610E4A1760326802998A433260620381
:101AD00011490A6011494E6806404E600868184373
:101AE00008606007686105480260FFF791FE62B612
:101AF00005B0F0BD007000400004014080E200E04D
:101B000000E100E004E400E010270000FFE7FFFF31
:101B10000C10024010ED00E080E100E0047C004089
:101B2000B1B014AF01201290000211902348007848
:101B3000411E234E234C022900D340E1FFF7A6F9B2
:101B40000F2003F013FA204940B2002803D408788C
:101B5000AA2800D1CAE10E9703F038F90121CD037C
:101B60001A4800681A4F002800D097E119A00026F3
:101B70000C91314600F0F0FDFFF732FA33460F9634
:101B80000D960C9E30460E4E316829420CD13968B4
:101B90001491149914213A68D203D2175118FAD12A
:101BA0003168294200D18DE0D9B2032900D985E0FE
:101BB0007944097949008F44173C61711100002074
:101BC00010000050100400501C000020FC07080802
:101BD00010E000E0E7A1ACE4BBB6E78988E69CAC86
:101BE000E8AEBEE7BDAE0000216809070BD4396836
:101BF0001491149914213A68D203D2175118FAD1CA
:101C00002168090764D52168C90657D43968149139
:101C1000149914213A68D203D2175118FAD12168C5
:101C2000C9064BD40D9AD0B200280C9E60D10D90FD
:101C300060E0216809070BD43968149114991421C4
:101C40003A68D203D2175118FAD12168090747D54B
:101C50002168C90632D439681491149914213A685C
:101C6000D203D2175118FAD12168C90626D40F9A87
:101C7000D0B200280C9E40D10F9040E021680907A7
:101C80001CD439681491149914213A68D203D217DC
:101C90005118FAD12168090710D4C7E02168090753
:101CA0000CD439681491149914213A68D203D217CC
:101CB0005118FAD12168090700D4EDE00026002868
:101CC0001FD15FE7D8B203280C9E13D25B1C12E031
:101CD0000D99C8B2092801D2491C0D910C9E09E04A
:101CE0000F99C8B2092801D2491C0F910C9E06E039
:101CF000521E0D920023012003E0521E0F9201207C
:101D000003462168C90713933DD110960F98C0B2BE
:101D100000900D98C3B2DF481199DFA204F0BAFA1F
:101D2000E3480090E3480190042100263046324603
:101D3000D84BFFF73CFADE480090DE4801900821BE
:101D400030463246DCA3FFF732FAD9480090D94832
:101D500001900C2130463246E0A3FFF728FAFF201D
:101D600000908420072124220123FFF78FF9139A82
:101D7000D0B2811E02290AD301280AD00028304699
:101D80000DD1842006E0002E064612D1FAE6501E40
:101D900005E09C200721D64AFFF7F2F93046C0B291
:101DA00000F0C0FDFFF7B4FB10980028139B00D192
:101DB000E8E6FEF7C9FFFFF713F9139BE2E60328F5
:101DC00000D093E00F2003F0D1F880071FD42068E3
:101DD00000070CD4C74801681491149914210268B3
:101DE000D203D2175118FAD12068000719D52068FC
:101DF000C00616D4BF4801681491149914210268D2
:101E0000D203D2175118FAD12068C00609D40F2581
:101E1000284603F0ABF8FD210140284603F0C3F843
:101E200064E002F0D3FF00F0D3FD5FE03868149067
:101E30000D98C0B20F99C9B209044018AE494218B2
:101E400014987D20C100AD480B464469E40705D0D5
:101E50003C68E403E417E318F7D11DE00368DB07EF
:101E600003D0A74B8360A74B8360A74B1A603A68E7
:101E70001492149A4269D20705D03A68D203D21755
:101E80005118F7D108E0016801220A430260006896
:101E9000C00701D09C480068FEF7A6FF9BA0022166
:101EA00000F05AFCFFF79CF8002004219B4AFFF742
:101EB00067F9FFF72DFBFFF7A9FD30682842FCD139
:101EC00038681490149814203968C903C917081881
:101ED000FAD130682842F0D1FEF786FF02F056FCB6
:101EE000AA208F49087003F0A1F80E9F63370E9760
:101EF00002F06CFF8B4802F0D1FF002420460B302B
:101F0000C5B2284603F032F8014680263143284600
:101F100003F049F8641C032CF0D10E24204603F092
:101F200025F80146022013900143204603F03BF8B8
:101F30000F27384603F01AF80146FD200D900140A6
:101F4000384603F030F8204603F010F80146FE252D
:101F50002940204603F027F8384603F007F80540EB
:101F60003846294603F01FF8204602F0FFFF0146DD
:101F700004200C9001430B94204603F014F86A48A7
:101F800003F0FCF81398FFF719FAFFF79DF867487C
:101F900004682046FEF782FD07460D46644A654BFD
:101FA000FEF7F8FC002807D1634A644B38462946FF
:101FB000FEF7DAFC002802D1FEF720FE044658485E
:101FC00080682146FEF798FC1299CF020C038D071A
:101FD0005B49002810940F9500D0BFE00E460A2000
:101FE00002F0C4FFAA280ED00020564A0146FFF78F
:101FF000C7F8FFF78DFAFFF709FDFFF7CCF90A20C4
:10200000AA2102F0D0FF0E25284602F0AFFF0146BC
:102010000D9C2140284602F0C6FF0F25284602F0FD
:10202000A5FF04402846214602F0BDFF3246306835
:102030004006454C119E03D510684021884310602E
:102040001020A0610820A0614020A0613F4D0C98A5
:10205000A860FEF795FD0F9A106A3D49084010628E
:1020600011680120814311603A4A1168C90702D002
:102070001168814311602020A8611098A061A760B9
:10208000354DA6613220FFF745FCA6602846FFF7D4
:1020900041FCF6E734000020E7A1ACE4BBB6E789D9
:1020A00088E69CACEFBC9A5625642E25640000009F
:1020B000D9730008469700085BE6B3A8E6848FEF63
:1020C000BC9AE8AEBEE7BDAEE4BF9DE5AD98E59035
:1020D0008EE4B88DE4BC9AE5868D0000E698BEE7F4
:1020E000A4BAE6ADA4E88F9CE58D955D00000000E4
:1020F000BDBA000810E000E0302E3000042002409D
:10210000EFCDAB8905040302FC070808E6ACA2E8A2
:10211000BF8EE4BDBFE794A800000000CDCD00084D
:102120001C0000203801002014000020502800402E
:102130009A9999999999B93FCDCCCCCCCCCC0C40FB
:10214000003001404ABB000810000050100400504D
:10215000FFFEFFFF00540040881300000A2000210A
:10216000139102F020FF7D200D90EA4B5979481E13
:10217000C0B20B280A970DD81A79501EC0B21E287B
:1021800008D80D9800019B791818E34BC318C82B89
:1021900000D2CFE1E14800210170E1480170E1483F
:1021A0000170E14B186812905F682520C5001C2162
:1021B000139C20462A46FEF7A5FF682120462A46A2
:1021C000FEF7A0FFD52043214C22FEF79BFFCA203B
:1021D0000421022208230C910B93FFF75DF912985A
:1021E000FEF75CFCD14AD24BFDF7C8FFFEF76AFC54
:1021F0000990FEF71BFC0590FEF7F8FB08903846A7
:102200002146FEF787FB05463846FEF747FC0246A7
:102210000B46002D03D1139DF448FD4902E0FD4912
:10222000139DF248FDF7AAFFFEF74CFC0790FEF75E
:10223000FDFB0490FEF7DAFB06902846129007207B
:10224000382729460C4614A90D7029463246C2404B
:1022500011437F1E3A0603D0401C0828F6D100E047
:102260002F46C84314AD2870242003F0A1F80121A3
:102270002846139D03F0F4F8611C072C2846E1D38F
:102280001299481C0029D9D014A8E3497222FEF7FC
:102290003BFA07980699FEF7ACFA07900998089957
:1022A000FEF7A7FA12904B2014A90918FF224A76CC
:1022B0000A7E072632430A768A7EE02313438B7612
:1022C000C01EF1D100270E9A577090781F2101404F
:1022D00091701078F82101401170FE2014AA39463F
:1022E000FEF74EFFBE4DAB79E87869792A79019205
:1022F00000918000C94908180290B648C8A21199F7
:1023000003F0C8FFB44C0194B44800900122384651
:1023100039461392AF4BFEF74AFFC84F079839462C
:10232000FEF76FFAFEF782FB0E9012983946FEF721
:1023300068FAFEF77BFB1290287A002813D0E87920
:10234000002807D0A548009001940020092102220E
:10235000BBA306E0A14800900194002005210222C1
:10236000B8A3FEF724FFAB7868780090994FB64A7F
:102370003846119903F08EFF287A0194B3490091F1
:10238000002801D0222000E01620049D052106220D
:102390003B46FEF70CFF0920C043854202DC8D4816
:1023A000AD4A08E0632D04DC0E9800908948A94AE4
:1023B00001E08848A64A119C21462B4603F06AFF9B
:1023C000059F8648009084480190D520052100256E
:1023D000804B2A46FEF7EBFE632F04DC1298009038
:1023E0007C489F4A01E07B489C4A21463B4603F0DB
:1023F00051FF7A48009078480190D5200921754F07
:102400002A463B46FEF7D3FE7F4800787043954945
:1024100008187C4909787D4A1278019072439248E5
:1024200080180090880091490B18914A384621463F
:1024300003F030FF8F48009501900E2102222846BC
:102440003B46FEF7B4FEFFF763F8FFF7DFFAFEF74F
:10245000D5FB89490A68224202D10A6822430A60F0
:10246000614A10600868644C204008601068FEF7FC
:1024700092FF604A10684006534D0B9B139E03D594
:1024800010684021884310601020A861AB61402093
:10249000A8610C984D4A906055490868C00702D061
:1024A0000868B0430860202090611098A8610A98DD
:1024B000A860FEF765FB0F99086A2040086208686B
:1024C000B0430860F003424C29680142FCD0216807
:1024D0001491149914212268D203D2175118FAD1F9
:1024E00029680142F0D0FFF75FFA20681490149831
:1024F0000D98C0002168C903C9170818FAD1FFF761
:1025000053FABFF34F8F5D485D490160BFF34F8FB2
:1025100000BFFDE73801002030F8FFFF0E0000206B
:10252000100000200C000020140000209A999999B6
:102530009999A93FDC1CA700304DED590C95450237
:102540004F012F4317430C9DBD4200D99C1CA40092
:102550002A4B1F5902F0B8FD05461F223A40F802E7
:10256000000DF905090F02F0AFFD281A401C24499F
:102570000B59D9030A0F0D24129D2946641EA5404C
:102580001D40E540012D01D01D2500E01E2587B22C
:10259000BD4205D2401B491C002C129DEED10B9967
:1025A000184B139C1C70002A08D0CCB2A24205D252
:1025B000521CA24201D101221A70491E094B124A33
:1025C000107012480170EDE510000050100400502A
:1025D00010E000E03400002046970008D97300089E
:1025E0003801002014000020502800409A99999941
:1025F0000054004000300140FFFEFFFFB0E0000843
:1026000080DD00080C0000200E00002010000020DB
:102610009999A93F9999A9BFD8BA0008E3DC0008A5
:1026200032253033642F253032642F253032642038
:10263000E6989FE69C9F2573000000000000204163
:10264000504D0000414D00009DE400083981000814
:10265000FFE4000808E50008F6E40008A6E5000825
:10266000AFE500080ADC00080BDD000803DD000808
:10267000E2E40008CA910008007000400CED00E0A0
:102680000400FA05F0B587B02D49086802242043FC
:102690000860086820400690012705970497039773
:1026A00003260296019440200090069825486D4626
:1026B0002946FFF74FF80597049701A8D0C080205E
:1026C000009020482946FFF745F878051C4AD16854
:1026D0000143D160D16801400691069879061A48F5
:1026E00042680A434260C26818490A40C260FA045C
:1026F0000368934303607A040368934303600268AA
:10270000BA4302601F221202036893430360104A17
:10271000026102683A43026082680A40826082680D
:102720000C4B1A408260320504689443046042688E
:102730000A404260591CC2680A40C26007B0F0BD3E
:102740002C1002400004005000540040FF7FFFFFA7
:102750000B02100000F8FFFFF0B587B00C460590A3
:102760000220FEF72BFE01200490070200250695AB
:102770000394FEF7A9FC00955A4801902846294683
:102780002A46059BFEF713FDA4202946564E3246E5
:10279000FEF7F6FCD42029463246FEF7F1FC381D40
:1027A00029463246FEF7ECFC032C00D984E0C046F3
:1027B0007C4424796400A7440131446100240094DE
:1027C0004A48019098200126314622464E4BFEF79A
:1027D000EEFC009445480190D020314622464C4BF7
:1027E000FEF7E5FC00944148019038463146224608
:1027F000484BFEF7DCFC00943C480190D3200D26AA
:102800003146224644A3FEF7D2FC0094374801909B
:10281000B81C31462246039C414B4BE000240094F7
:10282000324801909820012631462246364BFEF769
:10283000BEFC00942D480190C82031462246334BFF
:1028400011E0002400942948019098200126314687
:1028500022462B4BFEF7ABFC009424480190D0207D
:1028600031462246274BFEF7A2FC00941F480190F8
:10287000384631462246039C224B1BE0002400943C
:102880001A480190982001263146224618A3FEF7E7
:102890008EFC009415480190D0203146224616A3A4
:1028A000FEF785FC009411480190384631462246D7
:1028B000039C12A3FEF77BFC3A46283200201B2122
:1028C000FEF720FC0698002809D1FEF721FEFFF74D
:1028D0009DF8049E3046FEF771FD069649E707B065
:1028E000F0BDC04646970008CCBA0008CA9100085F
:1028F000E8BF9BE585A50000E4B88A00E4B88B003A
:1029000060E60008D4E600084BE6000852E600083E
:1029100047E600082AE60008E4BF9DE5AD98000000
:1029200023E60008F0B583B00546FF260096D320C5
:102930000F214F2201242346FEF7A8FB2402002D7D
:1029400005D0022D1CD0012D20D1DD201AE00096EB
:10295000C8200125212202232946FEF797FB164FA6
:10296000002600960197D020144B29463246FEF7E8
:102970001EFC00960197124B20462946324616E06F
:1029800020460C300F210F4AFEF7FAFB0A4F0025B4
:1029900000950197C82001260B4B31462A46FEF7C9
:1029A00006FC00950197094B204631462A46FEF762
:1029B000FEFB03B0F0BDC046CA91000847E6000820
:1029C0002AE60008BDBA000852E60008D4E600086E
:1029D000F0B59BB0FEF708FA1AA8401C0A90012037
:1029E00001020C91C10313910023F84AF84C119392
:1029F0000B900146109300294CD11068C00612D4E8
:102A000020681590159814202168C903C917081863
:102A1000FAD11068C00606D4109BD8B2002109284C
:102A200043D3109147E01068000711D42068159037
:102A3000159814202168C903C9170818FAD110681D
:102A4000000705D41099080632D0491E109131E0D4
:102A5000E34800680027139908420ED120681590BA
:102A6000159814202168C903C9170818FAD1DC4841
:102A700000681399084200D152E112971199481E3B
:102A80000D468541002900D001231806129916D160
:102A900000238FE00321D3A0FFF75EFEFEF7A0FA2C
:102AA000CD4A01230027394693E05B1C109302E0D6
:102AB00009201090002101230B9D11930F461068EF
:102AC000C00777D10E9512910D97FF200090002737
:102AD000042118220C233846FEF7D8FAC44DC54805
:102AE0002860C5480090C54801900324109E3046D8
:102AF00020406043011D38463A462B46FEF757FBFF
:102B00000094F4B2A008431C28460C99BC4A03F078
:102B1000C1FBB94806460090B8480190EC200D2151
:102B20000F973A462B46FEF742FB032C56D8B04F80
:102B30003846B4493CC93CC0097801700096AF489A
:102B4000019019240421002520462A463B46FEF721
:102B50002EFBAD483946CCC8CCC102880A808078AB
:102B60008870A5480090A5480190072120462A4674
:102B70009F4E3346FEF71BFB3046A449CCC9CCC060
:102B80000A880280897881709B4E00969B4F01973E
:102B90000A2120462A46964C2346FEF708FB9C480D
:102BA00021463CC83CC102880A80807888708B4CE2
:102BB000304658E0002D0CD03E461F460D46FEF72D
:102BC000C3F8FEF70DFA29463B463746824A0020F5
:102BD0001190002F00D10EE701F098FD072C54D87A
:102BE000834E30468B490CC90CC01CC91CC082489E
:102BF0000090824F019719240421002520462A467F
:102C00003346FEF7D4FA304683490CC90CC04CC990
:102C10004CC0097801707848009001970721204640
:102C20002A46734E3346FEF7C2FA30467B490CC93A
:102C30000CC04CC94CC0097801706F4F00976F4EA3
:102C400001960A2120462A46694C2346FEF7AFFA30
:102C5000204673493CC93CC00A880280897881704B
:102C6000384637465D4C0E9D0090019719200D2186
:102C700000225F4BFEF79BFAFEF74AFC002D564AF6
:102C80000F9B0D9F129997D1A3E70B2C534C0E9DD0
:102C9000F2D8574E304663490CC90CC01CC91CC041
:102CA0000978017054480090544801901924042177
:102CB000002520462A463346FEF779FA30465A491F
:102CC000CCC9CCC00A880280897881704A480090BB
:102CD0004A480190072120462A46454E3346FEF7D2
:102CE00066FA304651494CC94CC00A88028089783E
:102CF0008170414E0096414F01970A2120462A4695
:102D00000E9D3B4C2346FEF752FA204647491CC90C
:102D10001CC0324C0A880280897881703046A3E753
:102D20000F93FEF761F81098C0B2012112910928A3
:102D300001D901F0E3FC40007844808840008744DA
:102D4000090010001700A50143040B071808190912
:102D500091092E0A002301271297119310931E4AFE
:102D60008CE601F013FD01201090129001F0C6FCDA
:102D70000027F8483946FFF7EFFCFEF731F9F7482E
:102D8000817808914078079001201290124A1448E7
:102D9000006813990842114B0ED1186815901598C8
:102DA00014201968C903C9170818FAD10C4800681B
:102DB0001399084200D1A5E0F8B20025032800D9F4
:102DC000C2E004A1085C40008744C04610040050E3
:102DD00010E000E0325C73861004005010E000E068
:102DE00010000050E4B8BBE88F9CE58D9500000012
:102DF00034000020E296B600D97300084697000818
:102E0000CBE60008E8E6000824E7000810E7000821
:102E1000FCE6000860E7000874E700088CE700089B
:102E200038E70008A4E700084CE70008D8E60008E7
:102E3000106800070BD418681590159814201968AD
:102E4000C903C9170818FAD11068000710D510680F
:102E5000C00679D418681590159814201968C9030C
:102E6000C9170818FAD11068C00612982C466DD4FC
:102E7000BA4B5878414241415970002701200B9DBF
:102E80003C466DE01068000742D41868159015980C
:102E900014201968C903C9170818FAD11068000767
:102EA00036D4AE4B997800240120092949D8491C11
:102EB00046E01068000747D418681590159814204C
:102EC0001968C903C9170818FAD1106800071298C1
:102ED0002C463BD401F016FC106800073AD4186861
:102EE0001590159814201968C903C9170818FAD144
:102EF0001068082101404C424C410007C01712994C
:102F0000084023E0F8B20024032826D3274625E012
:102F10001068C00618D41868159015981420196800
:102F2000C903C9170818FAD11068C00612982C46B0
:102F30000CD48A4B997800240120022901D3491E20
:102F400099700B9D07460BE012982C4601061295CE
:102F500006D174E000241298F8E77F1C01200B9D35
:102F60001168C90754D109940E9510977C4D0095AE
:102F70007C4C0194042700203946129002467A4B7B
:102F8000FEF715F9754E7078009501940028774B7F
:102F900000D0774BC0203946129D2A46FEF707F92C
:102FA000B3780A200090734C20460C99724A03F0C3
:102FB00071F96B4800906B4801900D9708272846DF
:102FC00039462A462346FEF7F2F8FF250095F02001
:102FD000182403260D9922463346FEF757F800952C
:102FE000CC20394622463346FEF750F8109FF8B2FF
:102FF000811E02290ED30128099C0ED00028129DA3
:1030000016D15748009057480190F02004210AE05B
:10301000129014E07D1E099C0AE05148009051482E
:103020000190CC20082100252A46544BFEF7BFF81A
:10303000E8B2FFF777FCFEF76BFA514A0E9D002CC1
:1030400007D1022C0ED101F0F1FF002D15D0022482
:103050000BE042480899817007994170002D0CD00F
:10306000012402E00024002D04D0FDF76DFEFDF7E1
:10307000B7FF434A002C00D189E6FDF7B5FE404A70
:10308000012012900027022001F062F900273D483C
:103090003946FFF761FBFDF7A3FF304841680E9109
:1030A000806801241297059710970746344B2146F4
:1030B00035480068139A1042344C0ED120681590A0
:1030C000159814202268D203D2171018FAD12E486E
:1030D0000068139A104200D1F3E02B480068139A5D
:1030E00010420DD120681590159814202268D20343
:1030F000D2171018FAD124480068139A10421FD032
:10310000186800070BD420681590159814202268C1
:10311000D203D2171018FAD11868000710D5186812
:10312000C0060BD420681590159814202268D2038D
:10313000D2171018FAD11868C00601D506201090D1
:103140001298C0B2032800D9B5E003A2105C400079
:103150008744C046AAE600081E5B8FA01C00002022
:10316000D9730008469700082EE6000859E60008C3
:10317000C4E600083400002081E40008F2E40008FE
:10318000100400508DE600081000005010E000E030
:10319000186800070CD42068159015981420226830
:1031A000D203D2171018FAD11868000700D497E09C
:1031B0001868C0067FD420681590159814202268DE
:1031C000D203D2171018FAD11868C00673D40D971D
:1031D0000E98FDF763FC04460D46F64F3A46F64B53
:1031E000FCF7CCFFF54AF64BFDF7EAFB0646204616
:1031F00029463A46F34BFCF7C1FFFDF763FC002E6E
:1032000000D10E980021129186E0186800070CD4B6
:1032100020681590159814202268D203D217101830
:10322000FAD11868000700D4A2E11868C00642D499
:1032300020681590159814202268D203D217101810
:10324000FAD11868C00636D43846FDF727FC044684
:103250000D460D97D74F3A46D74BFCF78FFFD74A0D
:10326000D74BFDF7ADFB0646204629463A46D54BDF
:1032700092E1186800071ED4206815901598142054
:103280002268D203D2171018FAD11868000712D496
:1032900001F016F8186800070DD4206815901598ED
:1032A00014202268D203D2171018FAD11868000728
:1032B00001D401F00BF80024002900D1F7E60E98A4
:1032C0002EE01299C8B2032802D30020129001E028
:1032D000491C12910E98FF21109101210B9C1FE0B7
:1032E0000D970E9E3046FDF7D9FB04460D46B14AB8
:1032F000E84BFCF743FF00221292E74BFDF74AFB35
:10330000074620462946AB4AE44BFCF737FFFDF75A
:10331000D9FB002F00D1304601210B9CE04B0D9FC3
:103320001A68D2070E9000D0AEE00994FDF7B6FB04
:10333000A04AD84BFCF722FFFDF7C4FB0546FDF77A
:1033400075FB0446FDF752FB01462846FDF751FA8E
:10335000D449FDF756FAFDF769FB0090D2480546BF
:103360000C9E3146D14A234602F094FFD04800908B
:10337000D0480190042108910024204622462B4683
:10338000FDF715FF0D973846FDF788FB894AC14BBD
:10339000FCF7F4FEFDF796FB0746FDF747FB0546F5
:1033A000FDF724FB01463846FDF723FABD49FDF73A
:1033B00028FAFDF73BFB0090BB4F38463146BE4A2A
:1033C0002B4602F067FFBA480090BA4801900821E6
:1033D0000791204622463B46FDF7E9FEFDF70EFC2D
:1033E000FDF75CFB734AAB4BFCF7C8FEFDF76AFBCD
:1033F0000546FDF71BFB0746FDF7F8FA0146284690
:10340000FDF7F7F9A749FDF7FCF9FDF70FFB009071
:10341000A54D28463146A94A3B4602F03BFFA44849
:103420000090A44801900C21204622462B46FDF72F
:10343000BEFEFF2006900090B425182703262846DC
:1034400008993A463346FDF721FE06980090284633
:1034500007993A463346FDF719FE129AD0B2811EFB
:10346000022915D3012815D0002825460D9F1DD10E
:103470008F4800908F480190B420042100252A46EF
:103480008F4BFDF794FE11E0002C0C4618D10EE690
:10349000551E0AE08648009086480190B420082115
:1034A00000252A46864BFDF782FE0D9FE8B2FFF706
:1034B00039FAFEF72DF809980028794B00D1F6E586
:1034C000109800064ED0FDF73FFC754B1868C006FB
:1034D0000CD47C4A10681590159814201168C90303
:1034E000C9170818FAD11868C00625D5186800074A
:1034F0000CD4744A10681590159814201168C903EB
:10350000C9170818FAD11868000715D56E48006861
:103510001399084200D0CAE56A4A106815901598B8
:1035200014201168C903C9170818FAD16648006841
:103530001399084200D0BAE5624A106815901598B0
:1035400001201168C903C9170818FAD1109AD1B21D
:103550000020FF2901D0521E00E0C2431092110644
:10356000B4D103E0FDF718FC4D4B059810909EE593
:103570003846FDF793FA04460D460D970D4F3A462F
:10358000444BFCF7FBFD0022434BFDF703FA0646D4
:10359000204629463A46414BFCF7F0FDFDF792FAEA
:1035A0000746002E00D10D9F01210B9C12913C4B30
:1035B00085E6C0467B14AE47E17A74BF9A99999923
:1035C0009999E93FE17A84BF002740483946FFF7DF
:1035D000C3F8FDF705FD3E48C16800690690012467
:1035E0001097059712970F462D4B214636480068D5
:1035F000139A1042334C0ED1206815901598142060
:103600002268D203D2171018FAD12F480068139AF3
:10361000104200D1EBE02C480068139A10420DD103
:1036200020681590159814202268D203D21710181C
:10363000FAD125480068139A10421FD01868000775
:103640000BD420681590159814202268D203D21745
:103650001018FAD11868000710D51868C0060BD4E6
:1036600020681590159814202268D203D2171018DC
:10367000FAD11868C00601D5062010901298C0B281
:10368000032800D9AFE0C046784400794000874461
:1036900021558899E17A743F00000840E17A843F1F
:1036A000100400500000C84234000020FFE300086E
:1036B000D97300084697000817E400082FE40008B3
:1036C000F2E4000810E000E0100000509AE6000864
:1036D0001C000020186800070CD42068159015986D
:1036E00014202268D203D2171018FAD118680007E4
:1036F00000D48AE01868C00675D420681590159823
:1037000014202268D203D2171018FAD11868C00604
:1037100069D43846FDF7C2F904460D46FA4AFB4B18
:10372000FCF72CFD00221292F94BFDF749F93E46B9
:10373000074620462946F44AF64B7AE01868000707
:103740000BD420681590159814202268D203D21744
:103750001018FAD11868000777D51868C00642D447
:1037600020681590159814202268D203D2171018DB
:10377000FAD11868C00636D40E970698FDF78EF970
:1037800004460D46E04F3A46E04BFCF7F7FC0022BA
:10379000DF4BFDF715F90646204629463A46DD4B34
:1037A00067E0186800071ED420681590159814204B
:1037B0002268D203D2171018FAD11868000712D461
:1037C00000F08CFD186800070DD42068159015983E
:1037D00014202268D203D2171018FAD118680007F3
:1037E00001D400F085FD002400294FD1FDE6129997
:1037F000C8B2032802D30020129001E0491C1291A4
:10380000FF20109001210B9C40E03846FDF746F95F
:1038100004460D46BC4AC04BFCF7B0FC0022129295
:10382000BE4BFDF7B7F83E46074620462946B64A46
:10383000BB4BFCF7A3FCFDF745F9002F00D1304648
:1038400001210B9C0746B74B20E00E970698FDF729
:1038500025F904460D46AC4F3A46AF4BFCF78EFCBB
:103860000022AE4BFDF796F80646204629463A461A
:10387000AB4BFCF783FCFDF725F9002E00D1069831
:1038800001210B9C06901291A64B0E9F1868C00751
:1038900000D0C4E00D94002438462146FDF756F8C8
:1038A00005460E973846FDF7F9F802460B46002DFF
:1038B000994900D195499448FCF760FCFDF702F95D
:1038C0000746FDF7B3F80990FDF790F80146384632
:1038D000FCF78FFF9449FCF794FFFDF7A7F8C11799
:1038E00046184E4038469149FDF706F805463846D9
:1038F000FDF7D4F8844A874BFDF762F8009600285C
:103900008B4800D18B48002D894A0C99069E00D126
:103910000246894D2846099B02F0BCFC874800906E
:103920008748019004212046099122462B46FDF745
:103930003EFC30462146FDF709F805463046FDF7C6
:10394000ADF802460B46002D734900D16F496E4811
:10395000FCF714FCFDF7B6F80746FDF767F808908A
:10396000FDF744F801463846FCF743FF6E49FCF783
:1039700048FFFDF75BF8C11746184E4038466B49C3
:10398000FCF7C8FF05463846FDF788F85E4A614BEC
:10399000FDF716F8009600286A4800D16A48002D05
:1039A000684A0C9900D10246634D2846089B02F0F4
:1039B00071FC6248009062480190082108912046FD
:1039C00022462B46FDF7F3FBFF2007900090D827F7
:1039D000182603253846099932462B46FDF756FB33
:1039E000079800903846089932462B46FDF74EFB63
:1039F000129AD0B2811E022915D3012815D00028B1
:103A000025460E9F1DD14D4800904D480190D8206D
:103A1000042100252A464D4BFDF7C9FB11E0002C7F
:103A20000C4618D1E1E5551E0AE044480090444890
:103A30000190D820082100252A46444BFDF7B7FB0A
:103A40000E9FE8B2FEF76EFFFDF762FD0D980028AD
:103A5000344B00D1C9E5109800064ED0FDF774F93B
:103A6000304B1868C0060CD4394A10681590159868
:103A700014201168C903C9170818FAD11868C006BC
:103A800025D5186800070CD4314A10681590159890
:103A900014201168C903C9170818FAD1186800075B
:103AA00015D52C4800681399084200D09DE5284A96
:103AB00010681590159814201168C903C9170818C3
:103AC000FAD1244800681399084200D08DE5204AB5
:103AD00010681590159801201168C903C9170818B6
:103AE000FAD1109AD1B20020FF2901D0521E00E075
:103AF000C24310921106B4D103E0FDF74DF9094B12
:103B00000598109071E5C0467B14AE47E17A74BF0A
:103B1000000024C0E17A84BFE17A743F00002440B1
:103B2000E17A843F100400500000C842000080BFCA
:103B300089E500086CE5000834000020D97300080E
:103B40004697000806E60008E9E50008F2E40008E8
:103B500010E000E0100000500024F3482146FEF77A
:103B6000FBFDFDF73DFAF14A10680C99084310601F
:103B7000106820210143102081431160EC48858AA0
:103B80000126EC4B3046EC490968139A11420ED1DC
:103B9000EA4F39681591159914213A68D203D21762
:103BA0005118FAD1E4490968139A114253D0E1B28D
:103BB00002292AD0012939D0002948D119680907DA
:103BC0000CD4DE4E31681591159914213268D20358
:103BD000D2175118FAD11968090741D51968C906D1
:103BE00035D4D64E31681591159914213268D20317
:103BF000D2175118FAD11968C90628D47E20C043BB
:103C000029B2814230DD6D1E2EE0196809071ED4ED
:103C1000CA4F39681591159914213A68D203D21701
:103C20005118FAD11968090711D470E31968090706
:103C30000DD4C24F39681591159914213A68D203F1
:103C4000D2175118FAD11968090700D459E3002690
:103C5000002897D00BE0E0B2022805D2641C04E0F3
:103C600028B27F2800DA6D1C002401200B9E196801
:103C7000C90775D1109612952FB2B14805460C9917
:103C8000B04A3B4602F006FBAF480090AF480190B7
:103C900004210E910026304632462B46FDF787FA66
:103CA000AB480088FCF7ADFEAA49FCF7AAFD054623
:103CB0003846FCF79BFEA749FCF7A3FD01462846C2
:103CC000FCF746FDFCF7EAFEA34AA44BFCF756FAC4
:103CD000FCF7F8FE0546FCF7A9FE0746FCF786FE52
:103CE00001462846FCF785FD9D49FCF78AFDFCF757
:103CF0009DFE0090924D28460C999A4A3B4602F050
:103D0000C9FA914800909148019008213046324606
:103D10002B46FDF74CFAFF200090A8201822032321
:103D20000E99FDF7B3F9E0B2411E022921460CD3EA
:103D3000002809D18448009084480190A8200421DB
:103D40000022894BFDF733FA3146C8B2FEF7EAFD8F
:103D5000FDF7DEFB10980028764B129D04D111E789
:103D6000002E064600D10DE7FCF7EEFFFDF738F90F
:103D700007E700247D482146FEF7EEFCFDF730F909
:103D80006B48807D129001256A4B28466A4D296850
:103D9000139A11420ED1694F396815911599142162
:103DA0003A68D203D2175118FAD163490968139AB5
:103DB000114257D0E1B202292CD001293BD0002971
:103DC0004AD1196809070CD45C4D296815911599D9
:103DD00014212A68D203D2175118FAD11968090799
:103DE00048D51968C90637D4544D296815911599D5
:103DF00014212A68D203D2175118FAD11968C906BA
:103E00002AD47E20C043129A51B281423ADD521E1A
:103E1000129237E0196809071ED4484F3968159186
:103E2000159914213A68D203D2175118FAD119689A
:103E3000090711D485E2196809070DD43F4F396885
:103E40001591159914213A68D203D2175118FAD155
:103E50001968090700D46BE20025002895D02A468E
:103E6000374D13E0E0B2022801D3002400E0641CC7
:103E7000334D09E01299C8B27F2801D1129001E0B8
:103E8000491C12912E4D002401200B9A1968C90774
:103E900040D11092129843B228460C99294A02F058
:103EA000F9F929480090294F019704262B4600254F
:103EB000284631462A46FDF77AF9234800900197B3
:103EC0000821012228462A4BFDF771F9FF200090B6
:103ED000A820182203233146FDF7D8F8E0B2411E8E
:103EE000022921460CD3002809D117480090174811
:103EF0000190A820042100221B4BFDF758F9294608
:103F0000C8B2FEF70FFDFDF703FB10980028094B20
:103F100004D13AE7002A054600D136E7FCF714FF42
:103F2000FDF75EF830E7C04667E600082000014074
:103F30001C000020100400501000005010E000E0B1
:103F400034000020A7E40008D97300084697000851
:103F50007800F81FB98B3B3FFCA9F1D24D62403F7E
:103F600000007A4449E40008F2E400087AE6000818
:103F700066E400080221F848FEF7EEFBFDF730F892
:103F80000C9CFF2010900006F449096881431491AD
:103F9000F3482146F34AF44B02F07CF9F34F0097C3
:103FA000F34F01970421002528462A46EC4E33465C
:103FB000FDF7FDF830462146EE4AEF4B02F06AF974
:103FC000EA4800900197062128462A463346FDF725
:103FD000EEF814AB30462146E8A202F05BF9E34864
:103FE00000900197082128462A463346FDF7DFF85E
:103FF00012951AA9E648FCF731FE002800D0FBE034
:104000001AAE308801F0B8F904467088FCF7F9FC64
:1040100001462046FCF7F5FBDE49FCF72FFC06467F
:10402000DD4F7C882046FCF7ECFC01463046FCF76F
:10403000E0FBDA49FCF7E5FB0646F888001BFCF7D5
:10404000D5FC01463046FCF719FCD549FCF780FB4E
:1040500015A948512D1D142DCBD115A801F044F9F7
:104060000546CAE00D970125CEA02946FEF774FB50
:10407000FCF7B6FF8120400012902F46CD4B28461A
:10408000CD4D2968139A11420DD1216815911599CA
:1040900014212268D203D2175118FAD1C6490968EF
:1040A000139A114228D0F9B2012911D000291FD149
:1040B000196809071CD421681591159914212268E3
:1040C000D203D2175118FAD11968090710D4BBE1ED
:1040D000196809070CD421681591159914212268D3
:1040E000D203D2175118FAD11968090700D40AE28D
:1040F00000250028C3D004E0F8B247424741012020
:104100000B9D1968C9070FD1FF200090D3200F2104
:104110004F220123FCF7BAFFF8B20128109506D010
:1041200000280AD1DD2004E0002D05462FE012987A
:104130000A300F21A14AFDF723F8A14C0094A14EAB
:1041400001960521002528462A469FA3FDF72FF852
:1041500000940196092128462A46A5A3FDF727F8D1
:104160000095A74C0194D3200D2631462A46A54B35
:10417000FDF71DF800950194129831462A46A24B8E
:10418000FDF715F8FDF7C4F910980028894B9F4CEE
:1041900000D174E7FCF7D8FDFCF722FF6EE700279B
:1041A0003846FDF70BF9FCF78FFFFDF7B1F9FDF786
:1041B0002DFC7D20C4002046FDF7ACFB009781203C
:1041C00042002632102338463946FCF75FFFFDF7E0
:1041D0009FF9FDF71BFC2046FDF79CFBFCF774FFE5
:1041E000FDF796F9FDF712FC2046884CFDF792FB8F
:1041F000FCF7FAFD092080E2129D002428462146A2
:10420000FCF7A4FB06462846FCF748FC02460B4692
:10421000002E7F4900D17F497F48FBF7AFFFFCF7B5
:1042200051FC0646FCF702FC0546FCF7DFFB0146A5
:104230003046FCF7DEFA5949FCF7E3FAFCF7F6FBE7
:1042400076490B680968090CC21780185040009124
:104250000195029072480340414D28460C99714ADD
:1042600002F018F841480090414801900A21204688
:1042700022462B46FCF79BFF15A800F07FFF169DFA
:1042800028462146FCF762FB06462846FCF706FC5A
:1042900002460B46002E5E4900D15E495E48FBF7A0
:1042A0006DFFFCF70FFC054616901AA903225E4825
:1042B00000F0ECFF00285DA600D12FE1FE245BE1B9
:1042C0005C480E994160876000F0B0FEFCF78CFD01
:1042D000384A012012900027032010E05548C7609B
:1042E00006990161544807605448016000F09EFE41
:1042F000FCF77AFD2F4A012012900027042010902D
:10430000FDE14F4805804B48858200F08FFE01207B
:10431000129000024B4A11688143116010683021ED
:1043200088431060FCF760FDFA4A002705200FE083
:10433000FB4812998175C9B2102000F034FE00F0DC
:1043400075FEFCF751FDF34A01201290002706206C
:104350001090F14CD3E1C046B7E60008FC0708080E
:1043600034000020BCE40008ECE300085C8900088D
:10437000508F0008CFE40008E0E30008E7A1ACE4B8
:10438000BBB6E78988E69CAC20203A202573000064
:10439000000006CC00803B457800F81F0000C842B2
:1043A0000000F041E681A2E5A48DE8AEBEE7BDAE17
:1043B000000000001004005010000050BDBA0008BA
:1043C000D973000846970008E6B885E999A4E695F0
:1043D000B0E68DAEE5B9B6E681A2E5A48DE588B07C
:1043E000E5889DE5A78BE8AEBEE7BDAE0000000006
:1043F000E7BBA7E7BBADE59097EFBC9F00000000CF
:10440000CA91000860E6000823E6000810E000E01A
:10441000E17A743FE17A74BF7B14AE4700580140E3
:10442000FF0F000043E500082DF300008020080482
:10443000100201001C0000203401002008000020B0
:104440004201002020000140FCF7CEFCB44D28467C
:10445000B2491CC91CC01CC91CC0AF4CAA20287082
:1044600000F0E4FDFDF760F8FF200090129A26327C
:10447000002705250B2338462946FCF707FEAA48E6
:104480000090A84E0196384629463A46A7A3FCF765
:104490008EFEA54800900196092138463A46A7A30A
:1044A000FCF785FEFDF734F89D484078002821D0C0
:1044B000F920A949C8604868FA2800D34F60984895
:1044C0008078FCF7B7FDA44AD068400850601068B7
:1044D0000C99084310602068159015980846F43030
:1044E0002168C903C9170818FAD101200002116810
:1044F00081431160FDF78AFA9848FDF70BFA012015
:1045000012900820F9E0FCF76FFC824A012012901B
:10451000082010900F9B0D9FFEF7B0FA1AA8109A72
:104520000178514022464B00090601D531214B400C
:10453000D9B2531C072A1A46F5D3421C0A9B98424B
:1045400010460A46ECD11AA88078884213D11AA9DD
:104550000878497800221446B35C032A02D8034243
:1045600002D104E00B4202D04023D3401C43521C32
:10457000072AF1D100E0FF242846FCF757FA1290F1
:10458000FCF734FA01462846FCF733F97749FCF783
:1045900038F9FCF74BFA0546159F3846FCF746FA02
:1045A0000646FCF723FA01463846FCF722F96F4924
:1045B000FCF727F9FCF73AFAE9176A184A4012990A
:1045C00000AB46C30390E3B2654C20460C9E3146D7
:1045D0006A4A01F05FFE64480090624801900C2135
:1045E000002738463A462346FCF7E1FD112000F04B
:1045F000BDFC802404408500122000F0B7FC800937
:1046000028180121002C129104D00A46FF363040B0
:104610004902081AFBF75AFF02460B46002C58497C
:1046200000D058493846FBF75BFEFCF74BFA0446CE
:104630003946FCF78BF905462046FCF72FFA02466F
:104640000B46002D4A4900D14A494B48FBF796FDDD
:10465000FCF738FA0546FCF7E9F90646FCF7C6F917
:1046600001462846FCF7C5F84049FCF7CAF8FCF7B4
:10467000DDF905460E20109000F078FC0E900F201A
:1046800000F074FC0446102000F070FCE9176A1872
:104690004A400094019002960392314C20460C99B6
:1046A000394A0E9B01F0F6FD2F4800902D480190ED
:1046B000384610993A462346FCF779FDFCF728FF67
:1046C000FDF7A4F9144C12480068139908420DD163
:1046D00020681A901A9814202168C903C91708186D
:1046E000FAD10B4800681399084203D03220FDF735
:1046F00011F9E8E7FCF778FB07201090054A0F9BBB
:10470000FEF7BCF900F092FCFEF7B7FC1BB0F0BD61
:10471000100000501004005010E000E0B8730008D2
:104720001C00002046970008D9730008E681A2E526
:10473000A48DE5AE8CE6889000000000E4B889E71F
:10474000A792E5908EE8BF94E59B9EE4B8BBE88F06
:104750009CE58D950000000020000040B80B000093
:1047600034000020508F00085C8900080000C84217
:10477000E17A743FE17A74BF7B14AE47BAE5000872
:104780000000D03F0000D0BF13E50008F0B59FB097
:1047900031A000211391FDF7DFFFFCF721FC1AA8DF
:1047A00000F07CFB0F20049000F0E0FB40B20028FA
:1047B00003D41AA84079002805D12B481AA90CC89F
:1047C0000CC1007808701AA8811D0C91411D0B9135
:1047D000011D0A91C11C0791C11D069101460831B6
:1047E0000591811C0891401C0990FF200E901C30FF
:1047F0000F90012001021591C10316911B4C1C4F13
:104800001C4E0D901990139818901B48006816992B
:1048100008420DD120681D901D9814202168C903FD
:10482000C9170818FAD1144800681699084228D008
:104830001898C0B20022112800D9CFE0784400793E
:10484000400087441B51565A5E62676B71767C86C6
:104850008A8F9398A2B6C046E697B6E997B4E8AEB9
:10486000BEE7BDAE00000000D073000810E000E01D
:1048700034000020D97300081000005002210122EA
:1048800034E01899C8B20022112802D31546114607
:1048900001E01546491C09224A401AA8007A024341
:1048A000D2B253425341C918189101211991139959
:1048B000002900D1CCE01AA909783C2902D31AA911
:1048C0003B220A701AA949783C2902D31AA93B2233
:1048D0004A701AA98978002800D182E00D2900D2F7
:1048E00088E01AA80C2189E00121092200230C98F4
:1048F000B4E0092200210C9840E0012100230B982C
:1049000025E0092200210B9838E001210322002331
:104910000A98A3E0092200210A982FE0002107222B
:10492000012307980D469AE0012200210598139271
:1049300002E00122002106980D460B468FE01AA8DE
:10494000007A0121002800D185E0002308980A465A
:1049500084E009220021089810E0012105220023AB
:1049600009987BE009220021099807E01AA8012193
:104970000522002372E01AA8092200210D460B46E9
:10498000FCF7AAFA012113916BE0E94800680007DF
:1049900024D420681D901D9814202168C903C917CC
:1049A0000818FAD1E2480068000717D40020022551
:1049B00012E0DF480068000710D420681D901D98A1
:1049C00014202168C903C9170818FAD1D84800680B
:1049D000000703D400200125199042E01546104637
:1049E0003FE0182902D31AA8172181701AA80021C4
:1049F000C17104E0002902D11AA8012181701AA80E
:104A0000C078072801D9072002E0002802D1012040
:104A10001AA9C8701AA800791F2801D91F2002E01E
:104A2000002802D101201AA908711AA840790C287F
:104A300001D90C2002E0002802D101201AA94871F6
:104A40001AA88079C008192802D31AA8C721817131
:104A50000D9A139510E00222002308981D46FCF7DA
:104A60003BFA411E02468A41002801D1199800E014
:104A700001201990000639D0AD480068C00700D069
:104A8000BBE0179214951AACA37960792179E2788A
:104A900000AD07C538461599A8A201F0FBFB0096AA
:104AA000AE4D019507200421052212903B46FCF7EC
:104AB0007EFB207A00281CD03846AAA11CC91CC045
:104AC0001CC91CC00A8802808978817000960195F3
:104AD0000520082100223B46FCF769FB1AA8C07993
:104AE000072200281CD03846A5A11BE00020199001
:104AF00083E03846A6A11CC91CC01CC91CC00A887A
:104B00000280897881700096019505240821002291
:104B100020463B46FCF74BFB3846A4A1224601E069
:104B2000384699A1FBF7F0FD00220092019505247B
:104B30000C262046314619923B46FCF738FB1AA852
:104B4000837841780078009101903846159999A2B0
:104B500001F0A0FB8248009001953A2031462246A0
:104B60003B46FCF724FB1898C0B2022803D8112159
:104B7000414318310BE0042803D81121414335315A
:104B800005E0062800D9A8E01121414352311191D6
:104B9000129810900E9F0097052607210124304699
:104BA0000F9D2A462346FCF771FA00970B213046E9
:104BB0002A462346FCF76AFA00970F2130462A4618
:104BC0002346FCF763FAFE2018990840102802D10A
:104BD00008460F3807E0119880B21099C9B2794A97
:104BE000FCF7CEFA1998534C5D4EC0B2FDF79AFE11
:104BF000FCF78EFC504F149D179A022D64D117922A
:104C00001DAC1A9820701B9820711AA84178617009
:104C10008178A170417961718179A171C078C01DDD
:104C20000721FBF765FA481CE0700026062E0AD122
:104C30001DA88079642806D364381DA98871487935
:104C4000802202434A711DAFBC5D0A212046FBF75A
:104C50004FFA0921C9434143611800010843B8557F
:104C6000761C072EE2D11AA8007A00280DD01DA9C3
:104C70008A781F201040024640328A701AA9C979EA
:104C8000002902D060301DA9887007201DA900F0FE
:104C9000A7F90028284F14D10E26304600F066F9F7
:104CA00001467F242140304600F07DF9002808D1DC
:104CB0000F26304600F05AF904403046214600F0F5
:104CC00072F91C4C264E179A002A03D0FCF73CF8C8
:104CD000FCF786F9002D26D197E5092807D008288A
:104CE00008D007280AD10F98C01F119050E717204D
:104CF000119016E0842011900B204AE70B2803D86E
:104D00001121414370390BE00D2803D81121414393
:104D10005F3905E00F2800D93CE7112141434E39A6
:104D20001191049835E7FCF75FF81FB0F0BDC0465D
:104D30001004005010E000E0340000203225303331
:104D400064E5B9B425303264E69C8825303264E6E7
:104D500097A520E591A8256400000000469700086B
:104D6000D9730008E697B6E997B4E6A0BCE5BC8F16
:104D7000EFBC9A3132E5B08FE697B6E588B6000011
:104D8000E4B88BE58D880000E4B88AE58D880000E2
:104D9000E697B6E997B4E6A0BCE5BC8FEFBC9A32C3
:104DA00034E5B08FE697B6E588B6000020202020D5
:104DB00000000000253032643A253032643A253054
:104DC00032640000BDBA00087047704781B01048D7
:104DD000042101600F494020086008220A60102267
:104DE0000A60694664220A800A880988002A06D077
:104DF000491E6A46118013881188002BF8D1064994
:104E00000A68520602D40A6802430A6001B0704779
:104E100028040050180000500030014080B51849A7
:104E2000C8680007820F17487A44127952009744E5
:104E30000108250D0120000449680904490F884034
:104E400080BD0868C00609D5104880BDCA68D20375
:104E500007D40868C00603D50C4802E00A4880BDA4
:104E60000948CA689202120F09A39A5C4243C868B3
:104E70000002800F411C1046FBF73AF980BDC04686
:104E80000010024000127A000024F40000093D00E6
:104E9000030406080C1018203000000070B504460A
:104EA000D02000210122FCF78BFB00280DD1002629
:104EB0003046FCF72DFC002807D1D0200125072221
:104EC0002946FCF77DFB002804D009212046FBF78A
:104ED00034FC70BDFCF75AFBA055761C072EF9D1A7
:104EE000FCF7E6FB002001467F220A40022A05D09B
:104EF000052A0CD12256002A14D520E0225C520645
:104F000007D40022E2712272235C3F2208E0225C77
:104F100008E02572225C9206D20FE271235C1F2208
:104F20001A4022540F231340D2B212090A265643C4
:104F3000F2182254491C401C0728D5D10EE00F213D
:104F4000D3060A40DB0F0A256B439A182254A07936
:104F500001400009684308186430A071E0780C3003
:104F60000721FBF7C5F8481CE07070BDB0B50546D9
:104F7000D020002401222146FCF722FB002810D17A
:104F80002846FCF7C5FB00280BD1D02001210A469A
:104F9000FCF716FB002804D1FCF7F8FA0446FCF7EE
:104FA00087FB2046B0BDF0B581B00E460746D02045
:104FB000002402222146FCF703FB012500280CD126
:104FC0003846FCF7A5FB002807D13046FCF7A0FBCC
:104FD000002802D1FCF76CFB2546284601B0F0BD45
:104FE000F0B581B00C460546401CC2B2D02000216D
:104FF000FCF7E6FA0127002813D100263046FCF71B
:1050000087FB00280DD102E0641C6D1E06D02078BD
:10501000FCF77EFB0028F7D0012700E03746FCF7BD
:1050200047FB384601B0F0BD70470000F0B583B0D3
:105030007D20C000009000211D4A1E4B1E4C1F4DBC
:105040000E46264330786F5CB84221D01868019034
:10505000019800985569ED0705D01D68ED03ED171F
:105060002818F7D113E01068C00703D014489060E7
:10507000144890603770186802900298009855693B
:10508000ED0709D01D68ED03ED172818F7D10B4D7A
:10509000491C1829D4D109E0106801250543156081
:1050A0001068C007054DF3D03078F1E703B0F0BDCC
:1050B0000420024010E000E0000008081C0000206E
:1050C000EFCDAB8905040302F0B581B000920A462A
:1050D000054609320C211046FBF70AF80E460A274E
:1050E00008463946FBF704F804469920400070430F
:1050F000401D3946FAF7FCFF00990818291B8CB2AD
:10510000A1084018FF216E316143451864212046F3
:10511000FAF7EEFF2D1A192001012046FAF7E8FFF1
:105120002818401EC11701B0F0BD704701200202CF
:105130000E490B6813430B60CA680D4B1340CB60DC
:105140000A680C4B13400B608A6882438A608204B1
:105150000B6893430B60FD221204CB689343CB6032
:1051600000220A61C006044908607047001002402E
:105170000C40FF88F6FFF6FE08ED00E0F0B583B0C6
:1051800004463A4801A9062200F080F800286BD1B5
:1051900001AA511CFF2513786B4000255E003120C9
:1051A0001B0600D54640F3B26E1C072D3546F5D3DD
:1051B000551C8A422A461D46EDD101A9897899429B
:1051C00052D101AA111DD21CFF2513786B40002576
:1051D0005E001B0600D54640F3B26E1C072D354617
:1051E000F6D3551C8A422A461D46EED101A84079C5
:1051F000984239D101AF3888000400BAFBF766F94C
:1052000000251B4E2A463346FBF7D2F8194B2A4697
:10521000FBF766F8184B2A46FAF7B0FFFBF752FC8B
:10522000014616480068FBF793FA60603879F97810
:1052300009020818FBF74AF92A463346FBF7B8F883
:105240000F4B2A46FBF74CF8FBF73CFC01460D4898
:105250000068FBF77DFA05460B4E3146FBF776FBFF
:10526000002800D12E46266003B0F0BD062C0000B9
:10527000E0FFEF4000E06540008046C034010020C0
:1052800000005940080000200000C842F0B581B07D
:1052900014460D460746882000210222FCF790F9AB
:1052A000012600281CD1380AFCF732FA002817D151
:1052B000F8B2FCF72DFA002812D1882001263146D9
:1052C0002246FCF77DF900280AD1FCF75FF9287027
:1052D0006D1C641EF9D1FCF7EBF90646401E8641B1
:1052E000304601B0F0BD0000F0B583B001460026A5
:1052F00004220446374602900192F8B28000085812
:1053000025682946FBF722FB002803D0374602997F
:10531000019A10E00097019FF8B2800002990858A6
:105320002946FBF705FB002802D13246029901E02D
:1053300002993A46009F241D761C052EDCD1F8B256
:105340008400D0B2870000263546B4420BD0B74265
:1053500009D088590749FBF791FA01462846FBF71F
:10536000F7F902990546361D142EEED1284603B0F2
:10537000F0BDC04600004040B0B504460948008872
:105380000949098809B2091808484843FBF739FB5D
:1053900005462046FBF735FB01462846FBF76EFA2B
:1053A000B0BDC0467800F81F42010020B80B0000D5
:1053B00070B584B03E4D0821296101A908704026CE
:1053C0002E6103A80124048001880088002906D0EA
:1053D000401E03A908800A880888002AF8D101A87D
:1053E000214600F023FF02A80480018800880029DC
:1053F00006D0401E02A908800A880888002AF8D131
:105400002E6004B070BDC04670B584B0284D082130
:10541000296001A9087040262E6103A80124048098
:1054200001880088002906D0401E03A908800A8848
:105430000888002AF8D101A8214600F0F7FE02A84A
:10544000048001880088002906D0401E02A9088037
:105450000A880888002AF8D12E6004B070BDC046C2
:10546000F0B583B0124C082222604025256102AAC3
:105470000126168013881288002B06D0521E02AB1C
:105480001A801F881A88002FF8D100F0CFFE01A8DB
:10549000068001880088002906D0401E01A90880E6
:1054A0000A880888002AF8D1256003B0F0BDC046FC
:1054B00018000050F0B587B0514C216820680127D2
:1054C000B8432060394004910A202168C90701D0FF
:1054D000401EFAD178054B490A6802430A600A68FF
:1054E00082430A6048480168484A1140BB03C91812
:1054F00001604168802631434160C1681140C9188C
:10550000C1600168424B19403D034919016041687F
:10551000402211434160C16819404919C160019698
:105520008661826106A964260E800B880988002B9B
:1055300006D0491E06AB19801D881988002DF8D1A8
:1055400000200390C04302902F48016909062BD424
:105550000097304B1968059105997D21CF00002FE8
:1055600025D019682848826206AD2E80C9032C8890
:105570002D88002C03D06C1E06AD2C80F7E7C917D0
:105580002148826106AC268020882588002803D027
:10559000681E06AC2080F7E7CF191B48006900069B
:1055A000DDD5039D029E04E0039D029E1AE0039D4B
:1055B0002E461548019A8262186806900698009F48
:1055C00039460F4C1868C003C0174118FAD10E486D
:1055D000826118680690069801201968C903C917E6
:1055E0000818FAD1FDF74EF80498002802D0206878
:1055F00038432060E843301A411E884107B0F0BDAF
:10560000005400402810024000040050FF3FFFFFFC
:10561000FFCFFFFF10E000E070B5194C2168C9070B
:1056200003D1216801220A432260FBF7F1F9154AF0
:10563000154BFAF7BDFE0022144BFAF79FFDFBF75E
:105640000FFAA26812490A400243A2602246083AB1
:10565000136802200343136001225307ED4D2E68A7
:105660001E432E6052030B4B1A60FF310A4A136827
:105670000B4013602168014304208143216070BD09
:10568000107C0040D0BAC114F9ACDB3F0000E03F11
:105690000000FFFF00E100E00CE400E0A1B0104DCD
:1056A000686B012210436863686B10401A901A9867
:1056B0001107A86B0843A863A86B079108401A90CC
:1056C0001A98084B986920210F91084310211291D4
:1056D000884398610448001F01689143016005E018
:1056E0000010024008000140042002400168C90780
:1056F000FCD10324E002054B19688143D0021590C8
:105700000818186028681043286001E00070004005
:1057100028684007FCD51F200002696881431003F8
:10572000139008186860286D10432865286D80075D
:10573000FCD5E868802109910843702105918843D0
:10574000E86007231802E9688143E9600E93D802F4
:10575000E9688143E960E8681043022118918843B1
:10576000E860E8680C2101400429FAD1A249A34865
:10577000486000278F6005200860E3431693E96CBA
:105780001940E964E96C9E4B1940E964E96C9D4B52
:10579000194093040D93C918E9641F971E971D972C
:1057A0001C97E96A04263143E962E96A314011969F
:1057B00020912099E96A1143E962E96A1140209138
:1057C0002099E96A189B1943E962E96A1940209116
:1057D00020990507149523460824AC621298A86204
:1057E00040200A90A8621398A86287480F998162A6
:1057F0001102089181628661A9611598A8611E97BE
:105800001B9390030C901A901793804D19921AAE27
:1058100028463146FBF79EFF1E9717981B90199854
:10582000C00306901A902846254610943146FBF78F
:1058300091FF1E971D9717981C903C4619981B9036
:105840001A95149D28463146FBF784FF1E971D9735
:105850001C9719981B9012981A9028463146FBF70E
:1058600079FF1E971D97179F1C9719981B900A98F0
:105870001A9028463146FBF76DFF1E941B97189827
:105880001A90614F38463146FBF764FF1E941D9411
:105890001C9419981B9011981A9038463146FBF7C2
:1058A00059FF1E941D941C9419981B90089F1A97D9
:1058B00028463146FBF74EFF1E941D941C94199800
:1058C0001B9015981A9028463146FBF743FF1E940B
:1058D0001D941C9419981B9013981A9028463146D1
:1058E000FBF738FF1E941B9406981A902846314601
:1058F000FBF730FF1E941B9410981A9042483146D3
:10590000FBF728FF1E941B9412981A903E483146CC
:10591000FBF720FF1E941D941C9419981B900F9860
:105920001A9039483146FBF715FF1E941D941C94BC
:1059300019981B901A97344807463146199EFBF771
:1059400009FF334A106830430E2188431060F8681D
:10595000189B1843F2431040F860386816990840C5
:1059600038602C4841681140416001683143016052
:105970008168049211408160C1683143C1601F9405
:105980001E941D9416941C947102234A506B084374
:105990005063506B0B91084020902098D06A3043A0
:1059A000D062D06A3040209017981B901A931F46FF
:1059B00020981AA92846FBF7CDFE184B986A384361
:1059C0009862986A0D9908439862154D28681549A0
:1059D0000840F20503928018286070049A6A024316
:1059E0009A6228680840B1050291401828609868BA
:1059F000C0071DD118E0C04610E000E03F1F0000C6
:105A0000FFCFFFFFFFFFF3FF00040050000800502E
:105A10000800014000040140001002400024014041
:105A200008270140FFFF3FFFD868FE490140D960C9
:105A300058690E99084358611869B0431861119864
:105A4000C043D9680140D96071062A688A432A6038
:105A5000596801405960586810998843586098689F
:105A6000F1490840079908439860B0070D9098687D
:105A7000C0070AD1D868ED490140D960179880075E
:105A8000196981430D9801431961FCF7FBFDE84D4D
:105A9000686B139908436863686B08401A901A98FA
:105AA000E86A3043E862E86A30402090169D1F950E
:105AB0001E951D9517991C91189C1B940F981A9070
:105AC00020980F461AA90191149E3046FBF742FE1A
:105AD0001F951E951D9535461C971B9409981A9085
