:020000040800F2
:1000000030050020D5000008F52A000899140008E2
:1000100000000000000000000000000000000000E0
:10002000000000000000000000000000D32D0008C8
:100030000000000000000000F72A0008372E00082A
:10004000E7000008E7000008E7000008E7000008F4
:10005000E700000885140008E7000008E700000832
:1000600000000000E7000008E7000008E7000008C3
:10007000E7000008E700000800000000E7000008B3
:1000800000000000E7000008000000000000000081
:10009000E700000800000000E7000008E700000893
:1000A000E7000008E7000008E7000008E700000894
:1000B000E7000008E7000008000000000000000062
:1000C0000348854600F0ECF900480047F531000888
:1000D000300500200448804704480047FEE7FEE75B
:1000E000FEE7FEE7FEE7FEE7392E0008C100000844
:1000F00030B50B46014600202022012409E00D46C0
:10010000D5409D4205D31D469540491B2546954047
:1001100040191546521E002DF1DC30BDF0B51FB45C
:100120000646002082B005464024019100901BE065
:10013000019922460F46304600F0D4F9049A059BF7
:10014000801A994110D310461946224600F0BAF998
:10015000361A8F410197224601200021009F00F0AE
:10016000B1F938184D4100902046641E0028DFDCAC
:10017000019B00982946324607B0F0BDF0B507460E
:100180000846584087B0C00F049048000E465900FA
:1001900040084908BC1A884105D2384631461E46F7
:1001A00017460B4602465800400810434CD0300D0D
:1001B000039040055900400D490D0590401A0290EA
:1001C000402872DA18030121000B09050843019049
:1001D00004980092002805D00199524200208841DD
:1001E00000920190029840210A1A0199009800F0AB
:1001F00069F905460C466B4607CB00F084F9C01937
:100200007141039A0E0D0023D71756401A467A40C3
:10021000164344D0049A002A2DD0029A012A039A48
:1002200015DC1205C01A914101263605001C7141EA
:10023000D20F059ED2070093019202962A462346CA
:1002400000F081F907B0F0BD38463146FAE71605EF
:10025000224A0F46B218C01AB74101210905001CF5
:100260004F4100187F41114618187941E20F1043A1
:100270006D19644113E0E2076D0815436408C20775
:100280001443039A01261205C01A91413605001C39
:100290007141CE07400830434908C01851412A46F1
:1002A000234600F043F9CDE7FFE704980122400020
:1002B000C117121A00238B4104983146C417381A0B
:1002C000A141EEE730B40124E407634030BC55E7B8
:1002D00030B40124E407614030BC4FE70000E0FF88
:1002E000F0B51FB488B00B990998002448400999CB
:1002F000C00F490049080991C0070B9900904900B7
:1003000049080B9109990898A64608431CD00B99F7
:100310000A98084318D0099801244000420D48006B
:10032000410D099824050003000B204309900B9808
:100330000003000B20430B9050181C49401800226A
:1003400001901446104605E0002001460DB0F0BDB6
:10035000032801DA034600E003239C46C11A0AAED3
:100360000AE05F0008ADED5B4F00F75B7D430027BF
:10037000AA187C41491C5B1E6145F2DD410004ABBB
:100380005A522104120C0A43240C401C0828DFDBBB
:10039000019802900099704601910090059B049A83
:1003A0000799069800F0CFF8D0E700000DFCFFFF9A
:1003B000F0B50C465C4085B0E40FE40703944C00B4
:1003C00000266408590094464908024602962243D2
:1003D00021D062460A431ED06200570D4A000E0328
:1003E0002303550D012402462C492405781B1B0BC1
:1003F000360B401823432643614600901C46501A92
:10040000B44103D30098401C009002E09218009879
:100410005B41002803DA0020014605B0F0BD002052
:10042000012109050746864611E064461D46141B56
:10043000B54106D36546521BB341744607430C438E
:10044000A646CD0740084908284392185B41054657
:100450000D43EAD11046184313D060461946504068
:100460007140084306D06046101AB34106D20122FB
:10047000002306E000220123DB0702E00122D24331
:100480005310009874460105381C6141029C039D7D
:100490000019694100F04AF8BFE70000FD030000C1
:1004A000064C0125064E05E0E36807CC2B430C3CC7
:1004B00098471034B442F7D3FFF706FEF0750008F2
:1004C0000076000810B5202A04DB0146203A91404E
:1004D000002010BD914020239C1A0346E34019439D
:1004E000904010BD10B5202A04DB0846203AD040C9
:1004F000002110BD0B46D340D0402024A21A9140C9
:100500000843194610BD10B5202A06DBCB17084654
:10051000203A1041C1170B4306E00B461341D0406F
:100520002024A21A91400843194610BD10B5002B93
:1005300008DA0024401C614192185B411A4301D142
:100540004008400010BDF0B51FB482B005460C0055
:1005500003D0084603F080FE02E003F07DFE203069
:100560000246009021462846FFF7ACFF049B059AFF
:1005700004460F4618431143084314D0184610434D
:100580001BD0009840210A1A18460599FFF7AAFFC8
:1005900005460E46009A05990498FFF793FF084315
:1005A00005D0012004E02046394607B0F0BD002008
:1005B000C11705430E432C43374300990E9863053A
:1005C000401A7905E40A00220C43FD0A0A3002D5DC
:1005D00000200146E9E70105101969410C9C0D9DB9
:1005E00000196941FFF7A2FFDFE770B50024254637
:1005F000002801DA01244042002901DA012549429C
:10060000FFF776FDAC4200D04042002C00D04942BA
:1006100070BD03460B439B0703D009E008C9121FB6
:1006200008C0042AFAD203E00B780370401C491C6E
:10063000521EF9D27047D2B201E00270401C491E2E
:10064000FBD270470022F6E710B513460A4604466F
:100650001946FFF7F0FF204610BDF8B502464A40A4
:10066000D40F42004B0052085B089A4202D2024665
:10067000084611464A0023D0C30D4A00DDB2120ECF
:10068000AD1A202D35DA49020126490AF6058A19E4
:10069000002C00D0524220214F1B1146B9402A4164
:1006A0001018C20D9A4221D0002C17D0012D08DC61
:1006B000DA05801AD20F8019D207DBB200F0CEF92A
:1006C000F8BDDA05801A012340001B06C018801807
:1006D0005A428018CA0F1043490007E04908C20770
:1006E0001143DA05801A80194008801800F0AEF92D
:1006F000F8BD61000122511A001BF7E70122D20761
:100700005140AAE70122D2075040A6E7024670B541
:100710004A40D30FDB0740002DD04A002AD0010EFB
:10072000140E000212020919400A520A8418E50147
:1007300004465443000A120A2E045043A4194219D5
:10074000200CC543AA18120C0125AD03521C5219E6
:1007500012047F39240400D0521C104301D44000FD
:10076000491EC2B20C06C0092018401C4008802A4D
:1007700002D003E0002070BD40084000002900DAEC
:100780000020184370BD70B502464A40D50F4000A6
:100790004A00ED0740085208002814D0002A12D061
:1007A000C40DD30D41020120C0055202490A520A6C
:1007B000E41A091812187D34914201D3641C00E038
:1007C0004900002C01DA002070BD0023914201D3C2
:1007D000891A0343400849000028F7D100290AD0AC
:1007E000914202D10121C90705E0914201D20121C4
:1007F00001E00121C943E005C018401900F026F9C5
:1008000070BD0122D207002800DB101A002900DB8E
:10081000511A814201D801207047002070470122FF
:10082000D207002800DB101A002900DB511A814290
:1008300001D201207047002070470122D207002812
:1008400000DB101A002900DB511A814201D301207C
:100850007047002070470122D207002800DB101AE1
:10086000002900DB511A814201D901207047002084
:10087000704710B5002904DB0C460121C90740422E
:10088000A141002B04DB1C460123DB075242A3419C
:10089000101A8B4101D3012010BD002010BD10B5EE
:1008A000002904DB0C460121C9074042A141002B6D
:1008B00004DB1C460123DB075242A341801A994105
:1008C00001D2012010BD002010BDC217C10F504041
:1008D00010B54018CA079623002100F0BFF810BDDC
:1008E00010B500229623114600F0B8F810BD0000A4
:1008F0000EB5C217C10F5040CA0740180021054B62
:100900000293019200910A460B46FFF71CFE03B0CA
:1009100000BD0000330400000EB50549029100211E
:1009200000910A460B460191FFF70DFE03B000BD92
:1009300033040000C20F410040020123400ADB05DE
:10094000D207090EC0187F2901DA002070479629C6
:1009500003DC9623591AC84001E096398840002AE2
:10096000F4D040427047000070B5CD0F4A00090333
:100970000123090B1B0519430B4BED070024520DF6
:100980009A4201DA002070BD074B34339A4203DCEF
:100990009A1AFFF7A7FD02E00449511888402C433A
:1009A000F1D0404270BD0000FF030000CDFBFFFF0F
:1009B0004A0009030123090B1B051943094B10B514
:1009C000520D9A4201DA002010BD064B34339A4290
:1009D00003DC9A1AFFF786FD10BD034951188840C1
:1009E00010BD0000FF030000CDFBFFFFC20FD207C8
:1009F000400040080BD0C10D0723DB01C91840029D
:100A00000905400A1143C2084007114370470020FE
:100A100001467047CB0FDB07490010B54908024675
:100A20000A4307D00A0D07240903E401090B121B2E
:100A3000002A01DC002010BDC900440F0C43C10096
:100A4000E018D205801800F001F810BD002904DA82
:100A5000401C490001D140084000704770B4002498
:100A6000050C05D11024000402D1002921D0112445
:100A7000050E01D100020834050F01D10001241D2B
:100A8000850F01D18000A41C002801DB4000641CFC
:100A9000002908D020252E1B0D46F540A14000D08E
:100AA00001212943084301061B1B000ADB1D02D557
:100AB000002070BC7047DB05181880180029F8DA90
:100AC000401C4900F5D170BC400840007047000050
:100AD000F0B589B00023554CE34D01932068C00761
:100AE00068D05348A0620820009020600427276047
:100AF000A16839404B424B417D21C9000022DB07F0
:100B000004D0A3684B4803401B1DA3602B680893C7
:100B1000089B0B462668760705D42E68F603F61761
:100B2000F318F7D146E0236C43480340560007A86A
:100B300083532760A6683E4073427341521C022AC9
:100B4000DDD1002E26D1009820603C4800883C4929
:100B50004843FFF7C5FE009007AE7088FFF7C0FE60
:100B600001460098FFF70FFE3649FFF70CFE009094
:100B70003088FFF7B5FE01460098FFF7C7FD324900
:100B8000FFF701FE019B990002AA50505B1C052B48
:100B9000A3D113E0A068274A10401030A060286855
:100BA00008900898A068C006CDD52868C003C01773
:100BB0004118F7D10025284609B0F0BD002502AE46
:100BC0002C46E0B2800002A9085831680191FFF775
:100BD00042FE002801D02C460BE00094F8B28000C1
:100BE00002A908580199FFF728FE002800D12F46D6
:100BF000009C361D6D1C052DE3D1E0B28600F8B2D5
:100C0000870000242546A6420BD0A74209D002A89F
:100C100000590E49FFF7B7FD01462846FFF71DFDB5
:100C20000546241D142CEED1C5E7C0460024014022
:100C300002000200E8FFFF7FFF0F00007800F81FAE
:100C4000B80B000000F07F4500007A4400004040EF
:100C500010B582B03348017B00291CD0324CF921F9
:100C6000E1606168FA2901D300216160407B00F0F6
:100C700027F9012000022168014321608F490A6899
:100C80000192019A14220B68DB03DB179A18FAD140
:100C900021688143216002B010BDC046B0B582B06A
:100CA0002048017B00293AD01F4CF925E560616896
:100CB000FA2901D300216160407B00F001F91B4853
:100CC000E0606068C0087D2801D3002060600120DA
:100CD0000102206808432060784802680192019A66
:100CE0001E220368DB03DB179A18FAD12368224A15
:100CF00013402360E5606368FA2B01D3002363602F
:100D000023680B4323600168009100991E2103684A
:100D1000DB03DB175918FAD120681040206002B0BD
:100D2000B0BDC0461000002020000040E7030000D6
:100D300010B501200E490A68D20503D402020B68DF
:100D400013430B60C2040B4B1C6814431C601C68EB
:100D500094431C600B68084A13400B60ED3207494E
:100D60005358002B02D1121DFAD1002010BDC046ED
:100D70000070004050100240FFFEFFFF642800405A
:100D8000F0B589B001930292039106AD002129705C
:100D900005900678642130460491FFF7A9F9687040
:100DA0006321CF43784384190A2620463146FFF752
:100DB0001CFCA8705A3747433819E8700320039980
:100DC000411A8A0F8A1882438A1A3B4B1868000717
:100DD0000F980E9914D4394C25680795079D142552
:100DE0002768FF03FF177D19FAD11C68240707D471
:100DF000D2B206AB9C5C029DAC4219D3019C1AE0B6
:100E00001C68E4061DD42D4C25680895089D142502
:100E10002768FF03FF177D19FAD11B68DB0610D482
:100E2000D2B206AB9C5C019DAC4203D8029C02E0AE
:100E3000641C00E0641E9C5401220A700270FFF7DB
:100E400007FF1720C0430699414306A84278049B38
:100E500053435918827856438919C0780818059960
:100E6000087009B0F0BDC04610E000E0B0B581B038
:100E70000120C0030F49104A104B0C680442FCD0FB
:100E800014682407F9D51468E406F6D51C680094A4
:100E9000009C14241D68ED03ED172C19FAD10C6881
:100EA0000442EAD014682407E7D51468E406E4D5C0
:100EB00001B0B0BD100000501004005010E000E080
:100EC000F0B581B00B21FFF713F90C460F4F3868CE
:100ED000FFF722FD00250E4B2A46FFF701FA0D4BC6
:100EE0002A46FFF765FA05460E462046FFF714FD31
:100EF00002460B46FFF7F4F92A463346FFF7F0F9AE
:100F0000FFF756FD386101B0F0BDC0462C0000402F
:100F10000000E03F00005940F0B583B02B4801F0DD
:100F200045FF2B4D02242846214601F013FF29A03E
:100F300001F03CFF2846214601F00CFF294801F052
:100F400035FF2846214601F005FF0026274F284C93
:100F5000300710D11D4801F029FF02211C4801F083
:100F6000F9FE6D460A2128461F4A334603F058F918
:100F7000284601F01BFF3046384303786D460A21AE
:100F80002846224603F04CF9284601F00FFF761C54
:100F90000120C0028642DBD10C4C204601F006FF46
:100FA0000B4D02262846314601F0D4FE11A001F077
:100FB000FDFE2846314601F0CDFE204601F0F6FE4A
:100FC0002846314601F0C6FE03B0F0BDEC750008BE
:100FD00044730008454550524F4D2044554D503AFA
:100FE00000000000DB7300084773000800000808D9
:100FF00052730008454550524F4D2044554D5020E6
:10100000454E4400B0B501468D204400621C0520C9
:10101000012300F0EFF9242001F092FF0025FF20CA
:1010200001F0BAFF681CA9B2A1420546F7D30E34FD
:10103000002010230146224600F0DCF9B0BD00007C
:1010400070B52520C40000251023284629462246D5
:1010500000F0D0F9242001F073FF074EFF2001F0CB
:101060009BFF681CB5420546F8D3002010230146BB
:10107000224600F0BFF970BD7F120000F0B587B0C6
:1010800007240B46059423405B1CDB0804935B1C80
:101090000191C908029200F0ADF900273A46039287
:1010A0000225019839460C4606A90F70059908409B
:1010B00039468022C24011436D1E2A0603D0401CCF
:1010C0000828F6D100E03D46C84306AE3070242023
:1010D00001F036FF0121304601F08AFF611CE0B2C9
:1010E000049A90423846DED3039A521C90B2029979
:1010F0008842D4D307B0F0BD70B514461278637837
:10110000DD082B4600F076F92678242001F018FF40
:101110006E43A01C314601F06BFF70BDF0B58DB081
:101120000A92069105901878002800D1E8E01C4644
:10113000139E129F391D0791F11D039100250896FA
:101140000497010615D40B95002F25D03978401A45
:101150007A78B97813464B43DE087043079D281808
:1011600009908019FB787343EB18984250D90B9D76
:101170005EE0002E00D1BEE00CA900220A701146EC
:10118000034693401B0632D5521C491C052AF7D151
:101190000CA805210170AAE0002E4ED020284CD1C9
:1011A00005980B99081880B2B17872785608CF0864
:1011B000069932463B4600F01DF97E430ED00025CD
:1011C0000CAFFF203870242001F0BAFE0121384610
:1011D00001F00EFF6D1CE8B28642F1D80B980A9917
:1011E0004018089E717849084518049F83E00CAAAE
:1011F00011707F220A40042A21D0032A32D0022A09
:1012000075D16178002972D0641CC006420D35E0AA
:1012100005980B9D281880B2CB08069900F0EAF8D3
:10122000242001F08DFE0998314601F0E1FE7A7824
:101230000A9828188518089E5DE00B9D5BE062788F
:10124000002A54D0A378002B51D0E17800294ED049
:10125000E41C4007C00A9206920B10189A06120D61
:1012600082180BE06278002A41D0A17800293ED094
:10127000A41C0007000C9206120D12183F20084013
:10128000104334D0F178002931D00B957378B278BF
:10129000019300925343DA080292D21C099202236E
:1012A000DB43039EF55C2D04F21857783F027D194D
:1012B0009278AA18824207D0099AB618491EF1D12D
:1012C000089E049F0B9D12E005980B9D281880B284
:1012D0000099CB080699019A00F08CF8242001F0BF
:1012E0002FFE3046029901F083FE089E049F0A9863
:1012F0002818717845186078641C002800D020E711
:101300000DB0F0BDB0B582B00446364910220A6176
:10131000E94803680093009B01230568ED03ED177E
:10132000EB18FAD10A600168019101990121026864
:10133000D203D2175118FAD1012C04D0122001F097
:10134000FFFD01F07FFE0125284601F0F9FD272071
:1013500001F022FE284601F01FFE002001F01CFED5
:101360000C2001F0EDFDD72001F016FED62001F093
:1013700013FE9D2001F010FE112001F0E1FD284632
:1013800001F00AFE2C2001F0DBFD9A2001F004FEA2
:101390003A2001F0D5FD1A2001F0FEFD3B2001F0BE
:1013A000CFFD082001F0F8FD3C2001F0C9FD012C23
:1013B00008D0332001F0F0FD002C08D0022C0ED113
:1013C0000B4C05E0012001F0E7FD074C00E0074C65
:1013D000322001F0B5FD1E21204601F009FE02B0C9
:1013E000B0BDC04618000050406B0008226B0008DA
:1013F000046B0008F0B581B01F4600920C4606460B
:10140000442001F09DFD204601F0C6FDE019411E7B
:101410001F20084001F0C0FD452001F091FDFF2094
:101420002830851BEEB2304601F0B6FDE805C70F47
:10143000384601F0B1FD0098281A451CE8B201F0C9
:10144000ABFDE805C00F01F0A7FD4E2001F078FDCF
:10145000204601F0A1FD4F2001F072FD304601F061
:101460009BFD384601F098FD01B0F0BD80B522200B
:1014700001F066FDC62001F08FFD202001F060FD27
:1014800080BD000003480168C90701D00121016047
:101490007047C0461404014082B00DA001F086FCE4
:1014A0001248022101F056FC83480168019101991C
:1014B0007D21C9000268D203D2175118FAD1BFF3B7
:1014C0004F8F0B480B490160BFF34F8F00BFFDE703
:1014D0002A2A2A2A2A20494E20484152442046419D
:1014E000554C5421202A2A2A2A2A00004473000835
:1014F0000CED00E00400FA0580B582B06E4801688A
:10150000019101997D21CA006C490B685B0708D4E1
:101510000368DB03DB179A18F7D101F0B9FD00204F
:1015200000E0C868C0B202B080BDC046F0B583B06C
:1015300001917D23DD00504B5C6924045E4E14D480
:10154000009201221146D7021C68BC431C60324A3B
:10155000541C1F682740381818601868019F002F16
:1015600015D02A461832104312E034680294029CC7
:101570002C465F69FF07E3D13768FF03FF173C196B
:10158000F7D101F085FD002841D1012440E0104051
:1015900018600C4608061A6882431A60FF2000048F
:1015A0001A688243009800041018186048061A68E8
:1015B00082431A6048031A6802431A603068029036
:1015C0000298002F18D0002D1DD05869400718D45C
:1015D0003068C003C01745195869C006F3D598692B
:1015E000102101439961032412E03068C003C01741
:1015F00045195869C006F2D4002D04D05869C007B7
:10160000F3D0002404E001F043FD002800D00224C0
:10161000204603B0F0BDC046FFFBFFFF10B582B00F
:1016200025480168019101997D21C900124A0B46A4
:101630005469E40705D10468E403E417E318F7D11B
:101640000FE001239B0314681C431460036801939B
:10165000019B53691B040CD50368DB03DB17591886
:10166000F7D101F015FD002801D0022002E0012091
:1016700000E0002002B010BD0454004010B582B05C
:101680000D490A680192019A7D22D3000B4A146821
:10169000E4070AD10C68E403E417E318F7D101F07A
:1016A000F7FC002804D0022003E01061002000E0D5
:1016B000012002B010BDC04610E000E01854004008
:1016C000F0B584B00C68002C55D001230193039130
:1016D0005A1E019F9740274048D04A68551E022D48
:1016E00002943D4615D27D4303998C686C430326D2
:1016F0006E438168B143214381600399C9680092B8
:10170000029A514344689443009A0C4344600399FD
:1017100002E07D4303266E43F64309696943C468CA
:1017200034400C43C460022A029C19D13C0A01D007
:10173000242200E0202203994F6902928258002C53
:1017400002D06443644301E02C466C430F216143A3
:101750008A43674317430299475003990C684A68C4
:101760005543016831402943016003992246DA401C
:101770005B1C002AACD104B0F0BD0000B0B5012262
:1017800013020E48416899434160046804210C43E8
:101790000460046808252543056044681C434460D0
:1017A0005202036813430360026802231343036079
:1017B000034802680A43026030BFB0BD00700040B9
:1017C00010ED00E0ABB0EB48007801280BD0032807
:1017D0000CD002281BD10F2001F05EFA40B2002885
:1017E00001D500F019FDFFF7A3FA10E00F2001F07A
:1017F00053FA800702D400F00FFD08E00F242046C2
:1018000001F04AFAFD210140204601F062FA012070
:101810000E9001020D911331D748D8A201F034FB8C
:10182000DC4801F0D1F988200026022531462A46FD
:10183000FFF77CFE002877D12C20FFF71FFF002840
:1018400072D10620FFF71AFF00286DD188200121F0
:101850000622FFF76BFE002866D10024FFF74CFE3E
:1018600012A90855641C062CF8D1FFF7D7FE0028F2
:101870005AD112AA511CFF241378634000245F0040
:1018800031201B0600D54740FBB2671C072C3C46A5
:10189000F5D3541C8A4222461C46EDD112A9897800
:1018A000994241D112AA111DD21CFF241378634022
:1018B00000245F001B0600D54740FBB2671C072CC5
:1018C0003C46F6D3541C8A4222461C46EED112A84E
:1018D0004079984228D112AF3879F978090208186E
:1018E000FFF706F80024AC4B2246FEF761FDAB4B38
:1018F0002246FEF7F5FCFFF78DF8A9490860388805
:10190000000400BAFEF7F4FF2246A34BFEF750FD99
:10191000A44B2246FEF7E4FCA34B2246FEF72EFC26
:10192000FFF778F8A14908600E24204601F0B4F9C9
:10193000FB210140204601F0CCF9F01DC4B2204645
:1019400001F0AAF97F210140204601F0C2F9761C7E
:10195000042EF2D10E26304601F09EF90146FE24F7
:101960002140304601F0B5F90F26304601F094F9D8
:1019700004403046214601F0ACF9002738460B30D0
:10198000C6B2304601F088F9014680242143304632
:1019900001F09FF97F1C032FF0D10E26304601F095
:1019A0007BF905433046294601F093F90F25284677
:1019B00001F072F9FD210140284601F08AF9304614
:1019C00001F06AF9042101431196304601F081F9D2
:1019D00077480168C90703D001680E9A91430160F6
:1019E0007449202008610E990803734A9061C80267
:1019F00090607248056872492846FEF72CFF06463B
:101A00000C952846FEF7F2FF002E07D107460D463B
:101A10006C4A6D4BFEF72DFF002806D1FFF758F8F2
:101A20000C90FEF7E3FF07460D46684A684B3846C0
:101A30002946FEF734FF674F002800D107E1554BD8
:101A40005979481EC0B20B280DD81A79501EC0B261
:101A50001E2808D87D2000019B7918185E4BC618F7
:101A6000C82E00D28EE25D48002101705C480170F2
:101A70005C4801704A48006811904C4800680F901B
:101A800001F03AF802263046FFF73CFCFFF7D8FA9F
:101A9000FF25049508350595213500271C2138467A
:101AA0002A46FFF7EBFA682138462A46FFF7E6FA9E
:101AB000D52043214C22FFF7E1FACA200421082354
:101AC0000A9132460F9E0B93FFF794FC304639463D
:101AD000FEF7A5FE05463046FEF788FF02460B4698
:101AE00041494248002D00D101463648FEF746FBE9
:101AF000FEF73AFF0790FEF7E8FE01463046FEF794
:101B0000FDFD3B49FEF702FE0990119E3046394625
:101B1000FEF785FE05463046FEF768FF02460B4697
:101B2000002D314900D131492648FEF727FBFEF749
:101B30001BFF0690FEF7C9FE01461198FEF7DEFD79
:101B40002B49FEF7E3FD089038463B4610940F9072
:101B5000072038271946119112A90B701946224601
:101B6000C24011437F1E3A0644D0401C0828F6D1DB
:101B700041E0C04605000020AE7500084265676977
:101B80006E20686F6D657061676520757064617443
:101B90006500000024010020E0FFEF4000005940F4
:101BA0000800002000E06540008046C00C000020D6
:101BB000005400401804005010000050502800400D
:101BC0000000A0409A9999999999B93F33333333DA
:101BD0003333EB3F10ED00E030F8FFFF0200002050
:101BE00004000020000000209999A9BF9999A93FFD
:101BF000000020411F46C84312AE307024201C460E
:101C000001F09EF901253046294601F0F1F92346FD
:101C1000109C1198411C072818469CD30F99481C0A
:101C2000002994D0FB48466830460C99FEF7E9FD40
:101C300007460998FEF77EFE04460898FEF77AFEEE
:101C4000002F109011940CD10021F34A46E0F9487E
:101C50006121F94A01F018F9FFF790FD0D9EF24C51
:101C600041E112A8FB496222FEF7D3FC0C983146F1
:101C7000FEF744FD0446F8483146FEF73FFDF749BC
:101C8000FEF781FD01462046FEF77DFDFEF7AEFE24
:101C90000024F34B2246FEF771FAFEF765FE142886
:101CA000014600D314210028E94F2E4600D00E46ED
:101CB000002E049D10D012A8553039184A5DF82323
:101CC00013404B55421E147002781F2313400370BB
:101CD000FE31761E0846F0D1002112AA0598FFF7C2
:101CE0000BFA0D9FCE4EB379F0787179327901926B
:101CF00000918000DB4908180290DB4CDBA22046F3
:101D0000394602F08DFADF4D0195DF480090002042
:101D1000012201462346FFF701FA307A002815D048
:101D2000F079002808D0D8480090D64D01950020C1
:101D300009210222D5A307E0D3480090D14D019597
:101D4000002005210222D2A3FFF7E8F9B3787078CA
:101D50000090C54CCFA22046394602F061FA307A95
:101D60000195CF490091002801D0222000E01620E3
:101D7000079E119D052106222346FFF7CFF9092072
:101D8000C043864202DCB848CCA208E0632E04DCE3
:101D900068B20090B448C6A201E0B348C1A2394677
:101DA000334602F03DFA069CB648B74900910190CF
:101DB000D52005250026AC4B29463246FFF7AEF963
:101DC000632C05DC109840B20090A748C1A201E046
:101DD000A548BDA20D9F3946234602F021FAA94825
:101DE000A94900910190D52009219F4C32462346F4
:101DF000FFF794F99448007807214143B848401808
:101E000090490978914A127801900A205043B54AC6
:101E1000101800908800B4490B18B4A22046394627
:101E200002F0FEF9B548009601900E2102223046DC
:101E30002346FFF773F9FFF719FBB1480168A9437F
:101E4000016001680660AF4A426102682A4302608D
:101E5000774B1A680A9DAA431A60AB4A13680B9C19
:101E60002343136030BF01607248B821A7A201F07C
:101E70000BF8FEF72DFEA8490A683A423E4602D109
:101E80000A6832430A60694A10600868704B18405B
:101E9000086010686748BD21A0A200F0F5FF22206D
:101EA00001F04EF8032001F077F8202001F048F807
:101EB00001F0C8F81024204601F042F8012001F09A
:101EC0006BF898480168490603D5016840229143A0
:101ED00001605548846104460B98A0614020A061D0
:101EE00050480560524F314615314C488E4A00F03B
:101EF000CBFF0E98C0038D4D21680142FCD02968AC
:101F00001291129914212A68D203D2175118FAD1CA
:101F100021680142F0D031461931404C844A2046B4
:101F200000F0B2FFFFF72AFC31461E31814A2046FD
:101F300000F0AAFF2868129012987D20C00029683E
:101F4000C903C9170818FAD131462031334C7A4AEF
:101F5000204600F099FFFFF711FC31462231754A07
:101F6000204600F091FF2336744A2046314600F0A7
:101F70008BFFBFF34F8F381F71490160BFF34F8F45
:101F800000BFFDE7F51CAF002C4BDB590F9343025C
:101F90004F011F4317430F9BBB4200D9B51C274B72
:101FA000AE009F5900F016FF05461F223A40F80286
:101FB000000DF905090F00F00DFF281A401C2049FB
:101FC0008B59D9030A0F0D250E996D1E0E9EAE403A
:101FD0001E40EE40012E01D01D2600E01E2687B2D5
:101FE000BE4204D2801B491C002DEED11199154B25
:101FF00000251D70002A08D0CDB2AA4205D2521C7D
:10200000AA4201D101221A70491E0F4A10700F48CE
:102010002FE5C04610000020A26A0008AE75000837
:1020200024010020180400501000005050280040E7
:1020300010ED00E0BC75000857740008147000082B
:10204000E46C0008000000200200002004000020D2
:10205000FFFEFFFF406A0008000040400000A04172
:102060000000E03F376C00082400002032253033A8
:10207000642F25642F2530326420E6989FE69C9FCC
:1020800025730000576100084D470008504D0000BF
:10209000414D0000253032643A25303264000000A2
:1020A000AD5400082530336420E284830000000032
:1020B000253032642E2564E28483000025303264AA
:1020C00020E28483000000002530336420EFBC85CB
:1020D00000000000253032642E2564EFBC8500002E
:1020E0005E6B00085F6C0008576C0008E5869CE595
:1020F0008E86EFBC9A25732573257300D05C00088B
:1021000000040140FFFF7B00002002404558495475
:1021100020534C454550000000700040414443208E
:102120004F4B0000003001407E74000810E000E0DA
:102130003B7400081B7500088E7500087675000852
:102140000400FA05F0B587B02D4908680224204341
:1021500008600868204006900127059704970397B8
:1021600003260296019440200090069825486D466B
:102170002946FFF7A5FA0597049701A8D0C080204B
:10218000009020482946FFF79BFA78051C4AD16841
:102190000143D160D16801400691069879061A483A
:1021A00042680A434260C26818490A40C260FA04A1
:1021B0000368934303607A040368934303600268EF
:1021C000BA4302601F221202036893430360104A5D
:1021D000026102683A43026082680A408260826853
:1021E0000C4B1A40826032050468944304604268D4
:1021F0000A404260591CC2680A40C26007B0F0BD84
:102200002C1002400004005000540040FF7FFFFFEC
:102210000B02100000F8FFFFF0B59FB0FEF73EFD87
:1022200000F06AFC02200990FFF76CF8FEF708FF47
:10223000C148002500950190C04B284629462A46F2
:10224000FEF76CFFA1201690BD4C29462246FEF7F2
:1022500053FFD120159029462246FEF74DFFFF205F
:1022600002300646129029462246FEF745FFB54841
:10227000009501900446952014900127B24B3946F1
:102280002A46FEF74BFF00950194CD201190AF4BED
:1022900039462A46FEF742FF00950194FD20109032
:1022A000AB4B39462A46FEF739FF324627320F92AA
:1022B0001B210E912846FEF7E1FEFFF7D7F83A0200
:1022C000A44E7168179291437160316804200A909E
:1022D00001433160A04802680524A24302600168FE
:1022E0000D9105609D4B4361036807942343036090
:1022F0003A467B0234681C433460F903984C2768E3
:1023000013910F432760346814433460346809988C
:1023100084433460934C27680A980743276030BF92
:102320000D988D4908603168994331601646104612
:10233000FEF7E8FFFEF784FE222000F001FE099878
:1023400000F02AFE202000F0FBFD00F07BFE00954F
:1023500079480190284629462A46784BFEF7DEFE4A
:1023600016982946764C2246FEF7C6FE1598294651
:102370002246FEF7C1FE129829462246FEF7BCFE11
:102380000095704C0194149831462A466E4BFEF726
:10239000C5FE00950194119831462A466B4BFEF715
:1023A000BDFE009501941098089631462A46684B68
:1023B000FEF7B4FE2E4628460E990F9AFEF75EFEF3
:1023C000FEF754FD1AA800F0FFFB0F20039000F069
:1023D00063FC40B2002803D41AA84079002805D134
:1023E00061481AA90CC80CC10078087018A80670BA
:1023F00019A8089901701AA8811D0F91411D0E910D
:10240000011D0D91C11C0691C11D059101460831A8
:102410000491811C0C91401C0B90544C139F20681C
:1024200038421AD1524A10681D901D981420116824
:10243000C903C9170818FAD1206838420DD118A865
:102440000121017019A801702546F4B2FEF700FCC5
:10245000102C2C46139F1BD8761CF0B2112800D9E3
:1024600031E14000784480884000874411001B001F
:102470002900350041004D00590083008F009B006A
:10248000AC00B900C500D100DD00E900F50009018C
:1024900019A8019018A800900221012200260F9887
:1024A000334670E019A8019018A800900922002373
:1024B0000F982546089E3146FEF762FC139F02E105
:1024C00019A8019018A80090092200210F980B4626
:1024D000FEF756FC099EF6E019A8019018A8009096
:1024E000012100230E980A46FEF74AFC0326EAE083
:1024F00019A8019018A80090092200210E980B46F7
:10250000FEF73EFC0A9EDEE019A8019018A8009094
:102510000121032200230D98FEF732FC079ED2E032
:1025200019A8019018A80090092200210D980B46C7
:10253000FEF726FC0626C6E057610008D2750008A3
:10254000336A0008D05C0008E6750008E2750008F0
:10255000CE7500080070004000040140FFFF7B00C2
:102560000C10024010ED00E044470008100000503D
:1025700010E000E019A8019018A80090002107269B
:10258000012306983246FEF7FBFB9CE019A8019058
:1025900018A800900122002104980B46FEF7F0FBDA
:1025A000082690E025461AA8047A19A8019018A8D0
:1025B00000900122002105980B46FEF7E1FB002C5C
:1025C00072D0092671E01AA8007A002870D019A8E4
:1025D000019018A80090012100230C980A466FE092
:1025E00019A8019018A80090092200210C980B4608
:1025F000FEF7C6FB0B2666E019A8019018A800900C
:102600000121052200230B98FEF7BAFB0C265AE0A5
:1026100019A8019018A80090092200210B980B46D8
:10262000FEF7AEFB0D264EE019A8019018A8009009
:102630001AA8012105220023FEF7A2FB0E2642E084
:1026400019A8019018A800901AA8092200210B4689
:10265000FEF796FB0F2636E0F748006810260007C5
:1026600031D4F64A10681D901D9814201168C903D2
:10267000C9170818FAD1F0480068000723D447E1C9
:10268000ED480068112600071DD4EC4A10681D9023
:102690001D9814201168C903C9170818FAD1E64813
:1026A000006800070FD4A2E10A26139F2C460AE017
:1026B00019A8019018A800900121022200230C986B
:1026C000FEF75EFB0A2619A80078002800D1E1E099
:1026D000D9480068C00700D0DCE019A800250570C3
:1026E000FE203040102810D10095D04F0197C52012
:1026F000012421462A46D6A3FEF710FD0095019736
:10270000FD2021462A46D4A317E00095C74F019724
:10271000C520012421462A46CA4BFEF7FFFC00953E
:102720000197CD2021462A46C7A3FEF7F7FC009566
:102730000197FD2021462A46BD4BFEF7EFFCBA4F1C
:102740001696F0B215901AACA37960792179E278E7
:1027500000AE07C6C14E30461799C1A201F060FD18
:10276000C7480090019707200421052214903346A2
:10277000FEF7D4FC207A00281AD03046C1A11CC92B
:102780001CC01CC91CC00A88028089788170BC48A2
:10279000009001970520082100223346FEF7BEFC79
:1027A0001AA8C079072200281AD03046BCA119E027
:1027B0003046BFA11CC91CC01CC91CC00A880280AD
:1027C00089788170AE480090019705240821002285
:1027D00020463346FEF7A2FC30469A49224601E0E5
:1027E0003046B1A1FDF715FF0095019705270C2490
:1027F000384621462A463346FEF790FC1AA88378CD
:10280000417800780091019030461799AFA201F00D
:1028100007FD9B480090844801903A2021463A46A3
:102820003346FEF77BFC0095804E0196D3200D24A5
:1028300021462A46A9A3FEF771FC0095019612983D
:10284000401C21462A46A7A3FEF768FC15990229D9
:1028500003D811204843183004E0042925D811205A
:1028600048433530149C0646724D139F0720FEF7EF
:10287000C9FB0B20FEF7C6FB0F20FEF7C3FB11962A
:10288000B0B21094E1B29A4AFEF736FCFEF7EEFDC4
:10289000169E2C4618A80078002800D1BFE5FEF748
:1028A000E5FA18A800210170B9E50629614D139FCA
:1028B00004D811264E435236149CD7E7092906D076
:1028C000082906D0072907D1129E1336F4E71726E8
:1028D0001CE084260B24C9E70B2903D811264E439C
:1028E000703E13E00D2903D811264E435F3E0DE0E4
:1028F0000F2903D811264E434E3E07E01129119EA1
:10290000109CB3D82F20484378494618039CADE764
:1029100019A80025057018A805701DAC1A9820701C
:102920001AA8417861708178A1701B992171417951
:1029300061718179A171C078C01D0721FDF7D8FBB5
:10294000481CE070062D0AD11DA88079642806D3A2
:1029500064381DA988714879802202434A711DAEEE
:10296000745D0A212046FDF7C3FB0921C943414399
:1029700061180001084370556D1C072DE2D11AA89B
:10298000007A00280DD01DA98A781F201040024629
:1029900040328A701AA9C979002902D060301DA975
:1029A000887007201DA900F0B1F9002814D10E2568
:1029B000284600F071F901467F242140284600F0A6
:1029C00088F9002808D10F25284600F065F9044051
:1029D0002846214600F07DF90F24204600F05CF9DE
:1029E0007F210140204600F074F9124C04E019A840
:1029F0000021017018A8017011480168490603D52B
:102A000001684022914301601020A0610820A0616C
:102A10004020A0610A9808498860FEF73FF9FEF758
:102A200025FA1FB0F0BDC04657610008D05C000811
:102A3000CE750008100000501004005010E000E0B7
:102A4000003001404D730008E58AA02020000000FE
:102A5000E98089E68BA90000E7A9BA0024000020DC
:102A60003225303364E5B9B425303264E69C8825DC
:102A7000303264E697A520E591A8256400000000A7
:102A80004D470008E697B6E997B4E6A0BCE5BC8FD1
:102A9000EFBC9A3132E5B08FE697B6E588B6000014
:102AA000E4B88BE58D880000E4B88AE58D880000E5
:102AB000E697B6E997B4E6A0BCE5BC8FEFBC9A32C6
:102AC00034E5B08FE697B6E588B60000253032646D
:102AD0003A253032643A253032640000E4BF9DE587
:102AE000AD980000E58F96E6B6880000EDFDFFFF8B
:102AF000256A00087047704781B0104804210160C2
:102B00000F494020086008220A6010220A606946C6
:102B100064220A800A880988002A06D0491E6A466B
:102B2000118013881188002BF8D106490A685206D3
:102B300002D40A6802430A6001B0704728040050BA
:102B4000180000500030014080B51849C8680007DF
:102B5000820F17487A441279520097440108250DD4
:102B60000120000449680904490F884080BD0868B5
:102B7000C00609D5104880BDCA68D20307D40868CA
:102B8000C00603D50C4802E00A4880BD0948CA685F
:102B90009202120F09A39A5C4243C8680002800F98
:102BA000411C1046FDF7A4FA80BDC046001002404B
:102BB00000127A000024F40000093D000304060816
:102BC0000C1018203000000070B50446D020002101
:102BD0000122FEF7ABFC00280DD100263046FEF79F
:102BE0004DFD002807D1D020012507222946FEF7F8
:102BF0009DFC002804D009212046FDF723FD70BD6F
:102C0000FEF77AFCA055761C072EF9D1FEF706FDDB
:102C1000002001467F220A40022A05D0052A0CD155
:102C20002256002A14D520E0225C520607D4002246
:102C3000E2712272235C3F2208E0225C08E02572E8
:102C4000225C9206D20FE271235C1F221A402254AA
:102C50000F231340D2B212090A265643F218225407
:102C6000491C401C0728D5D10EE00F21D3060A408D
:102C7000DB0F0A256B439A182254A0790140000902
:102C8000684308186430A071E0780C300721FDF724
:102C90002FFA481CE07070BDB0B50546D020002466
:102CA00001222146FEF742FC002810D12846FEF7FB
:102CB000E5FC00280BD1D02001210A46FEF736FCA6
:102CC000002804D1FEF718FC0446FEF7A7FC2046B6
:102CD000B0BDF0B581B00E460746D02000240222D8
:102CE0002146FEF723FC012500280CD13846FEF7CB
:102CF000C5FC002807D13046FEF7C0FC002802D1F1
:102D0000FEF78CFC2546284601B0F0BDF0B581B039
:102D10000C460546401CC2B2D0200021FEF706FC3E
:102D20000127002813D100263046FEF7A7FC002813
:102D30000DD102E0641C6D1E06D02078FEF79EFCCB
:102D40000028F7D0012700E03746FEF767FC384639
:102D500001B0F0BD70B581B0CA4A13680093009B02
:102D60007D23DB00104C002913D01D462668360653
:102D700005D41668F603F6177519F7D111E040254A
:102D800065600578E56015680095009D491E401C4A
:102D9000E9E72068400604D41068C003C017C318D0
:102DA000F7D101B070BDC0461C38014080B5017834
:102DB00000290AD0421C0021491CC9B21378002BFB
:102DC00004D0521CFF29F7D100E00021FFF7C2FF19
:102DD00080BD7047F0B581B000920A4605460932C1
:102DE0000C211046FDF784F90E460A27084639469D
:102DF000FDF77EF90446992040007043401D394696
:102E0000FDF776F900990818291B8CB2A108401823
:102E1000FF216E316143451864212046FDF768F9B2
:102E20002D1A192001012046FDF762F92818401ECD
:102E3000C11701B0F0BD7047012002020E490B68B6
:102E400013430B60CA680D4B1340CB600A680C4BF0
:102E500013400B608A6882438A6082040B68934344
:102E60000B60FD221204CB689343CB6000220A6101
:102E7000C006044908607047001002400C40FF88FB
:102E8000F6FFF6FE08ED00E070B584B014460D467E
:102E9000064613A0FFF78AFF15A0FFF787FF17A0CC
:102EA000FFF784FF1AA0FFF781FF3046FFF77EFF90
:102EB0001AA0FFF77BFF01AE0B211BA230462B4669
:102EC00001F0AEF93046FFF771FF18A0FFF76EFF73
:102ED0002046FFF76BFF18A0FFF768FF04B070BD36
:102EE0000D0A2A2A4445425547205052494E540063
:102EF0000D0A46494C4520203A2000002E2E2F5323
:102F000072632F555345522F66756E632E63000012
:102F10000D0A46554E4320203A2000000D0A4C4928
:102F20004E4520203A200000256400000D0A494E3D
:102F3000464F20203A2000000D0A0D0A0000000034
:102F400070B584B03E4D0821296101A90870402662
:102F50002E6103A80124048001880088002906D07E
:102F6000401E03A908800A880888002AF8D101A811
:102F7000214601F021F902A8048001880088002977
:102F800006D0401E02A908800A880888002AF8D1C5
:102F90002E6004B070BDC04670B584B0284D0821C5
:102FA000296001A9087040262E6103A8012404802D
:102FB00001880088002906D0401E03A908800A88DD
:102FC0000888002AF8D101A8214601F0F5F802A8E6
:102FD000048001880088002906D0401E02A90880CC
:102FE0000A880888002AF8D12E6004B070BDC04657
:102FF000F0B583B0124C082222604025256102AA58
:103000000126168013881288002B06D0521E02ABB0
:103010001A801F881A88002FF8D101F0CDF801A876
:10302000068001880088002906D0401E01A908807A
:103030000A880888002AF8D1256003B0F0BDC04690
:103040001800005082B001A80A2101800188008880
:10305000002906D0401E01A908800A880888002A95
:10306000F8D163480168009100990749074A13683D
:10307000DB0705D00368DB03DB17C9180B04F6D1A7
:1030800002B0704710E000E010270000100400506C
:10309000F0B587B0514C216820680127B843206003
:1030A000394004910A202168C90701D0401EFAD195
:1030B00078054B490A6802430A600A6882430A603D
:1030C00048480168484A1140BB03C918016041687B
:1030D000802631434160C1681140C918C160016850
:1030E000424B19403D034919016041684022114398
:1030F0004160C16819404919C160019686618261C9
:1031000006A964260E800B880988002B06D0491E6C
:1031100006AB19801D881988002DF8D10020039076
:10312000C04302902F48016909062BD40097304B09
:103130001968059105997D21CF00002F25D01968C8
:103140002848826206AD2E80C9032C882D88002C69
:1031500003D06C1E06AD2C80F7E7C91721488261A9
:1031600006AC268020882588002803D0681E06AC7F
:103170002080F7E7CF191B4800690006DDD5039DC5
:10318000029E04E0039D029E1AE0039D2E46154810
:10319000019A8262186806900698009F39460F4C83
:1031A0001868C003C0174118FAD10E488261186828
:1031B0000690069801201968C903C9170818FAD1A2
:1031C000FEF7C0FF0498002802D020683843206032
:1031D000E843301A411E884107B0F0BD005400405A
:1031E0002810024000040050FF3FFFFFFFCFFFFF09
:1031F00010E000E000B59FB0104D686B0122104355
:103200006863686B1040189018981107A86B084302
:10321000A863A86B0691084018901898084B986905
:1032200020210F91084310210D9188439861054892
:10323000001F01689143016006E0C0460010024093
:1032400008000140042002400168C907FCD10323A3
:10325000D802054E31688143D002109008183060C2
:1032600028681043286001E000700040286840078B
:10327000FCD51F20000269688143100313900818D1
:103280006860E868802108910843702103918843B1
:10329000E86007263002E9688143E9600796F0029A
:1032A000E9688143E960E868104302211691884388
:1032B000E860E8680C2101400429FAD1A649A74832
:1032C000486000278F6005250D60D9431591A448FB
:1032D000C06C0840A249C864A148C06CA14908401C
:1032E0009F49C8641D971C971B971A979C48C06AF2
:1032F000042420439A49C8629948C06A20400E9429
:103300001E901E989648C06A10439549C86294481A
:10331000C06A10401E901E989148C06A169E3043A5
:103320008F49C8628E48C06A30401E901E9804952E
:103330002D0708201190A8620D98A86217924020CE
:103340000A90A8621398A86287490F988862179814
:1033500000020B9088628C61A8611098A8611C978C
:103360001993179880030C90189014937F4E18AC03
:1033700030462146FEF7A4F91C9714981990179827
:10338000C003059018903046149E2146FEF798F928
:103390001C971B971A961798199011981890284601
:1033A0002146FEF78DF91C971B971A9717981990CD
:1033B0000D981890284612952146FEF781F91C9722
:1033C0001B971A96179819900A9818902846214624
:1033D000FEF776F91C97199616981890624E3046AB
:1033E0002146FEF76DF91C971B971A97179D1995A3
:1033F0000E98189030462146FEF762F91C971B97ED
:103400001A9719950B981890129E30462146FEF790
:1034100057F91C971B971A971995109818903046D2
:103420002146FEF74DF91C971B971A97199513988B
:10343000189030462146FEF743F91C9719970598D6
:10344000189030462146FEF73BF91C9719971198C2
:103450001890454E30462146FEF732F91C971997D1
:103460000D98189030462146FEF72AF91C971B97B5
:103470001A9719950F98189030462146FEF720F9B3
:103480001C971B971A9719950B9818903046214650
:10349000FEF716F9364A106828430E21884310605B
:1034A000F168169B1943E8430140F1603168159AB1
:1034B000114031602F4A5168014051601168294321
:1034C0001160916801409160D0682843D0602A481B
:1034D000BF302A490A6802400A6029480F990160F2
:1034E0001D971C971B9715971A97129A1C4C6902E7
:1034F000606B08436063606B099108401E901E98E2
:10350000E06A2843E062E06A28401E90149819900F
:103510001F4618931E9818A91046FEF7D1F8194BAC
:10352000986A38439862A804996A01439962164FD1
:10353000386816490840EA05019280183860680426
:103540009A6A02439A6238680840A90540183860B0
:103550009868C00720D11BE010E000E03F1F00008A
:1035600000100240FFCFFFFF000400500008005091
:1035700008000140000401404000FFFF04E400E0B7
:1035800000E100E00024014008270140FFFF3FFF69
:10359000D868F9490140D9605869079908435861CA
:1035A0001869A84318610E98C043D9680140D960D2
:1035B00069063A688A433A60596801405960586818
:1035C0001199884358609868EC4908400699084367
:1035D0009860A8070A909868C0070AD1D868E84997
:1035E0000140D96014988007196981430A98014302
:1035F0001961FEF7A7FD606B139908436063606B68
:10360000084018901898E06A2843E062E06A284071
:103610001E90159D1D951C951B95149F1A97169E1F
:1036200019960F9818901E9818A90291129C20467E
:10363000FEF746F81D951C951B951A971996089844
:10364000189020460299FEF73BF87D20179BC50095
:10365000CC48016849060E9C09D40168CA4A114049
:103660002A46E13A0A4302604168A1434160C169C8
:10367000109A9143C16141680D9A91434160C34FD3
:10368000786B0C9908437863786B08401890189809
:10369000F86A1843F862F86A18401E901D940C9559
:1036A000159E1C961B96149D1A95169819900998AC
:1036B00018901E9818AC129F38462146FEF700F865
:1036C0000E981D901C961B961A95169819900C989A
:1036D0001830189038462146FDF7F2FFAC4D2868A7
:1036E000C007AC4CA94F119B46D12868AA4901409C
:1036F0000C3129606868A94908406860204670302C
:10370000A9680140A960F86C1499084009044018A0
:10371000A349884208D0A34988420AD0A2498842D6
:1037200011D1FFF711FA1CE0386D800105990840AE
:1037300018E0386840071FD53868C00601D400F08B
:10374000F5FC9A4810E0FFF7FFF9F968FA6892046F
:10375000520F97A39A5C0906090F97A3595CC840BA
:10376000D040119B002807D0E1210A0280184902AD
:10377000FCF7BEFC119BE8600920C0026968814328
:103780006960A8682A218843A8602868179E30438A
:103790002860B86B3043B863B86B30401890189805
:1037A0000A9D286820402860F9200590E862079863
:1037B000A8626869304368610898C043296801407D
:1037C0002960A968804A0A40AA60E9691943E96149
:1037D000296A7E4A11402962296A6A68EB696A602F
:1037E00060221A4313239A43EA617C22EA6370340D
:1037F0000C4009990C432C62E9690E9B9943E961DD
:103800006968039A91436960A9680140A960F86AF0
:103810003043F862F86A30401E90169C1D9415984B
:103820001C901B901A90199418931E9818A912981E
:10383000FDF746FF66A0FFF7B9FA6D482146FFF78E
:1038400089FA6C4C20681890189814202168C903D4
:10385000C9170818FAD1684A10680499884310609B
:10386000664A906930210E9188439061386D00015D
:103870000C9D16D4386D000E00D1DFE06049086859
:10388000119A104308605F4801210170386D019959
:10389000084338655C48D4215CA2FFF7F5FA129F13
:1038A00011E057490868119A104308605548169965
:1038B0000170386D019908433865129F5248D12133
:1038C00056A2FFF7E1FA1098B86258480F99816143
:1038D0001398B86118A9142008800A880988002A5A
:1038E00006D0491E18AA118013881188002BF8D120
:1038F0001399B96218A908800A880988002A06D095
:10390000491E18AA118013881188002BF8D1139929
:10391000B961216818911899169A2168C903C917C5
:103920008A18FAD142490A68D207424F03D10A687D
:10393000012313430B60B968C9073F4900D1ADE0CB
:10394000BA68520700D597E0BA680A4002231343C9
:10395000BB6022681892189A2A46BB68DB0705D01C
:103960002368DB03DB179A18F7D197E03E60BA684B
:10397000024B1A40BA6091E03CC2FEFFE8FFFF6FC5
:10398000C73FFFFF003001404000FFFF0010024032
:10399000003801408FFCFFFFF369FFEFFFCFFFFF0F
:1039A00003000300020003000100030000093D00C2
:1039B00000000000010203040000000000000000FD
:1039C0000102030406070809F8BFFFFFFFFEFFFF1F
:1039D0000D0A0D0A2A2A2A2A2A2053595354454DE2
:1039E000205245534554202A2A2A2A2A0D0A00002B
:1039F0004473000810E000E00004014008000140AA
:103A00000070004005000020B77500084E6F726D11
:103A1000616C20726573657400000000506F7765FB
:103A200072206F6E20726573657400000004005090
:103A30000054004000240140E8FFFF7FF04A506836
:103A40001168119B194311608007C0171499084031
:103A5000EC490870396D019A11433965012800D18C
:103A600018E70328129F00D15BE3022800D125E765
:103A7000E548DA21E5A224E7BA680A400D9B1A431B
:103A8000BA6022681892189A2A46BB68DB0600D4EE
:103A90005AE72368DB03DB179A18F6D1BA68D20716
:103AA00025D1109A3A60BA680A400B46183313437E
:103AB000BB6022681892189A2A46109D3B682B42D8
:103AC00005D12368DB03DB179A18F7D10FE03D60BF
:103AD0001EAA0223138013881288002B06D0521EC0
:103AE0001EAB1A801C881A88002CF8D1CB4CBA68FF
:103AF000D2072CD101223A60BB68C94C2340069CF6
:103B00002343BB60149B9B05C64D2C681C432C6053
:103B100018AB64241C801C881B88002C06D05B1EFC
:103B200018AC238025882388002DF8D1BB680B4072
:103B30001343BB60B94C2168189118990C993A68E5
:103B4000D20704D12268D203D2175118F7D10A9AAA
:103B5000116AB54B194011621599516211683143D0
:103B60001160A8490978B14F012900D09EE2B049FF
:103B700009690907AF4A1CD421681891189921686E
:103B8000C903C9170818FAD1A9480069000710D459
:103B9000A7480069C0060CD4206818901898142013
:103BA0002168C903C9170818FAD1A1480069C006DD
:103BB00004D55068C0B2AA2800D077E20A9E0598C2
:103BC000F062706AFA2801D3002070620320FDF7CA
:103BD00077F9306A0B9D2843306220681890189856
:103BE00032202168C903C9170818FAD1306A8E49F2
:103BF0000840306220681890189832202168C90364
:103C0000C9170818FAD1306A284330622068189022
:103C1000189832202168C903C9170818FAD1306AE8
:103C20008149084030622068189018983220216835
:103C3000C903C9170818FAD1306A284330622068CE
:103C40001890189832202168C903C9170818FAD1AA
:103C5000306A7549084030622946D131764C774A3E
:103C60002046FFF711F92946D23175A22046FFF709
:103C70000BF977A018A90A462F4678C878C20078B1
:103C800010701120FFF742F83946002803D1D931CE
:103C90006948744A02E0D5316748734AFFF7F4F87F
:103CA000724D3946DB316448714AFFF7EDF88820E0
:103CB0000021022416912246FDF738FC00281CD171
:103CC0003020FDF7DBFC002817D14120FDF7D6FCA2
:103CD000002812D1FDF7A2FC00280ED14F49086838
:103CE000189018980868C003C0170419FAD10B9EE1
:103CF0003146E23150485F4A04E00B9E3146DE31E6
:103D00004D485D4AFFF7C0F83146E4314A485B4A06
:103D1000FFF7BAF8FDF70CF80028404C314603D104
:103D2000EB314548564A02E0E7314348554AFFF730
:103D3000ABF8ED364048544A3146FFF7A5F8206805
:103D4000189018980C986969C90706D02168C903AA
:103D5000C9170818F7D10B9E9EE02868C00703D04A
:103D60004A48A8604A48A860099810302968014369
:103D70002960002047490246F94E930033431860FA
:103D800024681894189C0C9C6D69ED0707D0EA4DC7
:103D90002D68ED03ED172C19E64DF5D10AE01B68EF
:103DA000002B09D1531C8A421A46E24DE24CE4D35F
:103DB000002004E0179801E01798DE4DDE4C212129
:103DC00009012A688A432A602168189118990C9978
:103DD0000B9E6A69D20705D02268D203D217511808
:103DE000F7D159E0296801220A432A602968C907E6
:103DF00052D0002850D13146F431DB48DE4A4FE042
:103E00000070004005000020B7750008556E6B6E0D
:103E10006F772072657365740000000010E000E0A9
:103E2000E8FFFF6F08270140FFFEFFFF00000808C2
:103E30000004005050280040B3750008A473000827
:103E40005254432072657365742E2E2E00000000BC
:103E500000000000000000000000000000001C8BBB
:103E600000000000A0740008337500080420024020
:103E70006A730008C1740008547500087A7300085A
:103E8000D3740008667500085A730008EFCDAB893B
:103E900005040302FF0100003146F031B248B54A83
:103EA000FEF7F2FF3146F631AF48B44AFEF7ECFFB9
:103EB000FDF732F8B248FEF779FFA24D02242846FA
:103EC0002146FEF747FFAF48FEF770FF2846214620
:103ED000FEF740FF169EF0B2FEF7DEFE044616988F
:103EE0000E9B214681400906194600D5312118AAAA
:103EF0001154401C0828F4D118AD00200746287240
:103F00002846FEF753FF092128469F4A234600F022
:103F100087F92846FEF74AFF02218A48FEF71AFF72
:103F2000701C122E0646D6D39848FEF73FFF854DEB
:103F3000022428462146FEF70DFF914E3046FEF73B
:103F400035FF28462146FEF705FF3046FEF72EFFD7
:103F500028462146FEF7FEFE8D48FEF727FF28463D
:103F60002146FEF7F7FE8B48FEF720FF2846214644
:103F7000FEF7F0FE3D463C46794F200710D18048C1
:103F8000FEF714FF02216F48FEF7E4FE18AE0A2187
:103F90003046814A234600F043F93046FEF706FFDB
:103FA00018202840FC2121406E4A8958C140CBB2DC
:103FB00018AE0A213046794A00F032F93046FEF751
:103FC000F5FE0835641C142CD7D16D4C2046FEF745
:103FD000EDFE5C4D022628463146FEF7BBFE7048DA
:103FE000FEF7E4FE28463146FEF7B4FE2046FEF713
:103FF000DDFE28463146FEF7ADFE0A9B186A0B9996
:10400000084318624C4A106818901898C820116824
:10401000C903C9170818FAD1186A49490840186233
:104020000020604C255C03463B431E78AE4230D0F6
:1040300041490E681896189E0C9E3E4A5169C90760
:1040400006D03D490968C903C9178E19F5D120E08A
:104050001168C90704D03749444A8A60444A8A60D3
:104060001D7035490968189118990C9D179E314AA1
:104070005169C90706D030490968C903C9174D19E4
:10408000F5D106E01168314311601168C90700D00D
:104090001978401C1428C5D1FCF73EFF424806CCD5
:1040A00006C00ECC0EC0FEF7B7F8179E3E4C159911
:1040B0000846384300786054491C15911429F6D1FC
:1040C0002078AA280BD00999C8313848384AFEF719
:1040D000DBFE344821460CC80CC12CC82CC1267309
:1040E000FCF7F6FCA168FCF7A8FB002817D11648DE
:1040F000F121304AFEF7C8FE0F242046FEF7CCFD22
:10410000FD2101402046FEF7E4FD2046FEF7C4FDF8
:10411000FE2101402046FEF7DCFDFDF72FFBFDF7F9
:1041200051FB0948D72109A2FFF7CBFB0348FFF752
:104130001BFBC0460420024010E000E00024F40015
:10414000FFFEFFFF44730008B775000857616B65F9
:1041500075702066726F6D207374616E6462790091
:104160000000080850280040B3750008EFCDAB8967
:104170000504030242750008AF7400089374000838
:10418000EC7500088873000833740008B9730008E0
:1041900099730008DB730008477300085273000826
:1041A000CD7300083047000810000020E3740008B9
:1041B000F474000857740008B0B582B0164A53680A
:1041C0000193019B13680193019B144B1C6800949D
:1041D000009C002912D0491E64241568AD0705D43F
:1041E0001D68ED03ED172C19F7D112E00478147156
:1041F0001C680094009C401C0C04ECD164201168E5
:10420000090605D51968C903C9170818F7D100E0D0
:10421000106802B0B0BDC0460830014010E000E0B8
:104220000FB47CB50C0009AD01D0611E00E0002187
:1042300001910090074B6A462946089800F032F831
:10424000002C02D0009A002111707CBC08BC04B084
:1042500018470000194700082021020C01D0102146
:104260001046020A01D010460839020901D0104652
:10427000091F820801D01046891E420801D0881EFD
:104280007047081A704702E008C8121F08C1002AC8
:10429000FAD170477047002001E001C1121F002AC7
:1042A000FBD17047FFB591B00F460546002606E0EA
:1042B00025280AD0149A139990476D1C761C2878EB
:1042C0000028F5D1304615B0F0BD0024009401213E
:1042D000F34A029400E004436D1C2B780846203B0F
:1042E00098401042F7D128782A280ED00221287849
:1042F0000246303A092A15D8009A0A235A43303A1E
:1043000080180C436D1C0090F1E701CF009000284D
:1043100005DA012040030443009840420090022047
:1043200004436D1C28782E2815D104200443687896
:104330006D1C2A280AD101CF6D1C02900BE0029956
:104340000A225143303940186D1C029028780146EA
:1043500030390929F3D928786C2810D006DC4C288C
:104360001AD068280ED06A2817D104E0742813D018
:104370007A2812D110E00120400504430CE001210D
:10438000090501E0032109050C436978814203D145
:104390000120000524186D1C6D1C287803906E28E0
:1043A0001ED00CDC632831D004DC00288AD05828C9
:1043B00011D1B2E064287BD069280CD178E0732851
:1043C0002DD004DC6F2870D0702804D1A7E07528A8
:1043D0006CD078286BD0149A13999047761C62E0C1
:1043E0006002400F022807D003280AD0042838684A
:1043F0000AD006603F1D56E03868F117066041603C
:10440000F8E738680680F5E70670F3E7387869461C
:1044100008740020487404A80390012003E0386861
:1044200003900020C0433F1D61070FD5002101E02C
:104430000199491C029A0191914213DA8142F7DBFA
:10444000019A0399895C0029F2D10BE0002101E077
:104450000199491C01918142FADB019A0399895C17
:104460000029F5D101990098139A401A009021462D
:10447000149B00F03BF901998019461807E0039856
:1044800003990078491C0391149A13999047019855
:10449000401E0190401CF2D12146149B139A0098B3
:1044A00000F014F986196D1C09E741E033E034E0AF
:1044B0000A200021049005916002410F022905D0D5
:1044C00001CFC2179446032905D007E0FF1DFF085E
:1044D000FF0003CF06E000B2C2179446042902D1C0
:1044E00040B2C1178C4600226146944506DA0A465E
:1044F0000021404291418C462D2102E0210504D546
:104500002B216A461176012103E0E10701D0202129
:10451000F7E7019154E00A200BE0102009E0102099
:10452000049000210420044308200591029003E038
:1045300008200021059104906002410F022905D056
:1045400001CF00229446032906D006E0FF1DFF0894
:10455000FF0003CF8C4603E080B2042900D1C0B233
:104560000021019121072BD50399702906D0049AC7
:104570001021059B4A401A4305D00EE040216A46AF
:104580001176012108E06146014306D030216A46D8
:1045900011760399517602210191049A0821059B15
:1045A0004A401A430CD16146014301D1610707D546
:1045B00030216A461176012101910299491E02912A
:1045C0000399582904D037A103910FA90F910DE049
:1045D00039A1F9E76146059B049AFBF79FFD039B10
:1045E0008C469B5C0F9A521E0F92137061460143DA
:1045F000F0D10F9807A9081A20300390600704D55E
:10460000012000048443029801E0012002900399F4
:10461000884201DD401A00E0002041180290019814
:1046200009180098401A0090E00306D42146149B14
:10463000139A009800F05AF886190020049008E0B8
:1046400006A9085C149A139990470498401C761C9C
:10465000049001998842F3DBE0030CD52146149BBA
:10466000139A009800F042F8861904E0149A30205A
:1046700013999047761C0299481E02900029F5DC98
:1046800008E00F980F990078491C0F91149A13991C
:104690009047761C0399481E03900029F1DCFBE645
:1046A0000928010030313233343536373839616208
:1046B00063646566000000003031323334353637CC
:1046C000383941424344454600000000F8B50446ED
:1046D00000251E461746880404D405E039462020EC
:1046E000B0476D1C641EF9D52846F8BDFFB50446D9
:1046F000002581B01E46C80301D5302700E02027E1
:10470000880404D505E038460399B0476D1C641E43
:10471000F9D5284605B0F0BD4A68002A06D00A68D7
:10472000531C0B6010704868401E486070470000C2
:10473000AA0000009A99993F0000803F0103000001
:10474000CDCCCC3D00000004010A140000200C1860
:104750005FFFFFFFFFFFFFFFFFFFFFFFFFFFFFFF09
:10476000FFFFFFFFFFFFFFFFFFFFFFFFFFFFFFFF59
:10477000FFFFFFFFFFFFFFFFFFFFFFFFFFFFFFFF49
:10478000FFFFFFFFF011C7F001C7F00FC7FFFFFFEA
:10479000FFFFFFFFFFFFFFFFFFFFFFFFFFFFFFFE2A
:1047A000FFFFF8FFFFF1FFFFC3FFFFC6FFFFC8FFDA
:1047B000FFF1FFFFC3FFFFC7FFFFCFFFFFFFFFFFBB
:1047C000FF3E7FFF3E07FF0007F0007FF03E7FFFC8
:1047D0003E7FFF3E7FFF2007F00007F01E7FFF3E79
:1047E0007FFFFFFFFFFFFFFE3F1FFC1F0FF80F07BC
:1047F000F9C7B7E00001E00001F87007F8780FFC96
:104800007E1FFFFFFFFC1FFFF007FFF3E7E7F3E763
:1048100007F0041FFC00FFFF801FFC1007F073E788
:10482000F3F3E7FFF007FFFC1FFFFC1FFFF80FF893
:104830001007F003E7F000F7F00037F01C07F82F3F
:104840000FFFE007FFE067FFEFF7FFEFC7FFFFFF96
:10485000FFFFFFCEFFFFCCFFFFC1FFFFE3FFFFFF26
:10486000FFFFFFFFFFFFFFFFFFFFFFFFFFFFFFFF58
:10487000FFFFFFFFFFFFFFFFFFFFFFFFFFFFFFFF48
:10488000FF80FFFE003FF87F0FF1FFC7E7FFF3CF88
:10489000FFF9DFFFFDFFFFFFDFFFFDCFFFF9E7FFC0
:1048A000F3F1FFC7F87F0FFE003FFF80FFFFFFFF20
:1048B000FFFFFFFFFFFFFFFFFFFFFFFFFF99FFFF6E
:1048C00099FFFF99FFFFC3FFFFE3FFFC003FFC00E0
:1048D0003FFEC3FFFFC3FFFF99FFFF99FFFFFFFFED
:1048E000FFF7FFFFF7FFFFF7FFFFF7FFFFF7FFFE01
:1048F000003FFE003FFFF7FFFFF7FFFFF7FFFFF767
:10490000FFFFFFFFFFFFFFFFFFCEFFFFCCFFFFC159
:10491000FFFFE3FFFFFFFFFFFFFFFFFFFFFFFFFFC3
:10492000FFFFFFFFFFFFFFFFFFF7FFFFF7FFFFF7AF
:10493000FFFFF7FFFFF7FFFFF7FFFFF7FFFFF7FFAF
:10494000FFF7FFFFF7FFFFF7FFFFFFFFFFFFFFFF8F
:10495000FFC7FFFFC7FFFFC7FFFFC7FFFFFFFFFF47
:10496000FFFFFFFFFFFFFFFFFFFFFFFFFFFFFFFF57
:10497000FFFFF9FFFFE1FFFF83FFFE0FFFF07FFF67
:10498000C1FFFF07FFF83FFFE0FFFFC3FFFFCFFFBF
:10499000FFFFFFFFFF00FFFC003FF8001FF0FF0FCD
:1049A000F3FFCFF7FFEFF3FFCFF0FF0FF8001FFC8F
:1049B000003FFF00FFFFFFFFFFFFFFFBFFEFFBFFDD
:1049C000EFFBFFEFF8000FF0000FF0000FFFFFEF1D
:1049D000FFFFEFFFFFEFFFFFFFFFFFFFFC7FCFF8C1
:1049E0007F8FF27F0FF7FE6FF7F8EFF7F1EFF3E34A
:1049F000EFF007EFF80F0FFC3F0FFFFFFFFFFFFF88
:104A0000F8FF1FF8FF1FF0FF0FF7EFEFF7EFEFF3DF
:104A1000CFEFF007CFF8100FFC301FFFFC3FFFFF78
:104A2000FFFFFFFFFFF9FFFFF1FFFFC5FFFF8DFF56
:104A3000FE3DEFFC7DEFF0000FF0000FF0000FFFE8
:104A4000FDEFFFFDEFFFFFFFFFFE3FF0061FF0064B
:104A50004FF7CFEFF7DFEFF7DFEFF7CF8FF7C00FAD
:104A6000F7E01FF7F07FFFFFFFFFFFFFFF80FFFC76
:104A7000003FF8001FF8E78FF3CFCFF7DFEFF7DF46
:104A8000EFF1CFCFF1C01FF9E01FFFF07FFFFFFF75
:104A9000FFFFFFF8FFFFF0FFFFF3FFFFF7FE0FF749
:104AA000F00FF7C00FF60FFFF03FFFF1FFFFF3FF2E
:104AB000FFFFFFFFFC7C3FF8181FF0101FF383CFB0
:104AC000F7CFEFF7E7EFF7E7EFF3C3CFF0100FF80B
:104AD000181FFC7C3FFFFFFFFE0FFFF8079FF80346
:104AE0008FF1F38FF7FBEFF7FBEFF7F3CFF1E61F53
:104AF000F8001FFC007FFF01FFFFFFFFFFFFFFFF2C
:104B0000FFFFFFFFFFFFFFFFFFC7C7FFC7C7FFC7CD
:104B1000C7FFC7C7FFFFFFFFFFFFFFFFFFFFFFFF4D
:104B2000FFFFFFFFFFFFFFFFFFFFFFFFFFCFE4FFE0
:104B3000CFE0FFCFE3FFFFFFFFFFFFFFFFFFFFFF20
:104B4000FFFFFFFFFFFFFFFFF7FFFFE3FFFFC9FFCF
:104B5000FF9CFFFF3E7FFE7F3FFCFF9FF9FFCFF3EF
:104B6000FFE7F7FFF7FFFFFFFFDDFFFFDDFFFFDDE3
:104B7000FFFFDDFFFFDDFFFFDDFFFFDDFFFFDDFFEF
:104B8000FFDDFFFFDDFFFFDDFFFFFFFFFFFFFFF7A3
:104B9000FFF7F3FFE7F9FFCFFCFF9FFE7F3FFF3EEC
:104BA0007FFF9CFFFFC9FFFFE3FFFFF7FFFFFFFF52
:104BB000FFFFFFFE1FFFFC1FFFFD9FFFF9FFC7FB6D
:104BC000F8C7FBF0C7FBE7C7F9E7FFF80FFFFC0FDB
:104BD000FFFFFFFFFF80FFFC001FF8000FF8E087DA
:104BE000F30067F60077F60077F20067F81E4FF8DB
:104BF000008FFE01BFFFFFF7FFFFC7FFFE07FFE0CB
:104C000037FE01F7F81DFFF87DFFF805FFFF00777D
:104C1000FFF007FFFE07FFFFE7FFFFFFFBFFF7F8CF
:104C20000007F80007F80007FBF7F7FBF7F7F9E7CD
:104C3000F7F803E7FC0807FC180FFFFE1FFFFFFF54
:104C4000FFC07FFE001FFC000FFC7F87F9FFE7FB22
:104C5000FFF7FBFFF7F9FFE7F8FFCFF83F0FFE3F45
:104C60003FFBFFF7FBFFF7F80007F80007F8000726
:104C7000FBFFF7FBFFF7F9FFE7FC7F8FFC000FFE60
:104C8000001FFF807FFBFFF7F80007F80007F80020
:104C900007FBF7F7FBF7F7FBF7F7FBC0F7F9C0F7F0
:104CA000F9FFE7F87F87FE7F9FFBFFF7F80007F823
:104CB0000007F80007FBF7F7FBF7F7FBF7FFFBC070
:104CC000FFF9C0FFF9FFFFF87FFFFE7FFFFFFFFF47
:104CD000FFC07FFE001FFC000FF87F87F9FFE7FB96
:104CE000FDF7FBFDF7F9FC07FC3C0FFE3C0FFFFD59
:104CF000FFFBFFF7F80007F80007F80007FBF7F7DE
:104D0000FFF7FFFFF7FFFFF7FFFBF7F7F80007F8E4
:104D10000007F80007FFFFFFFFFFFFFBFFF7FBFFA8
:104D2000F7FBFFF7F80007F80007F80007FBFFF7AD
:104D3000FBFFF7FBFFF7FFFFFFFFFFFFFFFFF9FFA1
:104D4000FFF8FBFFF8FBFFFEFBFFFCF80000F8009C
:104D500001F80003FBFFFFFBFFFFFBFFFFFBFFF77B
:104D6000F80007F80007F80007FBC3F7FF83FFFA16
:104D700020FFF87837F8FE07F9FF87FBFFE7FFFF12
:104D8000F7FBFFF7F80007F80007F80007FBFFF74D
:104D9000FBFFF7FFFFF7FFFFF7FFFFF7FFFFE7FF5F
:104DA000FF87FFFF9FFBFFF7F80007F80007F800F9
:104DB000F7FF000FFFF80FFFC01FFC01F7F8000717
:104DC000F80007F80007FBFFF7FFFFF7FBFFF7F816
:104DD0000007F80007F81FF7FE07F7FF81FFFBE069
:104DE0003FFBFC0FF80007F80007FBFFFFFFFFFF8A
:104DF000FF807FFE001FFC000FF87F87F9FFE7FBB5
:104E0000FFF7F9FFE7F8FFC7FC000FFE001FFF8068
:104E10007FFBFFF7F80007F80007F80007FBFBF738
:104E2000FBFBF7FBFBFFFBF3FFF9F3FFFC07FFFCCA
:104E300007FFFE0FFFFFFFFFFF807FFE001FFC004C
:104E40000FF87F07F9FF67FBFF17F9FF03F8FFC1B2
:104E5000FC0009FE0019FF807BFBFFF7F80007F854
:104E60000007F80007FBF7F7FBF7FFFBF1FFFBF08C
:104E70007FF9E41FF80F07FC0F87FE1FE7FFFFFF16
:104E8000FE1F1FFC0F0FF807CFF9C7E7FBE3F7FB87
:104E9000E3F7FBF1F7F9F0E7F87807F8780FFFFE92
:104EA0001FFE7FFFF87FFFF9FFFFFBFFF7FBFFF718
:104EB000F80007F80007F80007FBFFF7FBFFF7F91A
:104EC000FFFFF87FFFFFFFFFFBFFFFF8001FF80069
:104ED0000FF80007FBFFE7FFFFF7FFFFF7FBFFE718
:104EE000F8000FF8001FFBFFFFFBFFFFF9FFFFF8C3
:104EF0001FFFF801FFFB801FFFF807FFFE07FFE021
:104F00003FFA01FFF81FFFF9FFFFFBFFFFFBFFFF69
:104F1000F83FFFF800FFFB0007FBFC07F9C03FF874
:104F200003FFF80007FBF007FBC01FF801FFF83F85
:104F3000FFFFFFFFFBFFF7F9FFE7F87F87F81E177A
:104F4000FB007FFFC0FFFB8837F81E07F87F87FB59
:104F5000FFE7FBFFF7FBFFFFF9FFFFF87FFFF80F0D
:104F6000F7FB03F7FFC007FFE007FFE007FB87F74A
:104F7000FA1FF7F87FFFF9FFFFFFFFFFFE7FF7F84B
:104F80007FC7F8FF07F9FE17FBF877FBE1F7FB8710
:104F9000F7FA1FF7F83FE7F8FF87FBFF9FFFFFFFD8
:104FA000FFFFFFFFFFFFFFFFFFFFFFFFC00001C08C
:104FB0000001DFFFFDDFFFFDDFFFFDDFFFFDFFFF86
:104FC000FFFFFFFFFFFFFFF3FFFFF0FFFFFC1FFFEF
:104FD000FF07FFFFE0FFFFF83FFFFE0FFFFFC1FFEE
:104FE000FFF0FFFFFEFFFFFFFFFFFFDFFFFDDFFF23
:104FF000FDDFFFFDDFFFFDC00001C00001FFFFFF7F
:10500000FFFFFFFFFFFFFFFFFFFFFFFFFFFFFFFFB0
:10501000FFFFEFFFFFCFFFFF9FFFFFBFFFFF9FFFE0
:10502000FFCFFFFFEFFFFFFFFFFFFFFFFFFFFFFED1
:10503000FFFFFEFFFFFEFFFFFEFFFFFEFFFFFEFF85
:10504000FFFEFFFFFEFFFFFEFFFFFEFFFFFEFFFF75
:10505000FEFFFFFFFFFFFFFFFFFFDFFFFFDFFFFFA1
:10506000CFFFFFEFFFFFEFFFFFFFFFFFFFFFFFFFA0
:10507000FFFFFFFFFFFFFFFFFFFF0FFFE607FFE65A
:1050800007FFC667FFDCF7FFDDF7FFDDE7FFC00FB7
:10509000FFC007FFE007FFFFE7FFFFFFFBFFFFF891
:1050A0000007F00007F0000FFFE7E7FFCFF7FFDF93
:1050B000F7FFCFE7FFC007FFE00FFFF03FFFFFFF65
:1050C000FFF83FFFE00FFFE00FFFC7C7FFDFF7FF6D
:1050D000DFF7FFC3F7FFC3E7FFE38FFFFF9FFFFF8C
:1050E000FFFFFFFFFFF83FFFE00FFFC007FFC7E72D
:1050F000FFDFF7FBDFF7FBCFE7F80007F00007F073
:10510000000FFFFFEFFFFFFFFFFFFFFFF83FFFE094
:105110000FFFE00FFFCEC7FFDEF7FFDEF7FFCEF792
:10512000FFC0E7FFE0CFFFF8DFFFFFFFFFDFFFFF7C
:10513000DFF7FFDFF7FE0007FC0007F80007F9DFE5
:10514000F7FBDFF7F8DFF7F8FFFFFCFFFFFFFFFFDC
:10515000FFFFF1FFF181FFE000FFC00CFFCE5EFF1B
:10516000CF4EFFC04CFFC040FFC0E1FFCFE1FFCFFB
:10517000FFFFFFFFFBFFF7F80007F00007F0000755
:10518000FFCFF7FFDFFFFFDFF7FFC007FFC007FF1D
:10519000E007FFFFF7FFFFFFFFFFFFFFDFF7FFDF86
:1051A000F7FFDFF7F9C007F98007F98007FFFFF77E
:1051B000FFFFF7FFFFF7FFFFFFFFFFFFFFFFFFFF0F
:1051C000FFFCFFFFFCFFDFFCFFDFFEF9DFFCF9C0A7
:1051D00000F98001F98003FFFFFFFFFFFFFFFFFFE2
:1051E000FBFFF7F80007F00007F00007FFFCF7FFF0
:1051F000F8FFFFC037FFC707FFDF87FFDFE7FFFFCD
:10520000F7FFFFFFFFFFFFFBFFF7FBFFF7FBFFF7DA
:10521000F80007F00007F00007FFFFF7FFFFF7FFB8
:10522000FFF7FFFFFFFFDFF7FFC007FFC007FFC06B
:1052300007FFCFF7FFC007FFC007FFE007FFCFF76B
:10524000FFC007FFC007FFC007FFFFFFFFDFF7FF3B
:10525000C007FFC007FFC007FFCFF7FFDFFFFFDF7B
:10526000F7FFC007FFC007FFE007FFFFF7FFFFFFE3
:10527000FFF83FFFF00FFFE00FFFC7C7FFCFF7FFBB
:10528000DFF7FFCFF7FFC7C7FFE00FFFF00FFFF813
:105290003FFFFFFFFFDFFEFFC000FFC000FFC000B9
:1052A000FFCFE6FFDFF6FFDFF7FFCFC7FFC007FF47
:1052B000E00FFFF03FFFFFFFFFF83FFFE00FFFC0F1
:1052C00007FFC7E7FFDFF7FFDFF6FFCFE6FFE000EE
:1052D000FFC000FFC000FFFFFEFFDFF7FFDFF7FFAB
:1052E000DFF7FFC007FFC007FFC007FFE7F7FFCFEB
:1052F000F7FFDFF7FFC7FFFFC7FFFFE7FFFFFFFF76
:10530000FFFFFFFFE387FFE187FFC0E7FFCCF7FF69
:10531000DC77FFDE67FFCE07FFC307FFC30FFFFF8A
:10532000FFFFFFFFFFDFFFFFDFFFFFDFFFFF000FDC
:10533000FC0007FC0007FFDFF7FFDFF7FFDFC7FF19
:10534000FFCFFFFFFFFFFFFFFFDFFFFFC00FFF806B
:1053500007FF8007FFFFE7FFFFF7FFDFE7FFC0075B
:10536000FF8007FF800FFFFFEFFFFFFFFFDFFFFF63
:10537000CFFFFFC1FFFFC03FFFDC07FFFF07FFFEBE
:105380000FFFD03FFFC1FFFFCFFFFFDFFFFFDFFFBA
:10539000FFC7FFFFC07FFFD007FFDE07FFC80FFF7B
:1053A000C0FFFFC00FFFDE0FFFD80FFFC0FFFFC71A
:1053B000FFFFFFFFFFFFF7FFDFF7FFCFC7FFC38749
:1053C000FFC037FFD87FFFD837FFC307FFC7C7FF2E
:1053D000DFE7FFDFF7FFFFFFFFDFFFFFDFFCFFC3BC
:1053E000FCFFC07EFFDC00FFFF01FFDC0FFFC07F82
:1053F000FFC3FFFFDFFFFFDFFFFFFFFFFFFFFFFF39
:10540000C3E7FFC387FFDF07FFDC37FFD077FFC1AC
:10541000F7FFC7E7FFCF87FFFF8FFFFFFFFFFFFF0C
:10542000FFFFFFFFFFFFFFFFFFFFFFFFFFF7FFFF94
:10543000E3FFE00803C01C01DFFFFDDFFFFDFFFF0E
:10544000FFFFFFFFFFFFFFFFFFFFFFFFFFFFFFFF6C
:10545000FFFFFF000000000000FFFFFFFFFFFFFF56
:10546000FFFFFFFFFFFFFFFFFFFFFFDFFFFDDFFF8E
:10547000FDC01C01E00803FFE3FFFFF7FFFFFFFF94
:10548000FFFFFFFFFFFFFFFFFFFFFFFFCFFFFF8FCC
:10549000FFFFBFFFFFBFFFFF9FFFFFCFFFFFE7FF44
:1054A000FFE7FFFFF7FFFFC7FFFFCFFFFF301B380E
:1054B0000BFF00001C00007FFE00000800003FFE04
:1054C00000001800007FF700003C0000FFE3C00070
:1054D0007E0001E7E1E000FF8003C3E0F001FFC0D0
:1054E0000783E07FFFFFFFFF03E03FFFFFFFFE03B7
:1054F000E03FFFFFFFFE03E03FFFFFFFFE03E03F53
:10550000FFFFFFFE03E03FFFFFFFFE03E03FFFFF63
:10551000FFFE03E03FFFFFFFFE03E03FFFFFFFFE54
:1055200003E03FFFFFFFFE03E03FFFFFFFFE03E05E
:105530003FFFFFFFFE03E07FFFFFFFFF03E0E00010
:10554000FF800783E3C0007F0001C3F780003E00B7
:1055500000E7FF00001C00007FFE00000800003F85
:10556000FE00000800003FFF00001C00007FFFFF5E
:10557000FFFFFFFFFFFFFFFFFFFFFFFFFFFFFFFF3B
:10558000FFFFFFFFFFFFFFFFFFFFFFFFFFFFFFFF2B
:10559000FFFFFFFFFFFFFFFFFFFFFFFFFFFFFFFF1B
:1055A000FFFFFFFFFFFFFFFFFFFFFFFFFFFFFFFF0B
:1055B000FFFFFFFFFFFFFFFFFFFFFFFFFFFFFFFFFB
:1055C000FFFFFFFFFFFFFFFFFFFFFFFFFFFFFFFFEB
:1055D000FFFFFFFFFFFFFFFFFFFFFFFFFFFFFFFFDB
:1055E000FFFFFFFFFFFFFFFFFFFFFFFFFFFFFFFFCB
:1055F000FFFFFFFFFFFFFFFFFFFFFFE000FF800750
:10560000FFFFC0007F0001FFFF80003E0000FFFFA2
:1056100000001C00007FFE00000800003FFE0000AC
:105620000800003FFF00001C00007FFFFFFFFC00A0
:10563000007FFFFFFFF800003FFFFFFFF800007F43
:10564000F7FFFFFC0000FFE3FFFFFE0001E7E1FFC3
:10565000FFF78003C3E0FFFFE3C00783E07FFFC1E4
:10566000FFFF03E03FFF80FFFE03E03FFF80FFFE00
:1056700003E03FFF80FFFE03E03FFF80FFFE03E00B
:105680003FFF80FFFE03E03FFF80FFFE03E03FFFA0
:1056900080FFFE03E03FFF80FFFE03E03FFF80FF4F
:1056A000FE03E03FFF80FFFE03E03FFF80FFFE03BD
:1056B000E07FFFC1FFFF03E0E000E3FFFF83E3C003
:1056C000007FFFFFC3F780003FFFFFE7FF00001FE1
:1056D000FFFFFFFE00000FFFFFFFFE00000FFFFFB8
:1056E000FFFF00001FFFFFFFFFFFFFFFFFFFFFFFA8
:1056F000FFFFFFFFFFFFFFFFFFFFFFFFFFF7FFFFC2
:10570000FFFFFFFFE3FFFFFFFFFFE7E1FFFFF7FF03
:10571000FFC3E0FFFFE3FFFF83E07FFFC1FFFF0365
:10572000E03FFF80FFFE03E03FFF80FFFE03E03F1E
:10573000FF80FFFE03E03FFF80FFFE03E03FFF80AE
:10574000FFFE03E03FFF80FFFE03E03FFF80FFFE20
:1057500003E03FFF80FFFE03E03FFF80FFFE03E02A
:105760003FFF80FFFE03E03FFF80FFFE03E07FFF7F
:10577000C1FFFF03E0E000E3800783E3C0007F0098
:1057800001C3F780003E0000E7FF00001C00007F1F
:10579000FE00000800003FFE00000800003FFF0080
:1057A000001C00007FFF00001FFFFFFFFE00000F36
:1057B000FFFFFFFE00001FFFFFFFFF00003FFFFF96
:1057C000FFFFC0007FFFFFFFFFE000F7FFFFFFFFCD
:1057D000F001E3FFFFFFFFFFFFC1FFFFFFFFFFFF40
:1057E00080FFFFFFFFFFFF80FFFFFFFFFFFF80FF46
:1057F000FFFFFFFFFF80FFFFFFFFFFFF80FFFFFFB7
:10580000FFFFFF80FFFFFFFFFFFF80FFFFFFFFFFA6
:10581000FF80FFFFFFFFFFFF80FFFFFFFFFFFF8015
:10582000FFFFFFFFFFFF80FFFFFFFFFFFFC1FFFF45
:10583000FFFFE000E38007FFFFC0007F0001FFFFE4
:1058400080003E0000FFFF00001C00007FFE000003
:105850000800003FFE00000800003FFF00001C00A1
:10586000007FFF00001FFFFFFFFE00000FFFFFFF94
:10587000FE00001FFFFFFFF700003FFFFFFFE3C038
:10588000007FFFFFE7E1E000F7FFFFC3E0F001E387
:10589000FFFF83E07FFFC1FFFF03E03FFF80FFFECC
:1058A00003E03FFF80FFFE03E03FFF80FFFE03E0D9
:1058B0003FFF80FFFE03E03FFF80FFFE03E03FFF6E
:1058C00080FFFE03E03FFF80FFFE03E03FFF80FF1D
:1058D000FE03E03FFF80FFFE03E03FFF80FFFE038B
:1058E000E03FFF80FFFE03E07FFFC1FFFF03E0FF1B
:1058F000FFE3800783E3FFFFFF0001C3F7FFFFFE25
:105900000000E7FFFFFFFC00007FFFFFFFF8000043
:105910003FFFFFFFF800003FFFFFFFFC00007FFF9D
:1059200000001C00007FFE00000800003FFE000099
:105930001800007FF700003C0000FFE3C0007E007D
:1059400001E7E1E000F78003C3E0F001E3C0078373
:10595000E07FFFC1FFFF03E03FFF80FFFE03E03F6A
:10596000FF80FFFE03E03FFF80FFFE03E03FFF807C
:10597000FFFE03E03FFF80FFFE03E03FFF80FFFEEE
:1059800003E03FFF80FFFE03E03FFF80FFFE03E0F8
:105990003FFF80FFFE03E03FFF80FFFE03E03FFF8D
:1059A00080FFFE03E07FFFC1FFFF03E0FFFFE38016
:1059B0000783E3FFFFFF0001C3F7FFFFFE0000E7DF
:1059C000FFFFFFFC00007FFFFFFFF800003FFFFF2D
:1059D000FFF800003FFFFFFFFC00007FFF00001FFB
:1059E000FFFFFFFE00000FFFFFFFFE00001FFFFF95
:1059F000FFF700003FFFFFFFE3C0007FFFFFFFE175
:105A0000E000FFFFFFFFE0F001FFFFFFFFE07FFF8F
:105A1000FFFFFFFFE03FFFFFFFFFFFE03FFFFFFF54
:105A2000FFFFE03FFFFFFFFFFFE03FFFFFFFFFFF44
:105A3000E03FFFFFFFFFFFE03FFFFFFFFFFFE03F13
:105A4000FFFFFFFFFFE03FFFFFFFFFFFE03FFFFF24
:105A5000FFFFFFE03FFFFFFFFFFFE03FFFFFFFFF14
:105A6000FFE07FFFFFFFFFFFE0E000FF8007FFE3B5
:105A7000C0007F0001FFF780003E0000FFFF000034
:105A80001C00007FFE00000800003FFE0000080030
:105A9000003FFF00001C00007FFF00001C00007F93
:105AA000FE00000800003FFE00001800007FF70025
:105AB000003C0000FFE3C0007E0001E7E1E000F7EA
:105AC0008003C3E0F001E3C00783E07FFFC1FFFF75
:105AD00003E03FFF80FFFE03E03FFF80FFFE03E0A7
