:020000040800F2
:1000000050040020D50000081D0E0008DD05000882
:1000100000000000000000000000000000000000E0
:1000200000000000000000000000000013100008A5
:1000300000000000000000001F0E0008151000085E
:10004000E7000008E7000008E7000008E7000008F4
:10005000E7000008C9050008E7000008E7000008FD
:1000600000000000E7000008E7000008E7000008C3
:10007000E7000008E700000800000000E7000008B3
:1000800000000000E7000008000000000000000081
:10009000E700000800000000E7000008E700000893
:1000A000E7000008E7000008E7000008E700000894
:1000B000E7000008E7000008000000000000000062
:1000C0000348854600F0C2F800480047E1120008E6
:1000D000500400200448804704480047FEE7FEE73C
:1000E000FEE7FEE7FEE7FEE719100008C100000882
:1000F00030B50B46014600202022012409E00D46C0
:10010000D5409D4205D31D469540491B2546954047
:1001100040191546521E002DF1DC30BDF0B51FB45C
:100120000646002082B005464024019100901BE065
:10013000019922460F46304600F0AAF8049A059B22
:10014000801A994110D310461946224600F090F8C3
:10015000361A8F410197224601200021009F00F0AE
:1001600087F838184D4100902046641E0028DFDCD7
:10017000019B00982946324607B0F0BDF0B51FB488
:1001800088B00B990998002448400999C00F49008C
:1001900049080991C0070B990090490049080B9143
:1001A00009990898A64608431CD00B990A98084359
:1001B00018D0099801244000420D4800410D0998CB
:1001C00024050003000B204309900B980003000B4B
:1001D00020430B9050181C494018002201901446EF
:1001E000104605E0002001460DB0F0BD032801DAFD
:1001F000034600E003239C46C11A0AAE0AE05F00F2
:1002000008ADED5B4F00F75B7D430027AA187C41EA
:10021000491C5B1E6145F2DD410004AB5A522104CA
:10022000120C0A43240C401C0828DFDB01980290C2
:100230000099704601910090059B049A07990698D1
:1002400000F044F8D0E700000DFCFFFF064C01254C
:10025000064E05E0E36807CC2B430C3C984710346E
:10026000B442F7D3FFF730FF4420000854200008C1
:1002700010B5202A04DB0146203A9140002010BD31
:10028000914020239C1A0346E3401943904010BD3F
:1002900010B5202A04DB0846203AD040002110BDCA
:1002A0000B46D340D0402024A21A9140084319465F
:1002B00010BD10B5002B08DA0024401C61419218D3
:1002C0005B411A4301D14008400010BDF0B51FB496
:1002D00082B005460C0003D0084601F015FC02E090
:1002E00001F012FC20300246009021462846FFF71C
:1002F000BFFF049B059A04460F4618431143084369
:1003000014D0184610431BD0009840210A1A1846F2
:100310000599FFF7BDFF05460E46009A059904981A
:10032000FFF7A6FF084305D0012004E02046394628
:1003300007B0F0BD0020C11705430E432C433743DF
:1003400000990E986305401A7905E40A00220C43CF
:10035000FD0A0A3002D500200146E9E7010510191F
:1003600069410C9C0D9D00196941FFF7A2FFDFE771
:10037000F8B502464A40D40F42004B0052085B08D1
:100380009A4202D20246084611464A0023D0C30DC3
:100390004A00DDB2120EAD1A202D35DA49020126CF
:1003A000490AF6058A19002C00D0524220214F1B21
:1003B0001146B9402A411018C20D9A4221D0002C92
:1003C00017D0012D08DCDA05801AD20F8019D20768
:1003D000DBB200F0C0F8F8BDDA05801A0123400056
:1003E0001B06C01880185A428018CA0F10434900D3
:1003F00007E04908C2071143DA05801A801940084E
:10040000801800F0A0F8F8BD61000122511A001B0D
:10041000F7E70122D2075140AAE70122D207504054
:10042000A6E7024670B54A40D30FDB0740002DD047
:100430004A002AD0010E140E000212020919400AC5
:10044000520A8418E50104465443000A120A2E0495
:100450005043A4194219200CC543AA18120C0125B7
:10046000AD03521C521912047F39240400D0521CCF
:10047000104301D44000491EC2B20C06C009201826
:10048000401C4008802A02D003E0002070BD4008D4
:100490004000002900DA0020184370BDC217C10FC8
:1004A000504010B54018CA079623002100F053F8B9
:1004B00010BD00000EB5C217C10F5040CA0740184A
:1004C0000021054B0293019200910A460B46FFF76B
:1004D000FDFE03B000BD000033040000C20F410068
:1004E00040020123400ADB05D207090EC0187F290C
:1004F00001DA00207047962903DC9623591AC84078
:1005000001E096398840002AF4D040427047CB0F72
:10051000DB07490010B5490802460A4307D00A0D17
:1005200007240903E401090B121B002A01DC002047
:1005300010BDC900440F0C43C100E018D20580185B
:1005400000F001F810BD002904DA401C490001D177
:1005500040084000704770B40024050C05D11024F9
:10056000000402D1002921D01124050E01D100027E
:100570000834050F01D10001241D850F01D1800031
:10058000A41C002801DB4000641C002908D02025A1
:100590002E1B0D46F540A14000D001212943084300
:1005A00001061B1B000ADB1D02D5002070BC704732
:1005B000DB05181880180029F8DA401C4900F5D12D
:1005C00070BC40084000704703480168C90701D06B
:1005D000012101607047C0461404014082B0084DFB
:1005E00008A4204600F060FD2868019001987D2055
:1005F000C0002968C903C9170818FAD1F1E7C04635
:1006000010E000E0494E2048415244204641554CFC
:100610005421000080B582B05948016801910199C8
:10062000584A56490B685B0708D40368DB03DB179D
:100630009A18F7D100F0AEFD002000E0C868C0B203
:1006400002B080BD70B582B03D4A131F1C68E4073C
:1006500003D11C68012525431D600124E3021568B0
:100660009D431560284D6B1C16681E40D0361660E1
:100670001368002902D0A5022B4300E02B40136031
:10068000230615689D431560FF231B0415689D43D1
:100690000004281810606006136883431360600329
:1006A000136803431360364803680193019B0029D4
:1006B0000DD0344900291DD053695B0720D403684D
:1006C000DB03DB1759185369DB06F3D50CE02D4922
:1006D00000290FD05369DB0712D10368DB03DB1756
:1006E00059185369DB06F3D59069102101439161D4
:1006F000032406E000F04EFD002802D0022400E0B2
:100700000024204602B070BDFFFBFFFF80B582B021
:10071000012081030A4802680A43026018490A68F6
:100720000192019A174A43691B0406D50B68DB0343
:10073000DB179A18F7D100F02DFD02B080BDC0463E
:100740000454004080B582B00C4908610C4802682E
:100750000192019A0B4A0B68DB070AD10368DB039D
:10076000DB179A18F7D100F015FD002803D00220FE
:1007700002E0002000E0012002B080BD18540040DB
:1007800010E000E0B80B0000F0B584B00C68002C5D
:1007900055D00123019303915A1E019F9740274092
:1007A00048D04A68551E022D02943D4615D27D431D
:1007B00003998C686C4303266E438168B1432143DF
:1007C00081600399C9680092029A51434468944336
:1007D000009A0C434460039902E07D4303266E4374
:1007E000F64309696943C46834400C43C460022A73
:1007F000029C19D13C0A01D0242200E02022039956
:100800004F6902928258002C02D06443644301E095
:100810002C466C430F2161438A4367431743029977
:10082000475003990C684A68554301683140294391
:10083000016003992246DA405B1C002AACD104B067
:10084000F0BD000096B0F8480078012421020F9115
:1008500061020E9101280ED003286DD0022800D02D
:1008600094E00F2000F032FB40B2002800D48DE06D
:1008700000F047FB8AE0F9480168090700D585E0E8
:100880000168C90600D581E0F24D296811911199DE
:100890000A212A68D203D2175118FAD10168090730
:1008A00074D40068C00671D4ED482221EDA200F096
:1008B00015FCF2A011A90A46D8C8D8C20078107059
:1008C000112000F083FB00F01CFB2521F0A2E4487E
:1008D00000F004FCDD4B18680F99084203D118683A
:1008E0000F99084318600124E004ED490A680243A7
:1008F0000A600A6882430A601868D549084018608F
:100900000846ED30E7494258002A01D1001DFAD1CE
:10091000D3482721E4A200F0E1FB28681190119848
:100920006421E5484269D20700D13FE12A68D20339
:10093000D2175118F6D17DE10F2000F0C7FA8007D9
:100940001BD4C4480168119111990A210268D2038D
:10095000D2175118FAD1C0490A68120416D4E2031A
:1009600003681193119B23460568ED03ED17EB18FF
:10097000FAD10B681342F3D008E00F24204600F0B0
:10098000A5FAFD210140204600F004FB01200027CC
:100990003946FFF757FE002810970DD10026304644
:1009A000FFF7D0FE002807D1072001252946FFF7D1
:1009B00049FE002800D19EE0CC48077207604760DE
:1009C0000D970C970A970B97099708973E4600F0EA
:1009D00067FA054600F064FA044600F061FAFFF792
:1009E0007DFDFFF75BFD01462046FFF712FDC04984
:1009F000FFF717FDFFF772FD04462846FFF76EFD6F
:100A000008990091099901910B9902910A99039112
:100A10000C9904910D99059106900794F3B2B54C89
:100A20003D21B54A204601F053F8204600F03CFB3A
:100A3000B2A000F039FBB7A63D463C46E8B200F054
:100A400045FA0746204639468140090601D531213D
:100A500000E0302111AA1154401C0828F3D111AC38
:100A600000202072AAA000F0FFFA204600F0FCFA55
:100A70000921204632463B4601F02AF82046109CC8
:100A800000F012FB681C122D0546D7D3A34800F0D6
:100A90000BFBA34C9921A34A204600F01FFB6B4B94
:100AA00058686B4908405860196804200143196070
:100AB000196808220A431A6059680F9A114359604D
:100AC00019680E9A11431960196802220A431A60C4
:100AD000954D29680143296030BF9E2193A220468D
:100AE00000F0FCFABFF34F8F281F96490160BFF357
:100AF0004F8F00BFFDE77D4CFFF78CFDA055761CA6
:100B0000072EF9D1FFF702FE002001467F220A409E
:100B1000022A05D0052A0CD12256002A14D521E03C
:100B2000225C520607D400222272E271235C3F222B
:100B300008E0225C08E0E571225C9206D20F227286
:100B4000235C1F221A4022540F231340D2B21209F1
:100B50000A265643F2182254491C401C0728D5D1B6
:100B6000A6790FE00F21D3060A40DB0F0A256B435D
:100B70009A182254A079014000096843081864308B
:100B80000646A071E0780C300721FFF7B1FA481C47
:100B90000B90E07020780D9060780C90A0780A900F
:100BA0002079099060790890109F10E710940168EF
:100BB000C90703D041498160414981600E991031D4
:100BC00002680A43026000213E4B0E46B7001C46F5
:100BD0001F4339602B681193119B64234269D2072C
:100BE00005D02A68D203D217D318F7D108E03A68A3
:100BF000002A05D12346721C334CA6421646E5D383
:100C00002121090102688A43026029681191119922
:100C10006421109B4269D20708D02A68D203D217F8
:100C20005118F7D106E0C0460000002001681943C2
:100C3000016000680A4C292124A2204600F04EFAE7
:100C40002A2127A2204600F049FA9FE600700040C2
:100C5000FFFEFFFF10E000E0100000501004005005
:100C600039200008424547494E20524553455420FB
:100C7000414C4C2044415441000000000000000061
:100C8000000000000000000000001C8B00000000BD
:100C900052544320726573657420646F6E65000062
:100CA0005010024064280040424B5052207265733D
:100CB000657420646F6E650004200240EFCDAB893F
:100CC0000504030200000808FF01000045455052DA
:100CD0004F4D20726573657420646F6E650000006F
:100CE000416C6C20646F6E650000000040000020C5
:100CF0000000C84201000020EF1F00083D3D2044D5
:100D0000533332333120524547203D3D000000002F
:100D1000200000002030782530325800DE1F000807
:100D2000342000081E20000810ED00E0496E2073FA
:100D300074616E646279206D6F6465206661696CB0
:100D4000000000000400FA05F0B587B02D490868DE
:100D50000224204308600868204006900127059778
:100D6000049703970326029601944020009006986A
:100D700025486D462946FFF707FD0597049701A80A
:100D8000D0C08020009020482946FFF7FDFC780560
:100D90001C4AD1680143D160D16801400691069890
:100DA00079061A4842680A434260C26818490A40F4
:100DB000C260FA040368934303607A0403689343B0
:100DC00003600268BA4302601F2212020368934361
:100DD0000360104A026102683A43026082680A4076
:100DE000826082680C4B1A4082603205046894432A
:100DF000046042680A404260591CC2680A40C260EE
:100E000007B0F0BD2C100240000400500054004018
:100E1000FF7FFFFF0B02100000F8FFFF70477047D5
:100E200080B51849C8680007820F17487A441279BC
:100E3000520097440108250D012000044968090467
:100E4000490F884080BD0868C00609D5104880BD9C
:100E5000CA68D20307D40868C00603D50C4802E06C
:100E60000A4880BD0948CA689202120F09A39A5C19
:100E70004243C8680002800F411C1046FFF738F952
:100E800080BDC0460010024000127A000024F40029
:100E900000093D00030406080C1018203000000073
:100EA00010B5112000F012F88400122000F00EF8A6
:100EB00080092018FFF7FEFA0022034BFFF75EF9C6
:100EC000FFF725FB10BDC0460000D03FB0B505467A
:100ED000012000242146FFF7B5FB00280FD128464A
:100EE000FFF730FC00280AD101200146FFF7AAFBDA
:100EF000002804D1FFF78EFB0446FFF707FC2046CD
:100F0000B0BD70B582B06846142181710A2141716B
:100F1000012101710521C1700025857045700570A2
:100F2000062D0AD168468079642806D3643869465C
:100F300088714879802202434A716E46745D0A21A5
:100F40002046FFF7D5F80921C94341436118000144
:100F5000084370556D1C072DE2D10720694600F04B
:100F600035F8002814D10E252846FFF7AFFF0146BB
:100F70007F242140284600F00DF8002808D10F25D5
:100F80002846FFF7A3FF04402846214600F002F858
:100F900002B070BDF0B581B00E46074602200024B5
:100FA0002146FFF74FFB012500280CD13846FFF7FB
:100FB000C9FB002807D13046FFF7C4FB002802D147
:100FC000FFF7A4FB2546284601B0F0BDF0B581B07F
:100FD0000C460546401CC0B20021FFF733FB012739
:100FE000002813D100263046FFF7ACFB00280DD1B6
:100FF00002E0641C6D1E06D02078FFF7A3FB0028DA
:10100000F7D0012700E03746FFF780FB384601B0F4
:10101000F0BD704770470000012002020E490B68C6
:1010200013430B60CA680D4B1340CB600A680C4B2E
:1010300013400B608A6882438A6082040B68934382
:101040000B60FD221204CB689343CB6000220A613F
:10105000C006044908607047001002400C40FF8839
:10106000F6FFF6FE08ED00E010B502781A49002AF6
:1010700015D0431C0022521CD2B21C78002C0CD07C
:101080005B1CFF2AF7D108E00B681B06FCD5402348
:101090004B600378CB60521E401C002AF4D10868D4
:1010A0004006FCD510BDC04680B5FFF7DDFF09A1A5
:1010B0000222094803681B06FCD5402343600B78D5
:1010C000C360521E491C002AF4D101684906FCD5B0
:1010D00080BDC0460D0A00001C38014070B584B0C8
:1010E00014460D46064613A0FFF7BEFF15A0FFF7F6
:1010F000BBFF17A0FFF7B8FF1AA0FFF7B5FF3046F8
:10110000FFF7B2FF1AA0FFF7AFFF01AE0B211BA242
:1011100030462B4600F0DCFC3046FFF7A5FF18A058
:10112000FFF7A2FF2046FFF79FFF18A0FFF79CFFE5
:1011300004B070BD0D0A2A2A44454255472050523A
:10114000494E54000D0A46494C4520203A200000E3
:101150002E2E2F5372632F555345522F66756E6393
:101160002E6300000D0A46554E4320203A20000011
:101170000D0A4C494E4520203A200000256400000D
:101180000D0A494E464F20203A2000000D0A0D0A54
:1011900000000000F0B585B04A490A68012082438A
:1011A0000A600A220B68DB0701D0521EFAD1410502
:1011B000454A13680B43136013688B43136043491C
:1011C0000A68434B1A40840312190A604A68802651
:1011D00032434A60CA681A401219CA600A683D4B15
:1011E0001A40050352190A604A68402422434A60A3
:1011F000CA681A405219CA6001968E6102948C61C5
:1012000004AAC825158016881388002E06D05A1EF9
:1012100004AB1A801A881B88002AF8D12B490A6966
:10122000120630D42C4B1A680392039A2B4E002ED0
:101230002BD01A682549029C8C6204A90D80D70323
:101240000C880A88002C06D0511E04AA118011882F
:1012500012880029F8D1FF171C49029A8A6104A953
:101260000D800C880A88002C06D0511E04AA11801B
:10127000118812880029F8D1BE1914490969090694
:10128000D5D5002402E0002416E004460F49019A57
:101290008A621968049104991968C903C917081862
:1012A000FAD10A48826118680490049801201968EC
:1012B000C903C9170818FAD1FFF746FD204605B043
:1012C000F0BDC04600540040281002400004005009
:1012D000FF3FFFFFFFCFFFFF10E000E0B80B000073
:1012E0009CB0104C606B012318436063606B184026
:1012F000159015981907A06B0843A063A06B039184
:10130000084015901598084A9069202111910843CA
:10131000102110918843906104480168994301604D
:1013200006E0C046001002400800014000200240D4
:101330000168C907FCD10326F002054A1168814300
:10134000D8020E900818106020681843206001E051
:101350000070004020684007FCD51F200002616833
:10136000814318030B9008186060E06880210991A0
:101370000843702104918843E06007252802E16852
:101380008143E1600895E802E1688143E160E0683B
:1013900018430227B843E060E0680C2101400429AB
:1013A000FAD1A648A6494160002585600521016063
:1013B0003246F6430796E06C3040E064E06CA14EA4
:1013C0003040E0641A95199518951795E06A04263F
:1013D0003043E062E06A30400C961B901B98E06A54
:1013E0001843E062E06A18401B901B98E06A38439B
:1013F000E062E06A38401B901B98144613970591F1
:101400000F0708211291B9621099B9624021019128
:10141000B9620B99B9628C4A1199916219020A91C9
:1014200091629661B9610E99B96119951694980304
:10143000029015908548149315AE3146FFF7A4F934
:10144000199516941498C003069015907F4831465C
:10145000FFF79AF91995189517940F941498169008
:101460001298159038463146FFF78EF91995189560
:101470001795149816901098159038463146FFF736
:1014800083F919951895179414981690019815904A
:1014900038463146FFF778F9199516941398159048
:1014A000694C20463146FFF76FF919951895179545
:1014B000149816900C98159020463146FFF764F961
:1014C000199518951795149816900A9815903846FE
:1014D0003146FFF759F919951895179514981690F4
:1014E0000E98159038463146FFF74EF91995189524
:1014F0001795149816900B98159038463146FFF7BB
:1015000043F9199516950698159038463146FFF718
:101510003BF9199516951298159020463146FFF71C
:1015200033F9199516951098159020463146FFF716
:101530002BF91995189517951498169011981590E0
:1015400020463146FFF720F91995189517951498FC
:1015500016900A98159020463146FFF715F93C4A37
:101560001068149908430E21884310602246E068F1
:1015700014990843139CA043D06010680799084051
:1015800010601498C043334B596801405960196882
:10159000149A11431960D9680140D9609868149968
:1015A000084398602C48BF302C490A6802400A6002
:1015B0002B48119901601A9519951895179514984B
:1015C0004102284A506B08435063506B0791084012
:1015D0001B901B98D06A14990843D062D06A149962
:1015E00008401B900F98169015941B9815A90D97FD
:1015F0003846FFF7C9F81C48416A22462143416238
:1016000014998904426A0A43426218490A68184BCD
:101610001A40149CE405009412190A60149A5204AA
:10162000466A16434662149C0A681A40A305D218FB
:101630000A604268D20721D11CE0C04610E000E0F9
:101640003F1F0000FFCFFFFF0004005000080050C4
:1016500008000140000401404000FFFF04E400E0F6
:1016600000E100E00010024004240140082701408E
:10167000FFFF3FFF8268EF4B134083600269089BC6
:101680001A430261C268A243C2600C9AD2438368C3
:101690001340836063060E689E430E60149F0168CA
:1016A000114001600168129A914301604168E24A69
:1016B0000A4003990A434260BB074168C90709D140
:1016C0008168DE4A0A4082600F998907C2688A43AE
:1016D0001A43C2600193FFF737FBCF4C606B0B9945
:1016E00008436063606B084015901598E06A3843C2
:1016F000E062E06A38401B901A95199518950F9E84
:101700001796139C1694119815901B9815A9039180
:101710002F460D9D2846FFF737F81A97199716A8F8
:10172000D0C00998159028460399FFF72DF8C448B2
:1017300001684906C34D0C9B07D40168BC4A11409F
:1017400029430160416899434160C1690E9A914300
:10175000C1614168109A91434160AF4A506B029950
:1017600008435063506B084015901598D06A14993F
:101770000843D062D06A08401B901A9319971897B3
:101780000F9E179613981690079815901B9815A9F9
:1017900002910D981C46FEF7F7FF1A949E4C19977C
:1017A00003971897179613981690F93515950D9875
:1017B0000299FEF7E9FFA44E3068C007A34A129BC6
:1017C00052D13068A24901400C31316070689549AE
:1017D0000840706010467030B1680140B160E06C44
:1017E0000F990840090440189A4988420BD09A4939
:1017F00088420ED099491446884213D1FFF710FB56
:101800002246129B1FE08448006D80010699084023
:1018100019E0814C2068400726D52068C00616D5FF
:10182000904815E0FFF7FCFA7B4AD168D268920431
:10183000520F8DA39A5C0906090F8DA3595C129B68
:10184000C840D04022460028734C02D10CE08448A6
:10185000714CE12116460A0280184902FEF748FC45
:101860003246794E129BF0600920C00271688143B4
:101870007160B0682A218843B06030683146149E98
:1018800030430860A06B3043A063A06B30401590DC
:101890001598019D286810402860F920E862089892
:1018A000A8626869304368610998C743296839406C
:1018B0002960A9681046724A0A40AA60E96919437A
:1018C000E961296A0A9A91432962296A6A68EB697F
:1018D0006A6060221A4313239A43EA617C22EA6316
:1018E00070300840079908432862E9690C9B9943C6
:1018F000E9616968049A91436960A9683940A960FF
:10190000E06A3043E062E06A30401B90139F1A9710
:101910000398199018901790169715931B9815A96E
:101920000D9D2846FEF730FF5648542156A2FFF77A
:10193000D5FB3E4A1068059988431060374A906984
:10194000302188439061206D000115D4206D000E78
:1019500045D033490868129A104308604E48067013
:10196000206D0099084320652F4E46485E2154A201
:10197000FFF7B4FB0B9C11E029490868129A104349
:10198000086045480770206D0099084320650B9C4E
:10199000254E3C485B2146A2FFF7A0FB0E98A862AB
:1019A0001198B061AC611098A86115A90A2008804F
:1019B0000A880988002A06D0491E15AA11801388B2
:1019C0001188002BF8D1AC6215A908800A88088814
:1019D000002A01D0401EF7E7AC61FEF733FF104A42
:1019E00050681168129B194311608007C0170F9946
:1019F000084029490870216D009A1143216501288A
:101A0000094EB2D003280B9C02D00228C1D0C5E7F2
:101A10001C48612121A2BFE70010024008000140DC
:101A200000700040FFCFFFFF0004005000040140A1
:101A30004000FFFF3CC2FEFFE8FFFF6FC73FFFFF14
:101A40000030014007030000003801408FFCFFFF19
:101A5000F369FFEF0300030002000300010003002D
:101A60000024F40000093D0000000000010203040E
:101A7000000000000000000001020304060708093E
:101A8000F8BFFFFF3D20000853595354454D2052E5
:101A900045534554000000000000002057616B656D
:101AA00075702066726F6D207374616E6462790068
:101AB000506F776572206F6E2072657365740000D9
:101AC0004E6F726D616C207265736574000000006A
:101AD0000FB47CB50C0009AD01D0611E00E00021FF
:101AE00001910090074B6A462946089800F032F8A9
:101AF000002C02D0009A002111707CBC08BC04B0FC
:101B000018470000C91F00082021020C01D0102135
:101B10001046020A01D010460839020901D01046C9
:101B2000091F820801D01046891E420801D0881E74
:101B30007047081A704702E008C8121F08C1002A3F
:101B4000FAD170477047002001E001C1121F002A3E
:101B5000FBD17047FFB591B00F460546002606E061
:101B600025280AD0149A139990476D1C761C287862
:101B70000028F5D1304615B0F0BD002400940121B5
:101B8000F34A029400E004436D1C2B780846203B86
:101B900098401042F7D128782A280ED002212878C0
:101BA0000246303A092A15D8009A0A235A43303A95
:101BB00080180C436D1C0090F1E701CF00900028C5
:101BC00005DA0120400304430098404200900220BF
:101BD00004436D1C28782E2815D10420044368780E
:101BE0006D1C2A280AD101CF6D1C02900BE00299CE
:101BF0000A225143303940186D1C02902878014662
:101C000030390929F3D928786C2810D006DC4C2803
:101C10001AD068280ED06A2817D104E0742813D08F
:101C20007A2812D110E00120400504430CE0012184
:101C3000090501E0032109050C436978814203D1BC
:101C40000120000524186D1C6D1C287803906E2857
:101C50001ED00CDC632831D004DC00288AD0582840
:101C600011D1B2E064287BD069280CD178E07328C8
:101C70002DD004DC6F2870D0702804D1A7E075281F
:101C80006CD078286BD0149A13999047761C62E038
:101C90006002400F022807D003280AD004283868C1
:101CA0000AD006603F1D56E03868F11706604160B3
:101CB000F8E738680680F5E70670F3E73878694694
:101CC00008740020487404A80390012003E03868D9
:101CD00003900020C0433F1D61070FD5002101E0A4
:101CE0000199491C029A0191914213DA8142F7DB72
:101CF000019A0399895C0029F2D10BE0002101E0EF
:101D00000199491C01918142FADB019A0399895C8E
:101D10000029F5D101990098139A401A00902146A4
:101D2000149B00F03BF901998019461807E00398CD
:101D300003990078491C0391149A139990470198CC
:101D4000401E0190401CF2D12146149B139A00982A
:101D500000F014F986196D1C09E741E033E034E026
:101D60000A200021049005916002410F022905D04C
:101D700001CFC2179446032905D007E0FF1DFF08D5
:101D8000FF0003CF06E000B2C2179446042902D137
:101D900040B2C1178C4600226146944506DA0A46D5
:101DA0000021404291418C462D2102E0210504D5BD
:101DB0002B216A461176012103E0E10701D02021A1
:101DC000F7E7019154E00A200BE0102009E0102011
:101DD000049000210420044308200591029003E0B0
:101DE00008200021059104906002410F022905D0CE
:101DF00001CF00229446032906D006E0FF1DFF080C
:101E0000FF0003CF8C4603E080B2042900D1C0B2AA
:101E10000021019121072BD50399702906D0049A3E
:101E20001021059B4A401A4305D00EE040216A4626
:101E30001176012108E06146014306D030216A464F
:101E400011760399517602210191049A0821059B8C
:101E50004A401A430CD16146014301D1610707D5BD
:101E600030216A461176012101910299491E0291A1
:101E70000399582904D037A103910FA90F910DE0C0
:101E800039A1F9E76146059B049AFEF747F9039BE0
:101E90008C469B5C0F9A521E0F9213706146014351
:101EA000F0D10F9807A9081A20300390600704D5D5
:101EB000012000048443029801E00120029003996C
:101EC000884201DD401A00E000204118029001988C
:101ED00009180098401A0090E00306D42146149B8C
:101EE000139A009800F05AF886190020049008E030
:101EF00006A9085C149A139990470498401C761C14
:101F0000049001998842F3DBE0030CD52146149B31
:101F1000139A009800F042F8861904E0149A3020D1
:101F200013999047761C0299481E02900029F5DC0F
:101F300008E00F980F990078491C0F91149A139993
:101F40009047761C0399481E03900029F1DCFBE6BC
:101F5000092801003031323334353637383961627F
:101F60006364656600000000303132333435363743
:101F7000383941424344454600000000F8B5044664
:101F800000251E461746880404D405E03946202063
:101F9000B0476D1C641EF9D52846F8BDFFB5044650
:101FA000002581B01E46C80301D5302700E0202758
:101FB000880404D505E038460399B0476D1C641EBB
:101FC000F9D5284605B0F0BD4A68002A06D00A684F
:101FD000531C0B6010704868401E486070473D3DC0
:101FE0003D3D3D3D3D3D3D3D3D3D3D3D3D3D005249
:101FF00054433A2032253033642025642025642060
:10200000256420253032643A253032643A25303256
:102010006420543A253032642E25303264005265F3
:1020200061647920696E207374616E646279206DD9
:102030006F6465004C6F6F700046756C6C496E691B
:10204000740000005420000800000020500400002C
:04205000461B000823
:04000005080000C12E
:00000001FF
