:020000040800F2
:1000000048050020D5000008A552000899150008F1
:1000100000000000000000000000000000000000E0
:1000200000000000000000000000000083550008F0
:100030000000000000000000A752000883560008DE
:10004000E7000008E7000008E7000008E7000008F4
:10005000E7000008E7000008E7000008E7000008E4
:1000600000000000E7000008E7000008E7000008C3
:10007000E7000008E700000800000000E7000008B3
:1000800000000000E7000008000000000000000081
:10009000E700000800000000E7000008E700000893
:1000A000E7000008E7000008E7000008E700000894
:1000B000E7000008E7000008000000000000000062
:1000C0000348854600F02AFA00480047215B0008F3
:1000D000480500200448804704480047FEE7FEE743
:1000E000FEE7FEE7FEE7FEE785560008C1000008D0
:1000F00030B50B46014600202022012409E00D46C0
:10010000D5409D4205D31D469540491B2546954047
:1001100040191546521E002DF1DC30BDF0B51FB45C
:100120000646002082B005464024019100901BE065
:10013000019922460F46304600F012FA049A059BB8
:10014000801A994110D310461946224600F0F8F95A
:10015000361A8F410197224601200021009F00F0AE
:10016000EFF938184D4100902046641E0028DFDC6E
:10017000019B00982946324607B0F0BDF0B507460E
:100180000846584087B0C00F049048000E465900FA
:1001900040084908BC1A884105D2384631461E46F7
:1001A00017460B4602465800400810434CD0300D0D
:1001B000039040055900400D490D0590401A0290EA
:1001C000402872DA18030121000B09050843019049
:1001D00004980092002805D00199524200208841DD
:1001E00000920190029840210A1A0199009800F0AB
:1001F000A7F905460C466B4607CB00F0C2F9C019BB
:100200007141039A0E0D0023D71756401A467A40C3
:10021000164344D0049A002A2DD0029A012A039A48
:1002200015DC1205C01A914101263605001C7141EA
:10023000D20F059ED2070093019202962A462346CA
:1002400000F0BFF907B0F0BD38463146FAE71605B1
:10025000224A0F46B218C01AB74101210905001CF5
:100260004F4100187F41114618187941E20F1043A1
:100270006D19644113E0E2076D0815436408C20775
:100280001443039A01261205C01A91413605001C39
:100290007141CE07400830434908C01851412A46F1
:1002A000234600F081F9CDE7FFE7049801224000E2
:1002B000C117121A00238B4104983146C417381A0B
:1002C000A141EEE730B40124E407634030BC55E7B8
:1002D00030B40124E407614030BC4FE70000E0FF88
:1002E000F0B51FB488B00B990998002448400999CB
:1002F000C00F490049080991C0070B9900904900B7
:1003000049080B9109990898A64608431CD00B99F7
:100310000A98084318D0099801244000420D48006B
:10032000410D099824050003000B204309900B9808
:100330000003000B20430B9050181C49401800226A
:1003400001901446104605E0002001460DB0F0BDB6
:10035000032801DA034600E003239C46C11A0AAED3
:100360000AE05F0008ADED5B4F00F75B7D430027BF
:10037000AA187C41491C5B1E6145F2DD410004ABBB
:100380005A522104120C0A43240C401C0828DFDBBB
:10039000019802900099704601910090059B049A83
:1003A0000799069800F00DF9D0E700000DFCFFFF5B
:1003B000F0B50C465C4085B0E40FE40703944C00B4
:1003C00000266408590094464908024602962243D2
:1003D00021D062460A431ED06200570D4A000E0328
:1003E0002303550D012402462C492405781B1B0BC1
:1003F000360B401823432643614600901C46501A92
:10040000B44103D30098401C009002E09218009879
:100410005B41002803DA0020014605B0F0BD002052
:10042000012109050746864611E064461D46141B56
:10043000B54106D36546521BB341744607430C438E
:10044000A646CD0740084908284392185B41054657
:100450000D43EAD11046184313D060461946504068
:100460007140084306D06046101AB34106D20122FB
:10047000002306E000220123DB0702E00122D24331
:100480005310009874460105381C6141029C039D7D
:100490000019694100F088F8BFE70000FD03000083
:1004A00070B54B005B0803430BD04B005C0D00267E
:1004B00033466542B341D417AD1AA34102DB002095
:1004C000014670BD12053018514170BD0EB5C217FE
:1004D000C10F5040CA0740180021054B02930192FA
:1004E00000910A460B4600F06CF803B000BD000016
:1004F0003304000010B5002904DB0124E407404266
:100500008C412146002B04DB1C460123DB075242B1
:10051000A341994200D1904210BD0000064C012534
:10052000064E05E0E36807CC2B430C3C984710349B
:10053000B442F7D3FFF7C8FD68F3000888F300085A
:1005400010B5202A04DB0146203A9140002010BD5E
:10055000914020239C1A0346E3401943904010BD6C
:1005600010B5202A04DB0846203AD040002110BDF7
:100570000B46D340D0402024A21A9140084319468C
:1005800010BD10B5202A06DBCB170846203A1041D3
:10059000C1170B4306E00B461341D0402024A21A9A
:1005A00091400843194610BD10B5002B08DA00240D
:1005B000401C614192185B411A4301D14008400040
:1005C00010BDF0B51FB482B005460C0003D008463C
:1005D00006F0F8FA02E006F0F5FA20300246009044
:1005E00021462846FFF7ACFF049B059A04460F46B8
:1005F00018431143084314D0184610431BD00098E9
:1006000040210A1A18460599FFF7AAFF05460E462B
:10061000009A05990498FFF793FF084305D001203D
:1006200004E02046394607B0F0BD0020C11705435D
:100630000E432C43374300990E986305401A790501
:10064000E40A00220C43FD0A0A3002D500200146CC
:10065000E9E70105101969410C9C0D9D00196941DC
:10066000FFF7A2FFDFE7FEB500231A461B1A8A41F7
:1006700003DB0020014603B0F0BD4A000D03012159
:100680002D0B0905520D0D43D10702D100186D4104
:10069000521E5110FF31FF310131002704463E4602
:1006A0003846009701910246012100200905FFF715
:1006B00057FFC3197141F818324684468E464A41A5
:1006C00061462846611A904104D36046241A954138
:1006D00076461F46241900986D41401C009034282E
:1006E000E1DDF91930467041091BA84103D200220F
:1006F000D243134601E00022134601980105381C3D
:100700007141FFF751FFB6E703460B439B0703D048
:1007100009E008C9121F08C0042AFAD203E00B78C6
:100720000370401C491C521EF9D27047D2B201E03E
:100730000270401C491EFBD270470022F6E710B53C
:1007400013460A4604461946FFF7F0FF204610BD3F
:10075000F8B502464A40D40F42004B0052085B08ED
:100760009A4202D20246084611464A0023D0C30DDF
:100770004A00DDB2120EAD1A202D35DA49020126EB
:10078000490AF6058A19002C00D0524220214F1B3D
:100790001146B9402A411018C20D9A4221D0002CAE
:1007A00017D0012D08DCDA05801AD20F8019D20784
:1007B000DBB200F0E5F9F8BDDA05801A012340004C
:1007C0001B06C01880185A428018CA0F10434900EF
:1007D00007E04908C2071143DA05801A801940086A
:1007E000801800F0C5F9F8BD61000122511A001B04
:1007F000F7E70122D2075140AAE70122D207504071
:10080000A6E7024670B54A40D30FDB0740002DD063
:100810004A002AD0010E140E000212020919400AE1
:10082000520A8418E50104465443000A120A2E04B1
:100830005043A4194219200CC543AA18120C0125D3
:10084000AD03521C521912047F39240400D0521CEB
:10085000104301D44000491EC2B20C06C009201842
:10086000401C4008802A02D003E0002070BD4008F0
:100870004000002900DA0020184370BD70B5024620
:100880004A40D50F40004A00ED07400852080028B2
:1008900014D0002A12D0C40DD30D41020120C0058E
:1008A0005202490A520AE41A091812187D34914278
:1008B00001D3641C00E04900002C01DA002070BD67
:1008C0000023914201D3891A0343400849000028BC
:1008D000F7D100290AD0914202D10121C90705E0D0
:1008E000914201D2012101E00121C943E005C01874
:1008F000401900F03DF970BD0122D207002800DB4D
:10090000101A002900DB511A814201D801207047DA
:10091000002070470122D207002800DB101A0029AE
:1009200000DB511A814201D201207047002070473C
:100930000122D207002800DB101A002900DB511A1F
:10094000814201D301207047002070470122D20765
:10095000002800DB101A002900DB511A814201D95E
:10096000012070470020704710B5002904DB0C46B9
:100970000121C9074042A141002B04DB1C46012391
:10098000DB075242A341801A994101D3012010BDD7
:10099000002010BD10B5002904DB0C460121C90759
:1009A0004042A141002B04DB1C460123DB075242DD
:1009B000A341101A8B4101D2012010BD002010BDAF
:1009C00010B5002904DB0C460121C9074042A141B2
:1009D000002B04DB1C460123DB075242A341101A03
:1009E0008B4101D3012010BD002010BD10B500299E
:1009F00004DB0C460121C9074042A141002B04DB66
:100A00001C460123DB075242A341801A994101D2BF
:100A1000012010BD002010BDC217C10F504010B5FD
:100A20004018CA079623002100F0AAF810BD10B59F
:100A300000229623114600F0A3F810BD0EB505491B
:100A40000291002100910A460B460191FFF7B9FD82
:100A500003B000BD33040000C20F41004002012377
:100A6000400ADB05D207090EC0187F2901DA0020F1
:100A70007047962903DC9623591AC84001E096393D
:100A80008840002AF4D040427047000070B5CD0F76
:100A90004A0009030123090B1B0519430B4BED0702
:100AA0000024520D9A4201DA002070BD074B343306
:100AB0009A4203DC9A1AFFF753FD02E004495118E9
:100AC00088402C43F1D0404270BD0000FF0300007D
:100AD000CDFBFFFF4A0009030123090B1B05194346
:100AE000094B10B5520D9A4201DA002010BD064B99
:100AF00034339A4203DC9A1AFFF732FD10BD0349E2
:100B00005118884010BD0000FF030000CDFBFFFF1F
:100B1000C20FD207400040080BD0C10D0723DB01F4
:100B2000C91840020905400A1143C2084007114391
:100B30007047002001467047CB0FDB07490010B516
:100B4000490802460A4307D00A0D07240903E401B5
:100B5000090B121B002A01DC002010BDC900440F44
:100B60000C43C100E018D205801800F001F810BD58
:100B7000002904DA401C490001D1400840007047B8
:100B800070B40024050C05D11024000402D1002902
:100B900021D01124050E01D100020834050F01D126
:100BA0000001241D850F01D18000A41C002801DB59
:100BB0004000641C002908D020252E1B0D46F5405E
:100BC000A14000D001212943084301061B1B000A54
:100BD000DB1D02D5002070BC7047DB05181880189B
:100BE0000029F8DA401C4900F5D170BC40084000EB
:100BF00070470000B0B581B01B480168C90731D00B
:100C00007D21C90002685207764BB94A10D40468A6
:100C10001C4002232343036013680093009B036876
:100C2000DB0717D01368DB03DB175918F7D119E07E
:100C300004681C4010252543056014680094009C3E
:100C40000C460568ED06E2D51568ED03ED172C1985
:100C5000F7D107E00146083901220A600168034A1A
:100C60000A40026001B0B0BD08240140E8FFFF6FF8
:100C7000F0B58BB05848008800B202900023574D61
:100C8000F14E03932868C0076AD05548A86208202F
:100C90000190286004272F60A96839404B424B41DE
:100CA0007D21C9000022DB0704D0AB684D4803401A
:100CB0001B1DAB6033680A930A9B0B462C686407C4
:100CC00005D43468E403E417E318F7D148E02B6C4B
:100CD00045480340540009A803532F60AC683C40CA
:100CE00063426341521C022ADDD1002C28D10198B5
:100CF00028603E480088029908183D494843FFF79C
:100D000096FE019009AC6088FFF791FE01460198BC
:100D1000FFF7B4FD3749FFF7B1FD01902088FFF7D9
:100D200086FE01460198FFF76CFD3349FFF7A6FDEB
:100D3000039B990004AA50505B1C052BA1D113E022
:100D4000A868284A10401030A86030680A900A98B5
:100D5000A868C006CBD53068C003C0174118F7D1CA
:100D6000002528460BB0F0BD002504AE2C46E0B2AD
:100D7000800004A9085831680391FFF7E7FD0028B7
:100D800001D02C460BE00294F8B2800004A9085868
:100D90000399FFF7CDFD002800D12F46029C361D98
:100DA0006D1C052DE3D1E0B28600F8B28700002467
:100DB0002546A6420BD0A74209D004A800590F49E6
:100DC000FFF75CFD01462846FFF7C2FC0546241DDF
:100DD000142CEED1C5E7C04642010020002401409A
:100DE00002000200E8FFFF7FFF0F00007800F81FFD
:100DF000B80B000000F07F4500007A44000040403E
:100E000010B582B03748417800291FD0364CF921FF
:100E1000E1606168FA2901D300216160807800F007
:100E200041F9E06840086060012000022168014348
:100E300021609B490A680192019A14220B68DB0326
:100E4000DB179A18FAD121688143216002B010BDE6
:100E5000B0B582B023484178002940D0224CF92512
:100E6000E5606168FA2901D300216160807800F0B3
:100E700019F91E48E0606068C0087D2801D3002091
:100E80006060E0684008606001200102206808435B
:100E90002060834802680192019A28220368DB03DC
:100EA000DB179A18FAD12368244A13402360E560BF
:100EB0006368FA2B01D300236360E3685B08636017
:100EC00023680B432360016800910099282103687F
:100ED000DB03DB175918FAD120681040206002B0FC
:100EE000B0BDC0461C00002020000040E703000009
:100EF00010E000E010B501200E490A68D20503D4C5
:100F000002020B6813430B60C2040B4B1C681443B2
:100F10001C601C6894431C600B68084A13400B60FB
:100F2000ED3207495358002B02D1121DFAD100208F
:100F300010BDC0460070004050100240FFFEFFFF91
:100F400064280040F0B585B01E4615460746534A52
:100F50001068000731D4524803680393039B14239D
:100F60000468E403E417E318FAD11068000724D4F6
:100F700000960846FFF762FD02460B460020334903
:100F800006F02AF9029505460E4601973F78384645
:100F9000FFF754FD2A463346FFF70AFAFFF79AFD9A
:100FA0000A21FFF7A5F80C4628463146FFF792FDC7
:100FB00002998C4237D2381840E013680020DB06D3
:100FC0003FD40295364B1C680494049C14241D687D
:100FD000ED03ED172C19FAD11268D20631D4084668
:100FE000FFF72CFD02460B460020184906F0F4F8E6
:100FF000054600960E4601973C782046FFF71EFDF9
:101000002A463346FFF7D4F9FFF764FD0A21FFF7BC
:101010006FF80F4628463146FFF75CFD00998F4276
:1010200007D9201A0AE0444300994143C819001B1C
:1010300004E04743029941430819C01B0199087015
:10104000012005B0F0BDC04610E000E000002440E3
:10105000B0B581B00120C0030F49104A104B0C6895
:101060000442FCD014682407F9D51468E406F6D5C8
:101070001C680094009C14241D68ED03ED172C19C6
:10108000FAD10C680442EAD014682407E7D5146842
:10109000E406E4D501B0B0BD1000005010040050CB
:1010A00010E000E0F0B581B00B21FFF721F80C460D
:1010B0000F4F3868FFF7C2FC00250E4B2A46FFF79A
:1010C0000FF90D4B2A46FFF773F905460E462046E9
:1010D000FFF7B4FC02460B46FFF702F92A463346F7
:1010E000FFF7FEF8FFF7F6FC386101B0F0BDC0462F
:1010F0002C0000400000E03F0000594070B51D4644
:10110000144600F001FA242004F06EFB6C43200426
:1011100009D0049D0026284604F092FBA0B2761C5C
:10112000B1B28142F7D32520C2000020102301462E
:1011300000F0EAF970BD000070B52520C40000255C
:10114000102328462946224600F0DEF9242004F028
:101150004BFB074EFF2004F073FB681CB5420546AD
:10116000F8D3002010230146224600F0CDF970BDCF
:101170007F120000F0B587B007240B46059423408A
:101180005B1CDB0804935B1C0191C908029200F010
:10119000BBF900273A4603920225019839460C46CE
:1011A00006A90F700599084039468022C2401143B4
:1011B0006D1E2A0603D0401C0828F6D100E03D46EB
:1011C000C84306AE3070242004F00EFB01213046E7
:1011D00004F062FB611CE0B2049A90423846DED310
:1011E000039A521C90B202998842D4D307B0F0BD42
:1011F000F0B581B01446127863789A18A378DD08A8
:101200002B4600F081F966782778242004F0ECFA68
:10121000F1196943E01C04F03FFB01B0F0BDF0B5EB
:101220008DB00A92069105901878002800D1E8E068
:101230001C46139E129F391D0791F11D0391002535
:1012400008960497010615D40B95002F25D0397800
:10125000401A7A78B97813464B43DE087043079DED
:10126000281809908019FB787343EB18984250D9DD
:101270000B9D5EE0002E00D1BEE00CA900220A709A
:101280001146034693401B0632D5521C491C052AC1
:10129000F7D10CA805210170AAE0002E4ED020281D
:1012A0004CD105980B99081880B2B178727856081D
:1012B000CF08069932463B4600F026F97E430ED011
:1012C00000250CAFFF203870242004F08DFA012196
:1012D000384604F0E1FA6D1CE8B28642F1D80B986A
:1012E0000A994018089E717849084518049F83E0C0
:1012F0000CAA11707F220A40042A21D0032A32D07E
:10130000022A75D16178002972D0641CC006420D92
:1013100035E005980B9D281880B2CB08069900F09F
:10132000F3F8242004F060FA0998314604F0B4FA86
:101330007A780A9828188518089E5DE00B9D5BE076
:101340006278002A54D0A378002B51D0E17800298C
:101350004ED0E41C4007C00A9206920B10189A0661
:10136000120D82180BE06278002A41D0A178002982
:101370003ED0A41C0007000C9206120D12183F204C
:101380000840104334D0F178002931D00B957378A0
:10139000B278019300925343DA080292D21C099268
:1013A0000223DB43039EF55C2D04F21857783F02BD
:1013B0007D199278AA18824207D0099AB618491E58
:1013C000F1D1089E049F0B9D12E005980B9D2818F3
:1013D00080B20099CB080699019A00F095F8242074
:1013E00004F002FA3046029904F056FA089E049F6F
:1013F0000A982818717845186078641C002800D075
:1014000020E70DB0F0BD80B5222004F0EDF90320F7
:1014100004F016FA202004F0E7F904F067FA10202F
:1014200004F0E2F9012004F00BFA80BDB0B582B0FF
:101430000446304910220A612F4803680093009B3C
:1014400001230568ED03ED17EB18FAD10A60016876
:101450000191019901210268D203D2175118FAD1E2
:10146000012C04D0122004F0BFF904F03FFA01254A
:10147000284604F0B9F9272004F0E2F9284604F0E0
:10148000DFF9002004F0DCF90C2004F0ADF9D720DE
:1014900004F0D6F9D62004F0D3F99D2004F0D0F959
:1014A000112004F0A1F9284604F0CAF92C2004F018
:1014B0009BF99A2004F0C4F93A2004F095F91A2017
:1014C00004F0BEF93B2004F08FF9082004F0B8F9CD
:1014D0003C2004F089F9332004F0B2F9322004F002
:1014E00083F960B2800005A108581E2104F0D4F9E8
:1014F00002B0B0BD1800005010E000E0DEE40008CB
:10150000FCE40008C0E40008F0B581B01F4600927A
:101510000C460646442004F067F9204604F090F992
:10152000E019411E1F20084004F08AF9452004F00C
:101530005BF9FF202830851BEEB2304604F080F9BD
:10154000E805C70F384604F07BF90098281A451CB7
:10155000E8B204F075F9E805C00F04F071F94E2007
:1015600004F042F9204604F06BF94F2004F03CF9F6
:10157000304604F065F9384604F062F901B0F0BD78
:1015800080B5222004F030F9C62004F059F920205B
:1015900004F02AF980BD0000BFF34F8F03480449CF
:1015A0000160BFF34F8F00BFFDE7C0460CED00E0C8
:1015B0000400FA0580B582B06E4801680191019976
:1015C0007D21CA006C490B685B0708D40368DB0304
:1015D000DB179A18F7D104F0AFF9002000E0C868D3
:1015E000C0B202B080BDC046F0B583B001917D238A
:1015F000DD00504B5C6924045E4E14D4009201223D
:101600001146D7021C68BC431C60324A541C1F6838
:101610002740381818601868019F002F15D02A46F7
:101620001832104312E034680294029C2C465F6921
:10163000FF07E3D13768FF03FF173C19F7D104F028
:101640007BF9002841D1012440E0104018600C468D
:1016500008061A6882431A60FF2000041A68824351
:10166000009800041018186048061A6882431A602F
:1016700048031A6802431A60306802900298002FEB
:1016800018D0002D1DD05869400718D43068C00309
:10169000C01745195869C006F3D598691021014350
:1016A0009961032412E03068C003C01745195869D6
:1016B000C006F2D4002D04D05869C007F3D000242E
:1016C00004E004F039F9002800D00224204603B0D9
:1016D000F0BDC046FFFBFFFF10B582B02548016892
:1016E000019101997D21C900124A0B465469E40712
:1016F00005D10468E403E417E318F7D10FE00123F0
:101700009B0314681C43146003680193019B536995
:101710001B040CD50368DB03DB175918F7D104F061
:101720000BF9002801D0022002E0012000E0002097
:1017300002B010BD0454004010B582B00D490A68D3
:101740000192019A7D22D3000B4A1468E4070AD162
:101750000C68E403E417E318F7D104F0EDF800286F
:1017600004D0022003E01061002000E0012002B05C
:1017700010BDC04610E000E018540040F0B584B041
:101780000C68002C55D00123019303915A1E019F30
:101790009740274048D04A68551E022D02943D4686
:1017A00015D27D4303998C686C4303266E43816890
:1017B000B143214381600399C9680092029A514361
:1017C00044689443009A0C434460039902E07D43CB
:1017D00003266E43F64309696943C46834400C43E9
:1017E000C460022A029C19D13C0A01D0242200E0E4
:1017F000202203994F6902928258002C02D0644340
:10180000644301E02C466C430F2161438A436743E4
:1018100017430299475003990C684A685543016879
:1018200031402943016003992246DA405B1C002ABB
:10183000ACD104B0F0BD0000F0B587B072B62B4F4C
:10184000786A00902A4CA0680290E068019065696F
:10185000A6692848411C3A680A433A603968014041
:10186000396003A800F04AF83046284333D00320FB
:101870008004796A204A11407962002D0FD02169D5
:1018800001220A4322616561039923680822491EE7
:1018900001D01340F9D06368134363600391009D46
:1018A0000540002E12D02069012101432161A6616B
:1018B00003A800F023F8039822681021401E01D0ED
:1018C0000A40F9D062680A4362600390786A0A4964
:1018D00008402843786220690121884320610298EA
:1018E000A0600198E06062B607B0F0BD2810024029
:1018F000007C0040FFFFFF7FFFFFF3FFB0B5044611
:1019000003F0FAFC20608C490A681206120F094B9A
:101910009A5CD04060600A685205520F064B9A5C90
:101920000546D540A56009688904490F595CC8403F
:10193000E060B0BD76E6000886E60008F0B581B04C
:1019400072B601242102754D6A688A436A6029686B
:101950000427394329607A4A20211160704B1A68A4
:10196000A2431A605C616F4A116004F097F860024C
:10197000296801432960A1022A688A432A60E10399
:101980006D4A13680B4313602968214329600221C3
:10199000CA432B6813402B60684B1E683E431E6091
:1019A00030BF2B6883432B606003654B1860654B29
:1019B0005D6815405D601A680A431A606107584AFD
:1019C000516158490860FFF737FF62B601B0F0BDBA
:1019D00070B572B651484168144A114041600368BD
:1019E00004210B430360036808241C4304600123A3
:1019F0001C024568254345609C040D4D2E68A64396
:101A00002E602C689C432C602C6814402C605A0279
:101A100003681343036002680223134303604748CB
:101A200002680A43026030BF70BDC046FFFEFFFF80
:101A300050100240F0B585B072B601242002374E36
:101A400071688143716030680421039108433060FC
:101A5000E1430491324A10680840106054613148F3
:101A6000202707601068204310602F480760FF2080
:101A700000022E490A6882430A602D4804F00EF8DD
:101A80003068019030682B490840210340183060CD
:101A900061020291306808433060A00233688343DA
:101AA0003360E003244B1A6802431A603068204315
:101AB00030600223D8433268024032601F4A116806
:101AC000039D294311600321C902019A114030BFCF
:101AD0003268184D2A405118316019490F60104D75
:101AE0002A6804990A402A606C610E4A17603268BD
:101AF00002998A433260620311490A6011494E68B3
:101B000006404E6008681843086060076861054831
:101B10000260FFF791FE62B605B0F0BD00700040B4
:101B20000004014080E200E000E100E004E400E0A5
:101B300010270000FFE7FFFF0C10024010ED00E04F
:101B400080E100E0047C0040ADB001201190000273
:101B5000109098480078411E974D022900D39EE1CD
:101B6000FFF7C8F90F2003F06FFC944940B200283A
:101B700003D40878AA2800D129E203F095FB0126B6
:101B8000F4038F4800688F4F002800D0F6E18EA044
:101B900000210C960E4600F063FFFFF759FA33461A
:101BA000812040000D900F960E960C9E30468B497A
:101BB000096821420CD139681491149914213A68AA
:101BC000D203D2175118FAD184490968214277D03B
:101BD000D9B2032970D8C0467944097949008F44A5
:101BE00001264B5B296809070BD4396814911499B5
:101BF00014213A68D203D2175118FAD1296809077B
:101C000064D52968C90657D43968149114991421E8
:101C10003A68D203D2175118FAD12968C9064BD4B1
:101C20000E9AD0B200280C9E60D10E9060E0296818
:101C300009070BD439681491149914213A68D20316
:101C4000D2175118FAD12968090747D52968C9065A
:101C500032D439681491149914213A68D203D217F6
:101C60005118FAD12968C90626D40F9AD0B2002893
:101C70000C9E40D10F9040E0296809071CD43968B8
:101C80001491149914213A68D203D2175118FAD139
:101C90002968090710D439E1296809070CD4396883
:101CA0001491149914213A68D203D2175118FAD119
:101CB0002968090700D45FE1002600281FD175E7D5
:101CC000D8B203280C9E13D25B1C12E00E99C8B246
:101CD000092801D2491C0E910C9E09E00F99C8B247
:101CE000092801D2491C0F910C9E06E0521E0E924B
:101CF0000023012003E0521E0F92012003462968B1
:101D0000C907139317D1FE2018400228129617D145
:101D10000025009532480190C520012631462A460B
:101D2000304BFFF77CFA00952D480190FD2031469D
:101D30002A462D4B1FE0002E064600D136E7A8E0CC
:101D40000026009626480190C520012529463246E6
:101D5000264BFFF764FA009621480190CD202946D2
:101D60003246234BFFF75BFA00961D480190FD2099
:101D7000294632461F4BFFF752FAFF260096842071
:101D80000721242201252B46FFF7B8F90096D3201E
:101D90000F214F222B46FFF7B1F91398C0B2032849
:101DA000109E34D878440079400087440125282AC1
:101DB000842022E011000020100400501C000020AC
:101DC000FC07080810E000E0E7A1ACE4BBB6E78937
:101DD00088E69CACE8AEBEE7BDAE00001000005047
:101DE000849A0008F1F100086BF20008F9EC000891
:101DF000FEEC0008B5F100089C20072104E0DD207E
:101E000001E00D980A300F21EA4AFFF7F1F90F9827
:101E1000C0B200900E98C3B2E7483146E7A204F082
:101E2000B5FEEC480090EC4D0195042100263046AB
:101E30003246E14BFFF7F3F9E6480090019508219F
:101E400030463246E5A3FFF7EAF9E24800900195F3
:101E50000C2130463246EAA3FFF7E1F90096ED483F
:101E60000190D3200D2529463246EB4BFFF7D7F9D9
:101E70000096E84801900D9829463246E74BFFF757
:101E8000CEF9FFF77DFB12980028E54D139B00D19A
:101E90008CE6FEF7B5FFFFF7DBF8139B86E6032819
:101EA00000D094E00F2003F0CFFA80071FD42868F9
:101EB00000070CD4DB4801681491149914210268BE
:101EC000D203D2175118FAD12868000719D528680B
:101ED000C00616D4D34801681491149914210268DD
:101EE000D203D2175118FAD12868C00609D40F2599
:101EF000284603F0A9FAFD210140284603F0C1FA63
:101F000065E003F0D1F900F047FE60E03868149016
:101F10000E98C0B20F99C9B209044018C2494218BC
:101F200014987D20C100C1480B464569ED0705D0D6
:101F30003D68ED03ED17EB18F7D11DE00368DB07F3
:101F400003D0BB4B8360BB4B8360BB4B1A603A68CA
:101F50001492149A4269D20705D03A68D203D21774
:101F60005118F7D108E0016801220A4302600068B5
:101F7000C00701D0B0480068FEF76AFFAFA0022199
:101F800000F06EFDFFF764F800200421AF4AFFF770
:101F90002FF9FFF7F5FAFFF74DFDAD49086820422C
:101FA000FCD138681490149814203968C903C917F3
:101FB0000818FAD1A64908682042EFD1FEF748FF79
:101FC00002F006FEAA20A349087003F0DBFA03F032
:101FD0006BF9A14803F0D0F9002420460B30C5B2BC
:101FE000284603F031FA014680263143284603F0A3
:101FF00048FA641C032CF0D112960E26304603F0EA
:1020000023FA02210143304603F03BFA0F273846FA
:1020100003F01AFA0146FD2013900140384603F000
:1020200030FA304603F010FA0146FE2529403046CA
:1020300003F027FA384603F007FA054038462946E8
:1020400003F01FFA304603F0FFF9014604200D901B
:102050000143304603F015FA804814A9062203F024
:1020600039FB00286DD114AA511CFF24137863405A
:1020700000245D0031201B0600D54540EBB2651CF5
:10208000072C2C46F5D3541C8A4222461C46EDD11F
:1020900014A98978994254D114AA111DD21CFF2485
:1020A0001378634000245D001B0600D54540EBB269
:1020B000651C072C2C46F6D3541C8A4222461C462B
:1020C000EED114A8407998423BD114AD2888000481
:1020D00000BAFEF7FBF90027614C3A462346FEF7AB
:1020E00067F9604B3A46FEF7FBF85F4B3A46FEF75E
:1020F00045F8FEF721FD01465C480068FEF728FB25
:102100005B4908602879E97809020818FEF7DEF9CA
:102110003A462346FEF74CF9564B3A46FEF7E0F8AE
:10212000FEF70AFD014654480068FEF711FB07461A
:10213000524D2946FEF70AFC002800D13D46504882
:1021400005600220FFF772F9FEF7F6FF4D480468BC
:102150002046FEF7DDFC07460D464B4A4B4BFEF78B
:1021600019FC002807D14A4A4A4B38462946FEF74F
:10217000FBFB002802D1FEF77BFD04463548806852
:102180002146FEF7B9FB1199CF020A0389070028FF
:1021900020462F4C0F920E9100D081E00A2003F0D0
:1021A00053F92646AA2800D045E13B48E2213B4AA4
:1021B00053E1C04677C3000834000020E7A1ACE437
:1021C000BBB6E78988E69CACEFBC9A5625642E2501
:1021D00064000000D97C000800A000085BE6B3A8FA
:1021E000E6848FEFBC9AE8AEBEE7BDAEE4BF9DE5E6
:1021F000AD98E5908EE4B88DE4BC9AE5868D00003C
:10220000E698BEE7A4BAE6ADA4E88F9CE58D955D9F
:1022100000000000849A0008C3F10008A6F100083D
:102220001004005010E000E0302E30000420024086
:10223000EFCDAB8905040302FC070808E6ACA2E871
:10224000BF8EE4BDBFE794A800000000DDD6000803
:10225000100000501C00002038010020062C000057
:10226000E0FFEF4000E06540008046C03401002000
:102270001800002000005940080000200000C8425B
:1022800014000020502800409A9999999999B93FD3
:10229000CDCCCCCCCCCC0C40EBF0000811EF00083E
:1022A00009900A200021139103F0EBF87D24FE4BE6
:1022B0005979481EC0B20B280C970D940CD81A7986
:1022C000501EC0B21E2807D820019B791818F74B62
:1022D000C318C82B00D232E1F54800210170F5483F
:1022E0000170F5480170F5480568F54807688120D8
:1022F0004600079626361C21139C20463246FEF7E0
:1023000039FF682120463246FEF734FFD5204321AD
:102310004C22FEF72FFFCA200421022208230B9132
:102320000A93FFF7F1F83846FEF7F2FBE54AE64F6D
:102330003B46FDF723FFFEF7FFFB0646FEF78CFB4F
:102340000490FEF769FB01463046FEF752FADF497A
:10235000FEF757FA069028462146FEF7DBFA0646B6
:102360002846FEF7D5FB02460B46002E00D0D84F7C
:10237000D448D64C3946FDF701FFFEF7DDFB064693
:10238000FEF76AFB0890FEF747FB01463046FEF772
:1023900030FA2146FEF735FA0590139F3846119022
:1023A0000720382539460C4614A90F703946129B70
:1023B0001A46C24011436D1E2A0603D0401C08284D
:1023C000F6D100E03D46C84314AF3870242003F036
:1023D0000BFA01263846139F314603F05DFA611C63
:1023E000072C3846DFD31199481C0029D7D0B948AB
:1023F00045682846099C2146FEF7A8FA0746059835
:10240000FEF72AFB11900698FEF726FB1290002F8C
:102410000CD1B1482946FEF7ECF90746FEF778FBE8
:10242000AE4AAF4BFEF7CCFA002866D10798401DA4
:102430000021AC4ADCE00020AB4A0146FEF7D8FEA2
:10244000FFF79EF8FFF7F6FAFEF7DDFF0A20AA2154
:1024500003F017F8A548DE21A54A03F069F90E2517
:10246000284602F0F1FF0146139C2140284603F064
:1024700008F80F25284602F0E7FF044028462146C9
:1024800002F0FFFF9B4A1068400603D51068402108
:102490008843106010203446B0610820B0614020AD
:1024A000B061954D0D98A860FEF7A4FB0E9E306AB2
:1024B0009249084030623168012081433160904A7E
:1024C0001168C90702D01168814311602020A861FA
:1024D0000F98A061A760FB4EFB4F2546109CEF2193
:1024E0008248324603F024F9AC613220FFF726FA25
:1024F000AC603846FFF722FAF1E777492046FEF74D
:1025000017FA002854D120462946FEF772F90546ED
:102510007C493846FEF7B2F901462846FEF7AEF987
:10252000FEF7F6FA0022FA4BFDF728FEFEF7AEFAA8
:1025300000283ED0142800D31420064639E0DC1CC5
:10254000A700EE4DED590B9545024F012F43174360
:102550000B9DBD4200D99C1CA400E84B1D5903F003
:102560005FF807461F222A40E802000DE905090F1F
:1025700003F056F8381A401CE1490B59D9030A0FE9
:102580000D24119D2946641EA5401D40E540012DE6
:1025900001D01D2500E01E2587B2BD4200D37EE19B
:1025A000401B491C002C119D139FECD1314677E153
:1025B000142614ADD74963222846FEF7A5F85635F0
:1025C00000200146CC4A5219FF23D45CF82727404B
:1025D000D7546B1E18702B781F241C402C70FE32B1
:1025E000491CB1421546EDD30798401D002114AA9D
:1025F000FEF7FEFDBC4CA379E07861792279019267
:1026000000918000C44908180290B44DC3A2284626
:10261000109904F0BBFAB24E0196B2480090002027
:10262000012701463A462B46FEF7F9FD207A00289D
:1026300013D0E079002807D0AA4800900196002026
:1026400009210222BCA306E0A648009001960020C2
:1026500005210222B9A3FEF7E2FDA378607800907D
:102660009E4DB74A2846109904F090FA207A0196B8
:10267000B4490091002801D0222000E01620052155
:1026800006222B46FEF7CBFD0920C043089B834260
:10269000139702DC9148AE4A38E0632B34DC119882
:1026A00000908E48A94A31E03801002030F8FFFF41
:1026B0000E000020100000200C0000201800002058
:1026C000140000209A9999999999A93F00002041F6
:1026D0009999A9BF1C00002000004040FCA9F1D23C
:1026E0004D62503FF7C300085AC40008EBF00008E1
:1026F0004EEF00080030014010040050FFFEFFFFC5
:10270000005400400000A04174488F4A109C2146AC
:1027100004F03CFA049D7348009037460196D5209A
:10272000052100266D4B3246FEF779FD632D04DC52
:10273000129800906948884A01E06848854A214615
:102740002B4604F023FA674800900197D520092111
:10275000624D32462B46FEF762FD6B48007807213A
:1027600048437E4A1018674A1278684B1B780190DC
:102770004B437B48C018009090007A490B187A4A66
:102780002846214604F002FA5348009601900E2193
:10279000022230462B46FEF742FDFEF7F1FEFFF720
:1027A00049F9FEF765FA71490A68224202D10A68BE
:1027B00022430A604D4A106008684F4D2840086067
:1027C0001068FEF720FE4B4B186840063F4C404A0D
:1027D000139E03D518684021884318601020A0611B
:1027E0000A98A0614020A0610B9890604049086859
:1027F000C00702D00868B0430860202090610F989D
:10280000A0610C98A060FEF7F5F90E99086A2840BF
:1028100008620868B0430860F0032E4D2168014249
:10282000FCD029681491149914212A68D203D21774
:102830005118FAD121680142F0D04D4CAB214D4ADC
:10284000204602F075FFFFF7C3F8B0214A4A204640
:1028500002F06EFF2868149014980D98C000296843
:10286000C903C9170818FAD1414CB221434A20467E
:1028700002F05EFFFFF7ACF8B4213F4A204602F0B9
:1028800057FFB5213E4A204602F052FFBFF34F8F5B
:102890003C483D490160BFF34F8F00BFFDE7139FE8
:1028A000184B1F70002A08D0CCB2A24205D2521C8D
:1028B000A24201D101221A70491E134A1070134816
:1028C00010E5C046BBEF0008881300001000005060
:1028D0001004005010E000E0849A0008340000204A
:1028E00000A00008D97C00083801002050280040D2
:1028F0000054004000300140FFFEFFFFC0E9000827
:1029000090E600080C0000200E00002010000020BF
:102910000000E03F94C30008F3E50008322530339F
:10292000642F253032642F2530326420E6989FE6EC
:102930009C9F257300000000504D0000414D000099
:10294000F2EE0008398A00080AF1000813F10008C5
:1029500001F1000858F1000861F100081AE50008CB
:102960001BE6000813E60008D2F0000800700040E3
:1029700094F0000832EF000810F0000874F000082E
:102980005CF000080CED00E00400FA05F0B587B03B
:102990002D490868022420430860086820400690FA
:1029A0000127059704970397032602960194402078
:1029B0000090069825486D462946FEF7DFFE0597EC
:1029C000049701A8D0C08020009020482946FEF737
:1029D000D5FE78051C4AD1680143D160D168014019
:1029E0000691069879061A4842680A434260C2680E
:1029F00018490A40C260FA040368934303607A04EA
:102A00000368934303600268BA4302601F22120204
:102A1000036893430360104A026102683A4302600C
:102A200082680A40826082680C4B1A4082603205DC
:102A300004689443046042680A404260591CC268BA
:102A40000A40C26007B0F0BD2C10024000040050E4
:102A500000540040FF7FFFFF0B02100000F8FFFF53
:102A6000F0B587B00C4605900220FEF7DFFCFF268C
:102A700002360027069704940396FEF75DFB009745
:102A80003C480190384639463A46059BFEF7C7FB5D
:102A9000A1203946384D2A46FEF7AAFBD1203946F7
:102AA0002A46FEF7A5FB304639462A46FEF7A0FB2C
:102AB000022C18D0012C314D2BD0002C45D10026F2
:102AC0000096019595200124214632462E4BFEF7B3
:102AD000A6FB00960195CD20214632462CA3FEF799
:102AE0009EFB2C4B28E000260096244D0195952056
:102AF000012421463246224BFEF791FB00960195B8
:102B0000CD20214632461F4C2346FEF788FB234644
:102B100012E00026009601959520012421463246B8
:102B2000194BFEF77CFB00960195C52021463246E5
:102B3000164BFEF774FB134B002200920195FD200B
:102B40000121FEF76CFB049C039E324627320020D5
:102B50001B21FEF70FFB0698002808D1FEF710FD99
:102B6000FEF768FF01200690FEF760FC85E707B0DE
:102B7000F0BDC04600A0000886C30008849A000883
:102B8000FFF100086BF20008EAF10008F1F100081B
:102B9000E58AA000B5F10008F0B593B0FEF758F94A
:102BA00012A8401C039081204000069001200102E1
:102BB0000591C5030021E94AE94EEA4F0490034616
:102BC0000E910D910C95002B47D13068C00612D4A0
:102BD00038681290129814203968C903C917081868
:102BE000FAD13068C00606D40D99C8B20A2800D3BD
:102BF000CEE0491CCBE03068000712D43868129050
:102C0000129814203968C903C9170818FAD1306816
:102C1000000706D40D99C8B2002800D0B6E00D9088
:102C2000B6E010680021109128420CD1386812904B
:102C3000129814203968C903C9170818FAD1106806
:102C4000284200D1D2E1109B0E99481E0C468441C7
:102C5000002900D094E00F9993E00220FEF7E6FBF4
:102C6000FEF76AFA00240094F048019020462146BD
:102C70002246EF4BFEF7D3FAA12010902146ED4EED
:102C80003246FEF7B5FAD1200F9021463246FEF7C4
:102C9000AFFA069D681E80B20B9021463246FEF7C1
:102CA000A7FA0094E7480190074695200A9001266C
:102CB00031462246E44BFEF7B2FA00940197CD204C
:102CC000099031462246F84BFEF7A9FA0094019785
:102CD000FD20089031462246F44BFEF7A0FA263537
:102CE0001B21079120462A46FEF744FAFEF748FCCE
:102CF000FEF7A0FE3046FEF799FBFEF71DFA0094A2
:102D0000CA480190204621462246C94BFEF787FA61
:102D100010982146C74F3A46FEF76AFA0F982146A7
:102D20003A46FEF765FA0B9821463A46FEF760FAF6
:102D30000094DB4F01970A9831462246D94BFEF7A3
:102D40006EFA00940197099831462246D94BFEF756
:102D500066FA009401970898824F0F9631462246F2
:102D6000D54BFEF75CFA204607997D4E2A460C9D0E
:102D7000FEF700FAFEF76CF9784A109423468EE0CD
:102D80000121080609D100200F907AE0491E0D911B
:102D900000230121049C0E9110933068C0076FD16D
:102DA0000B940A93FF2000900026042118220C2384
:102DB0003046FEF7A3F9C149C14808600B46C14837
:102DC00000909A48019003250D9C204628406843B6
:102DD000011D30463246FEF722FA0095E5B2A808FA
:102DE000431CB64804460599B74A03F0CFFEB548E0
:102DF00000908E480190EC200D210F96324623461C
:102E0000FEF70DFA032D50D827462046AF496CC96E
:102E10006CC009780170AB48009084480190192477
:102E200004210026204632463B46FEF7F8F9384694
:102E3000A749ACC9ACC00A88028089788170A148D2
:102E400000907A4801900721204632469B4D2B4640
:102E5000FEF7E5F928469F49ACC9ACC00A88028054
:102E60008978817097480090704801900A21204627
:102E70003246924F3B46FEF7D2F93846964951E02A
:102E80000F91002C0BD02C461D46FDF7B9FFFEF725
:102E9000DFF82B462546324E304A00200E9010981F
:102EA000002800D18FE601F031FE072D0B9C5BD886
:102EB000824C204689490CC90CC02CC92CC08148C1
:102EC00000905A48019019250421002628463246D0
:102ED0002346FEF7A4F9204681490CC90CC08CC9D1
:102EE0008CC0097801707748009050480190072104
:102EF000284632462346FEF792F9204679490CC906
:102F00000CC08CC98CC02746097801706D480090B0
:102F1000464801900A21284632462346FEF77FF9AB
:102F20002046F0496CC96CC00A880280897881709B
:102F3000644800903D48019019200D2100223B4635
:102F4000FEF76DF90C9D064E064F0B9CFEF718FB25
:102F5000002C024A0A9B96D1A1E7C04610000050FF
:102F60001004005010E000E00B2D0C9DDE4EEDD85B
:102F7000524F3846DD490CC90CC02CC92CC0097809
:102F8000017050480090294801901924042100261E
:102F9000204632463B46FEF742F93846D449ACC992
:102FA000ACC00A88028089788170464800901F482A
:102FB0000190072120463246404D2B46FEF72FF95F
:102FC0002846CC49ACC9ACC03C4F097801703D489B
:102FD0000090164801900A21204632463B46FEF7F3
:102FE0001EF93846C4492CC92CC09DE7FDF730FFB7
:102FF0000D98C0B201230A2801D901F041FC40001C
:1030000078448088400087440A00170021000E029F
:10301000F504FD079109AD0A690B060C340C00207C
:10302000012310930E900D9001F029FC00A00008E0
:10303000B9F1000886C3000801F0CAFD01230D9311
:1030400001F01EFC849A0008E3F100080024AB485C
:103050002146FFF705FDFDF7FBFFA948817809919F
:103060004078089001200D90A64A106828420DD1A2
:10307000A54B18681290129814201968C903C91733
:103080000818FAD11068284200D19FE0E0B200236E
:10309000032800D9BFE006A1085C40008744C04671
:1030A000849A0008E3F10008ADF10008B1F10008CE
:1030B00024516A7EADF10008B1F10008340000200F
:1030C000E296B600D97C000862F2000880F200089F
:1030D000D0F20008BCF20008A8F200080CF30008C7
:1030E00020F3000838F30008306800070CD4864A43
:1030F00010681290129814201168C903C917081893
:10310000FAD13068000712D53068C00600D582E0D9
:103110007D4A10681290129814201168C903C917CB
:103120000818FAD13068C0060D98109375D4744A07
:10313000507841424141517000240120049B109479
:1031400076E03068000748D46F4A106812901298F1
:1031500014201168C903C9170818FAD1306800078C
:103160003BD4674A917800201090012009294FD85C
:10317000491C4CE0306800074DD4634A1068129037
:10318000129814201168C903C9170818FAD13068B9
:1031900000070D98109340D401F0B4FC306800078C
:1031A0003FD4594A10681290129814201168C9032C
:1031B000C9170818FAD13068082101404A424A412B
:1031C00010920007C0170D99084026E0E0B20021D8
:1031D0001091032829D3109C28E03068C0061AD427
:1031E000494A10681290129814201168C903C9172F
:1031F0000818FAD13068C0060D9810930DD4404AD3
:103200009178002010900120022901D3491E91706D
:10321000049B04460CE00D98109301060D9307D112
:10322000D2E0002010900D98F7E7641C0120049B69
:103230003168C90717D10A93FE200B94204000255E
:10324000022812D10095A54C0194C52001263146D3
:103250002A46A34BFDF7E3FF00950194FD2031467C
:103260002A46A04B19E00D90AEE000959B4C0194CE
:10327000C520012631462A469B4BFDF7D0FF00951D
:103280000194CD2031462A46984BFDF7C8FF0095A2
:103290000194FD2031462A46954BFDF7C0FFFF27DC
:1032A0000097F0200421182503262A463346FDF70F
:1032B00025FF0097CC2008212A463346FDF71EFF44
:1032C0000097D3200F214F220123FDF717FF0B9802
:1032D000C0B20328044E33D87844007940008744B4
:1032E000151C2729E4F200081004005050F30008D0
:1032F000F8F2000894F2000870F2000841F20008A9
:103300001C0000201000005010E000E07948009000
:1033100079480190F020042105E076480090764835
:103320000190CC2008210022744BFDF778FF07E0C4
:10333000DD2001E006980A300F21714AFDF758FFA1
:103340006C4F00976C4C01940425002029460D9089
:1033500002466C4BFDF763FF6B4840780097019481
:1033600000286A4B00D06A4BC02029460D9F3A4680
:10337000FDF755FF644883780A200090654D284684
:103380000599654A03F002FC5A4800905A4801909A
:10339000082138463A462B46FDF741FF00974F4C2F
:1033A0000194D3200D2529463A465C4BFDF737FFA3
:1033B00000970194069829463A46594BFDF72FFF8E
:1033C000FEF7DEF80AAD38CD109800280AD1109823
:1033D000022811D11F4602F0D5F8002F18D0274639
:1033E00002240DE048480999817008994170002B2A
:1033F0000ED02746012403E027460024002B03D0EB
:10340000FDF7FEFCFDF724FE002C3C4600D12BE628
:10341000FDF71EFD01230020109002200D90E64ACA
:10342000E64FFFF711FC0024E5482146FFF718FBA3
:10343000FDF70EFE34484168099180680D90012720
:1034400010940894DC4B394618682842DB4F0CD1A5
:1034500038681290129814203A68D203D2171018C4
:10346000FAD11868284200D1F1E0186828420BD13F
:1034700038681290129814203A68D203D2171018A4
:10348000FAD1186828421ED0306800070BD438687B
:103490001290129814203A68D203D2171018FAD159
:1034A000306800070FD53068C0060BD4386812901A
:1034B000129814203A68D203D2171018FAD1306843
:1034C000C00600D506241098C0B2032800D9B7E082
:1034D0007844007940008744256091A2849A0008CE
:1034E000F1F100086BF20008F9EC0008FEEC0008AE
:1034F000B5F10008D97C000800A00008FDF0000824
:1035000077C30008CAF100081C000020F8F1000889
:103510005BF2000834000020D6EE0008C3F100087A
:10352000A6F10008306800070CD438681290129891
:1035300014203A68D203D2171018FAD13068000765
:1035400000D493E03068C0067AD43868129012989C
:1035500014203A68D203D2171018FAD13068C00686
:103560006ED40998FDF7D4FA07460D46954A964B56
:10357000FCF704FE954A964BFDF738FA06463846A6
:103580002946904A934BFCF7F9FDFDF7D5FA002E3A
:1035900000D109980021109182E0306800070BD417
:1035A00038681290129814203A68D203D217101873
:1035B000FAD1306800077BD53068C00640D438683F
:1035C0001290129814203A68D203D2171018FAD128
:1035D0003068C00634D40D98FDF79AFA07460D46B8
:1035E000784A794BFCF7CAFD784A794BFDF7FEF92A
:1035F000064638462946734A764B6BE0306800072A
:103600001ED438681290129814203A68D203D21748
:103610001018FAD13068000712D401F034F930687C
:1036200000070DD438681290129814203A68D2031B
:10363000D2171018FAD13068000701D401F02AF926
:103640000027002900D1FEE60B940D9A51E0109955
:10365000C8B2032802D30020109001E0491C109149
:103660000D9AFF200B900121049F42E00998FDF77D
:103670004FFA05460E46534A574BFCF77FFD002292
:103680001092564BFDF786F90746284631464D4ABB
:10369000534BFCF773FDFDF74FFA002F00D109984B
:1036A0000121049F09900B940C9D434B4D4ECCE798
:1036B0000D98FDF72DFA07460D46424A464BFCF79A
:1036C0005DFD0022454BFDF765F906463846294663
:1036D0003C4A434BFCF752FDFDF72EFA002E00D179
:1036E0000D980121049F109102460B940C9D324BC2
:1036F0003C4E3068C0070D9217D1FE20109908404B
:1037000002280A9717D100250095E84C0194C5209E
:10371000012631462A46E64BFDF781FD00950194CE
:10372000FD2031462A46E34B1EE0002F0B9C0F463E
:1037300000D188E60EE100250095DC4C0194C520FF
:10374000012631462A46DC4BFDF769FD00950194C0
:10375000CD2031462A46D94BFDF761FD00950194F5
:10376000FD2031462A46D64BFDF759FDFF24009433
:10377000B425042118260327284632463B46FDF788
:10378000BDFC00940821284632463B46FDF7B6FCB6
:103790000094D3200F214F220123FDF7AFFC109896
:1037A000C0B20328C74F099C38D802A1085C40006A
:1037B0008744C0461A212C2E1000005010E000E073
:1037C00024F200087B14AE47E17A74BF9A99999964
:1037D0009999E93FE17A84BFE17A743F000008409B
:1037E000E17A843F10040050B7480090B748019038
:1037F000B420042105E0B4480090B4480190B420FE
:1038000008210022B24BFDF70AFD07E0DD2001E0B0
:1038100006980A300F21AF4AFDF7EAFC2046FDF773
:1038200077F9AD4AAD4BFCF7A9FCFDF785F90646E3
:10383000FDF712F90546FDF7EFF801463046FCF7B3
:10384000D8FFA749FCF7DDFFFDF706F900903846E1
:10385000059C2146A34A2B4603F098F99A4800900C
:103860009A48019004213B46002738463A46FDF726
:10387000D6FC0D98FDF74CF9974A984BFCF77EFC67
:10388000FDF75AF90646FDF7E7F80546FDF7C4F8D7
:1038900001463046FCF7ADFF9149FCF7B2FFFDF75A
:1038A000DBF80090874E304621468F4A2B4603F0C6
:1038B0006DF98548009085480190082138463A46C0
:1038C0003346FDF7ACFCFDF7D3F9FDF721F9824A49
:1038D000824BFCF753FCFDF72FF90646FDF7BCF8C9
:1038E0000546FDF799F801463046FCF782FF7C4912
:1038F000FCF787FFFDF7B0F80090724E3046214686
:103900007A4A2B4603F042F96F4800906F480190C5
:103910000C2138463A463346FDF781FC0097634C4C
:103920000194D3200D2529463A46714BFDF777FCCB
:1039300000970194069829463A466E4BFDF76FFCB6
:10394000FDF71EFE0A9800280B9C0C9D6A4B6B4EDF
:1039500000D178E5FDF754FA0B99674B0806089CEF
:1039600000D170E50C463068C0060CD4644A10687B
:103970001290129814201168C903C9170818FAD1B7
:103980003068C00621D5306800070CD45C4A106846
:103990001290129814201168C903C9170818FAD197
:1039A0003068000711D51868284200D04BE5544A0A
:1039B00010681290129814201168C903C9170818CA
:1039C000FAD11868284200D03DE54D4A106812909F
:1039D000129801201168C903C9170818FAD12146A5
:1039E000E0B20024FF2801D0491E00E0E1430806B0
:1039F000B8D128E50024E4482146FFF731F8FDF767
:103A000027FBE248C168089100690D900127204614
:103A100007941094384B394618682842384F0CD117
:103A200038681290129814203A68D203D2171018EE
:103A3000FAD11868284200D1F1E0186828420BD169
:103A400038681290129814203A68D203D2171018CE
:103A5000FAD1186828421ED0306800070BD43868A5
:103A60001290129814203A68D203D2171018FAD183
:103A7000306800070FD53068C0060BD43868129044
:103A8000129814203A68D203D2171018FAD130686D
:103A9000C00600D506241098C0B2032800D9B7E0AC
:103AA00078440079400087442D6091A2849A0008F0
:103AB000F1F100086BF20008F9EC0008FEEC0008D8
:103AC000B5F1000834000020D97C000800A00008EF
:103AD000FDF0000877C300087B14AE47E17A743F1D
:103AE0000000C8421AEE000832EE000884EE00081A
:103AF000C3F10008A6F100081000005010040050A7
:103B000010E000E0306800070CD43868129012987A
:103B100014203A68D203D2171018FAD1306800077F
:103B200000D48BE03068C00672D4386812901298C6
:103B300014203A68D203D2171018FAD13068C006A0
:103B400066D40898FCF7E4FF05460E46904A914B70
:103B5000FCF714FB002210928F4BFCF747FF07463F
:103B6000284631468A4A8D4B7BE0306800070BD4EB
:103B700038681290129814203A68D203D21710189D
:103B8000FAD1306800077BD53068C00640D4386869
:103B90001290129814203A68D203D2171018FAD152
:103BA0003068C00634D40D98FCF7B2FF07460D46C6
:103BB000774A784BFCF7E2FA0022774BFCF716FFC6
:103BC000064638462946724A744B6BE03068000757
:103BD0001ED438681290129814203A68D203D21773
:103BE0001018FAD13068000712D400F05BFE30687C
:103BF00000070DD438681290129814203A68D20346
:103C0000D2171018FAD13068000701D400F055FE21
:103C10000027002900D1FEE60B940D9A51E010997F
:103C2000C8B2032802D30020109001E0491C109173
:103C30000D9AFF200B900121049F42E00898FCF7A9
:103C400067FF05460E46524A554BFCF797FA00228D
:103C50001092544BFCF79EFE0746284631464C4ACC
:103C6000514BFCF78BFAFCF767FF002F00D1089847
:103C70000121049F08900B940C9D4C4B4C4ECCE7BB
:103C80000D98FCF745FF07460D46414A444BFCF7AB
:103C900075FA0022434BFCF77DFE0646384629465E
:103CA0003B4A414BFCF76AFAFCF746FF002E00D175
:103CB0000D980121049F02460B9410910C9D3B4BE3
:103CC0003B4E3068C0070D9217D1FE201099084076
:103CD00002280A9717D100250095364C0194C5207B
:103CE000012631462A46344BFDF799FA0095019496
:103CF000FD2031462A46314B1EE0002F0B9C0F461B
:103D000000D188E62EE1002500952A4C0194C520BB
:103D1000012631462A462A4BFDF781FA0095019487
:103D2000CD2031462A46274BFDF779FA00950194BC
:103D3000FD2031462A46244BFDF771FAFF240094FA
:103D4000D825042118260327284632463B46FDF78E
:103D5000D5F900940821284632463B46FDF7CEF9B6
:103D60000094D3200F214F220123FDF7C7F91098AB
:103D7000C0B20328154A164B089C41D878440079F4
:103D800040008744272C353731F200081C00002002
:103D90007B14AE47E17A74BF000024C0E17A84BF8F
:103DA000E17A743F00002440E17A843F1000005023
:103DB00010040050849A0008F1F100086BF200082A
:103DC000F9EC0008FEEC0008B5F1000800A00008BE
:103DD000D97C000800930192D820042103E00093CD
:103DE0000192D82008210022FA4BFDF718FA07E0CB
:103DF000DD2001E006980A300F21F74AFDF7F8F9B7
:103E0000002720463946FCF7A1FD05462046FCF771
:103E10007FFE02460B46002DF04900D1F049F148E3
:103E2000FCF7ACF9FCF788FE0646FCF715FE099096
:103E3000FCF7F2FD01463046FCF7DBFCEA49FCF7F3
:103E4000E0FCFCF709FEC11744184C403046E74936
:103E5000FCF752FD05463046FCF75AFEE14AE44BBA
:103E6000FCF7C4FD00940028E24800D1E248002D90
:103E7000E04AE24DE24E00D10246E24C204605996E
:103E8000099B02F083FE00960195042138463A46CC
:103E90002346FDF7C4F90D9C20463946FCF756FD34
:103EA00005462046FCF734FE02460B46002DCB4962
:103EB00000D1CB49CB48FCF761F9FCF73DFE064643
:103EC000FCF7CAFD0990FCF7A7FD01463046FCF758
:103ED00090FCC549FCF795FCFCF7BEFDC1174418E2
:103EE0004C403046C149FCF715FD05463046FCF70D
:103EF0000FFEBC4ABE4BFCF779FD00940028C24877
:103F000000D1C248002DC04AC14E00D10246BD4C6E
:103F100020460599099B02F039FEB9480090B74840
:103F20000190082138463A462346FDF778F9009774
:103F3000B84C0194D3200D2529463A46B64BFDF7DF
:103F40006EF900970194069829463A46B34BFDF75F
:103F500066F9FDF715FB0A9800280B9C0C9DB04BE9
:103F600000D158E5FCF74CFF0B99AD4B0806079CB8
:103F700000D150E50C463068C0060CD4A94A106840
:103F80001290129814201168C903C9170818FAD1A1
:103F90003068C00621D5306800070CD4A14A1068EB
:103FA0001290129814201168C903C9170818FAD181
:103FB0003068000711D51868284200D02BE5994ACF
:103FC00010681290129814201168C903C9170818B4
:103FD000FAD11868284200D01DE5924A1068129064
:103FE000129801201168C903C9170818FAD121468F
:103FF000E0B20024FF2801D0491E00E0E14308069A
:10400000B8D108E5002488482146FEF729FDFDF7D0
:104010001FF8864A1068059908431060106820212F
:1040200001431020814311608148808A0D9001274F
:104030007B4B3846196829427A4F0BD13968129167
:10404000129914213A68D203D2175118FAD119687B
:10405000294252D0E1B202292AD0012939D00029BF
:1040600047D1316809070BD439681291129914218C
:104070003A68D203D2175118FAD13168090741D5ED
:104080003168C90635D439681291129914213A68F9
:10409000D203D2175118FAD13168C90629D47E202B
:1040A000C0430D9A11B2814232DD521E0D922FE0B3
:1040B000316809071DD439681291129914213A68A0
:1040C000D203D2175118FAD13168090711D400F080
:1040D00003FC316809070CD4396812911299142134
:1040E0003A68D203D2175118FAD13168090700D4BF
:1040F000EBE3002700289CD00DE0E0B2022807D2B5
:10410000641C06E00D9908B27F2801DA491C0D9164
:1041100000240120049F3168C90716D11097601E42
:10412000C0B20025012815D800953A4F0197C52047
:10413000012631462A463F4BFDF771F8009501975D
:10414000FD2031462A463C4B1CE0002F074600D19B
:104150006FE7E6E000952F4F0197C5200126314615
:104160002A46364BFDF75BF800950197CD20314686
:104170002A46334BFDF753F800950197FD20314651
:104180002A46304BFDF74BF8FF250095A620042169
:1041900018220323FCF7B2FF0095D3200F214F22F2
:1041A0000123FCF7ABFFE0B20228144E154F0DD0EF
:1041B000012849D000284CD1114800900196A62032
:1041C00004210022034BFDF72AF842E006980A304A
:1041D0003BE0C046FDF0000877C30008E17A743F79
:1041E000E17A74BF7B14AE470000C842000080BF74
:1041F000E17A84BF3BF100081EF1000800A000082E
:10420000D97C00083400002089F100086CF1000816
:1042100010040050849A0008C3F10008A6F10008B9
:104220001000005010E000E006F2000820000140FD
:104230001C000020F1F100086BF20008F9EC000806
:10424000FEEC0008B5F10008DD200F21F54AFCF76F
:10425000CFFF0D9805B238460599F34A2B4602F078
:1042600095FCF2480090019604213B460027384611
:104270003A46FCF7D4FFEE480088FCF7D8FBED493E
:10428000FCF7BFFA06462846FCF7C6FBE949FCF7EF
:10429000B8FA01463046FCF75BFAFCF739FCE64A0F
:1042A000E64BFBF76BFFFCF747FC0646FCF7D4FB3D
:1042B0000546FCF7B1FB01463046FCF79AFAE049A7
:1042C000FCF79FFAFCF7C8FB0090DE4E30460599DC
:1042D000DD4A2B4602F05AFCD4480090DB4801909E
:1042E000082138463A463346FCF799FF0097D84EE6
:1042F0000196D3200D2529463A46D64BFCF78FFF71
:1043000000970196069829463A46D34BFCF787FF5B
:10431000FDF736F9109800280C9DD04BD04E00D1F7
:1043200087E6FCF76DFDFCF793FE81E60024CD489F
:104330002146FEF795FBFCF78BFECB48807D109065
:104340000126C64B304619682942C54E0BD1396843
:104350001291129914213A68D203D2175118FAD146
:104360001968294253D0E1B202292AD0012938D054
:10437000002946D1316809070BD439681291129986
:1043800014213A68D203D2175118FAD131680907BB
:1043900042D53168C90634D4396812911299142172
:1043A0003A68D203D2175118FAD13168C90628D415
:1043B0007E20C043109A51B2814235DD521E1092C8
:1043C00032E0316809071CD439681291129914211E
:1043D0003A68D203D2175118FAD13168090710D4BC
:1043E00095E2316809070CD43968129112991421A9
:1043F0003A68D203D2175118FAD13168090700D4AC
:104400007CE2002600289DD03246954E0FE0E0B2B7
:10441000022809D2641C08E01099C8B27F2801D193
:10442000109001E0491C109100240120049A316889
:10443000C90716D10D92601EC0B20025012813D8FD
:104440000095834F0197C520012631462A46874BA8
:10445000FCF7E5FE00950197FD2031462A46844B86
:104460001AE0002A064675E00095794F0197C520AD
:10447000012631462A467F4BFCF7D1FE0095019775
:10448000CD2031462A467C4BFCF7C9FE00950197AA
:10449000FD2031462A46794BFCF7C1FEFF250095E9
:1044A000A620042118220323FCF728FE0095D32020
:1044B0000F214F220123FCF721FEE0B20228634EB8
:1044C0000DD001280ED0002811D158480090019637
:1044D000A620042100226A4BFCF7A1FE07E0069803
:1044E0000A3000E0DD200F214E4AFCF781FE1098D3
:1044F00043B2544D284605994B4A02F047FB4B4FB7
:104500000097019604210026304632462B46FCF7E0
:1045100086FE00974D480190082101223046594BF4
:10452000FCF77DFE00964A4F0197D3200D252946C2
:104530003246484BFCF773FE0096019706982946D1
:104540003246454BFCF76BFEFDF71AF80D98002834
:104550000C9D424B4C4F00D1F4E6FCF751FCFCF7AC
:1045600077FDEEE60A9302214848FEF779FAFCF758
:104570006FFDFF252806464909688143119131489E
:10458000059E3146434A444B02F000FB43480090ED
:10459000434F01970421002420462246294F3B46E1
:1045A000FCF73DFE384631463E4A3F4B02F0EEFAFC
:1045B0003A4800903A4801900621204622463B4660
:1045C000FCF72DFE11AB38463146384A02F0DEFAD0
:1045D00032480090324F0197082120462246194B5D
:1045E000FCF71DFE324803680068000C009031485B
:1045F00003401448314606462FA202F0C7FA274866
:10460000009001970A21204622463346FCF707FE18
:1046100012A90322304801F05DF8002800D1DFE143
:10462000FE2016E277C30008FCEE0008D97C0008E3
:104630007800F81FB98B3B3FFCA9F1D24D62403F97
:1046400000007A44340000209EEE000800A000081C
:10465000849A0008C3F10008A6F100081000005079
:104660001004005014F200081C000020F1F10008B2
:104670006BF20008F9EC0008FEEC0008B5F1000848
:10468000FDF00008BBEE000810E000E04EF200086C
:10469000FC070808ACF0000884ED00085C920008F4
:1046A00050980008BFF000083AED000899F00008A3
:1046B00000580140FF0F00004D4355E4BFA1E681C3
:1046C000AF2020203A203078253033582C20307805
:1046D00025303458000000002DF300000127D8A039
:1046E0003946FEF7BDF9FCF7B3FC3E46D34B3846DE
:1046F00019682942FE4F0BD1396812911299142181
:104700003A68D203D2175118FAD1196829422DD02C
:10471000F1B2012913D0002923D1FE490968090704
:104720001FD439681291129914213A68D203D21712
:104730005118FAD1F7490968090712D4F1E0F5498F
:10474000096809070DD439681291129914213A6841
:10475000D203D2175118FAD1EE490968090700D4DB
:1047600035E100270028C2D03C4604E0F0B24642C2
:1047700046410120049CE7490968C9070ED1FF2082
:104780000090D3200F214F220123FCF7B7FCF0B299
:10479000012807D000280BD1DD2005E0002C0746BA
:1047A000A5D033E006980A300F21EE4AFCF720FD31
:1047B000DE480090D94D01950521002738463A463C
:1047C000E9A3FCF72CFDD948009001950921384652
:1047D0003A46EFA3FCF723FD0097D1480190D32080
:1047E0000D2529463A46EE4BFCF719FD0097CC48BB
:1047F0000190069829463A46EA4BFCF710FDFCF773
:10480000BFFE002C0C9DC24B00D170E7FCF7F8FAFC
:10481000FCF71EFC6AE7002420460A93FCF706FE1C
:10482000FCF78AFCFCF7ACFEFDF704F97D20C5001F
:104830002846FDF783F80094069A26321023204676
:1048400010942146FCF75AFCFCF79AFEFDF7F2F8AB
:104850002846FDF773F8FCF76FFCFCF791FEFDF7B7
:10486000E9F828460C9DFDF769F80A9B09200D9090
:1048700006E0002001230A210D9110930E900F9065
:10488000A34AFEF7E1F9A848099941600D998160B2
:1048900000F078FEFCF7DCFA9D4A0123002010901E
:1048A00003203BE0A048089AC2600D990161C64808
:1048B0000260C648016000F065FEFCF7C9FA944A40
:1048C000012300201090042028E0BE480D990180AB
:1048D0009548818200F056FE01242002B84A1168F2
:1048E000814311601068302188431060FCF7B0FAF2
:1048F0002346874A0020109005200FE08A4810992F
:104900008175C9B2102000F0BCFD00F03BFEFCF741
:104910009FFA7F4A01230020109006200D90FEF799
:1049200093F9814C20467F492CC92CC02CC92CC03E
:10493000AA20207000F026FEFF200090069A263262
:10494000002505260B2328463146FCF7D7FB774C7C
:104950000094724A01922846314616462A4674A3AC
:10496000FCF75DFC00940196092128462A4674A3B1
:10497000FCF755FCFCF704FE6B4840780028774EA6
:104980001FD0F920F0607068FA2800D3756066487F
:104990008078FCF787FBF068400870603068059904
:1049A000084330603868129012980846F43039682D
:1049B000C903C9170818FAD10120000231688143E0
:1049C0003160FDF737F86648FCF7B8FF0C9DFCF73F
:1049D0003FFA4F4A012308200D904E4EFEF734F95E
:1049E00012A80178694022464B00090601D5312101
:1049F0004B40D9B2531C072A1A46F5D3421C039BDD
:104A0000984210460D46ECD112A880788842694D34
:104A10001ED112A80178427800231846EC5C032BC3
:104A200002D80C4202D104E0144202D04024DC40FF
:104A300020435B1C072BF1D10BE0C0461000005057
:104A4000E681A2E5A48DE8AEBEE7BDAE00000000A1
:104A5000FF20C3B23046059F3946574A02F096F808
:104A600053480090514801900C21002420462246D2
:104A70003346FCF7D4FB0E25284600F0E5FC1090E9
:104A80000F2000F0E1FC0646102000F0DDFC00964F
:104A90000190454E30463946484A109B02F076F860
:104AA00043480090414801902046294610942246F0
:104AB0003346FCF7B4FBFCF763FDFCF7BBFF0C9D32
:104AC000134A144E144F106828420BD138681290C4
:104AD000129814203968C903C9170818FAD1106848
:104AE000284207D03220FCF729FF094AEBE7C046ED
:104AF00010E000E0FCF7ACF9054A07200D900A9B96
:104B0000FEF7A2F800F03EFDFEF782FC13B0F0BD08
:104B1000100000501004005010E000E000A0000859
:104B2000849A0008B87C00081C000020D97C00088A
:104B3000E681A2E5A48DE5AE8CE688900000000039
:104B4000E4B889E7A792E5908EE8BF94E59B9EE4E0
:104B5000B8BBE88F9CE58D95000000002000004068
:104B6000B80B000077C30008E6B885E999A4E6957C
:104B7000B0E68DAEE5B9B6E681A2E5A48DE588B0D4
:104B8000E5889DE5A78BE8AEBEE7BDAE000000005E
:104B9000E7BBA7E7BBADE59097EFBC9F0000000027
:104BA000FFF10008A6F1000834000020509800082A
:104BB0005C920008B07C00086FEE00084AEE000826
:104BC00020000140420100203401002008000020A4
:104BD000F0B59FB02FA000242146FDF741FFFCF760
:104BE00037FA1AA800F0C8FB0F20049000F02CFC44
:104BF00040B2002803D41AA84079002805D12948DA
:104C00001AA90CC80CC1007808701AA8811D0C9153
:104C1000411D0B91011D0A91C11C0791C11D0691F7
:104C2000014608310591811C0991401C08908120A2
:104C300040001590012001021491C10316911A4DF4
:104C40000D9019900E94264618480068169908424F
:104C50000DD128681D901D9814202968C903C91713
:104C60000818FAD1114800681699084223D0F0B20A
:104C70000022112800D9C8E0784400794000874418
:104C8000174A4F53575B60646A6F757F83888C91B6
:104C90009BAFC046E697B6E997B4E8AEBEE7BDAEB7
:104CA00000000000D07C000810E000E01000005080
:104CB0000221012231E0F0B20021112801D30C467B
:104CC00001E00C46711C09224A401AA8007A0243EE
:104CD000D2B253425341CE18012119910E990029A5
:104CE00000D1CCE01AA909783C2902D31AA93B22A9
:104CF0000A701AA949783C2902D31AA93B224A70A2
:104D00001AA98978002800D182E00D2900D288E014
:104D10001AA80C2189E00121092200230C98B4E093
:104D2000092200210C9840E0012100230B9825E086
:104D3000092200210B9838E00121032200230A9860
:104D4000A3E0092200210A982FE000210722012375
:104D500007980C469AE00122002105980E9202E085
:104D60000122002106980C460B468FE01AA8007A13
:104D70000121002800D185E0002309980A4684E03B
:104D800009220021099810E001210522002308983A
:104D90007BE009220021089807E01AA801210522DA
:104DA000002372E01AA8092200210C460B46FCF7EA
:104DB000C9F801210E916BE0FE480068000724D479
:104DC00028681D901D9814202968C903C917081860
:104DD000FAD1F8480068000717D40020022412E036
:104DE000F4480068000710D428681D901D9814200E
:104DF0002968C903C9170818FAD1FD4800680007D7
:104E000003D400200124199042E0144610463FE0EC
:104E1000182902D31AA8172181701AA80021C1717C
:104E200004E0002902D11AA8012181701AA8C078D3
:104E3000072801D9072002E0002802D101201AA981
:104E4000C8701AA800791F2801D91F2002E0002885
:104E500002D101201AA908711AA840790C2801D999
:104E60000C2002E0002802D101201AA948711AA8DA
:104E70008079C008192802D31AA8C72181710D9F13
:104E80000E9410E00222002309981C46FCF75AF801
:104E9000411E07468F41002801D1199800E00120EA
:104EA000199000061DD0D2480068C00700D0FCE071
:104EB00011971794FE2018963040102814D1002422
:104EC0000094CD4D0195C520012631462246CE4B9A
:104ED000FCF7A5F900940195FD2031462246CB4B05
:104EE0001BE000201990E0E000260096C24D0195DD
:104EF000C520012421463246C04BFCF790F90096AC
:104F00000195CD2021463246BD4BFCF788F900962D
:104F10000195FD2021463246BA4BFCF780F9C64F79
:104F20001898C0B210901AACA37960792179E27810
:104F300000AD07C5B64D28461499B6A201F026FE6D
:104F40000097BC4E01960720042105220F902B46A6
:104F5000FCF765F9207A00281AD0B8A029461CC8A9
:104F60001CC11CC81CC102880A8080788870009708
:104F700001960520082100222B46FCF750F91AA8BB
:104F8000C07907222C4600281BD02846B2A11AE07F
:104F9000B5A029461CC81CC11CC81CC102880A80B7
:104FA00080788870009701960526082100223046F7
:104FB0002B46FCF734F92C462846904932469D4E44
:104FC00001E02846A6A1FBF79FFB0025009501966E
:104FD00005270C26384631462A462346FCF71FF99A
:104FE0001AA883784178007800910190204614999E
:104FF000A4A201F0CBFD904800908E4801903A2089
:1050000031463A462346FCF70AF900957A4E019656
:10501000D3200D2421462A469E4BFCF700F900952B
:105020000196159821462A469B4BFCF7F8F81099F3
:105030000229199503D81120484318300BE00429A0
:1050400003D811204843353005E0062900D99CE0FB
:105050001120484352300F9A12921390FF25009569
:10506000159C193405270721012638462246334668
:10507000FCF744F800950B21384622463346FCF7EE
:105080003DF800950F21384622463346FCF736F8A6
:10509000139880B21299C9B2814AFCF7A9F8FCF7BB
:1050A0006FFA544D189E179C119F022C64D11794CF
:1050B00018961DAC1A9820701B9820711AA8417878
:1050C00061708178A170417961718179A171C07835
:1050D000C01D0721FBF70CF8481CE0700026062EC7
:1050E0000AD11DA88079642806D364381DA9887167
:1050F0004879802202434A711DADAC5D0A212046E9
:10510000FAF7F6FF0921C94341436118000108433A
:10511000A855761C072EE2D11AA8007A00280DD0D7
:105120001DA98A781F201040024640328A701AA9B1
:10513000C979002902D060301DA9887007201DA9F7
:1051400000F0BCF900282B4D14D10E26304600F09B
:105150007BF901467F242140304600F092F9002877
:1051600008D10F26304600F06FF904403046214642
:1051700000F087F9189E179C002F03D0FBF740FE24
:10518000FBF766FF002C2ED15EE5092906D0082921
:1051900006D0072907D1159812305CE7172020E0C8
:1051A00084200B2258E70B2906D811204843703879
:1051B00017E0C046100400500D2903D811204843C1
:1051C0005F380EE00F2903D8112048434E3808E01D
:1051D00011291398129A00D93EE72F2048432F49EE
:1051E0004018049A38E7FBF733FE1FB0F0BDC04605
:1051F0001004005010E000E0849A0008F9EC000868
:10520000FEEC0008B5F10008F1F100086BF20008AF
:10521000340000203225303364E5B9B425303264DF
:10522000E69C8825303264E697A520E591A82564A0
:105230000000000000A00008D97C0008E697B6E94D
:1052400097B4E6A0BCE5BC8FEFBC9A3132E5B08FD5
:10525000E697B6E588B60000E4B88BE58D880000D7
:10526000E4B88AE58D880000E697B6E997B4E6A031
:10527000BCE5BC8FEFBC9A3234E5B08FE697B6E55B
:1052800088B60000253032643A253032643A253041
:1052900032640000C3F10008A6F10008EDFDFFFF35
:1052A00077C300087047704781B01048042101603F
:1052B0000F494020086008220A6010220A606946EF
:1052C00064220A800A880988002A06D0491E6A4694
:1052D000118013881188002BF8D106490A685206FC
:1052E00002D40A6802430A6001B0704728040050E3
:1052F000180000500030014080B51849C868000708
:10530000820F17487A441279520097440108250DFC
:105310000120000449680904490F884080BD0868DD
:10532000C00609D5104880BDCA68D20307D40868F2
:10533000C00603D50C4802E00A4880BD0948CA6887
:105340009202120F09A39A5C4243C8680002800FC0
:10535000411C1046FAF7CCFE80BDC046001002404A
:1053600000127A000024F40000093D00030406083E
:105370000C1018203000000070B50446D020002129
:105380000122FCF731F900280DD100263046FCF748
:10539000D3F9002807D1D020012507222946FCF7A0
:1053A00023F9002804D009212046FBF7C6F970BD77
:1053B000FCF700F9A055761C072EF9D1FCF78CF903
:1053C000002001467F220A40022A05D0052A0CD17E
:1053D0002256002A14D520E0225C520607D400226F
:1053E000E2712272235C3F2208E0225C08E0257211
:1053F000225C9206D20FE271235C1F221A402254D3
:105400000F231340D2B212090A265643F21822542F
:10541000491C401C0728D5D10EE00F21D3060A40B5
:10542000DB0F0A256B439A182254A079014000092A
:10543000684308186430A071E0780C300721FAF74F
:1054400057FE481CE07070BDB0B50546D020002462
:1054500001222146FCF7C8F8002810D12846FCF7A5
:105460006BF900280BD1D02001210A46FCF7BCF8CB
:10547000002804D1FCF79EF80446FCF72DF92046DD
:10548000B0BDF0B581B00E460746D0200024022200
:105490002146FCF7A9F8012500280CD13846FCF775
:1054A0004BF9002807D13046FCF746F9002802D115
:1054B000FCF712F92546284601B0F0BDF0B581B0E1
:1054C0000C460546401CC2B2D0200021FCF78CF8E7
:1054D0000127002813D100263046FCF72DF90028BB
:1054E0000DD102E0641C6D1E06D02078FCF724F973
:1054F0000028F7D0012700E03746FCF7EDF83846E2
:1055000001B0F0BD70B581B0404A13680093009BB4
:105510007D23DB00104C002913D01D46266836067B
:1055200005D41668F603F6177519F7D111E0402572
:1055300065600578E56015680095009D491E401C72
:10554000E9E72068400604D41068C003C017C318F8
:10555000F7D101B070BDC0461C38014080B501785C
:1055600000290AD0421C0021491CC9B21378002B23
:1055700004D0521CFF29F7D100E00021FFF7C2FF41
:1055800080BD7047F0B583B07D20C0000090002141
:105590001D4AE64B1E4C1F4D0E46264330786F5C6D
:1055A000B84221D018680190019800985569ED071C
:1055B00005D01D68ED03ED172818F7D113E010682A
:1055C000C00703D014489060144890603770186882
:1055D0000290029800985569ED0709D01D68ED0307
:1055E000ED172818F7D10B4D491C1829D4D109E023
:1055F00010680125054315601068C007054DF3D0FC
:105600003078F1E703B0F0BD0420024010E000E084
:10561000000008081C000020EFCDAB890504030240
:10562000F0B581B000920A46054609320C211046B9
:10563000FAF75EFD0E460A2708463946FAF758FD86
:105640000446992040007043401D3946FAF750FD4A
:1056500000990818291B8CB2A1084018FF216E314F
:105660006143451864212046FAF742FD2D1A19209E
:1056700001012046FAF73CFD2818401EC11701B071
:10568000F0BD7047012002020E490B6813430B6006
:10569000CA680D4B1340CB600A680C4B13400B607B
:1056A0008A6882438A6082040B6893430B60FD2200
:1056B0001204CB689343CB6000220A61C006044900
:1056C00008607047001002400C40FF88F6FFF6FEAD
:1056D00008ED00E0F0B581B014460D46074688207D
:1056E00000210222FBF780FF012600281CD1380A86
:1056F000FCF722F8002817D1F8B2FCF71DF80028B3
:1057000012D18820012631462246FBF76DFF002882
:105710000AD1FBF74FFF28706D1C641EF9D1FBF70F
:10572000DBFF0646401E8641304601B0F0BD00005A
:1057300070B584B014460D46064613A0FFF70EFF61
:1057400015A0FFF70BFF17A0FFF708FF1AA0FFF740
:1057500005FF3046FFF702FF1AA0FFF7FFFE01AE7C
:105760000B211BA230462B4601F010FA3046FFF702
:10577000F5FE18A0FFF7F2FE2046FFF7EFFE18A097
:10578000FFF7ECFE04B070BD0D0A2A2A44454255CD
:1057900047205052494E54000D0A46494C4520209E
:1057A0003A2000002E2E2F5372632F555345522F4F
:1057B00066756E632E6300000D0A46554E43202029
:1057C0003A2000000D0A4C494E4520203A200000A6
:1057D000256400000D0A494E464F20203A20000063
:1057E0000D0A0D0A0000000070B584B03E4D08217E
:1057F000296101A9087040262E6103A801240480B4
:1058000001880088002906D0401E03A908800A8864
:105810000888002AF8D101A8214601F083F902A8DE
:10582000048001880088002906D0401E02A9088053
:105830000A880888002AF8D12E6004B070BDC046DE
:1058400070B584B0284D0821296001A90870402650
:105850002E6103A80124048001880088002906D055
:10586000401E03A908800A880888002AF8D101A8E8
:10587000214601F057F902A8048001880088002918
:1058800006D0401E02A908800A880888002AF8D19C
:105890002E6004B070BDC046F0B583B0124C082233
:1058A00022604025256102AA0126168013881288ED
:1058B000002B06D0521E02AB1A801F881A88002FB8
:1058C000F8D101F02FF901A806800188008800298D
:1058D00006D0401E01A908800A880888002AF8D14D
:1058E000256003B0F0BDC0461800005082B001A88A
:1058F0000A21018001880088002906D0401E01A9E4
:1059000008800A880888002AF8D163480168009155
:1059100000990749074A1368DB0705D00368DB03D2
:10592000DB17C9180B04F6D102B0704710E000E095
:105930001027000010040050F0B587B0514C2168CA
:1059400020680127B8432060394004910A2021686B
:10595000C90701D0401EFAD178054B490A680243B5
:105960000A600A6882430A6048480168484A114050
:10597000BB03C91801604168802631434160C1689A
:105980001140C918C1600168424B19403D034919D3
:1059900001604168402211434160C16819404919C2
:1059A000C16001968661826106A964260E800B881B
:1059B0000988002B06D0491E06AB19801D8819885E
:1059C000002DF8D100200390C04302902F480169B8
:1059D00009062BD40097304B1968059105997D2154
:1059E000CF00002F25D019682848826206AD2E808E
:1059F000C9032C882D88002C03D06C1E06AD2C808A
:105A0000F7E7C9172148826106AC268020882588DF
:105A1000002803D0681E06AC2080F7E7CF191B488A
:105A200000690006DDD5039D029E04E0039D029EF1
:105A30001AE0039D2E461548019A82621868069066
:105A40000698009F39460F4C1868C003C0174118CC
:105A5000FAD10E48826118680690069801201968EC
:105A6000C903C9170818FAD1FCF790FF0498002859
:105A700002D0206838432060E843301A411E884134
:105A800007B0F0BD00540040281002400004005050
:105A9000FF3FFFFFFFCFFFFF10E000E070B5194CA4
:105AA0002168C90703D1216801220A432260FAF75D
:105AB000C5FF154A154BFAF77BFC0022144BFAF789
:105AC0005DFBFBF707F8A26812490A400243A26097
:105AD0002246083A13680220034313600122530749
