:020000040800F2
:1000000050040020D50000083510000851090008F0
:1000100000000000000000000000000000000000E0
:10002000000000000000000000000000E1110008D6
:10003000000000000000000055100008E311000857
:10004000E7000008E7000008E7000008E7000008F4
:10005000E70000083D090008E7000008E700000885
:1000600000000000E7000008E7000008E7000008C3
:10007000E7000008E700000800000000E7000008B3
:1000800000000000E7000008000000000000000081
:10009000E700000800000000E7000008E700000893
:1000A000E7000008E7000008E7000008E700000894
:1000B000E7000008E7000008000000000000000062
:1000C0000348854600F0ECF9004800477519000820
:1000D000500400200448804704480047FEE7FEE73C
:1000E000FEE7FEE7FEE7FEE7E5110008C1000008B5
:1000F00030B50B46014600202022012409E00D46C0
:10010000D5409D4205D31D469540491B2546954047
:1001100040191546521E002DF1DC30BDF0B51FB45C
:100120000646002082B005464024019100901BE065
:10013000019922460F46304600F0D4F9049A059BF7
:10014000801A994110D310461946224600F0BAF998
:10015000361A8F410197224601200021009F00F0AE
:10016000B1F938184D4100902046641E0028DFDCAC
:10017000019B00982946324607B0F0BDF0B507460E
:100180000846584087B0C00F049048000E465900FA
:1001900040084908BC1A884105D2384631461E46F7
:1001A00017460B4602465800400810434CD0300D0D
:1001B000039040055900400D490D0590401A0290EA
:1001C000402872DA18030121000B09050843019049
:1001D00004980092002805D00199524200208841DD
:1001E00000920190029840210A1A0199009800F0AB
:1001F00069F905460C466B4607CB00F084F9C01937
:100200007141039A0E0D0023D71756401A467A40C3
:10021000164344D0049A002A2DD0029A012A039A48
:1002200015DC1205C01A914101263605001C7141EA
:10023000D20F059ED2070093019202962A462346CA
:1002400000F081F907B0F0BD38463146FAE71605EF
:10025000224A0F46B218C01AB74101210905001CF5
:100260004F4100187F41114618187941E20F1043A1
:100270006D19644113E0E2076D0815436408C20775
:100280001443039A01261205C01A91413605001C39
:100290007141CE07400830434908C01851412A46F1
:1002A000234600F043F9CDE7FFE704980122400020
:1002B000C117121A00238B4104983146C417381A0B
:1002C000A141EEE730B40124E407634030BC55E7B8
:1002D00030B40124E407614030BC4FE70000E0FF88
:1002E000F0B51FB488B00B990998002448400999CB
:1002F000C00F490049080991C0070B9900904900B7
:1003000049080B9109990898A64608431CD00B99F7
:100310000A98084318D0099801244000420D48006B
:10032000410D099824050003000B204309900B9808
:100330000003000B20430B9050181C49401800226A
:1003400001901446104605E0002001460DB0F0BDB6
:10035000032801DA034600E003239C46C11A0AAED3
:100360000AE05F0008ADED5B4F00F75B7D430027BF
:10037000AA187C41491C5B1E6145F2DD410004ABBB
:100380005A522104120C0A43240C401C0828DFDBBB
:10039000019802900099704601910090059B049A83
:1003A0000799069800F0CFF8D0E700000DFCFFFF9A
:1003B000F0B50C465C4085B0E40FE40703944C00B4
:1003C00000266408590094464908024602962243D2
:1003D00021D062460A431ED06200570D4A000E0328
:1003E0002303550D012402462C492405781B1B0BC1
:1003F000360B401823432643614600901C46501A92
:10040000B44103D30098401C009002E09218009879
:100410005B41002803DA0020014605B0F0BD002052
:10042000012109050746864611E064461D46141B56
:10043000B54106D36546521BB341744607430C438E
:10044000A646CD0740084908284392185B41054657
:100450000D43EAD11046184313D060461946504068
:100460007140084306D06046101AB34106D20122FB
:10047000002306E000220123DB0702E00122D24331
:100480005310009874460105381C6141029C039D7D
:100490000019694100F04AF8BFE70000FD030000C1
:1004A000064C0125064E05E0E36807CC2B430C3CC7
:1004B00098471034B442F7D3FFF706FE84260008AD
:1004C0009426000810B5202A04DB0146203A91400A
:1004D000002010BD914020239C1A0346E34019439D
:1004E000904010BD10B5202A04DB0846203AD040C9
:1004F000002110BD0B46D340D0402024A21A9140C9
:100500000843194610BD10B5202A06DBCB17084654
:10051000203A1041C1170B4306E00B461341D0406F
:100520002024A21A91400843194610BD10B5002B93
:1005300008DA0024401C614192185B411A4301D142
:100540004008400010BDF0B51FB482B005460C0055
:1005500003D0084601F00EFE02E001F00BFE203051
:100560000246009021462846FFF7ACFF049B059AFF
:1005700004460F4618431143084314D0184610434D
:100580001BD0009840210A1A18460599FFF7AAFFC8
:1005900005460E46009A05990498FFF793FF084315
:1005A00005D0012004E02046394607B0F0BD002008
:1005B000C11705430E432C43374300990E9863053A
:1005C000401A7905E40A00220C43FD0A0A3002D5DC
:1005D00000200146E9E70105101969410C9C0D9DB9
:1005E00000196941FFF7A2FFDFE7F8B502464A406C
:1005F000D40F42004B0052085B089A4202D20246D6
:10060000084611464A0023D0C30D4A00DDB2120E3F
:10061000AD1A202D35DA49020126490AF6058A1954
:10062000002C00D0524220214F1B1146B9402A41D4
:100630001018C20D9A4221D0002C17D0012D08DCD1
:10064000DA05801AD20F8019D207DBB200F0E1F888
:10065000F8BDDA05801A012340001B06C018801877
:100660005A428018CA0F1043490007E04908C207E0
:100670001143DA05801A80194008801800F0C1F88B
:10068000F8BD61000122511A001BF7E70122D207D1
:100690005140AAE70122D2075040A6E7024670B5B2
:1006A0004A40D30FDB0740002DD04A002AD0010E6C
:1006B000140E000212020919400A520A8418E501B8
:1006C00004465443000A120A2E045043A419421946
:1006D000200CC543AA18120C0125AD03521C521957
:1006E00012047F39240400D0521C104301D440006E
:1006F000491EC2B20C06C0092018401C4008802ABE
:1007000002D003E0002070BD40084000002900DA5C
:100710000020184370BD0122D207002800DB101A08
:10072000002900DB511A814201D9012070470020C5
:100730007047C217C10F504010B54018CA07962322
:10074000002100F066F810BD0EB5C217C10F504071
:10075000CA0740180021054B0293019200910A46F6
:100760000B46FFF7F0FE03B000BD000033040000AD
:10077000C20F410040020123400ADB05D207090EE7
:10078000C0187F2901DA00207047962903DC9623E0
:10079000591AC84001E096398840002AF4D04042F6
:1007A0007047C20FD207400040080BD0C10D07238D
:1007B000DB01C91840020905400A1143C20840077D
:1007C00011437047002001467047CB0FDB074900FB
:1007D00010B5490802460A4307D00A0D0724090349
:1007E000E401090B121B002A01DC002010BDC90026
:1007F000440F0C43C100E018D205801800F001F846
:1008000010BD002904DA401C490001D14008400015
:10081000704770B40024050C05D11024000402D1E7
:10082000002921D01124050E01D100020834050F42
:1008300001D10001241D850F01D18000A41C0028D6
:1008400001DB4000641C002908D020252E1B0D462A
:10085000F540A14000D001212943084301061B1B9C
:10086000000ADB1D02D5002070BC7047DB0518189C
:1008700080180029F8DA401C4900F5D170BC400806
:100880004000704781B068461421018068460188A5
:100890000088002903D0401E69460880F6E701B0B1
:1008A00070470000FEB518A000F050FD002421A5FF
:1008B000122C25D8E0B200F04AFC06460020082899
:1008C0000AD031468140090601D5312100E03021AE
:1008D0006A461154401CF2E76F460020387214A09B
:1008E00000F024FD384600F021FD092138462A4653
:1008F000334601F023FC384600F028FD641CD7E79E
:1009000006A000F023FDFEBD3D3D204453333233AD
:100910003120524547203D3D000000003D3D3D3D1A
:100920003D3D3D3D3D3D3D3D3D3D3D3D00000000EB
:10093000200000002030782530325800034801683C
:10094000C90701D0012101607047C046140401406D
:1009500004A4084D204600F0F9FC284600F048F9B0
:10096000F8E7C046494E2048415244204641554C84
:1009700054210000E7030000E0B5A548016801919B
:1009800001996A4A6A49002A07D00B685B0708D4B4
:100990000368DB03DB179A18F5E700F067FF002018
:1009A00000E0C868C0B28CBDFEB50191504B5C69D7
:1009B00024045E4D964E12D400920121CF021C6891
:1009C000BC431C60324A541C1F682740381818600A
:1009D0001868019F002F10D08A0210430EE034687F
:1009E0000294029C2C46002C46D05F69FF07E3D19D
:1009F0003768FF03FF173C19F5E710400C461860F5
:100A000008061A6882431A60FF2000041A688243AD
:100A1000009800041018186048061A6882431A608B
:100A200048031A6802431A60306802900298002F47
:100A30001BD0002D1BD05869400723D43068C00359
:100A4000C01745195869C006F3D5986910210143AC
:100A50009961032419E05869C00713D13068C003B5
:100A6000C01745195869C006EFD4002DF3D100F026
:100A7000FDFE002804D108E000F0F8FE002803D0B5
:100A8000022402E0002400E001242046FEBDC0460E
:100A9000FFFBFFFF1CB55E480168019101992349E6
:100AA000134A0B46002B19D05469E40704D104689B
:100AB000E403E417E318F5E701239B0314681C43E0
:100AC000146003680193019B002907D053691B043C
:100AD0000CD50368DB03DB175918F5E700F0C6FEF9
:100AE000002801D002201CBD01201CBD00201CBD1F
:100AF000045400401CB546490A680192019A0B4B08
:100B00000B4A002B07D01468E4070AD10C68E403F1
:100B1000E417E318F5E700F0A9FE002804D002204E
:100B20001CBD106100201CBD01201CBDB80B0000C5
:100B300018540040FCB5002200910C682346D340B5
:100B400046D001259540254040D04E68731E022BAB
:100B500001922B4612D26B438A685A4303275F43A4
:100B60008168B943114381600099C9686143426853
:100B7000A2430A434260FC43009903E06B43032411
:100B80005C43E4430F695F43C26822403A43C2605A
:100B9000022E15D12E0A01D0242200E020224F6916
:100BA0008558002E02D07643764301E01E465E4310
:100BB0000F2171438D4377432F43875000994E682F
:100BC0007343026822401A430260019A521CB4E740
:100BD000FCBD000081B005490A6802430A6009684B
:100BE00001400091009801B07047C0462C100240AF
:100BF00081B007490A680092009A401C002804D07E
:100C00000A68D203D2171018F8E701B07047C0463F
:100C100010E000E0B0B501221302B64841689943E4
:100C20004160046804210C430460046808252543DE
:100C3000056044681C434460520203681343036028
:100C40000268022313430360024802680A430260F9
:100C500030BFB0BD10ED00E086B08A4800780128B2
:100C600048D0032834D0022800D0F0E08024204669
:100C700000F08AFA002800D1E9E001A8142181716E
:100C80000A214171012101710521C1700026867080
:100C900046700670072E00D1B3E0062E09D101A8D8
:100CA0008079642805D3643801A988714879204384
:100CB000487101AFBD5D0A212846FFF719FA0921E5
:100CC000C9434143691800010843B855761CE1E760
:100CD000022000F059FA002800D08CE00920FFF72C
:100CE00087FF694C2068000400D5B0E00020FFF7C2
:100CF0007FFFF7E7654C2068000700D5A7E0206874
:100D0000C00600D5A3E00920FFF772FF20680007A6
:100D100000D59CE02068C00600D598E05C4C5921C5
:100D20005CA2624D2046A8475A2161A22046A847EE
:100D300063A001A90A46E8C8E8C200781070112033
:100D400000F02BFA5C2163A22046584DA8475D2194
:100D500064A22046A847012766480168C90503D454
:100D6000390202680A430260F904634A13680B43BC
:100D7000136013688B431360026860490A40026085
:100D8000E9315F480A1D03D0095800291146F9D0FE
:100D90003F4C5F215BA2204600F0D4FC60215DA2A5
:100DA000204600F0CFFC00F049FD002844D15D4C06
:100DB0002068C00703D05C48A0605C48A060212088
:100DC00001012068084320600025594A3E46F80288
:100DD000854226D02F46174300203860009100F04E
:100DE0002DFD534A009900281BD13868002818D1DE
:100DF0002D1D3746EAE70F200221002200F082F97C
:100E000025E0072001A900F0C8F900281FD10E2015
:100E10008021002200F076F9002818D10F208021CF
:100E2000EBE720688843206000F008FD002803D12C
:100E30002068304320602068154C62213DA2204686
:100E400000F080FC632140A2204600F07BFC00F013
:100E5000F1F9012000F0FCF9002000F0F9F900F0B0
:100E60007FFAFFF71FFD3B4CD6213B4A204600F09E
:100E700069FCFFF7CFFEDB21384A204600F062FC18
:100E800000F0DAF84F00002010000050100400506D
:100E90007A260008424547494E2052455345542082
:100EA000414C4C20444154410000000045170008CB
:100EB0005254432072657365742E2E2E000000007C
:100EC00000000000000000000000000000001C8B7B
:100ED0000000000052544320726573657420646FF3
:100EE0006E650000424B50522072657365742E2E61
:100EF0002E0000000070004050100240FFFEFFFF77
:100F000068280040424B505220726573657420641B
:100F10006F6E6500454550524F4D20726573657484
:100F20002E2E2E0004200240EFCDAB8905040302D3
:100F300000000808454550524F4D20726573657496
:100F400020646F6E65000000416C6C20646F6E65FC
:100F500000000000752600084A26000860260008E8
:100F6000F0B587B02D49086802242043086008685E
:100F700020400690012705970497039703260296C1
:100F8000019440200090069825486D462946FFF7B9
:100F9000D1FD0597049701A8D0C08020009020487B
:100FA0002946FFF7C7FD78051C4AD1680143D16087
:100FB000D16801400691069879061A4842680A43AA
:100FC0004260C26818490A40C260FA040368934349
:100FD00003607A040368934303600268BA430260C3
:100FE0001F221202036893430360104A02610268E1
:100FF0003A43026082680A40826082680C4B1A4061
:101000008260320504689443046042680A4042608A
:10101000591CC2680A40C26007B0F0BD2C100240E3
:101020000004005000540040FF7FFFFF0B0210003F
:1010300000F8FFFF70470000BFF34F8F03480449DB
:101040000160BFF34F8F00BFFDE7C0460CED00E02D
:101050000400FA057047000080B51849C868000709
:10106000820F17487A441279520097440108250DDF
:101070000120000449680904490F884080BD0868C0
:10108000C00609D5104880BDCA68D20307D40868D5
:10109000C00603D50C4802E00A4880BD0948CA686A
:1010A0009202120F09A39A5C4243C8680002800FA3
:1010B000411C1046FFF71CF880BDC04600100240DE
:1010C00000127A000024F40000093D000304060821
:1010D0000C1018203000000010B5112000F037F877
:1010E0008400122000F033F880092018FFF72CFB51
:1010F0000022034BFFF7F4F8FFF767FB10BDC04673
:101100000000D03FFEB501920291064600F01FF8A4
:101110000746D020002402222146FFF745FC012586
:10112000002812D10097029F3046FFF7E3FC002809
:101130000BD1019939400098B8430843FFF7DAFC16
:10114000002802D1FFF7A6FC25462846FEBDB0B513
:101150000546D020002401222146FFF725FC002867
:1011600010D12846FFF7C6FC00280BD1D020012162
:101170000A46FFF719FC002804D1FFF7FDFB0446DF
:10118000FFF788FC2046B0BD10B504460F20FFF7DE
:10119000DEFF2040411E884110BDF8B50C460546D3
:1011A000401CC2B2D0200021FFF7FEFB012700281F
:1011B00014D100263046FFF79DFC00280ED106E032
:1011C0002078FFF797FC6D1E641C002803D1002DCA
:1011D000F6D1374600E00127FFF75CFC3846F8BD42
:1011E00070477047012002020E490B6813430B60E1
:1011F000CA680D4B1340CB600A680C4B13400B6060
:101200008A6882438A6082040B6893430B60FD22E4
:101210001204CB689343CB6000220A61C0060449E4
:1012200008607047001002400C40FF88F6FFF6FE91
:1012300008ED00E080B5054800F049F8002800D02E
:1012400080BD0120FFF7D4FC80BDC04641300000C6
:1012500080B501460648002900D0C01D00F037F8CF
:10126000002800D080BD0120FFF7C2FC80BDC04631
:1012700066300000F8B514460D4607468820002168
:101280000222FFF791FB012600281ED1380AFFF742
:1012900031FC002819D1F8B2FFF72CFC002814D13A
:1012A0008820012631462246FFF77EFB00280CD11C
:1012B00004E0FFF761FB2870641E6D1C002CF8D160
:1012C000FFF7E8FB0646401E86413046F8BDB0B544
:1012D0000546882000210222FFF766FB0124002832
:1012E0000ED1280AFFF706FC002809D1E8B2FFF763
:1012F00001FC002804D1FFF7CDFB0446401E8441C9
:101300002046B0BD084A002909D013681B06FCD549
:10131000402353600378D360491E401CF3E71068F4
:101320004006FCD57047C0461C38014080B50021FE
:101330000246C9B21378002B04D0FF2902D0491C01
:10134000521CF6E7FFF7DEFF80BD000080B5FFF717
:10135000EDFF02A00221FFF7D5FF80BD0D0A0000BE
:10136000F0B593B0D0200027012239460F92FFF745
:101370001BFB00280ED100263046FFF7BBFB0028E0
:1013800008D1D020012507222946FFF70DFB0028B0
:1013900000D135E1C348092F04D0C11900224A7297
:1013A0007F1CF8E7007B0890BE4EF07B0E90B07B70
:1013B0000A90707B0990F07A0D90B07A0C90707A58
:1013C0000B90B94CA0470546A0470746A047FFF73A
:1013D000CFF9FFF7AEF901463846FFF757F9B349A1
:1013E000FFF75CF9FFF7C4F907462846FFF7C0F995
:1013F0000899C9B20A9A0092099A019202910D992C
:1014000003910C9904910B99059106900797374623
:10141000344612343D21A6A220460E9B00F08EFEDB
:101420000E942046FFF792FFAD4810A906263246DB
:10143000FFF720FF002800D085E010AC204600F028
:10144000D5F9A178022288420F927CD110ACE01C21
:1014500000F0CCF96179884275D110AD2879E9782E
:1014600009020818FFF770F900249E4B2246FEF788
:101470009FFF9D4B2246FEF733FFFFF7A6F9074675
:101480002146FFF748F90F903846FFF78AF90246E0
:101490000B46964996480F9F002F00D1014695486C
:1014A000FEF76CFEFFF791F90D90FFF761F9014629
:1014B0007C480C9101702888000400BAFFF744F9B9
:1014C0002246884BFEF774FF8B4B2246FEF708FF3F
:1014D0008A4B2246FEF752FEFFF777F907460F9434
:1014E0002146FFF718F904463846FFF75AF9024635
:1014F0000B46002C7D4900D17D497E48FEF73EFE1B
:10150000FFF763F90546FFF733F90746654CA0710D
:101510000C98FFF70EF901460D98FFF7B7F86349ED
:10152000FFF7BCF8FFF724F920713846FFF701F9FF
:1015300001462846FFF7AAF85C49FFF7AFF8FFF726
:1015400017F920722746BD57387A0D903E793C78BE
:101550006B4812A90322FFF78DFE64B2002802D067
:10156000FE200F9B1FE00C9612AE304600F03EF9B5
:10157000B178884214D112A801784278002361A67C
:101580001846072B0DD0F75C032B02D80F4202D16F
:1015900004E0174202D04027DF4038435B1CF0E7ED
:1015A000FF200F9B0C9E0D99C0B2009501AA52C25C
:1015B00004903D2155A20E9C204600F0BFFD204620
:1015C000FFF7C4FE0024032C0DD0032C01D3002010
:1015D00000E00120C20120460B30C0B28021FFF79D
:1015E00091FD641CEFE70E24022120460A46FFF716
:1015F00089FD042120460A46FFF784FD13B0F0BDA3
:101600000924284F102C04D0FFF7B6F93855641C74
:10161000F8E7FFF73FFA062E3BD8022E18D0052E2A
:101620001FD1B91909200856002826D50F22C30654
:101630001040DB0F0A24634318184872F87B0240FD
:10164000000960431018643039460F3106261DE04A
:10165000B919487A400607D4002038824A7A3F20D8
:1016600009E0B819407A08E03D74487A8006C00F56
:1016700078744A7A1F20104048720F210140C0B28E
:1016800000090A2242435018B91909310870761C22
:10169000C1E7387B0C300721FEF72AFD481C089073
:1016A000387381E600000020D91000080000C8420D
:1016B0005254433A20322530336420256420256477
:1016C00020256420253032643A253032643A2530B2
:1016D000326420543A253032642E253032640000C2
:1016E000062C0000E0FFEF4000005940E17A743F13
:1016F000E17A74BF7B14AE4700E06540008046C0CD
:101700002DF3000080200804100201005448203A04
:10171000434F4E563A30782530325820543A2530CF
:1017200032642E2530326420483A253032642E252A
:10173000303264205354415455533A307825303276
:1017400058000000FEB514460D4606460EA0124F86
:10175000B84712A0B84714A0B84718A0B8473046F9
:10176000B84719A0B8476E460B211AA230462B463F
:1017700000F0E4FC3046B84717A0B8472046B84709
:1017800018A0B847FEBDC0460D0A2A2A4445425556
:1017900047205052494E54002D1300080D0A464967
:1017A0004C4520203A2000002E2E2F5372632F55D7
:1017B0005345522F66756E632E6300000D0A465521
:1017C0004E4320203A2000000D0A4C494E4520206F
:1017D0003A200000256400000D0A494E464F2020A3
:1017E0003A2000000D0A0D0A0000000010B5FF228B
:1017F0000021012911D8037853400022072A08D874
:10180000DCB264001B0601D531235C402346521C28
:10181000F4E7491C401C1A46EBE7D0B210BD81B07A
:10182000684664210180684601880088002903D049
:10183000401E69460880F6E701B0704781B04B480A
:101840000168009100996421074A002907D01368B4
:10185000DB0706D00368DB03DB175918F5E7012027
:1018600000E0002001B0704718200240F0B587B0BA
:10187000394D296828680126B0432860314003911A
:101880000B20401E02D02968C907FAD170053349E0
:101890000A6802430A600A6882430A60304F386867
:1018A00030490840B20380183860786880231843B4
:1018B0007860F86808408018F86038682A4908405D
:1018C0003203801838607868402420437860F868D4
:1018D00008408018F8600293BB61BC61FFF79FFF6E
:1018E00000200590C04304903869000624D4019676
:1018F0001E480068069006981D4D002D0ED01B480E
:101900000668BC62FFF78BFFBC61F003C017451986
:10191000FFF785FF38690006EFD501E005980490D0
:10192000029DBD6200242046FFF762F9BD6120469A
:10193000FFF75EF9084D019EFFF712FB03980028A0
:1019400002D02868304328600598C0430499081ADB
:10195000411E884107B0F0BD0054004028100240ED
:1019600000040050FF3FFFFFFFCFFFFF10E000E04B
:10197000B80B00009EB0104C606B012738436063C9
:10198000606B3840179017983907A06B0843A06325
:10199000A06B0391084017901798084A906920217E
:1019A0001291084310211191884390610448016805
:1019B000B943016006E0C046001002400800014043
:1019C000002002400168C907FCD10323D802054A60
:1019D00011688143F8020E9008181060206838439F
:1019E000206001E00070004020684007FCD51F2007
:1019F00000026168814338030D9008186060E06858
:101A0000802109910843702104918843E0600722F6
:101A10001002E1688143E1600892D002E1688143ED
:101A2000E160E0683843022110918843E060E0689B
:101A30000C2101400429FAD1FC48FD4941600026EF
:101A4000866005250560D9430B91E06C0840E06491
:101A5000E06CF8490840E0641C961B961A961996AB
:101A60000424204615941693F34988473846F249D2
:101A70008847F14910988847059528071390082151
:101A80000F9181621199816240210A9181620D99C1
:101A90008162EA4A1299916239020C9191629461D1
:101AA00081610E9981611B96169C1894B80302906F
:101AB00017901497E24F17ADE24A384629469047EF
:101AC0001B9618941498C003069017903846149FDC
:101AD0002946DC4A90471B961A96199418970F9836
:101AE0001790139C20462946D64A90471B961A9673
:101AF000199618971198179020462946D14A904771
:101B00001B961A96169F1997149818900A98179072
:101B100020462946CB4CA0471B9618971098179043
:101B2000C6482946A0471B961A961996149F1897DF
:101B300015981790C1482946A0471B961A961996E2
:101B400018970C981790139C20462946BD4A904739
:101B50001B961A96199618970E98179020462946A4
:101B6000B84A90471B961A96199618970D98179091
:101B700020462946B34A90471B9618960698179018
:101B800020462946AF4CA0471B9618960F981790F1
:101B9000AA482946A0471B96189611981790A7485F
:101BA0002946A0471B961A961996189712981790CF
:101BB000A2482946A0471B961A96199618970C9882
:101BC00017909E482946A04723469F4A10683843ED
:101BD0000E21884310609949C8683843109CA0437F
:101BE000C86008680A460B9908401060F843974A95
:101BF000516801405160116839431160D16801405A
:101C0000D1609068384390609148BF3091490A682C
:101C100002400A609048129901601C961B961A9621
:101C20000B96199679028D4A506B08435063506B9E
:101C3000079108401D901D98D06A3843D062D06A41
:101C400038401D901698189017941D9817A913984E
:101C500098478348416A21434162B904426A0A4372
:101C6000426280490A68804B1A40FC0500941219B0
:101C70000A607A04456A154345620A681A40BB0542
:101C8000D2180A604268D20703D18268FC4B134025
:101C900083600269089B1A430261C268BA43C2604A
:101CA000159AD2438368134083607B060D689D4379
:101CB0000D6001681140016001680F9A9143016055
:101CC0004168F74A0A4003990A434260BB074168EA
:101CD000C90709D18168F34A0A40826016998907C9
:101CE000C2688A431A43C2600393FFF739F9E54C8F
:101CF000606B0D9908436063606B084017901798FC
:101D0000E06A3843E062E06A38401D900B9E1C9602
:101D10001B961A96169C1994109F18971298179054
:101D20001D9817A90191139D2846FEF703FF1C96E5
:101D30001B961A9619943E461897099817902846AC
:101D40000199FEF7F7FED84A10684006D74C08D430
:101D50001068D249084020431060506815998843A4
:101D60005060D0690E998843D061506811998843BA
:101D70005060C44A506B029908435063506B08404E
:101D800017901798D06A14990843D062D06A084017
:101D90001D9015981C900B9F1B971A9716981990D9
:101DA00035461896079817901D9817A90291139E0B
:101DB0003046FEF7BFFE15981C901B971A97169891
:101DC00019901895F934179430460299FEF7B2FE2F
:101DD000AC4CB74B1868C007B64A71D11868B64901
:101DE00001400C3119605868A949084058601046F4
:101DF0007030996801409960E06C169908400904B8
:101E00004018AE4988420BD0AD4988422ED0AD492A
:101E100014461D46884233D1FFF71EF92B463FE09A
:101E20009848006D8001069908403AE010E000E013
:101E30003F1F0000FFCFFFFFD50B0008000400503C
:101E400000080050350B0008080001400004014064
:101E50004000FFFF04E400E000E100E00010024069
:101E60000424014008270140FFFF3FFF854C206804
:101E7000400725D52068C00600D4FFE0934813E052
:101E8000FFF7EAF87F4AD168D2689204520F90A314
:101E90009A5C0906090F90A3595C2B46C840D040B4
:101EA00022460028774C0BD0E12115460A02801803
:101EB00049021C46FEF71CF923462A46714CD8609D
:101EC0000920C00259688143596098682A218843D3
:101ED00098601868149D28431860A06B2843A0637D
:101EE000A06B284017901798039E30681040306010
:101EF000F920F0620898B06270692843706109980F
:101F0000C743316839403160B1681046764A0A40AB
:101F1000B260F1690F9A1143F161316A0C9A9143F1
:101F20003162316A7268F369726060221A43132366
:101F30009A43F2617C22F2637030084007990843AB
:101F40003062F169159A9143F1617168049B99437C
:101F50007160B1683940B160E06A2843E062E06ACC
:101F600028401D90109E1C960B991B911A91199157
:101F7000189617921D9817A9139F3846FEF7DAFD99
:101F80005A4893215AA2FFF7DDFB434A106805998E
:101F9000884310603C4A9069302188439061206DED
:101FA000000116D4206D000E4BD0384908680F9AF6
:101FB00010430860524805701546206D009908438B
:101FC00020654A489D2158A2FFF7BCFB314C159E65
:101FD00011E02E4908680F9D2843086048480670A4
:101FE000206D0099084320652A4C159E3F489A2190
:101FF00049A2FFF7A7FB2C4A106840060A9902D5B0
:102000001068884310601198B862BD62B962A66119
:102010000E98B8621298A0610D9CBC61FEF732FC6C
:10202000BC62FEF72FFCBC6101242046FEF7E0FDF8
:1020300041480168C90702D1016821430160FEF7E8
:102040000BFE124A506811680F9D294311608007EA
:10205000C017169908402A490870216D009A11434B
:1020600021650128ADD003280A4C159E02D0022814
:10207000BCD0C0E71D48A02122A2BAE7124813E74E
:102080003CC2FEFF0010024008000140007000400A
:10209000FFCFFFFF00040050000401404000FFFF9D
:1020A000E8FFFF6FC73FFFFF00300140070300005C
:1020B000003801408FFCFFFFF369FFEF03000300CE
:1020C00002000300010003000024F40000093D00A9
:1020D00000000000010203040000000000000000F6
:1020E0000102030406070809F8BFFFFF7E26000867
:1020F00053595354454D2052455345540000000058
:102100004F00002057616B6575702066726F6D20FF
:102110007374616E64627900506F776572206F6EC0
:1021200020726573657400004E6F726D616C207271
:102130006573657400000000005400400FB47CB566
:102140000C0009AD01D0611E00E00021019100905A
:10215000074B6A462946089800F032F8002C02D056
:10216000009A002111707CBC08BC04B01847000024
:10217000352600082021020C01D010211046020A49
:1021800001D010460839020901D01046091F820803
:1021900001D01046891E420801D0881E7047081AD7
:1021A000704702E008C8121F08C1002AFAD1704720
:1021B0007047002001E001C1121F002AFBD17047C7
:1021C000FFB591B00F460546002606E025280AD047
:1021D000149A139990476D1C761C28780028F5D125
:1021E000304615B0F0BD002400940121F34A02945A
:1021F00000E004436D1C2B780846203B98401042B9
:10220000F7D128782A280ED0022128780246303AC1
:10221000092A15D8009A0A235A43303A80180C43E9
:102220006D1C0090F1E701CF0090002805DA012035
:1022300040030443009840420090022004436D1C78
:1022400028782E2815D10420044368786D1C2A288C
:102250000AD101CF6D1C02900BE002990A22514372
:10226000303940186D1C0290287801463039092910
:10227000F3D928786C2810D006DC4C281AD06828AE
:102280000ED06A2817D104E0742813D07A2812D10E
:1022900010E00120400504430CE00121090501E0A4
:1022A000032109050C436978814203D1012000050F
:1022B00024186D1C6D1C287803906E281ED00CDC31
:1022C000632831D004DC00288AD0582811D1B2E02C
:1022D00064287BD069280CD178E073282DD004DCE9
:1022E0006F2870D0702804D1A7E075286CD07828AA
:1022F0006BD0149A13999047761C62E06002400FED
:10230000022807D003280AD0042838680AD00660BB
:102310003F1D56E03868F11706604160F8E73868FD
:102320000680F5E70670F3E7387869460874002000
:10233000487404A80390012003E03868039000204B
:10234000C0433F1D61070FD5002101E00199491CE1
:10235000029A0191914213DA8142F7DB019A0399C3
:10236000895C0029F2D10BE0002101E00199491CB0
:1023700001918142FADB019A0399895C0029F5D128
:1023800001990098139A401A00902146149B00F07E
:102390003BF901998019461807E0039803990078E2
:1023A000491C0391149A139990470198401E01907B
:1023B000401CF2D12146149B139A009800F014F9A6
:1023C00086196D1C09E741E033E034E00A20002162
:1023D000049005916002410F022905D001CFC21778
:1023E0009446032905D007E0FF1DFF08FF0003CF37
:1023F00006E000B2C2179446042902D140B2C117C8
:102400008C4600226146944506DA0A460021404285
:1024100091418C462D2102E0210504D52B216A46ED
:102420001176012103E0E10701D02021F7E70191B6
:1024300054E00A200BE0102009E010200490002155
:102440000420044308200591029003E008200021A5
:10245000059104906002410F022905D001CF0022AE
:102460009446032906D006E0FF1DFF08FF0003CFB6
:102470008C4603E080B2042900D1C0B20021019152
:1024800021072BD50399702906D0049A1021059BAA
:102490004A401A4305D00EE040216A4611760121D8
:1024A00008E06146014306D030216A46117603995F
:1024B000517602210191049A0821059B4A401A4352
:1024C0000CD16146014301D1610707D530216A462D
:1024D0001176012101910299491E0291039958290F
:1024E00004D037A103910FA90F910DE039A1F9E7AD
:1024F0006146059B049AFDF711FE039B8C469B5C8D
:102500000F9A521E0F92137061460143F0D10F983B
:1025100007A9081A20300390600704D501200004A1
:102520008443029801E0012002900399884201DD72
:10253000401A00E000204118029001980918009804
:10254000401A0090E00306D42146149B139A009889
:1025500000F05AF886190020049008E006A9085CEB
:10256000149A139990470498401C761C0490019982
:102570008842F3DBE0030CD52146149B139A0098A4
:1025800000F042F8861904E0149A3020139990471D
:10259000761C0299481E02900029F5DC08E00F988D
:1025A0000F990078491C0F91149A13999047761C43
:1025B0000399481E03900029F1DCFBE6092801007D
:1025C00030313233343536373839616263646566A9
:1025D000000000003031323334353637383941426B
:1025E0004344454600000000F8B5044600251E4659
:1025F0001746880404D405E039462020B0476D1CF6
:10260000641EF9D52846F8BDFFB50446002581B003
:102610001E46C80301D5302700E02027880404D5D2
:1026200005E038460399B0476D1C641EF9D528466D
:1026300005B0F0BD4A68002A06D00A68531C0B603A
:1026400010704868401E4860704752656164792088
:10265000696E207374616E646279206D6F646500C9
:10266000496E207374616E646279206D6F646520B9
:102670006661696C004C6F6F700046756C6C496EDA
:102680006974000094260008000000205004000037
:04269000B22100086B
:04000005080000C12E
:00000001FF
