:020000040800F2
:1000000038050020D5000008E554000861240008E8
:1000100000000000000000000000000000000000E0
:10002000000000000000000000000000196200084D
:100030000000000000000000BD5700088B620008AF
:10004000E7000008E7000008E7000008E7000008F4
:10005000E7000008FF210008E7000008E7000008AB
:1000600000000000E7000008E7000008E7000008C3
:10007000E7000008E700000800000000E7000008B3
:1000800000000000E7000008000000000000000081
:10009000E700000800000000E7000008E700000893
:1000A000E7000008E7000008E7000008E700000894
:1000B000E7000008E7000008000000000000000062
:1000C0000348854600F04AFA00480047E16F0008FF
:1000D000380500200448804704480047FEE7FEE753
:1000E000FEE7FEE7FEE7FEE7ED620008C10000085C
:1000F00030B50B46014600202022012409E00D46C0
:10010000D5409D4205D31D469540491B2546954047
:1001100040191546521E002DF1DC30BDF0B51FB45C
:100120000646002082B005464024019100901BE065
:10013000019922460F46304600F032FA049A059B98
:10014000801A994110D310461946224600F018FA39
:10015000361A8F410197224601200021009F00F0AE
:100160000FFA38184D4100902046641E0028DFDC4D
:10017000019B00982946324607B0F0BDF0B507460E
:100180000846584087B0C00F049048000E465900FA
:1001900040084908BC1A884105D2384631461E46F7
:1001A00017460B4602465800400810434CD0300D0D
:1001B000039040055900400D490D0590401A0290EA
:1001C000402872DA18030121000B09050843019049
:1001D00004980092002805D00199524200208841DD
:1001E00000920190029840210A1A0199009800F0AB
:1001F000C7F905460C466B4607CB00F0E2F9C0197B
:100200007141039A0E0D0023D71756401A467A40C3
:10021000164344D0049A002A2DD0029A012A039A48
:1002200015DC1205C01A914101263605001C7141EA
:10023000D20F059ED2070093019202962A462346CA
:1002400000F0DFF907B0F0BD38463146FAE7160591
:10025000224A0F46B218C01AB74101210905001CF5
:100260004F4100187F41114618187941E20F1043A1
:100270006D19644113E0E2076D0815436408C20775
:100280001443039A01261205C01A91413605001C39
:100290007141CE07400830434908C01851412A46F1
:1002A000234600F0A1F9CDE7FFE7049801224000C2
:1002B000C117121A00238B4104983146C417381A0B
:1002C000A141EEE730B40124E407634030BC55E7B8
:1002D00030B40124E407614030BC4FE70000E0FF88
:1002E000F0B51FB488B00B990998002448400999CB
:1002F000C00F490049080991C0070B9900904900B7
:1003000049080B9109990898A64608431CD00B99F7
:100310000A98084318D0099801244000420D48006B
:10032000410D099824050003000B204309900B9808
:100330000003000B20430B9050181C49401800226A
:1003400001901446104605E0002001460DB0F0BDB6
:10035000032801DA034600E003239C46C11A0AAED3
:100360000AE05F0008ADED5B4F00F75B7D430027BF
:10037000AA187C41491C5B1E6145F2DD410004ABBB
:100380005A522104120C0A43240C401C0828DFDBBB
:10039000019802900099704601910090059B049A83
:1003A0000799069800F02DF9D0E700000DFCFFFF3B
:1003B000F0B50C465C4085B0E40FE40703944C00B4
:1003C00000266408590094464908024602962243D2
:1003D00021D062460A431ED06200570D4A000E0328
:1003E0002303550D012402462C492405781B1B0BC1
:1003F000360B401823432643614600901C46501A92
:10040000B44103D30098401C009002E09218009879
:100410005B41002803DA0020014605B0F0BD002052
:10042000012109050746864611E064461D46141B56
:10043000B54106D36546521BB341744607430C438E
:10044000A646CD0740084908284392185B41054657
:100450000D43EAD11046184313D060461946504068
:100460007140084306D06046101AB34106D20122FB
:10047000002306E000220123DB0702E00122D24331
:100480005310009874460105381C6141029C039D7D
:100490000019694100F0A8F8BFE70000FD03000063
:1004A00070B54B005B0803430BD04B005C0D00267E
:1004B00033466542B341D417AD1AA34102DB002095
:1004C000014670BD12053018514170BD0EB5C217FE
:1004D000C10F5040CA0740180021054B02930192FA
:1004E00000910A460B4600F08CF803B000BD0000F6
:1004F000330400004A0009030123090B1B051943BB
:100500000A4B10B5520D9A4202DA0020014610BD86
:10051000064B34339A4203DC9A1A00F041F810BDBE
:10052000034BD21800F02CF810BD0000FF030000B0
:10053000CDFBFFFF10B5002904DB0124E407404296
:100540008C412146002B04DB1C460123DB07524271
:10055000A341994200D1904210BD0000064C0125F4
:10056000064E05E0E36807CC2B430C3C984710345B
:10057000B442F7D3FFF7A8FDE4B7000804B80008B9
:1005800010B5202A04DB0146203A9140002010BD1E
:10059000914020239C1A0346E3401943904010BD2C
:1005A00010B5202A04DB0846203AD040002110BDB7
:1005B0000B46D340D0402024A21A9140084319464C
:1005C00010BD10B5202A06DBCB170846203A104193
:1005D000C1170B4306E00B461341D0402024A21A5A
:1005E00091400843194610BD10B5002B08DA0024CD
:1005F000401C614192185B411A4301D14008400000
:1006000010BDF0B51FB482B005460C0003D00846FB
:1006100006F0D4FD02E006F0D1FD20300246009045
:1006200021462846FFF7ACFF049B059A04460F4677
:1006300018431143084314D0184610431BD00098A8
:1006400040210A1A18460599FFF7AAFF05460E46EB
:10065000009A05990498FFF793FF084305D00120FD
:1006600004E02046394607B0F0BD0020C11705431D
:100670000E432C43374300990E986305401A7905C1
:10068000E40A00220C43FD0A0A3002D5002001468C
:10069000E9E70105101969410C9C0D9D001969419C
:1006A000FFF7A2FFDFE7FEB500231A461B1A8A41B7
:1006B00003DB0020014603B0F0BD4A000D03012119
:1006C0002D0B0905520D0D43D10702D100186D41C4
:1006D000521E5110FF31FF310131002704463E46C2
:1006E0003846009701910246012100200905FFF7D5
:1006F00057FFC3197141F818324684468E464A4165
:1007000061462846611A904104D36046241A9541F7
:1007100076461F46241900986D41401C00903428ED
:10072000E1DDF91930467041091BA84103D20022CE
:10073000D243134601E00022134601980105381CFC
:100740007141FFF751FFB6E770B500242546002838
:1007500001DA01244042002901DA01254942FFF76C
:10076000C7FCAC4200D04042002C00D0494270BDD2
:1007700003460B439B0703D009E008C9121F08C0BA
:10078000042AFAD203E00B780370401C491C521E65
:10079000F9D27047D2B201E00270401C491EFBD270
:1007A00070470022F6E710B513460A46044619467C
:1007B000FFF7F0FF204610BDF8B502464A40D40FBF
:1007C00042004B0052085B089A4202D20246084699
:1007D00011464A0023D0C30D4A00DDB2120EAD1AF5
:1007E000202D35DA49020126490AF6058A19002C1E
:1007F00000D0524220214F1B1146B9402A41101807
:10080000C20D9A4221D0002C17D0012D08DCDA0548
:10081000801AD20F8019D207DBB200F0B3F9F8BD0D
:10082000DA05801A012340001B06C01880185A42BE
:100830008018CA0F1043490007E04908C207114356
:10084000DA05801A80194008801800F093F9F8BD85
:1008500061000122511A001BF7E70122D207514023
:10086000AAE70122D2075040A6E7024670B54A40E7
:10087000D30FDB0740002DD04A002AD0010E140E02
:10088000000212020919400A520A8418E5010446BE
:100890005443000A120A2E045043A4194219200C92
:1008A000C543AA18120C0125AD03521C521912049B
:1008B0007F39240400D0521C104301D44000491E4B
:1008C000C2B20C06C0092018401C4008802A02D081
:1008D00003E0002070BD40084000002900DA00203D
:1008E000184370BD70B502464A40D50F40004A001B
:1008F000ED0740085208002814D0002A12D0C40D79
:10090000D30D41020120C0055202490A520AE41ADD
:10091000091812187D34914201D3641C00E049008B
:10092000002C01DA002070BD0023914201D3891A06
:100930000343400849000028F7D100290AD091421A
:1009400002D10121C90705E0914201D2012101E054
:100950000121C943E005C018401900F00BF970BD32
:100960000122D207002800DB101A002900DB511AEF
:10097000814201D801207047002070470122D20730
:10098000002800DB101A002900DB511A814201D334
:10099000012070470020704710B5002904DB0C4689
:1009A0000121C9074042A141002B04DB1C46012361
:1009B000DB075242A341801A994101D3012010BDA7
:1009C000002010BD10B5002904DB0C460121C90729
:1009D0004042A141002B04DB1C460123DB075242AD
:1009E000A341101A8B4101D2012010BD002010BD7F
:1009F00010B5002904DB0C460121C9074042A14182
:100A0000002B04DB1C460123DB075242A341801A62
:100A1000994101D2012010BD002010BDC217C10FA5
:100A2000504010B54018CA079623002100F0AAF8DC
:100A300010BD10B500229623114600F0A3F810BD9A
:100A40000EB505490291002100910A460B4601911D
:100A5000FFF7D7FD03B000BD33040000C20F410013
:100A600040020123400ADB05D207090EC0187F2986
:100A700001DA00207047962903DC9623591AC840F2
:100A800001E096398840002AF4D0404270470000C7
:100A900070B5CD0F4A0009030123090B1B0519434B
:100AA0000B4BED070024520D9A4201DA002070BD75
:100AB000074B34339A4203DC9A1AFFF771FD02E0C8
:100AC0000449511888402C43F1D0404270BD0000C9
:100AD000FF030000CDFBFFFF4A0009030123090BC0
:100AE0001B051943094B10B5520D9A4201DA00203B
:100AF00010BD064B34339A4203DC9A1AFFF750FDBF
:100B000010BD03495118884010BD0000FF030000CC
:100B1000CDFBFFFFC20FD207400040080BD0C10D34
:100B20000723DB01C91840020905400A1143C20826
:100B3000400711437047002001467047CB0FDB0789
:100B4000490010B5490802460A4307D00A0D072498
:100B50000903E401090B121B002A01DC002010BD6F
:100B6000C900440F0C43C100E018D205801800F002
:100B700001F810BD002904DA401C490001D14008E9
:100B80004000704770B40024050C05D11024000407
:100B900002D1002921D01124050E01D10002083410
:100BA000050F01D10001241D850F01D18000A41C77
:100BB000002801DB4000641C002908D020252E1BE2
:100BC0000D46F540A14000D001212943084301060C
:100BD0001B1B000ADB1D02D5002070BC7047DB0523
:100BE000181880180029F8DA401C4900F5D170BCAB
:100BF000400840007047000080B584B001F04EFF0F
:100C0000002861D0FFE701F07BFF00282CD0FFE730
:100C100001F0CAFF7D20C0000290DF48006801900B
:100C20000198FFE702990020002905D0FFE701F0B5
:100C300071FF411E8841FFE7C00700280BD0FFE786
:100C4000D5480068C003002804D5FFE70298401E7D
:100C50000290FFE7E6E70298002804D1FFE703A827
:100C60000121017034E0FFE701F06EFE7D20C0003D
:100C70000290C948006801900198FFE7029900209E
:100C8000002905D0FFE701F009FF411E8841FFE779
:100C9000C00700280BD0FFE7BF480068C00300284A
:100CA00004D5FFE70298401E0290FFE7E6E70298AE
:100CB000002804D1FFE703A80121017008E001F03A
:100CC00021FE01F061FEFFE703A800210170FFE7AC
:100CD00004B080BD80B584B001F0E0FE002835D1BD
:100CE000FFE701F00FFE01F075FE01F08BFF6420BD
:100CF00005F09DFF01F054FE7D20C0000290A64843
:100D0000006801900198FFE702990020002905D0B2
:100D1000FFE701F09BFE41424841FFE7C007002882
:100D20000BD0FFE79C480068C003002804D5FFE70C
:100D30000298401E0290FFE7E6E70298002804D1DF
:100D4000FFE703A80121017004E0FFE703A80021E9
:100D50000170FFE704B080BD10B58AB01848089054
:100D600007A800210170FFE707A8007804281ED813
:100D7000FFE708981349084306A900F069F800281E
:100D800003D0FFE70020099016E006AC608805F06C
:100D9000EDFE218805F04CFE07A90978890001AA1B
:100DA0005050FFE70798401C07A90870DCE701A82E
:100DB00005F058FE0990FFE709980AB010BDC0463B
:100DC00002000004000002C480B584B001F066FE99
:100DD000002804D0FFE703A80121017035E001F0ED
:100DE000A1FD01F041FF7D20C00002906A4800682B
:100DF00001900198FFE702990020002905D0FFE744
:100E000001F038FE41424841FFE7C00700280BD0FF
:100E1000FFE761480068C003002804D5FFE7029897
:100E2000401E0290FFE7E6E70298002804D1FFE7A2
:100E300003A80121017008E001F074FD022005F013
:100E4000F6FE03A800210170FFE704B080BDC04694
:100E500080B588B00690059104A80221017001F0C8
:100E6000F5FD002804D1FFE707A8012101708FE0FC
:100E70000698002804D0FFE7069801F06BFEFFE714
:100E800001F05AFD01F046FD03A800210170FFE7C3
:100E900003A8007804A90978884242DAFFE701F044
:100EA0002FFE002803D1FFE701F072FEFFE77D204F
:100EB000C00002903848006801900198FFE702994D
:100EC0000020002905D0FFE701F0CAFD414248415A
:100ED000FFE7C00700280BD0FFE72F480068C003DA
:100EE000002804D5FFE70298401E0290FFE7E6E7DE
:100EF0000298002804D1FFE707A80121017047E00C
:100F000001F012FE25490840059903AA1278520003
:100F1000885201F0FFFCFFE70398401C03A908700A
:100F2000B6E701F0EDFD00282CD0FFE701F03CFE14
:100F30007D20C00002901848006801900198FFE7EA
:100F400002990020002905D0FFE701F0E3FD411ED2
:100F50008841FFE7C00700280BD0FFE70E48006874
:100F6000C003002804D5FFE70298401E0290FFE767
:100F7000E6E70298002804D1FFE707A801210170E5
:100F800006E0FFE701F0D8FC07A800210170FFE7A9
:100F900007A8007808B080BD10E000E0FF0F000057
:100FA00080B51848007B00280CD0FFE77D20400169
:100FB00000F010FA1348407B00F038FA132000F0DC
:100FC000EDF9FFE780BDC046B0B50E48007B0028B4
:100FD00017D0FFE77D256C01204600F0FBF909489A
:100FE000407B00F023FAE80000F0F4F91D252846C4
:100FF00000F0D4F9204600F0EDF9284600F0CEF9D3
:10100000FFE7B0BD1800002082B001A90870087881
:10101000FC221040374A80580090009809788907D0
:10102000C90EC840C0B202B07047C04681B0694620
:101030000870087880002F49405801B07047C046BA
:1010400080B582B002F05CFC002803D1FFE702F01B
:1010500033FCFFE702F08CFC02F098FD02F010FC7C
:10106000684600210170FFE768460078042811DC1B
:10107000FFE768460078FFF7D9FF002804D0FFE7B4
:1010800001A80121017009E0FFE70098401C6946B2
:101090000870E9E701A800210170FFE701A80078C6
:1010A00002B080BD10B584B002A900220A70019080
:1010B00002F026FC002803D1FFE702F0FDFBFFE76A
:1010C000019802AC217889000A4A885002F0D8FBC6
:1010D0002078FFF7ABFF0199884204D0FFE703A80F
:1010E0000121017003E003A800210170FFE704B0B3
:1010F00010BDC04650280040F0B587B00D9C0C9C38
:10110000069005A80190017004A8027003A803705E
:1011100002AF002038700698007839787D22D6001A
:1011200032464A43801A64242146FFF70DFB78704B
:1011300006980078397832464A43801A79782246F0
:101140004A43801A0A252946FFF7FEFAB870069826
:10115000007802994E43801B79784C43001BB97884
:101160004D43401BF870019B18780321081A810F2A
:101170004118FC221140401A187000F09DF8002818
:101180001ED1FFE705A8007802A9085C04A9097828
:10119000884207DAFFE705A8007802A90A5C521C1A
:1011A0000A5405E0039805A9097802AA5054FFE7FC
:1011B0000C98012101700D980170FFF7F1FE23E0FA
:1011C00000F036F800281ED1FFE705A8007802A934
:1011D000085C03A90978884207DDFFE705A80078C5
:1011E00002A90A5C521E0A5405E0049805A9097870
:1011F00002AA5054FFE70C98012101700D9801706C
:10120000FFF7CEFEFFE7FFE702987D21C9004143CB
:1012100002A8427864235343C91882780A235343AF
:10122000C918C07808180699087007B0F0BD00000A
:1012300080B582B04B48102101F02AFF00280FD161
:10124000FFE7132003F0C8F84648102101F020FF03
:10125000002804D1FFE701A80021017004E0FFE7A6
:1012600001A801210170FFE701A8007802B080BD4C
:1012700080B582B0052000070121C90301F008FFF5
:10128000002811D1FFE7132003F0A6F8052000077E
:101290000121C90301F0FCFE002804D1FFE701A8E9
:1012A0000021017004E0FFE701A801210170FFE7C0
:1012B00001A8007802B080BD80B582B0294808211D
:1012C00001F0E6FE00280FD1FFE7132003F084F8B9
:1012D0002448082101F0DCFE002804D1FFE701A822
:1012E0000021017004E0FFE701A801210170FFE780
:1012F00001A8007802B080BD80B5FFE70520000797
:101300000121C90301F0C4FE00282AD0FFE71548D7
:10131000082101F0BDFE002823D0FFE7114810216D
:1013200001F0B6FE00281CD0FFE7132003F054F8AC
:10133000052000070121C90301F0AAFE00280FD0F3
:10134000FFE70848082101F0A3FE002808D0FFE7C6
:101350000448102101F09CFE002801D0FFE780BD69
:10136000FFE7CBE70004005080B5FFE7052000074A
:101370000121C90301F08CFE00280ED0FFE71320E5
:1013800003F02AF8052000070121C90301F080FEBF
:10139000002801D0FFE780BDFFE7E7E780B582B016
:1013A00001A908800888002803D0FFE702F079FD32
:1013B000FFE701A8008803F00FF802F065FD02B016
:1013C00080BD80B502F060FD02F0F0FE02F08CFD01
:1013D00080BD000080B582B001900198114988421B
:1013E00003D3FFE7012000900EE001990E48FEF7BD
:1013F0007FFE401E009068464088002803D0FFE72B
:1014000001200090FFE7FFE7009802F0B3FE02F032
:1014100086FD0099884203D9FFE702F0C7FEFFE787
:1014200002B080BD41420F0040420F00F0B583B0D2
:1014300002AC207002F06BFD019020780B21FEF7CA
:1014400057FE21700198FFF7FBFA0122960700254D
:101450002A463346FEF7ACFF0C4B2A46FEF7A8FFA0
:1014600000900F462078FFF7EBFA2A46334606F045
:10147000CBFB02460B4600983946FEF731FFFFF7DB
:101480002BFB02F05DFE03B0F0BDC04600005940EA
:1014900081B069460880FFE768460088002805D0CB
:1014A000FFE70098401E69460880F5E7009801B004
:1014B0007047000010B584B0844804F09FFE2548B2
:1014C00004F09CFE4F4804F099FE03A8002101801F
:1014D000FFE703A80088132830DCFFE703A8008893
:1014E0000007002804D1FFE7784804F087FEFFE7F3
:1014F00003A80088000700280CD1FFE703A8038891
:10150000434A6C460A21204605F03CFE204604F082
:101510004BFEFFE703A80078FFF776FD03463D4A40
:101520006C460A21204605F02DFE204604F03CFEC4
:10153000FFE70398401C03A90880CAE7634C2046D4
:1015400004F05CFE044804F059FE204604F056FE08
:1015500004B010BD11B4000855B4000810B584B033
:101560005A4804F04BFE264804F048FE254804F093
:1015700045FE03A800210180FFE703A80088224957
:10158000884230DCFFE703A800880007002804D168
:10159000FFE74E4804F032FEFFE703A8008800078B
:1015A00000280CD1FFE703A80388194A6C460A21DA
:1015B000204605F0E7FD204604F0F6FDFFE703A80E
:1015C000008800F0F7F80346124A6C460A212046CC
:1015D00005F0D8FD204604F0E7FDFFE70398401C26
:1015E00003A90880C9E7394C204604F007FE0748E4
:1015F00004F004FE204604F001FE04B010BDC04615
:1016000004B4000863B40008FF07000045B40008F4
:1016100058B3000895B3000810B586B02B4804F005
:10162000EDFD2B4804F0EAFD05A800210170FFE75D
:1016300005A80078122840DCFFE705A8007804F030
:10164000B9FB03A9087004A800210170FFE704A8F2
:10165000007807281BDCFFE703A8007804A90978B5
:101660008022CA40104206D0FFE704A800786946ED
:1016700031220A5405E004A80078694630220A5451
:10168000FFE7FFE70498401C04A90870DFE76C46F9
:1016900000202072204604F087FD03A803780E4A3C
:1016A0000921204605F06EFD204604F0A7FDFFE766
:1016B0000598401C05A90870BAE7064804F09EFD8D
:1016C000024804F09BFD06B010BDC046E3B7000819
:1016D000F3B3000831B40008E3B4000880B586B065
:1016E00004A80021018003A83049018005F0F6FA22
:1016F000002804D0FFE705A80121018052E02C4812
:101700000168212212011143016002A80021017029
:101710000398401C03A90880049801A90880FFE7EA
:1017200001A8008803A9098888421DDAFFE701A8FB
:10173000008880003B490022425005F0F7FA00285B
:1017400008D1FFE701A800888000364940580028EA
:1017500004D0FFE702A80121017006E0FFE701982D
:10176000401C01A90880DBE7FFE71148016821223E
:1017700012019143016005F08FFA002804D0FFE7C1
:1017800005A8012101800DE002A80078002805D0FD
:10179000FFE70198401C05A9088003E005A8002187
:1017A0000180FFE705A8008806B080BDFF010000AA
:1017B0000420024081B06946088008881949405CCD
:1017C00001B0704780B584B002AA108001A80170F2
:1017D00005F084FA002804D0FFE703A80121017076
:1017E0001EE0019802A909880E4A885405F054FAAF
:1017F000002804D0FFE703A80121017010E002A82F
:1018000000880849405C01A90978884204D0FFE7B4
:1018100003A80121017003E003A800210170FFE784
:1018200004B080BD0000080880B582B001F04AFC19
:10183000002804D0FFE701A80121017003E001A8FE
:1018400000210170FFE701A8007802B080BDB0B5AB
:1018500088B007A905220A8006AA1070FF20034657
:101860001C3305AC238004AB01251D7003AD28702B
:1018700005981D78454301A80580088811782288BD
:101880001B7800F062FC242005F084FA02A80021F5
:101890000180FFE702A8008801A9098888420ADAC6
:1018A000FFE703A8007805F090FAFFE70298401CD4
:1018B00002A90880EEE72520C2000020102301467F
:1018C00000F043FC08B0B0BD10B582B02520C200C6
:1018D000002410232046214600F037FC242005F088
:1018E00059FA01A80480FFE701A800880A49884244
:1018F00009DCFFE7FF2005F068FAFFE70198401CCC
:1019000001A90880F0E72520C2000020102301462D
:1019100000F01BFC02B010BD7F12000070B5A0B03B
:10192000FF2208321FAB1A801EAA002313703D4A03
:101930001D921C901B911B981C99FFF71FF8002803
:1019400008D1FFE71FA800881EA90978394A00F0CE
:10195000ECF865E01C991B98FEF77FFF1B901B9C21
:101960001D981C99FEF779FF2F49FEF7BBFF014632
:101970002046FEF7B7FFFFF7CDF800222B4BFEF70E
:10198000FDFBFFF785F8694608700878002804D148
:10199000FFE768460121017009E0684600781528D4
:1019A00004DBFFE7684614210170FFE7FFE72049E9
:1019B00002A86222FEF7DCFE01A800210170FFE709
:1019C00001A8007869460978884221DAFFE701A971
:1019D0000A7803200346534302AAD31A53241D5DF9
:1019E000F82635401D550B7804465C43131B5424E0
:1019F00000251D5509784843101A5521425C1F23C4
:101A00001A404254FFE70198401C01A90870D7E72B
:101A10001FA800881EA9097802AA00F086F8FFE72F
:101A200020B070BD000040400000A0410000E03F39
:101A300001AA000863AA000870B58CB00BAB18802F
:101A40000AAC217009AD2A8008A802210170217812
:101A50000722114000780818401E410F4018C008A6
:101A6000401C03AE307018882178C9082A88337862
:101A700000F06BFB07A800210180FFE707A80088A2
:101A800009A9098888424EDAFFE70A9802A9087076
:101A9000089801A9087006A800210170FFE706A8B0
:101AA000007803A90978884237DAFFE704A8002103
:101AB000017002A800780721084005A90870FFE717
:101AC00005A80078072817DCFFE705A80078802123
:101AD000C1400498084304A908700198401E01A958
:101AE00008700878002801DCFFE706E0FFE70598AA
:101AF000401C05A90870E3E7FFE702A80021017078
:101B00000498C14304A80170012100F0F7FAFFE72F
:101B10000698401C06A90870C1E7FFE70798401C1B
:101B200007A90880AAE70CB070BDB0B584B003ABBC
:101B3000188002AD2970019201984078C0086C4667
:101B4000207018882978019A1278237800F0FDFA1D
:101B50000199881C0A782178514300F0CFFA04B02B
:101B6000B0BD10B58CB00F9C0E9C0BAC20800AA8A9
:101B7000017009A80270089305A800210180FFE701
:101B800008980078002800D18DE1089800780006B8
:101B900000287ED4FFE70E98002838D0FFE70E9883
:101BA000417880784843C00804A908800E98089AB4
:101BB00012780378D21A0B885343C018001D019085
:101BC0000198098840180E9AD3784B43D118091D03
:101BD000884212D8FFE70B98059940180AA909789E
:101BE0000E9B5A789B78DB0880B200F0AEFA019821
:101BF00004A9098800F082FAFFE70E98407809A945
:101C0000097840180599081805A9088040E0089847
:101C1000007820283BD1FFE70F98002837D0FFE756
:101C20000F98417849088078C008484304A9088083
:101C30000B98059940180AA909780F9B5A78520801
:101C40009B78DB0880B200F080FA07A800210170C1
:101C5000FFE707A8007804A9098888420CDAFFE7A3
:101C600006A8FF210170012100F048FAFFE707985C
:101C7000401C07A90870ECE70F984078400809A9B4
:101C8000097840180599081805A90880FFE7FFE7BB
:101C900005E10F98002800D100E10020039006A97B
:101CA000087007A90870FFE707A80078042815DC6A
:101CB000FFE70898007807A909788022CA401042F7
:101CC00005D0FFE70698401C06A9087000E006E072
:101CD000FFE70798401C07A90870E5E7FFE706A89B
:101CE0000078022806D0FFE7032819D0FFE7042870
:101CF0003BD06EE008984078002810D0FFE70898A5
:101D00000078C006400D03900898401C0890089881
:101D100000783F210840039901430391FFE758E011
:101D20000898407800281FD0FFE70898807800289E
:101D30001AD0FFE7089800780007000C0390089875
:101D4000401C0890089800788006000D0399014314
:101D500003910898401C0890089800783F2108409B
:101D6000039901430391FFE733E008984078002886
:101D70002ED0FFE708988078002829D0FFE7089840
:101D8000C078002824D0FFE7089800784007C00AF0
:101D900003900898401C0890089800788006800BF3
:101DA0000399014303910898401C08900898007813
:101DB0008006000D0399014303910898401C089088
:101DC000089800783F210840039901430391FFE7F9
:101DD000FFE70398002857D0FFE70F9841788078F5
:101DE0004843C00804A9088007A800210170FFE744
:101DF00007A800780F99C978884243DAFFE70F9A5D
:101E000004A80188CB1C07A90C785C43A21812799E
:101E1000120402920F9A0388DB1C0C785C43A21810
:101E200052791202029B134302930F9A0088C01C3E
:101E300009784143881880790299014302910298F8
:101E40000399884218D1FFE70B98059940180AA911
:101E500009780F9B5A789B78DB0880B200F075F9FF
:101E60000F9804A90988CA1C07AB1B785343C018F4
:101E7000C01D00F043F906E0FFE70798401C07A9E2
:101E80000870B5E7FFE7FFE70F98407809A90978E0
:101E900040180599081805A90880FFE7FFE708988A
:101EA000401C08906CE60CB010BDB0B58CB00BA80F
:101EB000CA2101800AA927220A7009AB38221A70A8
:101EC00008AA022414800C7807252C401B78E318FC
:101ED0005B1E5C0F1B19DB085B1C03AC23700088C6
:101EE0000978C9081288237800F02FF907A8002183
:101EF0000180FFE707A8008808A9098888424EDA10
:101F0000FFE70A9802A90870099801A9087006A8B5
:101F100000210170FFE706A8007803A9097888422C
:101F200037DAFFE704A80021017002A80078072132
:101F3000084005A90870FFE705A80078072817DC06
:101F4000FFE705A800788021C1400498084304A950
:101F500008700198401E01A908700878002801DC6B
:101F6000FFE706E0FFE70598401C05A90870E3E7D6
:101F7000FFE702A8002101700498C14304A8017082
:101F8000012100F0BBF8FFE70698401C06A9087085
:101F9000C1E7FFE70798401C07A90880AAE70CB033
:101FA000B0BD80B5222004F0F5FE032004F00DFF43
:101FB000202004F0EFFE04F03FFF102004F0EAFEC2
:101FC000012004F002FF80BD80B5222004F0E2FE73
:101FD000022004F0FAFE202004F0DCFE04F02CFFC6
:101FE00080BD000070B582B001AE30701024204674
:101FF00001F088F80025284602F0EEF9204601F0AD
:10200000D3F8284602F0E8F93078012806D0FFE737
:10201000122004F0BFFE04F00FFFFFE7012420466A
:1020200004F0B8FE272004F0D0FE204604F0CDFED8
:10203000002004F0CAFE0C2004F0ACFED72004F00F
:10204000C4FED62004F0C1FE9D2004F0BEFE112087
:1020500004F0A0FE204604F0B8FE2C2004F09AFE06
:102060009A2004F0B2FE3A2004F094FE1A2004F004
:10207000ACFE3B2004F08EFE082004F0A6FE01A872
:102080000078012807D0FFE73C2004F083FE3320CE
:1020900004F09BFE06E03C2004F07CFE012004F0EE
:1020A00094FEFFE701A80078002806D0FFE701288A
:1020B0000BD0FFE7022810D017E0322004F06AFEB0
:1020C0000D481E2104F09CFE0FE0322004F062FE59
:1020D00008481E2104F094FE07E0322004F05AFE66
:1020E00003481E2104F08CFEFFE702B070BDC0461D
:1020F000C5AA000801AB0008E3AA000810B582B029
:1021000001906C462180242004F044FE019821882F
:1021100004F076FE02B010BDB0B582B001AC2080F4
:102120006D4629704E2004F035FE287804F04DFEEF
:102130004F2004F02FFE207804F047FE0198C005E0
:10214000C00F04F042FE02B0B0BDF0B585B004ACE3
:10215000208003AD297002AE328001AF3B7004983D
:10216000FF212831081A208004980299401A401C47
:102170003080019803994018401E3870442004F0C4
:1021800009FE287804F021FE38781F21084004F069
:102190001CFE452004F0FEFD207804F016FE049895
:1021A000C005C00F04F011FE307804F00EFE029856
:1021B000C005C00F04F009FE20882978FFF7ACFFA6
:1021C00005B0F0BD10B582B06C4600202070222012
:1021D00004F0E0FDC62004F0F8FD202004F0DAFD54
:1021E0002078002805D0FFE704F026FE01A908703A
:1021F00003E001A800210170FFE702B010BD80B527
:1022000000F0C2FE002803D0FFE700F0C7FDFFE7A3
:1022100080BD000010B584B016480390039801906B
:1022200002A800210170FFE702A8007813280DD84A
:10223000FFE702AC2078FFF7BDFA019922788854B5
:10224000FFE70298401C02A90870EDE703980078A8
:10225000AA280DD0FFE70848084A5921C90004F010
:1022600081FB03981B490CC90CC01CC91CC0FFE7AB
:1022700004B010BD18000020E8B50008F9B500084A
:1022800010B584B0134803900398019002A8002170
:102290000170FFE702A80078132817D8FFE702AC07
:1022A0002078FFF787FA01992278895C884207D065
:1022B000FFE702A800780199095CFFF783FAFFE7BE
:1022C000FFE70298401C02A90870E3E7FFF746F910
:1022D00004B010BDF486000810B57D204001FFF762
:1022E00079F80320FFF7A2F831242046FFF756F8CB
:1022F000204602F071F82046FFF750F8204602F021
:102300006BF82046FFF74AF83D4C3E4AFF21D23198
:10231000204604F027FB3C4AE9204100204604F017
:1023200021FB03F0B9FD002807D0FFE73448384A05
:10233000FF21D63104F016FB06E03148334AFF2175
:10234000DA3104F00FFBFFE72D48324AFF21DC3180
:1023500004F008FB04F0A3F8002807D0FFE72848A2
:102360002E4AEF21490004F0FDFA06E024482A4AEB
:10237000F121490004F0F6FAFFE72148284A7921C3
:10238000890004F0EFFAFEF75BFE002807D0FFE7B4
:102390001B48254AFF21E83104F0E4FA06E018481A
:1023A000204AFF21EC3104F0DDFAFFE714481F4A10
:1023B000FF21EE3104F0D6FAFFF790F9002807D09C
:1023C000FFE70F481B4A1F21090104F0CBFA06E082
:1023D0000B48174A7D21890004F0C4FAFFE708483A
:1023E000154AFB21490004F0BDFAFFF7B7F8FFF7E3
:1023F00013F9FFF75FF8C720FEF7D0FF10BDC04606
:1024000008B700081CB40008B8B300088FB500086E
:1024100038B60008D5B30008B0B5000859B60008B2
:10242000E5B30008C2B500086BB60008C5B30008E4
:102430009EB5000847B6000882B5000883B0029038
:1024400001AB197069460A7002981A78012393400B
:102450005A1E09788A401040C84003B070470000F7
:10246000FFE7044803F0CAFE034801F0B5FF03F09C
:102470008FF8C0469DB30008E703000080B584B024
:102480007D20C0000290D948006801900198FFE7C4
:1024900002990020002905D0FFE701F093F841429E
:1024A0004841FFE7C00700280BD0FFE7CF4800688E
:1024B000C003002804D5FFE70298401E0290FFE702
:1024C000E6E70298002806D1FFE704F0F1FC03A834
:1024D0000021017004E001F09DF803A90870FFE7F6
:1024E00003A8007804B080BD80B586B004AB187036
:1024F00003A8017002A8027001F050F8002833D040
:10250000FFE77D20C0000190B84800680090009867
:10251000FFE701990020002905D0FFE701F05CF8F2
:1025200041424841FFE7C00700280BD0FFE7AF4812
:102530000068C003002804D5FFE70198401E019001
:10254000FFE7E6E7019800280DD1FFE704F0B0FCB3
:10255000002804D1FFE705A8012101708FE005A83C
:10256000022101708BE0FFE701F05CF804A800781D
:1025700001F09CF803A80078002804D1FFE70020B0
:1025800001F0AEF804E00120800201F0A9F8FFE7B5
:1025900000F06CFF02A8007801F0B4F800F038FFFA
:1025A00000F0B0FF7D20C0000190904800680090CE
:1025B000009803A80078002826D1FFE7FFE70199DB
:1025C0000020002905D0FFE701F006F8414248410C
:1025D000FFE7C007002816D0FFE784480068C00363
:1025E000002804D5FFE70198401E0190FFE700F0A6
:1025F000DFFF002806D0FFE700F0A4FE05A80321B6
:1026000001703CE0DBE725E0FFE7019900200029AD
:1026100005D0FFE700F0D6FF41424841FFE7C00781
:10262000002816D0FFE771480068C003002804D5D1
:10263000FFE70198401E0190FFE700F0B9FF002876
:1026400006D0FFE700F07EFE05A80321017016E02A
:10265000DBE7FFE7019800280DD1FFE704F028FC35
:10266000002804D1FFE705A80121017007E005A8B3
:102670000221017003E005A800210170FFE705A811
:10268000007806B080BDC04680B584B07D20C00013
:1026900002905648006801900198FFE702990020D7
:1026A000002905D0FFE700F097FF41424841FFE7CE
:1026B000C00700280BD0FFE74C480068C003002883
:1026C00004D5FFE70298401E0290FFE7E6E7029874
:1026D00000280DD1FFE704F0EBFB002804D1FFE751
:1026E00003A8012101703BE003A80221017037E03B
:1026F00000F014FF7D20C00002903C48006801906B
:102700000198FFE702990020002905D0FFE700F0BB
:1027100045FF411E8841FFE7C00700280BD0FFE7B7
:1027200032480068C003002804D5FFE70298401E25
:102730000290FFE7E6E7029800280DD1FFE704F0DA
:10274000B7FB002804D0FFE703A80221017007E0CF
:1027500003A80121017003E003A800210170FFE735
:1027600003A8007804B080BD80B584B002A90870C9
:102770007D20C00001901D48006800900098FFE790
:1027800001990020002905D0FFE700F025FF414214
:102790004841FFE7C00700280BD0FFE71348006857
:1027A000C003002804D5FFE70198401E0190FFE711
:1027B000E6E7019800280DD1FFE704F079FB002837
:1027C00004D0FFE703A8022101700BE003A8012158
:1027D000017007E002A8007800F0A4FF03A8002120
:1027E0000170FFE703A8007804B080BD10E000E0AE
:1027F00010B53A4803F002FD132001F0EDFD00F0A2
:10280000FDFA01F027FB01F05FFE354908700878FA
:1028100001280CD0FFE7022803D0FFE703280CD0E3
:1028200011E03048324AD12104F09CF811E02D48E3
:102830002E4AD42104F096F80BE02A482A4AD721E0
:1028400004F090F805E027482A4ADA2104F08AF8D3
:10285000FFE703F017F802F0E9FF02F0EFFF20486E
:10286000007801281FD1FFE7FEF726FD002805D1DB
:10287000FFE7FEF7DDFC002806D0FFE70420FEF7A7
:10288000C3FBAA280FD1FFE7FFF726FDFFF7F8FCEF
:1028900019481A490CC80CC11CC81CC1C046C04606
:1028A00002F042FAFFE7FFF7B5FC144C0120207359
:1028B000FEF752FAA168FEF761F800280CD1FFE795
:1028C00008480F4AF12104F04DF803F0AAF803F08C
:1028D000A1F801F0BDFDFFE710BDC04639B3000807
:1028E0000E0000200CB7000823B70008DFB6000870
:1028F000ECB60008FBB60008F486000818000020BB
:1029000046B5000881B0D7480090009801210160C9
:1029100001B0704781B0DB4800900098042101604D
:1029200001B0704781B0D748009000980121C902DA
:10293000016001B07047C04681B0D2480090009855
:102940000821016001B0704781B0CE480090009826
:1029500080689B490840801C0099886001B07047DE
:1029600081B0C848009000984168042291434160BA
:1029700001B0704781B0C3480090009841680822B8
:102980009143416001B0704781B0BE48009000980B
:102990008168024A1140816001B07047E8FFFF6F13
:1029A00081B0B84800900098806885490840401C74
:1029B0000099886001B0704781B0B24800900098DB
:1029C00080680121090708437D4908400099886013
:1029D00001B0704781B0AB48009000988068012139
:1029E00009070843764908400099886001B070479C
:1029F00080B584B0A3490391029001A80021017021
:102A0000039800F043F8002818D1FFE70398C06846
:102A10000D49084002994A688B681A43C9680A43FD
:102A200010430399C860039800690321890788430C
:102A30000299096808430399086103E001A801218C
:102A40000170FFE704B080BDC73FFFFF81B08D4834
:102A50000090009800680121084001B07047C0460E
:102A600081B08848009000980068042108408008E0
:102A700001B0704781B08348009000980068012140
:102A8000C9020840C00A01B07047C04681B000903A
:102A9000009880680121084001B0704781B07948F2
:102AA0000090009880680121084001B07047C0463E
:102AB00080B584B073490391029001A80021017090
:102AC0000398FFF7E3FF002812D1FFE70398C068DF
:102AD0000A49084002990A684B681A438B681A43EE
:102AE000CB681A4309690A4310430399C86003E09D
:102AF00001A801210170FFE704B080BD3CC2FEFFC8
:102B000081B06048009000988068042108408008E7
:102B100001B0704781B05B48009000988068102138
:102B20000840000901B0704781B0564800900098F5
:102B3000006C80B201B0704782B0524901910090A0
:102B400000980A49084001998A6A02438A6202B0E1
:102B50007047C04682B04B490191009000980349EC
:102B600008400199886202B07047C046FFFF070025
:102B700082B044480190002000900198C068042170
:102B80008843009908430199C86002B07047C04665
:102B900081B03C4800900098806809490840001DB9
:102BA0000099886001B0704781B036480090009865
:102BB00080680349084010300099886001B0704770
:102BC000E8FFFF7F82B01748019000200090019835
:102BD000006801214906884300990843019908606B
:102BE00002B0704782B00F490191009001980068CF
:102BF000032189058843009908430199086002B0C0
:102C00007047C04682B007480190032080050090BD
:102C1000019909688143009801430198016002B05D
:102C20007047C0460827014082B016480190002036
:102C30000090019800690121884300990843019997
:102C4000086102B07047C04682B00E48019007206C
:102C500000900199496981430098014301984161BD
:102C600002B070470024014081B0064800900098EF
:102C700080680121C90708431721884300998860AB
:102C800001B070470024014082B00120000701908C
:102C9000019815490A6802430A60086801990840CA
:102CA0000090009802B0704782B00120400501906A
:102CB00001980D490A6802430A60086801990840B2
:102CC0000090009802B0704782B0012001900198F6
:102CD00005490A6802430A600868019908400090A3
:102CE000009802B07047C0463810024081B0009092
:102CF000009808490A6802430A6001B07047C0465C
:102D000081B00090009803490A6882430A6001B0CC
:102D10007047C0462810024082B0012001900198FF
:102D20001D490A6802430A6008680199084000903A
:102D3000009802B07047C04682B0012000030190A5
:102D4000019815490A6802430A6008680199084019
:102D50000090009802B0704782B00120800301907B
:102D600001980D490A6802430A6008680199084001
:102D70000090009802B0704782B00120400201909C
:102D8000019805490A6802430A60086801990840E9
:102D90000090009802B070473410024081B00120CA
:102DA000009000987E49086001B0704781B00090A3
:102DB000009821490A6882430A6001B07047C04602
:102DC00081B00090009822490A6882430A6001B0ED
:102DD0007047C04681B00090009828490A68824335
:102DE0000A6001B07047C04681B00520009000988D
:102DF00022490A6882430A6001B0704781B0052009
:102E0000009000981D490A6882430A6001B070472B
:102E100081B0009000981F490A6882430A6001B09F
:102E20007047C04681B00090009803490A68024389
:102E30000A6001B07047C0460404014081B00090B0
:102E4000009803490A6802430A6001B07047C0460F
:102E50000C04014081B00090009808490A680243C0
:102E60000A6001B07047C04681B00520009000980C
:102E700002490A6802430A6001B070470004014039
:102E800081B00090009803490A6802430A6001B0CB
:102E90007047C0460804014080B582B00190684682
:102EA0000021017001980079002861D0FFE70198A6
:102EB000006800285BD0FFE701984079002806D021
:102EC000FFE701280CD0FFE7022812D01AE0019892
:102ED0000068FFF76BFF01980068FFF7BBFF15E084
:102EE00001980068FFF776FF01980068FFF79AFFE6
:102EF0000CE001980068FFF7ADFF01980068FFF74C
:102F000091FF03E0684601210170FFE70198807995
:102F100000282BD0FFE701988079012806D0FFE731
:102F200002280CD0FFE7032812D01AE001980068AD
:102F3000FFF746FF01980068FFF7A2FF15E0019830
:102F40000068FFF765FF01980068FFF777FF0CE066
:102F500001980068FFF794FF01980068FFF76EFF83
:102F600003E0684601210170FFE7FFE7FFE708E0A3
:102F700001980068FFF72EFF01980068FFF716FF21
:102F8000FFE702B080BD000081B00120009004483E
:102F9000006800990840401A4142484101B070471A
:102FA000140401400B480168082211430160704776
:102FB00008480068012108407047C04681B00020E1
:102FC00000900448016801229143009A1143016076
:102FD00001B070470020024080B584B00390029198
:102FE000002001900090FFE7029800680199C84016
:102FF00000284BD0FFE702980068019901228A401F
:1030000010400090009800283CD0FFE702984068EC
:10301000012805D0FFE70298406802280DD1FFE79C
:1030200003980099029A926800F06CF90398029A4A
:103030001168D26800F006F9FFE703980099029A38
:10304000126900F04DF902984068022813D1FFE799
:103050000098FF2807D8FFE703980099029A526961
:1030600000F062F806E003980099029A526900F0B5
:1030700071F8FFE7FFE703980099029A526800F0A1
:10308000CFF8FFE70198401C0190ADE704B080BD88
:1030900082B0019000910198006900990840401A9F
:1030A0004142484102B0704782B08C480190802074
:1030B00000900198006900990840401A4142484137
:1030C00002B0704782B085480190012000900198BD
:1030D000006900990840401A4142484102B07047D7
:1030E00082B00190009100980199886202B0704707
:1030F00082B07A490191009000980199886202B0EB
:103100007047C04682B005210907019100900098E0
:103110000199886202B0704782B0019000910098D6
:103120000199886202B0704783B0029001910092C9
:103130000298006A01990A4652430B465343594389
:103140000F224A439043009A4A431043029908626F
:1031500003B0704783B00290019100920298406AD8
:103160000199090A0A4652430B46534359430F2219
:103170004A439043009A4A4310430299486203B07D
:10318000704782B00190009100980199886102B067
:103190007047000082B05149019100900098019958
:1031A000886102B07047C04682B0052109070191CD
:1031B000009000980199886102B0704782B0019038
:1031C000009100980199886102B0704783B043482C
:1031D000029001200190002000900298006801995F
:1031E000494303224A439043009A4A4310430299B9
:1031F000086003B07047C04683B03849029101901F
:1032000001200090029800680199494303224A4333
:103210009043009A4A4310430299086003B07047F4
:1032200083B002900191009202980068019949438D
:1032300003224A439043009A4A431043029908608C
:1032400003B0704783B002900191009202984068E9
:1032500001998843009A4A4310430299486003B099
:103260007047000083B01D49029101900120009039
:103270000298406801998843009A4A431043029992
:10328000486003B07047C04683B0144802900120E4
:103290000190022000900298C068019949430322DE
:1032A0004A439043009A4A4310430299C86003B0CE
:1032B0007047C04683B009490291019001200090F7
:1032C0000298C0680199494303224A439043009AF7
:1032D0004A4310430299C86003B07047000400508D
:1032E00083B00290019100920298C068019949430D
:1032F00003224A439043009A4A4310430299C8600C
:1033000003B0704783B002900191009202988068E8
:103310000199494303224A439043009A4A43104388
:103320000299886003B0704782B0019000910198C3
:1033300040680121C9038843009908430199486006
:1033400002B0704781B0E04800900098C169102237
:103350001143C16101B0704783B0029001910092A6
:10336000029800681F21090288430199009A1202FD
:10337000114308430299086003B0704710B582B04A
:10338000DF480190694600220A700199814209D103
:10339000FFE7012044052046FFF7A8FC2046FFF781
:1033A000AFFC12E001980A49884209D1FFE70120E9
:1033B00084052046FFF79AFC2046FFF7A1FC03E0B6
:1033C000684601210170FFE7FFE702B010BDC0466B
:1033D0000058004081B0009000980168012291439C
:1033E000016001B07047000081B0D34800900098A0
:1033F000016801229143016001B0704781B0CE485D
:1034000000900098016801229143016001B070476B
:1034100081B0C9480090009841680122520691434A
:10342000416001B07047C04681B0C3480090009829
:1034300001680122D2049143016001B07047C04687
:1034400081B00090009881680122D203914381608D
:1034500001B0704781B0B84800900098C16801225F
:10346000D2039143C16001B07047C04681B0B248F9
:10347000009000984168012212069143416001B01A
:103480007047C04681B00090009801680122114346
:10349000016001B07047000081B0A748009000981B
:1034A000016801221143016001B0704781B0A24858
:1034B00000900098016801221143016001B070473B
:1034C00081B09D4800900098416801225206114346
:1034D000416001B07047C04681B0974800900098A5
:1034E0000168012252049143016001B07047C04657
:1034F00081B00090009881680122D203114381605D
:1035000001B0704781B08C4800900098416801225A
:1035100052031143416001B07047C04681B08648F4
:10352000009000984168012292031143416001B06C
:103530007047C04680B582B07F49019100900198E4
:10354000FFF748FF0198009A9168D268FFF704FFDF
:1035500001980099496800F0BBF80198FFF792FFC5
:103560000198FFF76DFF0198009A1169926900F0C8
:1035700077F800980069002804D0FFE70198FFF76A
:10358000B7FFFFE701980099096800F05BF8019820
:1035900000994969FFF7C8FE02B080BD81B0664856
:1035A00000900098806980B2C00B01B07047C0469F
:1035B00081B061480090009880691021084000099E
:1035C00001B0704781B05C48009000988069042188
:1035D0000840800801B0704781B0574800900098BB
:1035E00080690121084001B07047C04681B052484F
:1035F0000090009800680121084001B07047C04663
:1036000081B04D480090009800680121084001B049
:103610007047C04681B0484800900098406AC0B2E8
:1036200001B0704782B0444801900020009001989A
:1036300040680121C9028843009908430199486004
:1036400002B0704782B00190009101980068032198
:1036500009058843009908430199086002B0704742
:1036600083B002900191009202988068044908405A
:103670000199009A114308430299886003B070478A
:1036800000F8FFFF83B02C480290002001900090CA
:103690000298C068044908400199009A1143084300
:1036A0000299C86003B0704701F8FFFF82B0224959
:1036B000019100900198406804490840009908432E
:1036C0000199486002B070470054004000FCFFFFC1
:1036D00082B00190009100980199086102B0704792
:1036E00082B015490191009001984068012189023A
:1036F0008843009908430199486002B07047C0466A
:103700000054004082B00C4901910090019840683B
:10371000FF2109048843009909040843019948607E
:1037200002B0704782B00449019169460870087878
:103730000199886202B070470054004082B0019045
:1037400001982D490A6802430A60086801990840F7
:103750000090009802B0704782B00120019001985B
:1037600025490A6802430A600868019908400090E8
:10377000009802B07047C04682B0012001900198C5
:103780001D490A6802430A600868019908400090D0
:10379000009802B07047C04682B0012001900198A5
:1037A00015490A6802430A600868019908400090B8
:1037B000009802B07047C04682B001200190019885
:1037C0000D490A6802430A600868019908400090A0
:1037D000009802B07047C04682B002200190019864
:1037E00005490A6802430A60086801990840009088
:1037F000009802B07047C0462C10024080B582B0DD
:1038000003480190019800F005F802B080BDC04661
:1038100000127A0080B582B001907D20C000009037
:1038200001980099FCF764FC401E054908600548B2
:103830000021016004480521016002B080BDC0463E
:1038400014E000E018E000E010E000E00548016846
:103850000422114301607047024801680422914329
:103860000160704710ED00E03C48016808221143F8
:1038700001607047394801680422114301607047B4
:103880003648016801221202914301607047C04628
:103890003248016801225202914301607047C046DC
:1038A00081B0012000020090009814490A68824308
:1038B0000A6001B07047C046284801680122120220
:1038C000114301607047C04624480168012252023A
:1038D000114301607047C04681B001200002009092
:1038E000009806490A6802430A6001B07047C04662
:1038F00002480068022108404008704704700040F8
:1039000016480068012109020840000A7047C046B5
:1039100081B000901148016802229143009A11433E
:10392000016001B07047C04681B0012000900B4992
:103930000A688243009802430A6001B07047C0469B
:1039400081B00120C0020090044801680322D20225
:103950009143009A1143016001B07047007000402C
:103960008E4801680122D205114301607047C046AC
:103970008A4801680122D204114301607047C046A1
:10398000B3480068F02108407047C046B04800685E
:103990000721090208407047AD4800680721C902A5
:1039A00008407047AA4800680C2108407047C0468C
:1039B000A74800680C2108407047C04680B582B017
:1039C0000190002000900198032837D1FFE701986B
:1039D00000F080F83B494018032826D87844007945
:1039E000400087442101051701F0AAFF009024E060
:1039F00000F086F800280CD0FFE700F095F80028CA
:103A000003D0FFE73148009002E02F480090FFE725
:103A1000FFE712E000F098F8002804D0FFE701204B
:103A2000C0030090FFE708E0FFE701F089FF01F025
:103A300059FF01F075FF0090FFE7FFE701980C28A0
:103A40003DD1FFE7019800F045F8214940180C28C6
:103A50002CD8C04678440079400087442627272781
:103A6000062727270A2727271C0001F069FF009057
:103A700024E000F045F800280CD0FFE700F054F8EF
:103A8000002803D0FFE71148009002E00E480090A4
:103A9000FFE7FFE712E000F057F8002804D0FFE747
:103AA0000120C0030090FFE708E0FFE701F048FFB6
:103AB00001F018FF01F026FF0090FFE7FFE70098F4
:103AC00002B080BD0000FDFF0024F40000093D00AD
:103AD0000000F4FF81B0009065480068009908403C
:103AE0000904084301B070471248016801221143DC
:103AF000016070470F480068042108408008704743
:103B00000C480068042108408008704781B01020EC
:103B10000090144801681F2212029143009A120279
:103B20001143016001B0704702480068102108404D
:103B30000009704700100240184800680121C906BA
:103B40000840C00E7047C046144800680121490271
:103B50000840400A7047C0460248006807214903F0
:103B60000840704704100240394800680321890565
:103B70000840704736480068012109040840704732
:103B8000334800680F2189040840704703480168E2
:103B90000122D204914301607047C0465010024098
:103BA00081B0802000902A480168F0229143009A59
:103BB0001143016001B0704781B00020009024489B
:103BC0000168072212029143009A1143016001B07B
:103BD0007047C04681B0002000901D480168072250
:103BE000D2029143009A1143016001B07047C04670
:103BF00081B00120C003009015490A6882430098F3
:103C000002430A6001B0704710B581B00320000480
:103C1000009017480168009A1309DB43054C2343C1
:103C200019401201FF231B031A401143016001B028
:103C300010BDC046FF0FF0FF81B001200090044886
:103C4000016803229143009A1143016001B070475B
:103C50000C10024081B00320000400900448016869
:103C6000009A130C994392B21143016001B070475E
:103C70004C10024082B0634801900198C0680090E7
:103C80000098019880680090009802B07047C04684
:103C900081B05C4800900098016840229143016027
:103CA00001B0704781B057480090009801684022E9
:103CB0001143016001B0704780B584B05149039150
:103CC000029001A801210170039800F05FF800281C
:103CD00033D1FFE7039800681C490840029A116835
:103CE0005368194393681943D368194313691943F7
:103CF0005369194393691943D3691943126A1143EC
:103D00000843039908600398406804218843029996
:103D1000C98A0843039948600298006A012149034F
:103D2000884206D1FFE703980299496A00F042F8F9
:103D3000FFE701A800210170FFE70398C169012294
:103D4000D2029143C16104B080BDC0464000FFFF74
:103D500081B02C48009000988068C0B2C00901B0C2
:103D60007047C04681B02748009000988068402185
:103D70000840800901B0704781B022480090009847
:103D8000806802210840400801B0704781B000906F
:103D90000098006840210840800901B07047000089
:103DA00081B01848009000980068402108408009C0
:103DB00001B0704782B00190009168460088019977
:103DC000086102B07047000082B00E4801900020E8
:103DD0000090019840681021884300990843019998
:103DE000486002B07047C04683B00649029101A9FD
:103DF000087002980C30009001980099087003B088
:103E00007047C0460030014010B582B001200190DB
:103E10000020009068460078800007494058009ACA
:103E2000130C0F249C40A043019C9C402043D2B221
:103E30009200505002B010BD0800014081B0202017
:103E400000900A48016830229143009A11430160B2
:103E500001B0704781B00020009004480168302212
:103E60009143009A1143016001B070472000014066
:103E700081B00348009000980249086001B0704783
:103E800000127A000400002082B001208107019115
:103E900000020090009801990A6A82430A6202B007
:103EA000704782B0012081070191000200900098C4
:103EB00001990A6A02430A6202B0704781B0012088
:103EC000800700900098016880229143016001B052
:103ED000704781B00120800700900098816880229F
:103EE0009143816001B0704781B00120810700914A
:103EF00000990A6802430A6001B0704781B00090DF
:103F00000098416901221143416101B0704781B0BD
:103F10000120800700900098C06A01B0704781B00E
:103F20000120800700900098406A01B070470000AF
:103F300080B584B00121890703910290039800683D
:103F40000190039888420AD0FFE703981D498842F0
:103F500005D0FFE703981C49884208D1FFE7019884
:103F6000702188430299496808430190FFE703984C
:103F70000121890788420AD0FFE703981149884246
:103F800005D0FFE703981049884209D1FFE701985F
:103F90000321090288430299C96808430190FFE799
:103FA00001980399086003980299896800F0DAF88B
:103FB00003980299098800F004F90398FFF79EFF1F
:103FC00004B080BD000801400014014084B001200D
:103FD00081070391000202900298012802D1FFE7B5
:103FE00000200FE00298102802D1FFE7022008E02D
:103FF000029A01200302042006219A4200D00846BA
:10400000FFE7FFE701A9087003980A781F4B9A5C45
:1040100080181830009008781D49085C0421814000
:10402000009802688A43026004B0704784B001209F
:1040300081070391000202900298012802D1FFE754
:1040400000200FE00298102802D1FFE7022008E0CC
:10405000029A01200302042006219A4200D0084659
:10406000FFE7FFE701A9087003980A78074B9A5CFD
:1040700080181830009008780549085C08218140B4
:10408000009802680A43026004B07047A2AC0008BE
:10409000B2AC000880B584B001218A0703920A02FD
:1040A0000292019068460170029801280DD0FFE746
:1040B000102812D0FFE701210902884215D0FFE73E
:1040C00001210903884218D01FE00398019901F0EB
:1040D00077FA68460021017018E00398019901F011
:1040E000AAFA68460021017010E00398019901F0D6
:1040F000E3FA68460021017008E00398019901F095
:104100001BFB68460021017000E0FFE704B080BDA2
:1041100082B00190009100980199486302B0704705
:1041200082B00190009100980199886302B07047B5
:1041300082B00190009100980199C86302B0704765
:1041400082B0012189070191009000980199C8630C
:1041500002B0704782B00190009100980199086404
:1041600002B0704782B00190009100980199C86236
:1041700002B0704782B00121890701910090009838
:104180000199C86202B0704782B001208007019097
:104190000020009001988068034908400099084376
:1041A0000199886002B07047F8BFFFFF82B001201C
:1041B000800701900020009000980199486202B0A9
:1041C000704782B00190009100980199886202B016
:1041D000704782B001208007019000200090019874
:1041E000406870218843009908430199486002B0F3
:1041F0007047000081B0774800900098402101622C
:1042000001B0704781B0734800900098416809225E
:10421000D20291434160009881682A2291438160D3
:1042200001B0704781B06B4800900098016801228E
:104230001143016001B0704780B584B065490391B6
:10424000029001A80121017000200090039800F065
:1042500061F8002844D1FFE703980068214908402D
:1042600002994A68CB681A430B691A4389690A4361
:1042700010430399086003980299896800F092F846
:1042800003980299496900F07FF8039851498842E0
:1042900005D1FFE70320FFF791FB00900BE00398A7
:1042A0001149884205D1FFE70C20FFF787FB0090FA
:1042B00000E0FFE7FFE70098002810D0FFE7029832
:1042C000006800280BD0FFE701A8002101700398C7
:1042D0000099029B9A691B6800F024F8FFE7FFE74A
:1042E00004B080BDF369FFEF0044004081B039485D
:1042F00000900098C06940210840800901B07047D3
:1043000081B0344800900098C069C0B2C00901B0C3
:104310007047C04681B000900098006801210840B5
:1043200001B0704780B586B0059004910392029366
:1043300003980121C903884218D1FFE7049840007F
:1043400002994A088018FBF7D3FE80B201900198C9
:104350000C490840009001980E210840400800993F
:104360000143009100980599C86009E004980299FA
:104370004A088018FBF7BCFE80B20599C860FFE7C9
:1043800006B080BDF0FF000082B00190009101985E
:1043900080680321090288430099084301998860D5
:1043A00002B0704782B001900091019840680321EB
:1043B00009038843009908430199486002B0704797
:1043C00082B00449019169460870087801998862B1
:1043D00002B070470038014082B001900F48006879
:1043E000009000980198401C002804D0FFE7019835
:1043F000401C0190FFE7FFE7019800280BD0FFE782
:1044000006480068C003002804D5FFE70198401E55
:104410000190FFE7F0E702B07047C04610E000E00F
:1044200010B582B0FEF7E0FC244C2068019000201B
:104430002060234823490160FEF716FDFFF70CFAC0
:10444000FEF7B0FD30BF0198206002B010BDC0463D
:1044500080B5FFF725FAFFF70DFAFFF705FAFFF72A
:104460003BFAFFF731FA0220FFF752FAFFF7EEF9B5
:1044700030BF80BDB0B582B0FFF712FAFFF7FAF98E
:10448000FEF7B2FC0D4D2868019000242C600C480A
:104490000C490160FEF7E8FCFFF716FAFFF7A8FBEE
:1044A000FFF742FA2046FFF733FAFFF7CFF930BFA4
:1044B00001982860FFF7ECF902B0B0BD000401409C
:1044C00014040140FFFF7B0080B582B0FFF734FB8E
:1044D000002804D0FFE701A80221017018E010486D
:1044E0000068000E002804D0FFE701A80121017038
:1044F0000DE0FFF7FDF9002804D0FFE701A8032134
:10450000017003E001A800210170FFE7FFE7FFE76A
:10451000FFF7AAF9FFF724FA01A8007802B080BDDE
:1045200050100240F0B595B07C4B149313AB18803B
:1045300012A8017011A90A70007801281DDBFFE79D
:1045400012A800780C2818DCFFE711A800780128D1
:1045500013DBFFE711A800781F280EDCFFE713A884
:1045600000886F494018032807D3FFE713A8008885
:104570006B494018CB280AD3FFE7149800218180AB
:10458000149881701498417014980170C4E01398C5
:10459000634940180AA9088013A80088400212AA9B
:1045A00012785201104311AA12781043069008881D
:1045B00080005C4908580699884205D9FFE70A98A7
:1045C000401E0AA90880FFE70AA80390008880001F
:1045D00054490858059005980C210922FDF72EFF33
:1045E00008AF388005980421019105263246FDF771
:1045F00025FF0EAC20700598002202923146FDF78F
:104600001DFF0DAD287013A8008812A9097811AA02
:10461000127801F002FE0646388821782A7801F0E7
:10462000FCFD301A07AC20800398008880003E49CA
:104630000858049004980D220199FDF7FFFE0CA97B
:1046400008700A983949401809A908800FA8012163
:1046500001700798401C208010A802990170FFE7A4
:1046600010A800780C282CDCFFE7049810990C2285
:10467000511ACAB20121FDF7E1FE012804D1FFE77A
:104680000BA81E21017003E00BA81D210170FFE79C
:1046900007A800880BA9097888420BDDFFE70F986F
:1046A000401C0FA908700BA800780799081A07A9E1
:1046B000088000E006E0FFE71098401C10A9087091
:1046C000CEE7FFE71498002101700CA800780028BD
:1046D00018D0FFE70FA800780CA90978884211DDEF
:1046E000FFE70FA800780CA90978491C884204D17B
:1046F000FFE7149801210170FFE70F98401E0FA9F2
:104700000870FFE70F9814998870079814994870FB
:10471000099814998880FFE715B0F0BD08000020C3
:1047200033F8FFFF04B00008D4AC0008CD07000048
:1047300030480078012813D0FFE7022803D0FFE7B4
:10474000032810D01BE001F07FF9002805D0FFE717
:10475000C046C04600F0E8FAFFE7FCF771FC0EE047
:10476000FCF76EFC0BE001F06AF9002803D0FFE7CC
:1047700001F057F902E000F0D3FAFFE7FFE71E4C23
:104780001E4AFF2529461431204602F0EBF801F0BD
:10479000CBFE1B4A29461631204602F0E3F8FCF70F
:1047A000E3FD184A29461A31204602F0DBF8FFF7EC
:1047B0004FFE154E8F2041002046324602F0D2F8BF
:1047C0001248FFF709FE124A09204101204602F073
:1047D000C9F8FFF73DFE912041002046324602F025
:1047E000C1F80C4A24352046294602F0BBF800F0F7
:1047F000D9FEC0460E000020B3B60008D2B50008AE
:104800006DB500082AB5000820B60008E7030000CF
:1048100093B600087BB60008B0B590B000240F94A2
:104820000E940D940C940B940A9409940894079494
:10483000069405940494039402940194FEF79CFA60
:10484000FEF7BAFF02200190032002900594052094
:10485000000701A9FEF7C0FB2348FEF76DF92348C6
:10486000FEF76AF90125E805FEF7BCF92048FEF7D6
:1048700063F9A805FEF7B6F90B940C940D940E9409
:104880000F940BA8FEF714F9FEF7DEF9FEF7CCF94A
:10489000FEF76EF9FEF796F9FEF762F8FEF76AF892
:1048A000FEF78AF8134800681349FBF721FC0A2138
:1048B0000A4642431046FBF71BFC0090FFE70098B6
:1048C000002804D0FFE70098401E0090F7E7012081
:1048D000800707900020089009900A9007A8FEF72B
:1048E00087F810B0B0BDC04602000004000004C844
:1048F000000002C404000020400D0300F0B595B094
:104900000025149513951295119510950F950E95F8
:104910000D9504200790FEF711FF01200446FEF7D5
:104920000DFF02200C90FEF709FF05200707082164
:104930000A913846FEF7D4FB10210B913846FEF75A
:10494000CFFB402103913846FEF7CAFB21030691B5
:1049500038460297FEF7C4FB864E20210991304667
:10496000FEF7BEFB210230460E460896FEF7B8FB66
:1049700080480799FEF705FC38463146FEF701FCF2
:10498000E10204913846FEF7FCFBA00327460D9098
:1049900003200E9004460194119551480DAE314606
:1049A000FEF71AFBF80305900D900E9411954C48F4
:1049B0003146FEF711FB0A980D900E973C46009485
:1049C00001980F9010951195029F38463146FEF7D9
:1049D00003FB0B980D900E940F951095119538468A
:1049E0003146FEF7F9FA03980D900E94019C0F944E
:1049F0001095119538463146FEF7EEFA0C980D9059
:104A00000E9411955B483146FEF7E6FA07980D9033
:104A1000009C0E940F951095119556483146FEF75F
:104A2000DBFA08980D900E940F9510951195384665
:104A30003146FEF7D1FA04980D900E940F9510951B
:104A4000119538463146FEF7C7FA06980D900E9438
:104A50000F951095119538463146FEF7BDFA059829
:104A60000D900E95119538463146FEF7B5FA0A9825
:104A70000D900E9511953F4F38463146FEF7ACFA32
:104A80000B980D900E95119538463146FEF7A4FA15
:104A900009980D900E940F95109511953846314652
:104AA000FEF79AFA08980D900E940F9510951195AF
:104AB00038463146FEF790FAFFF7A6F9FEF7E4FB19
:104AC000FEF784FB139413A8047145710C9981714E
:104AD000FEF7E2F900F018FD00F006FD15B0F0BD9C
:104AE00000080050F0B58FB000260E960D960C967B
:104AF0000B960A96099608960796069605960496CA
:104B000003960296FEF768FE402002900220019074
:104B100003900327049701240594069407941548ED
:104B200002AD2946FEF758FA8020029001980390C2
:104B300004970594069407940E482946FEF74CFA0C
:104B4000FEF7B2F8FEF7BCFCFEF784FCFEF76CFC47
:104B5000FEF7C2FC0896084809900A960B960C9638
:104B60000D960E9608A8FEF7E5FCFEF78BFD0FB03C
:104B7000F0BDC046000400500B021000F0B593B029
:104B800009A802902821FBF70CFE00270897079739
:104B90000697059704970397FEF7CEF8FEF7DCFD1E
:104BA000202003900220019004900324059406978E
:104BB000079708970520050703AE28463146FEF7FC
:104BC0000BFA8020039001980490059406970797AC
:104BD000089728463146FEF7FFF9099741208000E3
:104BE0000A900B9701980C9001200D9040020E90B6
:104BF0000F9710971197072012900298FFF75CF813
:104C0000FFF7E2F813B0F0BDB0B58EB000240D94FC
:104C10000C940B940A9409940894079406940594B0
:104C200004940394029401940094FEF74DF80AA8AA
:104C3000072101800B94F9210C910D94FFF778F96D
:104C4000FFF73CF9FFF7A0FAFFF7F0F960200690B4
:104C500007947C2008900225099506A8FFF71AFA08
:104C6000FFF7B4F9FFF7B5FAFFF733F9FEF784FD64
:104C70000420009001950294039404940595052066
:104C800000076946FEF7A8F90EB0B0BDF0B591B0C7
:104C9000002610960F960E960D960C960B960A9679
:104CA000099608960796069605960496FEF754F818
:104CB000FEF772FD01200390400204900220029052
:104CC00005900320019006900796089604270997FF
:104CD0000520040704AD20462946FEF77DF9039818
:104CE0008002049002980590019806900796089615
:104CF000099720462946FEF76FF9E12040020A9005
:104D00000B960C960D960C200E900F9610960AA8F6
:104D1000FFF792FAFFF776FAFFF784FA11B0F0BDC9
:104D200080B500F001F880BDF0B58FB0FCF74CF90C
:104D300000F088FD0220FDF755F9FCF7C5FD0BA832
:104D400000210170FFE70BA80078012852DCFFE783
:104D50009748019000240094964B20462146224615
:104D6000FCF7FFFE944DA12021462A46FCF7DDFE0C
:104D7000D12021462A46FCF7D8FEFF2002302146EA
:104D80002A46FCF7D2FE8D4E019600948C4B95205E
:104D9000012529462246FCF7E4FE01960094894B42
:104DA000CD2029462246FCF7DCFE01960094864B76
:104DB000FD2029462246FCF7D4FE2520C2001B21F7
:104DC0002046FCF739FE0BA8007800280CD1FFE73D
:104DD000FDF7F8F9FFF74EFB0120FDF703F9FCF7AB
:104DE00073FDFDF7F1F8FFE7FFE70B98401C0BA9F7
:104DF0000870A8E7FCF780FA0CA800F02AFE00F083
:104E000023FE002805D1FFE70CA8407900281BD11C
:104E1000FFE76E48017A0CAA1172017942791202F9
:104E200051188279C3791B029A18120451180D91F6
:104E300001784278120251188278C07800028018F6
:104E4000000440180C90FFE70AA80021017008A890
:104E50000122027007A8017009A802210170FFE772
:104E600009A80078022800D00EE3FCF701FA002818
:104E700016D1FFE70AA80078102805DCFFE70A989A
:104E8000401C0AA9087003E00AA800210170FFE78E
:104E900008A80121017007A80170FCF781F8FFE75D
:104EA0000AA80078112800D91DE1400078448088C4
:104EB0004000874411001D002900350041004D00CD
:104EC0005900650071008D00A300C100CD00D9001C
:104ED000E500F000FB000A010CA8801D08A9019163
:104EE00007A90091022101220023FCF705F9FAE04D
:104EF0000CA8801D08A9019107A900910121092290
:104F00000023FCF7F9F8EEE00CA8801D08A9019138
:104F100007A90091092200210B46FCF7EDF8E2E019
:104F20000CA8401D08A9019107A9009101210023A7
:104F30000A46FCF7E1F8D6E00CA8401D08A901914B
:104F400007A90091092200210B46FCF7D5F8CAE019
:104F50000CA8001D08A9019107A9009101210322B5
:104F60000023FCF7C9F8BEE00CA8001D08A90191B8
:104F700007A90091092200210B46FCF7BDF8B2E019
:104F80000CA8C01C08A9019107A9009100210722C3
:104F90000123FCF7B1F8A6E00CA8083008A901919C
:104FA00007A90091012200210B46FCF7A5F89AE021
:104FB0001BA1000888B70008F7A90008949C000806
:104FC0009CB7000898B700087DB70008088700085C
:104FD0000CA8007A002805D1FFE70A98401C0AA90E
:104FE0000870FFE70CA8C01D08A9019107A900914E
:104FF000012200210B46FCF77FF874E00CA8007A30
:1050000000280CD1FFE70CA8801C08A9019107A972
:105010000091012102220023FCF76EF80BE00CA89E
:10502000801C08A9019107A90091012100230A46CB
:10503000FCF762F8FFE756E00CA8801C08A9019174
:1050400007A90091092200210B46FCF755F84AE018
:105050000CA8401C08A9019107A900910121052273
:105060000023FCF749F83EE00CA8401C08A9019178
:1050700007A90091092200210B46FCF73DF832E018
:1050800008A8019007A800900CA801210522002380
:10509000FCF732F827E008A8019007A800900CA8B8
:1050A000092200210B46FCF727F81CE0FCF704F965
:1050B000002809D1FFE709A80121017007A80021F4
:1050C000017008A80170FFE70DE0FCF7F5F8002873
:1050D00008D1FFE709A80021017007A8017008A8FE
:1050E0000170FFE7FFE708A80078002800D1B4E1CD
:1050F000FCF79AFB002800D0AEE108A8002101705F
:105100000AA80078102805D0FFE70AA8007811281F
:1051100014D1FFE7E04E019600240094E24BC52035
:10512000012529462246FCF71CFD01960094DF4B21
:10513000FD2029462246FCF714FD1BE0D64E0196C1
:1051400000240094D54BC520012529462246FCF7B2
:1051500008FD01960094D24BCD2029462246FCF74B
:1051600000FD01960094CF4BFD2029462246FCF716
:10517000F8FCFFE70CADAB7968792979EA780292FF
:1051800001910090CA4CCB4A01200102204601F057
:10519000F9FFC9480190C948009007200421052261
:1051A0002346FCF7DEFC287A002807D0FFE7C0483A
:1051B000C44A0121090201F0E5FF06E0BC48C04AEB
:1051C0000121090201F0DEFFFFE7BB480190BB4867
:1051D0000090B74B052008210022FCF7C2FC0CA868
:1051E000007A002814D0FFE70CA8C079002807D067
:1051F000FFE7AF48B54A0121090201F0C3FF06E00D
:10520000AB48B14A0121090201F0BCFFFFE706E00B
:10521000A748A24A0121090201F0B4FFFFE7A6480E
:10522000019000240094A24D05260C2730463946F3
:1052300022462B46FCF795FC0CA883784178007831
:1052400001900091A24A01200102284601F09AFF34
:1052500099480190994800903A20394632462B46A9
:10526000FCF77FFC8C4E019600949A4BD3200D25C1
:1052700029462246FCF775FC01960094964B812046
:10528000400029462246FCF76CFC0AA8007800285A
:1052900010D4FFE70AA8007802280BDCFFE70AA871
:1052A000007811214143183105A8018006A8072183
:1052B0000170BEE00AA80078032810DBFFE70AA807
:1052C000007804280BDCFFE70AA80078112141438D
:1052D000353105A8018006A807210170A8E00AA8B9
:1052E0000078052810DBFFE70AA8007806280BDC09
:1052F000FFE70AA8007811214143523105A8018037
:1053000006A80721017092E00AA80078072810DBA0
:10531000FFE70AA8007807280BDCFFE70AA8007857
:10532000112141439D3105A8018006A80721017084
:105330007CE00AA8007808280CDBFFE70AA80078C0
:10534000082807DCFFE705A88421018006A80B21B7
:1053500001706AE00AA8007809280CDBFFE70AA8B8
:105360000078092807DCFFE705A81721018006A8B7
:105370000F21017058E00AA800780A2810DBFFE727
:105380000AA800780B280BDCFFE70AA80078112197
:105390004143703905A8018006A80F21017042E041
:1053A0000AA800780C2810DBFFE70AA800780D286F
:1053B0000BDCFFE70AA80078112141435F3905A8FB
:1053C000018006A80F2101702CE00AA800780E28A1
:1053D00010DBFFE70AA800780F280BDCFFE70AA81C
:1053E0000078112141434E3905A8018006A80F21FC
:1053F000017016E00AA80078102811DBFFE70AA860
:10540000007811280CDCFFE70AA800782F2141431F
:105410003248081805A9088006A80F210170FFE787
:10542000FFE7FFE7FFE7FFE7FFE7FFE7FFE7FFE74C
:10543000FFE70720FCF70BFA0B20FCF708FA0F2018
:10544000FCF705FA05A8008806A90978244AFCF7A4
:105450006CFBFCF7B7FEFFE7FFE707A80078002822
:1054600006D0FFE7FBF748FF07A800210170FFE720
:1054700009A80078012806D1FFE70CA800F01EFD5E
:1054800000F0D6FAFFE7EBE400F09AF9FBF79CFD99
:10549000FBF732FF0FB0F0BD949C00085EB300082C
:1054A00063B300087DB70008A3B70008E0B70008A1
:1054B0002C000020FEB400081BA100081187000882
:1054C000C5B70008AAB7000868B700086FB700089A
:1054D0001BB5000881B7000876B70008EDFDFFFF97
:1054E000E9A900087047000081B0684605210170F5
:1054F00000781F210840012181400248016001B06D
:105500007047C04600E100E070B582B001A80521F7
:10551000017000210091007840B200281BD5FFE700
:1055200001AC23780F200340083B0321C9430B4003
:10553000164A9B58247864B2A507ED0EFF26AE40AC
:10554000B343009EB601F6B2AE4033430440083C7C
:105550000C40A35016E001AB187842B20320C043C0
:105560000240094952581B785BB29C07E40EFF25A4
:10557000A540AA43009DAD01EDB2A5402A430340DA
:105580005A50FFE702B070BD00E400E01CED00E0FF
:10559000BFF34F8F084809490160BFF34F8FFFE702
:1055A00000BFFDE7BFF34F8F034804490160BFF31D
:1055B0004F8FFFE700BFFDE70CED00E00400FA05A8
:1055C00080B586B00590049105990A6A0120C04310
:1055D00002400A620599096A029105994968019198
:1055E00005998969039103990322914303910399D2
:1055F00070229143049A1268114303910299022286
:105600009143049AD268114302910299014004988F
:1056100040680143029101980599486003980599F3
:105620008861059804998968FEF772FD02980599CA
:10563000086206B080BD80B586B0059004910599DA
:105640000A6A1020C04302400A620599096A029161
:105650000599496801910599896903910399032284
:105660001202914303910399072212039143049A72
:105670001268120211430391029920229143049A65
:10568000D2681201114302910299014004984068C6
:10569000000101430291019805994860039805991A
:1056A0008861059804998968FEF73AFD0298059982
:1056B000086206B080BD000080B586B005900491F8
:1056C00005990A6A1B4802400A620599096A029113
:1056D0000599496801910599C969039103990322C4
:1056E00091430391039970229143049A12681143E4
:1056F00003910299012252029143049AD268120244
:10570000114302910299014004984068000201434C
:10571000029101980599486003980599C861059818
:1057200004998968FEF704FD02980599086206B09D
:1057300080BDC046FFFEFFFF80B586B00590049196
:1057400005990A6A1C4802400A620599096A029191
:105750000599496801910599C96903910399032243
:105760001202914303910399072212039143049A71
:1057700012681202114303910299012252039143CC
:10578000049AD268120311430291029901400498CD
:10579000406800030143029101980599486003980D
:1057A0000599C861059804998968FEF7D3FC0298A9
:1057B0000599086206B080BDFFEFFFFF704700004B
:1057C00010B5FEF7EDFA002803D0FFE7FEF760FA08
:1057D000FFE70520040710212046FDF79DFC082166
:1057E0002046FDF799FC40212046FDF795FC3C48FA
:1057F0000421FDF7E3FC10BDB0B5FDF7F7FE00286E
:1058000003D0FFE7FDF7FAFDFFE735482021FDF75C
:1058100083FC05200407012529032046FDF77CFCB5
:10582000E9022046FDF7CAFCB0BDC04680B5FBF7D3
:10583000E3F9FBF7C9FAFBF74DFA80BD80B5FBF73A
:10584000C0FD80BD10B526480421FDF765FC05208C
:10585000040740212046FDF7B1FC08212046FDF752
:10586000ADFC10212046FDF7A9FC6420FBF710FEDB
:10587000FEF796FA002803D1FFE7FEF713FAFFE7D9
:1058800010BDC046F0B581B0052005070124E10236
:105890002846FDF741FC12482021FDF78FFC260326
:1058A00028463146FDF78AFC14273846FBF7F0FD01
:1058B00028463146FDF730FC3846FBF7E9FD28461F
:1058C0003146FDF77BFC2046FEF786FDFDF78EFE98
:1058D000002803D1FFE7FDF7E9FDFFE701B0F0BDC8
:1058E0000004005010B582B00190019CFEF748F80A
:1058F000C0B200090249085CC440204602B010BD95
:10590000B9AC000810B582B00190019CFEF73EF8DA
:10591000000A0A49085CC440204602B010BDC046D7
:1059200010B582B00190019CFEF736F8C00A034919
:10593000085CC440204602B010BDC046C9AC000897
:1059400080B582B0FEF734F80C2826D87844007968
:1059500040008744062222220F2222221B222222DA
:105960001E00FEF7F9F8400B401C01218140C803DE
:1059700001901BE0FEF7D8F8002803D0FFE723488A
:10598000019002E020480190FFE70FE01D480190E0
:105990000CE000F00FF8019008E0FEF7DDF8400B96
:1059A000401C01218140C8030190FFE7019802B02B
:1059B00080BDC046B0B582B0FEF7DCF8009000981C
:1059C00000280CD1FFE7FEF7AFF8002803D0FFE76F
:1059D0000E48019002E00C480190FFE702E0094800
:1059E0000190FFE7019DFEF7CBF8800C08490C5CA5
:1059F0006C43FEF7B9F8800D411C2046FAF778FB9E
:105A000002B0B0BD00127A000024F40000093D008D
:105A1000A9AC000880B50F200121002200F0A0F9F8
:105A200080BD80B50F200221002200F099F980BDD1
:105A300080B50F208021002200F092F980BD80B552
:105A4000022000F0BFFA80BD80B5802000F0BAFAD5
:105A500080BD10B584B0029002980090009800F0CC
:105A6000D6F9002818D0FFE701A800210170FFE750
:105A700001A8007808280BD8FFE7009801A9097849
:105A800000224254FFE70198401C01A90870EFE78B
:105A900003A8012101707FE001A800210170FFE748
:105AA00001A8007806286BD8FFE701A80078022833
:105AB00031D1FFE7009801A90978405C4006002831
:105AC0001BD5FFE7029801210172009801A909780E
:105AD000405C8006002804D5FFE702980121C171CF
