:020000040800F2
:1000000050040020D5000008891100081D0B0008CD
:1000100000000000000000000000000000000000E0
:10002000000000000000000000000000A91300080C
:100030000000000000000000A9110008AB13000838
:10004000E7000008E7000008E7000008E7000008F4
:10005000E7000008090B0008E7000008E7000008B7
:1000600000000000E7000008E7000008E7000008C3
:10007000E7000008E700000800000000E7000008B3
:1000800000000000E7000008000000000000000081
:10009000E700000800000000E7000008E700000893
:1000A000E7000008E7000008E7000008E700000894
:1000B000E7000008E7000008000000000000000062
:1000C0000348854600F0ECF900480047711B000822
:1000D000500400200448804704480047FEE7FEE73C
:1000E000FEE7FEE7FEE7FEE7AD130008C1000008EB
:1000F00030B50B46014600202022012409E00D46C0
:10010000D5409D4205D31D469540491B2546954047
:1001100040191546521E002DF1DC30BDF0B51FB45C
:100120000646002082B005464024019100901BE065
:10013000019922460F46304600F0D4F9049A059BF7
:10014000801A994110D310461946224600F0BAF998
:10015000361A8F410197224601200021009F00F0AE
:10016000B1F938184D4100902046641E0028DFDCAC
:10017000019B00982946324607B0F0BDF0B507460E
:100180000846584087B0C00F049048000E465900FA
:1001900040084908BC1A884105D2384631461E46F7
:1001A00017460B4602465800400810434CD0300D0D
:1001B000039040055900400D490D0590401A0290EA
:1001C000402872DA18030121000B09050843019049
:1001D00004980092002805D00199524200208841DD
:1001E00000920190029840210A1A0199009800F0AB
:1001F00069F905460C466B4607CB00F084F9C01937
:100200007141039A0E0D0023D71756401A467A40C3
:10021000164344D0049A002A2DD0029A012A039A48
:1002200015DC1205C01A914101263605001C7141EA
:10023000D20F059ED2070093019202962A462346CA
:1002400000F081F907B0F0BD38463146FAE71605EF
:10025000224A0F46B218C01AB74101210905001CF5
:100260004F4100187F41114618187941E20F1043A1
:100270006D19644113E0E2076D0815436408C20775
:100280001443039A01261205C01A91413605001C39
:100290007141CE07400830434908C01851412A46F1
:1002A000234600F043F9CDE7FFE704980122400020
:1002B000C117121A00238B4104983146C417381A0B
:1002C000A141EEE730B40124E407634030BC55E7B8
:1002D00030B40124E407614030BC4FE70000E0FF88
:1002E000F0B51FB488B00B990998002448400999CB
:1002F000C00F490049080991C0070B9900904900B7
:1003000049080B9109990898A64608431CD00B99F7
:100310000A98084318D0099801244000420D48006B
:10032000410D099824050003000B204309900B9808
:100330000003000B20430B9050181C49401800226A
:1003400001901446104605E0002001460DB0F0BDB6
:10035000032801DA034600E003239C46C11A0AAED3
:100360000AE05F0008ADED5B4F00F75B7D430027BF
:10037000AA187C41491C5B1E6145F2DD410004ABBB
:100380005A522104120C0A43240C401C0828DFDBBB
:10039000019802900099704601910090059B049A83
:1003A0000799069800F0CFF8D0E700000DFCFFFF9A
:1003B000F0B50C465C4085B0E40FE40703944C00B4
:1003C00000266408590094464908024602962243D2
:1003D00021D062460A431ED06200570D4A000E0328
:1003E0002303550D012402462C492405781B1B0BC1
:1003F000360B401823432643614600901C46501A92
:10040000B44103D30098401C009002E09218009879
:100410005B41002803DA0020014605B0F0BD002052
:10042000012109050746864611E064461D46141B56
:10043000B54106D36546521BB341744607430C438E
:10044000A646CD0740084908284392185B41054657
:100450000D43EAD11046184313D060461946504068
:100460007140084306D06046101AB34106D20122FB
:10047000002306E000220123DB0702E00122D24331
:100480005310009874460105381C6141029C039D7D
:100490000019694100F04AF8BFE70000FD030000C1
:1004A000064C0125064E05E0E36807CC2B430C3CC7
:1004B00098471034B442F7D3FFF706FE783E0008A1
:1004C000883E000810B5202A04DB0146203A9140FE
:1004D000002010BD914020239C1A0346E34019439D
:1004E000904010BD10B5202A04DB0846203AD040C9
:1004F000002110BD0B46D340D0402024A21A9140C9
:100500000843194610BD10B5202A06DBCB17084654
:10051000203A1041C1170B4306E00B461341D0406F
:100520002024A21A91400843194610BD10B5002B93
:1005300008DA0024401C614192185B411A4301D142
:100540004008400010BDF0B51FB482B005460C0055
:1005500003D0084601F024FF02E001F021FF203023
:100560000246009021462846FFF7ACFF049B059AFF
:1005700004460F4618431143084314D0184610434D
:100580001BD0009840210A1A18460599FFF7AAFFC8
:1005900005460E46009A05990498FFF793FF084315
:1005A00005D0012004E02046394607B0F0BD002008
:1005B000C11705430E432C43374300990E9863053A
:1005C000401A7905E40A00220C43FD0A0A3002D5DC
:1005D00000200146E9E70105101969410C9C0D9DB9
:1005E00000196941FFF7A2FFDFE7F8B502464A406C
:1005F000D40F42004B0052085B089A4202D20246D6
:10060000084611464A0023D0C30D4A00DDB2120E3F
:10061000AD1A202D35DA49020126490AF6058A1954
:10062000002C00D0524220214F1B1146B9402A41D4
:100630001018C20D9A4221D0002C17D0012D08DCD1
:10064000DA05801AD20F8019D207DBB200F0E1F888
:10065000F8BDDA05801A012340001B06C018801877
:100660005A428018CA0F1043490007E04908C207E0
:100670001143DA05801A80194008801800F0C1F88B
:10068000F8BD61000122511A001BF7E70122D207D1
:100690005140AAE70122D2075040A6E7024670B5B2
:1006A0004A40D30FDB0740002DD04A002AD0010E6C
:1006B000140E000212020919400A520A8418E501B8
:1006C00004465443000A120A2E045043A419421946
:1006D000200CC543AA18120C0125AD03521C521957
:1006E00012047F39240400D0521C104301D440006E
:1006F000491EC2B20C06C0092018401C4008802ABE
:1007000002D003E0002070BD40084000002900DA5C
:100710000020184370BD0122D207002800DB101A08
:10072000002900DB511A814201D9012070470020C5
:100730007047C217C10F504010B54018CA07962322
:10074000002100F066F810BD0EB5C217C10F504071
:10075000CA0740180021054B0293019200910A46F6
:100760000B46FFF7F0FE03B000BD000033040000AD
:10077000C20F410040020123400ADB05D207090EE7
:10078000C0187F2901DA00207047962903DC9623E0
:10079000591AC84001E096398840002AF4D04042F6
:1007A0007047C20FD207400040080BD0C10D07238D
:1007B000DB01C91840020905400A1143C20840077D
:1007C00011437047002001467047CB0FDB074900FB
:1007D00010B5490802460A4307D00A0D0724090349
:1007E000E401090B121B002A01DC002010BDC90026
:1007F000440F0C43C100E018D205801800F001F846
:1008000010BD002904DA401C490001D14008400015
:10081000704770B40024050C05D11024000402D1E7
:10082000002921D01124050E01D100020834050F42
:1008300001D10001241D850F01D18000A41C0028D6
:1008400001DB4000641C002908D020252E1B0D462A
:10085000F540A14000D001212943084301061B1B9C
:10086000000ADB1D02D5002070BC7047DB0518189C
:1008700080180029F8DA401C4900F5D170BC400806
:100880004000704781B068461421018068460188A5
:100890000088002903D0401E69460880F6E701B0B1
:1008A00070470000FEB518A000F034FE002421A51A
:1008B000122C25D8E0B200F0EFFC064600200828F4
:1008C0000AD031468140090601D5312100E03021AE
:1008D0006A461154401CF2E76F460020387214A09B
:1008E00000F008FE384600F005FE092138462A4689
:1008F000334601F039FD384600F00CFE641CD7E7A2
:1009000006A000F007FEFEBD3D3D204453333233C8
:100910003120524547203D3D000000003D3D3D3D1A
:100920003D3D3D3D3D3D3D3D3D3D3D3D00000000EB
:10093000200000002030782530325800FEB5484CA9
:100940000022494D4A4828180090464F2078002838
:1009500000D184E0010619D46E1C20287BD024210C
:100960004143481943494118009B994273D8019467
:100970003E49441890B20C21154600F095F8242108
:100980002046019C00F078F82A4663E0029200229B
:1009900011467E1C052A59D0034693401B0602D5FA
:1009A000521C491CF5E77F22114004290AD0032973
:1009B0001BD002294AD16178002947D0641CC006A7
:1009C000420D1EE06278002A40D0A378002B3DD073
:1009D000E17800293AD0E41C4007C00A9206920B45
:1009E00010189A06120D82180BE06278002A2DD09A
:1009F000A17800292AD0A41C0007000C9206120D31
:100A000012183F200840104323D001943A46443A3C
:100A10001E21491E1CD014464B344823D35C1B04B2
:100A20004925555D2D02EB184A25525D9A188242E0
:100A30002246EED1029DA8B2182100F035F84821D7
:100A4000204600F019F82A46019C03E0029A02E0D1
:100A5000019C029A044D30781218641C76E7FEBDA2
:100A60006E3E0008B23500087628000860FBFFFFE4
:100A70003C0D000084FBFFFFF8B50C460546242022
:100A800000F0CCFF074E082030604027376100F0AF
:100A90009DFF2846214601F037FC00F097FF3760A4
:100AA000F8BDC04618000050FEB50191064644202E
:100AB000134CA04700200290124DA8470220A847DF
:100AC0004520A047FF202830841BE6B23046A847C7
:100AD000E005C70F3846A8470198201A441CE0B229
:100AE000A847E005C00FA8474E20054CA047029834
:100AF000A8474F20A0473046A8473846A847FEBD24
:100B00001D1A0008411A000803480168C90701D0EE
:100B1000012101607047C0461404014004A4084D3F
:100B2000204600F0F7FC284600F046F9F8E7C046FA
:100B3000494E2048415244204641554C5421000022
:100B4000E7030000E0B5A4480168019101996A4AF1
:100B50006A49002A07D00B685B0708D40368DB03E7
:100B6000DB179A18F5E700F07FFF002000E0C86867
:100B7000C0B28CBDFEB50191504B5C6924045E4D42
:100B8000954E12D400920121CF021C68BC431C6018
:100B9000324A541C1F682740381818601868019F93
:100BA000002F10D08A0210430EE034680294029C99
:100BB0002C46002C46D05F69FF07E3D13768FF035E
:100BC000FF173C19F5E710400C46186008061A6834
:100BD00082431A60FF2000041A68824300980004D0
:100BE0001018186048061A6882431A6048031A6889
:100BF00002431A60306802900298002F1BD0002D2B
:100C00001BD05869400723D43068C003C01745196A
:100C10005869C006F3D598691021014399610324EE
:100C200019E05869C00713D13068C003C0174519CF
:100C30005869C006EFD4002DF3D100F015FF00284D
:100C400004D108E000F010FF002803D0022402E0E5
:100C5000002400E001242046FEBDC046FFFBFFFF4C
:100C60001CB55D480168019101992349134A0B465F
:100C7000002B19D05469E40704D10468E403E41795
:100C8000E318F5E701239B0314681C431460036811
:100C90000193019B002907D053691B040CD50368FD
:100CA000DB03DB175918F5E700F0DEFE002801D062
:100CB00002201CBD01201CBD00201CBD04540040AE
:100CC0001CB545490A680192019A0B4B0B4A002B4F
:100CD00007D01468E4070AD10C68E403E417E318AA
:100CE000F5E700F0C1FE002804D002201CBD106111
:100CF00000201CBD01201CBDB80B00001854004092
:100D0000FCB5002200910C682346D34046D0012553
:100D10009540254040D04E68731E022B01922B4611
:100D200012D26B438A685A4303275F438168B943F1
:100D3000114381600099C96861434268A2430A4334
:100D40004260FC43009903E06B4303245C43E443AB
:100D50000F695F43C26822403A43C260022E15D138
:100D60002E0A01D0242200E020224F698558002E4F
:100D700002D07643764301E01E465E430F21714365
:100D80008D4377432F43875000994E687343026821
:100D900022401A430260019A521CB4E7FCBD0000D5
:100DA00081B0F3490A6802430A6009680140009172
:100DB000009801B07047C04681B007490A680092A8
:100DC000009A401C002804D00A68D203D2171018D9
:100DD000F8E701B07047C04610E000E0B0B501226E
:100DE00013029948416899434160046804210C4307
:100DF0000460046808252543056044681C4344607A
:100E00005202036813430360026802231343036022
:100E1000024802680A43026030BFB0BD10ED00E036
:100E200086B06D48007801281FD003280BD0022817
:100E300000D09DE0802000F08BFA002800D197E0E0
:100E400000F047FA94E0022000F082FA002800D077
:100E50008AE00920FFF7B0FF604C2068000400D54D
:100E600086E00020FFF7A8FFF7E75D4C2068000749
:100E70007ED42068C0067BD40920FFF79DFF206840
:100E8000000775D42068C00672D4564C252156A29E
:100E90005B4D2046A84726215AA22046A8475DA0C0
:100EA00001A90A46E8C8E8C200781070112000F0D5
:100EB00058FA00F00EFA29215BA22046504DA847AF
:100EC0002A215DA22046A84701275F480168C9057D
:100ED00003D4390202680A430260F9045B4A1368CA
:100EE0000B43136013688B431360026858490A4030
:100EF0000260E93157480A1D03D0095800291146FC
:100F0000F9D0384C2C2154A2204600F0E3FC2D21CE
:100F100055A2204600F0DEFC00F068FD00284FD10D
:100F2000554C2068C00703D05448A0605448A060C6
:100F3000212001012068084320600025514A3E46D7
:100F4000F802854231D02F461743002038600091C7
:100F500000F04CFD4B4A0099002826D13868002843
:100F600023D12D1D3746EAE70F20022100F074F946
:100F700000F044FA012000F04FFA002000F04CFA93
:100F800000F0D2FAFFF78EFC474CA621474A2046D4
:100F900000F0A0FCFFF722FFFFF7D0FCAC21444A91
:100FA000204600F097FC00F0F1F8206888432060AC
:100FB00000F01CFD002803D1206830432060206829
:100FC000084C2F2130A2204600F084FC302133A2AF
:100FD000204600F07FFCCBE74F00002010000050BF
:100FE00010040050653E0008424547494E205245D6
:100FF00053455420414C4C204441544100000000D2
:10100000D51800085254432072657365742E2E2E35
:1010100000000000000000000000000000000000D0
:1010200000001C8B00000000525443207265736561
:101030007420646F6E650000424B505220726573DD
:1010400065742E2E2E0000000070004050100240EB
:10105000FFFEFFFF68280040424B5052207265732C
:10106000657420646F6E6500454550524F4D207287
:10107000657365742E2E2E0004200240EFCDAB89DF
:101080000504030200000808454550524F4D2072E8
:101090006573657420646F6E65000000416C6C20A0
:1010A000646F6E6500000000603E0008353E000879
:1010B0004B3E0008F0B587B02D4908680224204354
:1010C0000860086820400690012705970497039759
:1010D00003260296019440200090069825486D460C
:1010E0002946FFF70DFE0597049701A8D0C0802080
:1010F000009020482946FFF703FE78051C4AD16876
:101100000143D160D16801400691069879061A48DA
:1011100042680A434260C26818490A40C260FA0441
:101120000368934303607A0403689343036002688F
:10113000BA4302601F221202036893430360104AFD
:10114000026102683A43026082680A4082608268F3
:101150000C4B1A4082603205046894430460426874
:101160000A404260591CC2680A40C26007B0F0BD24
:101170002C1002400004005000540040FF7FFFFF8D
:101180000B02100000F8FFFF70470000BFF34F8F05
:10119000034804490160BFF34F8F00BFFDE7C0461D
:1011A0000CED00E00400FA057047000080B5184916
:1011B000C8680007820F17487A4412795200974492
:1011C0000108250D0120000449680904490F8840E1
:1011D00080BD0868C00609D5104880BDCA68D20322
:1011E00007D40868C00603D50C4802E00A4880BD51
:1011F0000948CA689202120F09A39A5C4243C86860
:101200000002800F411C1046FEF772FF80BDC046F1
:101210000010024000127A000024F40000093D0092
:10122000030406080C1018203000000010B511202F
:1012300000F032F88400122000F02EF88009201807
:10124000FFF782FA0022034BFFF74AF8FFF7BDFAD7
:1012500010BDC0460000D03FF8B50091064600F032
:101260001BF80746D020002402222146FFF782FC0B
:10127000012500280ED13046FFF722FD002809D1B4
:1012800000998F433846FFF71BFD002802D1FFF776
:10129000E7FC25462846F8BDB0B50546D020002419
:1012A00001222146FFF766FC002810D12846FFF7EF
:1012B00007FD00280BD1D02001210A46FFF75AFC78
:1012C000002804D1FFF73EFC0446FFF7C9FC204686
:1012D000B0BD7CB56846142181710A21417101219C
:1012E00001710521C1700025857045700570062DBE
:1012F00002D0072D0BD119E068468079642806D307
:101300006438694688714879802202434A716E4682
:10131000745D0A212046FEF7EBFE0921C9434143D3
:1013200061180001084370556D1CE0E7072069460D
:1013300000F017F8002800D07CBD0E208021FFF7B8
:101340008BFF0028F8D10F208021FFF785FF7CBD9F
:1013500010B504460F20FFF79FFF2040411E884133
:1013600010BDF8B50C460546401CC2B2D020002185
:10137000FFF700FC0127002814D100263046FFF7B4
:101380009FFC00280ED106E02078FFF799FC6D1E27
:10139000641C002803D1002DF6D1374600E0012758
:1013A000FFF75EFC3846F8BD704770470120020227
:1013B0000E490B6813430B60CA680D4B1340CB609A
:1013C0000A680C4B13400B608A6882438A6082046F
:1013D0000B6893430B60FD221204CB689343CB60F0
:1013E00000220A61C00604490860704700100240EC
:1013F0000C40FF88F6FFF6FE08ED00E080B50548DA
:1014000000F049F8002800D080BD0120FFF7D4FC8F
:1014100080BDC0464130000080B501460648002925
:1014200000D0C01D00F037F8002800D080BD01209A
:10143000FFF7C2FC80BDC04666300000F8B5144618
:101440000D460746882000210222FFF793FB012664
:1014500000281ED1380AFFF733FC002819D1F8B252
:10146000FFF72EFC002814D18820012631462246A1
:10147000FFF780FB00280CD104E0FFF763FB287026
:10148000641E6D1C002CF8D1FFF7EAFB0646401ED7
:1014900086413046F8BDB0B50546882000210222BD
:1014A000FFF768FB012400280ED1280AFFF708FC8B
:1014B000002809D1E8B2FFF703FC002804D1FFF7A8
:1014C000CFFB0446401E84412046B0BD084A002997
:1014D00009D013681B06FCD5402353600378D36002
:1014E000491E401CF3E710684006FCD57047C04613
:1014F0001C38014080B500210246C9B21378002B88
:1015000004D0FF2902D0491C521CF6E7FFF7DEFF8A
:1015100080BD000080B5FFF7EDFF02A00221FFF7BC
:10152000D5FF80BD0D0A0000F0B593B0D020002794
:10153000012239460F92FFF71DFB00280ED100262D
:101540003046FFF7BDFB002808D1D0200125072237
:101550002946FFF70FFB002800D119E1B548092FF4
:1015600004D0C11900224A727F1CF8E7007B089062
:10157000B04EF07B0E90B07B0A90707B0990F07AB1
:101580000D90B07A0C90707A0B90AB4CA04705464A
:10159000A0470746A047FFF7EBF8FFF7CAF8014658
:1015A0003846FFF773F8A549FFF778F8FFF7E0F83A
:1015B00007462846FFF7DCF80899C9B20A9A009254
:1015C000099A019202910D9903910C9904910B993A
:1015D0000591069007973746344612343D2198A26C
:1015E00020460E9B00F0C0FE0E942046FFF792FFAF
:1015F0009F4810A906263246FFF720FF002800D09A
:1016000085E010AC204600F0B9F9A17802228842AA
:101610000F927CD110ACE01C00F0B0F961798842E7
:1016200075D110AD2879E97809020818FFF78CF810
:101630000024904B2246FEF7BBFE8F4B2246FEF75E
:101640004FFEFFF7C2F807462146FFF764F80F90F8
:101650003846FFF7A6F802460B46884988480F9F90
:10166000002F00D101468748FEF788FDFFF7ADF84F
:101670000D90FFF77DF801466E480C9101702888A7
:10168000000400BAFFF760F822467A4BFEF790FE9E
:101690007D4B2246FEF724FE7C4B2246FEF76EFD74
:1016A000FFF793F807460F942146FFF734F80446F6
:1016B0003846FFF776F802460B46002C6F4900D1FA
:1016C0006F497048FEF75AFDFFF77FF80546FFF7B0
:1016D0004FF80746574CA0710C98FFF72AF80146BF
:1016E0000D98FEF7D3FF5549FEF7D8FFFFF740F8F6
:1016F00020713846FFF71DF801462846FEF7C6FF61
:101700004E49FEF7CBFFFFF733F820722746BD574F
:10171000387A0D903E793C785D4812A90322FFF794
:101720008DFE64B2002802D0FE200F9B1FE00C96B5
:1017300012AE304600F022F9B178884214D112A8D6
:1017400001784278002353A61846072B0DD0F75C8A
:10175000032B02D80F4202D104E0174202D04027E7
:10176000DF4038435B1CF0E7FF200F9B0C9E0D9978
:10177000C0B2009501AA52C204903D2147A20E9C1E
:10178000204600F0F1FD2046FFF7C4FE13B0F0BD87
:101790000924284F102C04D0FFF7D4F93855641CC5
:1017A000F8E7FFF75DFA062E3BD8022E18D0052E7B
:1017B0001FD1B91909200856002826D50F22C306C3
:1017C0001040DB0F0A24634318184872F87B02406C
:1017D000000960431018643039460F3106261DE0B9
:1017E000B919487A400607D4002038824A7A3F2047
:1017F00009E0B819407A08E03D74487A8006C00FC5
:1018000078744A7A1F20104048720F210140C0B2FC
:1018100000090A2242435018B91909310870761C90
:10182000C1E7387B0C300721FEF762FC481C0890AA
:1018300038739DE6000000202D1200080000C84209
:101840005254433A203225303364202564202564E5
:1018500020256420253032643A253032643A253020
:10186000326420543A253032642E25303264000030
:10187000062C0000E0FFEF4000005940E17A743F81
:10188000E17A74BF7B14AE4700E06540008046C03B
:101890002DF3000080200804100201005448203A73
:1018A000434F4E563A30782530325820543A25303E
:1018B00032642E2530326420483A253032642E2599
:1018C000303264205354415455533A3078253032E5
:1018D00058000000FEB514460D4606460EA0124FF5
:1018E000B84712A0B84714A0B84718A0B847304668
:1018F000B84719A0B8476E460B211AA230462B46AE
:1019000000F032FD3046B84717A0B8472046B84728
:1019100018A0B847FEBDC0460D0A2A2A44454255C4
:1019200047205052494E5400F51400080D0A46490C
:101930004C4520203A2000002E2E2F5372632F5545
:101940005345522F66756E632E6300000D0A46558F
:101950004E4320203A2000000D0A4C494E452020DD
:101960003A200000256400000D0A494E464F202011
:101970003A2000000D0A0D0A0000000010B5FF22F9
:101980000021012911D8037853400022072A08D8E2
:10199000DCB264001B0601D531235C402346521C97
:1019A000F4E7491C401C1A46EBE7D0B210BD81B0E9
:1019B000684664210180684601880088002903D0B8
:1019C000401E69460880F6E701B0704781B068465E
:1019D00001210180684601880088002903D0401E4B
:1019E00069460880F6E701B07047000081B05E48A4
:1019F0000168009100996421074A002907D0136803
:101A0000DB0706D00368DB03DB175918F5E7012075
:101A100000E0002001B07047182002407CB5114D55
:101A20000821296101AC207040262E61FFF7CEFF0E
:101A30000121204600F068FCFFF7C8FF2E607CBD46
:101A40007CB5084D0821296001AC207040262E612C
:101A5000FFF7BCFF0121204600F056FCFFF7B6FF60
:101A60002E607CBD18000050F0B587B0394D296854
:101A700028680126B0432860314003910B20401EA6
:101A800002D02968C907FAD1700533490A680243B0
:101A90000A600A6882430A60304F3868304908405B
:101AA000B203801838607868802318437860F8683B
:101AB00008408018F86038682A49084032038018C6
:101AC00038607868402420437860F86808408018BF
:101AD000F8600293BB61BC61FFF769FF00200590CD
:101AE000C04304903869000624D401961E4800685B
:101AF000069006981D4D002D0ED01B480668BC624E
:101B0000FFF755FFBC61F003C0174519FFF74FFF02
:101B100038690006EFD501E005980490029DBD628A
:101B200000242046FFF748F9BD612046FFF744F93D
:101B3000084D019EFFF7BEFA0398002802D02868DE
:101B4000304328600598C0430499081A411E884113
:101B500007B0F0BD005400402810024000040050BF
:101B6000FF3FFFFFFFCFFFFF10E000E0B80B0000DA
:101B70009CB0104A506B012630435063506B30408C
:101B8000159015983107906B08439063906B039103
:101B9000084015901598084B98692021109108432A
:101BA00010210B918843986104480168B14301609A
:101BB00006E0C0460010024008000140002002403C
:101BC0000168C907FCD10324E002054B1968814371
:101BD000F0020D900818186010683043106001E0A2
:101BE0000070004010684007FCD51F2000025168BB
:101BF000814330030C9008185060D068802109910F
:101C00000843702104918843D06007231802D168EB
:101C10008143D1600893D802D1688143D160D068F4
:101C20003043022112918843D060D0680C210140DA
:101C30000429FAD1FB48FA4941600025856005274F
:101C40000760E1430791D06C0840D064D06CFB4939
:101C50000840D0641A951995189517950420119489
:101C600004460F90F64988473046F5498847F449BD
:101C70001298884705973A07139208200E909062B1
:101C80000B9890624020019090620C989062ED4910
:101C90001098886230020A9088628C6190610D9879
:101CA00090611995119F1697B00302901590E64820
:101CB000149615AEE54C3146A04719951697149821
:101CC000C00306901590E0483146A047224619957A
:101CD00018951797149816900E981590139C2046F7
:101CE00031461746904719951895179514981690F0
:101CF0000B98159020463146B8473A4619951895E5
:101D0000119F179714981690019815902046314608
:101D1000144690471995169712981590C94F384652
:101D20003146A047199518951795149816900F9855
:101D3000159038463146A04719951895179514986F
:101D400016900A981590139F38463146A04719956A
:101D500018951795149816900D9815903846314699
:101D6000A047199518951795149816900C981590EA
:101D700038463146A047199516950698159038466D
:101D80003146A047199516950E981590AD4F3846D7
:101D90003146A047199516950B981590384631464F
:101DA000A0471995189517951498169010981590A6
:101DB00038463146A04719951895179514981690EE
:101DC0000A98159038463146149EA047A04A1068DC
:101DD00030430E2188431060F8683043129B9843CB
:101DE000F8603868079908403860F043994A5168AC
:101DF00001405160116831431160D1680140D160E8
:101E00009068304390609448BF3094490A6802401B
:101E10000A609348109901601A95199518951795BD
:101E20007102904A506B08435063506B0791084011
:101E30001B901B98D06A3043D062D06A30401B9010
:101E40001198169015931F461B9815A91398A04733
:101E5000FD48416A3A4639434162B104426A0A4345
:101E6000426281490A68814B1A40F40500941219B4
:101E70000A607204446A144344620A681A40B30553
:101E8000D2180A604268D20703D18268F64B134029
:101E900083600269089B1A430261C268B243C26050
:101EA0000F9AD24383681340836073060C689C4387
:101EB0000C6001681140016001680E9A9143016055
:101EC0004168EA4A0A4003990A434260B3074168FD
:101ED000C907119C08D18168E54A0A408260A107C0
:101EE000C2688A431A43C2600393FFF7E3F8D74AF4
:101EF000506B0C9908435063506B0840159015982F
:101F0000D06A3043D062D06A30401B901A95199540
:101F100018951794129F1697109815901B9815A94D
:101F200001912646139C2046FEF7EAFE1A95199564
:101F30001895179616970998159020460199FEF75F
:101F4000DFFECC4801684906CB4C0F9B07D40168E3
:101F5000C44A114021430160416899434160C1690D
:101F60000D9A9143C16141680B9A91434160B74A10
:101F7000506B029908435063506B084015901598B8
:101F8000D06A14990843D062D06A08401B901A9313
:101F9000199518951796129F1697079815901B98E4
:101FA00015A90B91139E3046FEF7AAFE0F981A90C2
:101FB00019951895119817901697F934159430467D
:101FC0000B99FEF79DFEAD4B1868C007AC4E9F4ABB
:101FD0006CD11868AB4901400C31196058689E49B2
:101FE0000840586030467030996801409960D06C64
:101FF0001199084009044018A34988420AD0A3490E
:10200000884211D0A2491C46884231D1FFF7CEF850
:1020100023463EE0106D8001069908403AE0C04634
:102020003F1F000010E000E0106840073ED5106838
:10203000C00600D405E198482EE0C046FFCFFFFF60
:10204000A10D00080004005000080050010D000818
:1020500008000140000401404000FFFF04E400E0EC
:1020600000E100E00010024008270140FFFF3FFFB1
:10207000FFF79CF87549C968744AD2689204520FF8
:1020800086A39A5C0906090F86A3595C2346C840BB
:10209000D0406E4A002809D0E1210A028018490286
:1020A0001C46FEF725F82346684AE0600920C00276
:1020B00059688143596098682A2188439860186854
:1020C000149C20431860906B20439063906B2040D9
:1020D00015901598039F386830403860F920F862F1
:1020E0000898B8627869204378610998C0433968D4
:1020F00001403960B9686F4A0A40BA60F9690E9ABE
:102100001143F961396A0A9A91433962396A7A68E6
:10211000FB697A6060221A4313239A43FA617C2296
:10212000FA6370360E4007990E433E62F9690F9BC1
:102130009943F9617968049A91437960B9680140DB
:10214000B9604248C06A20434049C8623F48C06AFB
:1021500020401B90129F1A9719951895179516975E
:1021600015931B9815A9139E3046FEF7C9FD5248DA
:102170005C2152A2FFF7AEFB344A394B186805992F
:1021800088431860324B9869302188439861106DFC
:10219000000114D4106D000E37D02E4908680E9B34
:1021A0001843086049480470106D00990843106591
:1021B000414866214FA2FFF78DFB284D10E02549CD
:1021C00008680E9B1843086040480770106D00991E
:1021D00008431065214D3848632142A2FFF77AFB7E
:1021E0000D98B0621098A8610C9DB561FEF74AFB8E
:1021F000B562FEF747FBB5610220FEF7DDFD414801
:10220000016821430160FEF70BFE124B5868196804
:102210000E9D294319608007C017119908402B496A
:102220000870116D009B194311650128C0D0032867
:102230000A4D02D00228CED0D2E71F48692124A23D
:10224000CCE7144828E7C0460424014000100240AF
:102250000800014000700040FFCFFFFF0004005065
:10226000000401404000FFFF3CC2FEFFE8FFFF6F9B
:10227000C73FFFFF00300140070300000038014066
:102280008FFCFFFFF369FFEF030003000200030070
:10229000010003000024F40000093D0000000000DC
:1022A000010203040000000000000000010203041A
:1022B00006070809F8BFFFFF693E00085359535449
:1022C000454D205245534554000000004F0000206A
:1022D00057616B6575702066726F6D207374616EE7
:1022E00064627900506F776572206F6E207265733B
:1022F000657400004E6F726D616C20726573657459
:102300000000000000540040BCB5154A536801931A
:10231000019B13680193019B124B1C680094009C65
:102320000C040FD0491E0A24002C17D01568AD07E5
:1023300004D41D68ED03ED172C19F5E7047814712A
:10234000401CEAE70A20002808D01168090604D5D5
:102350001968C903C9170818F5E71068BCBDC0465D
:102360000830014010E000E00FB47CB50C0009AD6E
:1023700001D0611E00E0002101910090074B6A46E8
:102380002946089800F032F8002C02D0009A00216B
:1023900011707CBC08BC04B018470000612800081C
:1023A0002021020C01D010211046020A01D0104653
:1023B0000839020901D01046091F820801D01046D1
:1023C000891E420801D0881E7047081A704702E033
:1023D00008C8121F08C1002AFAD1704770470020B0
:1023E00001E001C1121F002AFBD17047FFB591B077
:1023F0000F460546002606E025280AD0149A1399B0
:1024000090476D1C761C28780028F5D1304615B011
:10241000F0BD002400940121F34A029400E004433B
:102420006D1C2B780846203B98401042F7D1287845
:102430002A280ED0022128780246303A092A15D8D7
:10244000009A0A235A43303A80180C436D1C0090BE
:10245000F1E701CF0090002805DA01204003044392
:10246000009840420090022004436D1C28782E28DA
:1024700015D10420044368786D1C2A280AD101CFA5
:102480006D1C02900BE002990A225143303940182A
:102490006D1C02902878014630390929F3D9287833
:1024A0006C2810D006DC4C281AD068280ED06A2878
:1024B00017D104E0742813D07A2812D110E001203B
:1024C000400504430CE00121090501E00321090551
:1024D0000C436978814203D10120000524186D1C4A
:1024E0006D1C287803906E281ED00CDC632831D038
:1024F00004DC00288AD0582811D1B2E064287BD0AF
:1025000069280CD178E073282DD004DC6F2870D0B6
:10251000702804D1A7E075286CD078286BD0149A65
:1025200013999047761C62E06002400F022807D0A2
:1025300003280AD0042838680AD006603F1D56E0F8
:102540003868F11706604160F8E738680680F5E7FB
:102550000670F3E73878694608740020487404A8C8
:102560000390012003E0386803900020C0433F1D22
:1025700061070FD5002101E00199491C029A0191E0
:10258000914213DA8142F7DB019A0399895C0029B1
:10259000F2D10BE0002101E00199491C0191814237
:1025A000FADB019A0399895C0029F5D10199009819
:1025B000139A401A00902146149B00F03BF90199B0
:1025C0008019461807E0039803990078491C039185
:1025D000149A139990470198401E0190401CF2D123
:1025E0002146149B139A009800F014F986196D1C6B
:1025F00009E741E033E034E00A200021049005912E
:102600006002410F022905D001CFC2179446032969
:1026100005D007E0FF1DFF08FF0003CF06E000B272
:10262000C2179446042902D140B2C1178C46002239
:102630006146944506DA0A460021404291418C46A3
:102640002D2102E0210504D52B216A4611760121B6
:1026500003E0E10701D02021F7E7019154E00A20CF
:102660000BE0102009E01020049000210420044316
:1026700008200591029003E00820002105910490B4
:102680006002410F022905D001CF002294460329A0
:1026900006D006E0FF1DFF08FF0003CF8C4603E0D5
:1026A00080B2042900D1C0B20021019121072BD5AD
:1026B0000399702906D0049A1021059B4A401A43B9
:1026C00005D00EE040216A461176012108E06146FE
:1026D000014306D030216A461176039951760221D2
:1026E0000191049A0821059B4A401A430CD1614686
:1026F000014301D1610707D530216A4611760121D6
:1027000001910299491E02910399582904D037A1D9
:1027100003910FA90F910DE039A1F9E76146059BDF
:10272000049AFDF7FBFC039B8C469B5C0F9A521EA0
:102730000F92137061460143F0D10F9807A9081A50
:1027400020300390600704D50120000484430298E0
:1027500001E0012002900399884201DD401A00E067
:10276000002041180290019809180098401A009022
:10277000E00306D42146149B139A009800F05AF8FF
:1027800086190020049008E006A9085C149A1399A1
:1027900090470498401C761C049001998842F3DB12
:1027A000E0030CD52146149B139A009800F042F8E0
:1027B000861904E0149A302013999047761C0299E8
:1027C000481E02900029F5DC08E00F980F99007868
:1027D000491C0F91149A13999047761C0399481E2F
:1027E00003900029F1DCFBE6092801003031323387
:1027F000343536373839616263646566000000003D
:102800003031323334353637383941424344454626
:1028100000000000F8B5044600251E46174688044F
:1028200004D405E039462020B0476D1C641EF9D55C
:102830002846F8BDFFB50446002581B01E46C803F2
:1028400001D5302700E02027880404D505E038466C
:102850000399B0476D1C641EF9D5284605B0F0BD3C
:102860004A68002A06D00A68531C0B60107048683A
:10287000401E48607047210C185EFFFFFFFFFFFFFE
:10288000FFFFFFFFFFFFFFFFFFF011C7F001C7F0E1
:102890000FC7FFFFFFFFFFFFFFFFFFFFFFFFFFFF70
:1028A000FFFFFFFFFEFFFFF8FFFFF1FFFFC3FFFF8A
:1028B000C6FFFFC8FFFFF1FFFFC3FFFFC7FFFFCF4A
:1028C000FFFFFFFFFFFF3E7FFF3E07FF0007F00017
:1028D0007FF03E7FFF3E7FFF3E7FFF2007F0000737
:1028E000F01E7FFF3E7FFFFFFFFFFFFFFE3F1FFC4D
:1028F0001F0FF80F07F9C7B7E00001E00001F870FB
:1029000007F8780FFC7E1FFFFFFFFC1FFFF007FF9B
:10291000F3E7E7F3E707F0041FFC00FFFF801FFC6D
:102920001007F073E7F3F3E7FFF007FFFC1FFFFC6E
:102930001FFFF80FF81007F003E7F000F7F000377B
:10294000F01C07F82F0FFFE007FFE067FFEFF7FF2E
:10295000EFC7FFFFFFFFFFFFCEFFFFCCFFFFC1FF71
:10296000FFE3FFFFFFFFFFFFFFFFFFFFFFFFFFFF93
:10297000FFFFFFFFFFFFFFFFFFFFFFFFFFFFFFFF67
:10298000FFFFFFFFFFFF80FFFE003FF87F0FF1FF1B
:10299000C7E7FFF3CFFFF9DFFFFDFFFFFFDFFFFD1D
:1029A000CFFFF9E7FFF3F1FFC7F87F0FFE003FFF0E
:1029B00080FFFFFFFFFFFFFFFFFFFFFFFFFFFFFFA6
:1029C000FFFF99FFFF99FFFF99FFFFC3FFFFE3FFA1
:1029D000FC003FFC003FFEC3FFFFC3FFFF99FFFF6A
:1029E00099FFFFFFFFFFF7FFFFF7FFFFF7FFFFF77D
:1029F000FFFFF7FFFE003FFE003FFFF7FFFFF7FF7F
:102A0000FFF7FFFFF7FFFFFFFFFFFFFFFFFFCEFF17
:102A1000FFCCFFFFC1FFFFE3FFFFFFFFFFFFFFFF53
:102A2000FFFFFFFFFFFFFFFFFFFFFFFFFFFFF7FFBE
:102A3000FFF7FFFFF7FFFFF7FFFFF7FFFFF7FFFFCE
:102A4000F7FFFFF7FFFFF7FFFFF7FFFFF7FFFFFFBE
:102A5000FFFFFFFFFFFFC7FFFFC7FFFFC7FFFFC766
:102A6000FFFFFFFFFFFFFFFFFFFFFFFFFFFFFFFF76
:102A7000FFFFFFFFFFFFFFF9FFFFE1FFFF83FFFE07
:102A80000FFFF07FFFC1FFFF07FFF83FFFE0FFFFF1
:102A9000C3FFFFCFFFFFFFFFFFFF807FFE001FFC94
:102AA000000FF87F87F9FFE7FBFFF7F9FFE7F87FF3
:102AB00087FC000FFE001FFF807FFFFFFFFFFFFF6F
:102AC000FDFFF7FDFFF7FDFFF7FC0007F80007F833
:102AD0000007FFFFF7FFFFF7FFFFF7FFFFFFFFFF15
:102AE000FFFE3FE7FC3FC7F93F87FBFF37FBFC7763
:102AF000FBF8F7F9F1F7F803F7FC0787FE1F87FFEC
:102B0000FFFFFFFFFFFC7F8FFC7F8FF87F87FBF7C6
:102B1000F7FBF7F7F9E7F7F803E7FC0807FE180FEC
:102B2000FFFE1FFFFFFFFFFFFFFFFCFFFFF8FFFFA0
:102B3000E2FFFFC6FFFF1EF7FE3EF7F80007F800B2
:102B400007F80007FFFEF7FFFEF7FFFFFFFFFF1F7D
:102B5000F8030FF80327FBE7F7FBEFF7FBEFF7FBB3
:102B6000E7C7FBE007FBF00FFBF83FFFFFFFFFFFAE
:102B7000FFFFC07FFE001FFC000FFC73C7F9E7E7F3
:102B8000FBEFF7FBEFF7F8E7E7F8E00FFCF00FFFDC
:102B9000F83FFFFFFFFFFFFFFC7FFFF87FFFF9FF1C
:102BA000FFFBFF07FBF807FBE007FB07FFF81FFF32
:102BB000F8FFFFF9FFFFFFFFFFFE3E1FFC0C0FF8C1
:102BC000080FF9C1E7FBE7F7FBF3F7FBF3F7F9E1D0
:102BD000E7F80807FC0C0FFE3E1FFFFFFFFF07FF93
:102BE000FC03CFFC01C7F8F9C7FBFDF7FBFDF7FBC2
:102BF000F9E7F8F30FFC000FFE003FFF80FFFFFF37
:102C0000FFFFFFFFFFFFFFFFFFFFFFFFFFFFC7C744
:102C1000FFC7C7FFC7C7FFC7C7FFFFFFFFFFFFFF14
:102C2000FFFFFFFFFFFFFFFFFFFFFFFFFFFFFFFFB4
:102C3000FFFFCFE4FFCFE0FFCFE3FFFFFFFFFFFF8A
:102C4000FFFFFFFFFFFFFFFFFFFFFFFFFFF7FFFF9C
:102C5000E3FFFFC9FFFF9CFFFF3E7FFE7F3FFCFFBE
:102C60009FF9FFCFF3FFE7F7FFF7FFFFFFFFDDFF60
:102C7000FFDDFFFFDDFFFFDDFFFFDDFFFFDDFFFF0E
:102C8000DDFFFFDDFFFFDDFFFFDDFFFFDDFFFFFFFE
:102C9000FFFFFFFFF7FFF7F3FFE7F9FFCFFCFF9F11
:102CA000FE7F3FFF3E7FFF9CFFFFC9FFFFE3FFFF6B
:102CB000F7FFFFFFFFFFFFFFFE1FFFFC1FFFFD9F52
:102CC000FFF9FFC7FBF8C7FBF0C7FBE7C7F9E7FF52
:102CD000F80FFFFC0FFFFFFFFFFF80FFFC001FF856
:102CE000000FF8E087F30067F60077F60077F20050
:102CF00067F81E4FF8008FFE01BFFFFFF7FFFFC709
:102D0000FFFE07FFE037FE01F7F81DFFF87DFFF833
:102D100005FFFF0077FFF007FFFE07FFFFE7FFFF5C
:102D2000FFFBFFF7F80007F80007F80007FBF7F7CD
:102D3000FBF7F7F9E7F7F803E7FC0807FC180FFFC4
:102D4000FE1FFFFFFFFFC07FFE001FFC000FFC7F88
:102D500087F9FFE7FBFFF7FBFFF7F9FFE7F8FFCF86
:102D6000F83F0FFE3F3FFBFFF7FBFFF7F80007F8C8
:102D70000007F80007FBFFF7FBFFF7F9FFE7FC7F11
:102D80008FFC000FFE001FFF807FFBFFF7F800079E
:102D9000F80007F80007FBF7F7FBF7F7FBF7F7FB7F
:102DA000C0F7F9C0F7F9FFE7F87F87FE7F9FFBFFC9
:102DB000F7F80007F80007F80007FBF7F7FBF7F74D
:102DC000FBF7FFFBC0FFF9C0FFF9FFFFF87FFFFE35
:102DD0007FFFFFFFFFFFC07FFE001FFC000FF87F9B
:102DE00087F9FFE7FBFDF7FBFDF7F9FC07FC3C0F5C
:102DF000FE3C0FFFFDFFFBFFF7F80007F80007F8A8
:102E00000007FBF7F7FFF7FFFFF7FFFFF7FFFBF701
:102E1000F7F80007F80007F80007FFFFFFFFFFFFC4
:102E2000FBFFF7FBFFF7FBFFF7F80007F80007F8D9
:102E30000007FBFFF7FBFFF7FBFFF7FFFFFFFFFFBD
:102E4000FFFFFFF9FFFFF8FBFFF8FBFFFEFBFFFCB6
:102E5000F80000F80001F80003FBFFFFFBFFFFFB99
:102E6000FFFFFBFFF7F80007F80007F80007FBC3B8
:102E7000F7FF83FFFA20FFF87837F8FE07F9FF879E
:102E8000FBFFE7FFFFF7FBFFF7F80007F80007F885
:102E90000007FBFFF7FBFFF7FFFFF7FFFFF7FFFF61
:102EA000F7FFFFE7FFFF87FFFF9FFBFFF7F8000734
:102EB000F80007F800F7FF000FFFF80FFFC01FFC36
:102EC00001F7F80007F80007F80007FBFFF7FFFF1E
:102ED000F7FBFFF7F80007F80007F81FF7FE07F702
:102EE000FF81FFFBE03FFBFC0FF80007F80007FB4A
:102EF000FFFFFFFFFFFF807FFE001FFC000FF87F3A
:102F000087F9FFE7FBFFF7F9FFE7F8FFC7FC000FC2
:102F1000FE001FFF807FFBFFF7F80007F80007F8AF
:102F20000007FBFBF7FBFBF7FBFBFFFBF3FFF9F3F2
:102F3000FFFC07FFFC07FFFE0FFFFFFFFFFF807F87
:102F4000FE001FFC000FF87F07F9FF67FBFF17F972
:102F5000FF03F8FFC1FC0009FE0019FF807BFBFFA7
:102F6000F7F80007F80007F80007FBF7F7FBF7FF93
:102F7000FBF1FFFBF07FF9E41FF80F07FC0F87FE62
:102F80001FE7FFFFFFFE1F1FFC0F0FF807CFF9C75A
:102F9000E7FBE3F7FBE3F7FBF1F7F9F0E7F8780776
:102FA000F8780FFFFE1FFE7FFFF87FFFF9FFFFFBA2
:102FB000FFF7FBFFF7F80007F80007F80007FBFF33
:102FC000F7FBFFF7F9FFFFF87FFFFFFFFFFBFFFFB6
:102FD000F8001FF8000FF80007FBFFE7FFFFF7FFFF
:102FE000FFF7FBFFE7F8000FF8001FFBFFFFFBFFF9
:102FF000FFF9FFFFF81FFFF801FFFB801FFFF80735
:10300000FFFE07FFE03FFA01FFF81FFFF9FFFFFB9C
:10301000FFFFFBFFFFF83FFFF800FFFB0007FBFC93
:1030200007F9C03FF803FFF80007FBF007FBC01FDC
:10303000F801FFF83FFFFFFFFFFBFFF7F9FFE7F89D
:103040007F87F81E17FB007FFFC0FFFB8837F81E45
:1030500007F87F87FBFFE7FBFFF7FBFFFFF9FFFFA9
:10306000F87FFFF80FF7FB03F7FFC007FFE007FF4C
:10307000E007FB87F7FA1FF7F87FFFF9FFFFFFFF75
:10308000FFFE7FF7F87FC7F8FF07F9FE17FBF87719
:10309000FBE1F7FB87F7FA1FF7F83FE7F8FF87FB3D
:1030A000FF9FFFFFFFFFFFFFFFFFFFFFFFFFFFFF90
:1030B000FFC00001C00001DFFFFDDFFFFDDFFFFDFE
:1030C000DFFFFDFFFFFFFFFFFFFFFFFFF3FFFFF04D
:1030D000FFFFFC1FFFFF07FFFFE0FFFFF83FFFFEC2
:1030E0000FFFFFC1FFFFF0FFFFFEFFFFFFFFFFFF2E
:1030F000DFFFFDDFFFFDDFFFFDDFFFFDC00001C0E3
:103100000001FFFFFFFFFFFFFFFFFFFFFFFFFFFFCC
:10311000FFFFFFFFFFFFFFEFFFFFCFFFFF9FFFFF5F
:10312000BFFFFF9FFFFFCFFFFFEFFFFFFFFFFFFF8F
:10313000FFFFFFFFFEFFFFFEFFFFFEFFFFFEFFFFA3
:10314000FEFFFFFEFFFFFEFFFFFEFFFFFEFFFFFE95
:10315000FFFFFEFFFFFEFFFFFFFFFFFFFFFFFFDFA1
:10316000FFFFDFFFFFCFFFFFEFFFFFEFFFFFFFFFDF
:10317000FFFFFFFFFFFFFFFFFFFFFFFFFFFFFF0F4F
:10318000FFE607FFE607FFC667FFDCF7FFDDF7FF97
:10319000DDE7FFC00FFFC007FFE007FFFFE7FFFF0E
:1031A000FFFBFFFFF80007F00007F0000FFFE7E765
:1031B000FFCFF7FFDFF7FFCFE7FFC007FFE00FFF0D
:1031C000F03FFFFFFFFFF83FFFE00FFFE00FFFC7FB
:1031D000C7FFDFF7FFDFF7FFC3F7FFC3E7FFE38FAB
:1031E000FFFF9FFFFFFFFFFFFFFFF83FFFE00FFF25
:1031F000C007FFC7E7FFDFF7FBDFF7FBCFE7F8000C
:1032000007F00007F0000FFFFFEFFFFFFFFFFFFFDA
:10321000FFF83FFFE00FFFE00FFFCEC7FFDEF7FF35
:10322000DEF7FFCEF7FFC0E7FFE0CFFFF8DFFFFFDD
:10323000FFFFDFFFFFDFF7FFDFF7FE0007FC000700
:10324000F80007F9DFF7FBDFF7F8DFF7F8FFFFFC1F
:10325000FFFFFFFFFFFFFFF1FFF181FFE000FFC075
:103260000CFFCE5EFFCF4EFFC04CFFC040FFC0E161
:10327000FFCFE1FFCFFFFFFFFFFBFFF7F80007F0F5
:103280000007F00007FFCFF7FFDFFFFFDFF7FFC00A
:1032900007FFC007FFE007FFFFF7FFFFFFFFFFFF8C
:1032A000FFDFF7FFDFF7FFDFF7F9C007F98007F966
:1032B0008007FFFFF7FFFFF7FFFFF7FFFFFFFFFFAD
:1032C000FFFFFFFFFFFFFCFFFFFCFFDFFCFFDFFE58
:1032D000F9DFFCF9C000F98001F98003FFFFFFFF6F
:1032E000FFFFFFFFFFFBFFF7F80007F00007F0000C
:1032F00007FFFCF7FFF8FFFFC037FFC707FFDF87B7
:10330000FFDFE7FFFFF7FFFFFFFFFFFFFBFFF7FB1D
:10331000FFF7FBFFF7F80007F00007F00007FFFFDB
:10332000F7FFFFF7FFFFF7FFFFFFFFDFF7FFC00724
:10333000FFC007FFC007FFCFF7FFC007FFC007FFB1
:10334000E007FFCFF7FFC007FFC007FFC007FFFF81
:10335000FFFFDFF7FFC007FFC007FFC007FFCFF782
:10336000FFDFFFFFDFF7FFC007FFC007FFE007FF3A
:10337000FFF7FFFFFFFFF83FFFF00FFFE00FFFC772
:10338000C7FFCFF7FFDFF7FFCFF7FFC7C7FFE00F9C
:10339000FFF00FFFF83FFFFFFFFFDFFEFFC000FF62
:1033A000C000FFC000FFCFE6FFDFF6FFDFF7FFCF73
:1033B000C7FFC007FFE00FFFF03FFFFFFFFFF83F31
:1033C000FFE00FFFC007FFC7E7FFDFF7FFDFF6FFF4
:1033D000CFE6FFE000FFC000FFC000FFFFFEFFDF01
:1033E000F7FFDFF7FFDFF7FFC007FFC007FFC007EA
:1033F000FFE7F7FFCFF7FFDFF7FFC7FFFFC7FFFFCD
:10340000E7FFFFFFFFFFFFFFFFE387FFE187FFC04D
:10341000E7FFCCF7FFDC77FFDE67FFCE07FFC307D0
:10342000FFC30FFFFFFFFFFFFFFFDFFFFFDFFFFF18
:10343000DFFFFF000FFC0007FC0007FFDFF7FFDFE7
:10344000F7FFDFC7FFFFCFFFFFFFFFFFFFFFDFFF3C
:10345000FFC00FFF8007FF8007FFFFE7FFFFF7FFB9
:10346000DFE7FFC007FF8007FF800FFFFFEFFFFFD1
:10347000FFFFDFFFFFCFFFFFC1FFFFC03FFFDC0704
:10348000FFFF07FFFE0FFFD03FFFC1FFFFCFFFFF92
:10349000DFFFFFDFFFFFC7FFFFC07FFFD007FFDEBB
:1034A00007FFC80FFFC0FFFFC00FFFDE0FFFD80FE1
:1034B000FFC0FFFFC7FFFFFFFFFFFFF7FFDFF7FFC3
:1034C000CFC7FFC387FFC037FFD87FFFD837FFC301
:1034D00007FFC7C7FFDFE7FFDFF7FFFFFFFFDFFFE4
:1034E000FFDFFCFFC3FCFFC07EFFDC00FFFF01FF2E
:1034F000DC0FFFC07FFFC3FFFFDFFFFFDFFFFFFF2A
:10350000FFFFFFFFFFC3E7FFC387FFDF07FFDC37D6
:10351000FFD077FFC1F7FFC7E7FFCF87FFFF8FFF20
:10352000FFFFFFFFFFFFFFFFFFFFFFFFFFFFFFFFAB
:10353000FFFFF7FFFFE3FFE00803C01C01DFFFFD13
:10354000DFFFFDFFFFFFFFFFFFFFFFFFFFFFFFFFAD
:10355000FFFFFFFFFFFFFFFF000000000000FFFF75
:10356000FFFFFFFFFFFFFFFFFFFFFFFFFFFFFFFF6B
:10357000DFFFFDDFFFFDC01C01E00803FFE3FFFFED
:10358000F7FFFFFFFFFFFFFFFFFFFFFFFFFFFFFF53
:10359000FFCFFFFF8FFFFFBFFFFFBFFFFF9FFFFFBB
:1035A000CFFFFFE7FFFFE7FFFFF7FFFFC7FFFFCFFB
:1035B000FFFF0018181D006E7FFFFFFFFEFEFFFEDD
:1035C0007E77DF1E03C71C03E3A07FE303FBFC1F22
:1035D000FBFCFCFBE00C1BE00E1BE00FBBEDC00393
:1035E000EDC003EDDFFBEDDFFBEDC003EDC003ED50
:1035F000DF1BC00E3BC0087BEFF8F3FFF9F3FFFFC2
:10360000FB005EA6FFFFFFFFFFFBFFFFE3FFFC07E2
:10361000F0001FF000FDF77FFDF77DFDF77DF9F36A
:103620007DFBF00473B40437876D87C76DCFC76D1A
:10363000CFF76D87F00537F00473F57CF3F77DFB6A
:10364000E67FF9E67FF9F77FFBFFFFFB006E29FFBE
:10365000FFFFFEFF7FFE7F7FDF1F03CF1E03E7E03C
:1036600003E701FBFC1FFBFCF803E00803E00BFB96
:10367000EDDBFBEDD803EDD803EDDBFBEDD803ED7F
:10368000D803EDDBFBC00BFBC00803FFF803FFFB17
:10369000F3FFFFF3FFFFFB005E74FFFFFFFFBEFFC2
:1036A000FF3EFFFE7EFFFCFEFFF1C0FFC3C0FF87B1
:1036B000C0FF97DEFFF7DEFFF7DEFFF7DEFFF0006B
:1036C00001F00001F00003F7DEFFF7DEFFF7DEFF99
:1036D000F79EFFF79EFFE7DEFFE7FEFFF7FEFFFF27
:1036E000FFFF006708FFFFFFFFFFFFFFFFFDFFFF7A
:1036F000F9FFFFF3FFFFC7E7F00FE0001FE000FF57
:10370000EF7BFFEF7BFFEF7BFFEF7BFFEF7BF7EFC5
:103710007BF7EF7BF3EF7BF9C00001C00003EFFF05
:10372000FFFFFFFFFFFFFFFFFFFFFFFFFF0065E55C
:10373000FFFFFFFFFFFFFFFFFFFFFFFFFFFFFFC0D8
:103740000001C00001EFDFEFEFDFEFEFDFEFEFDFB2
:10375000EFEFDFEFEFDFEFEFDFEFEFDFEFEFDFEFC9
:10376000EFDFEFEFDFEFC00003C00003FFFFFFFF5D
:10377000FFFFFFFFFFFFFFFF005C0FFFFFFFFFFFEB
:10378000FFFFFF7FFFFE7FFFF8FFFFF1FFFFC3FF9B
:10379000FF07FFFF1FF7FFBFF3FFFFF9CFFFF1C0E8
:1037A0000001C00003FFFFFFFF7FFFFF3FFFFF9F00
:1037B000FFFFC7FFFFE3FFFFF0FFFFF07FFFFC7F8E
:1037C000FFFFFF0065F6FFFFFFFFFFFFF0000FF0B8
:1037D000000FF7DFBFF7DFBFF7DFBFF0000FF0002C
:1037E0000FF0001FFEFFFFFEEFFFFEE3FFFEF1F70D
:1037F000FEF1F3FEFFFBFEFFF9800001800003DE17
:10380000FFFFFEFFFFFEFFFFFEFFFFFFFFFF009534
:10381000F4FFFFFFFFFFFFFFFFFFF00001F00001DB
:103820009BFFFF87FFFFC7FFFFE6003FEE003FEE75
:10383000F77FEEF77FEEF77FEEF77FEE003FEE00CB
:103840003FEEFE37EFFFF3EFFFF9EFFFF1E000018E
:10385000E00003FFFFFFFFFFFF005206FFFFFFFF37
:10386000F7FFFFF7FFFFE7FDFFCFF9FF8FFBFE2F0D
:10387000F3F86FE7E0EF8FE3E81FE7E07FFFE1FF9A
:10388000FFEFFBFFEFFBC3EFF9C0EFE1FC4003FEEE
:103890000007FF8FFFFF8FFFFFC7FFFFE7FFFFEF6F
:1038A000FFFFEFFF00949FFFFFFFFFDBFFFF1BFF0A
:1038B000FC3BFFC07BFF8100038B0003FB7BC7FA4F
:1038C0007BCFFA7B9FFBFBBFF800FFFC00FFFDFBFB
:1038D000FFFDFBFFBDFBFD800001800001FDFBFF44
:1038E000FDFBFFFC01FFFC01FFFDFFFFFFFFFF00F1
:1038F00079D2FFFFFFFF7FBFF77E3FF77C7FE77145
:10390000FFEF03FFE00003E00003CF63FDCF63F9A7
:10391000DF73FBFFC3FBFC07F3FC1FF7FCFFE7FFB4
:10392000FFCF80008F80001FFFFE3FFDF87FFC70FF
:10393000FFFE11FFFF1BFFFFFFFF0083DCFFFFFF08
:10394000F7FDFDF7FDF9F77DFBF77DF3F75DE7F791
:1039500045E7F765CF81759F817C3FC13C7FF710BC
:1039600001F64001F6C80380FC7F80F93FF6E19F35
:10397000F6C5CFF4CDE7F4DDE7E6F9F3E7F9F3F7C1
:10398000FDF7FFFFF7005355FFFFFFFFFF7FFFFF2E
:103990007FFFFF7FFFFE7FF8007FF8017FBBBB7FCB
:1039A0008BBB7FC3BB7FE3BB7FF80001F80001FB4B
:1039B000BB7FE3BB7F83BB7F8BBB7FDBBB7FF80120
:1039C0007FF8017FFFFE7FFFFE7FFFFF7FFFFFFF8E
:1039D000008BBEFFFFFFFFBFFFFFBFFFFFBFFFDF8B
:1039E000BFFFC38007E38007F3AFC5FFCF9DFF9FF5
:1039F00039FF2F7BC027F3C0E1F7C3E867DFEE0F85
:103A0000DFEF8FDFEF0FC02827C000E7EF81F3FF64
:103A1000AFF3FFBFFBFFBFFBFFBFFF007F6EFFFFEA
:103A2000FFFFFFFBFFFFFBFFBFFBC0BFFBC0BFFBF8
:103A3000DDA003DDA003DDAD5BC1AD5BC1AD5BDC33
:103A40000D5BDC0D5BDDAD5BC1AD5BC1AD5BDDADC9
:103A50005BDD8003DD8003C02FFBC03FFBFFBFF3B6
:103A6000FFFFF3FFFFFB0052A0FFFFFFFDFFFDFD87
:103A7000FFF9FDFFE3FDFF07FDE00F80006F80070A
:103A8000E7FDFFF3FDFFE3FC0007FC000FFC1FFF59
:103A9000FFFFFFFC0001FC0001FDFFEFFDFFEFFD5C
:103AA000FFEFFDFFEFFC0003FC0003FDFFF3FFFF52
:103AB000FF0051CFFFFFFFFFFBFFEFF98FE7F80D8E
:103AC000F3C009F207F3FC3F87F8000FF8003FF856
:103AD00003FFFB701FFB701DFB77B9FB701BFB70B6
:103AE00013FB702780008F80001FDBFC0FCBE0C72B
:103AF000C381E3E387E1FBBF81FFFF9D007535FFD5
:103B0000FFFFFFFFFFFFFFFFFFFFFFFC003FFC0089
:103B10003FFDDEFFFDDEFFFDDEFFFDDEFFFDDEFF24
:103B2000800001800001FDDEFDFDDEFDFDDEFDFD0E
:103B3000DEFDFDDEFDFC007DFC007DFDFFF9FFFFED
:103B4000C1FFFFC1FFFFFF0091CFFFFFFFFFBFFBE2
:103B5000FFBFFBFFBFDBFFBFDBC0201BC0201BC0C4
:103B60002B5BD6AB5BD6AB5BD6AB5BD6A003D6A04C
:103B700003D6A003D6AB5BD6AB5BD6AB5BC0201B3A
:103B8000C0201BFFA01BFFBFDBFF3FF3FF3FF3FF86
:103B9000BFFF006C60FFFFFFFEFFFFFE3F7FDF1FE8
:103BA00003CF9C03E3E003E303FFFC1FFFFCDFFF05
:103BB000FFDFFFFC0003FC0003FFBFFBFFBFFBC0F8
:103BC000001BC0001BFF7EFBFF7EFBFF7E7BFE0019
:103BD0007BFE00FBFEFF03FFFF03FFFFF7008FC725
:103BE000FFFFFFFFBFF7FFBFF3DFBFE3C7BFCFE3B9
:103BF000801FE3801FFDBFCFFDFFE7FD7FE7FD3F97
:103C0000F7FD8FF7FDC7F3FDE7B3FDFFB3FDFF93AE
:103C1000800003800003C00013FDFFF3FDFFF3FDF0
:103C2000FFF3FDFFF7FFFFF7004F4EFFFFFFFFEF32
:103C3000FFFFCFFFFF1FFFFC0001E0000182000338
:103C40008FFFFFDFFFFFF00007F00007F7DFCFF780
:103C5000DFCFF7DF87F3DFB1E001F1E0007FEFDCDA
:103C60001FCFDF0FCFDFC7DF9FE7FF9F83FFDF831C
:103C7000FFFFFF00FF0CFFFFFFFFFFFFFFFFFFFF46
:103C8000FF3BFFFE03FFFE07FFFE1FFFFFFFFFFFDF
:103C9000FFFFFFFFFFFFFFFFFFFFFFFFFFFFFFFF34
:103CA000FFFFFFFFFFFFFFFFFFFFFFFFFFFFFFFF24
:103CB000FFFFFFFFFFFFFFFFFFFFFFFFFFFF0030E2
:103CC00002FFFFFFFFFFFFFFFFFFFFFF8FFFFF0769
:103CD000FFFF77FFFF77FFFF07FFFF8FFFFFFFFF6C
:103CE000FFFFFFFFFFFFFFFFFFFFFFFFFFFFFFFFE4
:103CF000FFFFFFFFFFFFFFFFFFFFFFFFFFFFFFFFD4
:103D0000FFFFFFFFFFFFFFFFFF002103FFFFFFFF9C
:103D1000FFFFF83FFFF01FFFF39FFFF39FFFF01F30
:103D2000FFF83FFFFFFFFFFF803FFE000FFC000793
:103D3000F87FC7F9FFE3F1FFF3F3FFF3F3FFF3F3CA
:103D4000FFF3F3FFF3F9FFE3FCFFE7FC1FCFFC1FDA
:103D50009FFFFFFF00FF05FFFFFFFFFFFFFE1FFFAD
:103D6000FC0FF3F8C7E3F9E7C3F9E787F8C70FFCDF
:103D70000E1FFE1C3FFFF87FFFF0FFFFE1FFFFC3B8
:103D8000FFFF870FFF0E07FE1C63FC3CF3F87CF37C
:103D9000F0FC63F1FE07FFFF0FFFFFFFFFFFFF00D7
:103DA00025B6FFFFFFFFFFFFFFFFFFFFFFFFFFFF46
:103DB000FFFFFFFFC00003C00003C00003C00003FB
:103DC000E00007F0000FF8001FFC003FFE007FFF3F
:103DD00000FFFF81FFFFC3FFFFE7FFFFFFFFFFFFC4
:103DE000FFFFFFFFFFFFFFFFFFFF0025B2FFFFFF09
:103DF000FFFFFFFFFC3FFFF83FFFF03FFFE03FFF0B
:103E0000C03FFF803FFF003FFE003FFC003FF80047
:103E10003FF8003FFC003FFE003FFF003FFF803FB8
:103E2000FFC03FFFE03FFFF03FFFF83FFFFC3FFFD9
:103E3000FFFFFFFFFF526561647920696E20737494
:103E4000616E646279206D6F646500496E207374E1
:103E5000616E646279206D6F6465206661696C00D3
:103E60004C6F6F700046756C6C496E69740031322E
:103E700033E697B6E9929F00883E000800000020D4
:083E800050040000DE230008DD
:04000005080000C12E
:00000001FF
