:020000040800F2
:1000000048050020D5000008F1500008E51500085B
:1000100000000000000000000000000000000000E0
:10002000000000000000000000000000A9530008CC
:100030000000000000000000F3500008AB5400086E
:10004000E7000008E7000008E7000008E7000008F4
:10005000E7000008E7000008E7000008E7000008E4
:1000600000000000E7000008E7000008E7000008C3
:10007000E7000008E700000800000000E7000008B3
:1000800000000000E7000008000000000000000081
:10009000E700000800000000E7000008E700000893
:1000A000E7000008E7000008E7000008E700000894
:1000B000E7000008E7000008000000000000000062
:1000C0000348854600F02AFA004800471D5A0008F8
:1000D000480500200448804704480047FEE7FEE743
:1000E000FEE7FEE7FEE7FEE7AD540008C1000008AA
:1000F00030B50B46014600202022012409E00D46C0
:10010000D5409D4205D31D469540491B2546954047
:1001100040191546521E002DF1DC30BDF0B51FB45C
:100120000646002082B005464024019100901BE065
:10013000019922460F46304600F012FA049A059BB8
:10014000801A994110D310461946224600F0F8F95A
:10015000361A8F410197224601200021009F00F0AE
:10016000EFF938184D4100902046641E0028DFDC6E
:10017000019B00982946324607B0F0BDF0B507460E
:100180000846584087B0C00F049048000E465900FA
:1001900040084908BC1A884105D2384631461E46F7
:1001A00017460B4602465800400810434CD0300D0D
:1001B000039040055900400D490D0590401A0290EA
:1001C000402872DA18030121000B09050843019049
:1001D00004980092002805D00199524200208841DD
:1001E00000920190029840210A1A0199009800F0AB
:1001F000A7F905460C466B4607CB00F0C2F9C019BB
:100200007141039A0E0D0023D71756401A467A40C3
:10021000164344D0049A002A2DD0029A012A039A48
:1002200015DC1205C01A914101263605001C7141EA
:10023000D20F059ED2070093019202962A462346CA
:1002400000F0BFF907B0F0BD38463146FAE71605B1
:10025000224A0F46B218C01AB74101210905001CF5
:100260004F4100187F41114618187941E20F1043A1
:100270006D19644113E0E2076D0815436408C20775
:100280001443039A01261205C01A91413605001C39
:100290007141CE07400830434908C01851412A46F1
:1002A000234600F081F9CDE7FFE7049801224000E2
:1002B000C117121A00238B4104983146C417381A0B
:1002C000A141EEE730B40124E407634030BC55E7B8
:1002D00030B40124E407614030BC4FE70000E0FF88
:1002E000F0B51FB488B00B990998002448400999CB
:1002F000C00F490049080991C0070B9900904900B7
:1003000049080B9109990898A64608431CD00B99F7
:100310000A98084318D0099801244000420D48006B
:10032000410D099824050003000B204309900B9808
:100330000003000B20430B9050181C49401800226A
:1003400001901446104605E0002001460DB0F0BDB6
:10035000032801DA034600E003239C46C11A0AAED3
:100360000AE05F0008ADED5B4F00F75B7D430027BF
:10037000AA187C41491C5B1E6145F2DD410004ABBB
:100380005A522104120C0A43240C401C0828DFDBBB
:10039000019802900099704601910090059B049A83
:1003A0000799069800F00DF9D0E700000DFCFFFF5B
:1003B000F0B50C465C4085B0E40FE40703944C00B4
:1003C00000266408590094464908024602962243D2
:1003D00021D062460A431ED06200570D4A000E0328
:1003E0002303550D012402462C492405781B1B0BC1
:1003F000360B401823432643614600901C46501A92
:10040000B44103D30098401C009002E09218009879
:100410005B41002803DA0020014605B0F0BD002052
:10042000012109050746864611E064461D46141B56
:10043000B54106D36546521BB341744607430C438E
:10044000A646CD0740084908284392185B41054657
:100450000D43EAD11046184313D060461946504068
:100460007140084306D06046101AB34106D20122FB
:10047000002306E000220123DB0702E00122D24331
:100480005310009874460105381C6141029C039D7D
:100490000019694100F088F8BFE70000FD03000083
:1004A00070B54B005B0803430BD04B005C0D00267E
:1004B00033466542B341D417AD1AA34102DB002095
:1004C000014670BD12053018514170BD0EB5C217FE
:1004D000C10F5040CA0740180021054B02930192FA
:1004E00000910A460B4600F06CF803B000BD000016
:1004F0003304000010B5002904DB0124E407404266
:100500008C412146002B04DB1C460123DB075242B1
:10051000A341994200D1904210BD0000064C012534
:10052000064E05E0E36807CC2B430C3C984710349B
:10053000B442F7D3FFF7C8FD70F7000890F7000842
:1005400010B5202A04DB0146203A9140002010BD5E
:10055000914020239C1A0346E3401943904010BD6C
:1005600010B5202A04DB0846203AD040002110BDF7
:100570000B46D340D0402024A21A9140084319468C
:1005800010BD10B5202A06DBCB170846203A1041D3
:10059000C1170B4306E00B461341D0402024A21A9A
:1005A00091400843194610BD10B5002B08DA00240D
:1005B000401C614192185B411A4301D14008400040
:1005C00010BDF0B51FB482B005460C0003D008463C
:1005D00006F01CF802E006F019F820300246009000
:1005E00021462846FFF7ACFF049B059A04460F46B8
:1005F00018431143084314D0184610431BD00098E9
:1006000040210A1A18460599FFF7AAFF05460E462B
:10061000009A05990498FFF793FF084305D001203D
:1006200004E02046394607B0F0BD0020C11705435D
:100630000E432C43374300990E986305401A790501
:10064000E40A00220C43FD0A0A3002D500200146CC
:10065000E9E70105101969410C9C0D9D00196941DC
:10066000FFF7A2FFDFE7FEB500231A461B1A8A41F7
:1006700003DB0020014603B0F0BD4A000D03012159
:100680002D0B0905520D0D43D10702D100186D4104
:10069000521E5110FF31FF310131002704463E4602
:1006A0003846009701910246012100200905FFF715
:1006B00057FFC3197141F818324684468E464A41A5
:1006C00061462846611A904104D36046241A954138
:1006D00076461F46241900986D41401C009034282E
:1006E000E1DDF91930467041091BA84103D200220F
:1006F000D243134601E00022134601980105381C3D
:100700007141FFF751FFB6E703460B439B0703D048
:1007100009E008C9121F08C0042AFAD203E00B78C6
:100720000370401C491C521EF9D27047D2B201E03E
:100730000270401C491EFBD270470022F6E710B53C
:1007400013460A4604461946FFF7F0FF204610BD3F
:10075000F8B502464A40D40F42004B0052085B08ED
:100760009A4202D20246084611464A0023D0C30DDF
:100770004A00DDB2120EAD1A202D35DA49020126EB
:10078000490AF6058A19002C00D0524220214F1B3D
:100790001146B9402A411018C20D9A4221D0002CAE
:1007A00017D0012D08DCDA05801AD20F8019D20784
:1007B000DBB200F0E5F9F8BDDA05801A012340004C
:1007C0001B06C01880185A428018CA0F10434900EF
:1007D00007E04908C2071143DA05801A801940086A
:1007E000801800F0C5F9F8BD61000122511A001B04
:1007F000F7E70122D2075140AAE70122D207504071
:10080000A6E7024670B54A40D30FDB0740002DD063
:100810004A002AD0010E140E000212020919400AE1
:10082000520A8418E50104465443000A120A2E04B1
:100830005043A4194219200CC543AA18120C0125D3
:10084000AD03521C521912047F39240400D0521CEB
:10085000104301D44000491EC2B20C06C009201842
:10086000401C4008802A02D003E0002070BD4008F0
:100870004000002900DA0020184370BD70B5024620
:100880004A40D50F40004A00ED07400852080028B2
:1008900014D0002A12D0C40DD30D41020120C0058E
:1008A0005202490A520AE41A091812187D34914278
:1008B00001D3641C00E04900002C01DA002070BD67
:1008C0000023914201D3891A0343400849000028BC
:1008D000F7D100290AD0914202D10121C90705E0D0
:1008E000914201D2012101E00121C943E005C01874
:1008F000401900F03DF970BD0122D207002800DB4D
:10090000101A002900DB511A814201D801207047DA
:10091000002070470122D207002800DB101A0029AE
:1009200000DB511A814201D201207047002070473C
:100930000122D207002800DB101A002900DB511A1F
:10094000814201D301207047002070470122D20765
:10095000002800DB101A002900DB511A814201D95E
:10096000012070470020704710B5002904DB0C46B9
:100970000121C9074042A141002B04DB1C46012391
:10098000DB075242A341801A994101D3012010BDD7
:10099000002010BD10B5002904DB0C460121C90759
:1009A0004042A141002B04DB1C460123DB075242DD
:1009B000A341101A8B4101D2012010BD002010BDAF
:1009C00010B5002904DB0C460121C9074042A141B2
:1009D000002B04DB1C460123DB075242A341101A03
:1009E0008B4101D3012010BD002010BD10B500299E
:1009F00004DB0C460121C9074042A141002B04DB66
:100A00001C460123DB075242A341801A994101D2BF
:100A1000012010BD002010BDC217C10F504010B5FD
:100A20004018CA079623002100F0AAF810BD10B59F
:100A300000229623114600F0A3F810BD0EB505491B
:100A40000291002100910A460B460191FFF7B9FD82
:100A500003B000BD33040000C20F41004002012377
:100A6000400ADB05D207090EC0187F2901DA0020F1
:100A70007047962903DC9623591AC84001E096393D
:100A80008840002AF4D040427047000070B5CD0F76
:100A90004A0009030123090B1B0519430B4BED0702
:100AA0000024520D9A4201DA002070BD074B343306
:100AB0009A4203DC9A1AFFF753FD02E004495118E9
:100AC00088402C43F1D0404270BD0000FF0300007D
:100AD000CDFBFFFF4A0009030123090B1B05194346
:100AE000094B10B5520D9A4201DA002010BD064B99
:100AF00034339A4203DC9A1AFFF732FD10BD0349E2
:100B00005118884010BD0000FF030000CDFBFFFF1F
:100B1000C20FD207400040080BD0C10D0723DB01F4
:100B2000C91840020905400A1143C2084007114391
:100B30007047002001467047CB0FDB07490010B516
:100B4000490802460A4307D00A0D07240903E401B5
:100B5000090B121B002A01DC002010BDC900440F44
:100B60000C43C100E018D205801800F001F810BD58
:100B7000002904DA401C490001D1400840007047B8
:100B800070B40024050C05D11024000402D1002902
:100B900021D01124050E01D100020834050F01D126
:100BA0000001241D850F01D18000A41C002801DB59
:100BB0004000641C002908D020252E1B0D46F5405E
:100BC000A14000D001212943084301061B1B000A54
:100BD000DB1D02D5002070BC7047DB05181880189B
:100BE0000029F8DA401C4900F5D170BC40084000EB
:100BF00070470000B0B581B01B480168C90731D00B
:100C00007D21C900026852076A4BBC4A10D40468AF
:100C10001C4002232343036013680093009B036876
:100C2000DB0717D01368DB03DB175918F7D119E07E
:100C300004681C4010252543056014680094009C3E
:100C40000C460568ED06E2D51568ED03ED172C1985
:100C5000F7D107E00146083901220A600168034A1A
:100C60000A40026001B0B0BD08240140E8FFFF6FF8
:100C7000F0B587B00026134D009606A9284600F06F
:100C800027F800281AD106AF788804F035FD04460D
:100C90003888FFF7CCFE01462046FFF7B2FD0A492F
:100CA000FFF7ECFD0949FFF7E9FD01A98851361D61
:100CB000142EE2D101A804F0D7FC00E0009807B0A0
:100CC000F0BDC046020002C400F07F4500007A4437
:100CD000F0B583B00246334B1C680120E4074DD0C9
:100CE000314C22409A62082200921A6004241C604F
:100CF00000252E4A2E4E37683F0705D46F1CADB233
:100D000095423D46F7D106E0ADB2954203D10022AF
:100D10004A800A8032E00190986820404242424175
:100D20007D20C0000027DF4ED20704D09A68214DF5
:100D30002A4022439A6032680292029A02461D6853
:100D40006D0705D43568ED03ED17AA18F7D114E047
:100D50001A6C194D2A407D004A531C609D6825403D
:100D60006A426A417F1C022FDED10446002D0198A1
:100D700006D100981860002000E0019803B0F0BD93
:100D800099680C4A114010220A439A603168029116
:100D900002999968C906ECD53168C903C9170C19BD
:100DA000F7D1EBE700240140FFFF0700FEFF000042
:100DB00004700040E8FFFF7FFF0F000010B582B015
:100DC0004B48417800291FD04A4CF921E160616805
:100DD000FA2901D300216160807800F065F9E068AC
:100DE0004008606001200002216801432160AD4994
:100DF0000A680192019A14220B68DB03DB179A1828
:100E0000FAD121688143216002B010BD10B582B0D3
:100E10003748417800291FD0364CF921E1606168DC
:100E2000FA2901D300216160807800F03DF9E06883
:100E30004008606001200002216801432160994957
:100E40000A680192019A05220B68DB03DB179A18E6
:100E5000FAD121688143216002B010BDB0B582B0E3
:100E600023484178002940D0224CF925E56061688B
:100E7000FA2901D300216160807800F015F91E483D
:100E8000E0606068C0087D2801D300206060E068F1
:100E9000400860600120010220680843206081480A
:100EA00002680192019A28220368DB03DB179A1873
:100EB000FAD12368234A13402360E5606368FA2B64
:100EC00001D300236360E3685B08636023680B431E
:100ED000236001680091009928210368DB03DB1778
:100EE0005918FAD120681040206002B0B0BDC04649
:100EF0002000002020000040E703000010E000E098
:100F000001210E480268D20503D40A020368134384
:100F10000360C9040A4A13680B43136013688B43C8
:100F20001360026807490A400260ED3106480A581A
:100F3000002A01D1091DFAD17047C0460070004057
:100F400050100240FFFEFFFF64280040F0B585B05E
:100F50001E4615460746524A1068000731D45148CC
:100F600003680393039B19230468E403E417E3185D
:100F7000FAD11068000724D400960846FFF75EFDFA
:100F800002460B460020324905F04AFE029505460E
:100F90000E4601973F783846FFF750FD2A46334604
:100FA000FFF706FAFFF796FD0A21FFF7A1F80C46B6
:100FB00028463146FFF78EFD02998C4237D2381809
:100FC00040E013680020DB063FD40295354B1C68D7
:100FD0000494049C19241D68ED03ED172C19FAD113
:100FE0001268D20631D40846FFF728FD02460B46A8
:100FF0000020174905F014FE054600960E4601979D
:101000003C782046FFF71AFD2A463346FFF7D0F911
:10101000FFF760FD0A21FFF76BF80F4628463146BF
:10102000FFF758FD00998F4207D9201A0AE0444380
:1010300000994143C819001B04E04743029941430A
:101040000819C01B01990870012005B0F0BDC04609
:1010500000002440B0B581B00120C0030F49104A00
:10106000104B0C680442FCD014682407F9D51468AE
:10107000E406F6D51C680094009C19241D68ED0355
:10108000ED172C19FAD10C680442EAD01468240731
:10109000E7D51468E406E4D501B0B0BD10000050F7
:1010A0001004005010E000E0F0B581B00B21FFF714
:1010B0001FF80C460F4F3868FFF7C0FC00250E4B99
:1010C0002A46FFF70DF90D4B2A46FFF771F9054641
:1010D0000E462046FFF7B2FC02460B46FFF700F92A
:1010E0002A463346FFF7FCF8FFF7F4FC386101B0FD
:1010F000F0BDC0462C0000400000E03F0000594019
:1011000070B51D46144600F001FA242004F010FBCF
:101110006C43200409D0049D0026284604F034FBCB
:10112000A0B2761CB1B28142F7D32520C2000020C4
:101130001023014600F0EAF970BD000070B52520CB
:10114000C4000025102328462946224600F0DEF977
:10115000242004F0EDFA074EFF2004F015FB681C74
:10116000B5420546F8D3002010230146224600F080
:10117000CDF970BD7F120000F0B587B007240B4693
:10118000059423405B1CDB0804935B1C0191C90898
:10119000029200F0BBF900273A460392022501981B
:1011A00039460C4606A90F70059908403946802239
:1011B000C24011436D1E2A0603D0401C0828F6D1F8
:1011C00000E03D46C84306AE3070242004F0B0FA7B
:1011D0000121304604F004FB611CE0B2049A904205
:1011E0003846DED3039A521C90B202998842D4D377
:1011F00007B0F0BDF0B581B01446127863789A1844
:10120000A378DD082B4600F081F966782778242042
:1012100004F08EFAF1196943E01C04F0E1FA01B020
:10122000F0BDF0B58DB00A920691059018780028AF
:1012300000D1E8E01C46139E129F391D0791F11D55
:101240000391002508960497010615D40B95002FED
:1012500025D03978401A7A78B97813464B43DE089E
:101260007043079D281809908019FB787343EB1889
:10127000984250D90B9D5EE0002E00D1BEE00CA933
:1012800000220A701146034693401B0632D5521CB9
:10129000491C052AF7D10CA805210170AAE0002EEF
:1012A0004ED020284CD105980B99081880B2B178FF
:1012B00072785608CF08069932463B4600F026F968
:1012C0007E430ED000250CAFFF203870242004F0A0
:1012D0002FFA0121384604F083FA6D1CE8B28642E9
:1012E000F1D80B980A994018089E7178490845185A
:1012F000049F83E00CAA11707F220A40042A21D0A7
:10130000032A32D0022A75D16178002972D0641C78
:10131000C006420D35E005980B9D281880B2CB0819
:10132000069900F0F3F8242004F002FA09983146F7
:1013300004F056FA7A780A9828188518089E5DE015
:101340000B9D5BE06278002A54D0A378002B51D02B
:10135000E17800294ED0E41C4007C00A9206920BA7
:1013600010189A06120D82180BE06278002A41D0FC
:10137000A17800293ED0A41C0007000C9206120D93
:1013800012183F200840104334D0F178002931D0A2
:101390000B957378B278019300925343DA08029266
:1013A000D21C09920223DB43039EF55C2D04F21844
:1013B00057783F027D199278AA18824207D0099A7D
:1013C000B618491EF1D1089E049F0B9D12E00598A6
:1013D0000B9D281880B20099CB080699019A00F05D
:1013E00095F8242004F0A4F93046029904F0F8F9A5
:1013F000089E049F0A982818717845186078641C24
:10140000002800D020E70DB0F0BD80B5222004F008
:101410008FF9032004F0B8F9202004F089F900F0D6
:10142000BDF8102004F084F9012004F0ADF980BD6E
:10143000B0B582B00446304910220A612F480368D3
:101440000093009B01230568ED03ED17EB18FAD11B
:101450000A6001680191019901210268D203D21743
:101460005118FAD1012C04D0122004F061F900F0D7
:1014700095F80125284604F05BF9272004F084F94B
:10148000284604F081F9002004F07EF90C2004F0D5
:101490004FF9D72004F078F9D62004F075F99D2093
:1014A00004F072F9112004F043F9284604F06CF9B5
:1014B0002C2004F03DF99A2004F066F93A2004F05B
:1014C00037F91A2004F060F93B2004F031F90820C4
:1014D00004F05AF93C2004F02BF9332004F054F9BD
:1014E000322004F025F960B2800005A108581E21C1
:1014F00004F076F902B0B0BD1800005010E000E032
:1015000089EA0008A7EA00086BEA0008F0B581B094
:101510001F4600920C460646442004F009F9204676
:1015200004F032F9E019411E1F20084004F02CF9A4
:10153000452004F0FDF8FF202830851BEEB2304630
:1015400004F022F9E805C70F384604F01DF90098A9
:10155000281A451CE8B204F017F9E805C00F04F09A
:1015600013F94E2004F0E4F8204604F00DF94F2062
:1015700004F0DEF8304604F007F9384604F004F9C8
:1015800001B0F0BD80B5222004F0D2F8C62004F0EE
:10159000FBF8202004F0CCF880BD000082B001A848
:1015A0000A21018001880088002906D0401E01A977
:1015B00008800A880888002AF8D1814801680091CB
:1015C00000990649064A1368DB0705D00368DB0368
:1015D000DB17C9180B04F6D102B0704710270000C2
:1015E00010040050BFF34F8F034804490160BFF35C
:1015F0004F8F00BFFDE7C0460CED00E00400FA0588
:1016000080B582B06E480168019101997D21CA00C0
:101610006C490B685B0708D40368DB03DB179A1877
:10162000F7D104F007F9002000E0C868C0B202B0AA
:1016300080BDC046F0B583B001917D23DD00504BE5
:101640005C6924045E4E14D4009201221146D70234
:101650001C68BC431C60324A541C1F682740381861
:1016600018601868019F002F15D02A4618321043C1
:1016700012E034680294029C2C465F69FF07E3D1B4
:101680003768FF03FF173C19F7D104F0D3F800289F
:1016900041D1012440E0104018600C4608061A6849
:1016A00082431A60FF2000041A68824300980004F5
:1016B0001018186048061A6882431A6048031A68AE
:1016C00002431A60306802900298002F18D0002D53
:1016D0001DD05869400718D43068C003C017451999
:1016E0005869C006F3D59869102101439961032414
:1016F00012E03068C003C01745195869C006F2D41B
:10170000002D04D05869C007F3D0002404E004F091
:1017100091F8002800D00224204603B0F0BDC04656
:10172000FFFBFFFF10B582B02548016801910199C8
:101730007D21C900124A0B465469E40705D10468AB
:10174000E403E417E318F7D10FE001239B031468C7
:101750001C43146003680193019B53691B040CD55F
:101760000368DB03DB175918F7D104F063F800288E
:1017700001D0022002E0012000E0002002B010BDF4
:101780000454004010B582B00D490A680192019AD4
:101790007D22D3000B4A1468E4070AD10C68E403E5
:1017A000E417E318F7D104F045F8002804D002202C
:1017B00003E01061002000E0012002B010BDC0462F
:1017C00010E000E018540040F0B584B00C68002C24
:1017D00055D00123019303915A1E019F9740274042
:1017E00048D04A68551E022D02943D4615D27D43CD
:1017F00003998C686C4303266E438168B14321438F
:1018000081600399C9680092029A514344689443E5
:10181000009A0C434460039902E07D4303266E4323
:10182000F64309696943C46834400C43C460022A22
:10183000029C19D13C0A01D0242200E02022039905
:101840004F6902928258002C02D06443644301E045
:101850002C466C430F2161438A4367431743029927
:10186000475003990C684A68554301683140294341
:10187000016003992246DA405B1C002AACD104B017
:10188000F0BD0000F0B587B072B62B4F786A0090BB
:101890002A4CA0680290E06801906569A669284812
:1018A000411C3A680A433A6039680140396003A82C
:1018B00000F04AF83046284333D003208004796A88
:1018C000204A11407962002D0FD0216901220A437C
:1018D00022616561039923680822491E01D01340E3
:1018E000F9D06368134363600391009D0540002EA7
:1018F00012D02069012101432161A66103A800F0F3
:1019000023F8039822681021401E01D00A40F9D024
:1019100062680A4362600390786A0A490840284373
:10192000786220690121884320610298A0600198B3
:10193000E06062B607B0F0BD28100240007C0040B5
:10194000FFFFFF7FFFFFF3FFB0B5044603F0FAFB94
:1019500020608C490A681206120F094B9A5CD0402D
:1019600060600A685205520F064B9A5C0546D540E6
:10197000A56009688904490F595CC840E060B0BDA2
:10198000A9EC0008B9EC0008F0B581B072B60124EA
:101990002102754D6A688A436A60296804273943C1
:1019A00029607A4A20211160704B1A68A2431A609C
:1019B0005C616F4A116003F0EFFF60022968014328
:1019C0002960A1022A688A432A60E1036D4A1368EC
:1019D0000B4313602968214329600221CA432B6805
:1019E00013402B60684B1E683E431E6030BF2B685F
:1019F00083432B606003654B1860654B5D68154041
:101A00005D601A680A431A606107584A5161584973
:101A10000860FFF737FF62B601B0F0BD70B572B66F
:101A200051484168144A11404160036804210B4346
:101A30000360036808241C43046001231C024568FA
:101A4000254345609C040D4D2E68A6432E602C68EE
:101A50009C432C602C6814402C605A02036813438A
:101A600003600268022313430360474802680A4385
:101A7000026030BF70BDC046FFFEFFFF5010024045
:101A8000F0B585B072B601242002374E71688143EB
:101A9000716030680421039108433060E143049190
:101AA000324A1068084010605461314820270760AE
:101AB0001068204310602F480760FF2000022E4965
:101AC0000A6882430A602D4803F066FF306801907F
:101AD00030682B49084021034018306061020291B0
:101AE000306808433060A002336883433360E0030A
:101AF000244B1A6802431A60306820433060022386
:101B0000D8433268024032601F4A1168039D29435E
:101B100011600321C902019A114030BF3268184D8B
:101B20002A405118316019490F60104D2A680499F4
:101B30000A402A606C610E4A1760326802998A4333
:101B40003260620311490A6011494E6806404E60D6
:101B50000868184308606007686105480260FFF77D
:101B600091FE62B605B0F0BD007000400004014077
:101B700080E200E000E100E004E400E01027000063
:101B8000FFE7FFFF0C10024010ED00E080E100E0F5
:101B9000047C0040B1B0012210021090234800786C
:101BA000411E234E234C0229129200D33DE1FFF740
:101BB000A7F90F2003F06EFB1F4940B2002803D4A1
:101BC0000878AA2800D1C6E103F094FA0121CD03D8
:101BD0001A4800681A4F002800D095E119A0002685
:101BE0000D91314600F0CAFEFFF734FA33460F96E6
:101BF0000E960D9E30460E4E316829420CD1396842
:101C00001491149919213A68D203D2175118FAD1B4
:101C10003168294200D18DE0D9B2032900D985E08D
:101C20007944097949008F44173C61711400002000
:101C3000100000501004005020000020FC0708088D
:101C400010E000E0E7A1ACE4BBB6E78988E69CAC15
:101C5000E8AEBEE7BDAE0000216809070BD43968C5
:101C60001491149919213A68D203D2175118FAD154
:101C70002168090764D52168C90657D439681491C9
:101C8000149919213A68D203D2175118FAD1216850
:101C9000C9064BD40E9AD0B200280D9E60D10E908A
:101CA00060E0216809070BD439681491149919214F
:101CB0003A68D203D2175118FAD12168090747D5DB
:101CC0002168C90632D439681491149919213A68E7
:101CD000D203D2175118FAD12168C90626D40F9A17
:101CE000D0B200280D9E40D10F9040E02168090736
:101CF0001CD439681491149919213A68D203D21767
:101D00005118FAD12168090710D4C5E021680907E4
:101D10000CD439681491149919213A68D203D21756
:101D20005118FAD12168090700D4EBE000260028F9
:101D30001FD15FE7D8B203280D9E13D25B1C12E0BF
:101D40000E99C8B2092801D2491C0E910D9E09E0D6
:101D50000F99C8B2092801D2491C0F910D9E06E0C7
:101D6000521E0E920023012003E0521E0F9201200A
:101D700003462168C90713933BD111960F98C0B24F
:101D800000900E98C3B2DB481099DBA204F022FC4D
:101D9000DF480090DF4C0194042100263046324693
:101DA000D44BFFF73EFADA48009001940821304600
:101DB0003246D9A3FFF735FAD548009001940C219B
:101DC00030463246DDA3FFF72CFAFF200090842036
:101DD000072124220123FFF793F9139AD0B2811E21
:101DE00002290AD30624012809D000280CD1842016
:101DF00006E0002E064612D1FCE6941E04E09C206C
:101E00000721D34AFFF7F6F9E0B200F0A3FEFFF78F
:101E1000B9FB11980028CF4C139B00D1EAE6FEF7DE
:101E2000CDFFFFF717F9139BE4E6032800D092E0FB
:101E30000F2003F02FFA80071FD4206800070CD46E
:101E4000C54801681491149919210268D203D21768
:101E50005118FAD12068000719D52068C00616D499
:101E6000BD4801681491149919210268D203D21750
:101E70005118FAD12068C00609D40F25284603F06E
:101E800009FAFD210140284603F021FA63E003F03E
:101E900031F900F0D7FE5EE0386814900E98C0B2B9
:101EA0000F99C9B209044018AC49421814987D2012
:101EB000C100AB480B464469E40705D03C68E40325
:101EC000E417E318F7D11DE00368DB0703D0A54B47
:101ED0008360A54B8360A54B1A603A681492149AEC
:101EE0004269D20705D03A68D203D2175118F7D108
:101EF00008E0016801220A4302600068C00701D0BF
:101F00009A480068FEF7AAFF99A0022100F036FD6A
:101F1000FFF7A0F800200421994AFFF76BF9FFF7BB
:101F200031FBFFF7ADFD30682842FCD138681490D2
:101F3000149819203968C903C9170818FAD13068EC
:101F40002842F0D1FEF78AFF02F0C0FDAA208D4999
:101F5000087003F02BFA03F0CDF88B4803F032F948
:101F6000002630460B30C5B2284603F093F90146EF
:101F700080242143284603F0AAF9761C032EF0D1D1
:101F80000E26304603F086F90146022013900143E5
:101F9000304603F09CF90F25284603F07BF90146F3
:101FA000FD2011900140284603F091F9304603F0DE
:101FB00071F90146FE273940304603F088F928467A
:101FC00003F068F907402846394603F080F93046A7
:101FD00003F060F90146042739430C96304603F0BC
:101FE00076F96A4803F08AFA1398FFF721FAFFF7A7
:101FF000A5F8674800680F90FEF78AFD05460E4673
:10200000644A654BFEF7C6FC002807D1634A644B5F
:1020100028463146FEF7A8FC002802D1FEF728FE2C
:102020000F90584880680F99FEF766FC129AD60206
:102030001103920700280E910D9200D0BEE00A20F5
:1020400003F028F9AA280ED00020564A0146FFF7CF
:10205000D1F8FFF797FAFFF713FDFFF7D6F90A203B
:10206000AA2103F034F90E25284603F013F901469E
:10207000119C2140284603F02AF90F25284603F039
:1020800009F904402846214603F021F94649086829
:102090004006464C04D508680A4640218843106033
:1020A0001020A0610820A0614020A061294DAF60F0
:1020B000FEF7A0FD0D9A106A3D49084010621168B4
:1020C0000120814311603B4A1168C90702D01168A1
:1020D000814311602020A8610E98A061A660364D52
:1020E000109EA6613220FFF74FFCA6602846FFF73E
:1020F0004BFCF6E738000020E7A1ACE4BBB6E7896B
:1021000088E69CACEFBC9A5625642E25640000003E
:10211000197700082EA200085BE6B3A8E6848FEFCB
:10212000BC9AE8AEBEE7BDAEE4BF9DE5AD98E590D4
:102130008EE4B88DE4BC9AE5868D0000E698BEE793
:10214000A4BAE6ADA4E88F9CE58D955D0000000083
:10215000E3C300081004005010E000E0302E30000F
:1021600004200240EFCDAB8905040302FC070808F8
:10217000E6ACA2E8BF8EE4BDBFE794A80000000073
:1021800088DC0008200000203C010020180000200E
:10219000502800409A9999999999B93FCDCCCCCCC7
:1021A000CCCC0C4072C4000800300140100000503C
:1021B000FFFEFFFF00540040881300000A200021AA
:1021C000139103F084F8F94B5979481EC0B20B28DB
:1021D0000B960DD81A79501EC0B21E2808D89879CF
:1021E000F34BC018C01CF34BC318C82B00D2DBE064
:1021F000F14800210170F1480180F1480170F14877
:102200000170F14B12941E685868119081204700AC
:10221000069726371C21139C20463A46FEF7ACFF52
:10222000682120463A46FEF7A7FFD52043214C22DD
:10223000FEF7A2FFCA200421022208230C910A9370
:10224000FFF764F93046FEF763FCE04AE04E3346A0
:10225000FDF794FFFEF770FC0546FEF7FDFB0890C6
:10226000FEF7DAFB014605952846FEF7C2FAD94982
:10227000FEF7C7FA0990119D28462146FEF766FB36
:1022800007462846FEF744FC02460B46002F00D1C5
:10229000D14ECE483146FDF771FFFEF74DFC0546A5
:1022A000FEF7DAFB0490FEF7B7FB014607952846D8
:1022B000FEF79FFAC749FEF7A4FAFEF7CDFB03909D
:1022C0002046264611900720382531460F4614A98E
:1022D0000E703146129B1A46C24011436D1E2A06EB
:1022E00003D0401C0828F6D100E03546C84314AEA0
:1022F0003070242003F01CFA01243046139E21463E
:1023000003F06EFA791C072F3046DFD31199481C71
:102310000029D7D02746B148456828460F9C21465A
:10232000FEF714FB06460998FEF796FB1190002E67
:102330000CD1AB482946FEF75CFA0646FEF7E8FBEF
:10234000A84AA94BFEF73CFB002803D10021A74A6D
:102350000698A1E014A8A5497222FEF7D5F9A04974
:102360002046FEF7E5FA00286ED120462946FEF702
:1023700040FA05469E493046FEF780FA0146284657
:10238000FEF77CFAFEF7C4FB00229A4BFDF7F6FE3F
:10239000FEF77CFB1928014600D319210028964D31
:1023A000069854D00F4652E0DD1CAF00934EF6590C
:1023B000119646024F0137431743119EBE4200D982
:1023C0009D1CAF008D4BDE5903F03EF811901F228B
:1023D0003240F002000DF105090F03F035F81199B4
:1023E000081A411C724828181190854AD559EA03E9
:1023F000130F0D26129A761E129FB7402F40F740FA
:10240000012F01D01D2700E01E2788B2874204D289
:10241000C91B521C002EEED10C9AFC4D139828704B
:10242000002B08D0D6B2B34205D2581CB04201D11D
:1024300001202870521EEF4B119DF5480170F548A0
:102440000270F5480580DDE61927EE4D06984B2110
:1024500014AA5218FF265676137E07241C431476BE
:10246000937EE0241C439476C91EF1D1002F11D035
:1024700014A965316A18935DF8241C4094554B1ECD
:1024800000241C700B781F241C400C70FE327F1E31
:102490001146EFD1002114AAFEF7ACFE109FD44DD7
:1024A000AB79E87869792A79019200918000DB495B
:1024B00008180290CB4EDAA23046394604F08AF86A
:1024C000C94C0194C9480090002001220146129293
:1024D0003346FEF7A6FE287A002813D0E8790028B4
:1024E00007D0C24800900194002009210222D3A302
:1024F00006E0BE4800900194002005210222D0A3EE
:10250000FEF78FFEAB78687800902E46B54DCD4A29
:102510002846394604F05EF8307A0194CA490091A1
:10252000002801D0222000E01620079E0521062267
:102530002B46FEF776FEC5493046FEF707FA00281F
:1025400016D00399C8110D18454000213046FEF7FA
:10255000EFF9002800D030E1BE493046FEF7CCF953
:10256000002800D029E168B200909E48BD4A01E0F1
:102570009C48B74A3946049B04F02CF8059D9B4EB5
:1025800000960194D52005210022964F13923B46D8
:10259000FEF747FEB0492846FEF7CAF9002831D1B8
:1025A000119800908F48B14A2EE0C0463C010020AF
:1025B000CD07000030F8FFFF1000002012000020BF
:1025C0000E0000200C000020180000209A99999914
:1025D0009999A93F000020419999A9BF20000020A6
:1025E00000004040FCA9F1D24D62503F00C40008F9
:1025F0000000C8410000E03FFFFEFFFFF4EF0008CD
:10260000C4EC00087748984A109D2946089B03F0BF
:10261000E1FF00960194D5200921139C22463B46F8
:10262000FEF7FFFD7A48007807214843904A1018CA
:10263000764A1278774B1B7801904B438D48C0182F
:10264000009090008C490B188C4A3846294603F0BC
:10265000C1FF8B48009401900E21022220463B4688
:10266000FEF7DFFD684C17346B480480A6B20A21E0
:102670003046FDF73DFD0D460C213046FDF738FD97
:10268000880080490918804A101800900191A8001C
:102690007E490B18384610997D4A03F09BFF387825
:1026A0000028139909D0781C0021491CC9B202786E
:1026B000002A02D0401CFF29F7D1384602F048FE1C
:1026C000022174A002F044FE641C4F482F30864261
:1026D000CAD36B48019070480090AC200E210222B2
:1026E000404BFEF79EFDFEF74DFFFFF7C9F9FEF7E1
:1026F000BFFA6A490A68109B1A4202D10A681A4353
:102700000A603D4A106008683E4E3040086010681C
:10271000FEF77BFE3A49086840062F4D2F4A0B9B77
:10272000364C04D508680F46402188433860102095
:10273000A8610A98A8614020A8610C989060206860
:10274000C00703D020681299884320602020906140
:102750000E98A861AB60FEF74DFA0D99086A3040FB
:1027600008620868129A90430860D0031C4C2968DC
:102770000142FCD021681491149919212268D203D6
:10278000D2175118FAD129680142F0D0FFF746F963
:102790002068149014987D20C0002168C903C917CF
:1027A0000818FAD1FFF73AF9BFF34F8F3C483D497B
:1027B0000160BFF34F8F00BFFDE727493046FEF7AA
:1027C000A9F8002804D068B200900648244AD1E64F
:1027D0000448224ACEE6C0461000005010040050C3
:1027E00010E000E0380000202EA200081977000851
:1027F0003C010020180000205028004000540040F8
:1028000000300140FFFEFFFFCD0700000C0000205C
:102810000E0000201000002012000020CEEB000867
:1028200032253033642F253032642F253032642036
:10283000E6989FE69C9F257300000000504D000025
:10284000414D0000D8F3000879840008000020C141
:1028500047F40008000080BF0000C84250F40008A0
:1028600065F4000859F4000807F5000810F50008A1
:10287000F5EA0008F6EB0008EEEB000833F4000878
:102880000A95000879EC0008C5EA000851EC000838
:1028900091F500080D0A00009C8C000800700040B3
:1028A0000CED00E00400FA05F0B587B02D4908688A
:1028B00002242043086008682040069001270597FD
:1028C00004970397032602960194402000900698EF
:1028D00025486D462946FEF777FF0597049701A81E
:1028E000D0C08020009020482946FEF76DFF780573
:1028F0001C4AD1680143D160D16801400691069815
:1029000079061A4842680A434260C26818490A4078
:10291000C260FA040368934303607A040368934334
:1029200003600268BA4302601F22120203689343E5
:102930000360104A026102683A43026082680A40FA
:10294000826082680C4B1A408260320504689443AE
:10295000046042680A404260591CC2680A40C26072
:1029600007B0F0BD2C10024000040050005400409D
:10297000FF7FFFFF0B02100000F8FFFFF0B587B0EC
:102980000C4605900220FEF753FD0120049007023B
:10299000002506950394FEF7D1FB0095654801904C
:1029A000284629462A46059BFEF73BFCA4202946DB
:1029B000614E3246FEF71EFCD42029463246FEF711
:1029C00019FC381D29463246FEF714FC032C00D9A9
:1029D0009BE0C0467C4424796400A74401275978D1
:1029E0000024009455480190982001263146224643
:1029F000574BFEF716FC009450480190D02031460A
:102A000022468E4BFEF70DFC00944C480190384650
:102A1000314622468A4BFEF704FC00944748019059
:102A2000D3200D2631462246834B26E00024009415
:102A3000424801909820012631462246444BFEF739
:102A4000F0FB794800903D480190C820314622466D
:102A5000784BFEF7E6FB7448009038480190384602
:102A600031462246714BFEF7DCFB0094334801905F
:102A7000D3200D26314622466A4BFEF7D2FB009446
:102A80002E480190B81C31462246039C694B3AE01F
:102A900000240094294801909820012631462246BE
:102AA000604BFEF7BEFB6048009024480190D020A8
:102AB000314622465D4BFEF7B4FB5B4800901F4851
:102AC0000190384631462246039C584B1BE00024B7
:102AD00000941A480190982001263146224618A3F6
:102AE000FEF79FFB009415480190D0203146224606
:102AF00015A3FEF796FB0094104801903846314626
:102B00002246039C11A3FEF78CFB3A462832002094
:102B10001B21FEF731FB0698002809D1FEF732FD94
:102B2000FEF7AEFF049E3046FEF782FC069632E7C3
:102B300007B0F0BD2EA20008F2C300080A950008F5
:102B4000E8BF9BE585A50000E4B88A00E4B88B00E7
:102B5000C8F5000870B582B00546FF260096D32060
:102B60000F214F2201242346FEF7CAFA022D0AD074
:102B7000012D1FD0002D38D1294E0025009501963A
:102B8000C8202D4B05E0264E002500950196C82053
:102B9000244B21462A46FEF744FB0196224800902A
:102BA0002002224B21462A46FEF73BFBDD200F2167
:102BB0001F4A17E01A4E002500950196C8201D4BAC
:102BC00021462A46FEF72DFB019617480090260263
:102BD000164B304621462A46FEF723FB0C360F21C2
:102BE000134A3046FEF706FB18E00096C820212263
:102BF00002232146FEF784FA094E0025009501962E
:102C0000D0200E4B21462A46FEF70BFB009501967D
:102C100020020B4B21462A46FEF703FB02B070BD93
:102C20000A950008D6F500089C8C000824F30008DB
:102C3000E3C3000886F50008A4F50008C4F5000801
:102C40008DF50008F0B59FB0FEF708F91EA8401CEE
:102C50000890012001020F91C103149100235C4AE6
:102C60005C4C5D4F10930C9001461193002942D1AA
:102C70002068C00612D4386819901998192039684C
:102C8000C903C9170818FAD12068C00606D4119BD9
:102C9000D8B2002109283AD311913EE020680007FC
:102CA00011D438681990199819203968C903C917BF
:102CB0000818FAD12068000705D41199080629D010
:102CC000491E119128E010680021149D284213919B
:102CD00001D001F07CFD38681990199819203968E5
:102CE000C903C9170818FAD11068149908421BD0F3
:102CF000139901F06CFD032138A0FFF73FFEFEF7AA
:102D0000A9F9334A01230021139101F0F2FD5B1C64
:102D1000119302E009201190002101230C981290D8
:102D20001093139101F05DFD0E93FEF797F8119843
:102D3000C0B20121092800D98AE10D914000C046A6
:102D400078448088400087440900110016008601FD
:102D50001B04E506F407EF08360BBE0B0023012128
:102D60001391109311931A4A01F031FD01F0AEFE58
:102D7000012111916CE10021E7481291FFF7FEFD5E
:102D8000FEF768F9E54881780B9140780A900120B8
:102D900013900F4A1068149908420DD138681990A1
:102DA000199819203968C903C9170818FAD1106889
:102DB0001499084200D182E01298C0B2002603287C
:102DC00000D99FE078440079400087440D384F6275
:102DD000100000501004005010E000E0E4B8BBE820
:102DE0008F9CE58D95000000206800070BD43868A3
:102DF0001990199819203968C903C9170818FAD108
:102E00002068000710D52068C0067BD43868199068
:102E1000199819203968C903C9170818FAD1206808
:102E2000C006139833466FD4BC4A507841424141A2
:102E30005170002101200C9E12910B466FE020681A
:102E4000000743D438681990199819203968C903C4
:102E5000C9170818FAD12068000737D4AF4A91780B
:102E60000023012009294AD8491C47E020680007AF
:102E700048D438681990199819203968C903C917B6
:102E80000818FAD120680007139833463CD401F0A3
:102E9000D3FD206800073BD4386819901998192091
:102EA0003968C903C9170818FAD1206808210140F8
:102EB0004B424B410007C0171399084024E0129978
:102EC000C8B20023032826D3129326E02068C00648
:102ED00018D438681990199819203968C903C91786
:102EE0000818FAD12068C006139833460CD48B4AD0
:102EF000917800230120022901D3491E91700C9E74
:102F000012900CE0139833460106139607D17AE02D
:102F100000231398F8E7491C129101200C9E2168A8
:102F2000C90758D10D9311967D4F00977D4C0194A0
:102F3000042500202946139002467B4BFEF771F9C9
:102F400076484078009701940028784B00D0784B61
:102F5000C0202946139F3A46FEF763F96F488378ED
:102F60000A200090734C20460F99734A03F032FBFD
:102F70006B4800906B4801900826384631463A4627
:102F80002346FEF74EF9FF240094F0201827032271
:102F9000294615463A462B46FEF7B2F80094CC2057
:102FA00031463A462B46FEF7ABF8129AD0B2811E54
:102FB000022912D30128614F13D00028604C1BD185
:102FC0005748009057480190F020042100225D4BA3
:102FD000FEF727F910E0139015E0951E584C574F57
:102FE0000AE04F4800904F480190CC200821002271
:102FF000544BFEF716F9524CE8B2FFF7ABFDFEF763
:10300000C1FA119E0D9B002B07D1022B0ED102F0AD
:10301000CDF9002E15D002240BE040480B998170A9
:103020000A994170002E0CD0012402E00024002EE9
:1030300003D0FDF7C3FEFEF70DF8002C404C00D185
:10304000A7E6FDF70BFF012100201390022011904D
:103050003D4A01F0BBFB00253C482946FFF78EFCAA
:10306000FDF7F8FF2D48416807918068119001270E
:10307000139506951295344B39461868149A1042E8
:103080002E4F0DD138681990199819203A68D2033B
:10309000D2171018FAD11868149A104200D1EFE034
:1030A0001868149A10420CD1386819901998192090
:1030B0003A68D203D2171018FAD11868149A10423D
:1030C0001FD0206800070BD4386819901998192070
:1030D0003A68D203D2171018FAD12068000710D529
:1030E0002068C0060BD438681990199819203A68DE
:1030F000D203D2171018FAD12068C00601D50620D5
:1031000012901398C0B2032800D9B1E07844007936
:10311000400087441D598B9C63F600082000002066
:10312000197700082EA20008ABF50008CFF50008BB
:1031300070F6000838000020BCF3000810E000E042
:103140001004005043F400081000005046F6000838
:10315000206800070CD438681990199819203A682B
:10316000D203D2171018FAD12068000700D497E0D4
:103170002068C0067CD438681990199819203A68DC
:10318000D203D2171018FAD12068C00670D407985D
:10319000FDF7BEFC04460D46F44F3A46F44BFCF7EF
:1031A000EDFFF44AF44BFDF721FC06462046294684
:1031B0003A46F24BFCF7E2FFFDF7BEFC002E00D1D1
:1031C00007980021139186E0206800070BD4386827
:1031D0001990199819203A68D203D2171018FAD109
:1031E000206800077DD52068C00641D43868199052
:1031F000199819203A68D203D2171018FAD120680A
:10320000C00635D41198FDF783FC04460D46D74F10
:103210003A46D74BFCF7B2FFD64AD74BFDF7E6FB51
:103220000646204629463A46D44B6DE02068000702
:103230001ED438681990199819203A68D203D21709
:103240001018FAD12068000712D401F0C3F92068E1
:1032500000070DD438681990199819203A68D203DC
:10326000D2171018FAD12068000701D401F0B9F97B
:103270000027002900D1FFE63D46F24F119A51E0A8
:103280001399C8B2032802D30020139001E0491C0F
:103290001391EC4F119AFF20129001210C9D41E0F7
:1032A000079E3046FDF734FC04460D46AF4AE64B18
:1032B000FCF764FF00221392E44BFDF76BFB07461B
:1032C00020462946A94AE24BFCF758FFFDF734FC9B
:1032D000002F00D1304601210C9D0790DD4BDE4CC4
:1032E000CBE71198FDF714FC04460D469F4F3A4674
:1032F000D54BFCF743FF0022D44BFDF74BFB0646B2
:10330000204629463A46D24BFCF738FFFDF714FC1D
:10331000002E00D1119801210C9D13910246CD4B36
:10332000CD4CC84F2068C007119200D0ACE0099581
:103330000798FDF7EDFB8D4AC34BFCF71FFFFDF728
:10334000FBFB0546FDF788FB0446FDF765FB0146E0
:103350002846FDF74EFA3946FDF753FAFDF77CFB98
:103360000090BE4805460F99BD4A234603F032F946
:10337000BC480090BC48019004210D913E460027B6
:1033800038463A462B46FDF74CFF1198FDF7C0FB37
:10339000764AAD4BFCF7F2FEFDF7CEFB0546FDF796
:1033A0005BFB0446FDF738FB01462846FDF721FA92
:1033B0003146FDF726FAFDF74FFB0090A74E304649
:1033C0000F99AA4A234603F005F9A6480090A6489B
:1033D000019008210B9138463A463346FDF721FF0C
:1033E000FDF746FCFDF794FB604A974BFCF7C6FEE1
:1033F000FDF7A2FB0446FDF72FFB0546FDF70CFB8E
:1034000001462046FDF7F5F98E49FDF7FAF9FDF77B
:1034100023FB009030460F99954A2B4603F0DAF8CB
:1034200090480090904801900C2138463A46334627
:10343000FDF7F7FEFF200A900090B424182503261C
:1034400020460D992A463346FDF75AFE0A98009009
:1034500020460B992A463346FDF752FE139AD0B206
:10346000811E022914D3012814D000287A4C099D0A
:103470001CD17C4800907C480190B420042100229B
:103480007C4BFDF7CEFE11E0002D0F4617D1F3E582
:10349000961E09E07348009073480190B4200821FB
:1034A0000022744BFDF7BDFE6B4C099DF0B2FFF797
:1034B00051FBFEF767F8002D664B00D1DCE5129852
:1034C00000064CD0FDF77AFC624B2068C0060CD495
:1034D000694A10681990199819201168C903C91709
:1034E0000818FAD12068C00623D5206800070CD43C
:1034F000614A10681990199819201168C903C917F1
:103500000818FAD12068000713D5186814990842E2
:1035100000D0B1E5584A106819901998192011681F
:10352000C903C9170818FAD118681499084200D0BD
:10353000A2E5514A10681990199801201168C90331
:10354000C9170818FAD1129AD1B20020FF2901D068
:10355000521E00E0C24312921106B6D103E0FDF7FD
:1035600055FC3C4B0698129086E5C0467B14AE474E
:10357000E17A74BF9A9999999999E93FE17A84BF60
:1035800000253E482946FFF7F9F9FDF763FD3C4861
:10359000C1680D9100691190012712950695139548
:1035A0002C4B39461868149A1042334F0DD13868A5
:1035B0001990199819203A68D203D2171018FAD125
:1035C0001868149A104200D1EDE01868149A10425D
:1035D0000CD138681990199819203A68D203D2177B
:1035E0001018FAD11868149A10421FD020680007EA
:1035F0000BD438681990199819203A68D203D21759
:103600001018FAD12068000710D52068C0060BD426
:1036100038681990199819203A68D203D2171018EF
:10362000FAD12068C00601D5062012901398C0B2C6
:10363000032800D9AFE0C0467844007940008744B1
:10364000215588990000C842E17A743F0000084083
:10365000E17A843F10000050100400503800002030
:103660003AF30008197700082EA2000852F3000868
:103670006AF3000843F4000810E000E053F6000885
:1036800020000020206800070CD438681990199891
:1036900019203A68D203D2171018FAD1206800070F
:1036A00000D491E02068C00675D438681990199844
:1036B00019203A68D203D2171018FAD12068C00630
:1036C00069D40D9E3046FDF723FA04460D46FD4AA7
:1036D000FD4BFCF753FD00221392FC4BFDF786F9DE
:1036E000074620462946F74AF94B81E02068000743
:1036F0000CD438681990199819203A68D203D21757
:103700001018FAD12068000700D4B8E12068C0067C
:1037100041D438681990199819203A68D203D21701
:103720001018FAD12068C00635D41198FDF7F0F9C9
:1037300004460D46E34F3A46E34BFCF71FFD0022DB
:10374000E24BFDF753F90646204629463A46E04B40
:10375000A8E1206800071ED438681990199819202C
:103760003A68D203D2171018FAD12068000712D491
:1037700000F03FFF206800070DD4386819901998B1
:1037800019203A68D203D2171018FAD1206800071E
:1037900001D400F039FF0027002900D101E70B9781
:1037A000119A0D9D32E01399C8B2032802D300206C
:1037B000139001E0491C1391119A0D9DFF20129066
:1037C00001210C980B9021E00D9E3046FDF7A0F9E9
:1037D00004460D46BB4ABF4BFCF7D0FC00221392B7
:1037E000BD4BFDF7D7F8074620462946B54ABB4BE7
:1037F000FCF7C4FCFDF7A0F90546002F00D13546C3
:1038000001210C9A0B92B64BB64C119A2068C00756
:1038100011920D9500D0C0E0002728463946FDF7EB
:1038200095F804462846FDF773F902460B46002C2E
:10383000A84900D1A449A348FCF7A0FCFDF77CF9F6
:103840000546FDF709F90A90FDF7E6F80146284616
:10385000FCF7CFFFA449FCF7D4FFFDF7FDF8C11733
:1038600046184E402846A149FDF746F8044628462A
:10387000FDF74EF9934A964BFDF7B8F800960028ED
:103880009B4800D19B48002C994A9B4C9B4D9C4ED9
:1038900000D1024620460F990A9B02F09BFE00963B
:1038A0000195042138460A913A462346FDF7B9FCB2
:1038B000119D28463946FDF749F804462846FDF78C
:1038C00027F902460B46002C824900D17E497D48EB
:1038D000FCF754FCFDF730F90546FDF7BDF80990FB
:1038E000FDF79AF801462846FCF783FF7E49FCF76E
:1038F00088FFFDF7B1F8C11746184E4028467B49AE
:10390000FDF708F804462846FDF702F96D4A704BAA
:10391000FDF76CF8009600287A4800D17A48002C10
:10392000784A754C754D764E00D1024620460F9967
:10393000099B02F04FFE0096019508210991384637
:103940003A462346FDF76DFCFF2007900090D826ED
:103950001824032530460A9922462B46FDF7D0FB52
:10396000079800903046099922462B46FDF7C8FB80
:10397000139AD0B2811E022914D3012814D0002832
:10398000584C1CD15E4800905C480190D82004211E
:1039900000225E4BFDF745FC11E00B9800280F4616
:1039A00017D1FEE5951E09E0554800905348019057
:1039B000D82008210022554BFDF733FC494CE8B2D2
:1039C000FFF7C8F8FDF7DEFD0B980028444B00D147
:1039D000E7E5129800064CD0FDF7F0F9404B20685F
:1039E000C0060CD44A4A1068199019981920116819
:1039F000C903C9170818FAD12068C00623D5206862
:103A000000070CD4424A10681990199819201168BF
:103A1000C903C9170818FAD12068000713D5186818
:103A20001499084200D0BCE5394A106819901998D9
:103A300019201168C903C9170818FAD11868149910
:103A4000084200D0ADE5324A10681990199801205B
:103A50001168C903C9170818FAD1129AD1B2002007
:103A6000FF2901D0521E00E0C24312921106B6D1C6
:103A700003E0FDF7CBF91A4B0698129091E51198E7
:103A8000FDF746F804460D460E4F3A46114BFCF73B
:103A900075FB0022104BFCF77DFF064620462946A9
:103AA0003A460E4BFCF76AFBFDF746F8002E00D1B4
:103AB000119801210C9A0B9202461391084B094C64
:103AC0006FE6C0467B14AE47E17A74BF000024C0A5
:103AD000E17A84BFE17A743F00002440E17A843FB8
:103AE00010000050100400500000C842000080BFC9
:103AF000EAF4000870F40008380000202EA2000844
:103B00001977000869F500084CF5000843F400082F
:103B100010E000E00026F1483146FEF72FFFFDF7E8
:103B200099FAEF4A10680F99084310601068202135
:103B30000143102081431160EA48808A11900127D7
:103B4000E94B38461968149A1142E84F0CD139688C
:103B50001991199919213A68D203D2175118FAD13B
:103B60001968149A114253D0F1B202292AD00129BE
:103B700039D0002948D1216809070BD43968199137
:103B8000199919213A68D203D2175118FAD121682C
:103B9000090742D52168C90636D43968199119999F
:103BA00019213A68D203D2175118FAD12168C906EF
:103BB0002AD47E20C043119A11B2814233DD521EB5
:103BC000119230E0216809071ED4396819911999BA
:103BD00019213A68D203D2175118FAD1216809077E
:103BE00012D400F020FD216809070DD4396819911D
:103BF000199919213A68D203D2175118FAD12168BC
:103C0000090701D400F008FD0027002899D00DE035
:103C1000F0B2022807D2761C06E0119908B27F287C
:103C200001DA491C1191002601200C9F2168C90767
:103C30005FD11397119805B2AD4804460F99AD4A6C
:103C40002B4602F0C7FCAC480090AC480190042120
:103C50001291002738463A462346FDF7E2FAA84873
:103C60000088FCF7E4FEA749FCF7CBFD0446284694
:103C7000FCF7D2FEA349FCF7C4FD01462046FCF741
:103C800067FDFCF745FFA04AA04BFCF777FAFCF76D
:103C900053FF0446FCF7E0FE0546FCF7BDFE014677
:103CA0002046FCF7A6FD9A49FCF7ABFDFCF7D4FED5
:103CB00000908F4C20460F99964A2B4602F08AFCC2
:103CC0008D4800908D480190082138463A46234699
:103CD000FDF7A7FAFF200090A820182203251299CB
:103CE0002B46FDF70DFAF0B2411E022905D2751ED2
:103CF0000FE0002F074617D123E7002809D17E489F
:103D000000907E480190A82004210022824BFDF7FC
:103D100088FA824CE8B2FEF71DFFFDF733FC1398DA
:103D20000028714B00D10CE7FDF748F8FDF792F938
:103D300006E700267A483146FEF720FEFDF78AF9AD
:103D40006848807D13900124674B20461968149AB7
:103D50001142724C0CD139681991199919213A689C
:103D6000D203D2175118FAD11968149A114255D0BA
:103D7000F1B202292AD0012939D0002948D121687D
:103D800009070BD439681991199919213A68D20396
:103D9000D2175118FAD12168090744D52168C906FC
:103DA00036D439681991199919213A68D203D21772
:103DB0005118FAD12168C9062AD47E20C043139A2B
:103DC00051B2814237DD521E139234E02168090757
:103DD0001ED439681991199919213A68D203D2175A
:103DE0005118FAD12168090712D400F039FC216872
:103DF00009070DD439681991199919213A68D20324
:103E0000D2175118FAD12168090701D400F01FFC1C
:103E10000024002899D02246404C0FE0F0B202283E
:103E200009D2761C08E01399C8B27F2801D11390FB
:103E300001E0491C1391002601200C9A2168C90752
:103E40002BD11292139843B229480F99294A02F0B4
:103E5000C1FB29480090294D0195042700242046E4
:103E600039462246224BFDF7DCF9234800900195A4
:103E70000821012220462B4BFDF7D3F9FF200090AB
:103E8000A8201822032539462B46FDF739F9F0B250
:103E9000411E022905D2751E0FE0002A044617D1E3
:103EA00053E7002809D11448009014480190A82035
:103EB00004210022184BFDF7B4F90C4FE8B2FEF7CD
:103EC00049FEFDF75FFB12980028074B00D13CE745
:103ED000FCF774FFFDF7BEF836E7C046FBF50008B7
:103EE00020000140200000201000005010E000E001
:103EF00038000020E2F30008197700082EA200081D
:103F00007800F81FB98B3B3FFCA9F1D24D62403FCE
:103F100000007A4484F3000843F4000810040050C1
:103F200033F60008A1F300080221DEA0FEF726FD0B
:103F3000FDF790F800242646139416A9DD48FCF7F7
:103F4000C7FE002830D116AD288801F0D5FB044605
:103F50006888FCF76CFD01462046FCF752FCD64908
:103F6000FCF78CFC0546D54F7C882046FCF75FFDAE
:103F700001462846FCF73DFCD149FCF742FC0546CA
:103F8000F888001BFCF748FD01462846FCF776FC44
:103F9000CC49FCF7DDFB19A98851361D142ECCD174
:103FA00019A801F061FB1390FF2007900006C64995
:103FB00009688143189116A801F0A0FA112001F0B8
:103FC00069F9802404408500122001F063F980091A
:103FD00028180121002CBD4E0D9105D00A460F99DD
:103FE000FF3108405102081AFCF770FA02460B46EE
:103FF000002CB74900D0B74900200B90FCF770F9AE
:10400000FCF79AFD1290169C2046FCF725FD0A90BD
:10401000FCF702FD01462046FCF7EBFBA849FCF744
:10402000F0FBFCF719FD099030460F9F3946AA4A6C
:10403000AA4B02F0CFFAAA480090AA4801900421A6
:104040000024204622463346FDF7EBF819ABA6487C
:10405000194664C864C19D4E30201871A3A0009019
:1040600030463946A44A02F0B5FA9D4800909D4D6D
:1040700001950621204622463346FDF7D2F818ABBB
:10408000304639469D4A02F0A5FA954800900195C0
:104090000821204622463346FDF7C3F8139F3846D1
:1040A0002146FCF753FC05463846FCF731FD024635
:1040B0000B46002D924900D192499348FCF75EF8D7
:1040C000FCF73AFD05462146FCF732FC002809D1F1
:1040D00028468E49FCF710FC002803D115A82D2195
:1040E000018001E015A80470754F2846FCF7B4FC68
:1040F0000446FCF791FC014613952846FCF779FB32
:104100003946FCF77EFBFCF7A7FC81490B68096880
:10411000029415AA0192090C0091C1174018484059
:1041200003907C48034030460F997B4A02F052FAD4
:104130006B4800906B4801900A21002420462246DB
:104140003346FDF76EF8179D28462146FCF7FEFB27
:1041500006462846FCF7DCFC02460B46002E684962
:1041600000D168496848FCF709F8FCF7E5FC05460A
:1041700017902146FCF7DCFB002809D1284663494B
:10418000FCF7BAFB002803D115A82D21018001E01E
:1041900015A804701EA90322604801F037FA002810
:1041A00001D0FE262EE01EA8079A089E01785140F5
:1041B00022464B00090601D531214B40D9B2531C90
:1041C000072A1A46F5D3421CB04210460A46EDD1E2
:1041D0001EA88078884252A413D11EA90878497875
:1041E00000221646A35C032A02D8034202D104E04F
:1041F0000B4202D04023D3401E43521C072AF1D168
:1042000000E0FF262846FCF727FC0446FCF704FCE8
:1042100001462846FCF7EDFA3946FCF7F2FAFCF7BE
:104220001BFC099904910A990391019415A9009125
:10423000C117401848400290F3B2244D28460F9908
:10424000394A02F0C7F926480090264801900C210F
:104250000024204622462B46FCF7E3FF129E304600
:104260002146FCF773FB05463046FCF751FC02463D
:104270000B46002D224900D122492348FBF77EFF3F
:10428000FCF75AFC05462146FCF752FB00284DD1AD
:1042900028461E49FCF730FB002847D115A82D21E0
:1042A000018045E0E7B3BBE7BB9FE4BFA1E681AF78
:1042B00000000000000006CC00803B457800F81F9D
:1042C0000000C8420000F041FC0708083800002048
:1042D0000000D03F0000D0BF0AF4000827F3000818
:1042E0009C8C0008909200081CF7000831343A3486
:1042F000383A3532000000001DF40008F7F30008DA
:10430000E17A743FE17A74BF7B14AE47000080BF4E
:1043100000580140FF0F0000BFF400082DF300001B
:1043200080200804100201001BF5000815A8047085
:104330002846FCF791FB0446FCF76EFB01461295FC
:104340002846FCF756FA3946FCF75BFAFCF784FB83
:1043500007460E25284600F09DFF11900F2000F023
:1043600099FF0646102000F095FF039415A90291CD
:1043700001900096F817391841400491ED4E3046EF
:104380000F99ED4A119B02F025F9EC480090EC489A
:10439000019000242046294622463346FCF741FF7F
:1043A0000B98002800D0BDE0FDF7ECF8FDF768FBA6
:1043B00001200B9038E60124E2A02146FEF7DEFA48
:1043C000FCF748FE2546E34B20461968149A114233
:1043D000E14C0CD139681991199919213A68D20325
:1043E000D2175118FAD11968149A11422AD0E9B299
:1043F000012911D000291FD1216809071CD439686F
:104400001991199919213A68D203D2175118FAD182
:104410002168090710D42BE1216809070CD43968F9
:104420001991199919213A68D203D2175118FAD162
:104430002168090700D4C3E100240028C4D027461E
:10444000C54C04E0E8B24542454101200C9F21687B
:10445000C9072FD10220401BC0B2FEF77BFBBF482B
:104460000090BF4801900421002420462246BD4B05
:10447000FCF7D7FEB14E0096BB4E01960A212046AE
:104480002246BA4BFCF7CDFEAC48009001960C21B9
:1044900020462246B6A3FCF7C4FEA8480090019629
:1044A0000E2120462246B7A3FCF7BBFEFDF76AF8B3
:1044B000002F01E0002F0446BA4F84D0FCF77EFCA9
:1044C000FCF7C8FD7FE700242046FCF7B1FFFCF7AE
:1044D00035FEFDF757F8FDF7D3FA7D20C5002846D5
:1044E000FDF752FA00942520C200102320461394B1
:1044F0002146FCF705FEFDF745F8FDF7C1FA284611
:10450000FDF742FAFCF71AFEFDF73CF8FDF7B8FAA2
:104510002846914CFDF738FAFCF7A0FC09201190D1
:104520008C4A54E08B4A9F4F1068149908420CD172
:1045300038681E901E9819203968C903C9170818D1
:10454000FAD110681499084239D083480068C0062F
:1045500010D438681E901E9819203968C903C917ED
:104560000818FAD17C480068C00603D4641CFCF724
:1045700071FD02E03220FDF707FA764A082CD3D30A
:10458000CF200021884AFCF735FEFCF7FBFFFDF742
:1045900077FA704A1068149908420CD138681E9056
:1045A0001E9819203968C903C9170818FAD110686C
:1045B0001499084203D03220FDF7E6F9E9E7FCF749
:1045C0004DFC644A0020139007201190624C0E9B12
:1045D0000D99FCE07548079941601199816000F0E0
:1045E000E5FEFCF73BFC5B4A012100201390032011
:1045F000EBE06E480D9AC260119901616C4802604F
:104600006C48016000F0D2FEFCF728FC514A012101
:10461000002013900420D8E0674811990180634876
:10462000818200F0C3FE264601242002634A1168FD
:10463000814311601068302188431060FCF70EFC44
:1046400021463446434A002013900520BDE05748D8
:1046500013998175C9B2102000F039FE00F0A6FE52
:10466000FCF7FCFBF74A0121002013900620ACE088
:10467000FCF7F4FBF648F74E31461CC81CC11CC8B9
:104680001CC1AA20307000F091FEFCF787FFFF20CC
:1046900000902520C200002504240C232846214632
:1046A000FCF72EFDED480090EB480190284621468E
:1046B00034462A46EAA3FCF7B4FDE8480090E648F1
:1046C000019008212846119113952A46E8A3FCF78A
:1046D000A8FDFCF757FF7078002821D0F920EB499E
:1046E000C8604868FA2801D313984860A078FCF79E
:1046F000DBFCE64AD0684008506010680F99084318
:1047000010603868199019980846F4303968C90360
:10471000C9170818FAD101200002116881431160FD
:10472000FDF7AEF9DA48FDF72FF90121C54AC64C6D
:104730004CE0C046380000208DF400089C8C000836
:1047400090920008E681A2E5A48DE8AEBEE7BDAE7A
:1047500000000000100000501004005019770008FD
:104760002EA200080EF600080A950008DDF50008E4
:1047700020E5B9B6E68C8922E5A48DE4BD8D22E959
:1047800094AE000020E58FAFE4BBA5E5BCBAE58898
:10479000B6E693A6E999A4E585A8E983A8E695B0CD
:1047A000E68DAE0010E000E0F5D600082000002005
:1047B00038010020080000204601002020000140B0
:1047C000FCF74CFB9F4A0121082011900E9B109D85
:1047D000681E2E4686411296002D00D00123180631
:1047E00076D02068C00774D10D91FF20009000267C
:1047F000042118220C233046FCF782FCA648A54D64
:104800002860964800909448019003241198204015
:104810006043011D304632462B46FCF702FD0094F2
:104820001198C4B2A008431C28460F999B4A01F076
:10483000D1FE8A48009088480190EC200D210E9608
:1048400032462E462B46FCF7ECFC032C57D830465C
:104850009A493CC93CC009780170804800907E4864
:10486000019019240421002520462A463346FCF7EE
:10487000D8FC93483146CCC8CCC102880A808078E5
:1048800088707648009074480190072120462A4697
:10489000804BFCF7C6FC7F488A49CCC9CCC07D4E12
:1048A0006A4F0A880280897881706C4800906A4853
:1048B00001900A2120462A463346FCF7B2FC824882
:1048C00031463CC83CC102880A808078887057E035
:1048D0000023129800280CD01E4625460C46FCF7F3
:1048E0006DFAFCF7B7FB21462C463346554A0020AB
:1048F00010901398002801D1FEF7B8F9A0E0072C1A
:1049000052D8304669490CC90CC01CC91CC0534858
:1049100000905148019019240421002520462A4680
:104920003346FCF77EFC304661490CC90CC04CC9CB
:104930004CC0097801704948009047480190072110
:1049400020462A46534BFCF76CFC524859490CC987
:104950000CC04CC94CC04F4E097801703F480090C4
:104960003D4801900A2120462A463346FCF759FC6F
:10497000304651493CC93CC00A8802808978817020
:10498000314C364800903448019019200D21002206
:104990003346FCF746FCFCF7F5FD12980028294A3F
:1049A0000E9B0D9998D1A4E70B2C274CF3D8394EC8
:1049B00030463B490CC90CC01CC91CC009780170A9
:1049C00026480090244801901924042100252046FF
:1049D0002A463346FCF725FC30463249CCC9CCC0C8
:1049E0001A4F0A880280897881701C4800901A4802
:1049F0000190072120462A46264BFCF712FC254849
:104A000029494CC94CC0234E0A880280897881709C
:104A100012480090104801900A2120462A46334649
:104A2000FCF7FFFB304620491CC91CC0064C0A8815
:104A3000028089788170A4E700F0B8FCFEF701FBE2
:104A40001FB0F0BD100000501004005010E000E056
:104A5000F8760008200000202EA200081977000830
:104A6000E681A2E5A48DE5AE8CE68890000000000A
:104A7000E4B889E7A792E5908EE8BF94E59B9EE4B1
:104A8000B8BBE88F9CE58D95000000002000004039
:104A9000B80B000038000020E296B60077F6000858
:104AA00058F70008F4F6000880F6000808F7000838
:104AB00028F7000840F70008E0F6000890F6000824
:104AC000CCF60008B8F60008A4F60008F0B59FB0D0
:104AD00031A000211391FDF751FFFCF7BBFA1AA892
:104AE00000F070FB0F20049000F0D4FB40B20028CF
:104AF00003D41AA84079002805D12B481AA90CC85C
:104B00000CC1007808701AA8811D0C91411D0B91F1
:104B1000011D0A91C11C0791C11D06910146083172
:104B20000591811C0891401C0990FF200E901C30BB
:104B30000F90012001021591C10316911B4C1C4FCF
:104B40001C4E0D901890139817901B4800681699EA
:104B500008420DD120681D901D9819202168C903B5
:104B6000C9170818FAD1144800681699084228D0C5
:104B70001798C1B20020112900D9C8E079440979F9
:104B800049008F441B4F54585C6065696F747A8488
:104B9000888D9196A0AEC046E697B6E997B4E8AE88
:104BA000BEE7BDAE000000001077000810E000E096
:104BB000380000201977000810000050022101225F
:104BC00032E01799C8B200221128199201D3114678
:104BD00000E0491C09224A401AA8007A0243D2B2D6
:104BE00053425341C9181791012118911399002973
:104BF00000D1C5E01AA909783C2902D31AA93B22A1
:104C00000A701AA949783C2902D31AA93B224A7092
:104C10001AA9897800287CD00D2900D282E01AA830
:104C20000C2183E00121092200230C98AFE0092226
:104C300000210C9840E0012100230B9825E0092277
:104C400000210B9838E00121032200230A989EE0FE
:104C5000092200210A982FE000210722012307984A
:104C6000199195E0012200210598139202E001229A
:104C70000021069819910B468AE01AA8007A0121B2
:104C8000002800D180E0002308980A467FE009222E
:104C90000021089810E0012105220023099876E000
:104CA00009220021099807E01AA801210522002302
:104CB0006DE01AA80922002119910B46FCF746F96C
:104CC0000121139166E0E44909680A07D217189B8D
:104CD0001340189308220A40910802224A40199270
:104CE00058E0DD490968090711D421681D911D9913
:104CF00019212268D203D2175118FAD1D64909686E
:104D0000090704D4002001211991189042E019905C
:104D100040E0182902D31AA8172181701AA800218F
:104D2000C17104E0002902D11AA8012181701AA8DA
:104D3000C078072801D9072002E0002802D101200D
:104D40001AA9C8701AA800791F2801D91F2002E0EB
:104D5000002802D101201AA908711AA840790C284C
:104D600001D90C2002E0002802D101201AA94871C3
:104D70001AA88079C008192802D31AA8C7218171FE
:104D80000D9D1998139010E00222002308981993A2
:104D9000FCF7DCF8411E05468D41002801D118982A
:104DA00000E001201890000638D0AB480068C0072A
:104DB00000D0B6E014951AACA37960792179E27835
:104DC00000AD07C538461599A6A201F003FC009670
:104DD000AC4D019507200421052212903B46FCF7BB
:104DE00020FA207A00281CD0A8A039461CC81CC173
:104DF0001CC81CC102880A808078887000960195C2
:104E00000520082100223B46FCF70BFA1AA8C079BE
:104E1000072200281CD03846A3A11BE000201890D0
:104E20007FE0A5A039461CC81CC11CC81CC1028853
:104E30000A80807888700096019505240821002258
:104E400020463B46FCF7EDF93846A2A1224601E098
:104E5000384697A1FBF758FC0022009201950524E3
:104E60000C262046314618923B46FCF7DAF91AA880
:104E7000837841780078009101903846159997A27F
:104E800001F0A8FB8048009001953A203146224667
:104E90003B46FCF7C6F91798C0B2022803D8112187
:104EA000414318310BE0042803D811214143353127
:104EB00005E0062800D9A5E01121414352311191A6
:104EC000129810900E9F0097052607210124304666
:104ED0000F9D2A462346FCF713F900970B21304615
:104EE0002A462346FCF70CF900970F2130462A4644
:104EF0002346FCF705F917981038C1B2022907D3E9
:104F0000119880B21099C9B2784AFCF773F903205E
:104F1000C0B2FDF71FFEFCF735FB504C504F5A4E08
:104F2000149D1998022863D11DAC1A9820701B9803
:104F300020711AA8417861708178A17041796171FE
:104F40008179A171C078C01D0721FBF7D1F8481CF9
:104F5000E0700026062E0AD11DA88079642806D3A9
:104F600064381DA988714879802202434A711DAFB7
:104F7000BC5D0A212046FBF7BBF80921C943414328
:104F8000611800010843B855761C072EE2D11AA813
:104F9000007A00280DD01DA98A781F2010400246F3
:104FA00040328A701AA9C979002902D060301DA93F
:104FB000887007201DA900F0A7F90028284F14D1F8
:104FC0000E26304600F066F901467F242140304627
:104FD00000F07DF9002808D10F26304600F05AF97C
:104FE00004403046214600F072F91C4C264E1998B8
:104FF000002D04D0FBF7E2FEFCF72CF819980028EE
:1050000026D1A2E5092807D0082808D007280AD108
:105010000F98C01F119053E71720119016E08420BD
:1050200011900B204DE70B2803D811214143703913
:105030000BE00D2803D8112141435F3905E00F280B
:1050400000D93FE7112141434E391191049838E7C7
:10505000FBF704FF1FB0F0BD1004005010E000E0AB
:10506000380000203225303364E5B9B4253032648D
:10507000E69C8825303264E697A520E591A8256452
:10508000000000002EA2000819770008E697B6E994
:1050900097B4E6A0BCE5BC8FEFBC9A3132E5B08F87
:1050A000E697B6E588B60000E4B88BE58D88000089
:1050B000E4B88AE58D880000E697B6E997B4E6A0E3
:1050C000BCE5BC8FEFBC9A3234E5B08FE697B6E50D
:1050D00088B6000020202020000000002530326427
:1050E0003A253032643A253032640000E3C30008C8
:1050F0007047704781B01048042101600F4940207B
:10510000086008220A6010220A60694664220A8048
:105110000A880988002A06D0491E6A461180138829
:105120001188002BF8D106490A68520602D40A6891
:1051300002430A6001B07047280400501800005074
:105140000030014080B51849C8680007820F174831
:105150007A441279520097440108250D0120000479
:1051600049680904490F884080BD0868C00609D510
:10517000104880BDCA68D20307D40868C00603D5AA
:105180000C4802E00A4880BD0948CA689202120F22
:1051900009A39A5C4243C8680002800F411C104674
:1051A000FAF7A6FF80BDC0460010024000127A0048
:1051B0000024F40000093D00030406080C10182028
:1051C0003000000070B50446D02000210122FCF719
:1051D00031FA00280DD100263046FCF7D3FA00281A
:1051E00007D1D020012507222946FCF723FA002801
:1051F00004D009212046FBF7A0FA70BDFCF700FAA5
:10520000A055761C072EF9D1FCF78CFA0020014638
:105210007F220A40022A05D0052A0CD12256002AF4
:1052200014D520E0225C520607D40022E2712272DB
:10523000235C3F2208E0225C08E02572225C920693
:10524000D20FE271235C1F221A4022540F23134015
:10525000D2B212090A265643F2182254491C401CA5
:105260000728D5D10EE00F21D3060A40DB0F0A250F
:105270006B439A182254A07901400009684308182A
:105280006430A071E0780C300721FAF731FF481C38
:10529000E07070BDB0B50546D02000240122214643
:1052A000FCF7C8F9002810D12846FCF76BFA002853
:1052B0000BD1D02001210A46FCF7BCF9002804D10B
:1052C000FCF79EF90446FCF72DFA2046B0BDF0B578
:1052D00081B00E460746D020002402222146FCF76A
:1052E000A9F9012500280CD13846FCF74BFA002813
:1052F00007D13046FCF746FA002802D1FCF712FA33
:105300002546284601B0F0BDF0B581B00C460546F3
:10531000401CC2B2D0200021FCF78CF901270028E4
:1053200013D100263046FCF72DFA00280DD102E0FB
:10533000641C6D1E06D02078FCF724FA0028F7D0F4
:10534000012700E03746FCF7EDF9384601B0F0BD23
:1053500070B581B0374A13680093009B7D23DB0052
:10536000104C002913D01D462668360605D4166851
:10537000F603F6177519F7D111E040256560057839
:10538000E56015680095009D491E401CE9E720680E
:10539000400604D41068C003C017C318F7D101B089
:1053A00070BDC0461C38014070470000F0B583B0A6
:1053B0007D20C000009000211D4A1E4B1E4C1F4D39
:1053C0000E46264330786F5CB84221D018680190B1
:1053D000019800985569ED0705D01D68ED03ED179C
:1053E0002818F7D113E01068C00703D01448906064
:1053F00014489060377018680290029800985569B8
:10540000ED0709D01D68ED03ED172818F7D10B4DF6
:10541000491C1829D4D109E01068012505431560FD
:105420001068C007054DF3D03078F1E703B0F0BD48
:105430000420024010E000E00000080820000020E6
:10544000EFCDAB8905040302F0B581B000920A46A6
:10545000054609320C211046FAF74AFE0E460A2785
:1054600008463946FAF744FE044699204000704346
:10547000401D3946FAF73CFE00990818291B8CB2EA
:10548000A1084018FF216E31614345186421204670
:10549000FAF72EFE2D1A192001012046FAF728FEF0
:1054A0002818401EC11701B0F0BD7047012002024C
:1054B0000E490B6813430B60CA680D4B1340CB6059
:1054C0000A680C4B13400B608A6882438A6082042E
:1054D0000B6893430B60FD221204CB689343CB60AF
:1054E00000220A61C00604490860704700100240AB
:1054F0000C40FF88F6FFF6FE08ED00E0F0B583B043
:1055000004463A4801A9062200F080F800286BD131
:1055100001AA511CFF2513786B4000255E00312045
:105520001B0600D54640F3B26E1C072D3546F5D359
:10553000551C8A422A461D46EDD101A98978994217
:1055400052D101AA111DD21CFF2513786B400025F2
:105550005E001B0600D54640F3B26E1C072D354693
:10556000F6D3551C8A422A461D46EED101A8407941
:10557000984239D101AF3888000400BAFAF7A6FF83
:1055800000251B4E2A463346FAF712FF194B2A46CE
:10559000FAF7A6FE184B2A46FAF7F0FDFBF7CCFA0D
:1055A000014616480068FBF7D3F860603879F9784F
:1055B00009020818FAF78AFF2A463346FAF7F8FE76
:1055C0000F4B2A46FAF78CFEFBF7B6FA01460D4858
:1055D0000068FBF7BDF805460B4E3146FBF7B6F900
:1055E000002800D12E46266003B0F0BD062C000036
:1055F000E0FFEF4000E06540008046C03801002039
:1056000000005940080000200000C842F0B581B0F9
:1056100014460D460746882000210222FCF70AF8AE
:10562000012600281CD1380AFCF7ACF8002817D155
:10563000F8B2FCF7A7F8002812D1882001263146DD
:105640002246FBF7F7FF00280AD1FBF7D9FF2870A5
:105650006D1C641EF9D1FCF765F80646401E8641B4
:10566000304601B0F0BD0000F0B583B00146002621
:1056700004220446374602900192F8B2800008588E
:1056800025682946FBF762F9002803D037460299BE
:10569000019A10E00097019FF8B280000299085823
:1056A0002946FBF745F9002802D13246029901E06C
:1056B00002993A46009F241D761C052EDCD1F8B2D3
:1056C0008400D0B2870000263546B4420BD0B742E2
:1056D00009D088590749FBF7D1F801462846FBF75E
:1056E00037F802990546361D142EEED1284603B030
:1056F000F0BDC04600004040B0B5044609480088EF
:105700000949098809B2091808484843FBF78FF985
:1057100005462046FBF78BF901462846FBF7AEF815
:10572000B0BDC0467800F81F46010020B80B00004D
:1057300070B584B03E4D0821296101A9087040264A
:105740002E6103A80124048001880088002906D066
:10575000401E03A908800A880888002AF8D101A8F9
:10576000214600F003FF02A8048001880088002978
:1057700006D0401E02A908800A880888002AF8D1AD
:105780002E6004B070BDC04670B584B0284D0821AD
:10579000296001A9087040262E6103A80124048015
:1057A00001880088002906D0401E03A908800A88C5
:1057B0000888002AF8D101A8214600F0D7FE02A8E7
:1057C000048001880088002906D0401E02A90880B4
:1057D0000A880888002AF8D12E6004B070BDC0463F
:1057E000F0B583B0124C082222604025256102AA40
:1057F0000126168013881288002B06D0521E02AB99
:105800001A801F881A88002FF8D100F0AFFE01A877
:10581000068001880088002906D0401E01A9088062
:105820000A880888002AF8D1256003B0F0BDC04678
:1058300018000050F0B587B0514C2168206801274E
:10584000B8432060394004910A202168C90701D07B
:10585000401EFAD178054B490A6802430A600A687B
:1058600082430A6048480168484A1140BB03C9188E
:1058700001604168802631434160C1681140C91808
:10588000C1600168424B19403D03491901604168FC
:10589000402211434160C16819404919C160019615
:1058A0008661826106A964260E800B880988002B18
:1058B00006D0491E06AB19801D881988002DF8D125
:1058C00000200390C04302902F48016909062BD4A1
:1058D0000097304B1968059105997D21CF00002F65
:1058E00025D019682848826206AD2E80C9032C880D
:1058F0002D88002C03D06C1E06AD2C80F7E7C9174D
:105900002148826106AC268020882588002803D0A3
:10591000681E06AC2080F7E7CF191B480069000617
:10592000DDD5039D029E04E0039D029E1AE0039DC7
:105930002E461548019A8262186806900698009FC4
:1059400039460F4C1868C003C0174118FAD10E48E9
:10595000826118680690069801201968C903C91762
:105960000818FAD1FCF7A0FF0498002802D020689C
:1059700038432060E843301A411E884107B0F0BD2B
:10598000005400402810024000040050FF3FFFFF79
:10599000FFCFFFFF10E000E070B5194C2168C90788
:1059A00003D1216801220A432260FBF747F8154A18
:1059B000154BFAF7FDFC0022144BFAF7DFFBFBF75F
:1059C00089F8A26812490A400243A2602246083AB6
:1059D000136802200343136001225307EB4D2E6826
:1059E0001E432E6052030B4B1A60FF310A4A1368A4
:1059F0000B4013602168014304208143216070BD86
:105A0000107C0040D0BAC114F9ACDB3F0000E03F8D
:105A10000000FFFF00E100E00CE400E09FB0104C4C
:105A2000606B012318436063606B184018901898EE
:105A30001907A06B0843A063A06B0591084018905C
:105A40001898084A906920210D910843102110915F
:105A5000884390610448001F01689943016005E094
:105A60000010024008000140042002400168C907FC
:105A7000FCD10325E802054A11688143D80212903F
:105A80000818106020681843206001E00070004092
:105A900020684007FCD51F2000026168814318037D
:105AA000119008186060206D18432065206D8007F4
:105AB000FCD5E06880210791084370210391884359
:105AC000E06007221002E1688143E1600C92D0029D
:105AD000E1688143E160E068184302211691884340
