:020000040800F2
:1000000048050020D500000829500008E515000823
:1000100000000000000000000000000000000000E0
:1000200000000000000000000000000089520008ED
:1000300000000000000000002B5000088B53000857
:10004000E7000008E7000008E7000008E7000008F4
:10005000E7000008E7000008E7000008E7000008E4
:1000600000000000E7000008E7000008E7000008C3
:10007000E7000008E700000800000000E7000008B3
:1000800000000000E7000008000000000000000081
:10009000E700000800000000E7000008E700000893
:1000A000E7000008E7000008E7000008E700000894
:1000B000E7000008E7000008000000000000000062
:1000C0000348854600F02AFA00480047FD5800081A
:1000D000480500200448804704480047FEE7FEE743
:1000E000FEE7FEE7FEE7FEE78D530008C1000008CB
:1000F00030B50B46014600202022012409E00D46C0
:10010000D5409D4205D31D469540491B2546954047
:1001100040191546521E002DF1DC30BDF0B51FB45C
:100120000646002082B005464024019100901BE065
:10013000019922460F46304600F012FA049A059BB8
:10014000801A994110D310461946224600F0F8F95A
:10015000361A8F410197224601200021009F00F0AE
:10016000EFF938184D4100902046641E0028DFDC6E
:10017000019B00982946324607B0F0BDF0B507460E
:100180000846584087B0C00F049048000E465900FA
:1001900040084908BC1A884105D2384631461E46F7
:1001A00017460B4602465800400810434CD0300D0D
:1001B000039040055900400D490D0590401A0290EA
:1001C000402872DA18030121000B09050843019049
:1001D00004980092002805D00199524200208841DD
:1001E00000920190029840210A1A0199009800F0AB
:1001F000A7F905460C466B4607CB00F0C2F9C019BB
:100200007141039A0E0D0023D71756401A467A40C3
:10021000164344D0049A002A2DD0029A012A039A48
:1002200015DC1205C01A914101263605001C7141EA
:10023000D20F059ED2070093019202962A462346CA
:1002400000F0BFF907B0F0BD38463146FAE71605B1
:10025000224A0F46B218C01AB74101210905001CF5
:100260004F4100187F41114618187941E20F1043A1
:100270006D19644113E0E2076D0815436408C20775
:100280001443039A01261205C01A91413605001C39
:100290007141CE07400830434908C01851412A46F1
:1002A000234600F081F9CDE7FFE7049801224000E2
:1002B000C117121A00238B4104983146C417381A0B
:1002C000A141EEE730B40124E407634030BC55E7B8
:1002D00030B40124E407614030BC4FE70000E0FF88
:1002E000F0B51FB488B00B990998002448400999CB
:1002F000C00F490049080991C0070B9900904900B7
:1003000049080B9109990898A64608431CD00B99F7
:100310000A98084318D0099801244000420D48006B
:10032000410D099824050003000B204309900B9808
:100330000003000B20430B9050181C49401800226A
:1003400001901446104605E0002001460DB0F0BDB6
:10035000032801DA034600E003239C46C11A0AAED3
:100360000AE05F0008ADED5B4F00F75B7D430027BF
:10037000AA187C41491C5B1E6145F2DD410004ABBB
:100380005A522104120C0A43240C401C0828DFDBBB
:10039000019802900099704601910090059B049A83
:1003A0000799069800F00DF9D0E700000DFCFFFF5B
:1003B000F0B50C465C4085B0E40FE40703944C00B4
:1003C00000266408590094464908024602962243D2
:1003D00021D062460A431ED06200570D4A000E0328
:1003E0002303550D012402462C492405781B1B0BC1
:1003F000360B401823432643614600901C46501A92
:10040000B44103D30098401C009002E09218009879
:100410005B41002803DA0020014605B0F0BD002052
:10042000012109050746864611E064461D46141B56
:10043000B54106D36546521BB341744607430C438E
:10044000A646CD0740084908284392185B41054657
:100450000D43EAD11046184313D060461946504068
:100460007140084306D06046101AB34106D20122FB
:10047000002306E000220123DB0702E00122D24331
:100480005310009874460105381C6141029C039D7D
:100490000019694100F088F8BFE70000FD03000083
:1004A00070B54B005B0803430BD04B005C0D00267E
:1004B00033466542B341D417AD1AA34102DB002095
:1004C000014670BD12053018514170BD0EB5C217FE
:1004D000C10F5040CA0740180021054B02930192FA
:1004E00000910A460B4600F06CF803B000BD000016
:1004F0003304000010B5002904DB0124E407404266
:100500008C412146002B04DB1C460123DB075242B1
:10051000A341994200D1904210BD0000064C012534
:10052000064E05E0E36807CC2B430C3C984710349B
:10053000B442F7D3FFF7C8FDE8F0000808F100085F
:1005400010B5202A04DB0146203A9140002010BD5E
:10055000914020239C1A0346E3401943904010BD6C
:1005600010B5202A04DB0846203AD040002110BDF7
:100570000B46D340D0402024A21A9140084319468C
:1005800010BD10B5202A06DBCB170846203A1041D3
:10059000C1170B4306E00B461341D0402024A21A9A
:1005A00091400843194610BD10B5002B08DA00240D
:1005B000401C614192185B411A4301D14008400040
:1005C00010BDF0B51FB482B005460C0003D008463C
:1005D00005F0ACFF02E005F0A9FF203002460090D4
:1005E00021462846FFF7ACFF049B059A04460F46B8
:1005F00018431143084314D0184610431BD00098E9
:1006000040210A1A18460599FFF7AAFF05460E462B
:10061000009A05990498FFF793FF084305D001203D
:1006200004E02046394607B0F0BD0020C11705435D
:100630000E432C43374300990E986305401A790501
:10064000E40A00220C43FD0A0A3002D500200146CC
:10065000E9E70105101969410C9C0D9D00196941DC
:10066000FFF7A2FFDFE7FEB500231A461B1A8A41F7
:1006700003DB0020014603B0F0BD4A000D03012159
:100680002D0B0905520D0D43D10702D100186D4104
:10069000521E5110FF31FF310131002704463E4602
:1006A0003846009701910246012100200905FFF715
:1006B00057FFC3197141F818324684468E464A41A5
:1006C00061462846611A904104D36046241A954138
:1006D00076461F46241900986D41401C009034282E
:1006E000E1DDF91930467041091BA84103D200220F
:1006F000D243134601E00022134601980105381C3D
:100700007141FFF751FFB6E703460B439B0703D048
:1007100009E008C9121F08C0042AFAD203E00B78C6
:100720000370401C491C521EF9D27047D2B201E03E
:100730000270401C491EFBD270470022F6E710B53C
:1007400013460A4604461946FFF7F0FF204610BD3F
:10075000F8B502464A40D40F42004B0052085B08ED
:100760009A4202D20246084611464A0023D0C30DDF
:100770004A00DDB2120EAD1A202D35DA49020126EB
:10078000490AF6058A19002C00D0524220214F1B3D
:100790001146B9402A411018C20D9A4221D0002CAE
:1007A00017D0012D08DCDA05801AD20F8019D20784
:1007B000DBB200F0E5F9F8BDDA05801A012340004C
:1007C0001B06C01880185A428018CA0F10434900EF
:1007D00007E04908C2071143DA05801A801940086A
:1007E000801800F0C5F9F8BD61000122511A001B04
:1007F000F7E70122D2075140AAE70122D207504071
:10080000A6E7024670B54A40D30FDB0740002DD063
:100810004A002AD0010E140E000212020919400AE1
:10082000520A8418E50104465443000A120A2E04B1
:100830005043A4194219200CC543AA18120C0125D3
:10084000AD03521C521912047F39240400D0521CEB
:10085000104301D44000491EC2B20C06C009201842
:10086000401C4008802A02D003E0002070BD4008F0
:100870004000002900DA0020184370BD70B5024620
:100880004A40D50F40004A00ED07400852080028B2
:1008900014D0002A12D0C40DD30D41020120C0058E
:1008A0005202490A520AE41A091812187D34914278
:1008B00001D3641C00E04900002C01DA002070BD67
:1008C0000023914201D3891A0343400849000028BC
:1008D000F7D100290AD0914202D10121C90705E0D0
:1008E000914201D2012101E00121C943E005C01874
:1008F000401900F03DF970BD0122D207002800DB4D
:10090000101A002900DB511A814201D801207047DA
:10091000002070470122D207002800DB101A0029AE
:1009200000DB511A814201D201207047002070473C
:100930000122D207002800DB101A002900DB511A1F
:10094000814201D301207047002070470122D20765
:10095000002800DB101A002900DB511A814201D95E
:10096000012070470020704710B5002904DB0C46B9
:100970000121C9074042A141002B04DB1C46012391
:10098000DB075242A341801A994101D3012010BDD7
:10099000002010BD10B5002904DB0C460121C90759
:1009A0004042A141002B04DB1C460123DB075242DD
:1009B000A341101A8B4101D2012010BD002010BDAF
:1009C00010B5002904DB0C460121C9074042A141B2
:1009D000002B04DB1C460123DB075242A341101A03
:1009E0008B4101D3012010BD002010BD10B500299E
:1009F00004DB0C460121C9074042A141002B04DB66
:100A00001C460123DB075242A341801A994101D2BF
:100A1000012010BD002010BDC217C10F504010B5FD
:100A20004018CA079623002100F0AAF810BD10B59F
:100A300000229623114600F0A3F810BD0EB505491B
:100A40000291002100910A460B460191FFF7B9FD82
:100A500003B000BD33040000C20F41004002012377
:100A6000400ADB05D207090EC0187F2901DA0020F1
:100A70007047962903DC9623591AC84001E096393D
:100A80008840002AF4D040427047000070B5CD0F76
:100A90004A0009030123090B1B0519430B4BED0702
:100AA0000024520D9A4201DA002070BD074B343306
:100AB0009A4203DC9A1AFFF753FD02E004495118E9
:100AC00088402C43F1D0404270BD0000FF0300007D
:100AD000CDFBFFFF4A0009030123090B1B05194346
:100AE000094B10B5520D9A4201DA002010BD064B99
:100AF00034339A4203DC9A1AFFF732FD10BD0349E2
:100B00005118884010BD0000FF030000CDFBFFFF1F
:100B1000C20FD207400040080BD0C10D0723DB01F4
:100B2000C91840020905400A1143C2084007114391
:100B30007047002001467047CB0FDB07490010B516
:100B4000490802460A4307D00A0D07240903E401B5
:100B5000090B121B002A01DC002010BDC900440F44
:100B60000C43C100E018D205801800F001F810BD58
:100B7000002904DA401C490001D1400840007047B8
:100B800070B40024050C05D11024000402D1002902
:100B900021D01124050E01D100020834050F01D126
:100BA0000001241D850F01D18000A41C002801DB59
:100BB0004000641C002908D020252E1B0D46F5405E
:100BC000A14000D001212943084301061B1B000A54
:100BD000DB1D02D5002070BC7047DB05181880189B
:100BE0000029F8DA401C4900F5D170BC40084000EB
:100BF00070470000B0B581B01B480168C90731D00B
:100C00007D21C900026852076A4BBC4A10D40468AF
:100C10001C4002232343036013680093009B036876
:100C2000DB0717D01368DB03DB175918F7D119E07E
:100C300004681C4010252543056014680094009C3E
:100C40000C460568ED06E2D51568ED03ED172C1985
:100C5000F7D107E00146083901220A600168034A1A
:100C60000A40026001B0B0BD08240140E8FFFF6FF8
:100C7000F0B587B00026134D009606A9284600F06F
:100C800027F800281AD106AF788804F0A5FC04469E
:100C90003888FFF7CCFE01462046FFF7B2FD0A492F
:100CA000FFF7ECFD0949FFF7E9FD01A98851361D61
:100CB000142EE2D101A804F047FC00E0009807B030
:100CC000F0BDC046020002C400F07F4500007A4437
:100CD000F0B583B00246334B1C680120E4074DD0C9
:100CE000314C22409A62082200921A6004241C604F
:100CF00000252E4A2E4E37683F0705D46F1CADB233
:100D000095423D46F7D106E0ADB2954203D10022AF
:100D10004A800A8032E00190986820404242424175
:100D20007D20C0000027DF4ED20704D09A68214DF5
:100D30002A4022439A6032680292029A02461D6853
:100D40006D0705D43568ED03ED17AA18F7D114E047
:100D50001A6C194D2A407D004A531C609D6825403D
:100D60006A426A417F1C022FDED10446002D0198A1
:100D700006D100981860002000E0019803B0F0BD93
:100D800099680C4A114010220A439A603168029116
:100D900002999968C906ECD53168C903C9170C19BD
:100DA000F7D1EBE700240140FFFF0700FEFF000042
:100DB00004700040E8FFFF7FFF0F000010B582B015
:100DC0004B48417800291FD04A4CF921E160616805
:100DD000FA2901D300216160807800F065F9E068AC
:100DE0004008606001200002216801432160AD4994
:100DF0000A680192019A14220B68DB03DB179A1828
:100E0000FAD121688143216002B010BD10B582B0D3
:100E10003748417800291FD0364CF921E1606168DC
:100E2000FA2901D300216160807800F03DF9E06883
:100E30004008606001200002216801432160994957
:100E40000A680192019A05220B68DB03DB179A18E6
:100E5000FAD121688143216002B010BDB0B582B0E3
:100E600023484178002940D0224CF925E56061688B
:100E7000FA2901D300216160807800F015F91E483D
:100E8000E0606068C0087D2801D300206060E068F1
:100E9000400860600120010220680843206081480A
:100EA00002680192019A28220368DB03DB179A1873
:100EB000FAD12368234A13402360E5606368FA2B64
:100EC00001D300236360E3685B08636023680B431E
:100ED000236001680091009928210368DB03DB1778
:100EE0005918FAD120681040206002B0B0BDC04649
:100EF0001C00002020000040E703000010E000E09C
:100F000001210E480268D20503D40A020368134384
:100F10000360C9040A4A13680B43136013688B43C8
:100F20001360026807490A400260ED3106480A581A
:100F3000002A01D1091DFAD17047C0460070004057
:100F400050100240FFFEFFFF64280040F0B585B05E
:100F50001E4615460746524A1068000731D45148CC
:100F600003680393039B19230468E403E417E3185D
:100F7000FAD11068000724D400960846FFF75EFDFA
:100F800002460B460020324905F0DAFD029505467F
:100F90000E4601973F783846FFF750FD2A46334604
:100FA000FFF706FAFFF796FD0A21FFF7A1F80C46B6
:100FB00028463146FFF78EFD02998C4237D2381809
:100FC00040E013680020DB063FD40295354B1C68D7
:100FD0000494049C19241D68ED03ED172C19FAD113
:100FE0001268D20631D40846FFF728FD02460B46A8
:100FF0000020174905F0A4FD054600960E4601970E
:101000003C782046FFF71AFD2A463346FFF7D0F911
:10101000FFF760FD0A21FFF76BF80F4628463146BF
:10102000FFF758FD00998F4207D9201A0AE0444380
:1010300000994143C819001B04E04743029941430A
:101040000819C01B01990870012005B0F0BDC04609
:1010500000002440B0B581B00120C0030F49104A00
:10106000104B0C680442FCD014682407F9D51468AE
:10107000E406F6D51C680094009C19241D68ED0355
:10108000ED172C19FAD10C680442EAD01468240731
:10109000E7D51468E406E4D501B0B0BD10000050F7
:1010A0001004005010E000E0F0B581B00B21FFF714
:1010B0001FF80C460F4F3868FFF7C0FC00250E4B99
:1010C0002A46FFF70DF90D4B2A46FFF771F9054641
:1010D0000E462046FFF7B2FC02460B46FFF700F92A
:1010E0002A463346FFF7FCF8FFF7F4FC386101B0FD
:1010F000F0BDC0462C0000400000E03F0000594019
:1011000070B51D46144600F001FA242004F080FA60
:101110006C43200409D0049D0026284604F0A4FA5C
:10112000A0B2761CB1B28142F7D32520C2000020C4
:101130001023014600F0EAF970BD000070B52520CB
:10114000C4000025102328462946224600F0DEF977
:10115000242004F05DFA074EFF2004F085FA681C95
:10116000B5420546F8D3002010230146224600F080
:10117000CDF970BD7F120000F0B587B007240B4693
:10118000059423405B1CDB0804935B1C0191C90898
:10119000029200F0BBF900273A460392022501981B
:1011A00039460C4606A90F70059908403946802239
:1011B000C24011436D1E2A0603D0401C0828F6D1F8
:1011C00000E03D46C84306AE3070242004F020FA0B
:1011D0000121304604F074FA611CE0B2049A904296
:1011E0003846DED3039A521C90B202998842D4D377
:1011F00007B0F0BDF0B581B01446127863789A1844
:10120000A378DD082B4600F081F966782778242042
:1012100004F0FEF9F1196943E01C04F051FA01B041
:10122000F0BDF0B58DB00A920691059018780028AF
:1012300000D1E8E01C46139E129F391D0791F11D55
:101240000391002508960497010615D40B95002FED
:1012500025D03978401A7A78B97813464B43DE089E
:101260007043079D281809908019FB787343EB1889
:10127000984250D90B9D5EE0002E00D1BEE00CA933
:1012800000220A701146034693401B0632D5521CB9
:10129000491C052AF7D10CA805210170AAE0002EEF
:1012A0004ED020284CD105980B99081880B2B178FF
:1012B00072785608CF08069932463B4600F026F968
:1012C0007E430ED000250CAFFF203870242004F0A0
:1012D0009FF90121384604F0F3F96D1CE8B286420B
:1012E000F1D80B980A994018089E7178490845185A
:1012F000049F83E00CAA11707F220A40042A21D0A7
:10130000032A32D0022A75D16178002972D0641C78
:10131000C006420D35E005980B9D281880B2CB0819
:10132000069900F0F3F8242004F072F90998314688
:1013300004F0C6F97A780A9828188518089E5DE0A6
:101340000B9D5BE06278002A54D0A378002B51D02B
:10135000E17800294ED0E41C4007C00A9206920BA7
:1013600010189A06120D82180BE06278002A41D0FC
:10137000A17800293ED0A41C0007000C9206120D93
:1013800012183F200840104334D0F178002931D0A2
:101390000B957378B278019300925343DA08029266
:1013A000D21C09920223DB43039EF55C2D04F21844
:1013B00057783F027D199278AA18824207D0099A7D
:1013C000B618491EF1D1089E049F0B9D12E00598A6
:1013D0000B9D281880B20099CB080699019A00F05D
:1013E00095F8242004F014F93046029904F068F9C5
:1013F000089E049F0A982818717845186078641C24
:10140000002800D020E70DB0F0BD80B5222004F008
:10141000FFF8032004F028F9202004F0F9F800F088
:10142000BDF8102004F0F4F8012004F01DF980BD8F
:10143000B0B582B00446304910220A612F480368D3
:101440000093009B01230568ED03ED17EB18FAD11B
:101450000A6001680191019901210268D203D21743
:101460005118FAD1012C04D0122004F0D1F800F068
:1014700095F80125284604F0CBF8272004F0F4F86D
:10148000284604F0F1F8002004F0EEF80C2004F0F7
:10149000BFF8D72004F0E8F8D62004F0E5F89D2046
:1014A00004F0E2F8112004F0B3F8284604F0DCF868
:1014B0002C2004F0ADF89A2004F0D6F83A2004F07D
:1014C000A7F81A2004F0D0F83B2004F0A1F8082077
:1014D00004F0CAF83C2004F09BF8332004F0C4F870
:1014E000322004F095F860B2800005A108581E2152
:1014F00004F0E6F802B0B0BD1800005010E000E0C3
:1015000099E40008B7E400087BE40008F0B581B076
:101510001F4600920C460646442004F079F8204607
:1015200004F0A2F8E019411E1F20084004F09CF8C6
:10153000452004F06DF8FF202830851BEEB23046C0
:1015400004F092F8E805C70F384604F08DF80098CB
:10155000281A451CE8B204F087F8E805C00F04F02B
:1015600083F84E2004F054F8204604F07DF84F2014
:1015700004F04EF8304604F077F8384604F074F87A
:1015800001B0F0BD80B5222004F042F8C62004F07E
:101590006BF8202004F03CF880BD000082B001A868
:1015A0000A21018001880088002906D0401E01A977
:1015B00008800A880888002AF8D1814801680091CB
:1015C00000990649064A1368DB0705D00368DB0368
:1015D000DB17C9180B04F6D102B0704710270000C2
:1015E00010040050BFF34F8F034804490160BFF35C
:1015F0004F8F00BFFDE7C0460CED00E00400FA0588
:1016000080B582B06E480168019101997D21CA00C0
:101610006C490B685B0708D40368DB03DB179A1877
:10162000F7D104F077F8002000E0C868C0B202B03B
:1016300080BDC046F0B583B001917D23DD00504BE5
:101640005C6924045E4E14D4009201221146D70234
:101650001C68BC431C60324A541C1F682740381861
:1016600018601868019F002F15D02A4618321043C1
:1016700012E034680294029C2C465F69FF07E3D1B4
:101680003768FF03FF173C19F7D104F043F800282F
:1016900041D1012440E0104018600C4608061A6849
:1016A00082431A60FF2000041A68824300980004F5
:1016B0001018186048061A6882431A6048031A68AE
:1016C00002431A60306802900298002F18D0002D53
:1016D0001DD05869400718D43068C003C017451999
:1016E0005869C006F3D59869102101439961032414
:1016F00012E03068C003C01745195869C006F2D41B
:10170000002D04D05869C007F3D0002404E004F091
:1017100001F8002800D00224204603B0F0BDC046E6
:10172000FFFBFFFF10B582B02548016801910199C8
:101730007D21C900124A0B465469E40705D10468AB
:10174000E403E417E318F7D10FE001239B031468C7
:101750001C43146003680193019B53691B040CD55F
:101760000368DB03DB175918F7D103F0D3FF002818
:1017700001D0022002E0012000E0002002B010BDF4
:101780000454004010B582B00D490A680192019AD4
:101790007D22D3000B4A1468E4070AD10C68E403E5
:1017A000E417E318F7D103F0B5FF002804D00220B6
:1017B00003E01061002000E0012002B010BDC0462F
:1017C00010E000E018540040F0B584B00C68002C24
:1017D00055D00123019303915A1E019F9740274042
:1017E00048D04A68551E022D02943D4615D27D43CD
:1017F00003998C686C4303266E438168B14321438F
:1018000081600399C9680092029A514344689443E5
:10181000009A0C434460039902E07D4303266E4323
:10182000F64309696943C46834400C43C460022A22
:10183000029C19D13C0A01D0242200E02022039905
:101840004F6902928258002C02D06443644301E045
:101850002C466C430F2161438A4367431743029927
:10186000475003990C684A68554301683140294341
:10187000016003992246DA405B1C002AACD104B017
:10188000F0BD0000F0B587B072B62B4F786A0090BB
:101890002A4CA0680290E06801906569A669284812
:1018A000411C3A680A433A6039680140396003A82C
:1018B00000F04AF83046284333D003208004796A88
:1018C000204A11407962002D0FD0216901220A437C
:1018D00022616561039923680822491E01D01340E3
:1018E000F9D06368134363600391009D0540002EA7
:1018F00012D02069012101432161A66103A800F0F3
:1019000023F8039822681021401E01D00A40F9D024
:1019100062680A4362600390786A0A490840284373
:10192000786220690121884320610298A0600198B3
:10193000E06062B607B0F0BD28100240007C0040B5
:10194000FFFFFF7FFFFFF3FFB0B5044603F096FBF8
:1019500020608C490A681206120F094B9A5CD0402D
:1019600060600A685205520F064B9A5C0546D540E6
:10197000A56009688904490F595CC840E060B0BDA2
:1019800031E6000841E60008F0B581B072B60124E6
:101990002102754D6A688A436A60296804273943C1
:1019A00029607A4A20211160704B1A68A2431A609C
:1019B0005C616F4A116003F05FFF600229680143B8
:1019C0002960A1022A688A432A60E1036D4A1368EC
:1019D0000B4313602968214329600221CA432B6805
:1019E00013402B60684B1E683E431E6030BF2B685F
:1019F00083432B606003654B1860654B5D68154041
:101A00005D601A680A431A606107584A5161584973
:101A10000860FFF737FF62B601B0F0BD70B572B66F
:101A200051484168144A11404160036804210B4346
:101A30000360036808241C43046001231C024568FA
:101A4000254345609C040D4D2E68A6432E602C68EE
:101A50009C432C602C6814402C605A02036813438A
:101A600003600268022313430360474802680A4385
:101A7000026030BF70BDC046FFFEFFFF5010024045
:101A8000F0B585B072B601242002374E71688143EB
:101A9000716030680421039108433060E143049190
:101AA000324A1068084010605461314820270760AE
:101AB0001068204310602F480760FF2000022E4965
:101AC0000A6882430A602D4803F0D6FE3068019010
:101AD00030682B49084021034018306061020291B0
:101AE000306808433060A002336883433360E0030A
:101AF000244B1A6802431A60306820433060022386
:101B0000D8433268024032601F4A1168039D29435E
:101B100011600321C902019A114030BF3268184D8B
:101B20002A405118316019490F60104D2A680499F4
:101B30000A402A606C610E4A1760326802998A4333
:101B40003260620311490A6011494E6806404E60D6
:101B50000868184308606007686105480260FFF77D
:101B600091FE62B605B0F0BD007000400004014077
:101B700080E200E000E100E004E400E01027000063
:101B8000FFE7FFFF0C10024010ED00E080E100E0F5
:101B9000047C0040B3B00122100212902348007868
:101BA000411E234E234C0229149200D33DE1FFF73E
:101BB000A7F90F2003F00AFB1F4940B2002803D405
:101BC0000878AA2800D1C6E103F030FA0121CD033C
:101BD0001A4800681A4F002800D095E119A0002685
:101BE0000F91314600F066FEFFF734FA3346119646
:101BF00010960F9E30460E4E316829420CD139683E
:101C00001691169919213A68D203D2175118FAD1B0
:101C10003168294200D18DE0D9B2032900D985E08D
:101C20007944097949008F44173C61711100002003
:101C300010000050100400501C000020FC07080891
:101C400010E000E0E7A1ACE4BBB6E78988E69CAC15
:101C5000E8AEBEE7BDAE0000216809070BD43968C5
:101C60001691169919213A68D203D2175118FAD150
:101C70002168090764D52168C90657D439681691C7
:101C8000169919213A68D203D2175118FAD121684E
:101C9000C9064BD4109AD0B200280F9E60D1109084
:101CA00060E0216809070BD439681691169919214B
:101CB0003A68D203D2175118FAD12168090747D5DB
:101CC0002168C90632D439681691169919213A68E3
:101CD000D203D2175118FAD12168C90626D4119A15
:101CE000D0B200280F9E40D1119040E02168090732
:101CF0001CD439681691169919213A68D203D21763
:101D00005118FAD12168090710D4C5E021680907E4
:101D10000CD439681691169919213A68D203D21752
:101D20005118FAD12168090700D4EBE000260028F9
:101D30001FD15FE7D8B203280F9E13D25B1C12E0BD
:101D40001099C8B2092801D2491C10910F9E09E0D0
:101D50001199C8B2092801D2491C11910F9E06E0C1
:101D6000521E10920023012003E0521E1192012006
:101D700003462168C90715933BD113961198C0B249
:101D800000901098C3B2DB481299DBA204F0B2FBBA
:101D9000DF480090DF4C0194042100263046324693
:101DA000D44BFFF73EFADA48009001940821304600
:101DB0003246D9A3FFF735FAD548009001940C219B
:101DC00030463246DDA3FFF72CFAFF200090842036
:101DD000072124220123FFF793F9159AD0B2811E1F
:101DE00002290AD30624012809D000280CD1842016
:101DF00006E0002E064612D1FCE6941E04E09C206C
:101E00000721D34AFFF7F6F9E0B200F03FFEFFF7F3
:101E1000B9FB13980028CF4C159B00D1EAE6FEF7DA
:101E2000CDFFFFF717F9159BE4E6032800D092E0F9
:101E30000F2003F0CBF980071FD4206800070CD4D3
:101E4000C54801681691169919210268D203D21764
:101E50005118FAD12068000719D52068C00616D499
:101E6000BD4801681691169919210268D203D2174C
:101E70005118FAD12068C00609D40F25284603F06E
:101E8000A5F9FD210140284603F0BDF963E003F008
:101E9000CDF800F073FE5EE0386816901098C0B27E
:101EA0001199C9B209044018AC49421816987D200E
:101EB000C100AB480B464469E40705D03C68E40325
:101EC000E417E318F7D11DE00368DB0703D0A54B47
:101ED0008360A54B8360A54B1A603A681692169AE8
:101EE0004269D20705D03A68D203D2175118F7D108
:101EF00008E0016801220A4302600068C00701D0BF
:101F00009A480068FEF7AAFF99A0022100F0D2FCCF
:101F1000FFF7A0F800200421994AFFF76BF9FFF7BB
:101F200031FBFFF7ADFD30682842FCD138681690D0
:101F3000169819203968C903C9170818FAD13068EA
:101F40002842F0D1FEF78AFF02F05CFDAA208D49FD
:101F5000087003F09BF903F069F88B4803F0CEF8A2
:101F6000002630460B30C5B2284603F02FF9014653
:101F700080242143284603F046F9761C032EF0D135
:101F80000E26304603F022F9014602201590014347
:101F9000304603F038F90F25284603F017F90146BB
:101FA000FD2013900140284603F02DF9304603F040
:101FB0000DF90146FE273940304603F024F9284642
:101FC00003F004F907402846394603F01CF930466F
:101FD00003F0FCF80146042739430E96304603F01F
:101FE00012F96A4803F0FAF91598FFF721FAFFF79A
:101FF000A5F8674800681190FEF78AFD05460E4671
:10200000644A654BFEF7C6FC002807D1634A644B5F
:1020100028463146FEF7A8FC002802D1FEF728FE2C
:102020001190584880681199FEF766FC149AD60200
:1020300011039207002810910F9200D0BEE00A20F1
:1020400003F0C4F8AA280ED00020564A0146FFF734
:10205000D1F8FFF797FAFFF713FDFFF7D6F90A203B
:10206000AA2103F0D0F80E25284603F0AFF8014668
:10207000139C2140284603F0C6F80F25284603F09C
:10208000A5F804402846214603F0BDF8464A1068EA
:102090004006464C03D5106840218843106010204C
:1020A000A0610820A0614020A0612A4DAF60FEF72A
:1020B000A1FD0F9A106A3E49084010621168012084
:1020C000814311603B4A1168C90702D011688143FE
:1020D00011602020A8611098A061A660364D129E64
:1020E000A6613220FFF750FCA6602846FFF74CFCA3
:1020F000F6E7C04634000020E7A1ACE4BBB6E789B0
:1021000088E69CACEFBC9A5625642E25640000003E
:10211000397600083F9C00085BE6B3A8E6848FEFA1
:10212000BC9AE8AEBEE7BDAEE4BF9DE5AD98E590D4
:102130008EE4B88DE4BC9AE5868D0000E698BEE793
:10214000A4BAE6ADA4E88F9CE58D955D0000000083
:10215000F4BD00081004005010E000E0302E300004
:1021600004200240EFCDAB8905040302FC070808F8
:10217000E6ACA2E8BF8EE4BDBFE794A80000000073
:1021800098D600081C000020380100201400002010
:10219000502800409A9999999999B93FCDCCCCCCC7
:1021A000CCCC0C4082BE0008003001401000005032
:1021B000FFFEFFFF00540040881300000A200021AA
:1021C000159103F020F87D25F34B5979481EC0B2D4
:1021D0000B280D960C950CD81A79501EC0B21E28EB
:1021E00007D828019B791818EC4BC318C82B00D2CC
:1021F000DDE0EB4800210170EA480170EA48017017
:10220000EA4B14941E685868139081204700069783
:1022100026371C21159C20463A46FEF7ADFF682163
:1022200020463A46FEF7A8FFD52043214C22FEF770
:10223000A3FFCA200421022208230E910B93FFF76B
:1022400065F93046FEF764FCD94ADA4E3346FDF7AD
:1022500095FFFEF771FC0546FEF7FEFB0890FEF7C2
:10226000DBFB014607952846FEF7C3FAD249FEF785
:10227000C8FA0990139D28462146FEF767FB0746DA
:102280002846FEF745FC02460B46002F00D1CB4EF8
:10229000C7483146FDF772FFFEF74EFC0546FEF7D4
:1022A000DBFB0590FEF7B8FB01460A952846FEF7D2
:1022B000A0FAC149FEF7A5FAFEF7CEFB049020462E
:1022C000264613900720382531460F4616A90E7072
:1022D0003146149B1A46C24011436D1E2A0603D094
:1022E000401C0828F6D100E03546C84316AE3070D1
:1022F000242003F08DF901243046159E214603F079
:10230000DFF9791C072F3046DFD31399481C0029C9
:10231000D7D02746FD4845682846119C2146FEF740
:1023200015FB06460998FEF797FB1490002E0CD17A
:10233000F7482946FEF75DFA0646FEF7E9FBF54A3F
:10234000F54BFEF73DFB002807D10021F34A069824
:10235000FEF750FF1299F84C9EE016A8EF49722242
:10236000FEF7D2F9EA492046FEF7E2FA002867D1E3
:1023700020462946FEF73DFA0546FA493046FEF763
:102380007DFA01462846FEF779FAFEF7C1FB0022E6
:10239000F54BFDF7F3FEFEF779FB1928014600D354
:1023A00019210028E94D06984DD00F464BE0DD1C61
:1023B000AF00E74EF659139646024F0137431743D5
:1023C000139EBE4200D99D1CAD00E14B5F5902F047
:1023D000ABFF06461F223A40F802000DF905090F2F
:1023E00002F0A2FF301A401CDA494B59D9030A0FF8
:1023F0000D2514996D1E149EAE401E40EE40012E18
:1024000001D01D2600E01E2687B2BE4204D2801BEA
:10241000491C002DEED10E99CF4B159D1D70002A41
:1024200008D0CDB2AA4205D2521CAA4201D1012243
:102430001A70491EC14BC94A1070C9480170E0E6C4
:102440001927C24D06984B2116AA5218FF26567618
:10245000137E07241C431476937EE0241C43947659
:10246000C91EF1D1002F11D016A965316A18935DEC
:10247000F8241C4094554B1E00241C700B781F241C
:102480001C400C70FE327F1E1146EFD1002116AAAF
:10249000FEF7B0FEA84C1299A379E078657922790D
:1024A000019200958000B14A101802909F4EB0A290
:1024B000304604F01FF89E4D01959E4F0097002076
:1024C0000122014615923346FEF7ABFE207A002822
:1024D00011D0E079002806D000970195002009214D
:1024E0000222AAA305E000970195002005210222FF
:1024F000A7A3FEF796FEA378607800908B4EA54ABE
:102500003046129903F0F6FF207A0195A249009116
:10251000002801D0222000E01620079C0521062279
:102520003346FEF77EFE9D490A9F3846FEF70EFAB7
:10253000002816D00499C8110E18464000213846CC
:10254000FEF7F6F9002800D0D2E096493846FEF7AB
:10255000D3F9002800D0CBE070B200907348954AC0
:1025600001E072488E4A1299059B03F0C3FF714F38
:1025700000970195D520052100266C4B3246FEF7C9
:1025800050FE89492046FEF7D3F9002818D1149847
:1025900000906648894A15E03801002030F8FFFFB6
:1025A0000E000020100000200C000020140000206D
:1025B0009A9999999999A93F000020419999A9BFA1
:1025C0005A487D4A129C2146089B03F093FF0097CE
:1025D0000195D5200921554F32463B46FEF721FE95
:1025E0005E48007807214843754A10185A4A127805
:1025F0005B4B1B7801904B437248C01800909000D1
:1026000071490B18714A3846214603F073FF704830
:10261000009601900E21022230463B46FEF701FE55
:10262000FEF7B0FFFFF72CFAFEF722FB69490A68B4
:10263000224202D10A6822430A60414B18600868AE
:10264000424A104008601868FEF7DFFE3E4B1868EB
:102650004006334E334A0C9F03D518684021884307
:1026600018601020B0610B98B0614020B0610E98E6
:10267000906034490868C007159C02D00868A043E0
:102680000860202090611098B0610D98B060FEF74E
:10269000B1FA0F99086A2D4A104008620868A043F1
:1026A0000860E003204C31680142FCD0216816919B
:1026B000169919212268D203D2175118FAD131681C
:1026C0000142F0D0FFF7AAF9206816901698F8009A
:1026D0002168C903C9170818FAD1FFF79FF9BFF39A
:1026E0004F8F3D483D490160BFF34F8F00BFFDE76D
:1026F0002D493846FEF70EF9002804D070B200903C
:102700000A482B4A2FE70948284A2CE71C000020DA
:1027100000004040FCA9F1D24D62503F10BE0008BD
:10272000100000501004005010E000E034000020C1
:102730003F9C000839760008380100201400002072
:10274000502800400054004000300140FFFEFFFFD1
:102750007CE900084CE600080C0000200E00002078
:10276000100000200000C8410000E03FAEE5000876
:1027700032253033642F253032642F2530326420E7
:10278000E6989FE69C9F257300000000504D0000D6
:10279000414D000060ED000899830008000020C151
:1027A000CFED0008000080BF0000C842D8ED00084F
:1027B000EDED0008E1ED00088FEE000898EE00084E
:1027C000D5E40008D6E50008CEE50008BBED00081A
:1027D0002A940008007000400CED00E00400FA05A7
:1027E000F0B587B02D4908680224204308600868C6
:1027F0002040069001270597049703970326029629
:10280000019440200090069825486D462946FEF721
:10281000DBFF0597049701A8D0C0802000902048D6
:102820002946FEF7D1FF78051C4AD1680143D160E3
:10283000D16801400691069879061A4842680A4311
:102840004260C26818490A40C260FA0403689343B0
:1028500003607A040368934303600268BA4302602A
:102860001F221202036893430360104A0261026848
:102870003A43026082680A40826082680C4B1A40C8
:102880008260320504689443046042680A404260F2
:10289000591CC2680A40C26007B0F0BD2C1002404B
:1028A0000004005000540040FF7FFFFF0B021000A7
:1028B00000F8FFFFF0B587B00C4605900220FEF748
:1028C000B7FD012004900702002506950394FEF74A
:1028D00035FC009565480190284629462A46059B07
:1028E000FEF79FFCA4202946614E3246FEF782FC8B
:1028F000D42029463246FEF77DFC381D2946324653
:10290000FEF778FC032C00D99BE0C0467C44247978
:102910006400A74401275978002400945548019089
:102920009820012631462246574BFEF77AFC009448
:1029300050480190D020314622468E4BFEF771FC64
:1029400000944C4801903846314622468A4BFEF7A7
:1029500068FC009447480190D3200D26314622465A
:10296000834B26E0002400944248019098200126E1
:1029700031462246444BFEF754FC794800903D48CE
:102980000190C82031462246784BFEF74AFC744835
:10299000009038480190384631462246714BFEF788
:1029A00040FC009433480190D3200D263146224646
:1029B0006A4BFEF736FC00942E480190B81C314655
:1029C0002246039C694B3AE0002400942948019078
:1029D0009820012631462246604BFEF722FC6048D3
:1029E000009024480190D020314622465D4BFEF7EE
:1029F00018FC5B4800901F4801903846314622463B
:102A0000039C584B1BE0002400941A480190982026
:102A100001263146224618A3FEF703FC0094154810
:102A20000190D0203146224615A3FEF7FAFB009410
:102A300010480190384631462246039C11A3FEF708
:102A4000F0FB3A46283200201B21FEF795FB069842
:102A5000002809D1FEF796FDFFF712F8049E3046D4
:102A6000FEF7E6FC069632E707B0F0BD3F9C000893
:102A700003BE00082A940008E8BF9BE585A5000076
:102A8000E4B88A00E4B88B003DEF000870B582B06E
:102A90000546FF260096D3200F214F22012423460E
:102AA000FEF72EFB022D0AD0012D1FD0002D38D1AC
:102AB000294E002500950196C8202D4B05E0264E95
:102AC000002500950196C820244B21462A46FEF792
:102AD000A8FB0196224800902002224B21462A465C
:102AE000FEF79FFBDD200F211F4A17E01A4E00253D
:102AF00000950196C8201D4B21462A46FEF791FB02
:102B00000196174800902602164B304621462A4669
:102B1000FEF787FB0C360F21134A3046FEF76AFB9F
:102B200018E00096C820212202232146FEF7E8FA89
:102B3000094E002500950196D0200E4B21462A46CD
:102B4000FEF76FFB0095019620020B4B21462A46AB
:102B5000FEF767FB02B070BD2A9400084BEF000837
:102B6000BC8B0008ACEC0008F4BD00080EEF0008B8
:102B700019EF000839EF000815EF0008F0B59FB015
:102B8000FEF76CF91EA8401C0890012001020F916D
:102B9000C103149100235C4A5C4C5D4F10930C9070
:102BA00001461193002942D12068C00612D438682A
:102BB0001990199819203968C903C9170818FAD14A
:102BC0002068C00606D4119BD8B2002109283AD348
:102BD00011913EE02068000711D4386819901998C7
:102BE00019203968C903C9170818FAD120680007E5
:102BF00005D41199080629D0491E119128E01068C2
:102C00000021149D2842139101D001F07CFD386809
:102C10001990199819203968C903C9170818FAD1E9
:102C20001068149908421BD0139901F06CFD032120
:102C300038A0FFF73FFEFEF70DFA334A01230021CB
:102C4000139101F0F2FD5B1C119302E00920119039
:102C5000002101230C9812901093139101F05DFD57
:102C60000E93FEF7FBF81198C0B20121092800D994
:102C70008AE10D914000C046784480884000874436
:102C800009001100160086011B04E506F407EF0891
:102C9000360BBE0B002301211391109311931A4A96
:102CA00001F031FD01F0AEFE012111916CE1002136
:102CB000E7481291FFF7FEFDFEF7CCF9E548817871
:102CC0000B9140780A90012013900F4A10681499D4
:102CD00008420DD138681990199819203968C9032C
:102CE000C9170818FAD110681499084200D182E077
:102CF0001298C0B20026032800D99FE078440079DA
:102D0000400087440D384F621000005010040050FE
:102D100010E000E0E4B8BBE88F9CE58D9500000072
:102D2000206800070BD43868199019981920396861
:102D3000C903C9170818FAD12068000710D5206800
:102D4000C0067BD438681990199819203968C903CE
:102D5000C9170818FAD12068C006139833466FD4F3
:102D6000BC4A5078414241415170002101200C9EE3
:102D700012910B466FE02068000743D43868199021
:102D8000199819203968C903C9170818FAD1206899
:102D9000000737D4AF4A91780023012009294AD887
:102DA000491C47E02068000748D4386819901998F2
:102DB00019203968C903C9170818FAD12068000713
:102DC000139833463CD401F0D3FD206800073BD470
:102DD00038681990199819203968C903C917081853
:102DE000FAD12068082101404B424B410007C0172F
:102DF0001399084024E01299C8B20023032826D36F
:102E0000129326E02068C00618D4386819901998E3
:102E100019203968C903C9170818FAD12068C006F3
:102E2000139833460CD48B4A917800230120022951
:102E300001D3491E91700C9E12900CE013983346FA
:102E40000106139607D17AE000231398F8E7491C8E
:102E5000129101200C9E2168C90758D10D9311963B
:102E60007D4F00977D4C0194042500202946139046
:102E700002467B4BFEF7D5F97648407800970194DF
:102E80000028784B00D0784BC0202946139F3A4643
:102E9000FEF7C7F96F4883780A200090734C2046EC
:102EA0000F99734A03F026FB6B4800906B48019022
:102EB0000826384631463A462346FEF7B2F9FF2443
:102EC0000094F02018270322294615463A462B463F
:102ED000FEF716F90094CC2031463A462B46FEF711
:102EE0000FF9129AD0B2811E022912D30128614F24
:102EF00013D00028604C1BD15748009057480190D0
:102F0000F020042100225D4BFEF78BF910E01390B6
:102F100015E0951E584C574F0AE04F4800904F4817
:102F20000190CC2008210022544BFEF77AF9524C34
:102F3000E8B2FFF7ABFDFEF725FB119E0D9B002BC2
:102F400007D1022B0ED102F0A1F9002E15D00224D8
:102F50000BE040480B9981700A994170002E0CD00B
:102F6000012402E00024002E03D0FDF727FFFEF726
:102F700071F8002C404C00D1A7E6FDF76FFF01214E
:102F800000201390022011903D4A01F0BBFB002568
:102F90003C482946FFF78EFCFEF75CF82D48416857
:102FA0000791806811900127139506951295344B6F
:102FB00039461868149A10422E4F0DD1386819906E
:102FC000199819203A68D203D2171018FAD1186844
:102FD000149A104200D1EFE01868149A10420CD1F4
:102FE00038681990199819203A68D203D217101826
:102FF000FAD11868149A10421FD0206800070BD429
:1030000038681990199819203A68D203D217101805
:10301000FAD12068000710D52068C0060BD43868A4
:103020001990199819203A68D203D2171018FAD1BA
:103030002068C00601D5062012901398C0B203285C
:1030400000D9B1E078440079400087441D598B9C39
:10305000D8EF00081C000020397600083F9C0008CB
:1030600020EF000844EF0008E5EF000834000020DE
:1030700044ED000810E000E010040050CBED000823
:1030800010000050BBEF0008206800070CD438681F
:103090001990199819203A68D203D2171018FAD14A
:1030A0002068000700D497E02068C0067CD4386808
:1030B0001990199819203A68D203D2171018FAD12A
:1030C0002068C00670D40798FDF722FD04460D461F
:1030D000F44F3A46F44BFDF751F8F44AF44BFDF740
:1030E00085FC0646204629463A46F24BFDF746F84F
:1030F000FDF722FD002E00D107980021139186E0F4
:10310000206800070BD438681990199819203A687C
:10311000D203D2171018FAD1206800077DD5206895
:10312000C00641D438681990199819203A68D2031A
:10313000D2171018FAD12068C00635D41198FDF7BF
:10314000E7FC04460D46D74F3A46D74BFDF716F835
:10315000D64AD74BFDF74AFC0646204629463A4652
:10316000D44B6DE0206800071ED438681990199878
:1031700019203A68D203D2171018FAD12068000734
:1031800012D401F0C3F9206800070DD438681990F3
:10319000199819203A68D203D2171018FAD120686A
:1031A000000701D401F0B9F90027002900D1FFE69A
:1031B0003D46F24F119A51E01399C8B2032802D349
:1031C0000020139001E0491C1391EC4F119AFF204D
:1031D000129001210C9D41E0079E3046FDF798FCBE
:1031E00004460D46AF4AE64BFCF7C8FF0022139297
:1031F000E44BFDF7CFFB074620462946A94AE24BA0
:10320000FCF7BCFFFDF798FC002F00D130460121F0
:103210000C9D0790DD4BDE4CCBE71198FDF778FC59
:1032200004460D469F4F3A46D54BFCF7A7FF0022B8
:10323000D44BFDF7AFFB0646204629463A46D24B13
:10324000FCF79CFFFDF778FC002E00D111980121BE
:103250000C9D13910246CD4BCD4CC84F2068C00742
:10326000119200D0ACE009950798FDF751FC8D4A0A
:10327000C34BFCF783FFFDF75FFC0546FDF7ECFB56
:103280000446FDF7C9FB01462846FDF7B2FA394668
:10329000FDF7B7FAFDF7E0FB0090BE4805460F9931
:1032A000BD4A234603F026F9BC480090BC48019073
:1032B00004210D913E46002738463A462B46FDF73D
:1032C000B0FF1198FDF724FC764AAD4BFCF756FF92
:1032D000FDF732FC0546FDF7BFFB0446FDF79CFBFE
:1032E00001462846FDF785FA3146FDF78AFAFDF7D3
:1032F000B3FB0090A74E30460F99AA4A234603F02D
:10330000F9F8A6480090A648019008210B9138468C
:103310003A463346FDF785FFFDF7AAFCFDF7F8FBBB
:10332000604A974BFCF72AFFFDF706FC0446FDF7C1
:1033300093FB0546FDF770FB01462046FDF759FA61
:103340008E49FDF75EFAFDF787FB009030460F9936
:10335000954A2B4603F0CEF8904800909048019093
:103360000C2138463A463346FDF75BFFFF200A90B2
:103370000090B4241825032620460D992A4633468A
:10338000FDF7BEFE0A98009020460B992A46334668
:10339000FDF7B6FE139AD0B2811E022914D301287C
:1033A00014D000287A4C099D1CD17C4800907C48A0
:1033B0000190B420042100227C4BFDF732FF11E084
:1033C000002D0F4617D1F3E5961E09E073480090D3
:1033D00073480190B42008210022744BFDF721FFAF
:1033E0006B4C099DF0B2FFF751FBFEF7CBF8002DB7
:1033F000664B00D1DCE5129800064CD0FDF7DEFCF0
:10340000624B2068C0060CD4694A1068199019985C
:1034100019201168C903C9170818FAD12068C00615
:1034200023D5206800070CD4614A106819901998B8
:1034300019201168C903C9170818FAD120680007B4
:1034400013D518681499084200D0B1E5584A10689D
:103450001990199819201168C903C9170818FAD1C9
:1034600018681499084200D0A2E5514A10681990D2
:10347000199801201168C903C9170818FAD1129ABE
:10348000D1B20020FF2901D0521E00E0C2431292A7
:103490001106B6D103E0FDF7B9FC3C4B069812903B
:1034A00086E5C0467B14AE47E17A74BF9A99999934
:1034B0009999E93FE17A84BF00253E482946FFF704
:1034C000F9F9FDF7C7FD3C48C1680D9100691190FD
:1034D00001271295069513952C4B39461868149AB6
:1034E0001042334F0DD138681990199819203A6855
:1034F000D203D2171018FAD11868149A104200D1CA
:10350000EDE01868149A10420CD138681990199897
:1035100019203A68D203D2171018FAD11868149AF1
:1035200010421FD0206800070BD4386819901998F2
:1035300019203A68D203D2171018FAD12068000770
:1035400010D52068C0060BD4386819901998192036
:103550003A68D203D2171018FAD12068C00601D5F4
:10356000062012901398C0B2032800D9AFE0C046DD
:103570007844007940008744215588990000C8426A
:10358000E17A743F00000840E17A843F1000005067
:103590001004005034000020C2EC00083976000806
:1035A0003F9C0008DAEC0008F2EC0008CBED0008C4
:1035B00010E000E0C8EF00081C00002020680007B1
:1035C0000CD438681990199819203A68D203D21788
:1035D0001018FAD12068000700D491E02068C006D6
:1035E00075D438681990199819203A68D203D217FF
:1035F0001018FAD12068C00669D40D9E3046FDF738
:1036000087FA04460D46FD4AFD4BFCF7B7FD002244
:103610001392FC4BFDF7EAF9074620462946F74A84
:10362000F94B81E0206800070CD43868199019988C
:1036300019203A68D203D2171018FAD1206800076F
:1036400000D4B8E12068C00641D4386819901998B0
:1036500019203A68D203D2171018FAD12068C00690
:1036600035D41198FDF754FA04460D46E34F3A4617
:10367000E34BFCF783FD0022E24BFDF7B7F906466A
:10368000204629463A46E04BA8E1206800071ED4B0
:1036900038681990199819203A68D203D21710186F
:1036A000FAD12068000712D400F03FFF206800071D
:1036B0000DD438681990199819203A68D203D21796
:1036C0001018FAD12068000701D400F039FF002754
:1036D000002900D101E70B97119A0D9D32E0139953
:1036E000C8B2032802D30020139001E0491C1391B3
:1036F000119A0D9DFF20129001210C980B9021E052
:103700000D9E3046FDF704FA04460D46BB4ABF4BFA
:10371000FCF734FD00221392BD4BFDF73BF9074641
:1037200020462946B54ABB4BFCF728FDFDF704FAB5
:103730000546002F00D1354601210C9A0B92B64B5D
:10374000B64C119A2068C00711920D9500D0C0E0C8
:10375000002728463946FDF7F9F804462846FDF7C4
:10376000D7F902460B46002CA84900D1A449A3482A
:10377000FCF704FDFDF7E0F90546FDF76DF90A9049
:10378000FDF74AF901462846FDF733F8A449FDF74D
:1037900038F8FDF761F9C11746184E402846A1498F
:1037A000FDF7AAF804462846FDF7B2F9934A964B6E
:1037B000FDF71CF9009600289B4800D19B48002C7F
:1037C000994A9B4C9B4D9C4E00D1024620460F9936
:1037D0000A9B02F08FFE00960195042138460A915B
:1037E0003A462346FDF71DFD119D28463946FDF753
:1037F000ADF804462846FDF78BF902460B46002C2F
:10380000824900D17E497D48FCF7B8FCFDF794F968
:103810000546FDF721F90990FDF7FEF80146284617
:10382000FCF7E7FF7E49FCF7ECFFFDF715F9C11740
:1038300046184E4028467B49FDF76CF8044628465A
:10384000FDF766F96D4A704BFDF7D0F80096002839
:103850007A4800D17A48002C784A754C754D764EDE
:1038600000D1024620460F99099B02F043FE0096C4
:1038700001950821099138463A462346FDF7D1FCC7
:10388000FF2007900090D8261824032530460A9977
:1038900022462B46FDF734FC0798009030460999E4
:1038A00022462B46FDF72CFC139AD0B2811E02292A
:1038B00014D3012814D00028584C1CD15E48009025
:1038C0005C480190D820042100225E4BFDF7A9FC42
:1038D00011E00B9800280F4617D1FEE5951E09E070
:1038E0005548009053480190D82008210022554B9C
:1038F000FDF797FC494CE8B2FFF7C8F8FDF742FE28
:103900000B980028444B00D1E7E5129800064CD0F4
:10391000FDF754FA404B2068C0060CD44A4A1068A0
:103920001990199819201168C903C9170818FAD1F4
:103930002068C00623D5206800070CD4424A1068CE
:103940001990199819201168C903C9170818FAD1D4
:103950002068000713D518681499084200D0BCE508
:10396000394A10681990199819201168C903C917A4
:103970000818FAD118681499084200D0ADE5324A07
:1039800010681990199801201168C903C9170818FF
:10399000FAD1129AD1B20020FF2901D0521E00E0C4
:1039A000C24312921106B6D103E0FDF72FFA1A4B6B
:1039B0000698129091E51198FDF7AAF804460D4675
:1039C0000E4F3A46114BFCF7D9FB0022104BFCF787
:1039D000E1FF0646204629463A460E4BFCF7CEFB51
:1039E000FDF7AAF8002E00D1119801210C9A0B9234
:1039F00002461391084B094C6FE6C0467B14AE4754
:103A0000E17A74BF000024C0E17A84BFE17A743F98
:103A100000002440E17A843F100000501004005060
:103A20000000C842000080BF72EE0008F8ED0008F8
:103A3000340000203F9C000839760008F1EE0008B1
:103A4000D4EE0008CBED000810E000E00026F148BD
:103A50003146FEF72FFFFDF7FDFAEF4A10680F9988
:103A60000843106010682021014310208143116039
:103A7000EA48808A11900127E94B38461968149A60
:103A80001142E84F0CD139681991199919213A68F6
:103A9000D203D2175118FAD11968149A114253D08F
:103AA000F1B202292AD0012939D0002948D1216850
:103AB00009070BD439681991199919213A68D20369
:103AC000D2175118FAD12168090742D52168C906D1
:103AD00036D439681991199919213A68D203D21745
:103AE0005118FAD12168C9062AD47E20C043119A00
:103AF00011B2814233DD521E119230E02168090774
:103B00001ED439681991199919213A68D203D2172C
:103B10005118FAD12168090712D400F020FD21685C
:103B200009070DD439681991199919213A68D203F6
:103B3000D2175118FAD12168090701D400F008FD05
:103B40000027002899D00DE0F0B2022807D2761C99
:103B500006E0119908B27F2801DA491C119100266C
:103B600001200C9F2168C9075FD11397119805B2F6
:103B7000AD4804460F99AD4A2B4602F0BBFCAC4859
:103B80000090AC48019004211291002738463A4633
:103B90002346FDF746FBA8480088FCF748FFA749E5
:103BA000FCF72FFE04462846FCF736FFA349FCF736
:103BB00028FE01462046FCF7CBFDFCF7A9FFA04AF2
:103BC000A04BFCF7DBFAFCF7B7FF0446FCF744FF19
:103BD0000546FCF721FF01462046FCF70AFE9A49FC
:103BE000FCF70FFEFCF738FF00908F4C20460F9932
:103BF000964A2B4602F07EFC8D4800908D4801903D
:103C0000082138463A462346FDF70BFBFF2000907B
:103C1000A8201822032512992B46FDF771FAF0B25D
:103C2000411E022905D2751E0FE0002F074617D14D
:103C300023E7002809D17E4800907E480190A82003
:103C400004210022824BFDF7ECFA824CE8B2FEF729
:103C50001DFFFDF797FC13980028714B00D10CE76E
:103C6000FDF7ACF8FDF7F6F906E700267A4831468D
:103C7000FEF720FEFDF7EEF96848807D13900124E1
:103C8000674B20461968149A1142724C0CD139685E
:103C90001991199919213A68D203D2175118FAD1FA
:103CA0001968149A114255D0F1B202292AD001297B
:103CB00039D0002948D1216809070BD439681991F6
:103CC000199919213A68D203D2175118FAD12168EB
:103CD000090744D52168C90636D43968199119995C
:103CE00019213A68D203D2175118FAD12168C906AE
:103CF0002AD47E20C043139A51B2814237DD521E2E
:103D0000139234E0216809071ED439681991199972
:103D100019213A68D203D2175118FAD1216809073C
:103D200012D400F039FC216809070DD439681991C3
:103D3000199919213A68D203D2175118FAD121687A
:103D4000090701D400F01FFC0024002899D0224666
:103D5000404C0FE0F0B2022809D2761C08E013991B
:103D6000C8B27F2801D1139001E0491C13910026AD
:103D700001200C9A2168C9072BD11292139843B2E3
:103D800029480F99294A02F0B5FB29480090294D8E
:103D9000019504270024204639462246224BFDF790
:103DA00040FA2348009001950821012220462B4B20
:103DB000FDF737FAFF200090A82018220325394686
:103DC0002B46FDF79DF9F0B2411E022905D2751E62
:103DD0000FE0002A044617D153E7002809D1144800
:103DE000009014480190A82004210022184BFDF7F0
:103DF00018FA0C4FE8B2FEF749FEFDF7C3FB129824
:103E00000028074B00D13CE7FCF7D8FFFDF722F96B
:103E100036E7C04670EF0008200001401C0000207B
:103E20001000005010E000E0340000206AED0008AF
:103E3000397600083F9C00087800F81FB98B3B3F9B
:103E4000FCA9F1D24D62403F00007A440CED00081D
:103E5000CBED000810040050A8EF000829ED000881
:103E60000221DEA0FEF726FDFDF7F4F80024264629
:103E7000139416A9DD48FCF72BFF002830D116ADAE
:103E8000288801F0A9FB04466888FCF7D0FD0146AC
:103E90002046FCF7B6FCD649FCF7F0FC0546D54FAA
:103EA0007C882046FCF7C3FD01462846FCF7A1FCB0
:103EB000D149FCF7A6FC0546F888001BFCF7ACFDD1
:103EC00001462846FCF7DAFCCC49FCF741FC19A96D
:103ED0008851361D142ECCD119A801F035FB139052
:103EE000FF2007900006C64909688143189116A86B
:103EF00001F074FA112001F069F980240440850072
:103F0000122001F063F9800928180121002CBD4E10
:103F10000D9105D00A460F99FF3108405102081A49
:103F2000FCF7D4FA02460B46002CB74900D0B7493B
:103F300000200B90FCF7D4F9FCF7FEFD1290169CC4
:103F40002046FCF789FD0A90FCF766FD01462046F5
:103F5000FCF74FFCA849FCF754FCFCF77DFD0990E9
:103F600030460F9F3946AA4AAA4B02F0C3FAAA4824
:103F70000090AA480190042100242046224633469E
:103F8000FDF74FF919ABA648194664C864C19D4EA8
:103F900030201871A3A0009030463946A44A02F0A0
:103FA000A9FA9D4800909D4D019506212046224684
:103FB0003346FDF736F918AB304639469D4A02F0D4
:103FC00099FA9548009001950821204622463346EB
:103FD000FDF727F9139F38462146FCF7B7FC054645
:103FE0003846FCF795FD02460B46002D924900D15C
:103FF00092499348FCF7C2F8FCF79EFD054621461E
:10400000FCF796FC002809D128468E49FCF774FC81
:10401000002803D115A82D21018001E015A8047006
:10402000754F2846FCF718FD0446FCF7F5FC0146E1
:1040300013952846FCF7DDFB3946FCF7E2FBFCF75D
:104040000BFD81490B680968029415AA0192090CBD
:104050000091C1174018484003907C480340304607
:104060000F997B4A02F046FA6B4800906B4801902A
:104070000A210024204622463346FDF7D2F8179D38
:1040800028462146FCF762FC06462846FCF740FD20
:1040900002460B46002E684900D168496848FCF783
:1040A0006DF8FCF749FD054617902146FCF740FCEA
:1040B000002809D128466349FCF71EFC002803D1DB
:1040C00015A82D21018001E015A804701EA9032266
:1040D000604801F00BFA002801D0FE262EE01EA851
:1040E000079A089E0178514022464B00090601D5E7
:1040F00031214B40D9B2531C072A1A46F5D3421C32
:10410000B04210460A46EDD11EA88078884252A4DB
:1041100013D11EA90878497800221646A35C032A09
:1041200002D8034202D104E00B4202D04023D34024
:104130001E43521C072AF1D100E0FF262846FCF757
:104140008BFC0446FCF768FC01462846FCF751FB53
:104150003946FCF756FBFCF77FFC099904910A9954
:104160000391019415A90091C1174018484002908D
:10417000F3B2244D28460F99394A02F0BBF926487C
:104180000090264801900C210024204622462B4610
:10419000FDF747F8129E30462146FCF7D7FB05464F
:1041A0003046FCF7B5FC02460B46002D224900D1F3
:1041B00022492348FBF7E2FFFCF7BEFC05462146F7
:1041C000FCF7B6FB00284DD128461E49FCF794FBAE
:1041D000002847D115A82D21018045E0E7B3BBE7B2
:1041E000BB9FE4BFA1E681AF00000000000006CC49
:1041F00000803B457800F81F0000C8420000F041F5
:10420000FC070808340000200000D03F0000D0BFA9
:1042100092ED0008AFEC0008BC8B0008B0910008DC
:1042200094F0000830303A33343A3336000000005E
:10423000A5ED00087FED0008E17A743FE17A74BFD4
:104240007B14AE47000080BF00580140FF0F000004
:1042500047EE00082DF30000802008041002010042
:10426000A3EE000815A804702846FCF7F5FB0446E9
:10427000FCF7D2FB014612952846FCF7BAFA3946FC
:10428000FCF7BFFAFCF7E8FB07460E25284600F0CE
:104290009DFF11900F2000F099FF0646102000F0BE
:1042A00095FF039415A9029101900096F81739180B
:1042B00041400491ED4E30460F99ED4A119B02F0BA
:1042C00019F9EC480090EC4801900024204629465A
:1042D00022463346FCF7A5FF0B98002800D0BDE02E
:1042E000FDF750F9FDF7CCFB01200B9038E60124D7
:1042F000E2A02146FEF7DEFAFCF7ACFE2546E34BD2
:1043000020461968149A1142E14C0CD13968199170
:10431000199919213A68D203D2175118FAD119689C
:10432000149A11422AD0E9B2012911D000291FD1D3
:10433000216809071CD439681991199919213A681B
:10434000D203D2175118FAD12168090710D42BE1F2
:10435000216809070CD439681991199919213A680B
:10436000D203D2175118FAD12168090700D4C3E14A
:1043700000240028C4D02746C54C04E0E8B24542DA
:10438000454101200C9F2168C9072FD10220401B05
:10439000C0B2FEF77BFBBF480090BF4801900421EC
:1043A000002420462246BD4BFCF73BFFB14E009651
:1043B000BB4E01960A2120462246BA4BFCF731FF3C
:1043C000AC48009001960C2120462246B6A3FCF78B
:1043D00028FFA848009001960E2120462246B7A348
:1043E000FCF71FFFFDF7CEF8002F01E0002F044679
:1043F000BA4F84D0FCF7E2FCFCF72CFE7FE70024E8
:104400002046FDF715F8FCF799FEFDF7BBF8FDF720
:1044100037FB7D20C5002846FDF7B6FA009425201D
:10442000C2001023204613942146FCF769FEFDF7D5
:10443000A9F8FDF725FB2846FDF7A6FAFCF77EFE56
:10444000FDF7A0F8FDF71CFB2846914CFDF79CFA00
:10445000FCF704FD092011908C4A54E08B4A9F4FD1
:104460001068149908420CD138681E901E981920C3
:104470003968C903C9170818FAD110681499084295
:1044800039D083480068C00610D438681E901E9842
:1044900019203968C903C9170818FAD17C4800687F
:1044A000C00603D4641CFCF7D5FD02E03220FDF702
:1044B0006BFA764A082CD3D3CF200021884AFCF728
:1044C00099FEFDF75FF8FDF7DBFA704A1068149962
:1044D00008420CD138681E901E9819203968C9030B
:1044E000C9170818FAD110681499084203D032206D
:1044F000FDF74AFAE9E7FCF7B1FC644A00201390A3
:1045000007201190624C0E9B0D99FCE075480799AD
:1045100041601199816000F0B9FEFCF79FFC5B4A95
:104520000121002013900320EBE06E480D9AC26039
:10453000119901616C4802606C48016000F0A6FEB0
:10454000FCF78CFC514A0121002013900420D8E094
:104550006748119901806348818200F097FE2646E2
:1045600001242002634A11688143116010683021E0
:1045700088431060FCF772FC21463446434A002011
:1045800013900520BDE0574813998175C9B21020DA
:1045900000F039FE00F07AFEFCF760FCF74A0121DA
:1045A000002013900620ACE0FCF758FCF648F74ECC
:1045B00031461CC81CC11CC81CC1AA20307000F0A8
:1045C00065FEFCF7EBFFFF2000902520C2000025D0
:1045D00004240C2328462146FCF792FDED48009068
:1045E000EB4801902846214634462A46EAA3FCF7C8
:1045F00018FEE8480090E6480190082128461191ED
:1046000013952A46E8A3FCF70CFEFCF7BBFF707875
:10461000002821D0F920EB49C8604868FA2801D366
:1046200013984860A078FCF73FFDE64AD068400840
:10463000506010680F9908431060386819901998F5
:104640000846F4303968C903C9170818FAD101209F
:104650000002116881431160FDF712FADA48FDF794
:1046600093F90121C54AC64C4CE0C04634000020F5
:1046700015EE0008BC8B0008B0910008E681A2E5A9
:10468000A48DE8AEBEE7BDAE0000000010000050F3
:1046900010040050397600083F9C000883EF0008A2
:1046A0002A94000852EF000820E5B9B6E68C89226A
:1046B000E5A48DE4BD8D22E994AE000020E58FAF26
:1046C000E4BBA5E5BCBAE588B6E693A6E999A4E5FE
:1046D00085A8E983A8E695B0E68DAE0010E000E07D
:1046E00005D100081C000020340100200800002033
:1046F0004201002020000140FCF7B0FB9F4A01214D
:10470000082011900E9B109D681E2E468641129621
:10471000002D00D00123180676D02068C00774D180
:104720000D91FF2000900026042118220C23304612
:10473000FCF7E6FCA648A54D2860964800909448F2
:1047400001900324119820406043011D30463246F9
:104750002B46FCF766FD00941198C4B2A008431CD8
:1047600028460F999B4A01F0C5FE8A480090884868
:104770000190EC200D210E9632462E462B46FCF77A
:1047800050FD032C57D830469A493CC93CC00978A3
:104790000170804800907E48019019240421002572
:1047A00020462A463346FCF73CFD93483146CCC8A8
:1047B000CCC102880A80807888707648009074485E
:1047C0000190072120462A46804BFCF72AFD7F48AE
:1047D0008A49CCC9CCC07D4E6A4F0A88028089784C
:1047E00081706C4800906A4801900A2120462A4650
:1047F0003346FCF716FD824831463CC83CC102886E
:104800000A808078887057E00023129800280CD026
:104810001E4625460C46FCF7D1FAFCF71BFC214648
:104820002C463346554A002010901398002801D199
:10483000FEF7B8F9A0E0072C52D8304669490CC9F8
:104840000CC01CC91CC05348009051480190192449
:104850000421002520462A463346FCF7E2FC304678
:1048600061490CC90CC04CC94CC009780170494859
:10487000009047480190072120462A46534BFCF7F9
:10488000D0FC524859490CC90CC04CC94CC04F4EC1
:10489000097801703F4800903D4801900A21204668
:1048A0002A463346FCF7BDFC304651493CC93CC062
:1048B0000A88028089788170314C364800903448EB
:1048C000019019200D2100223346FCF7AAFCFCF7C9
:1048D00059FE12980028294A0E9B0D9998D1A4E7F9
:1048E0000B2C274CF3D8394E30463B490CC90CC031
:1048F0001CC91CC00978017026480090244801900A
:1049000019240421002520462A463346FCF789FC59
:1049100030463249CCC9CCC01A4F0A880280897807
:1049200081701C4800901A480190072120462A46B1
:10493000264BFCF776FC254829494CC94CC0234E30
:104940000A8802808978817012480090104801908E
:104950000A2120462A463346FCF763FC30462049AC
:104960001CC91CC0064C0A88028089788170A4E7A3
:1049700000F08CFCFEF701FB1FB0F0BD10000050F2
:104980001004005010E000E0187600081C00002021
:104990003F9C000839760008E681A2E5A48DE5AECB
:1049A0008CE6889000000000E4B889E7A792E590C3
:1049B0008EE8BF94E59B9EE4B8BBE88F9CE58D959F
:1049C0000000000020000040B80B00003400002070
:1049D000E296B600ECEF0008D0F000086CF000089A
:1049E000F8EF000880F00008A0F00008B8F0000818
:1049F00058F0000808F0000844F0000830F0000803
:104A00001CF00008F0B59FB031A000211391FDF714
:104A100051FFFCF71FFB1AA800F070FB0F20049059
:104A200000F0D4FB40B2002803D41AA84079002833
:104A300005D12B481AA90CC80CC1007808701AA817
:104A4000811D0C91411D0B91011D0A91C11C079103
:104A5000C11D0691014608310591811C0891401C39
:104A60000990FF200E901C300F900120010215913B
:104A7000C10316911B4C1C4F1C4E0D90189013989F
:104A800017901B480068169908420DD120681D90A8
:104A90001D9819202168C903C9170818FAD11448AC
:104AA00000681699084228D01798C1B20020112931
:104AB00000D9C8E07944097949008F441B4F545804
:104AC0005C6065696F747A84888D9196A0AEC046EB
:104AD000E697B6E997B4E8AEBEE7BDAE00000000C9
:104AE0003076000810E000E034000020397600083D
:104AF000100000500221012232E01799C8B20022B2
:104B00001128199201D3114600E0491C09224A409C
:104B10001AA8007A0243D2B253425341C9181791DE
:104B2000012118911399002900D1C5E01AA909782B
:104B30003C2902D31AA93B220A701AA949783C29B8
:104B400002D31AA93B224A701AA9897800287CD07E
:104B50000D2900D282E01AA80C2183E0012109224C
:104B600000230C98AFE0092200210C9840E00121BD
:104B700000230B9825E0092200210B9838E0012141
:104B8000032200230A989EE0092200210A982FE0C0
:104B90000021072201230798199195E001220021A5
:104BA0000598139202E001220021069819910B4604
:104BB0008AE01AA8007A0121002800D180E00023B1
:104BC00008980A467FE009220021089810E0012198
:104BD00005220023099876E009220021099807E0C0
:104BE0001AA80121052200236DE01AA8092200213C
:104BF00019910B46FCF7AAF90121139166E0E449EB
:104C000009680A07D217189B1340189308220A4014
:104C1000910802224A40199258E0DD4909680907C3
:104C200011D421681D911D9919212268D203D21730
:104C30005118FAD1D6490968090704D40020012186
:104C40001991189042E0199040E0182902D31AA84F
:104C5000172181701AA80021C17104E0002902D136
:104C60001AA8012181701AA8C078072801D9072045
:104C700002E0002802D101201AA9C8701AA8007900
:104C80001F2801D91F2002E0002802D101201AA903
:104C900008711AA840790C2801D90C2002E00028DC
:104CA00002D101201AA948711AA88079C0081928D0
:104CB00002D31AA8C72181710D9D1998139010E095
:104CC0000222002308981993FCF740F9411E05467B
:104CD0008D41002801D1189800E0012018900006AD
:104CE00038D0AB480068C00700D0B6E014951AACC5
:104CF000A37960792179E27800AD07C53846159926
:104D0000A6A201F0F7FB0096AC4D01950720042107
:104D1000052212903B46FCF784FA207A00281CD02A
:104D2000A8A039461CC81CC11CC81CC102880A8026
:104D300080788870009601950520082100223B4666
:104D4000FCF76FFA1AA8C079072200281CD0384651
:104D5000A3A11BE0002018907FE0A5A039461CC845
:104D60001CC11CC81CC102880A808078887000960B
:104D7000019505240821002220463B46FCF751FA04
:104D80003846A2A1224601E0384697A1FBF7BCFCB9
:104D900000220092019505240C26204631461892E7
:104DA0003B46FCF73EFA1AA88378417800780091D8
:104DB00001903846159997A201F09CFB804800901D
:104DC00001953A20314622463B46FCF72AFA1798CD
:104DD000C0B2022803D81121414318310BE0042846
:104DE00003D811214143353105E0062800D9A5E05B
:104DF0001121414352311191129810900E9F00974A
:104E000005260721012430460F9D2A462346FCF73C
:104E100077F900970B2130462A462346FCF770F9B4
:104E200000970F2130462A462346FCF769F9179868
:104E30001038C1B2022907D3119880B21099C9B2B3
:104E4000784AFCF7D7F90320C0B2FDF71FFEFCF744
:104E500099FB504C504F5A4E149D1998022863D11B
:104E60001DAC1A9820701B9820711AA841786170A7
:104E70008178A170417961718179A171C078C01D7B
:104E80000721FBF735F9481CE0700026062E0AD1F1
:104E90001DA88079642806D364381DA988714879D3
:104EA000802202434A711DAFBC5D0A212046FBF7F8
:104EB0001FF90921C9434143611800010843B8554E
:104EC000761C072EE2D11AA8007A00280DD01DA961
:104ED0008A781F201040024640328A701AA9C97988
:104EE000002902D060301DA9887007201DA900F09C
:104EF000A7F90028284F14D10E26304600F066F995
:104F000001467F242140304600F07DF9002808D179
:104F10000F26304600F05AF904403046214600F092
:104F200072F91C4C264E1998002D04D0FBF746FF51
:104F3000FCF790F81998002826D1A2E5092807D097
:104F4000082808D007280AD10F98C01F119053E7EE
:104F50001720119016E0842011900B204DE70B28AC
:104F600003D81121414370390BE00D2803D81121DA
:104F700041435F3905E00F2800D93FE71121414344
:104F80004E391191049838E7FBF768FF1FB0F0BD68
:104F90001004005010E000E03400002032253033CF
:104FA00064E5B9B425303264E69C8825303264E685
:104FB00097A520E591A82564000000003F9C00080B
:104FC00039760008E697B6E997B4E6A0BCE5BC8F51
:104FD000EFBC9A3132E5B08FE697B6E588B60000AF
:104FE000E4B88BE58D880000E4B88AE58D88000080
:104FF000E697B6E997B4E6A0BCE5BC8FEFBC9A3261
:1050000034E5B08FE697B6E588B600002020202072
:1050100000000000253032643A253032643A2530F1
:1050200032640000F4BD00087047704781B010483A
:10503000042101600F494020086008220A60102204
:105040000A60694664220A800A880988002A06D014
:10505000491E6A46118013881188002BF8D1064931
:105060000A68520602D40A6802430A6001B0704717
:1050700028040050180000500030014080B5184945
:10508000C8680007820F17487A4412795200974483
:105090000108250D0120000449680904490F8840D2
:1050A00080BD0868C00609D5104880BDCA68D20313
:1050B00007D40868C00603D50C4802E00A4880BD42
:1050C0000948CA689202120F09A39A5C4243C86851
:1050D0000002800F411C1046FBF70AF880BDC04655
:1050E0000010024000127A000024F40000093D0084
:1050F000030406080C1018203000000070B50446A8
:10510000D02000210122FCF795FA00280DD10026BD
:105110003046FCF737FB002807D1D02001250722B5
:105120002946FCF787FA002804D009212046FBF71E
:1051300004FB70BDFCF764FAA055761C072EF9D16C
:10514000FCF7F0FA002001467F220A40022A05D02F
:10515000052A0CD12256002A14D520E0225C5206E2
:1051600007D40022E2712272235C3F2208E0225C15
:1051700008E02572225C9206D20FE271235C1F22A6
:105180001A4022540F231340D2B212090A26564362
:10519000F2182254491C401C0728D5D10EE00F21DB
:1051A000D3060A40DB0F0A256B439A182254A079D4
:1051B00001400009684308186430A071E0780C30A1
:1051C0000721FAF795FF481CE07070BDB0B50546A1
:1051D000D020002401222146FCF72CFA002810D10F
:1051E0002846FCF7CFFA00280BD1D02001210A462F
:1051F000FCF720FA002804D1FCF702FA0446FCF779
:1052000091FA2046B0BDF0B581B00E460746D020D9
:10521000002402222146FCF70DFA012500280CD1BA
:105220003846FCF7AFFA002807D13046FCF7AAFA57
:10523000002802D1FCF776FA2546284601B0F0BDD9
:10524000F0B581B00C460546401CC2B2D02000210A
:10525000FCF7F0F90127002813D100263046FCF7AF
:1052600091FA00280DD102E0641C6D1E06D0207852
:10527000FCF788FA0028F7D0012700E03746FCF752
:1052800051FA384601B0F0BD70470000F0B583B068
:105290007D20C000009000211D4A1E4B1E4C1F4D5A
:1052A0000E46264330786F5CB84221D018680190D2
:1052B000019800985569ED0705D01D68ED03ED17BD
:1052C0002818F7D113E01068C00703D01448906085
:1052D00014489060377018680290029800985569D9
:1052E000ED0709D01D68ED03ED172818F7D10B4D18
:1052F000491C1829D4D109E010680125054315601F
:105300001068C007054DF3D03078F1E703B0F0BD69
:105310000420024010E000E0000008081C0000200B
:10532000EFCDAB8905040302F0B581B000920A46C7
:10533000054609320C211046FAF7DAFE0E460A2716
:1053400008463946FAF7D4FE0446992040007043D7
:10535000401D3946FAF7CCFE00990818291B8CB27B
:10536000A1084018FF216E31614345186421204691
:10537000FAF7BEFE2D1A192001012046FAF7B8FEF1
:105380002818401EC11701B0F0BD7047012002026D
:105390000E490B6813430B60CA680D4B1340CB607A
:1053A0000A680C4B13400B608A6882438A6082044F
:1053B0000B6893430B60FD221204CB689343CB60D0
:1053C00000220A61C00604490860704700100240CC
:1053D0000C40FF88F6FFF6FE08ED00E0F0B583B064
:1053E00004463A4801A9062200F080F800286BD153
:1053F00001AA511CFF2513786B4000255E00312067
:105400001B0600D54640F3B26E1C072D3546F5D37A
:10541000551C8A422A461D46EDD101A98978994238
:1054200052D101AA111DD21CFF2513786B40002513
:105430005E001B0600D54640F3B26E1C072D3546B4
:10544000F6D3551C8A422A461D46EED101A8407962
:10545000984239D101AF3888000400BAFBF736F81A
:1054600000251B4E2A463346FAF7A2FF194B2A465F
:10547000FAF736FF184B2A46FAF780FEFBF75CFB7B
:10548000014616480068FBF763F960603879F978DF
:1054900009020818FBF71AF82A463346FAF788FF7C
:1054A0000F4B2A46FAF71CFFFBF746FB01460D4857
:1054B0000068FBF74DF905460B4E3146FBF746FAFF
:1054C000002800D12E46266003B0F0BD062C000057
:1054D000E0FFEF4000E06540008046C0340100205E
:1054E00000005940080000200000C842F0B581B01B
:1054F00014460D460746882000210222FCF79AF840
:10550000012600281CD1380AFCF73CF9002817D1E5
:10551000F8B2FCF737F9002812D18820012631466D
:105520002246FCF787F800280AD1FCF769F82870B2
:105530006D1C641EF9D1FCF7F5F80646401E864145
:10554000304601B0F0BD0000F0B583B00146002642
:1055500004220446374602900192F8B280000858AF
:1055600025682946FBF7F2F9002803D0374602994F
:10557000019A10E00097019FF8B280000299085844
:105580002946FBF7D5F9002802D13246029901E0FD
:1055900002993A46009F241D761C052EDCD1F8B2F4
:1055A0008400D0B2870000263546B4420BD0B74203
:1055B00009D088590749FBF761F901462846FBF7EE
:1055C000C7F802990546361D142EEED1284603B0C1
:1055D000F0BDC04600004040B0B504460948008810
:1055E0000949098809B2091808484843FBF71FFA16
:1055F00005462046FBF71BFA01462846FBF73EF915
:10560000B0BDC0467800F81F42010020B80B000072
:1056100070B584B03E4D0821296101A9087040266B
:105620002E6103A80124048001880088002906D087
:10563000401E03A908800A880888002AF8D101A81A
:10564000214600F023FF02A8048001880088002979
:1056500006D0401E02A908800A880888002AF8D1CE
:105660002E6004B070BDC04670B584B0284D0821CE
:10567000296001A9087040262E6103A80124048036
:1056800001880088002906D0401E03A908800A88E6
:105690000888002AF8D101A8214600F0F7FE02A8E8
:1056A000048001880088002906D0401E02A90880D5
:1056B0000A880888002AF8D12E6004B070BDC04660
:1056C000F0B583B0124C082222604025256102AA61
:1056D0000126168013881288002B06D0521E02ABBA
:1056E0001A801F881A88002FF8D100F0CFFE01A879
:1056F000068001880088002906D0401E01A9088084
:105700000A880888002AF8D1256003B0F0BDC04699
:1057100018000050F0B587B0514C2168206801276F
:10572000B8432060394004910A202168C90701D09C
:10573000401EFAD178054B490A6802430A600A689C
:1057400082430A6048480168484A1140BB03C918AF
:1057500001604168802631434160C1681140C91829
:10576000C1600168424B19403D034919016041681D
:10577000402211434160C16819404919C160019636
:105780008661826106A964260E800B880988002B39
:1057900006D0491E06AB19801D881988002DF8D146
:1057A00000200390C04302902F48016909062BD4C2
:1057B0000097304B1968059105997D21CF00002F86
:1057C00025D019682848826206AD2E80C9032C882E
:1057D0002D88002C03D06C1E06AD2C80F7E7C9176E
:1057E0002148826106AC268020882588002803D0C5
:1057F000681E06AC2080F7E7CF191B480069000639
:10580000DDD5039D029E04E0039D029E1AE0039DE8
:105810002E461548019A8262186806900698009FE5
:1058200039460F4C1868C003C0174118FAD10E480A
:10583000826118680690069801201968C903C91783
:105840000818FAD1FCF7CCFF0498002802D0206891
:1058500038432060E843301A411E884107B0F0BD4C
:10586000005400402810024000040050FF3FFFFF9A
:10587000FFCFFFFF10E000E070B5194C2168C907A9
:1058800003D1216801220A432260FBF7D7F8154AA9
:10589000154BFAF78DFD0022144BFAF76FFCFBF75E
:1058A00019F9A26812490A400243A2602246083A46
:1058B000136802200343136001225307EA4D2E6848
:1058C0001E432E6052030B4B1A60FF310A4A1368C5
:1058D0000B4013602168014304208143216070BDA7
:1058E000107C0040D0BAC114F9ACDB3F0000E03FAF
:1058F0000000FFFF00E100E00CE400E0A1B0104D6B
:10590000686B012210436863686B10401A901A9804
:105910001107A86B0843A863A86B079108401A9069
:105920001A98084B9869202110910843102113916F
:10593000884398610448001F01689143016005E0B5
:105940000010024008000140042002400168C9071D
:10595000FCD10326F002054B19688143D002169052
:105960000818186028681043286001E000700040A3
:1059700028684007FCD51F20000269688143100396
:10598000149008186860286D10432865286D8007FA
:10599000FCD5E8688021099108437021059188436E
:1059A000E86007231802E9688143E9600F93D80291
:1059B000E9688143E960E86810430221189188434F
:1059C000E860E8680C2101400429FAD19F49A04809
:1059D000486000248C6005200860F3430B93E96C59
:1059E0001940E964E96C9B4B1940E964E96C9A4BF6
:1059F000194093040E93C918E9641F941E941D94D2
:105A00001C94E96A04231943E962E96A19401F46B4
:105A1000129320912099E96A1143E962E96A1140E1
:105A200020912099E96A189B1943E962E96A1940B3
:105A300020912099050708201190A8621398A86268
:105A400040200A90A8621498A86284481099816244
:105A500011020D9181628761A9611698A8611E9457
:105A60001B9690030C901A9017967D4F19921AAEC0
:105A700038463146FBF7A8FE1E9417981B901998DC
:105A8000C00306901A903846179F3146FBF79CFEDC
:105A90001E941D941C9719981B9011981A902846D3
:105AA0003146FBF791FE1E941D941C9419981B908F
:105AB00013981A9028463146FBF786FE1E941D94D3
:105AC0001C9719981B900A981A9028463146FBF7A4
:105AD0007BFE1E941B9718981A90604F38463146EB
