:020000040800F2
:1000000048050020D5000008F14E0008E51500085D
:1000100000000000000000000000000000000000E0
:100020000000000000000000000000005151000826
:100030000000000000000000F34E000853520008CA
:10004000E7000008E7000008E7000008E7000008F4
:10005000E7000008E7000008E7000008E7000008E4
:1000600000000000E7000008E7000008E7000008C3
:10007000E7000008E700000800000000E7000008B3
:1000800000000000E7000008000000000000000081
:10009000E700000800000000E7000008E700000893
:1000A000E7000008E7000008E7000008E700000894
:1000B000E7000008E7000008000000000000000062
:1000C0000348854600F02AFA00480047C557000853
:1000D000480500200448804704480047FEE7FEE743
:1000E000FEE7FEE7FEE7FEE755520008C100000804
:1000F00030B50B46014600202022012409E00D46C0
:10010000D5409D4205D31D469540491B2546954047
:1001100040191546521E002DF1DC30BDF0B51FB45C
:100120000646002082B005464024019100901BE065
:10013000019922460F46304600F012FA049A059BB8
:10014000801A994110D310461946224600F0F8F95A
:10015000361A8F410197224601200021009F00F0AE
:10016000EFF938184D4100902046641E0028DFDC6E
:10017000019B00982946324607B0F0BDF0B507460E
:100180000846584087B0C00F049048000E465900FA
:1001900040084908BC1A884105D2384631461E46F7
:1001A00017460B4602465800400810434CD0300D0D
:1001B000039040055900400D490D0590401A0290EA
:1001C000402872DA18030121000B09050843019049
:1001D00004980092002805D00199524200208841DD
:1001E00000920190029840210A1A0199009800F0AB
:1001F000A7F905460C466B4607CB00F0C2F9C019BB
:100200007141039A0E0D0023D71756401A467A40C3
:10021000164344D0049A002A2DD0029A012A039A48
:1002200015DC1205C01A914101263605001C7141EA
:10023000D20F059ED2070093019202962A462346CA
:1002400000F0BFF907B0F0BD38463146FAE71605B1
:10025000224A0F46B218C01AB74101210905001CF5
:100260004F4100187F41114618187941E20F1043A1
:100270006D19644113E0E2076D0815436408C20775
:100280001443039A01261205C01A91413605001C39
:100290007141CE07400830434908C01851412A46F1
:1002A000234600F081F9CDE7FFE7049801224000E2
:1002B000C117121A00238B4104983146C417381A0B
:1002C000A141EEE730B40124E407634030BC55E7B8
:1002D00030B40124E407614030BC4FE70000E0FF88
:1002E000F0B51FB488B00B990998002448400999CB
:1002F000C00F490049080991C0070B9900904900B7
:1003000049080B9109990898A64608431CD00B99F7
:100310000A98084318D0099801244000420D48006B
:10032000410D099824050003000B204309900B9808
:100330000003000B20430B9050181C49401800226A
:1003400001901446104605E0002001460DB0F0BDB6
:10035000032801DA034600E003239C46C11A0AAED3
:100360000AE05F0008ADED5B4F00F75B7D430027BF
:10037000AA187C41491C5B1E6145F2DD410004ABBB
:100380005A522104120C0A43240C401C0828DFDBBB
:10039000019802900099704601910090059B049A83
:1003A0000799069800F00DF9D0E700000DFCFFFF5B
:1003B000F0B50C465C4085B0E40FE40703944C00B4
:1003C00000266408590094464908024602962243D2
:1003D00021D062460A431ED06200570D4A000E0328
:1003E0002303550D012402462C492405781B1B0BC1
:1003F000360B401823432643614600901C46501A92
:10040000B44103D30098401C009002E09218009879
:100410005B41002803DA0020014605B0F0BD002052
:10042000012109050746864611E064461D46141B56
:10043000B54106D36546521BB341744607430C438E
:10044000A646CD0740084908284392185B41054657
:100450000D43EAD11046184313D060461946504068
:100460007140084306D06046101AB34106D20122FB
:10047000002306E000220123DB0702E00122D24331
:100480005310009874460105381C6141029C039D7D
:100490000019694100F088F8BFE70000FD03000083
:1004A00070B54B005B0803430BD04B005C0D00267E
:1004B00033466542B341D417AD1AA34102DB002095
:1004C000014670BD12053018514170BD0EB5C217FE
:1004D000C10F5040CA0740180021054B02930192FA
:1004E00000910A460B4600F06CF803B000BD000016
:1004F0003304000010B5002904DB0124E407404266
:100500008C412146002B04DB1C460123DB075242B1
:10051000A341994200D1904210BD0000064C012534
:10052000064E05E0E36807CC2B430C3C984710349B
:10053000B442F7D3FFF7C8FDE4E8000804E9000877
:1005400010B5202A04DB0146203A9140002010BD5E
:10055000914020239C1A0346E3401943904010BD6C
:1005600010B5202A04DB0846203AD040002110BDF7
:100570000B46D340D0402024A21A9140084319468C
:1005800010BD10B5202A06DBCB170846203A1041D3
:10059000C1170B4306E00B461341D0402024A21A9A
:1005A00091400843194610BD10B5002B08DA00240D
:1005B000401C614192185B411A4301D14008400040
:1005C00010BDF0B51FB482B005460C0003D008463C
:1005D00005F010FF02E005F00DFF2030024600900C
:1005E00021462846FFF7ACFF049B059A04460F46B8
:1005F00018431143084314D0184610431BD00098E9
:1006000040210A1A18460599FFF7AAFF05460E462B
:10061000009A05990498FFF793FF084305D001203D
:1006200004E02046394607B0F0BD0020C11705435D
:100630000E432C43374300990E986305401A790501
:10064000E40A00220C43FD0A0A3002D500200146CC
:10065000E9E70105101969410C9C0D9D00196941DC
:10066000FFF7A2FFDFE7FEB500231A461B1A8A41F7
:1006700003DB0020014603B0F0BD4A000D03012159
:100680002D0B0905520D0D43D10702D100186D4104
:10069000521E5110FF31FF310131002704463E4602
:1006A0003846009701910246012100200905FFF715
:1006B00057FFC3197141F818324684468E464A41A5
:1006C00061462846611A904104D36046241A954138
:1006D00076461F46241900986D41401C009034282E
:1006E000E1DDF91930467041091BA84103D200220F
:1006F000D243134601E00022134601980105381C3D
:100700007141FFF751FFB6E703460B439B0703D048
:1007100009E008C9121F08C0042AFAD203E00B78C6
:100720000370401C491C521EF9D27047D2B201E03E
:100730000270401C491EFBD270470022F6E710B53C
:1007400013460A4604461946FFF7F0FF204610BD3F
:10075000F8B502464A40D40F42004B0052085B08ED
:100760009A4202D20246084611464A0023D0C30DDF
:100770004A00DDB2120EAD1A202D35DA49020126EB
:10078000490AF6058A19002C00D0524220214F1B3D
:100790001146B9402A411018C20D9A4221D0002CAE
:1007A00017D0012D08DCDA05801AD20F8019D20784
:1007B000DBB200F0E5F9F8BDDA05801A012340004C
:1007C0001B06C01880185A428018CA0F10434900EF
:1007D00007E04908C2071143DA05801A801940086A
:1007E000801800F0C5F9F8BD61000122511A001B04
:1007F000F7E70122D2075140AAE70122D207504071
:10080000A6E7024670B54A40D30FDB0740002DD063
:100810004A002AD0010E140E000212020919400AE1
:10082000520A8418E50104465443000A120A2E04B1
:100830005043A4194219200CC543AA18120C0125D3
:10084000AD03521C521912047F39240400D0521CEB
:10085000104301D44000491EC2B20C06C009201842
:10086000401C4008802A02D003E0002070BD4008F0
:100870004000002900DA0020184370BD70B5024620
:100880004A40D50F40004A00ED07400852080028B2
:1008900014D0002A12D0C40DD30D41020120C0058E
:1008A0005202490A520AE41A091812187D34914278
:1008B00001D3641C00E04900002C01DA002070BD67
:1008C0000023914201D3891A0343400849000028BC
:1008D000F7D100290AD0914202D10121C90705E0D0
:1008E000914201D2012101E00121C943E005C01874
:1008F000401900F03DF970BD0122D207002800DB4D
:10090000101A002900DB511A814201D801207047DA
:10091000002070470122D207002800DB101A0029AE
:1009200000DB511A814201D201207047002070473C
:100930000122D207002800DB101A002900DB511A1F
:10094000814201D301207047002070470122D20765
:10095000002800DB101A002900DB511A814201D95E
:10096000012070470020704710B5002904DB0C46B9
:100970000121C9074042A141002B04DB1C46012391
:10098000DB075242A341801A994101D3012010BDD7
:10099000002010BD10B5002904DB0C460121C90759
:1009A0004042A141002B04DB1C460123DB075242DD
:1009B000A341101A8B4101D2012010BD002010BDAF
:1009C00010B5002904DB0C460121C9074042A141B2
:1009D000002B04DB1C460123DB075242A341101A03
:1009E0008B4101D3012010BD002010BD10B500299E
:1009F00004DB0C460121C9074042A141002B04DB66
:100A00001C460123DB075242A341801A994101D2BF
:100A1000012010BD002010BDC217C10F504010B5FD
:100A20004018CA079623002100F0AAF810BD10B59F
:100A300000229623114600F0A3F810BD0EB505491B
:100A40000291002100910A460B460191FFF7B9FD82
:100A500003B000BD33040000C20F41004002012377
:100A6000400ADB05D207090EC0187F2901DA0020F1
:100A70007047962903DC9623591AC84001E096393D
:100A80008840002AF4D040427047000070B5CD0F76
:100A90004A0009030123090B1B0519430B4BED0702
:100AA0000024520D9A4201DA002070BD074B343306
:100AB0009A4203DC9A1AFFF753FD02E004495118E9
:100AC00088402C43F1D0404270BD0000FF0300007D
:100AD000CDFBFFFF4A0009030123090B1B05194346
:100AE000094B10B5520D9A4201DA002010BD064B99
:100AF00034339A4203DC9A1AFFF732FD10BD0349E2
:100B00005118884010BD0000FF030000CDFBFFFF1F
:100B1000C20FD207400040080BD0C10D0723DB01F4
:100B2000C91840020905400A1143C2084007114391
:100B30007047002001467047CB0FDB07490010B516
:100B4000490802460A4307D00A0D07240903E401B5
:100B5000090B121B002A01DC002010BDC900440F44
:100B60000C43C100E018D205801800F001F810BD58
:100B7000002904DA401C490001D1400840007047B8
:100B800070B40024050C05D11024000402D1002902
:100B900021D01124050E01D100020834050F01D126
:100BA0000001241D850F01D18000A41C002801DB59
:100BB0004000641C002908D020252E1B0D46F5405E
:100BC000A14000D001212943084301061B1B000A54
:100BD000DB1D02D5002070BC7047DB05181880189B
:100BE0000029F8DA401C4900F5D170BC40084000EB
:100BF00070470000B0B581B01B480168C90731D00B
:100C00007D21C900026852076A4BBC4A10D40468AF
:100C10001C4002232343036013680093009B036876
:100C2000DB0717D01368DB03DB175918F7D119E07E
:100C300004681C4010252543056014680094009C3E
:100C40000C460568ED06E2D51568ED03ED172C1985
:100C5000F7D107E00146083901220A600168034A1A
:100C60000A40026001B0B0BD08240140E8FFFF6FF8
:100C7000F0B587B00026134D009606A9284600F06F
:100C800027F800281AD106AF788804F009FC0E492D
:100C9000FFF7F4FD04463888FFF7C9FE01462046F9
:100CA000FFF7AFFD0949FFF7E9FD01A98851361D9E
:100CB000142EE2D101A804F0ABFB00E0009807B0CD
:100CC000F0BDC046020002C400F07F4500007A4437
:100CD000F0B583B00246334B1C680120E4074DD0C9
:100CE000314C22409A62082200921A6004241C604F
:100CF00000252E4A2E4E37683F0705D46F1CADB233
:100D000095423D46F7D106E0ADB2954203D10022AF
:100D10004A800A8032E00190986820404242424175
:100D20007D20C0000027DF4ED20704D09A68214DF5
:100D30002A4022439A6032680292029A02461D6853
:100D40006D0705D43568ED03ED17AA18F7D114E047
:100D50001A6C194D2A407D004A531C609D6825403D
:100D60006A426A417F1C022FDED10446002D0198A1
:100D700006D100981860002000E0019803B0F0BD93
:100D800099680C4A114010220A439A603168029116
:100D900002999968C906ECD53168C903C9170C19BD
:100DA000F7D1EBE700240140FFFF0700FEFF000042
:100DB00004700040E8FFFF7FFF0F000010B582B015
:100DC0004B48417800291FD04A4CF921E160616805
:100DD000FA2901D300216160807800F065F9E068AC
:100DE0004008606001200002216801432160AD4994
:100DF0000A680192019A14220B68DB03DB179A1828
:100E0000FAD121688143216002B010BD10B582B0D3
:100E10003748417800291FD0364CF921E1606168DC
:100E2000FA2901D300216160807800F03DF9E06883
:100E30004008606001200002216801432160994957
:100E40000A680192019A05220B68DB03DB179A18E6
:100E5000FAD121688143216002B010BDB0B582B0E3
:100E600023484178002940D0224CF925E56061688B
:100E7000FA2901D300216160807800F015F91E483D
:100E8000E0606068C0087D2801D300206060E068F1
:100E9000400860600120010220680843206081480A
:100EA00002680192019A28220368DB03DB179A1873
:100EB000FAD12368234A13402360E5606368FA2B64
:100EC00001D300236360E3685B08636023680B431E
:100ED000236001680091009928210368DB03DB1778
:100EE0005918FAD120681040206002B0B0BDC04649
:100EF0001C00002020000040E703000010E000E09C
:100F000001210E480268D20503D40A020368134384
:100F10000360C9040A4A13680B43136013688B43C8
:100F20001360026807490A400260ED3106480A581A
:100F3000002A01D1091DFAD17047C0460070004057
:100F400050100240FFFEFFFF64280040F0B585B05E
:100F50001E4615460746524A1068000731D45148CC
:100F600003680393039B14230468E403E417E31862
:100F7000FAD11068000724D400960846FFF75EFDFA
:100F800002460B460020324905F03EFD029505461B
:100F90000E4601973F783846FFF750FD2A46334604
:100FA000FFF706FAFFF796FD0A21FFF7A1F80C46B6
:100FB00028463146FFF78EFD02998C4237D2381809
:100FC00040E013680020DB063FD40295354B1C68D7
:100FD0000494049C14241D68ED03ED172C19FAD118
:100FE0001268D20631D40846FFF728FD02460B46A8
:100FF0000020174905F008FD054600960E460197AA
:101000003C782046FFF71AFD2A463346FFF7D0F911
:10101000FFF760FD0A21FFF76BF80F4628463146BF
:10102000FFF758FD00998F4207D9201A0AE0444380
:1010300000994143C819001B04E04743029941430A
:101040000819C01B01990870012005B0F0BDC04609
:1010500000002440B0B581B00120C0030F49104A00
:10106000104B0C680442FCD014682407F9D51468AE
:10107000E406F6D51C680094009C14241D68ED035A
:10108000ED172C19FAD10C680442EAD01468240731
:10109000E7D51468E406E4D501B0B0BD10000050F7
:1010A0001004005010E000E0F0B581B00B21FFF714
:1010B0001FF80C460F4F3868FFF7C0FC00250E4B99
:1010C0002A46FFF70DF90D4B2A46FFF771F9054641
:1010D0000E462046FFF7B2FC02460B46FFF700F92A
:1010E0002A463346FFF7FCF8FFF7F4FC386101B0FD
:1010F000F0BDC0462C0000400000E03F0000594019
:1011000070B51D46144600F001FA242004F0E4F9FD
:101110006C43200409D0049D0026284604F008FAF8
:10112000A0B2761CB1B28142F7D32520C2000020C4
:101130001023014600F0EAF970BD000070B52520CB
:10114000C4000025102328462946224600F0DEF977
:10115000242004F0C1F9074EFF2004F0E9F9681CCF
:10116000B5420546F8D3002010230146224600F080
:10117000CDF970BD7F120000F0B587B007240B4693
:10118000059423405B1CDB0804935B1C0191C90898
:10119000029200F0BBF900273A460392022501981B
:1011A00039460C4606A90F70059908403946802239
:1011B000C24011436D1E2A0603D0401C0828F6D1F8
:1011C00000E03D46C84306AE3070242004F084F9A8
:1011D0000121304604F0D8F9611CE0B2049A904233
:1011E0003846DED3039A521C90B202998842D4D377
:1011F00007B0F0BDF0B581B01446127863789A1844
:10120000A378DD082B4600F081F966782778242042
:1012100004F062F9F1196943E01C04F0B5F901B07A
:10122000F0BDF0B58DB00A920691059018780028AF
:1012300000D1E8E01C46139E129F391D0791F11D55
:101240000391002508960497010615D40B95002FED
:1012500025D03978401A7A78B97813464B43DE089E
:101260007043079D281809908019FB787343EB1889
:10127000984250D90B9D5EE0002E00D1BEE00CA933
:1012800000220A701146034693401B0632D5521CB9
:10129000491C052AF7D10CA805210170AAE0002EEF
:1012A0004ED020284CD105980B99081880B2B178FF
:1012B00072785608CF08069932463B4600F026F968
:1012C0007E430ED000250CAFFF203870242004F0A0
:1012D00003F90121384604F057F96D1CE8B2864243
:1012E000F1D80B980A994018089E7178490845185A
:1012F000049F83E00CAA11707F220A40042A21D0A7
:10130000032A32D0022A75D16178002972D0641C78
:10131000C006420D35E005980B9D281880B2CB0819
:10132000069900F0F3F8242004F0D6F80998314625
:1013300004F02AF97A780A9828188518089E5DE042
:101340000B9D5BE06278002A54D0A378002B51D02B
:10135000E17800294ED0E41C4007C00A9206920BA7
:1013600010189A06120D82180BE06278002A41D0FC
:10137000A17800293ED0A41C0007000C9206120D93
:1013800012183F200840104334D0F178002931D0A2
:101390000B957378B278019300925343DA08029266
:1013A000D21C09920223DB43039EF55C2D04F21844
:1013B00057783F027D199278AA18824207D0099A7D
:1013C000B618491EF1D1089E049F0B9D12E00598A6
:1013D0000B9D281880B20099CB080699019A00F05D
:1013E00095F8242004F078F83046029904F0CCF8FF
:1013F000089E049F0A982818717845186078641C24
:10140000002800D020E70DB0F0BD80B5222004F008
:1014100063F8032004F08CF8202004F05DF800F05D
:10142000BDF8102004F058F8012004F081F880BDC8
:10143000B0B582B00446304910220A612F480368D3
:101440000093009B01230568ED03ED17EB18FAD11B
:101450000A6001680191019901210268D203D21743
:101460005118FAD1012C04D0122004F035F800F004
:1014700095F80125284604F02FF8272004F058F8A5
:10148000284604F055F8002004F052F80C2004F02F
:1014900023F8D72004F04CF8D62004F049F89D201A
:1014A00004F046F8112004F017F8284604F040F83C
:1014B0002C2004F011F89A2004F03AF83A2004F0B5
:1014C0000BF81A2004F034F83B2004F005F808204B
:1014D00004F02EF83C2003F0FFFF332004F028F83E
:1014E000322003F0F9FF60B2800005A108581E21E8
:1014F00004F04AF802B0B0BD1800005010E000E05F
:10150000F6DC000814DD0008D8DC0008F0B581B076
:101510001F4600920C460646442003F0DDFF20469D
:1015200004F006F8E019411E1F20084004F000F8FE
:10153000452003F0D1FFFF202830851BEEB2304656
:1015400003F0F6FFE805C70F384603F0F1FF0098F7
:10155000281A451CE8B203F0EBFFE805C00F03F0C2
:10156000E7FF4E2003F0B8FF204603F0E1FF4F20D5
:1015700003F0B2FF304603F0DBFF384603F0D8FF3C
:1015800001B0F0BD80B5222003F0A6FFC62003F015
:10159000CFFF202003F0A0FF80BD000082B001A893
:1015A0000A21018001880088002906D0401E01A977
:1015B00008800A880888002AF8D1814801680091CB
:1015C00000990649064A1368DB0705D00368DB0368
:1015D000DB17C9180B04F6D102B0704710270000C2
:1015E00010040050BFF34F8F034804490160BFF35C
:1015F0004F8F00BFFDE7C0460CED00E00400FA0588
:1016000080B582B06E480168019101997D21CA00C0
:101610006C490B685B0708D40368DB03DB179A1877
:10162000F7D103F0DBFF002000E0C868C0B202B0D1
:1016300080BDC046F0B583B001917D23DD00504BE5
:101640005C6924045E4E14D4009201221146D70234
:101650001C68BC431C60324A541C1F682740381861
:1016600018601868019F002F15D02A4618321043C1
:1016700012E034680294029C2C465F69FF07E3D1B4
:101680003768FF03FF173C19F7D103F0A7FF0028C5
:1016900041D1012440E0104018600C4608061A6849
:1016A00082431A60FF2000041A68824300980004F5
:1016B0001018186048061A6882431A6048031A68AE
:1016C00002431A60306802900298002F18D0002D53
:1016D0001DD05869400718D43068C003C017451999
:1016E0005869C006F3D59869102101439961032414
:1016F00012E03068C003C01745195869C006F2D41B
:10170000002D04D05869C007F3D0002404E003F092
:1017100065FF002800D00224204603B0F0BDC0467B
:10172000FFFBFFFF10B582B02548016801910199C8
:101730007D21C900124A0B465469E40705D10468AB
:10174000E403E417E318F7D10FE001239B031468C7
:101750001C43146003680193019B53691B040CD55F
:101760000368DB03DB175918F7D103F037FF0028B4
:1017700001D0022002E0012000E0002002B010BDF4
:101780000454004010B582B00D490A680192019AD4
:101790007D22D3000B4A1468E4070AD10C68E403E5
:1017A000E417E318F7D103F019FF002804D0022052
:1017B00003E01061002000E0012002B010BDC0462F
:1017C00010E000E018540040F0B584B00C68002C24
:1017D00055D00123019303915A1E019F9740274042
:1017E00048D04A68551E022D02943D4615D27D43CD
:1017F00003998C686C4303266E438168B14321438F
:1018000081600399C9680092029A514344689443E5
:10181000009A0C434460039902E07D4303266E4323
:10182000F64309696943C46834400C43C460022A22
:10183000029C19D13C0A01D0242200E02022039905
:101840004F6902928258002C02D06443644301E045
:101850002C466C430F2161438A4367431743029927
:10186000475003990C684A68554301683140294341
:10187000016003992246DA405B1C002AACD104B017
:10188000F0BD0000F0B587B072B62B4F786A0090BB
:101890002A4CA0680290E06801906569A669284812
:1018A000411C3A680A433A6039680140396003A82C
:1018B00000F04AF83046284333D003208004796A88
:1018C000204A11407962002D0FD0216901220A437C
:1018D00022616561039923680822491E01D01340E3
:1018E000F9D06368134363600391009D0540002EA7
:1018F00012D02069012101432161A66103A800F0F3
:1019000023F8039822681021401E01D00A40F9D024
:1019100062680A4362600390786A0A490840284373
:10192000786220690121884320610298A0600198B3
:10193000E06062B607B0F0BD28100240007C0040B5
:10194000FFFFFF7FFFFFF3FFB0B5044603F0FAFA95
:1019500020608C490A681206120F094B9A5CD0402D
:1019600060600A685205520F064B9A5C0546D540E6
:10197000A56009688904490F595CC840E060B0BDA2
:101980008EDE00089EDE0008F0B581B072B601243C
:101990002102754D6A688A436A60296804273943C1
:1019A00029607A4A20211160704B1A68A2431A609C
:1019B0005C616F4A116003F0C3FE60022968014355
:1019C0002960A1022A688A432A60E1036D4A1368EC
:1019D0000B4313602968214329600221CA432B6805
:1019E00013402B60684B1E683E431E6030BF2B685F
:1019F00083432B606003654B1860654B5D68154041
:101A00005D601A680A431A606107584A5161584973
:101A10000860FFF737FF62B601B0F0BD70B572B66F
:101A200051484168144A11404160036804210B4346
:101A30000360036808241C43046001231C024568FA
:101A4000254345609C040D4D2E68A6432E602C68EE
:101A50009C432C602C6814402C605A02036813438A
:101A600003600268022313430360474802680A4385
:101A7000026030BF70BDC046FFFEFFFF5010024045
:101A8000F0B585B072B601242002374E71688143EB
:101A9000716030680421039108433060E143049190
:101AA000324A1068084010605461314820270760AE
:101AB0001068204310602F480760FF2000022E4965
:101AC0000A6882430A602D4803F03AFE30680190AC
:101AD00030682B49084021034018306061020291B0
:101AE000306808433060A002336883433360E0030A
:101AF000244B1A6802431A60306820433060022386
:101B0000D8433268024032601F4A1168039D29435E
:101B100011600321C902019A114030BF3268184D8B
:101B20002A405118316019490F60104D2A680499F4
:101B30000A402A606C610E4A1760326802998A4333
:101B40003260620311490A6011494E6806404E60D6
:101B50000868184308606007686105480260FFF77D
:101B600091FE62B605B0F0BD007000400004014077
:101B700080E200E000E100E004E400E01027000063
:101B8000FFE7FFFF0C10024010ED00E080E100E0F5
:101B9000047C0040B1B00120119000021090234855
:101BA0000078411E224E022900D33EE1FFF7A8F93A
:101BB0000F2003F06FFA1F4940B2002803D40878C1
:101BC000AA2800D1C8E103F095F90121CD031A48F4
:101BD00000681A4F002800D097E119A000240E4693
:101BE000214600F04DFEFFF735FA0F940E940D9646
:101BF000184B30460E4E316829420CD13968149189
:101C0000149914213A68D203D2175118FAD13168C5
:101C1000294200D182E0E1B2032900D97AE0C0462E
:101C20007944097949008F44173655651100002021
:101C3000100000501C000020FC07080810E000E025
:101C4000E7A1ACE4BBB6E78988E69CACE8AEBEE7AA
:101C5000BDAE000010040050196809070BD43968A4
:101C60001491149914213A68D203D2175118FAD159
:101C70001968090758D51968C9064BD439681491F1
:101C8000149914213A68D203D2175118FAD119685D
:101C9000C9063FD458E0196809070BD43968149174
:101CA000149914213A68D203D2175118FAD119683D
:101CB000090741D51968C9062CD4396814911499BB
:101CC00014213A68D203D2175118FAD11968C906FB
:101CD00020D440E0196809071CD43968149114997C
:101CE00014213A68D203D2175118FAD1196809079A
:101CF00010D4D2E0196809070CD4396814911499EA
:101D000014213A68D203D2175118FAD11968090779
:101D100000D4F8E0002600282DD16AE7E0B20328BD
:101D20000D9E21D2641C20E00E99C8B2092801D270
:101D3000491C0E910D9E17E00F99C8B2092801D2D7
:101D4000491C0F910D9E14E00E99C8B200280D9EFB
:101D500008D10E9008E00F99C8B200280D9E06D158
:101D60000F9006E0491E0E910024012003E0491E59
:101D70000F91012004461968C9073CD112960F98AB
:101D8000C0B200900E98C3B21394DC481099DCA244
:101D900004F014FBE0480090E04C0194042100267C
:101DA00030463246D54BFFF73CFADB4800900194B1
:101DB000082130463246DAA3FFF733FAD6480090BE
:101DC0000194139C0C2130463246DEA3FFF729FA1A
:101DD000FF2000908420072124220123FFF790F99F
:101DE000E0B2811E02290AD301280AD00028304619
:101DF0000DD1842006E0002E064611D1F8E6601EC3
:101E000005E09C200721D44AFFF7F4F93046C0B220
:101E100000F01CFEFFF7B6FB1298002800D1E7E6A1
:101E2000FEF7CCFFFFF716F9E2E6032800D093E0B7
:101E30000F2003F02FF98007C84B1FD41868000744
:101E40000CD4C74801681491149914210268D20374
:101E5000D2175118FAD11868000719D51868C006AA
:101E600016D4BF4801681491149914210268D20352
:101E7000D2175118FAD11868C00609D40F25284680
:101E800003F008F9FD210140284603F020F963E042
:101E900003F030F800F030FE5EE0386814900E98E1
:101EA000C0B20F99C9B209044018AE49421814983B
:101EB0007D20C100AC480B464469E40705D03C686E
:101EC000E403E417E318F7D11DE00368DB0703D050
:101ED000A64B8360A64B8360A64B1A603A681492A7
:101EE000149A4269D20705D03A68D203D217511822
:101EF000F7D108E0016801220A4302600068C007C8
:101F000001D09C480068FEF7A9FF9BA0022100F0C9
:101F1000B7FCFFF79FF8002004219B4AFFF76AF9FE
:101F2000FFF730FBFFF7ACFD30682842FCD1386882
:101F30001490149814203968C903C9170818FAD1E5
:101F400030682842F0D1FEF789FF02F0B3FCAA20E6
:101F50008E49087003F0FEF802F0CCFF8C4803F0C5
:101F600031F8002630460B30C5B2284603F092F80F
:101F7000014680242143284603F0A9F8761C032E4D
:101F8000F0D10E27384603F085F801460220139061
:101F90000143384603F09BF80F25284603F07AF8F2
:101FA0000146FD200B900140284603F090F838468A
:101FB00003F070F80146FE263140384603F087F8FA
:101FC000284603F067F806402846314603F07FF8BC
:101FD000384603F05FF80146042631430A97384635
:101FE00003F075F86B4803F05DF91398FFF720FADA
:101FF000FFF7A4F8684800680F90FEF789FD0546D2
:102000000F46664A664BFEF7C5FC002807D1654AB5
:10201000654B28463946FEF7A7FC002802D1FEF79B
:1020200027FE0F90594880680F99FEF765FC1199BB
:10203000CD020F0389075D4A00280E950D970C917C
:1020400000D0BFE014460A2003F024F8AA280ED0DE
:102050000020574A0146FFF7CDF8FFF793FAFFF744
:102060000FFDFFF7D2F90A20AA2103F030F80E2560
:10207000284603F00FF801460B9F3940284603F02D
:1020800026F80F25284603F005F80740284639466C
:1020900003F01DF820684006109F03D520684021FA
:1020A000884320601020434CA0610820A06140209C
:1020B000A0612A4DAE60FEF79DFD0C9A106A3E4964
:1020C0000840106211680120814311603B4A116889
:1020D000C90702D01168814311602020A8610D98C2
:1020E000A0610E98A060364DA7613220FFF74CFC2E
:1020F000A7602846FFF748FCF6E7C04634000020FA
:10210000E7A1ACE4BBB6E78988E69CACEFBC9A5685
:1021100025642E2564000000017500086E980008F3
:102120005BE6B3A8E6848FEFBC9AE8AEBEE7BDAE2F
:10213000E4BF9DE5AD98E5908EE4B88DE4BC9AE5EA
:10214000868D0000E698BEE7A4BAE6ADA4E88F9CB1
:10215000E58D955D00000000E5BB0008100400500F
:1021600010E000E0302E300004200240EFCDAB89BB
:1021700005040302FC070808E6ACA2E8BF8EE4BD34
:10218000BFE794A800000000F5CE00081C00002066
:102190003801002014000020502800409A99999995
:1021A0009999B93FCDCCCCCCCCCC0C40003001407F
:1021B00072BC000810000050FFFEFFFF00540040FA
:1021C000881300000A200021139102F080FF7D2671
:1021D000EE4B5979481EC0B20B280B960CD81A79D1
:1021E000501EC0B21E2807D830019B791818E84B42
:1021F000C318C82B00D2E0E0E64800210170E64891
:102200000170E64801701398E54D2F6869681191D7
:1022100081214E00049626361C2132460546FEF7E3
:10222000ABFF682128463246FEF7A6FFD5204321A2
:102230004C22FEF7A1FFCA200421022208230A91A2
:102240000993FFF763F93846FEF762FCD54AD64F8B
:102250003B46FDF793FFFEF76FFC0646FEF7FCFBDF
:102260000690FEF7D9FB01463046FEF7C2FACF4989
:10227000FEF7C7FA0890119D28461399FEF74AFB0E
:1022800006462846FEF744FC02460B46002E1294F2
:1022900000D0C74FC348C54C3946FDF76FFFFEF766
:1022A0004BFC0646FEF7D8FB0590FEF7B5FB014652
:1022B0003046FEF79EFA2146FEF7A3FA0790139BDD
:1022C000184611900720382519460E4614A90B70A0
:1022D0001946129C2246C24011436D1E2A0603D0A5
:1022E000401C0828F6D100E01D46C84314AF3870E2
:1022F000242003F0F1F801243846214603F044F984
:10230000139B711C072E1846DFD31199481C002916
:10231000D7D02646F748456828460F99FEF716FBA2
:1023200007460798FEF798FB11900898FEF794FB74
:102330000446002F12900CD1FD482946FEF759FAA9
:102340000746FEF7E5FBFB4AFB4BFEF739FB00288F
:1023500007D10021F94A0498FEF74CFF1099E94C87
:10236000A2E0139714A8F5497222FEF7CDF9F049BF
:102370000F9F3846FEF7DCFA002869D13846294617
:10238000FEF737FA0546EE491398FEF777FA01464D
:102390002846FEF773FAFEF7BBFB0022E94BFDF778
:1023A000EDFEFEF773FB1928014600D31921002822
:1023B000D94D04984FD00E464DE0DD1CAF00D74EEE
:1023C000F659099646024F0137431743099EBE420C
:1023D00000D99D1CAD00D14B5F5902F009FF0646A4
:1023E0001F223A40F802000DF905090F02F000FF24
:1023F000301A431CCA494859C1030A0F0D25119EC2
:1024000031466D1EAE400640EE40012E01D01D2625
:1024100000E01E269FB2BE4205D29B1B491C002D28
:10242000119EEED10A99BF48139D0570002A08D06D
:10243000CDB2AA4205D2521CAA4201D10122027099
:10244000491E1398B04DB84A1370B84A1170DCE6B3
:102450001926B14D04984B2114AA5218FF2757761C
:10246000137E07241C431476937EE0241C43947649
:10247000C91EF1D1002E11D014A965316A18D35D9F
:10248000F8241C40D4554B1E00241C700B781F24CC
:102490001C400C70FE32761E1146EFD1002114AAAA
:1024A000FEF7A8FE974C1099A379E0786579227918
:1024B000019200958000A44A101802908E4DA3A2AC
:1024C000284603F07BFF8D4E01968D48009000203A
:1024D000012701463A462B46FEF7A3FE207A002844
:1024E00013D0E079002807D085480090019600209D
:1024F000092102229CA306E0814800900196002059
:102500000521022299A3FEF78CFEA3786078009043
:10251000794D974A2846109903F050FF207A01968A
:1025200094490091002801D0222000E01620059C4B
:10253000052106222B46FEF774FE0920C043844283
:10254000139702DC6C488E4A08E0632C04DC119877
:1025500000906948894A01E06748874A10992346F4
:1025600003F02CFF069D6648009037460196D52063
:1025700005210026604B3246FEF753FE632D19DC21
:10258000129800905C48804A16E0C046380100204E
:1025900030F8FFFF0E000020100000200C0000208B
:1025A000140000209A9999999999A93F0000204117
:1025B0009999A9BF5048734A109C21462B4603F0B5
:1025C000FDFE4F4800900197D52009214A4D324623
:1025D0002B46FEF726FE54480078072148436B4AF5
:1025E0001018504A1278514B1B7801904B436848A1
:1025F000C0180090900067490B18674A284621468A
:1026000003F0DCFE6548009601900E210222304660
:102610002B46FEF706FEFEF7B5FFFFF731FAFEF791
:1026200027FB5F490A68224202D10A6822430A60F6
:10263000364B18600868384A104008601868FEF782
:10264000E4FE344A10684006274D0B9E139C03D5C8
:1026500010684021884310601020A8610998A86183
:102660004020A86121490A988860294A1068C0075B
:1026700002D01068A0431060202088610D98A861E6
:102680000E98A860FEF7B6FA0C99086A224A104024
:1026900008620868A0430860E003154C29680142FD
:1026A000FCD021681491149914212268D203D21706
:1026B0005118FAD129680142F0D0FFF7AFF920682C
:1026C00014901498F0002168C903C9170818FAD1AA
:1026D000FFF7A4F9BFF34F8F324833490160BFF3CE
:1026E0004F8F00BFFDE7C04610000050100400509F
:1026F00010E000E01C000020340000206E9800086C
:102700000175000838010020140000205028004006
:102710000054004000300140FFFEFFFFD8E10008F8
:10272000A8DE00080C0000200E0000201000002091
:1027300000004040FCA9F1D24D62503F00BC0008AF
:102740000000C8410000E03F0BDE000832253033B6
:10275000642F253032642F2530326420E6989FE6BE
:102760009C9F257300000000504D0000414D00006B
:10277000C5E500086182000827E6000830E6000889
:102780001EE60008CEE60008D7E6000832DD0008A5
:1027900033DE00082BDE00080AE60008F29200088B
:1027A000007000400CED00E00400FA05F0B587B0C1
:1027B0002D490868022420430860086820400690DC
:1027C000012705970497039703260296019440205A
:1027D0000090069825486D462946FEF7F5FF0597B7
:1027E000049701A8D0C08020009020482946FEF719
:1027F000EBFF78051C4AD1680143D160D1680140E4
:102800000691069879061A4842680A434260C268EF
:1028100018490A40C260FA040368934303607A04CB
:102820000368934303600268BA4302601F221202E6
:10283000036893430360104A026102683A430260EE
:1028400082680A40826082680C4B1A4082603205BE
:1028500004689443046042680A404260591CC2689C
:102860000A40C26007B0F0BD2C10024000040050C6
:1028700000540040FF7FFFFF0B02100000F8FFFF35
:10288000F0B587B00C4605900220FEF7D1FD01207F
:1028900004900702002506950394FEF74FFC00956F
:1028A0005A480190284629462A46059BFEF7B9FC5E
:1028B000A4202946564E3246FEF79CFCD4202946D9
:1028C0003246FEF797FC381D29463246FEF792FC49
:1028D000032C00D984E0C0467C4424796400A744DA
:1028E00001314461002400944A4801909820012657
:1028F000314622464E4BFEF794FC00944548019029
:10290000D020314622464C4BFEF78BFC00944148C8
:102910000190384631462246484BFEF782FC00942F
:102920003C480190D3200D263146224644A3FEF7B1
:1029300078FC009437480190B81C31462246039C2D
:10294000414B4BE00024009432480190982001262E
:1029500031462246364BFEF764FC00942D48019028
:10296000C82031462246334B11E000240094294808
:10297000019098200126314622462B4BFEF751FC50
:10298000009424480190D02031462246274BFEF780
:1029900048FC00941F480190384631462246039C6B
:1029A000224B1BE0002400941A4801909820012635
:1029B0003146224618A3FEF734FC009415480190D6
:1029C000D0203146224616A3FEF72BFC0094114876
:1029D0000190384631462246039C12A3FEF721FCA3
:1029E0003A46283200201B21FEF7C6FB0698002835
:1029F00009D1FEF7C7FDFFF743F8049E3046FEF706
:102A000017FD069649E707B0F0BDC0466E9800086E
:102A1000F4BB0008F2920008E8BF9BE585A5000022
:102A2000E4B88A00E4B88B0088E70008FCE70008F7
:102A300073E700087AE700086FE7000852E700082C
:102A4000E4BF9DE5AD9800004BE70008F0B583B00A
:102A50000546FF260096D3200F214F22012423464E
:102A6000FEF74EFB2402002D05D0022D1CD0012DB7
:102A700020D1DD201AE00096C82001252122022362
:102A80002946FEF73DFB164F002600960197D02001
:102A9000144B29463246FEF7C4FB00960197124BB1
:102AA00020462946324616E020460C300F210F4AB8
:102AB000FEF7A0FB0A4F002500950197C8200126CC
:102AC0000B4B31462A46FEF7ACFB00950197094BAC
:102AD000204631462A46FEF7A4FB03B0F0BDC046AF
:102AE000F29200086FE7000852E70008E5BB000813
:102AF0007AE70008FCE70008F0B59BB0FEF7AEF9F6
:102B00001AA8401C0A90012001020C91C1031391E4
:102B10000023F84AF84C11930B90014610930029BA
:102B20004CD11068C00612D4206815901598142056
:102B30002168C903C9170818FAD11068C00606D45D
:102B4000109BD8B20021092843D3109147E01068A8
:102B5000000711D420681590159814202168C90326
:102B6000C9170818FAD11068000705D4109908068B
:102B700032D0491E109131E0E348006800271399D4
:102B800008420ED120681590159814202168C903B9
:102B9000C9170818FAD1DC4800681399084200D117
:102BA00052E112971199481E0D468541002900D027
:102BB00001231806129916D100238FE00321D3A018
:102BC000FFF75EFEFEF746FACD4A0123002739469D
:102BD00093E05B1C109302E0092010900021012378
:102BE0000B9D11930F461068C00777D10E95129177
:102BF0000D97FF2000900027042118220C2338464F
:102C0000FEF77EFAC44DC5482860C5480090C54807
:102C100001900324109E304620406043011D384639
:102C20003A462B46FEF7FDFA0094F4B2A008431C86
:102C300028460C99BC4A03F0C1FBB94806460090EF
:102C4000B8480190EC200D210F973A462B46FEF72D
:102C5000E8FA032C56D8B04F3846B4493CC93CC0BA
:102C6000097801700096AF480190192404210025CD
:102C700020462A463B46FEF7D4FAAD483946CCC832
:102C8000CCC102880A8080788870A5480090A54849
:102C90000190072120462A469F4E3346FEF7C1FA8F
:102CA0003046A449CCC9CCC00A880280897881709A
:102CB0009B4E00969B4F01970A2120462A46964C30
:102CC0002346FEF7AEFA9C4821463CC83CC1028828
:102CD0000A80807888708B4C304658E0002D0CD0EC
:102CE0003E461F460D46FEF769F8FEF7B3F9294642
:102CF0003B463746824A00201190002F00D10EE754
:102D000001F098FD072C54D8834E30468B490CC9EE
:102D10000CC01CC91CC082480090824F0197192426
:102D20000421002520462A463346FEF77AFA30462B
:102D300083490CC90CC04CC94CC009780170784853
:102D400000900197072120462A46734E3346FEF72E
:102D500068FA30467B490CC90CC04CC94CC0097894
:102D600001706F4F00976F4E01960A2120462A4648
:102D7000694C2346FEF755FA204673493CC93CC0CE
:102D80000A88028089788170384637465D4C0E9DEE
:102D90000090019719200D2100225F4BFEF741FAA8
:102DA000FEF7F0FB002D564A0F9B0D9F129997D10D
:102DB000A3E70B2C534C0E9DF2D8574E3046634977
:102DC0000CC90CC01CC91CC0097801705448009083
:102DD0005448019019240421002520462A463346F0
:102DE000FEF71FFA30465A49CCC9CCC00A88028087
:102DF000897881704A4800904A480190072120460E
:102E00002A46454E3346FEF70CFA304651494CC926
:102E10004CC00A88028089788170414E0096414FEB
:102E200001970A2120462A460E9D3B4C2346FEF779
:102E3000F8F9204647491CC91CC0324C0A88028058
:102E4000897881703046A3E70F93FEF707F8109852
:102E5000C0B201211291092801D901F0E3FC400020
:102E60007844808840008744090010001700A501BD
:102E700043040B071808190991092E0A002301279A
:102E80001297119310931E4A8CE601F013FD012056
:102E90001090129001F0C6FC0027F8483946FFF761
:102EA000EFFCFEF7D7F8F748817808914078079053
:102EB00001201290124A1448006813990842114BDD
:102EC0000ED118681590159814201968C903C917F0
:102ED0000818FAD10C4800681399084200D1A5E0FF
:102EE000F8B20025032800D9C2E004A1085C400024
:102EF0008744C0461004005010E000E0325C738646
:102F00001004005010E000E010000050E4B8BBE8EE
:102F10008F9CE58D9500000034000020E296B600FD
:102F2000017500086E980008F3E7000810E8000833
:102F30004CE8000838E8000824E8000888E80008A1
:102F40009CE80008B4E8000860E80008CCE8000845
:102F500074E8000800E80008106800070BD418683F
:102F60001590159814201968C903C9170818FAD1C3
:102F70001068000710D51068C00679D4186815903D
:102F8000159814201968C903C9170818FAD11068D0
:102F9000C00612982C466DD4BA4B58784142414134
:102FA0005970002701200B9D3C466DE0106800071A
:102FB00042D418681590159814201968C903C917C8
:102FC0000818FAD11068000736D4AE4B997800245F
:102FD0000120092949D8491C46E01068000747D458
:102FE00018681590159814201968C903C91708188E
:102FF000FAD11068000712982C463BD401F016FC59
:10300000106800073AD418681590159814201968AC
:10301000C903C9170818FAD11068082101404C42A9
:103020004C410007C0171299084023E0F8B2002471
:10303000032826D3274625E01068C00618D4186850
:103040001590159814201968C903C9170818FAD1E2
:103050001068C00612982C460CD48A4B997800242C
:103060000120022901D3491E99700B9D07460BE0F0
:1030700012982C460106129506D174E0002412988D
:10308000F8E77F1C01200B9D1168C90754D10994F2
:103090000E9510977C4D00957C4C019404270020E0
:1030A0003946129002467A4BFEF7BBF8754E70789F
:1030B000009501940028774B00D0774BC02039460B
:1030C000129D2A46FEF7ADF8B3780A200090734CA3
:1030D00020460C99724A03F071F96B4800906B48D6
:1030E00001900D970827284639462A462346FEF7C1
:1030F00098F8FF250095F020182403260D99224604
:103100003346FDF7FDFF0095CC2039462246334675
:10311000FDF7F6FF109FF8B2811E02290ED3012899
:10312000099C0ED00028129D16D157480090574890
:103130000190F02004210AE0129014E07D1E099C09
:103140000AE05148009051480190CC200821002508
:103150002A46544BFEF765F8E8B2FFF777FCFEF716
:1031600011FA514A0E9D002C07D1022C0ED101F00C
:10317000F1FF002D15D002240BE042480899817020
:1031800007994170002D0CD0012402E00024002D8D
:1031900004D0FDF713FEFDF75DFF434A002C00D17C
:1031A00089E6FDF75BFE404A0120129000270220CD
:1031B00001F062F900273D483946FFF761FBFDF752
:1031C00049FF304841680E918068012412970597A5
:1031D00010970746344B214635480068139A104231
:1031E000344C0ED120681590159814202268D20313
:1031F000D2171018FAD12E480068139A104200D145
:10320000F3E02B480068139A10420DD12068159006
:10321000159814202268D203D2171018FAD1244826
:103220000068139A10421FD0186800070BD420685A
:103230001590159814202268D203D2171018FAD1CD
:103240001868000710D51868C0060BD420681590C0
:10325000159814202268D203D2171018FAD11868D2
:10326000C00601D5062010901298C0B2032800D9DC
:10327000B5E003A2105C40008744C046D2E70008D6
:103280001E5B8FA01C000020017500086E980008CE
:1032900056E7000881E70008ECE70008340000204A
:1032A000A9E500081AE6000810040050B5E7000878
:1032B0001000005010E000E0186800070CD42068EF
:1032C0001590159814202268D203D2171018FAD13D
:1032D0001868000700D497E01868C0067FD42068FB
:1032E0001590159814202268D203D2171018FAD11D
:1032F0001868C00673D40D970E98FDF709FC0446B4
:103300000D46F64F3A46F64BFCF738FFF54AF64BBA
:10331000FDF76CFB0646204629463A46F34BFCF780
:103320002DFFFDF709FC002E00D10E98002112910F
:1033300086E0186800070CD42068159015981420B2
:103340002268D203D2171018FAD11868000700D4E7
:10335000A2E11868C00642D4206815901598142080
:103360002268D203D2171018FAD11868C00636D4D2
:103370003846FDF7CDFB04460D460D97D74F3A462C
:10338000D74BFCF7FBFED74AD74BFDF72FFB064682
:10339000204629463A46D54B92E1186800071ED4CC
:1033A00020681590159814202268D203D21710189F
:1033B000FAD11868000712D401F016F8186800074F
:1033C0000DD420681590159814202268D203D217C6
:1033D0001018FAD11868000701D401F00BF8002486
:1033E000002900D1F7E60E982EE01299C8B2032802
:1033F00002D30020129001E0491C12910E98FF2187
:10340000109101210B9C1FE00D970E9E3046FDF799
:103410007FFB04460D46B14AE84BFCF7AFFE0022A5
:103420001292E74BFDF7B6FA074620462946AB4A0B
:10343000E44BFCF7A3FEFDF77FFB002F00D13046E5
:1034400001210B9CE04B0D9F1A68D2070E9000D013
:10345000AEE00994FDF75CFBA04AD84BFCF78EFE6A
:10346000FDF76AFB0546FDF7F7FA0446FDF7D4FAC7
:1034700001462846FDF7BDF9D449FDF7C2F9FDF72D
:10348000EBFA0090D24805460C9E3146D14A2346BD
:1034900002F094FFD0480090D04801900421089198
:1034A0000024204622462B46FDF7BBFE0D973846EA
:1034B000FDF72EFB894AC14BFCF760FEFDF73CFB94
:1034C0000746FDF7C9FA0546FDF7A6FA0146384654
:1034D000FDF78FF9BD49FDF794F9FDF7BDFA0090AE
:1034E000BB4F38463146BE4A2B4602F067FFBA480A
:1034F0000090BA48019008210791204622463B4699
:10350000FDF78FFEFDF7B4FBFDF702FB734AAB4BF3
:10351000FCF734FEFDF710FB0546FDF79DFA074664
:10352000FDF77AFA01462846FDF763F9A749FDF74A
:1035300068F9FDF791FA0090A54D28463146A94A51
:103540003B4602F03BFFA4480090A44801900C21A8
:10355000204622462B46FDF764FEFF200690009091
:10356000B42518270326284608993A463346FDF71E
:10357000C7FD06980090284607993A463346FDF75E
:10358000BFFD129AD0B2811E022915D3012815D091
:10359000002825460D9F1DD18F4800908F4801902F
:1035A000B420042100252A468F4BFDF73AFE11E096
:1035B000002C0C4618D10EE6551E0AE086480090F5
:1035C00086480190B420082100252A46864BFDF745
:1035D00028FE0D9FE8B2FFF739FAFDF7D3FF0998EF
:1035E0000028794B00D1F6E5109800064ED0FDF783
:1035F000E5FB754B1868C0060CD47C4A1068159022
:10360000159814201168C903C9170818FAD1186849
:10361000C00625D5186800070CD4744A10681590A8
:10362000159814201168C903C9170818FAD1186829
:10363000000715D56E4800681399084200D0CAE506
:103640006A4A10681590159814201168C903C917A3
:103650000818FAD1664800681399084200D0BAE504
:10366000624A10681590159801201168C903C9179E
:103670000818FAD1109AD1B20020FF2901D0521EA9
:1036800000E0C24310921106B4D103E0FDF7BEFB87
:103690004D4B059810909EE53846FDF739FA0446E3
:1036A0000D460D970D4F3A46444BFCF767FD00223F
:1036B000434BFDF76FF90646204629463A46414BF3
:1036C000FCF75CFDFDF738FA0746002E00D10D9F90
:1036D00001210B9C12913C4B85E6C0467B14AE4702
:1036E000E17A74BF9A9999999999E93FE17A84BFEF
:1036F000002740483946FFF7C3F8FDF7ABFC3E48CA
:10370000C1680069069001241097059712970F462B
:103710002D4B214636480068139A1042334C0ED187
:1037200020681590159814202268D203D21710181B
:10373000FAD12F480068139A104200D1EBE02C48D0
:103740000068139A10420DD1206815901598142026
:103750002268D203D2171018FAD125480068139AAC
:1037600010421FD0186800070BD4206815901598D8
:1037700014202268D203D2171018FAD11868000753
:1037800010D51868C0060BD4206815901598142021
:103790002268D203D2171018FAD11868C00601D5D2
:1037A000062010901298C0B2032800D9AFE0C0469E
:1037B000784400794000874421558899E17A743F24
:1037C00000000840E17A843F100400500000C84225
:1037D0003400002027E50008017500086E980008F5
:1037E0003FE5000857E500081AE6000810E000E091
:1037F00010000050C2E700081C00002018680007F5
:103800000CD420681590159814202268D203D21782
:103810001018FAD11868000700D48AE01868C006AA
:1038200075D420681590159814202268D203D217F9
:103830001018FAD11868C00669D43846FDF768F93F
:1038400004460D46FA4AFB4BFCF798FC0022129204
:10385000F94BFDF7CBF83E46074620462946F44A89
:10386000F64B7AE0186800070BD42068159015987D
:1038700014202268D203D2171018FAD11868000752
:1038800077D51868C00642D4206815901598142082
:103890002268D203D2171018FAD11868C00636D49D
:1038A0000E970698FDF734F904460D46E04F3A4668
:1038B000E04BFCF763FC0022DF4BFDF797F8064670
:1038C000204629463A46DD4B67E0186800071ED4BB
:1038D00020681590159814202268D203D21710186A
:1038E000FAD11868000712D400F08CFD18680007A0
:1038F0000DD420681590159814202268D203D21791
:103900001018FAD11868000701D400F085FD0024D2
:1039100000294FD1FDE61299C8B2032802D3002036
:10392000129001E0491C1291FF20109001210B9C84
:1039300040E03846FDF7ECF804460D46BC4AC04B63
:10394000FCF71CFC00221292BE4BFDF723F83E460A
:10395000074620462946B64ABB4BFCF70FFCFDF74D
:10396000EBF8002F00D1304601210B9C0746B74BE6
:1039700020E00E970698FDF7CBF804460D46AC4FB5
:103980003A46AF4BFCF7FAFB0022AE4BFDF702F8CC
:103990000646204629463A46AB4BFCF7EFFBFDF7BF
:1039A000CBF8002E00D1069801210B9C06901291B5
:1039B000A64B0E9F1868C00700D0C4E00D940024E9
:1039C00038462146FCF7C2FF05460E973846FDF7FC
:1039D0009FF802460B46002D994900D1954994481D
:1039E000FCF7CCFBFDF7A8F80746FDF735F8099082
:1039F000FDF712F801463846FCF7FBFE9449FCF748
:103A000000FFFDF729F8C11746184E403846914986
:103A1000FCF772FF05463846FDF77AF8844A874B73
:103A2000FCF7E4FF009600288B4800D18B48002D5E
:103A3000894A0C99069E00D10246894D2846099B69
:103A400002F0BCFC87480090874801900421204682
:103A5000099122462B46FDF7E4FB30462146FCF750
:103A600075FF05463046FDF753F802460B46002D1C
:103A7000734900D16F496E48FCF780FBFDF75CF895
:103A80000746FCF7E9FF0890FCF7C6FF01463846F9
:103A9000FCF7AFFE6E49FCF7B4FEFCF7DDFFC11783
:103AA00046184E4038466B49FCF734FF0546384609
:103AB000FDF72EF85E4A614BFCF798FF0096002850
:103AC0006A4800D16A48002D684A0C9900D1024624
:103AD000634D2846089B02F071FC624800906248E2
:103AE000019008210891204622462B46FDF799FBBC
:103AF000FF2007900090D8271826032538460999FB
:103B000032462B46FDF7FCFA079800903846089994
:103B100032462B46FDF7F4FA129AD0B2811E0229E2
:103B200015D3012815D0002825460E9F1DD14D48DC
:103B300000904D480190D820042100252A464D4B85
:103B4000FDF76FFB11E0002C0C4618D1E1E5551E86
:103B50000AE04448009044480190D82008210025FC
:103B60002A46444BFDF75DFB0E9FE8B2FEF76EFF61
:103B7000FDF708FD0D980028344B00D1C9E51098D9
:103B800000064ED0FDF71AF9304B1868C0060CD469
:103B9000394A10681590159814201168C903C9177F
:103BA0000818FAD11868C00625D5186800070CD483
:103BB000314A10681590159814201168C903C91767
:103BC0000818FAD11868000715D52C480068139911
:103BD000084200D09DE5284A1068159015981420D9
:103BE0001168C903C9170818FAD124480068139945
:103BF000084200D08DE5204A1068159015980120E4
:103C00001168C903C9170818FAD1109AD1B2002057
:103C1000FF2901D0521E00E0C24310921106B4D118
:103C200003E0FDF7F3F8094B0598109071E5C046E5
:103C30007B14AE47E17A74BF000024C0E17A84BFF0
:103C4000E17A743F00002440E17A843F1004005080
:103C50000000C842000080BFB1E6000894E60008FA
:103C600034000020017500086E9800082EE7000857
:103C700011E700081AE6000810E000E0100000500C
:103C80000024F3482146FEF7FBFDFDF7E3F9F14A76
:103C900010680C990843106010682021014310201F
:103CA00081431160EC48858A0126EC4B3046EC4993
:103CB0000968139A11420ED1EA4F39681591159986
:103CC00014213A68D203D2175118FAD1E44909688D
:103CD000139A114253D0E1B202292AD0012939D0D6
:103CE000002948D1196809070CD4DE4E31681591B6
:103CF000159914213268D203D2175118FAD11968D4
:103D0000090741D51968C90635D4D64E31681591D1
:103D1000159914213268D203D2175118FAD11968B3
:103D2000C90628D47E20C04329B2814230DD6D1EF1
:103D30002EE0196809071ED4CA4F396815911599E4
:103D400014213A68D203D2175118FAD11968090719
:103D500011D470E3196809070DD4C24F3968159161
:103D6000159914213A68D203D2175118FAD119685B
:103D7000090700D459E30026002897D00BE0E0B2F1
:103D8000022805D2641C04E028B27F2800DA6D1CEA
:103D9000002401200B9E1968C90775D11096129551
:103DA0002FB2B14805460C99B04A3B4602F006FBDB
:103DB000AF480090AF48019004210E910026304694
:103DC00032462B46FDF72DFAAB480088FCF72FFE54
:103DD000AA49FCF716FD05463846FCF71DFEA74923
:103DE000FCF70FFD01462846FCF7B2FCFCF790FEFD
:103DF000A34AA44BFCF7C2F9FCF79EFE0546FCF76C
:103E00002BFE0746FCF708FE01462846FCF7F1FCAE
:103E10009D49FCF7F6FCFCF71FFE0090924D2846EA
:103E20000C999A4A3B4602F0C9FA91480090914891
:103E300001900821304632462B46FDF7F2F9FF206B
:103E40000090A820182203230E99FDF759F9E0B23B
:103E5000411E022921460CD3002809D18448009034
:103E600084480190A82004210022894BFDF7D9F94C
:103E70003146C8B2FEF7EAFDFDF784FB1098002832
:103E8000764B129D04D111E7002E064600D10DE7B6
:103E9000FCF794FFFDF7DEF807E700247D48214694
:103EA000FEF7EEFCFDF7D6F86B48807D12900125F9
:103EB0006A4B28466A4D2968139A11420ED1694F00
:103EC00039681591159914213A68D203D2175118FF
:103ED000FAD163490968139A114257D0E1B2022915
:103EE0002CD001293BD000294AD1196809070CD4EC
:103EF0005C4D29681591159914212A68D203D217AF
:103F00005118FAD11968090748D51968C90637D474
:103F1000544D29681591159914212A68D203D21796
:103F20005118FAD11968C9062AD47E20C043129AC2
:103F300051B281423ADD521E129237E019680907E8
:103F40001ED4484F39681591159914213A68D20347
:103F5000D2175118FAD11968090711D485E21968E6
:103F600009070DD43F4F39681591159914213A6806
:103F7000D203D2175118FAD11968090700D46BE29D
:103F80000025002895D02A46374D13E0E0B20228DC
:103F900001D3002400E0641C334D09E01299C8B23B
:103FA0007F2801D1129001E0491C12912E4D00246E
:103FB00001200B9A1968C90740D11092129843B298
:103FC00028460C99294A02F0F9F929480090294F0E
:103FD000019704262B460025284631462A46FDF740
:103FE00020F92348009001970821012228462A4BF6
:103FF000FDF717F9FF200090A8201822032331466F
:10400000FDF77EF8E0B2411E022921460CD30028BC
:1040100009D11748009017480190A82004210022D8
:104020001B4BFDF7FEF82946C8B2FEF70FFDFDF762
:10403000A9FA10980028094B04D13AE7002A05464E
:1040400000D136E7FCF7BAFEFDF704F830E7C046CA
:104050008FE70008200001401C00002010040050E1
:104060001000005010E000E034000020CFE5000810
:10407000017500086E9800087800F81FB98B3B3F67
:10408000FCA9F1D24D62403F00007A4471E500087E
:104090001AE60008A2E700088EE500080221F848A9
:1040A000FEF7EEFBFCF7D6FF0C9CFF2010900006FD
:1040B000F449096881431491F3482146F34AF44BCB
:1040C00002F07CF9F34F0097F34F0197042100258C
:1040D00028462A46EC4E3346FDF7A3F830462146E3
:1040E000EE4AEF4B02F06AF9EA4800900197062188
:1040F00028462A463346FDF794F814AB304621464D
:10410000E8A202F05BF9E3480090019708212846F5
:104110002A463346FDF785F812951AA9E648FCF7BA
:10412000D7FD002800D0FBE01AAE308801F0B8F9C6
:1041300004467088FCF77BFC01462046FCF761FBD7
:10414000DE49FCF79BFB0646DD4F7C882046FCF7EA
:104150006EFC01463046FCF74CFBDA49FCF751FB9C
:104160000646F888001BFCF757FC01463046FCF772
:1041700085FBD549FCF7ECFA15A948512D1D142DE6
:10418000CBD115A801F044F90546CAE00D970125E9
:10419000CEA02946FEF774FBFCF75CFF81204000AF
:1041A00012902F46CD4B2846CD4D2968139A1142C7
:1041B0000DD121681591159914212268D203D217C7
:1041C0005118FAD1C6490968139A114228D0F9B298
:1041D000012911D000291FD1196809071CD42168B1
:1041E0001591159914212268D203D2175118FAD1CA
:1041F0001968090710D4BBE1196809070CD42168B4
:104200001591159914212268D203D2175118FAD1A9
:104210001968090700D40AE200250028C3D004E089
:10422000F8B24742474101200B9D1968C9070FD1D9
:10423000FF200090D3200F214F220123FCF760FFC5
:10424000F8B20128109506D000280AD1DD2004E03C
:10425000002D05462FE012980A300F21A14AFCF7E5
:10426000C9FFA14C0094A14E0196052100252846C6
:104270002A469FA3FCF7D5FF009401960921284602
:104280002A46A5A3FCF7CDFF0095A74C0194D320A7
:104290000D2631462A46A54BFCF7C3FF0095019435
:1042A000129831462A46A24BFCF7BBFFFDF76AF98C
:1042B00010980028894B9F4C00D174E7FCF77EFDD5
:1042C000FCF7C8FE6EE700273846FDF7B1F8FCF7AB
:1042D00035FFFDF757F9FDF7D3FB7D20C4002046DD
:1042E000FDF752FB0097812042002632102338460A
:1042F0003946FCF705FFFDF745F9FDF7C1FB204600
:10430000FDF742FBFCF71AFFFDF73CF9FDF7B8FBA0
:104310002046884CFDF738FBFCF7A0FD092080E221
:10432000129D002428462146FCF710FB064628462D
:10433000FCF7EEFB02460B46002E7F4900D17F4979
:104340007F48FBF71BFFFCF7F7FB0646FCF784FBF7
:104350000546FCF761FB01463046FCF74AFA59492D
:10436000FCF74FFAFCF778FB76490B680968090CF3
:10437000C217801850400091019502907248034086
:10438000414D28460C99714A02F018F841480090B6
:10439000414801900A21204622462B46FCF741FF66
:1043A00015A800F07FFF169D28462146FCF7CEFA9F
:1043B00006462846FCF7ACFB02460B46002E5E493B
:1043C00000D15E495E48FBF7D9FEFCF7B5FB054618
:1043D00016901AA903225E4800F0ECFF00285DA6A3
:1043E00000D12FE1FE245BE15C480E9941608760BB
:1043F00000F0B0FEFCF732FD384A01201290002791
:10440000032010E05548C7600699016154480760D1
:104410005448016000F09EFEFCF720FD2F4A012069
:104420001290002704201090FDE14F4805804B4872
:10443000858200F08FFE0120129000024B4A116825
:10444000814311601068302188431060FCF706FD3D
:10445000FA4A002705200FE0FB4812998175C9B27E
:10446000102000F034FE00F075FEFCF7F7FCF34A74
:1044700001201290002706201090F14CD3E1C04695
:10448000DFE70008FC07080834000020E4E5000826
:1044900014E50008848A000878900008F7E5000811
:1044A00008E50008E7A1ACE4BBB6E78988E69CAC68
:1044B00020203A2025730000000006CC00803B45F8
:1044C0007800F81F0000C8420000F041E681A2E534
:1044D000A48DE8AEBEE7BDAE0000000010040050A1
:1044E00010000050E5BB0008017500086E98000838
:1044F000E6B885E999A4E695B0E68DAEE5B9B6E6ED
:1045000081A2E5A48DE588B0E5889DE5A78BE8AE9E
:10451000BEE7BDAE00000000E7BBA7E7BBADE5907E
:1045200097EFBC9F00000000F292000888E70008A7
:104530004BE7000810E000E0E17A743FE17A74BFD5
:104540007B14AE4700580140FF0F00006BE60008E7
:104550002DF3000080200804100201001C00002040
:10456000340100200800002042010020200001400A
:10457000FCF774FCB44D2846B2491CC91CC01CC9C8
:104580001CC0AF4CAA20287000F0E4FDFDF706F82F
:10459000FF200090129A2632002705250B2338466B
:1045A0002946FCF7ADFDAA480090A84E0196384672
:1045B00029463A46A7A3FCF734FEA5480090019689
:1045C000092138463A46A7A3FCF72BFEFCF7DAFF91
:1045D0009D484078002821D0F920A949C860486842
:1045E000FA2800D34F6098488078FCF75DFDA44A14
:1045F000D0684008506010680C990843106020682B
:10460000159015980846F4302168C903C917081891
:10461000FAD101200002116881431160FDF730FAE0
:104620009848FDF7B1F9012012900820F9E0FCF755
:1046300015FC824A01201290082010900F9B0D9FBC
:10464000FEF7B0FA1AA8109A0178514022464B00A2
:10465000090601D531214B40D9B2531C072A1A460D
:10466000F5D3421C0A9B984210460A46ECD11AA880
:104670008078884213D11AA9087849780022144614
:10468000B35C032A02D8034202D104E00B4202D0F9
:104690004023D3401C43521C072AF1D100E0FF24E1
:1046A0002846FCF7D9F91290FCF7B6F901462846DE
:1046B000FCF79FF87749FCF7A4F8FCF7CDF905461D
:1046C000159F3846FCF7C8F90646FCF7A5F90146E0
:1046D0003846FCF78EF86F49FCF793F8FCF7BCF905
:1046E000E9176A184A40129900AB46C30390E3B237
:1046F000654C20460C9E31466A4A01F05FFE6448D4
:104700000090624801900C21002738463A46234623
:10471000FCF787FD112000F0BDFC802404408500DB
:10472000122000F0B7FC800928180121002C1291FA
:1047300004D00A46FF3630404902081AFBF7C6FE8D
:1047400002460B46002C584900D058493846FBF722
:10475000C7FDFCF7F1F904463946FCF7F7F80546C2
:104760002046FCF7D5F902460B46002D4A4900D1F8
:104770004A494B48FBF702FDFCF7DEF90546FCF71A
:104780006BF90646FCF748F901462846FCF731F874
:104790004049FCF736F8FCF75FF905460E2010900B
:1047A00000F078FC0E900F2000F074FC04461020FE
:1047B00000F070FCE9176A184A40009401900296D4
:1047C0000392314C20460C99394A0E9B01F0F6FDBC
:1047D0002F4800902D480190384610993A462346BC
:1047E000FCF71FFDFCF7CEFEFDF74AF9144C12480A
:1047F0000068139908420DD120681A901A98142065
:104800002168C903C9170818FAD10B480068139921
:10481000084203D03220FDF7B7F8E8E7FCF71EFBAB
:1048200007201090054A0F9BFEF7BCF900F092FCA0
:10483000FEF7B7FC1BB0F0BD100000501004005094
:1048400010E000E0E07400081C0000206E980008F2
:1048500001750008E681A2E5A48DE5AE8CE688909E
:1048600000000000E4B889E7A792E5908EE8BF94C5
:10487000E59B9EE4B8BBE88F9CE58D9500000000A9
:1048800020000040B80B00003400002078900008A1
:10489000848A00080000C842E17A743FE17A74BF5C
:1048A0007B14AE47E2E600080000D03F0000D0BF16
:1048B0003BE60008F0B59FB031A000211391FDF751
:1048C000DFFFFCF7C7FB1AA800F07CFB0F20049069
:1048D00000F0E0FB40B2002803D41AA84079002879
:1048E00005D12B481AA90CC80CC1007808701AA869
:1048F000811D0C91411D0B91011D0A91C11C079155
:10490000C11D0691014608310591811C0891401C8A
:104910000990FF200E901C300F900120010215918C
:10492000C10316911B4C1C4F1C4E0D9019901398EF
:1049300018901B480068169908420DD120681D90F8
:104940001D9814202168C903C9170818FAD1144802
:1049500000681699084228D01898C0B20022112881
:1049600000D9CFE078440079400087441B51565A63
:104970005E62676B71767C868A8F9398A2B6C0461A
:10498000E697B6E997B4E8AEBEE7BDAE000000001A
:10499000F874000810E000E0340000200175000801
:1049A000100000500221012234E01899C8B2002200
:1049B000112802D31546114601E01546491C09226B
:1049C0004A401AA8007A0243D2B253425341C9184E
:1049D0001891012119911399002900D1CCE01AA94D
:1049E00009783C2902D31AA93B220A701AA94978EE
:1049F0003C2902D31AA93B224A701AA989780028B7
:104A000000D182E00D2900D288E01AA80C2189E0AB
:104A10000121092200230C98B4E0092200210C98FE
:104A200040E0012100230B9825E0092200210B988A
:104A300038E00121032200230A98A3E00922002183
:104A40000A982FE000210722012307980D469AE0DB
:104A5000012200210598139202E00122002106980C
:104A60000D460B468FE01AA8007A0121002800D1DC
:104A700085E0002308980A4684E00922002108986E
:104A800010E001210522002309987BE00922002182
:104A9000099807E01AA801210522002372E01AA84C
:104AA000092200210D460B46FCF750FA0121139113
:104AB0006BE0E9480068000724D420681D901D9829
:104AC00014202168C903C9170818FAD1E248006800
:104AD000000717D40020022512E0DF480068000715
:104AE00010D420681D901D9814202168C903C9178F
:104AF0000818FAD1D8480068000703D4002001251F
:104B0000199042E0154610463FE0182902D31AA832
:104B1000172181701AA80021C17104E0002902D177
:104B20001AA8012181701AA8C078072801D9072086
:104B300002E0002802D101201AA9C8701AA8007941
:104B40001F2801D91F2002E0002802D101201AA944
:104B500008711AA840790C2801D90C2002E000281D
:104B600002D101201AA948711AA88079C008192811
:104B700002D31AA8C72181710D9A139510E0022261
:104B8000002308981D46FCF7E1F9411E02468A41C0
:104B9000002801D1199800E001201990000639D0B1
:104BA000AD480068C00700D0BBE0179214951AAC5E
:104BB000A37960792179E27800AD07C53846159967
:104BC000A8A201F0FBFB0096AE4D01950720042141
:104BD000052212903B46FCF724FB207A00281CD0CB
:104BE0003846AAA11CC91CC01CC91CC00A88028066
:104BF00089788170009601950520082100223B46A6
:104C0000FCF70FFB1AA8C079072200281CD03846F1
:104C1000A5A11BE00020199083E03846A6A11CC97D
:104C20001CC01CC91CC00A8802808978817000964B
:104C3000019505240821002220463B46FCF7F1FAA5
:104C40003846A4A1224601E0384699A1FBF75CFD55
:104C500000220092019505240C2620463146199227
:104C60003B46FCF7DEFA1AA8837841780078009179
:104C700001903846159999A201F0A0FB8248009056
:104C800001953A20314622463B46FCF7CAFA18986D
:104C9000C0B2022803D81121414318310BE0042887
:104CA00003D811214143353105E0062800D9A8E099
:104CB0001121414352311191129810900E9F00978B
:104CC00005260721012430460F9D2A462346FCF77E
:104CD00017FA00970B2130462A462346FCF710FAB4
:104CE00000970F2130462A462346FCF709FAFE209A
:104CF00018990840102802D108460F3807E011988B
:104D000080B21099C9B2794AFCF774FA1998534CD9
:104D10005D4EC0B2FDF79AFEFCF734FC504F149D77
:104D2000179A022D64D117921DAC1A9820701B9807
:104D300020711AA8417861708178A1704179617100
:104D40008179A171C078C01D0721FBF7D1F9481CFA
:104D5000E0700026062E0AD11DA88079642806D3AB
:104D600064381DA988714879802202434A711DAFB9
:104D7000BC5D0A212046FBF7BBF90921C943414329
:104D8000611800010843B855761C072EE2D11AA815
:104D9000007A00280DD01DA98A781F2010400246F5
:104DA00040328A701AA9C979002902D060301DA941
:104DB000887007201DA900F0A7F90028284F14D1FA
:104DC0000E26304600F066F901467F242140304629
:104DD00000F07DF9002808D10F26304600F05AF97E
:104DE00004403046214600F072F91C4C264E179ABA
:104DF000002A03D0FBF7E2FFFCF72CF9002D26D1A7
:104E000097E5092807D0082808D007280AD10F9865
:104E1000C01F119050E71720119016E084201190C8
:104E20000B204AE70B2803D81121414370390BE0CE
:104E30000D2803D8112141435F3905E00F2800D91F
:104E40003CE7112141434E391191049835E7FCF7B5
:104E500005F81FB0F0BDC0461004005010E000E09F
:104E6000340000203225303364E5B9B42530326493
:104E7000E69C8825303264E697A520E591A8256454
:104E8000000000006E98000801750008E697B6E97A
:104E900097B4E6A0BCE5BC8FEFBC9A3132E5B08F89
:104EA000E697B6E588B60000E4B88BE58D8800008B
:104EB000E4B88AE58D880000E697B6E997B4E6A0E5
:104EC000BCE5BC8FEFBC9A3234E5B08FE697B6E50F
:104ED00088B6000020202020000000002530326429
:104EE0003A253032643A253032640000E5BB0008D0
:104EF0007047704781B01048042101600F4940207D
:104F0000086008220A6010220A60694664220A804A
:104F10000A880988002A06D0491E6A46118013882B
:104F20001188002BF8D106490A68520602D40A6893
:104F300002430A6001B07047280400501800005076
:104F40000030014080B51849C8680007820F174833
:104F50007A441279520097440108250D012000047B
:104F600049680904490F884080BD0868C00609D512
:104F7000104880BDCA68D20307D40868C00603D5AC
:104F80000C4802E00A4880BD0948CA689202120F24
:104F900009A39A5C4243C8680002800F411C104676
:104FA000FBF7A6F880BDC0460010024000127A0050
:104FB0000024F40000093D00030406080C1018202A
:104FC0003000000070B50446D02000210122FCF71B
:104FD00031FB00280DD100263046FCF7D3FB00281A
:104FE00007D1D020012507222946FCF723FB002802
:104FF00004D009212046FBF7A0FB70BDFCF700FBA5
:10500000A055761C072EF9D1FCF78CFB0020014639
:105010007F220A40022A05D0052A0CD12256002AF6
:1050200014D520E0225C520607D40022E2712272DD
:10503000235C3F2208E0225C08E02572225C920695
:10504000D20FE271235C1F221A4022540F23134017
:10505000D2B212090A265643F2182254491C401CA7
:105060000728D5D10EE00F21D3060A40DB0F0A2511
:105070006B439A182254A07901400009684308182C
:105080006430A071E0780C300721FBF731F8481C40
:10509000E07070BDB0B50546D02000240122214645
:1050A000FCF7C8FA002810D12846FCF76BFB002853
:1050B0000BD1D02001210A46FCF7BCFA002804D10C
:1050C000FCF79EFA0446FCF72DFB2046B0BDF0B578
:1050D00081B00E460746D020002402222146FCF76C
:1050E000A9FA012500280CD13846FCF74BFB002813
:1050F00007D13046FCF746FB002802D1FCF712FB33
:105100002546284601B0F0BDF0B581B00C460546F5
:10511000401CC2B2D0200021FCF78CFA01270028E5
:1051200013D100263046FCF72DFB00280DD102E0FC
:10513000641C6D1E06D02078FCF724FB0028F7D0F5
:10514000012700E03746FCF7EDFA384601B0F0BD24
:1051500070470000F0B583B07D20C00000900021B2
:105160001D4A1E4B1E4C1F4D0E46264330786F5C69
:10517000B84221D018680190019800985569ED0750
:1051800005D01D68ED03ED172818F7D113E010685E
:10519000C00703D0144890601448906037701868B6
:1051A0000290029800985569ED0709D01D68ED033B
:1051B000ED172818F7D10B4D491C1829D4D109E057
:1051C00010680125054315601068C007054DF3D030
:1051D0003078F1E703B0F0BD0420024010E000E0B9
:1051E000000008081C000020EFCDAB890504030275
:1051F000F0B581B000920A46054609320C211046EE
:10520000FAF776FF0E460A2708463946FAF770FF86
:105210000446992040007043401D3946FAF768FF64
:1052200000990818291B8CB2A1084018FF216E3183
:105230006143451864212046FAF75AFF2D1A1920B8
:1052400001012046FAF754FF2818401EC11701B08B
:10525000F0BD7047012002020E490B6813430B603A
:10526000CA680D4B1340CB600A680C4B13400B60AF
:105270008A6882438A6082040B6893430B60FD2234
:105280001204CB689343CB6000220A61C006044934
:1052900008607047001002400C40FF88F6FFF6FEE1
:1052A00008ED00E0F0B583B004463A4801A90622B3
:1052B00000F080F800286BD101AA511CFF2513785B
:1052C0006B4000255E0031201B0600D54640F3B23E
:1052D0006E1C072D3546F5D3551C8A422A461D46BD
:1052E000EDD101A98978994252D101AA111DD21C90
:1052F000FF2513786B4000255E001B0600D5464055
:10530000F3B26E1C072D3546F6D3551C8A422A4649
:105310001D46EED101A84079984239D101AF3888B5
:10532000000400BAFBF7D2F800251B4E2A4633468C
:10533000FBF73EF8194B2A46FAF7D2FF184B2A46DC
:10534000FAF71CFFFBF7F8FB014616480068FBF76D
:10535000FFF960603879F97809020818FBF7B6F8A8
:105360002A463346FBF724F80F4B2A46FAF7B8FFD4
:10537000FBF7E2FB01460D480068FBF7E9F905463B
:105380000B4E3146FBF7E2FA002800D12E4626608C
:1053900003B0F0BD062C0000E0FFEF4000E06540E8
:1053A000008046C034010020000059400800002061
:1053B0000000C842F0B581B014460D46074688206B
:1053C00000210222FCF736F9012600281CD1380AF8
:1053D000FCF7D8F9002817D1F8B2FCF7D3F9002868
:1053E00012D18820012631462246FCF723F90028F5
:1053F0000AD1FCF705F928706D1C641EF9D1FCF781
:1054000091F90646401E8641304601B0F0BD0000CD
:10541000F0B583B0014600260422044637460290C8
:105420000192F8B28000085825682946FBF78EFAE9
:10543000002803D037460299019A10E00097019F97
:10544000F8B28000029908582946FBF771FA002843
:1054500002D13246029901E002993A46009F241D8A
:10546000761C052EDCD1F8B28400D0B2870000266D
:105470003546B4420BD0B74209D088590749FBF7EB
:10548000FDF901462846FBF763F902990546361DEA
:10549000142EEED1284603B0F0BDC04600004040B7
:1054A000B0B50446094800880949098809B20918B5
:1054B00008484843FBF7BBFA05462046FBF7B7FA16
:1054C00001462846FBF7DAF9B0BDC0467800F81F60
:1054D00042010020B80B000070B584B03E4D082199
:1054E000296101A9087040262E6103A801240480C7
:1054F00001880088002906D0401E03A908800A8878
:105500000888002AF8D101A8214600F023FF02A84C
:10551000048001880088002906D0401E02A9088066
:105520000A880888002AF8D12E6004B070BDC046F1
:1055300070B584B0284D0821296001A90870402663
:105540002E6103A80124048001880088002906D068
:10555000401E03A908800A880888002AF8D101A8FB
:10556000214600F0F7FE02A8048001880088002987
:1055700006D0401E02A908800A880888002AF8D1AF
:105580002E6004B070BDC046F0B583B0124C082246
:1055900022604025256102AA012616801388128800
:1055A000002B06D0521E02AB1A801F881A88002FCB
:1055B000F8D100F0CFFE01A80680018800880029FC
:1055C00006D0401E01A908800A880888002AF8D160
:1055D000256003B0F0BDC04618000050F0B587B09C
:1055E000514C216820680127B8432060394004915C
:1055F0000A202168C90701D0401EFAD178054B491D
:105600000A6802430A600A6882430A6048480168DF
:10561000484A1140BB03C9180160416880263143E4
:105620004160C1681140C918C1600168424B19400E
:105630003D03491901604168402211434160C1683E
:1056400019404919C16001968661826106A96426E4
:105650000E800B880988002B06D0491E06AB1980E6
:105660001D881988002DF8D100200390C0430290B6
:105670002F48016909062BD40097304B1968059112
:1056800005997D21CF00002F25D019682848826216
:1056900006AD2E80C9032C882D88002C03D06C1EEB
:1056A00006AD2C80F7E7C9172148826106AC268039
:1056B00020882588002803D0681E06AC2080F7E7E4
:1056C000CF191B4800690006DDD5039D029E04E04A
:1056D000039D029E1AE0039D2E461548019A8262A0
:1056E000186806900698009F39460F4C1868C0034A
:1056F000C0174118FAD10E488261186806900698C2
:1057000001201968C903C9170818FAD1FDF74EF826
:105710000498002802D0206838432060E843301AFB
:10572000411E884107B0F0BD0054004028100240DF
:1057300000040050FF3FFFFFFFCFFFFF10E000E03D
:1057400070B5194C2168C90703D1216801220A43A9
:105750002260FBF773F9154A154BFAF729FE002270
:10576000144BFAF70BFDFBF7B5F9A26812490A4092
:105770000243A2602246083A1368022003431360E2
:1057800001225307ED4D2E681E432E6052030B4B32
:105790001A60FF310A4A13680B4013602168014305
:1057A00004208143216070BD107C0040D0BAC11438
:1057B000F9ACDB3F0000E03F0000FFFF00E100E04C
:1057C0000CE400E0A1B0104D686B01221043686347
:1057D000686B10401A901A981107A86B0843A863C9
:1057E000A86B079108401A901A98084B98692021D5
:1057F0000F91084310211291884398610448001FBB
:1058000001689143016005E000100240080001407A
:10581000042002400168C907FCD10324E002054BC3
:1058200019688143D0021590081818602868104341
:10583000286001E00070004028684007FCD51F2068
:105840000002696881431003139008186860286D8E
:1058500010432865286D8007FCD5E86880210991F0
:105860000843702105918843E86007231802E9681E
:105870008143E9600E93D802E9688143E960E868F2
:105880001043022118918843E860E8680C21014028
:105890000429FAD1A249A348486000278F60052057
:1058A0000860E3431693E96C1940E964E96C9E4B88
:1058B0001940E964E96C9D4B194093040D93C91894
:1058C000E9641F971E971D971C97E96A04263143C8
:1058D000E962E96A3140119620912099E96A114301
:1058E000E962E96A114020912099E96A189B1943FD
:1058F000E962E96A19402091209905071495234629
:105900000824AC621298A86240200A90A8621398FA
:10591000A86287480F9981621102089181628661AD
:10592000A9611598A8611E971B9390030C901A907B
:105930001793804D19921AAE28463146FBF744FF63
:105940001E9717981B901998C00306901A90284626
:10595000254610943146FBF737FF1E971D97179881
:105960001C903C4619981B901A95149D2846314668
:10597000FBF72AFF1E971D971C9719981B901298EA
:105980001A9028463146FBF71FFF1E971D97179F59
:105990001C9719981B900A981A9028463146FBF7D5
:1059A00013FF1E941B9718981A90614F3846314682
:1059B000FBF70AFF1E941D941C9419981B901198D4
:1059C0001A9038463146FBF7FFFE1E941D941C9436
:1059D00019981B90089F1A9728463146FBF7F4FE4A
:1059E0001E941D941C9419981B9015981A90284683
:1059F0003146FBF7E9FE1E941D941C9419981B90E8
:105A000013981A9028463146FBF7DEFE1E941B942D
:105A100006981A9028463146FBF7D6FE1E941B9432
:105A200010981A9042483146FBF7CEFE1E941B9404
:105A300012981A903E483146FBF7C6FE1E941D94FC
:105A40001C9419981B900F981A9039483146FBF70F
:105A5000BBFE1E941D941C9419981B901A973448F1
:105A600007463146199EFBF7AFFE334A10683043B4
:105A70000E2188431060F868189B1843F2431040C9
:105A8000F86038681699084038602C484168114021
:105A90004160016831430160816804921140816076
:105AA000C1683143C1601F941E941D9416941C94C8
:105AB0007102234A506B08435063506B0B910840AE
:105AC00020902098D06A3043D062D06A3040209035
:105AD00017981B901A931F4620981AA92846FBF77F
