:020000040800F2
:1000000048050020D5000008894E0008E5150008C5
:1000100000000000000000000000000000000000E0
:100020000000000000000000000000006751000810
:1000300000000000000000008B4E0008675200081E
:10004000E7000008E7000008E7000008E7000008F4
:10005000E7000008E7000008E7000008E7000008E4
:1000600000000000E7000008E7000008E7000008C3
:10007000E7000008E700000800000000E7000008B3
:1000800000000000E7000008000000000000000081
:10009000E700000800000000E7000008E700000893
:1000A000E7000008E7000008E7000008E700000894
:1000B000E7000008E7000008000000000000000062
:1000C0000348854600F02AFA004800470557000813
:1000D000480500200448804704480047FEE7FEE743
:1000E000FEE7FEE7FEE7FEE769520008C1000008F0
:1000F00030B50B46014600202022012409E00D46C0
:10010000D5409D4205D31D469540491B2546954047
:1001100040191546521E002DF1DC30BDF0B51FB45C
:100120000646002082B005464024019100901BE065
:10013000019922460F46304600F012FA049A059BB8
:10014000801A994110D310461946224600F0F8F95A
:10015000361A8F410197224601200021009F00F0AE
:10016000EFF938184D4100902046641E0028DFDC6E
:10017000019B00982946324607B0F0BDF0B507460E
:100180000846584087B0C00F049048000E465900FA
:1001900040084908BC1A884105D2384631461E46F7
:1001A00017460B4602465800400810434CD0300D0D
:1001B000039040055900400D490D0590401A0290EA
:1001C000402872DA18030121000B09050843019049
:1001D00004980092002805D00199524200208841DD
:1001E00000920190029840210A1A0199009800F0AB
:1001F000A7F905460C466B4607CB00F0C2F9C019BB
:100200007141039A0E0D0023D71756401A467A40C3
:10021000164344D0049A002A2DD0029A012A039A48
:1002200015DC1205C01A914101263605001C7141EA
:10023000D20F059ED2070093019202962A462346CA
:1002400000F0BFF907B0F0BD38463146FAE71605B1
:10025000224A0F46B218C01AB74101210905001CF5
:100260004F4100187F41114618187941E20F1043A1
:100270006D19644113E0E2076D0815436408C20775
:100280001443039A01261205C01A91413605001C39
:100290007141CE07400830434908C01851412A46F1
:1002A000234600F081F9CDE7FFE7049801224000E2
:1002B000C117121A00238B4104983146C417381A0B
:1002C000A141EEE730B40124E407634030BC55E7B8
:1002D00030B40124E407614030BC4FE70000E0FF88
:1002E000F0B51FB488B00B990998002448400999CB
:1002F000C00F490049080991C0070B9900904900B7
:1003000049080B9109990898A64608431CD00B99F7
:100310000A98084318D0099801244000420D48006B
:10032000410D099824050003000B204309900B9808
:100330000003000B20430B9050181C49401800226A
:1003400001901446104605E0002001460DB0F0BDB6
:10035000032801DA034600E003239C46C11A0AAED3
:100360000AE05F0008ADED5B4F00F75B7D430027BF
:10037000AA187C41491C5B1E6145F2DD410004ABBB
:100380005A522104120C0A43240C401C0828DFDBBB
:10039000019802900099704601910090059B049A83
:1003A0000799069800F00DF9D0E700000DFCFFFF5B
:1003B000F0B50C465C4085B0E40FE40703944C00B4
:1003C00000266408590094464908024602962243D2
:1003D00021D062460A431ED06200570D4A000E0328
:1003E0002303550D012402462C492405781B1B0BC1
:1003F000360B401823432643614600901C46501A92
:10040000B44103D30098401C009002E09218009879
:100410005B41002803DA0020014605B0F0BD002052
:10042000012109050746864611E064461D46141B56
:10043000B54106D36546521BB341744607430C438E
:10044000A646CD0740084908284392185B41054657
:100450000D43EAD11046184313D060461946504068
:100460007140084306D06046101AB34106D20122FB
:10047000002306E000220123DB0702E00122D24331
:100480005310009874460105381C6141029C039D7D
:100490000019694100F088F8BFE70000FD03000083
:1004A00070B54B005B0803430BD04B005C0D00267E
:1004B00033466542B341D417AD1AA34102DB002095
:1004C000014670BD12053018514170BD0EB5C217FE
:1004D000C10F5040CA0740180021054B02930192FA
:1004E00000910A460B4600F06CF803B000BD000016
:1004F0003304000010B5002904DB0124E407404266
:100500008C412146002B04DB1C460123DB075242B1
:10051000A341994200D1904210BD0000064C012534
:10052000064E05E0E36807CC2B430C3C984710349B
:10053000B442F7D3FFF7C8FD2CEF00084CEF0008DA
:1005400010B5202A04DB0146203A9140002010BD5E
:10055000914020239C1A0346E3401943904010BD6C
:1005600010B5202A04DB0846203AD040002110BDF7
:100570000B46D340D0402024A21A9140084319468C
:1005800010BD10B5202A06DBCB170846203A1041D3
:10059000C1170B4306E00B461341D0402024A21A9A
:1005A00091400843194610BD10B5002B08DA00240D
:1005B000401C614192185B411A4301D14008400040
:1005C00010BDF0B51FB482B005460C0003D008463C
:1005D00006F0EAF802E006F0E7F820300246009064
:1005E00021462846FFF7ACFF049B059A04460F46B8
:1005F00018431143084314D0184610431BD00098E9
:1006000040210A1A18460599FFF7AAFF05460E462B
:10061000009A05990498FFF793FF084305D001203D
:1006200004E02046394607B0F0BD0020C11705435D
:100630000E432C43374300990E986305401A790501
:10064000E40A00220C43FD0A0A3002D500200146CC
:10065000E9E70105101969410C9C0D9D00196941DC
:10066000FFF7A2FFDFE7FEB500231A461B1A8A41F7
:1006700003DB0020014603B0F0BD4A000D03012159
:100680002D0B0905520D0D43D10702D100186D4104
:10069000521E5110FF31FF310131002704463E4602
:1006A0003846009701910246012100200905FFF715
:1006B00057FFC3197141F818324684468E464A41A5
:1006C00061462846611A904104D36046241A954138
:1006D00076461F46241900986D41401C009034282E
:1006E000E1DDF91930467041091BA84103D200220F
:1006F000D243134601E00022134601980105381C3D
:100700007141FFF751FFB6E703460B439B0703D048
:1007100009E008C9121F08C0042AFAD203E00B78C6
:100720000370401C491C521EF9D27047D2B201E03E
:100730000270401C491EFBD270470022F6E710B53C
:1007400013460A4604461946FFF7F0FF204610BD3F
:10075000F8B502464A40D40F42004B0052085B08ED
:100760009A4202D20246084611464A0023D0C30DDF
:100770004A00DDB2120EAD1A202D35DA49020126EB
:10078000490AF6058A19002C00D0524220214F1B3D
:100790001146B9402A411018C20D9A4221D0002CAE
:1007A00017D0012D08DCDA05801AD20F8019D20784
:1007B000DBB200F0E5F9F8BDDA05801A012340004C
:1007C0001B06C01880185A428018CA0F10434900EF
:1007D00007E04908C2071143DA05801A801940086A
:1007E000801800F0C5F9F8BD61000122511A001B04
:1007F000F7E70122D2075140AAE70122D207504071
:10080000A6E7024670B54A40D30FDB0740002DD063
:100810004A002AD0010E140E000212020919400AE1
:10082000520A8418E50104465443000A120A2E04B1
:100830005043A4194219200CC543AA18120C0125D3
:10084000AD03521C521912047F39240400D0521CEB
:10085000104301D44000491EC2B20C06C009201842
:10086000401C4008802A02D003E0002070BD4008F0
:100870004000002900DA0020184370BD70B5024620
:100880004A40D50F40004A00ED07400852080028B2
:1008900014D0002A12D0C40DD30D41020120C0058E
:1008A0005202490A520AE41A091812187D34914278
:1008B00001D3641C00E04900002C01DA002070BD67
:1008C0000023914201D3891A0343400849000028BC
:1008D000F7D100290AD0914202D10121C90705E0D0
:1008E000914201D2012101E00121C943E005C01874
:1008F000401900F03DF970BD0122D207002800DB4D
:10090000101A002900DB511A814201D801207047DA
:10091000002070470122D207002800DB101A0029AE
:1009200000DB511A814201D201207047002070473C
:100930000122D207002800DB101A002900DB511A1F
:10094000814201D301207047002070470122D20765
:10095000002800DB101A002900DB511A814201D95E
:10096000012070470020704710B5002904DB0C46B9
:100970000121C9074042A141002B04DB1C46012391
:10098000DB075242A341801A994101D3012010BDD7
:10099000002010BD10B5002904DB0C460121C90759
:1009A0004042A141002B04DB1C460123DB075242DD
:1009B000A341101A8B4101D2012010BD002010BDAF
:1009C00010B5002904DB0C460121C9074042A141B2
:1009D000002B04DB1C460123DB075242A341101A03
:1009E0008B4101D3012010BD002010BD10B500299E
:1009F00004DB0C460121C9074042A141002B04DB66
:100A00001C460123DB075242A341801A994101D2BF
:100A1000012010BD002010BDC217C10F504010B5FD
:100A20004018CA079623002100F0AAF810BD10B59F
:100A300000229623114600F0A3F810BD0EB505491B
:100A40000291002100910A460B460191FFF7B9FD82
:100A500003B000BD33040000C20F41004002012377
:100A6000400ADB05D207090EC0187F2901DA0020F1
:100A70007047962903DC9623591AC84001E096393D
:100A80008840002AF4D040427047000070B5CD0F76
:100A90004A0009030123090B1B0519430B4BED0702
:100AA0000024520D9A4201DA002070BD074B343306
:100AB0009A4203DC9A1AFFF753FD02E004495118E9
:100AC00088402C43F1D0404270BD0000FF0300007D
:100AD000CDFBFFFF4A0009030123090B1B05194346
:100AE000094B10B5520D9A4201DA002010BD064B99
:100AF00034339A4203DC9A1AFFF732FD10BD0349E2
:100B00005118884010BD0000FF030000CDFBFFFF1F
:100B1000C20FD207400040080BD0C10D0723DB01F4
:100B2000C91840020905400A1143C2084007114391
:100B30007047002001467047CB0FDB07490010B516
:100B4000490802460A4307D00A0D07240903E401B5
:100B5000090B121B002A01DC002010BDC900440F44
:100B60000C43C100E018D205801800F001F810BD58
:100B7000002904DA401C490001D1400840007047B8
:100B800070B40024050C05D11024000402D1002902
:100B900021D01124050E01D100020834050F01D126
:100BA0000001241D850F01D18000A41C002801DB59
:100BB0004000641C002908D020252E1B0D46F5405E
:100BC000A14000D001212943084301061B1B000A54
:100BD000DB1D02D5002070BC7047DB05181880189B
:100BE0000029F8DA401C4900F5D170BC40084000EB
:100BF00070470000B0B581B01B480168C90731D00B
:100C00007D21C90002685207764BCD4A10D4046892
:100C10001C4002232343036013680093009B036876
:100C2000DB0717D01368DB03DB175918F7D119E07E
:100C300004681C4010252543056014680094009C3E
:100C40000C460568ED06E2D51568ED03ED172C1985
:100C5000F7D107E00146083901220A600168034A1A
:100C60000A40026001B0B0BD08240140E8FFFF6FF8
:100C7000F0B58BB05848008800B202900023574D61
:100C8000AF4E03932868C0076AD05548A862082071
:100C90000190286004272F60A96839404B424B41DE
:100CA0007D21C9000022DB0704D0AB684D4803401A
:100CB0001B1DAB6033680A930A9B0B462C686407C4
:100CC00005D43468E403E417E318F7D148E02B6C4B
:100CD00045480340540009A803532F60AC683C40CA
:100CE00063426341521C022ADDD1002C28D10198B5
:100CF00028603E480088029908183D494843FFF79C
:100D000096FE019009AC6088FFF791FE01460198BC
:100D1000FFF7B4FD3749FFF7B1FD01902088FFF7D9
:100D200086FE01460198FFF76CFD3349FFF7A6FDEB
:100D3000039B990004AA50505B1C052BA1D113E022
:100D4000A868284A10401030A86030680A900A98B5
:100D5000A868C006CBD53068C003C0174118F7D1CA
:100D6000002528460BB0F0BD002504AE2C46E0B2AD
:100D7000800004A9085831680391FFF7E7FD0028B7
:100D800001D02C460BE00294F8B2800004A9085868
:100D90000399FFF7CDFD002800D12F46029C361D98
:100DA0006D1C052DE3D1E0B28600F8B28700002467
:100DB0002546A6420BD0A74209D004A800590F49E6
:100DC000FFF75CFD01462846FFF7C2FC0546241DDF
:100DD000142CEED1C5E7C04642010020002401409A
:100DE00002000200E8FFFF7FFF0F00007800F81FFD
:100DF000B80B000000F07F4500007A44000040403E
:100E000010B582B04B48417800291FD04A4CF921D7
:100E1000E1606168FA2901D300216160807800F007
:100E200067F9E06840086060012000022168014322
:100E30002160AE490A680192019A14220B68DB0313
:100E4000DB179A18FAD121688143216002B010BDE6
:100E500010B582B03748417800291FD0364CF921AF
:100E6000E1606168FA2901D300216160807800F0B7
:100E70003FF9E068400860600120000221680143FA
:100E800021609A490A680192019A05220B68DB03E6
:100E9000DB179A18FAD121688143216002B010BD96
:100EA000B0B582B023484178002940D0224CF925C2
:100EB000E5606168FA2901D300216160807800F063
:100EC00017F91E48E0606068C0087D2801D3002043
:100ED0006060E0684008606001200102206808430B
:100EE0002060824802680192019A28220368DB038D
:100EF000DB179A18FAD12368244A13402360E5606F
:100F00006368FA2B01D300236360E3685B086360C6
:100F100023680B432360016800910099282103682E
:100F2000DB03DB175918FAD120681040206002B0AB
:100F3000B0BDC0461C00002020000040E7030000B8
:100F400010E000E010B501200E490A68D20503D474
:100F500002020B6813430B60C2040B4B1C68144362
:100F60001C601C6894431C600B68084A13400B60AB
:100F7000ED3207495358002B02D1121DFAD100203F
:100F800010BDC0460070004050100240FFFEFFFF41
:100F900064280040F0B585B01E4615460746524A03
:100FA0001068000731D4514803680393039B14234E
:100FB0000468E403E417E318FAD11068000724D4A6
:100FC00000960846FFF73AFD02460B4600203249DC
:100FD00005F0F4FE029505460E4601973F78384627
:100FE000FFF72CFD2A463346FFF7E2F9FFF772FDC3
:100FF0000A21FFF77DF80C4628463146FFF76AFDC7
:1010000002998C4237D2381840E013680020DB0682
:101010003FD40295354B1C680494049C14241D682D
:10102000ED03ED172C19FAD11268D20631D4084617
:10103000FFF704FD02460B460020174905F0BEFEEF
:10104000054600960E4601973C782046FFF7F6FCD1
:101050002A463346FFF7ACF9FFF73CFD0A21FFF7BC
:1010600047F80F4628463146FFF734FD00998F4276
:1010700007D9201A0AE0444300994143C819001BCC
:1010800004E04743029941430819C01B01990870C5
:10109000012005B0F0BDC04600002440B0B581B0CD
:1010A0000120C0030F49104A104B0C680442FCD0C9
:1010B00014682407F9D51468E406F6D51C68009472
:1010C000009C14241D68ED03ED172C19FAD10C684F
:1010D0000442EAD014682407E7D51468E406E4D58E
:1010E00001B0B0BD100000501004005010E000E04E
:1010F000F0B581B00B21FEF7FBFF0C460F4F3868AF
:10110000FFF79CFC00250E4B2A46FFF7E9F80D4B34
:101110002A46FFF74DF905460E462046FFF78EFC9E
:1011200002460B46FFF7DCF82A463346FFF7D8F8AD
:10113000FFF7D0FC386101B0F0BDC0462C00004084
:101140000000E03F0000594070B51D46144600F015
:1011500001FA242004F03AF96C43200409D0049DDC
:101160000026284604F05EF9A0B2761CB1B2814296
:10117000F7D32520C20000201023014600F0EAF931
:1011800070BD000070B52520C4000025102328463E
:101190002946224600F0DEF9242004F017F9074E14
:1011A000FF2004F03FF9681CB5420546F8D3002043
:1011B00010230146224600F0CDF970BD7F120000D9
:1011C000F0B587B007240B46059423405B1CDB0871
:1011D00004935B1C0191C908029200F0BBF900273F
:1011E0003A4603920225019839460C4606A90F702B
:1011F0000599084039468022C24011436D1E2A06D7
:1012000003D0401C0828F6D100E03D46C84306AE96
:101210003070242004F0DAF80121304604F02EF971
:10122000611CE0B2049A90423846DED3039A521C05
:1012300090B202998842D4D307B0F0BDF0B581B026
:101240001446127863789A18A378DD082B4600F0CC
:1012500081F966782778242004F0B8F8F1196943F9
:10126000E01C04F00BF901B0F0BDF0B58DB00A92AE
:10127000069105901878002800D1E8E01C46139EDE
:10128000129F391D0791F11D0391002508960497BF
:10129000010615D40B95002F25D03978401A7A789D
:1012A000B97813464B43DE087043079D2818099010
:1012B0008019FB787343EB18984250D90B9D5EE080
:1012C000002E00D1BEE00CA900220A701146034690
:1012D00093401B0632D5521C491C052AF7D10CA895
:1012E00005210170AAE0002E4ED020284CD105988F
:1012F0000B99081880B2B17872785608CF08069911
:1013000032463B4600F026F97E430ED000250CAF56
:10131000FF203870242004F059F80121384604F0E9
:10132000ADF86D1CE8B28642F1D80B980A994018C6
:10133000089E717849084518049F83E00CAA117033
:101340007F220A40042A21D0032A32D0022A75D1F2
:101350006178002972D0641CC006420D35E0059802
:101360000B9D281880B2CB08069900F0F3F82420D2
:1013700004F02CF80998314604F080F87A780A983D
:1013800028188518089E5DE00B9D5BE06278002AB6
:1013900054D0A378002B51D0E17800294ED0E41C22
:1013A0004007C00A9206920B10189A06120D821876
:1013B0000BE06278002A41D0A17800293ED0A41C1D
:1013C0000007000C9206120D12183F20084010432F
:1013D00034D0F178002931D00B957378B27801932D
:1013E00000925343DA080292D21C09920223DB4393
:1013F000039EF55C2D04F21857783F027D19927810
:10140000AA18824207D0099AB618491EF1D1089E3F
:10141000049F0B9D12E005980B9D281880B200993F
:10142000CB080699019A00F095F8242003F0CEFF2E
:101430003046029904F022F8089E049F0A98281862
:10144000717845186078641C002800D020E70DB042
:10145000F0BD80B5222003F0B9FF032003F0E2FFC6
:10146000202003F0B3FF04F033F8102003F0AEFFA8
:10147000012003F0D7FF80BDB0B582B004463049EB
:1014800010220A612F4803680093009B012305681E
:10149000ED03ED17EB18FAD10A600168019101998B
:1014A00001210268D203D2175118FAD1012C04D0BD
:1014B000122003F08BFF04F00BF80125284603F0FF
:1014C00085FF272003F0AEFF284603F0ABFF002086
:1014D00003F0A8FF0C2003F079FFD72003F0A2FF50
:1014E000D62003F09FFF9D2003F09CFF112003F006
:1014F0006DFF284603F096FF2C2003F067FF9A202B
:1015000003F090FF3A2003F061FF1A2003F08AFFF6
:101510003B2003F05BFF082003F084FF3C2003F036
:1015200055FF332003F07EFF322003F04FFF60B2FF
:10153000800005A108581E2103F0A0FF02B0B0BD35
:101540001800005010E000E0BEE00008DCE00008F9
:10155000A0E00008F0B581B01F4600920C46064698
:10156000442003F033FF204603F05CFFE019411EE6
:101570001F20084003F056FF452003F027FFFF20FF
:101580002830851BEEB2304603F04CFFE805C70F4C
:10159000384603F047FF0098281A451CE8B203F0CC
:1015A00041FFE805C00F03F03DFF4E2003F00EFFA2
:1015B000204603F037FF4F2003F008FF304603F0CA
:1015C00031FF384603F02EFF01B0F0BD80B5222078
:1015D00003F0FCFEC62003F025FF202003F0F6FEFA
:1015E00080BD0000BFF34F8F034804490160BFF383
:1015F0004F8F00BFFDE7C0460CED00E00400FA0588
:1016000080B582B06E480168019101997D21CA00C0
:101610006C490B685B0708D40368DB03DB179A1877
:10162000F7D103F07BFF002000E0C868C0B202B031
:1016300080BDC046F0B583B001917D23DD00504BE5
:101640005C6924045E4E14D4009201221146D70234
:101650001C68BC431C60324A541C1F682740381861
:1016600018601868019F002F15D02A4618321043C1
:1016700012E034680294029C2C465F69FF07E3D1B4
:101680003768FF03FF173C19F7D103F047FF002825
:1016900041D1012440E0104018600C4608061A6849
:1016A00082431A60FF2000041A68824300980004F5
:1016B0001018186048061A6882431A6048031A68AE
:1016C00002431A60306802900298002F18D0002D53
:1016D0001DD05869400718D43068C003C017451999
:1016E0005869C006F3D59869102101439961032414
:1016F00012E03068C003C01745195869C006F2D41B
:10170000002D04D05869C007F3D0002404E003F092
:1017100005FF002800D00224204603B0F0BDC046DB
:10172000FFFBFFFF10B582B02548016801910199C8
:101730007D21C900124A0B465469E40705D10468AB
:10174000E403E417E318F7D10FE001239B031468C7
:101750001C43146003680193019B53691B040CD55F
:101760000368DB03DB175918F7D103F0D7FE002815
:1017700001D0022002E0012000E0002002B010BDF4
:101780000454004010B582B00D490A680192019AD4
:101790007D22D3000B4A1468E4070AD10C68E403E5
:1017A000E417E318F7D103F0B9FE002804D00220B3
:1017B00003E01061002000E0012002B010BDC0462F
:1017C00010E000E018540040F0B584B00C68002C24
:1017D00055D00123019303915A1E019F9740274042
:1017E00048D04A68551E022D02943D4615D27D43CD
:1017F00003998C686C4303266E438168B14321438F
:1018000081600399C9680092029A514344689443E5
:10181000009A0C434460039902E07D4303266E4323
:10182000F64309696943C46834400C43C460022A22
:10183000029C19D13C0A01D0242200E02022039905
:101840004F6902928258002C02D06443644301E045
:101850002C466C430F2161438A4367431743029927
:10186000475003990C684A68554301683140294341
:10187000016003992246DA405B1C002AACD104B017
:10188000F0BD0000F0B587B072B62B4F786A0090BB
:101890002A4CA0680290E06801906569A669284812
:1018A000411C3A680A433A6039680140396003A82C
:1018B00000F04AF83046284333D003208004796A88
:1018C000204A11407962002D0FD0216901220A437C
:1018D00022616561039923680822491E01D01340E3
:1018E000F9D06368134363600391009D0540002EA7
:1018F00012D02069012101432161A66103A800F0F3
:1019000023F8039822681021401E01D00A40F9D024
:1019100062680A4362600390786A0A490840284373
:10192000786220690121884320610298A0600198B3
:10193000E06062B607B0F0BD28100240007C0040B5
:10194000FFFFFF7FFFFFF3FFB0B5044603F0C6FAC9
:1019500020608C490A681206120F094B9A5CD0402D
:1019600060600A685205520F064B9A5C0546D540E6
:10197000A56009688904490F595CC840E060B0BDA2
:1019800056E2000866E20008F0B581B072B60124A4
:101990002102754D6A688A436A60296804273943C1
:1019A00029607A4A20211160704B1A68A2431A609C
:1019B0005C616F4A116003F063FE600229680143B5
:1019C0002960A1022A688A432A60E1036D4A1368EC
:1019D0000B4313602968214329600221CA432B6805
:1019E00013402B60684B1E683E431E6030BF2B685F
:1019F00083432B606003654B1860654B5D68154041
:101A00005D601A680A431A606107584A5161584973
:101A10000860FFF737FF62B601B0F0BD70B572B66F
:101A200051484168144A11404160036804210B4346
:101A30000360036808241C43046001231C024568FA
:101A4000254345609C040D4D2E68A6432E602C68EE
:101A50009C432C602C6814402C605A02036813438A
:101A600003600268022313430360474802680A4385
:101A7000026030BF70BDC046FFFEFFFF5010024045
:101A8000F0B585B072B601242002374E71688143EB
:101A9000716030680421039108433060E143049190
:101AA000324A1068084010605461314820270760AE
:101AB0001068204310602F480760FF2000022E4965
:101AC0000A6882430A602D4803F0DAFD306801900D
:101AD00030682B49084021034018306061020291B0
:101AE000306808433060A002336883433360E0030A
:101AF000244B1A6802431A60306820433060022386
:101B0000D8433268024032601F4A1168039D29435E
:101B100011600321C902019A114030BF3268184D8B
:101B20002A405118316019490F60104D2A680499F4
:101B30000A402A606C610E4A1760326802998A4333
:101B40003260620311490A6011494E6806404E60D6
:101B50000868184308606007686105480260FFF77D
:101B600091FE62B605B0F0BD007000400004014077
:101B700080E200E000E100E004E400E01027000063
:101B8000FFE7FFFF0C10024010ED00E080E100E0F5
:101B9000047C0040ADB00120119000021090234859
:101BA0000078411E022900D33AE1FFF7CBF90F205C
:101BB00003F03CFA1E4E40B2002803D43078AA2825
:101BC00000D1C6E103F062F90121CC031948006895
:101BD000194D002800D094E118A00E460027394680
:101BE00000F0FAFEFFF75AFA12970F970E96184B6D
:101BF00030461849096821420DD129681491149979
:101C000014212A68D203D2175118FAD11149096850
:101C1000214200D182E0F9B2032900D97AE0C0461E
:101C20007944097949008F44173655651100002021
:101C30001C000020FC07080810E000E0E7A1ACE46D
:101C4000BBB6E78988E69CACE8AEBEE7BDAE000057
:101C50001004005010000050196809070BD42968BF
:101C60001491149914212A68D203D2175118FAD169
:101C70001968090757D51968C9064BD42968149102
:101C8000149914212A68D203D2175118FAD119686D
:101C9000C9063FD453E0196809070BD42968149189
:101CA000149914212A68D203D2175118FAD119684D
:101CB00009073ED51968C9062CD4296814911499CE
:101CC00014212A68D203D2175118FAD11968C9060B
:101CD00020D43AE0196809071CD429681491149992
:101CE00014212A68D203D2175118FAD119680907AA
:101CF00010D4CDE0196809070CD4296814911499FF
:101D000014212A68D203D2175118FAD11968090789
:101D100000D4F3E00026002828D169E7F8B20328B0
:101D20001BD27F1C1AE00F99C8B2092815D2491C92
:101D300012E01299C8B2092815D2491C12E00F9975
:101D4000C8B2002807D10F9007E01299C8B2002846
:101D500007D1129007E0491E0F91002701200E9E27
:101D600004E0491E12910E9E012007461968C9071A
:101D70003CD113961298C0B200900F98C3B2ED48B0
:101D80001099EDA204F0F4FCF1480090F1480190A4
:101D90000421002630463246E64BFFF766FAEC484F
:101DA0000090EC480190082130463246EAA3FFF744
:101DB0005CFAE7480090E74801900C213046324633
:101DC000EEA3FFF752FAFF2000908420072124227F
:101DD0000123FFF7B9F9F8B2811E02290AD30128BD
:101DE0000AD0002830460DD1842006E0002E064699
:101DF00011D1FCE6781E05E09C200721E44AFFF79C
:101E00001DFA3046C0B200F09FFEFFF7DFFB1398CB
:101E1000002800D1EBE6FEF7F3FFFFF73FF9E6E617
:101E2000032800D095E00F2003F000F98007D94B7C
:101E30001FD4186800070CD4D7480168149114996E
:101E400014210268D203D2175118FAD1186800077A
:101E500019D51868C00616D4CF4801681491149992
:101E600014210268D203D2175118FAD11868C0069B
:101E700009D40F25284603F0D9F8FD210140284652
:101E800003F0F1F865E003F001F800F0B3FE60E064
:101E9000286814900F98C0B21299C9B2090440186A
:101EA000BE49421814987D20C100BD480B464669C2
:101EB000F60705D02E68F603F617F318F7D11DE0E4
:101EC0000368DB0703D0B74B8360B74B8360B74B26
:101ED0001A602A681492149A4269D20705D02A68B7
:101EE000D203D2175118F7D108E0016801220A4342
:101EF00002600068C00701D0AC480068FEF7D0FF60
:101F0000AB4EACA0022100F067FDFFF7C7F8002040
:101F10000421AC4AFFF792F9FFF758FBFFF7B0FD39
:101F2000A94908682042FCD128681490149814200C
:101F30002968C903C9170818FAD1A34908682042BB
:101F4000EFD1FEF7ADFF02F083FCAA20307003F062
:101F50000BF902F09BFF9D4803F000F80024204697
:101F60000B30C5B2284603F061F8014680263143A4
:101F7000284603F078F8641C032CF0D112960E2644
:101F8000304603F053F802210143304603F06BF86A
:101F90000F27384603F04AF80146FD201390014010
:101FA000384603F060F8304603F040F80146FE255D
:101FB0002940304603F057F8384603F037F805401B
:101FC0003846294603F04FF8304603F02FF8014613
:101FD00004200D900143304603F045F87C4814A9D5
:101FE000062203F069F900286DD114AA511CFF24C0
:101FF0001378634000245D0031201B0600D5454066
:10200000EBB2651C072C2C46F5D3541C8A422246A1
:102010001C46EDD114A98978994254D114AA111DF6
:10202000D21CFF241378634000245D001B0600D5FA
:102030004540EBB2651C072C2C46F6D3541C8A4253
:1020400022461C46EED114A8407998423BD114ADEB
:102050002888000400BAFEF739FA00275D4C3A469A
:102060002346FEF7A5F95C4B3A46FEF739F95B4B80
:102070003A46FEF783F8FEF75FFD014658480068D0
:10208000FEF766FB574908602879E97809020818C5
:10209000FEF71CFA3A462346FEF78AF9524B3A46B7
:1020A000FEF71EF9FEF748FD014650480068FEF7AE
:1020B0004FFB07464E4D2946FEF748FC002800D14D
:1020C0003D464C4805600220FFF7D6F9FFF75AF865
:1020D000494804682046FEF71BFD07460D46474A5F
:1020E000474BFEF757FC002807D1464A464B384677
:1020F0002946FEF739FC002802D1FEF7B9FD044657
:102100002B4880682146FEF7F7FB1199CF020A039E
:102110008907002820462C4C0F920E917AD10A2074
:1021200002F084FF2646AA2800D03DE13748E4218A
:10213000374A4BE134000020E7A1ACE4BBB6E789A5
:1021400088E69CACEFBC9A5625642E2564000000FE
:10215000B9780008E09B00085BE6B3A8E6848FEF3F
:10216000BC9AE8AEBEE7BDAEE4BF9DE5AD98E59094
:102170008EE4B88DE4BC9AE5868D0000E698BEE753
:10218000A4BAE6ADA4E88F9CE58D955D0000000043
:1021900057BF00081004005010E000E0302E30005F
:1021A00004200240EFCDAB8905040302FC070808B8
:1021B0001C000020E6ACA2E8BF8EE4BDBFE794A8F7
:1021C00000000000BDD200081000005038010020BF
:1021D000062C0000E0FFEF4000E06540008046C0B4
:1021E00034010020180000200000594008000020A1
:1021F0000000C84214000020502800409A99999984
:102200009999B93FCDCCCCCCCCCC0C40C5EC0008D6
:10221000EBEA000809900A200021139102F023FF45
:102220007D24FB4B5979481EC0B20B280C970D94A6
:102230000CD81A79501EC0B21E2807D820019B79ED
:102240001818F84BC318C82B00D231E1F64800210A
:102250000170F6480170F6480170F6480568F648C6
:102260000768FF2603960836089621361C21139C22
:1022700020463246FEF7A4FF682120463246FEF78C
:102280009FFFD52043214C22FEF79AFFCA2004214C
:10229000022208230B910A93FFF75CF93846FEF7F8
:1022A00037FCE64AE64F3B46FDF768FFFEF744FC85
:1022B0000646FEF7D1FB0590FEF7AEFB0146304621
:1022C000FEF797FADF49FEF79CFA07902846214669
:1022D000FEF720FB06462846FEF71AFC02460B4690
:1022E000002E00D0D84FD548D64C3946FDF746FFD2
:1022F000FEF722FC0646FEF7AFFB0490FEF78CFBD0
:1023000001463046FEF775FA2146FEF77AFA069046
:10231000139F384611900720382539460C4614A9DA
:102320000F703946129B1A46C24011436D1E2A0691
:1023300003D0401C0828F6D100E03D46C84314AF46
:102340003870242003F042F801263846139F3146A6
:1023500003F094F8611C072C3846DFD31199481C10
:102360000029D7D0B94845682846099C2146FEF780
:10237000EDFA07460698FEF76FFB11900798FEF7F7
:102380006BFB1290002F0CD1B1482946FEF731FAB1
:102390000746FEF7BDFBAF4AAF4BFEF711FB002827
:1023A00064D10021AD4ADAE00020AD4A0146FEF7D3
:1023B00045FFFFF70BF9FFF763FBFFF74AF80A2029
:1023C000AA2102F050FEA748E021A74A02F0A2FF8E
:1023D0000E25284602F02AFE0146139C214028467D
:1023E00002F041FE0F25284602F020FE0440284658
:1023F000214602F038FE9D4A1068400603D5106859
:1024000040218843106010203446B0610820B0613C
:102410004020B061964D0D98A860FEF7EBFB0E9E34
:10242000306A94490840306231680120814331604C
:10243000914A1168C90702D01168814311602020B8
:10244000A8610F98A061A760FB4EFC4F2546109C29
:10245000F1218448324602F05DFFAC613220FFF783
:1024600093FAAC603846FFF78FFAF1E778492046D7
:10247000FEF75EFA002854D120462946FEF7B9F946
:102480000546EF493846FEF7F9F901462846FEF7BA
:10249000F5F9FEF73DFB0022FA4BFDF76FFEFEF764
:1024A000F5FA00283ED0142800D31420064639E05F
:1024B000DC1CA700EE4DED590B9545024F012F4353
:1024C00017430B9DBD4200D99C1CA400E84B1D592D
:1024D00002F098FE07461F222A40E802000DE90597
:1024E000090F02F08FFE381A401CE2490B59D9033C
:1024F0000A0F0D24119D2946641EA5401D40E5408C
:10250000012D01D01D2500E01E2587B2BD4200D35C
:1025100080E1401B491C002C119D139FECD13146DA
:1025200079E1142614ADD84963222846FEF7ECF869
:10253000563500200146039FCC4A5219D35DF8243A
:102540001C40D4556B1E18702B781F241C402C7017
:10255000FE32491CB1421546EED3002114AA089858
:10256000FEF76CFE109FBD4CA379E078617922796B
:10257000019200918000C54908180290B44DC4A290
:102580002846394604F0F4F8B24E0196B24800905D
:1025900000200122014613922B46FEF766FE207AA8
:1025A000002815D0E079002808D0AB480090A94E4B
:1025B0000196002009210222BCA307E0A648009052
:1025C000A44E0196002005210222B9A3FEF74DFE7C
:1025D000A378607800909E4DB64A2846394604F0AC
:1025E000C7F8207A0196B4490091002801D0222032
:1025F00000E01620049C139E052106222B46FEF7C0
:1026000034FE0920C043844204DC9148AD4A37E0DF
:1026100038010020632C31DC119800908C48A84AC6
:102620002EE0C04630F8FFFF0E0000201000002012
:102630000C00002018000020140000209A9999999D
:102640009999A93F000020419999A9BF1C00002039
:1026500000004040FCA9F1D24D62503FD7BF0008B6
:102660003AC00008C5EC000828EB00080030014023
:1026700010040050FFFEFFFF0054004074488F4AD2
:102680003946234604F074F8059D7248724900915A
:102690000190D520052100276D4B3A46FEF7E5FD58
:1026A000632D04DC129800906948884A01E068486C
:1026B000854A109C21462B4604F05AF86548664925
:1026C00000910190D5200921614D3A462B46FEF735
:1026D000CCFD6A480078072148437D4A1018664AB5
:1026E0001278674B1B7801904B437A48C0180090D2
:1026F000900079490B18794A2846214604F038F8A9
:102700007748009701900E21022238462B46FEF7AB
:10271000ACFDFEF75BFFFFF7B3F9FEF7A9FA7149CD
:102720000A68224202D10A6822430A604C4A1060B9
:1027300008684E4D284008601068FEF78AFE4A4B34
:10274000186840063F4C0C9A03D51868402188430E
:1027500018601020A0610A98A0614020A0613A4949
:102760000B9888603F4B1868C00702D01868B043C8
:102770001860202088610F98A061A260FEF73AFAE5
:102780000E99086A284008620868B0430860F003A0
:102790002E4D21680142FCD029681491149914210E
:1027A0002A68D203D2175118FAD121680142F0D019
:1027B0004D4CAD214D4A204602F0ACFDFFF72EF9FD
:1027C000B2214B4A204602F0A5FD286814901498C7
:1027D0000D98C0002968C903C9170818FAD1424CDE
:1027E000B421444A204602F095FDFFF717F9B621BF
:1027F0003F4A204602F08EFDB7213F4A204602F0B4
:1028000089FDBFF34F8F3D483D490160BFF34F8FB6
:1028100000BFFDE7139F184B1F70002A08D0CCB2F1
:10282000A24205D2521CA24201D101221A70491EB5
:10283000124A107012480FE595EB0008881300004B
:102840000000A041100000501004005010E000E013
:1028500034000020E09B0008B9780008380100200F
:10286000502800400054004000300140FFFEFFFFB0
:10287000A0E5000870E200080C0000200E00002017
:10288000100000200000E03F74BF0008D3E1000802
:1028900032253033642F253032642F2530326420C6
:1028A000E6989FE69C9F257300000000504D0000B5
:1028B000414D0000CCEA000819860008E4EC00084D
:1028C000EDEC0008DBEC000832ED00083BED000801
:1028D000FAE00008FBE10008F3E10008ACEC0008B6
:1028E00064960008007000406EEC00080CEB0008D5
:1028F000EAEB00084EEC000836EC00080CED00E0B6
:102900000400FA05F0B587B02D4908680224204379
:1029100008600868204006900127059704970397F0
:1029200003260296019440200090069825486D46A3
:102930002946FEF749FF0597049701A8D0C08020DB
:10294000009020482946FEF73FFF78051C4AD168D1
:102950000143D160D16801400691069879061A4872
:1029600042680A434260C26818490A40C260FA04D9
:102970000368934303607A04036893430360026827
:10298000BA4302601F221202036893430360104A95
:10299000026102683A43026082680A40826082688B
:1029A0000C4B1A408260320504689443046042680C
:1029B0000A404260591CC2680A40C26007B0F0BDBC
:1029C0002C1002400004005000540040FF7FFFFF25
:1029D0000B02100000F8FFFFF0B587B00C46059021
:1029E0000220FEF749FDFF260236002706970394D2
:1029F0000496FEF7C7FB00974748019038463946D2
:102A00003A46059BFEF731FCA1203946434D2A4644
:102A1000FEF714FCD12039462A46FEF70FFC30465B
:102A200039462A46FEF70AFC022C31D0012C41D04F
:102A3000002C5CD100240094394D0195952001268D
:102A400031462246394BFEF710FC00940195CD200B
:102A50003146224637A3FEF708FC00940195FD207D
:102A600031462246344BFEF700FC00940195D320FA
:102A70000D263146224631A3FEF7F7FB009401955F
:102A80000498401C3146049E2246039C2D4B2CE0AA
:102A900000240094224D01959520012631462246BE
:102AA000204BFEF7E2FB00940195CD2031462246F3
:102AB0001D4B10E000240094194D0195952001262E
:102AC00031462246194BFEF7D0FB00940195C520F4
:102AD00031462246164BFEF7C8FB00940195FD20B7
:102AE0003146049E2246039C0F4BFEF7BEFB324646
:102AF000273200201B21FEF763FB0698002808D12F
:102B0000FEF764FDFEF7BCFF01200690FEF7B4FC63
:102B10006FE707B0F0BDC046E09B000866BF000845
:102B200064960008D2ED000843EE0008BDED0008F1
:102B3000C4ED0008E58AA0008FED0008E4BF9DE524
:102B4000AD98000080ED000870B582B00446FF200B
:102B50000090D3200F214F220123FEF7F5FA002C1D
:102B600005D0022C1BD0012C1FD1DD2019E0194EFD
:102B7000002400940196C5200125174B29462246C2
:102B8000FEF773FB00940196CD2014A3294622463C
:102B9000FEF76BFB00940196FD20124B14E04320DE
:102BA00080000F21104AFEF749FB0A4E00240094D2
:102BB0000196C52001250D4B29462246FEF755FBFF
:102BC00000940196FD200A4B29462246FEF74DFB54
:102BD00002B070BD64960008D9E80008E58AA0201C
:102BE000200000008FED000857BF0008C4ED00086A
:102BF00043EE0008F0B597B0FEF752F916A8401C56
:102C00000790FF20069002300F90012001020991E9
:102C1000C2030021EB4EEC4BEC4F0890044612919E
:102C200011911492002C47D11868C00613D438684B
:102C30001690169814203968C903C9170818FAD1D4
:102C40001868C00607D41199C8B20024092800D218
:102C5000C8E01194CCE01868000712D438681690C8
:102C6000169814203968C903C9170818FAD11868CA
:102C7000000706D41199080600D1B6E0491E11914B
:102C8000B5E03068002510420CD1386816901698CF
:102C900014203968C903C9170818FAD130681042DE
:102CA00000D1E1E12C461299481E0B4683410029D0
:102CB00000D091E0139990E00220FEF7DDFBFEF7D3
:102CC00061FA00250095F4480190284629462A46D5
:102CD000F24BFEF7CAFAA12013902946F04C224687
:102CE000FEF7ACFAD120109029462246FEF7A6FA4C
:102CF0000F9E304629462246FEF7A0FA0095E94885
:102D0000019095200E90012421462A46E64BFEF7BD
:102D1000ACFA0095E3480190CD200D9021462A465B
:102D2000E24BFEF7A2FA0095DE480190FD200C90E0
:102D300021462A46E54BFEF798FA27360B961B21CB
:102D40000A9128463246FEF73BFAFEF73FFCFEF7B3
:102D500097FE2046FEF790FBFEF714FA0095CE484A
:102D60000190284629462A46CC4BFEF77EFA139856
:102D70002946CB4E3246FEF761FA10982946324674
:102D8000FEF75CFA0F9829463246FEF757FA00958F
:102D9000C44E01960E9821462A46C34BFEF765FAAB
:102DA000009501960D9821462A46C04BFEF75DFA24
:102DB000009501960C98139421462A46D84BFEF7AD
:102DC00054FA28460A990B9A7E4EFEF7F9F9FEF757
:102DD00065F9149A2C4697E0012108060CD10020D1
:102DE000139088E0491C119102E009201190002401
:102DF0000121089B1291254673480068C00779D1CC
:102E00000E9310940D95FF200090002504211822A8
:102E10000C232846FEF798F9C349C44808600B46BE
:102E2000C34800909C4801900324119E30462040E6
:102E30006043011D28462A46FEF717FA0094F4B2B3
:102E4000A008431CB84806460999BA4A03F090FC0A
:102E5000B748009090480190EC200D2113952A4628
:102E600033463546FEF701FA032C53D8B2482946BB
:102E70005CC85CC100780870AD4D0095864D019529
:102E800019200C90042100252A46A74C2346FEF762
:102E9000ECF9AA4821465CC85CC102880A808078A7
:102EA0008870A34800907C48019007210C982A461E
:102EB0009D4C2346FEF7D9F9A14821465CC85CC168
:102EC00002880A8080788870994800907248019042
:102ED0000A210C982A46944D2B46FEF7C6F99948CC
:102EE00029465CC85CC1374E02880A8080788870A9
:102EF0002B4655E01391002B06D0FDF781FFFEF71E
:102F0000CDF8149A00201290002D2F4B00D189E6A5
:102F100001F03EFC072C2B4E5AD88B4882490CC836
:102F20000CC11CC81CC1824800905B480190192547
:102F300004210026284632467B4C2346FEF795F9AD
:102F4000824821460CC80CC11CC81CC100780870FE
:102F50007748009050480190072128463246724C2D
:102F60002346FEF782F97A4821460CC80CC11CC8DA
:102F70001CC1007808706E480090474801900A21F3
:102F800028463246684D2B46FEF76FF971482946B0
:102F90005CC85CC12B460B4E02880A808078887022
:102FA0003D480D9D109C62490091019019200D2112
:102FB0000022FEF75AF9FEF709FB0E980028149A32
:102FC0009BD1A1E7100000501004005010E000E079
:102FD0000B2C0D9D109CEED85F48534E31460CC80B
:102FE0000CC11CC81CC100780870514800902A48C8
:102FF000019019200C90042100220B923346FEF719
:1030000034F9564831465CC85CC1554E02880A8086
:1030100080788870464800901F48019007210C98DE
:103020000B9A414C2346FEF720F94E4821461CC816
:103030001CC102880A80807888703D48009016483C
:1030400001900A210C980B9A374C2346FEF70DF994
:10305000444821461CC81CC1109C334B02880A807E
:10306000807888700C489EE7FDF71AFF1198C0B26F
:103070000124092801D901F024FA4000784480880D
:103080004000874415001D002500AC013304ED0607
:10309000F707F1085109F109E09B000893ED0008DA
:1030A00066BF000864960008B6ED000887ED0008CA
:1030B000002001252C4612901190139001F001FA86
:1030C00001F0C6FB0124119401F0FBF98BED00081F
:1030D0000024F1482146FFF77FFCFDF7DFFFEF48B2
:1030E00081780A9140780590012011903068149AF7
:1030F00010420CD138681690169814203968C9030C
:10310000C9170818FAD13068104200D19FE0E0B228
:103110000022032800D996E002A1085C4000874401
:103120008BED0008234F677B34000020E296B60049
:10313000B97800083AEE000858EE000894EE00084E
:1031400080EE00086CEE0008D0EE0008E4EE000807
:10315000FCEE0008A8EE000814EF0008BCEE000822
:103160001000005048EE0008CD4B186800070BD443
:1031700038681690169814203968C903C9170818BA
:10318000FAD11868000711D51868C00600D580E08C
:1031900038681690169814203968C903C91708189A
:1031A000FAD11868C0061198154677D4BB4A5078F2
:1031B00041424141517000240120089A254675E0A2
:1031C000B74B1868000748D4386816901698142032
:1031D0003968C903C9170818FAD1186800073CD420
:1031E000AE4A91780025012009294FD8491C4CE0AE
:1031F000AB4B186800074CD438681690169814200A
:103200003968C903C9170818FAD118680007119856
:10321000154643D401F0B8FAA14B186800073BD417
:1032200038681690169814203968C903C917081809
:10323000FAD11868082101404D424D410007C017DE
:10324000119908402AE011981546954B26E0E0B206
:103250000025032826D32C4625E01868C00618D47C
:1032600038681690169814203968C903C9170818C9
:10327000FAD11868C006119815460FD4874A91787C
:1032800000250120022901D3491E9170089A0446A5
:103290000CE01198154601E00025119801061192E5
:1032A00004D173E0641C7E4B0120089A1968C90799
:1032B00055D10D950E9210947A4C00947A48019055
:1032C00004250020294611900246784BFDF7CDFFDA
:1032D000724E70780094744901910028744B00D0AC
:1032E000744BC02029460C95119D2A46FDF7BDFF61
:1032F000B3780A200090704C204609996F4A03F079
:1033000037FA684800906848019008210B912846D8
:103310002A462346FDF7A9FFFF260096F020182431
:1033200003250C9922462B46FDF70EFF0096CC2074
:103330000B9922462B46FDF707FF109CE0B2811E39
:1033400002290ED301285E4E0ED00028119D16D101
:103350005448009054480190F02004210AE0119054
:1033600014E0651E564E0AE04E4800904E4801900B
:10337000CC20082100252A46524BFDF776FFE8B203
:10338000FFF7E2FBFEF722F90E9A0D9D002D09D101
:10339000022D11D1154601F0E7FE002D18D025466B
:1033A00002240DE03D480A99817005994170002A78
:1033B0000ED02546012403E025460024002A03D030
:1033C000FDF71EFDFDF76AFE002C2C4600D18DE6B0
:1033D000FDF766FD01240025022001F071F80025AB
:1033E00039482946FFF7F8FAFDF758FE2B4841689F
:1033F000049180680E900124119503951095149BFB
:10340000274D2146306818420CD13868169016981E
:1034100014203A68D203D2171018FAD13068184233
:1034200000D1E7E0306818420BD138681690169842
:1034300014203A68D203D2171018FAD13068184213
:103440001FD0286800070BD43868169016981420EF
:103450003A68D203D2171018FAD12868000710D59D
:103460002868C0060BD438681690169814203A685D
:10347000D203D2171018FAD12868C00601D5062049
:1034800010901198C0B2032800D9ADE078440079BB
:10349000400087441B56879819EE00081C00002046
:1034A00010040050B9780008E09B00089DED00086A
:1034B000CBED000833EE000834000020B0EA00082D
:1034C00010000050D7EC0008FCED00082868000749
:1034D0000CD438681690169814203A68D203D21784
:1034E0001018FAD12868000700D492E02868C006B6
:1034F0007AD438681690169814203A68D203D217F6
:103500001018FAD12868C0066ED40498FDF700FBA5
:1035100004460D46F04AF14BFCF730FEF04AF14B01
:10352000FDF764FA064620462946EB4AEE4BFCF7C7
:1035300025FEFDF701FB002E00D10498002111911A
:1035400081E0286800070BD438681690169814207C
:103550003A68D203D2171018FAD12868000779D533
:103560002868C00640D438681690169814203A6827
:10357000D203D2171018FAD12868C00634D40E9896
:10358000FDF7C6FA04460D46D34AD44BFCF7F6FDC8
:10359000D34AD44BFDF72AFA064620462946CE4A9E
:1035A000D14B69E0286800071ED438681690169839
:1035B00014203A68D203D2171018FAD128680007ED
:1035C00012D400F081FF286800070DD438681690E7
:1035D000169814203A68D203D2171018FAD1286826
:1035E000000701D400F077FF0024002900D108E78C
:1035F0000E9A4FE01199C8B2032802D3002011900F
:1036000001E0491C11910E9AFF2010900121089CA5
:1036100040E00498FDF77CFA04460D46AE4AE24BC2
:10362000FCF7ACFD00221192E04BFDF7B3F9064622
:1036300020462946A84ADE4BFCF7A0FDFDF77CFAA0
:10364000002E00D104980121089C0490149BD94EAF
:10365000D94DCDE70E98FDF75BFA04460D469E4A1C
:10366000D14BFCF78BFD0022D04BFDF793F90646BA
:1036700020462946984ACE4BFCF780FDFDF75CFAC0
:10368000002E00D10E980121089C11910246149B36
:10369000C84EC94D2868C0070E9200D0AEE00D9408
:1036A00004981646FDF734FA8B4ABF4BFCF766FDCB
:1036B000FDF742FA0546FDF7CFF90446FDF7ACF9F0
:1036C00001462846FDF795F8BC49FDF79AF8FDF745
:1036D000C3F90090BA4805460999BA4A234603F04F
:1036E00047F8B9480090B948019004210C91002492
:1036F000204622462B46FDF7B8FD3046FDF708FA76
:10370000754AA94BFCF73AFDFDF716FA0646FDF798
:10371000A3F90546FDF780F901463046FDF769F843
:10372000A649FDF76EF8FDF797F90090A44E3046D4
:103730000999A74A2B4603F01BF8A3480090A34819
:10374000019008210B91204622463346FDF78DFD5E
:10375000FDF78EFAFDF7DCF95F4A934BFCF70EFD9F
:10376000FDF7EAF90646FDF777F90546FDF754F946
:1037700001463046FDF73DF89049FDF742F8FDF768
:103780006BF900908E4E30460999924A2B4602F012
:10379000EFFF8D4800908D4801900C212046224675
:1037A0003346FDF762FDFF200A900090B4251826ED
:1037B0000323059328460C993246FDF7C5FC0A9869
:1037C000009028460B993246059BFDF7BDFC119AE7
:1037D000D0B2811E022915D3012815D00028254614
:1037E000744E1DD17848009078480190B42004218F
:1037F00000252A46784BFDF738FD11E0002C0C46D9
:1038000019D1FEE5551E0AE06F4800906F480190FF
:10381000B420082100252A466F4BFDF726FD654E92
:10382000E8B2FFF791F9FDF7D1FE0D980028149B3F
:10383000614D00D1E5E51098000646D0FDF7E0FAAD
:10384000149B2868C0060BD438681690169814206C
:103850003968C903C9170818FAD12868C0061FD5E6
:10386000286800070BD43868169016981420396819
:10387000C903C9170818FAD12868000710D530689D
:10388000184200D0BDE538681690169814203968A3
:10389000C903C9170818FAD13068184200D0B0E53A
:1038A00038681690169801203968C903C917081896
:1038B000FAD1109AD1B20020FF2901D0521E00E0A7
:1038C000C24310921106BCD103E0FDF7C1FA149B6C
:1038D0000398109095E5C0467B14AE47E17A74BF1B
:1038E0009A9999999999E93FE17A84BF00253B48D3
:1038F0002946FFF771F8FDF7D1FB3948C1680D91F2
:1039000000690E900124109503951195149B2A4D82
:103910002146306818420CD1386816901698142049
:103920003A68D203D2171018FAD13068184200D181
:10393000E6E0306818420BD13868169016981420CB
:103940003A68D203D2171018FAD1306818421FD043
:10395000286800070BD438681690169814203A6827
:10396000D203D2171018FAD12868000710D528689A
:10397000C0060BD438681690169814203A68D20303
:10398000D2171018FAD12868C00601D50620109069
:103990001198C0B2032800D9ABE0C0467844007942
:1039A000400087441F528495E17A743F000008402C
:1039B000E17A843F10000050100400500000C8421B
:1039C00034000020F4E90008B9780008E09B000802
:1039D0000CEA00085EEA0008D7EC000809EE0008CF
:1039E0001C000020286800070CD438681690169830
:1039F00014203A68D203D2171018FAD128680007A9
:103A000000D48DE02868C00673D4386816901698E4
:103A100014203A68D203D2171018FAD12868C006C9
:103A200067D40D98FDF774F804460D46F94AFA4B31
:103A3000FCF7A4FB00221192F84BFCF7D7FF0646D7
:103A400020462946F34AF64B7DE0286800070CD44F
:103A500038681690169814203A68D203D2171018B6
:103A6000FAD12868000700D4B3E12868C00640D422
:103A700038681690169814203A68D203D217101896
:103A8000FAD12868C00634D40E98FDF741F80446F0
:103A90000D46E04AE04BFCF771FB0022DF4BFCF7E0
:103AA000A5FF064620462946DA4ADD4BA3E12868F1
:103AB00000071ED438681690169814203A68D2036E
:103AC000D2171018FAD12868000712D400F00AFDA6
:103AD000286800070DD438681690169814203A68A4
:103AE000D203D2171018FAD12868000701D400F0C9
:103AF00004FD0024002900D10AE70E9A0D982FE05A
:103B00001199C8B2032802D30020119001E0491C8A
:103B100011910E9A0D98FF2110910121089C1FE030
:103B20000D98FCF7F5FF04460D46BA4ABD4BFCF76D
:103B300025FB00221192BC4BFCF72CFF06462046C9
:103B40002946B44AB94BFCF719FBFCF7F5FF002EE8
:103B500000D10D980121089C149BB54EB54D0E9ACD
:103B60000E922A68D2070D9000D0C5E00C94002474
:103B700021460646FCF7EAFE05463046FCF7C8FF3C
:103B800002460B46002DA74900D1A349A148FCF7E6
:103B9000F5FAFCF7D1FF0646FCF75EFF0B90FCF749
:103BA0003BFF01463046FCF724FEA349FCF729FE03
:103BB000FCF752FFC11745184D4030469F49FCF7AE
:103BC0009BFE0A903046FCF7A3FF924A944BFCF709
:103BD0000DFF009500289A4900D19A490A980028BB
:103BE000974A9948994E00D10A46099905460B9B78
:103BF00002F0BEFD009696480190042120460B91EC
:103C000022462B46FDF731FB0E9E30462146FCF73F
:103C10009DFE05463046FCF77BFF02460B46002D15
:103C2000804900D17C497B48FCF7A8FAFCF784FF67
:103C30000646FCF711FF0A90FCF7EEFE01463046FF
:103C4000FCF7D7FD7C49FCF7DCFDFCF705FFC1174D
:103C500045184D4030467949FCF75CFE05903046EA
:103C6000FCF756FF6B4A6E4BFCF7C0FE0095002830
:103C7000784900D1784905980028764A7248734EF1
:103C800000D10A46099905460A9B02F071FD00968B
:103C90006F48019008210A91204622462B46FDF7E5
:103CA000E4FAFF2005900090D826182204920325FC
:103CB00030460B992B46FDF747FA059800903046A1
:103CC0000A99049A2B46FDF73FFA119AD0B2811E49
:103CD000022915D3012815D000282546544E1DD1A0
:103CE0005A4800905A480190D820042100252A46BD
:103CF0005A4BFDF7BAFA11E0002C0C4619D107E631
:103D0000551E0AE05148009051480190D8200821E2
:103D100000252A46514BFDF7A8FA454EE8B2FEF7BA
:103D200013FFFDF753FC0C980028149B414D00D164
:103D3000EEE51098000646D0FDF762F8149B28685F
:103D4000C0060BD438681690169814203968C90339
:103D5000C9170818FAD12868C0061FD528680007B7
:103D60000BD438681690169814203968C903C917FF
:103D70000818FAD12868000710D53068184200D01A
:103D8000C6E538681690169814203968C903C91713
:103D90000818FAD13068184200D0B9E53868169092
:103DA000169801203968C903C9170818FAD1109A62
:103DB000D1B20020FF2901D0521E00E0C243109270
:103DC0001106BCD103E0FDF743F8149B0398109053
:103DD0009EE50E98FCF79CFE04460D460D4A114BDD
:103DE000FCF7CCF90022104BFCF7D4FD0646204628
:103DF0002946084A0D4BFCF7C1F9FCF79DFE002E41
:103E000000D10E980121089C02461191149B084E86
:103E1000084D73E67B14AE47E17A74BF000024C0FE
:103E2000E17A84BFE17A743F00002440E17A843F64
:103E300010000050100400500000C842000080BF75
:103E400015ED0008F8EC000834000020B9780008EF
:103E5000E09B000863ED000846ED0008D7EC000881
:103E60000024EF482146FEF7B7FDFDF717F9ED4AAC
:103E70001068099908431060106820210143102040
:103E800081431160E848808A0D900125149B2846E3
:103E900031681942E54D0BD13968169116991421F4
:103EA0003A68D203D2175118FAD13168194253D067
:103EB000E1B202292AD0012938D0002946D1296847
:103EC00009070BD439681691169914213A68D20360
:103ED000D2175118FAD12968090742D52968C906AD
:103EE00034D439681691169914213A68D203D2173E
:103EF0005118FAD12968C90628D47E20C0430D9AEA
:103F000011B2814233DD521E0D9230E0296809075B
:103F10001CD439681691169914213A68D203D21725
:103F20005118FAD12968090710D4F4E22968090761
:103F30000CD439681691169914213A68D203D21715
:103F40005118FAD12968090700D4DDE200250028BC
:103F50009DD02A46B54D0DE0E0B2022807D2641C80
:103F600006E00D9908B27F2801DA491C0D91002462
:103F70000120089A2968C90773D111920D9806B2D9
:103F8000AB480999AB4A334602F0F2FBAA480090CD
:103F9000AA48019004211091002528462A46A44BE6
:103FA000FDF763F9A6480088FCF741FDA549FCF739
:103FB00028FC0E903046FCF72FFDA249FCF721FCAF
:103FC00001460E98FCF7C4FBFCF7A2FD9E4A9F4BEE
:103FD000FCF7D4F8FCF7B0FD0646FCF73DFD0E906B
:103FE000FCF71AFD01463046994EFCF702FC994950
:103FF000FCF707FCFCF730FD00908D480999964AC4
:104000000E9B02F0B5FB8C4800908C480190082173
:1040100028462A46864BFDF728F9FF200090A82065
:10402000182203231099FDF78FF8E0B2411E0229F0
:1040300021460CD3002809D17F4800907F48019089
:10404000A82004210022854BFDF70FF92946C8B2AC
:10405000FEF77AFDFDF7BAFA11980028149B04D1F7
:1040600015E7002A054600D111E7FCF7C9FEFDF768
:1040700015F80BE700247A482146FEF7ADFCFDF762
:104080000DF86948807D11900126149B674D3046DC
:104090006F4E316819420BD1396816911699142167
:1040A0003A68D203D2175118FAD13168194253D065
:1040B000E1B202292AD0012938D0002946D1296845
:1040C00009070BD439681691169914213A68D2035E
:1040D000D2175118FAD12968090745D52968C906A8
:1040E00034D439681691169914213A68D203D2173C
:1040F0005118FAD12968C90628D47E20C043119AE4
:1041000051B2814238DD521E119235E0296809070B
:104110001CD439681691169914213A68D203D21723
:104120005118FAD12968090710D40DE22968090746
:104130000CD439681691169914213A68D203D21713
:104140005118FAD12968090700D4F4E100260028A3
:104150009DD03246384E13E0E0B2022801D300244D
:1041600000E0641C344E09E01199C8B27F2801D1E7
:10417000119001E0491C11912F4E00240120089A52
:104180002968C90741D11092119843B2284809996A
:10419000284A02F0EDFA00962848019004210E9179
:1041A0003546002630463246214BFDF75EF8009535
:1041B000224801900821012230462A4BFDF755F88C
:1041C000FF200090A820182203230E99FCF7BCFFC3
:1041D000E0B2411E022921460CD3002809D116481D
:1041E000009016480190A820042100221B4BFDF7E7
:1041F0003CF83146C8B2FEF7A7FCFDF7E7F9109886
:104200000028149B094D04D141E7002A064600D13D
:104210003DE7FCF7F5FDFCF741FF149B37E7C0468F
:10422000D9ED0008200001401C00002010040050BF
:1042300034000020D6EA0008B9780008E09B0008A6
:104240007800F81FB98B3B3FFCA9F1D24D62403F8B
:104250001000005000007A4478EA0008D7EC00080B
:10426000ECED000895EA000810940221FC48FEF7E6
:10427000B3FBFCF713FF06980006FA49096881436F
:104280001591FE4D2846099E3146FD4AFD4B02F030
:104290006FFAFD480090FD4801900421002420465B
:1042A00022462B46FCF7E1FF28463146F84AF94BF7
:1042B00002F05EFAF4480090F4480190062120468E
:1042C00022462B46FCF7D1FF15AB28463146F24A71
:1042D00002F04EFAEC480090EC480190082120468C
:1042E00022462B46FCF7C1FFEC4803680068000C2F
:1042F0000090EB48034028463146EAA202F038FA23
:10430000E1480090E14801900A21204622462B46D0
:10431000FCF7ABFF16A90322EA4800F0CDFF002806
:1043200000D177E1FE20DCE10124E7A02146FEF781
:1043300053FBFCF7B3FE2646149B2046E64909686A
:1043400019420CD139681691169914213A68D20392
:10435000D2175118FAD1E049096819422CD0F1B2AC
:10436000012913D0002923D1DC49096809071FD48A
:1043700039681691169914213A68D203D217511848
:10438000FAD1D6490968090712D4E4E0D34909688B
:1043900009070DD439681691169914213A68D20389
:1043A000D2175118FAD1FC490968090700D428E14D
:1043B00000240028C1D004E0F0B24642464101206A
:1043C000089CF5490968C9070FD106980090D320C9
:1043D0000F214F220123FCF7B7FEF0B20128119400
:1043E00007D000280BD1DD2005E0002C0446A4D026
:1043F00035E00F980B300F21FA4AFCF71FFFEB480E
:104400000090E64801900521002420462246F6A3AC
:10441000FCF72BFFE5480090E04801900921204679
:104420002246FBA3FCF721FF0094DD480190D32036
:104430000D2110912246FA4BFCF717FF0094D84843
:1044400001900F98401C10992246F64BFCF70DFF87
:10445000FDF7BCF811980028149B00D16DE7FCF71C
:10446000CFFCFCF71BFE67E700252846FDF704F8A4
:10447000FCF788FEFDF7AAF8FDF702FB7D201094FB
:10448000C4002046FDF780FA00950F9A27321023CA
:1044900028462946FCF758FEFDF798F8FDF7F0FA94
:1044A0002046FDF771FAFCF76DFEFDF78FF8FDF77A
:1044B000E7FA2046109CFDF767FAFCF7F1FC0920AB
:1044C0001190149AFEF7EFFBB748049941600E99DA
:1044D000816000F049FEFCF7E3FC149A01240025FA
:1044E00003204EE1B0480D9AC2600E990161D64892
:1044F0000260D648016000F037FEFCF7D1FC149A48
:104500000124002504203CE1CE480D990180A648F5
:10451000818200F029FE01242002C94A11688143EA
:1045200011601068302188431060FCF7B9FC149AC0
:104530000025052025E19C4811998175C9B21020FC
:1045400000F091FD00F010FEFCF7AAFC149A012483
:104550000025062015E19348934E31461CC81CC126
:104560001CC81CC1AA20307000F0FEFD0698009007
:104570000F9A2732002405260B2320463146FCF7EC
:10458000E3FD8A4A0092854801902046314616464E
:10459000224687A3FCF769FE0096834E7F48019070
:1045A00009212046224686A3FCF75FFEFDF70EF8A0
:1045B0007078002820D0F9208849C8604868FA2817
:1045C00000D34C60B078FCF793FD844AD068400873
:1045D0005060106809990843106038681690169862
:1045E0000846F4303968C903C9170818FAD1012000
:1045F0000002116881431160FDF742FA7848FDF727
:10460000C3F9FCF74DFC149A012408201190614E67
:10461000FEF749FB16A8069A864D017851402246BE
:104620004B00090601D531214B40D9B2531C072A52
:104630001A46F5D3421C079B984210460A46ECD115
:1046400016A8807888424BD116A8017842780023BA
:104650001846EC5C032B07D80C4207D109E0C04692
:1046600026EE0008FC070808144202D04024DC4073
:1046700020435B1C072BECD133E0C0463400002004
:1046800086EC00085EE900083C8E000830940008C3
:1046900099EC000814E9000873EC00080058014088
:1046A000FF0F00004D4355E4BFA1E681AF2020205D
:1046B0003A203078253033582C2030782530345843
:1046C000000000002DF30000E681A2E5A48DE8AE15
:1046D000BEE7BDAE00000000100000501004005006
:1046E000FF20C3B2504804460999534A02F040F8EB
:1046F0004F4800904D4801900C21002528462A463D
:104700002346FCF7B2FD0E24204600F08FFC1190EA
:104710000F2000F08BFC0646102000F087FC00966E
:104720000190414E30460999444A119B02F020F80D
:104730003F4800903D480190284621462A4633468E
:10474000FCF793FDFCF742FFFDF79AF9149A114E1E
:10475000109C306810420BD13868169016981420BF
:104760003968C903C9170818FAD13068104204D053
:104770003220FDF709F9149AEBE7FCF791FB149A44
:1047800007201190FEF78FFA00F0EEFCFEF720FEF6
:1047900017B0F0BD1000005010040050E09B00085E
:1047A00064960008987800081C000020B97800087A
:1047B000E681A2E5A48DE5AE8CE6889000000000BD
:1047C000E4B889E7A792E5908EE8BF94E59B9EE464
:1047D000B8BBE88F9CE58D950000000020000040EC
:1047E000B80B000057BF0008E6B885E999A4E69524
:1047F000B0E68DAEE5B9B6E681A2E5A48DE588B058
:10480000E5889DE5A78BE8AEBEE7BDAE00000000E1
:10481000E7BBA7E7BBADE59097EFBC9F00000000AA
:10482000D2ED000880ED000834000020309400082C
:104830003C8E00089078000849EA000824EA000845
:104840002000014042010020340100200800002027
:10485000F0B59FB031A000211391FEF7BDF8FCF731
:104860001DFC1AA800F07AFB0F20049000F0DEFB7C
:1048700040B2002803D41AA84079002805D12B485B
:104880001AA90CC80CC1007808701AA8811D0C91D7
:10489000411D0B91011D0A91C11C0791C11D06917B
:1048A000014608310591811C0891401C0990FF20A8
:1048B0000E901C300F90012001021591C10316913A
:1048C0001B4C1C4F1C4E0D901990139818901B48B0
:1048D0000068169908420DD120681D901D9814207B
:1048E0002168C903C9170818FAD114480068169935
:1048F000084228D01898C0B20022112800D9CFE071
:1049000078440079400087441B51565A5E62676BB9
:1049100071767C868A8F9398A2B6C046E697B6E9F0
:1049200097B4E8AEBEE7BDAE00000000B078000866
:1049300010E000E034000020B978000810000050BA
:104940000221012234E01899C8B20022112802D3B2
:104950001546114601E01546491C09224A401AA88D
:10496000007A0243D2B253425341C918189101212F
:1049700019911399002900D1CCE01AA909783C2992
:1049800002D31AA93B220A701AA949783C2902D3FA
:104990001AA93B224A701AA98978002800D182E01E
:1049A0000D2900D288E01AA80C2189E001210922F2
:1049B00000230C98B4E0092200210C9840E001216A
:1049C00000230B9825E0092200210B9838E00121F3
:1049D000032200230A98A3E0092200210A982FE06D
:1049E00000210722012307980D469AE001220021A9
:1049F0000598139202E00122002106980D460B460D
:104A00008FE01AA8007A0121002800D185E0002358
:104A100008980A4684E009220021089810E0012144
:104A20000522002309987BE009220021099807E06C
:104A30001AA801210522002372E01AA809220021E8
:104A40000D460B46FCF7A6FA012113916BE0E948ED
:104A50000068000724D420681D901D981420216848
:104A6000C903C9170818FAD1E2480068000717D42B
:104A70000020022512E0DF480068000710D42068FB
:104A80001D901D9814202168C903C9170818FAD170
:104A9000D8480068000703D400200125199042E09F
:104AA000154610463FE0182902D31AA81721817035
:104AB0001AA80021C17104E0002902D11AA801211D
:104AC00081701AA8C078072801D9072002E00028C1
:104AD00002D101201AA9C8701AA800791F2801D98B
:104AE0001F2002E0002802D101201AA908711AA88B
:104AF00040790C2801D90C2002E0002802D10120C5
:104B00001AA948711AA88079C008192802D31AA8CE
:104B1000C72181710D9A139510E002220023089895
:104B20001D46FCF737FA411E02468A41002801D192
:104B3000199800E001201990000639D0AD480068AE
:104B4000C00700D0BBE0179214951AACA379607926
:104B50002179E27800AD07C538461599A8A201F081
:104B600007FE0096AE4D0195072004210522129004
:104B70003B46FCF77AFB207A00281CD03846AAA1D5
:104B80001CC91CC01CC91CC00A880280897881709D
:104B9000009601950520082100223B46FCF765FBA5
:104BA0001AA8C079072200281CD03846A5A11BE00E
:104BB0000020199083E0A7A039461CC81CC11CC85E
:104BC0001CC102880A8080788870009601950524AF
:104BD0000821002220463B46FCF747FB3846A44903
:104BE000224601E0384699A1FBF78EFD0022009293
:104BF000019505240C262046314619923B46FCF7C8
:104C000034FB1AA8837841780078009101903846E7
:104C1000159998A201F0ACFD8248009001953A20C8
:104C2000314622463B46FCF720FB1898C0B20228CA
:104C300003D81121414318310BE0042803D8112176
:104C40004143353105E0062800D9A8E01121414350
:104C500052311191129810900E9F0097052607214E
:104C6000012430460F9D2A462346FCF76DFA009733
:104C70000B2130462A462346FCF766FA00970F219F
:104C800030462A462346FCF75FFAFE201899084072
:104C9000102802D108460F3807E0119880B2109909
:104CA000C9B2784AFCF7CAFA1998534C5D4EC0B2A3
:104CB000FDF74AFFFCF78AFC504F149D179A022D0E
:104CC00064D117921DAC1A9820701B9820711AA8F5
:104CD000417861708178A170417961718179A171A8
:104CE000C078C01D0721FBF703FA481CE0700026BE
:104CF000062E0AD11DA88079642806D364381DA920
:104D000088714879802202434A711DAFBC5D0A2137
:104D10002046FBF7EDF90921C94341436118000121
:104D20000843B855761C072EE2D11AA8007A00284D
:104D30000DD01DA98A781F201040024640328A708B
:104D40001AA9C979002902D060301DA988700720EE
:104D50001DA900F0A5F90028284F14D10E263046D1
:104D600000F064F901467F242140304600F07BF9D1
:104D7000002808D10F26304600F058F9044030468C
:104D8000214600F070F91C4C264E179A002A03D0D9
:104D9000FCF736F8FCF782F9002D26D197E50928B3
:104DA00007D0082808D007280AD10F98C01F1190F3
:104DB00050E71720119016E0842011900B204AE74D
:104DC0000B2803D81121414370390BE00D2803D87B
:104DD000112141435F3905E00F2800D93CE711213B
:104DE00041434E391191049835E7FCF759F81FB04B
:104DF000F0BDC0461004005010E000E03400002078
:104E00003225303364E5B9B425303264E69C882518
:104E1000303264E697A520E591A8256400000000E3
:104E2000E09B0008B9780008E697B6E997B4E6A0D9
:104E3000BCE5BC8FEFBC9A3132E5B08FE697B6E5A2
:104E400088B60000E4B88BE58D880000E4B88AE5F8
:104E50008D880000E697B6E997B4E6A0BCE5BC8F64
:104E6000EFBC9A3234E5B08FE697B6E588B600001D
:104E7000D9E80008253032643A253032643A2530CA
:104E80003264000057BF00087047704781B0104877
:104E9000042101600F494020086008220A601022A6
:104EA0000A60694664220A800A880988002A06D0B6
:104EB000491E6A46118013881188002BF8D10649D3
:104EC0000A68520602D40A6802430A6001B07047B9
:104ED00028040050180000500030014080B51849E7
:104EE000C8680007820F17487A4412795200974425
:104EF0000108250D0120000449680904490F884074
:104F000080BD0868C00609D5104880BDCA68D203B4
:104F100007D40868C00603D50C4802E00A4880BDE3
:104F20000948CA689202120F09A39A5C4243C868F2
:104F30000002800F411C1046FBF7DAF880BDC04626
:104F40000010024000127A000024F40000093D0025
:104F5000030406080C1018203000000070B5044649
:104F6000D02000210122FCF765FB00280DD100268E
:104F70003046FCF707FC002807D1D0200125072286
:104F80002946FCF757FB002804D009212046FBF7EF
:104F9000D4FB70BDFCF734FBA055761C072EF9D16D
:104FA000FCF7C0FB002001467F220A40022A05D000
:104FB000052A0CD12256002A14D520E0225C520684
:104FC00007D40022E2712272235C3F2208E0225CB7
:104FD00008E02572225C9206D20FE271235C1F2248
:104FE0001A4022540F231340D2B212090A26564304
:104FF000F2182254491C401C0728D5D10EE00F217D
:10500000D3060A40DB0F0A256B439A182254A07975
:1050100001400009684308186430A071E0780C3042
:105020000721FBF765F8481CE07070BDB0B5054678
:10503000D020002401222146FCF7FCFA002810D1E0
:105040002846FCF79FFB00280BD1D02001210A46FF
:10505000FCF7F0FA002804D1FCF7D2FA0446FCF77A
:1050600061FB2046B0BDF0B581B00E460746D020AA
:10507000002402222146FCF7DDFA012500280CD18C
:105080003846FCF77FFB002807D13046FCF77AFB57
:10509000002802D1FCF746FB2546284601B0F0BDAA
:1050A000F0B581B00C460546401CC2B2D0200021AC
:1050B000FCF7C0FA0127002813D100263046FCF780
:1050C00061FB00280DD102E0641C6D1E06D0207823
:1050D000FCF758FB0028F7D0012700E03746FCF723
:1050E00021FB384601B0F0BD70B581B0404A13686D
:1050F0000093009B7D23DB00104C002913D01D463C
:105100002668360605D41668F603F6177519F7D122
:1051100011E0402565600578E56015680095009D03
:10512000491E401CE9E72068400604D41068C0030B
:10513000C017C318F7D101B070BDC0461C3801407C
:1051400080B5017800290AD0421C0021491CC9B24F
:105150001378002B04D0521CFF29F7D100E0002166
:10516000FFF7C2FF80BD7047F0B583B07D20C0005F
:10517000009000211D4AE64B1E4C1F4D0E46264353
:1051800030786F5CB84221D018680190019800987F
:105190005569ED0705D01D68ED03ED172818F7D107
:1051A00013E01068C00703D0144890601448906062
:1051B000377018680290029800985569ED0709D079
:1051C0001D68ED03ED172818F7D10B4D491C182960
:1051D000D4D109E010680125054315601068C007A7
:1051E000054DF3D03078F1E703B0F0BD0420024064
:1051F00010E000E0000008081C000020EFCDAB89A3
:1052000005040302F0B581B000920A460546093252
:105210000C211046FAF76CFF0E460A27084639465D
:10522000FAF766FF0446992040007043401D394656
:10523000FAF75EFF00990818291B8CB2A1084018E4
:10524000FF216E316143451864212046FAF750FF73
:105250002D1A192001012046FAF74AFF2818401E8E
:10526000C11701B0F0BD7047012002020E490B6862
:1052700013430B60CA680D4B1340CB600A680C4B9C
:1052800013400B608A6882438A6082040B689343F0
:105290000B60FD221204CB689343CB6000220A61AD
:1052A000C006044908607047001002400C40FF88A7
:1052B000F6FFF6FE08ED00E0F0B581B014460D46AD
:1052C0000746882000210222FCF7B4F901260028B5
:1052D0001CD1380AFCF756FA002817D1F8B2FCF7AF
:1052E00051FA002812D18820012631462246FCF7C7
:1052F000A1F900280AD1FCF783F928706D1C641EFF
:10530000F9D1FCF70FFA0646401E8641304601B03F
:10531000F0BD000070B584B014460D46064613A0DB
:10532000FFF70EFF15A0FFF70BFF17A0FFF708FF11
:105330001AA0FFF705FF3046FFF702FF1AA0FFF79C
:10534000FFFE01AE0B211BA230462B4601F010FAE6
:105350003046FFF7F5FE18A0FFF7F2FE2046FFF7F4
:10536000EFFE18A0FFF7ECFE04B070BD0D0A2A2A6C
:105370004445425547205052494E54000D0A464973
:105380004C4520203A2000002E2E2F5372632F55BB
:105390005345522F66756E632E6300000D0A465505
:1053A0004E4320203A2000000D0A4C494E45202053
:1053B0003A200000256400000D0A494E464F202087
:1053C0003A2000000D0A0D0A0000000070B584B0FC
:1053D0003E4D0821296101A9087040262E6103A8CD
:1053E0000124048001880088002906D0401E03A9FA
:1053F00008800A880888002AF8D101A8214601F00F
:1054000083F902A8048001880088002906D0401E84
:1054100002A908800A880888002AF8D12E6004B002
:1054200070BDC04670B584B0284D0821296001A91F
:10543000087040262E6103A801240480018800889A
:10544000002906D0401E03A908800A880888002A7F
:10545000F8D101A8214601F057F902A8048001887B
:105460000088002906D0401E02A908800A88088802
:10547000002AF8D12E6004B070BDC046F0B583B0EC
:10548000124C082222604025256102AA01261680BE
:1054900013881288002B06D0521E02AB1A801F8878
:1054A0001A88002FF8D101F02FF901A80680018891
:1054B0000088002906D0401E01A908800A880888B3
:1054C000002AF8D1256003B0F0BDC0461800005096
:1054D00082B001A80A21018001880088002906D035
:1054E000401E01A908800A880888002AF8D163486C
:1054F0000168009100990749074A1368DB0705D046
:105500000368DB03DB17C9180B04F6D102B0704740
:1055100010E000E01027000010040050F0B587B044
:10552000514C216820680127B8432060394004911C
:105530000A202168C90701D0401EFAD178054B49DD
:105540000A6802430A600A6882430A6048480168A0
:10555000484A1140BB03C9180160416880263143A5
:105560004160C1681140C918C1600168424B1940CF
:105570003D03491901604168402211434160C168FF
:1055800019404919C16001968661826106A96426A5
:105590000E800B880988002B06D0491E06AB1980A7
:1055A0001D881988002DF8D100200390C043029077
:1055B0002F48016909062BD40097304B19680591D3
:1055C00005997D21CF00002F25D0196828488262D7
:1055D00006AD2E80C9032C882D88002C03D06C1EAC
:1055E00006AD2C80F7E7C9172148826106AC2680FA
:1055F00020882588002803D0681E06AC2080F7E7A5
:10560000CF191B4800690006DDD5039D029E04E00A
:10561000039D029E1AE0039D2E461548019A826260
:10562000186806900698009F39460F4C1868C0030A
:10563000C0174118FAD10E48826118680690069882
:1056400001201968C903C9170818FAD1FDF75AF9DA
:105650000498002802D0206838432060E843301ABC
:10566000411E884107B0F0BD0054004028100240A0
:1056700000040050FF3FFFFFFFCFFFFF10E000E0FE
:1056800070B5194C2168C90703D1216801220A436A
:105690002260FBF7D3F9154A154BFAF789FE002271
:1056A000144BFAF76BFDFBF715FAA26812490A4092
:1056B0000243A2602246083A1368022003431360A3
:1056C00001225307EC4D2E681E432E6052030B4BF4
:1056D0001A60FF310A4A13680B40136021680143C6
:1056E00004208143216070BD107C0040D0BAC114F9
:1056F000F9ACDB3F0000E03F0000FFFF00E100E00D
:105700000CE400E000B59FB0104D686B012420430D
:105710006863686B2040189018982107A86B0843AD
:10572000A863A86B0491084018901898084A9069DB
:1057300020210E9108431021109188439061054863
:10574000001F0168A143016006E0C046001002404E
:1057500008000140042002400168C907FCD103236E
:10576000D802054A11688143E002129008181060BF
:1057700028682043286001E0007000402868400746
:10578000FCD51F200002696881432003139008188C
:105790006860286D20432865286D8007FCD5E8687F
:1057A000802107910843702102918843E860072215
:1057B0001002E9688143E9600D92D002E9688143F3
:1057C000E960E8682043022114918843E860E868B2
:1057D0000C2101400429FAD1A049A14848600026C3
:1057E0008E6005200860DA430C92E96C1140E96490
:1057F000E96C9C4A1140E9649904EA6C8A43A1046B
:105800000A915118E9641D961C961B961A96E96A2E
:1058100004273943E962E96A394011971E911E99BC
:10582000E96A2143E962E96A21401E911E99E96A09
:10583000149A1143E962E96A11401E911E99010709
:10584000159108258D620F95109888624020089068
:1058500088621398886284480E9A826222020B92B0
:10586000826287618A61129888611C961993A003ED
:105870000590189016937D4F179418AC3846214622
:10588000FBF7A2FF1C96169819901798C003039077
:10589000189038462146FBF797FF1C961B961698E2
:1058A0001A90179819901895159F38462146FBF7BE
:1058B0008BFF1C961B961A961798199010981890A3
:1058C00038462146FBF780FF1C961B96169D1A95BD
:1058D000179819900898189038462146FBF774FFDE
:1058E0001C961995149818905F4F38462146FBF77F
:1058F0006BFF1C961B961A96179819901198189082
:1059000038462146FBF760FF1C961B961A9617989F
:1059100019900B981890159D28462146FBF754FFC7
:105920001C961B961A96179819901298189028464C
:105930002146FBF749FF1C961B961A96179819905B
:105940001398189028462146FBF73EFF1C9619969F
:105950000398189028462146FBF736FF1C961996A7
:105960000F98189038462146FBF72EFF1C96199683
:105970001098189038462146FBF726FF1C961B9678
:105980001A96179819900E98189038462146FBF7EA
:105990001BFF1C961B961A96179819900B98189037
:1059A00038462146179DFBF70FFF314A1068284300
:1059B0000E2188431060F968149C2E4B2143E84364
:1059C0000140F96039680C9A114039602A494A68E7
:1059D00002404A600A682A430A608A6802408A6074
:1059E000C8682843C8601D961C961B960C961A968C
:1059F0006902586B08435863586B099108401E9020
:105A00001E98D86A2843D862D86A28401E901698F3
:105A10001990264618941E9818A91598FBF7D4FEDD
:105A2000164B986A20439862986A0A9908439862CC
:105A3000134C206813490840EA050692801820603C
:105A400068049A6A02439A6220680840A905019195
:105A5000401820609868C0071AD115E010E000E0F7
:105A60003F1F0000FFCFFFFF000400500008005060
:105A700008000140001002400004014000240140E1
:105A800008270140FFFF3FFFD868E0490140D96087
:105A900058690D99084358611869A843186111980D
:105AA000C043D9680140D960690622688A432260F0
:105AB00059680140596058680F9988435860986840
:105AC000D3490840049908439860AA079868C0071A
:105AD000169F08D1D868CF490140D960B807196925
