:020000040800F2
:1000000000040020D5000008150300085501000871
:1000100000000000000000000000000000000000E0
:10002000000000000000000000000000990300082C
:100030000000000000000000170300089B030008F8
:10004000E7000008E7000008E7000008E7000008F4
:10005000E700000841010008E7000008E700000889
:1000600000000000E7000008E7000008E7000008C3
:10007000E7000008E700000800000000E7000008B3
:1000800000000000E7000008000000000000000081
:10009000E700000800000000E7000008E700000893
:1000A000E7000008E7000008E7000008E700000894
:1000B000E7000008E7000008000000000000000062
:1000C0000348854600F014F8004800477D05000805
:1000D000000400200448804704480047FEE7FEE78C
:1000E000FEE7FEE7FEE7FEE79D030008C10000080B
:1000F000064C0125064E05E0E36807CC2B430C3C7B
:1001000098471034B442F7D3FFF7DEFFBC0E000867
:10011000CC0E000830B50B460146002020220124F9
:1001200009E00D46D5409D4205D31D469540491B2B
:100130002546954040191546521E002DF1DC30BD74
:1001400003480168C90701D0012101607047C0461A
:100150001404014082B0084D08A4204600F046F97E
:100160002868019001987D20C0002968C903C9173B
:100170000818FAD1F1E7C04610E000E0494E2048E7
:10018000415244204641554C54210000F0B584B002
:100190000C68002C55D00123019303915A1E019F36
:1001A0009740274048D04A68551E022D02943D468C
:1001B00015D27D4303998C686C4303266E43816896
:1001C000B143214381600399C9680092029A514367
:1001D00044689443009A0C434460039902E07D43D1
:1001E00003266E43F64309696943C46834400C43EF
:1001F000C460022A029C19D13C0A01D0242200E0EA
:10020000202203994F6902928258002C02D0644345
:10021000644301E02C466C430F2161438A436743EA
:1002200017430299475003990C684A68554301687F
:1002300031402943016003992246DA405B1C002AC1
:10024000ACD104B0F0BD0000F0B587B02D4908680E
:100250000224204308600868204006900127059783
:100260000497039703260296019440200090069875
:10027000BF486D462946FFF789FF0597049701A8F7
:10028000D0C080200090BA482946FFF77FFF78054C
:100290001C4AD1680143D160D1680140069106989B
:1002A0007906B14842680A434260C26816490A406A
:1002B000C260FA040368934303607A0403689343BB
:1002C00003600268BA4302601F221202036893436C
:1002D00003600E4A026102683A43026082680A4083
:1002E000826082680A4B1A40826032050468944337
:1002F000046042680A404260591CC2680A40C260F9
:1003000007B0F0BD2C100240FF7FFFFF0B02100072
:1003100000F8FFFF7047704780B51849C8680007AC
:10032000820F17487A441279520097440108250D2C
:100330000120000449680904490F884080BD08680D
:10034000C00609D5104880BDCA68D20307D4086822
:10035000C00603D50C4802E00A4880BD0948CA68B7
:100360009202120F09A39A5C4243C8680002800FF0
:10037000411C1046FFF7CEFE80BDC0460010024073
:1003800000127A000024F40000093D00030406086E
:100390000C10182030000000704770470120020246
:1003A0000E490B6813430B60CA680D4B1340CB60BA
:1003B0000A680C4B13400B608A6882438A6082048F
:1003C0000B6893430B60FD221204CB689343CB6010
:1003D00000220A61C006044908607047001002400C
:1003E0000C40FF88F6FFF6FE08ED00E010B502783D
:1003F0001649002A15D0431C0022521CD2B21C7888
:10040000002C0CD05B1CFF2AF7D108E00B681B0600
:10041000FCD540234B600378CB60521E401C002A61
:10042000F4D108684006FCD509A002220B681B061F
:10043000FCD540234B600378CB60521E401C002A41
:10044000F4D108684006FCD510BDC0461C380140F8
:100450000D0A0000F0B587B043490A6801208243C5
:100460000A6000220B68DB0703D0531C082A1A46D7
:10047000F8D941053D4A13680B43136013688B4359
:1004800013603B490A683B4B1A40840312190A6007
:100490004D68802215434D60CD681D402B19CB60FF
:1004A0000B68354C234005035B190B604E684023F5
:1004B0001E434E60CE6826407419CC6001928A615A
:1004C0008B6104ADC8242C802E882D88002E06D088
:1004D0006D1E04AE358037883588002FF8D10D6940
:1004E0002D0624D400258B6203AE348037883688ED
:1004F000002F06D0761E03AF3E803A883E88002A41
:10050000F8D18B6102AA148017881688002F06D0B4
:10051000721E02AE328032883688002AF8D10A690B
:10052000120606D46D1CFF2DDDD1012402E000244B
:1005300015E00024019D8D62E04B1A680592059A32
:100540001A68D203D2171018FAD18D611868069074
:10055000069801201968C903C9170818FAD1FFF7CE
:1005600073FE204607B0F0BD005400402810024042
:1005700000040050FF3FFFFFFFCFFFFF9DB0104B77
:10058000586B012420435863586B204016901698EE
:100590002107986B08439863986B03910840169065
:1005A0001698084A906920210E91084310210D9158
:1005B0008843906104480168A143016006E0C04699
:1005C0000010024008000140002002400168C907F5
:1005D000FCD10327F802054A11688143E0020C9020
:1005E0000818106018682043186001E0007000408F
:1005F00018684007FCD51F2000025968814320037A
:10060000099008185860D868802108910843702123
:1006100005918843D86007221002D9688143D960C8
:100620000792D002D9688143D960D868204302225A
:100630009043D860D8680C2101400429FAD19F4D1D
:100640009F4868600026AE60052129601397FF432C
:100650000297D86C3840D864D86C9A4F3840D86428
:100660001B961A9619961896D86A04273843D862AA
:10067000D86A384010971C901C98D86A2043D862DA
:10068000D86A20401C901C98D86A1043D862D86A57
:1006900010401C901C9804910807149008210F9199
:1006A00081620D9981624021019181620999816283
:1006B000854B0E99996221020B9199629F6181612C
:1006C0000C9981611A9613991791A00306901690C0
:1006D0007E4812920F4616A91191FFF757FD1A9600
:1006E0001797E003159016907848119F3946FFF749
:1006F0004DFD1A9619961398189017940F98169006
:1007000014983946FFF742FD1A96199618961794D1
:100710000D981690149F38461199FFF737FD1A96D9
:1007200019961398189017940198169038461199B5
:10073000FFF72CFD1A96139817901298169062489E
:10074000119F3946FFF722FD1A96199618961794AD
:10075000109816905C483946FFF718FD1A961996BE
:10076000189617940B981690149F38461199FFF716
:100770000DFD1A961996189617940C9816903846EF
:100780001199FFF703FD1A96199618961794099870
:10079000169038461199FFF7F9FC1A961796159896
:1007A00016903846119F3946FFF7F0FC1A961796B7
:1007B0000F98169044483946FFF7E8FC1A961796AA
:1007C0000D98169040483946FFF7E0FC1A961996A6
:1007D000189617940E9816903B483946FFF7D6FCAA
:1007E0001A961996189617940B981690364839460B
:1007F000129FFFF7CBFC3649086820430E22019276
:10080000904308603049C8682043B843C86008680E
:100810000A46029908401060E0432E4A51680140A0
:100820005160116821431160D1680140D160906826
:10083000204390602848BF3028490A6802400A6077
:1008400027480E9901601B961A9619960A961896D3
:100850006102244A506B08435063506B1191084069
:100860001C901C98D06A2043D062D06A20401C9013
:100870001398179016971C9816A91498FFF786FCE2
:100880001948416A39434162A104426A0A434262FB
:1008900016490A68164B1A40E605029692190A6034
:1008A0006604426A0096324342620A681A40A3050F
:1008B000D2180A604268D20720D11BE010E000E0A5
:1008C0003F1F0000FFCFFFFF000400500008005052
:1008D00008000140000401404000FFFF04E400E084
:1008E00000E100E00010024004240140082701401C
:1008F000FFFF3FFF8268F24B134083600269079B52
:100900001A430261C268A243C260109AD24383684C
:10091000134083600B68EB4E33400B60016811405D
:10092000016001680F9A914301604168E64A0A40FC
:1009300003990A434260A3074168C90709D1816846
:10094000E24A0A40826013998907C2688A431A43BF
:10095000C2600393FFF778FCDD4A506B09990843A6
:100960005063506B084016901698D06A2043D062AE
:10097000D06A20401C900A9F1B971A9719971398CA
:100980001890129817900E9816901C9816A9099115
:10099000149E3046FFF7FAFB1B971A971997139886
:1009A0001890129817900898169030460999FFF7FA
:1009B000EDFBC84801684906C74E08D40168C74A1C
:1009C0001140314301604168109A91434160C1690F
:1009D000C34A1140C16141680D9A91434160BC4ACC
:1009E000506B069908435063506B08401690169858
:1009F000D06A2043D062D06A20401C9010981B908F
:100A00000A9F1A971997139818901298179011988F
:100A100016901C9816A909911498FFF7B7FB109827
:100A20001B901A97199713981890129817903046A0
:100A3000F930169014980999FFF7A8FBF34F38681E
:100A4000C007E94B48D13868F24901400C313960A0
:100A50007868E94908407860B868ED490840B860AE
:100A6000D86C1399084009044018EB49884209D012
:100A7000EA4988420BD0EA49884211D1FFF74CFC81
:100A8000D94B1FE0186D8001159908401AE01868CD
:100A9000400721D51868C00600D4A3E1E24813E05E
:100AA000FFF73AFCD049C968CF4AD2689204520F86
:100AB000DEA39A5C0906090FDEA3595CCA4BC84045
:100AC000D040D24F002807D0E1210A028018490205
:100AD000FFF720FBC44BF8600920C002796881430E
:100AE0007960B8682A218843B86038682043386044
:100AF000986B20439863986B204016901698D148C5
:100B00009030039F396801403960F920F8620798F6
:100B1000B8627869204378610898C0433968014019
:100B20003960B968C84A0A40BA60F9690F9A114336
:100B3000F961396AC54A11403962396A7A68FB69D4
:100B40007A6060221A4313239A43FA617C22FA6383
:100B5000AF4A1140119A11433962F969109A9143D1
:100B6000F9617968059B99437960B9680140B9607A
:100B700017469D49C86A2043C862C86A20401C9035
:100B800012981B900A991A91199118911790169220
:100B90001C9816A91498FFF7F9FA994A1068049955
:100BA00088431060914A9069302188439061286899
:100BB00016901698C8202968C903C9170818FAD1D1
:100BC000149B1869159908420F9A0CD12868169041
:100BD000169801202968C903C9170818FAD118699D
:100BE00015990842F2D0804B186D00010DD4186D94
:100BF000000E00D1DCE07E49086810430860186DE3
:100C00000299084318659248A4E07949086810439E
:100C10000860186D02990843186592A0FFF7E6FB7B
:100C20000C98149B98620E987449886128681690F5
:100C300016982868C003C0170419FAD18C4A101FEF
:100C40000168C90704D1016801220A430260884A89
:100C500010686D49084010607A4A501C8449096840
:100C60000140D02008438249086081480068104054
:100C70007F4A106001242006116881431160FF2023
:100C800000041168814300980143116010685D49B8
:100C9000084010605749C131106808431060754F13
:100CA000781C516900281DD021401BD1401C51697E
:100CB000C906F6D590690D990843906118E0C046C1
:100CC0003CC2FEFFFFFFFFFDE8FFFF6FC73FFFFFD6
:100CD0000010024000300140070300004000FFFF09
:100CE000FFF7FFFF002803D1FFF7B4FB604A149B16
:100CF0000198506238465169401C01D02140FAD019
:100D0000002803D1FFF7A6FB594A149B1C20506210
:100D100038465169401C01D02140FAD0002803D147
:100D2000FFF798FB524A149B10680699084310601D
:100D3000159950697F1C01D00840FAD1002F02D1CB
:100D4000FFF788FB149B0E982C4988620C989861D9
:100D500049A0109FFFF74AFB254948683B4A1040CD
:100D6000486008683843086008680F9A10430860B4
:100D700048680B9A104348600868119A104308604D
:100D80000868129A104308604048016839430160BE
:100D900030BF3FA42046FFF729FB2868169016981D
:100DA0003046E1302968C903C9170818FAD1F1E7BC
:100DB0000F481346024640681168194311600A4BF8
:100DC000196D029A114319658007C017012800D1D7
:100DD00019E713990840032802D00228BCD11CE768
:100DE0001CA0B7E70F486FE6001002400800014062
:100DF000007000403F1F0000FFCFFFFF00040050C5
:100E000000040140FFFFFFFDFFF7FFFF0038014036
:100E1000FFFCFFFFF369FFEF030003000200030084
:100E2000010003000024F40000093D000000000060
:100E3000010203040000000000000000010203049E
:100E400006070809FFFBFFFFF8BFFFFFFFFEFFFFDC
:100E5000B60E000845584954205354414E44425957
:100E600000000000504F574552204F4E0000000038
:100E7000045400407F19A4FE4453313330322052D1
:100E80004553455420444F4E4500000010ED00E00E
:100E90006C6F6F702E2E2E0002E008C8121F08C162
:100EA000002AFAD170477047002001E001C1121FEB
:100EB000002AFBD17047524553455400CC0E000820
:0C0EC0000000002000040000A80E000844
:04000005080000C12E
:00000001FF
