:020000040800F2
:1000000048050020D5000008D54E0008E515000879
:1000100000000000000000000000000000000000E0
:100020000000000000000000000000003551000842
:100030000000000000000000D74E00083752000802
:10004000E7000008E7000008E7000008E7000008F4
:10005000E7000008E7000008E7000008E7000008E4
:1000600000000000E7000008E7000008E7000008C3
:10007000E7000008E700000800000000E7000008B3
:1000800000000000E7000008000000000000000081
:10009000E700000800000000E7000008E700000893
:1000A000E7000008E7000008E7000008E700000894
:1000B000E7000008E7000008000000000000000062
:1000C0000348854600F02AFA00480047A95700086F
:1000D000480500200448804704480047FEE7FEE743
:1000E000FEE7FEE7FEE7FEE739520008C100000820
:1000F00030B50B46014600202022012409E00D46C0
:10010000D5409D4205D31D469540491B2546954047
:1001100040191546521E002DF1DC30BDF0B51FB45C
:100120000646002082B005464024019100901BE065
:10013000019922460F46304600F012FA049A059BB8
:10014000801A994110D310461946224600F0F8F95A
:10015000361A8F410197224601200021009F00F0AE
:10016000EFF938184D4100902046641E0028DFDC6E
:10017000019B00982946324607B0F0BDF0B507460E
:100180000846584087B0C00F049048000E465900FA
:1001900040084908BC1A884105D2384631461E46F7
:1001A00017460B4602465800400810434CD0300D0D
:1001B000039040055900400D490D0590401A0290EA
:1001C000402872DA18030121000B09050843019049
:1001D00004980092002805D00199524200208841DD
:1001E00000920190029840210A1A0199009800F0AB
:1001F000A7F905460C466B4607CB00F0C2F9C019BB
:100200007141039A0E0D0023D71756401A467A40C3
:10021000164344D0049A002A2DD0029A012A039A48
:1002200015DC1205C01A914101263605001C7141EA
:10023000D20F059ED2070093019202962A462346CA
:1002400000F0BFF907B0F0BD38463146FAE71605B1
:10025000224A0F46B218C01AB74101210905001CF5
:100260004F4100187F41114618187941E20F1043A1
:100270006D19644113E0E2076D0815436408C20775
:100280001443039A01261205C01A91413605001C39
:100290007141CE07400830434908C01851412A46F1
:1002A000234600F081F9CDE7FFE7049801224000E2
:1002B000C117121A00238B4104983146C417381A0B
:1002C000A141EEE730B40124E407634030BC55E7B8
:1002D00030B40124E407614030BC4FE70000E0FF88
:1002E000F0B51FB488B00B990998002448400999CB
:1002F000C00F490049080991C0070B9900904900B7
:1003000049080B9109990898A64608431CD00B99F7
:100310000A98084318D0099801244000420D48006B
:10032000410D099824050003000B204309900B9808
:100330000003000B20430B9050181C49401800226A
:1003400001901446104605E0002001460DB0F0BDB6
:10035000032801DA034600E003239C46C11A0AAED3
:100360000AE05F0008ADED5B4F00F75B7D430027BF
:10037000AA187C41491C5B1E6145F2DD410004ABBB
:100380005A522104120C0A43240C401C0828DFDBBB
:10039000019802900099704601910090059B049A83
:1003A0000799069800F00DF9D0E700000DFCFFFF5B
:1003B000F0B50C465C4085B0E40FE40703944C00B4
:1003C00000266408590094464908024602962243D2
:1003D00021D062460A431ED06200570D4A000E0328
:1003E0002303550D012402462C492405781B1B0BC1
:1003F000360B401823432643614600901C46501A92
:10040000B44103D30098401C009002E09218009879
:100410005B41002803DA0020014605B0F0BD002052
:10042000012109050746864611E064461D46141B56
:10043000B54106D36546521BB341744607430C438E
:10044000A646CD0740084908284392185B41054657
:100450000D43EAD11046184313D060461946504068
:100460007140084306D06046101AB34106D20122FB
:10047000002306E000220123DB0702E00122D24331
:100480005310009874460105381C6141029C039D7D
:100490000019694100F088F8BFE70000FD03000083
:1004A00070B54B005B0803430BD04B005C0D00267E
:1004B00033466542B341D417AD1AA34102DB002095
:1004C000014670BD12053018514170BD0EB5C217FE
:1004D000C10F5040CA0740180021054B02930192FA
:1004E00000910A460B4600F06CF803B000BD000016
:1004F0003304000010B5002904DB0124E407404266
:100500008C412146002B04DB1C460123DB075242B1
:10051000A341994200D1904210BD0000064C012534
:10052000064E05E0E36807CC2B430C3C984710349B
:10053000B442F7D3FFF7C8FD18E9000838E900080E
:1005400010B5202A04DB0146203A9140002010BD5E
:10055000914020239C1A0346E3401943904010BD6C
:1005600010B5202A04DB0846203AD040002110BDF7
:100570000B46D340D0402024A21A9140084319468C
:1005800010BD10B5202A06DBCB170846203A1041D3
:10059000C1170B4306E00B461341D0402024A21A9A
:1005A00091400843194610BD10B5002B08DA00240D
:1005B000401C614192185B411A4301D14008400040
:1005C00010BDF0B51FB482B005460C0003D008463C
:1005D00005F002FF02E005F0FFFE20300246009029
:1005E00021462846FFF7ACFF049B059A04460F46B8
:1005F00018431143084314D0184610431BD00098E9
:1006000040210A1A18460599FFF7AAFF05460E462B
:10061000009A05990498FFF793FF084305D001203D
:1006200004E02046394607B0F0BD0020C11705435D
:100630000E432C43374300990E986305401A790501
:10064000E40A00220C43FD0A0A3002D500200146CC
:10065000E9E70105101969410C9C0D9D00196941DC
:10066000FFF7A2FFDFE7FEB500231A461B1A8A41F7
:1006700003DB0020014603B0F0BD4A000D03012159
:100680002D0B0905520D0D43D10702D100186D4104
:10069000521E5110FF31FF310131002704463E4602
:1006A0003846009701910246012100200905FFF715
:1006B00057FFC3197141F818324684468E464A41A5
:1006C00061462846611A904104D36046241A954138
:1006D00076461F46241900986D41401C009034282E
:1006E000E1DDF91930467041091BA84103D200220F
:1006F000D243134601E00022134601980105381C3D
:100700007141FFF751FFB6E703460B439B0703D048
:1007100009E008C9121F08C0042AFAD203E00B78C6
:100720000370401C491C521EF9D27047D2B201E03E
:100730000270401C491EFBD270470022F6E710B53C
:1007400013460A4604461946FFF7F0FF204610BD3F
:10075000F8B502464A40D40F42004B0052085B08ED
:100760009A4202D20246084611464A0023D0C30DDF
:100770004A00DDB2120EAD1A202D35DA49020126EB
:10078000490AF6058A19002C00D0524220214F1B3D
:100790001146B9402A411018C20D9A4221D0002CAE
:1007A00017D0012D08DCDA05801AD20F8019D20784
:1007B000DBB200F0E5F9F8BDDA05801A012340004C
:1007C0001B06C01880185A428018CA0F10434900EF
:1007D00007E04908C2071143DA05801A801940086A
:1007E000801800F0C5F9F8BD61000122511A001B04
:1007F000F7E70122D2075140AAE70122D207504071
:10080000A6E7024670B54A40D30FDB0740002DD063
:100810004A002AD0010E140E000212020919400AE1
:10082000520A8418E50104465443000A120A2E04B1
:100830005043A4194219200CC543AA18120C0125D3
:10084000AD03521C521912047F39240400D0521CEB
:10085000104301D44000491EC2B20C06C009201842
:10086000401C4008802A02D003E0002070BD4008F0
:100870004000002900DA0020184370BD70B5024620
:100880004A40D50F40004A00ED07400852080028B2
:1008900014D0002A12D0C40DD30D41020120C0058E
:1008A0005202490A520AE41A091812187D34914278
:1008B00001D3641C00E04900002C01DA002070BD67
:1008C0000023914201D3891A0343400849000028BC
:1008D000F7D100290AD0914202D10121C90705E0D0
:1008E000914201D2012101E00121C943E005C01874
:1008F000401900F03DF970BD0122D207002800DB4D
:10090000101A002900DB511A814201D801207047DA
:10091000002070470122D207002800DB101A0029AE
:1009200000DB511A814201D201207047002070473C
:100930000122D207002800DB101A002900DB511A1F
:10094000814201D301207047002070470122D20765
:10095000002800DB101A002900DB511A814201D95E
:10096000012070470020704710B5002904DB0C46B9
:100970000121C9074042A141002B04DB1C46012391
:10098000DB075242A341801A994101D3012010BDD7
:10099000002010BD10B5002904DB0C460121C90759
:1009A0004042A141002B04DB1C460123DB075242DD
:1009B000A341101A8B4101D2012010BD002010BDAF
:1009C00010B5002904DB0C460121C9074042A141B2
:1009D000002B04DB1C460123DB075242A341101A03
:1009E0008B4101D3012010BD002010BD10B500299E
:1009F00004DB0C460121C9074042A141002B04DB66
:100A00001C460123DB075242A341801A994101D2BF
:100A1000012010BD002010BDC217C10F504010B5FD
:100A20004018CA079623002100F0AAF810BD10B59F
:100A300000229623114600F0A3F810BD0EB505491B
:100A40000291002100910A460B460191FFF7B9FD82
:100A500003B000BD33040000C20F41004002012377
:100A6000400ADB05D207090EC0187F2901DA0020F1
:100A70007047962903DC9623591AC84001E096393D
:100A80008840002AF4D040427047000070B5CD0F76
:100A90004A0009030123090B1B0519430B4BED0702
:100AA0000024520D9A4201DA002070BD074B343306
:100AB0009A4203DC9A1AFFF753FD02E004495118E9
:100AC00088402C43F1D0404270BD0000FF0300007D
:100AD000CDFBFFFF4A0009030123090B1B05194346
:100AE000094B10B5520D9A4201DA002010BD064B99
:100AF00034339A4203DC9A1AFFF732FD10BD0349E2
:100B00005118884010BD0000FF030000CDFBFFFF1F
:100B1000C20FD207400040080BD0C10D0723DB01F4
:100B2000C91840020905400A1143C2084007114391
:100B30007047002001467047CB0FDB07490010B516
:100B4000490802460A4307D00A0D07240903E401B5
:100B5000090B121B002A01DC002010BDC900440F44
:100B60000C43C100E018D205801800F001F810BD58
:100B7000002904DA401C490001D1400840007047B8
:100B800070B40024050C05D11024000402D1002902
:100B900021D01124050E01D100020834050F01D126
:100BA0000001241D850F01D18000A41C002801DB59
:100BB0004000641C002908D020252E1B0D46F5405E
:100BC000A14000D001212943084301061B1B000A54
:100BD000DB1D02D5002070BC7047DB05181880189B
:100BE0000029F8DA401C4900F5D170BC40084000EB
:100BF00070470000B0B581B01B480168C90731D00B
:100C00007D21C900026852076A4BBC4A10D40468AF
:100C10001C4002232343036013680093009B036876
:100C2000DB0717D01368DB03DB175918F7D119E07E
:100C300004681C4010252543056014680094009C3E
:100C40000C460568ED06E2D51568ED03ED172C1985
:100C5000F7D107E00146083901220A600168034A1A
:100C60000A40026001B0B0BD08240140E8FFFF6FF8
:100C7000F0B587B00026134D009606A9284600F06F
:100C800027F800281AD106AF788804F0FBFB0E493C
:100C9000FFF7F4FD04463888FFF7C9FE01462046F9
:100CA000FFF7AFFD0949FFF7E9FD01A98851361D9E
:100CB000142EE2D101A804F09DFB00E0009807B0DB
:100CC000F0BDC046020002C400F07F4500007A4437
:100CD000F0B583B00246334B1C680120E4074DD0C9
:100CE000314C22409A62082200921A6004241C604F
:100CF00000252E4A2E4E37683F0705D46F1CADB233
:100D000095423D46F7D106E0ADB2954203D10022AF
:100D10004A800A8032E00190986820404242424175
:100D20007D20C0000027DF4ED20704D09A68214DF5
:100D30002A4022439A6032680292029A02461D6853
:100D40006D0705D43568ED03ED17AA18F7D114E047
:100D50001A6C194D2A407D004A531C609D6825403D
:100D60006A426A417F1C022FDED10446002D0198A1
:100D700006D100981860002000E0019803B0F0BD93
:100D800099680C4A114010220A439A603168029116
:100D900002999968C906ECD53168C903C9170C19BD
:100DA000F7D1EBE700240140FFFF0700FEFF000042
:100DB00004700040E8FFFF7FFF0F000010B582B015
:100DC0004B48417800291FD04A4CF921E160616805
:100DD000FA2901D300216160807800F065F9E068AC
:100DE0004008606001200002216801432160AD4994
:100DF0000A680192019A14220B68DB03DB179A1828
:100E0000FAD121688143216002B010BD10B582B0D3
:100E10003748417800291FD0364CF921E1606168DC
:100E2000FA2901D300216160807800F03DF9E06883
:100E30004008606001200002216801432160994957
:100E40000A680192019A05220B68DB03DB179A18E6
:100E5000FAD121688143216002B010BDB0B582B0E3
:100E600023484178002940D0224CF925E56061688B
:100E7000FA2901D300216160807800F015F91E483D
:100E8000E0606068C0087D2801D300206060E068F1
:100E9000400860600120010220680843206081480A
:100EA00002680192019A28220368DB03DB179A1873
:100EB000FAD12368234A13402360E5606368FA2B64
:100EC00001D300236360E3685B08636023680B431E
:100ED000236001680091009928210368DB03DB1778
:100EE0005918FAD120681040206002B0B0BDC04649
:100EF0001C00002020000040E703000010E000E09C
:100F000001210E480268D20503D40A020368134384
:100F10000360C9040A4A13680B43136013688B43C8
:100F20001360026807490A400260ED3106480A581A
:100F3000002A01D1091DFAD17047C0460070004057
:100F400050100240FFFEFFFF64280040F0B585B05E
:100F50001E4615460746524A1068000731D45148CC
:100F600003680393039B14230468E403E417E31862
:100F7000FAD11068000724D400960846FFF75EFDFA
:100F800002460B460020324905F030FD0295054629
:100F90000E4601973F783846FFF750FD2A46334604
:100FA000FFF706FAFFF796FD0A21FFF7A1F80C46B6
:100FB00028463146FFF78EFD02998C4237D2381809
:100FC00040E013680020DB063FD40295354B1C68D7
:100FD0000494049C14241D68ED03ED172C19FAD118
:100FE0001268D20631D40846FFF728FD02460B46A8
:100FF0000020174905F0FAFC054600960E460197B9
:101000003C782046FFF71AFD2A463346FFF7D0F911
:10101000FFF760FD0A21FFF76BF80F4628463146BF
:10102000FFF758FD00998F4207D9201A0AE0444380
:1010300000994143C819001B04E04743029941430A
:101040000819C01B01990870012005B0F0BDC04609
:1010500000002440B0B581B00120C0030F49104A00
:10106000104B0C680442FCD014682407F9D51468AE
:10107000E406F6D51C680094009C14241D68ED035A
:10108000ED172C19FAD10C680442EAD01468240731
:10109000E7D51468E406E4D501B0B0BD10000050F7
:1010A0001004005010E000E0F0B581B00B21FFF714
:1010B0001FF80C460F4F3868FFF7C0FC00250E4B99
:1010C0002A46FFF70DF90D4B2A46FFF771F9054641
:1010D0000E462046FFF7B2FC02460B46FFF700F92A
:1010E0002A463346FFF7FCF8FFF7F4FC386101B0FD
:1010F000F0BDC0462C0000400000E03F0000594019
:1011000070B51D46144600F001FA242004F0D6F90B
:101110006C43200409D0049D0026284604F0FAF907
:10112000A0B2761CB1B28142F7D32520C2000020C4
:101130001023014600F0EAF970BD000070B52520CB
:10114000C4000025102328462946224600F0DEF977
:10115000242004F0B3F9074EFF2004F0DBF9681CEB
:10116000B5420546F8D3002010230146224600F080
:10117000CDF970BD7F120000F0B587B007240B4693
:10118000059423405B1CDB0804935B1C0191C90898
:10119000029200F0BBF900273A460392022501981B
:1011A00039460C4606A90F70059908403946802239
:1011B000C24011436D1E2A0603D0401C0828F6D1F8
:1011C00000E03D46C84306AE3070242004F076F9B6
:1011D0000121304604F0CAF9611CE0B2049A904241
:1011E0003846DED3039A521C90B202998842D4D377
:1011F00007B0F0BDF0B581B01446127863789A1844
:10120000A378DD082B4600F081F966782778242042
:1012100004F054F9F1196943E01C04F0A7F901B096
:10122000F0BDF0B58DB00A920691059018780028AF
:1012300000D1E8E01C46139E129F391D0791F11D55
:101240000391002508960497010615D40B95002FED
:1012500025D03978401A7A78B97813464B43DE089E
:101260007043079D281809908019FB787343EB1889
:10127000984250D90B9D5EE0002E00D1BEE00CA933
:1012800000220A701146034693401B0632D5521CB9
:10129000491C052AF7D10CA805210170AAE0002EEF
:1012A0004ED020284CD105980B99081880B2B178FF
:1012B00072785608CF08069932463B4600F026F968
:1012C0007E430ED000250CAFFF203870242004F0A0
:1012D000F5F80121384604F049F96D1CE8B2864260
:1012E000F1D80B980A994018089E7178490845185A
:1012F000049F83E00CAA11707F220A40042A21D0A7
:10130000032A32D0022A75D16178002972D0641C78
:10131000C006420D35E005980B9D281880B2CB0819
:10132000069900F0F3F8242004F0C8F80998314633
:1013300004F01CF97A780A9828188518089E5DE050
:101340000B9D5BE06278002A54D0A378002B51D02B
:10135000E17800294ED0E41C4007C00A9206920BA7
:1013600010189A06120D82180BE06278002A41D0FC
:10137000A17800293ED0A41C0007000C9206120D93
:1013800012183F200840104334D0F178002931D0A2
:101390000B957378B278019300925343DA08029266
:1013A000D21C09920223DB43039EF55C2D04F21844
:1013B00057783F027D199278AA18824207D0099A7D
:1013C000B618491EF1D1089E049F0B9D12E00598A6
:1013D0000B9D281880B20099CB080699019A00F05D
:1013E00095F8242004F06AF83046029904F0BEF81B
:1013F000089E049F0A982818717845186078641C24
:10140000002800D020E70DB0F0BD80B5222004F008
:1014100055F8032004F07EF8202004F04FF800F087
:10142000BDF8102004F04AF8012004F073F880BDE4
:10143000B0B582B00446304910220A612F480368D3
:101440000093009B01230568ED03ED17EB18FAD11B
:101450000A6001680191019901210268D203D21743
:101460005118FAD1012C04D0122004F027F800F012
:1014700095F80125284604F021F8272004F04AF8C1
:10148000284604F047F8002004F044F80C2004F04B
:1014900015F8D72004F03EF8D62004F03BF89D2044
:1014A00004F038F8112004F009F8284604F032F866
:1014B0002C2004F003F89A2004F02CF83A2003F0D2
:1014C000FDFF1A2004F026F83B2003F0F7FF082068
:1014D00004F020F83C2003F0F1FF332004F01AF868
:1014E000322003F0EBFF60B2800005A108581E21F6
:1014F00004F03CF802B0B0BD1800005010E000E06D
:101500002ADD000848DD00080CDD0008F0B581B0D8
:101510001F4600920C460646442003F0CFFF2046AB
:1015200003F0F8FFE019411E1F20084003F0F2FF0E
:10153000452003F0C3FFFF202830851BEEB2304664
:1015400003F0E8FFE805C70F384603F0E3FF009813
:10155000281A451CE8B203F0DDFFE805C00F03F0D0
:10156000D9FF4E2003F0AAFF204603F0D3FF4F20FF
:1015700003F0A4FF304603F0CDFF384603F0CAFF66
:1015800001B0F0BD80B5222003F098FFC62003F023
:10159000C1FF202003F092FF80BD000082B001A8AF
:1015A0000A21018001880088002906D0401E01A977
:1015B00008800A880888002AF8D1814801680091CB
:1015C00000990649064A1368DB0705D00368DB0368
:1015D000DB17C9180B04F6D102B0704710270000C2
:1015E00010040050BFF34F8F034804490160BFF35C
:1015F0004F8F00BFFDE7C0460CED00E00400FA0588
:1016000080B582B06E480168019101997D21CA00C0
:101610006C490B685B0708D40368DB03DB179A1877
:10162000F7D103F0CDFF002000E0C868C0B202B0DF
:1016300080BDC046F0B583B001917D23DD00504BE5
:101640005C6924045E4E14D4009201221146D70234
:101650001C68BC431C60324A541C1F682740381861
:1016600018601868019F002F15D02A4618321043C1
:1016700012E034680294029C2C465F69FF07E3D1B4
:101680003768FF03FF173C19F7D103F099FF0028D3
:1016900041D1012440E0104018600C4608061A6849
:1016A00082431A60FF2000041A68824300980004F5
:1016B0001018186048061A6882431A6048031A68AE
:1016C00002431A60306802900298002F18D0002D53
:1016D0001DD05869400718D43068C003C017451999
:1016E0005869C006F3D59869102101439961032414
:1016F00012E03068C003C01745195869C006F2D41B
:10170000002D04D05869C007F3D0002404E003F092
:1017100057FF002800D00224204603B0F0BDC04689
:10172000FFFBFFFF10B582B02548016801910199C8
:101730007D21C900124A0B465469E40705D10468AB
:10174000E403E417E318F7D10FE001239B031468C7
:101750001C43146003680193019B53691B040CD55F
:101760000368DB03DB175918F7D103F029FF0028C2
:1017700001D0022002E0012000E0002002B010BDF4
:101780000454004010B582B00D490A680192019AD4
:101790007D22D3000B4A1468E4070AD10C68E403E5
:1017A000E417E318F7D103F00BFF002804D0022060
:1017B00003E01061002000E0012002B010BDC0462F
:1017C00010E000E018540040F0B584B00C68002C24
:1017D00055D00123019303915A1E019F9740274042
:1017E00048D04A68551E022D02943D4615D27D43CD
:1017F00003998C686C4303266E438168B14321438F
:1018000081600399C9680092029A514344689443E5
:10181000009A0C434460039902E07D4303266E4323
:10182000F64309696943C46834400C43C460022A22
:10183000029C19D13C0A01D0242200E02022039905
:101840004F6902928258002C02D06443644301E045
:101850002C466C430F2161438A4367431743029927
:10186000475003990C684A68554301683140294341
:10187000016003992246DA405B1C002AACD104B017
:10188000F0BD0000F0B587B072B62B4F786A0090BB
:101890002A4CA0680290E06801906569A669284812
:1018A000411C3A680A433A6039680140396003A82C
:1018B00000F04AF83046284333D003208004796A88
:1018C000204A11407962002D0FD0216901220A437C
:1018D00022616561039923680822491E01D01340E3
:1018E000F9D06368134363600391009D0540002EA7
:1018F00012D02069012101432161A66103A800F0F3
:1019000023F8039822681021401E01D00A40F9D024
:1019100062680A4362600390786A0A490840284373
:10192000786220690121884320610298A0600198B3
:10193000E06062B607B0F0BD28100240007C0040B5
:10194000FFFFFF7FFFFFF3FFB0B5044603F0ECFAA3
:1019500020608C490A681206120F094B9A5CD0402D
:1019600060600A685205520F064B9A5C0546D540E6
:10197000A56009688904490F595CC840E060B0BDA2
:10198000C2DE0008D2DE0008F0B581B072B60124D4
:101990002102754D6A688A436A60296804273943C1
:1019A00029607A4A20211160704B1A68A2431A609C
:1019B0005C616F4A116003F0B5FE60022968014363
:1019C0002960A1022A688A432A60E1036D4A1368EC
:1019D0000B4313602968214329600221CA432B6805
:1019E00013402B60684B1E683E431E6030BF2B685F
:1019F00083432B606003654B1860654B5D68154041
:101A00005D601A680A431A606107584A5161584973
:101A10000860FFF737FF62B601B0F0BD70B572B66F
:101A200051484168144A11404160036804210B4346
:101A30000360036808241C43046001231C024568FA
:101A4000254345609C040D4D2E68A6432E602C68EE
:101A50009C432C602C6814402C605A02036813438A
:101A600003600268022313430360474802680A4385
:101A7000026030BF70BDC046FFFEFFFF5010024045
:101A8000F0B585B072B601242002374E71688143EB
:101A9000716030680421039108433060E143049190
:101AA000324A1068084010605461314820270760AE
:101AB0001068204310602F480760FF2000022E4965
:101AC0000A6882430A602D4803F02CFE30680190BA
:101AD00030682B49084021034018306061020291B0
:101AE000306808433060A002336883433360E0030A
:101AF000244B1A6802431A60306820433060022386
:101B0000D8433268024032601F4A1168039D29435E
:101B100011600321C902019A114030BF3268184D8B
:101B20002A405118316019490F60104D2A680499F4
:101B30000A402A606C610E4A1760326802998A4333
:101B40003260620311490A6011494E6806404E60D6
:101B50000868184308606007686105480260FFF77D
:101B600091FE62B605B0F0BD007000400004014077
:101B700080E200E000E100E004E400E01027000063
:101B8000FFE7FFFF0C10024010ED00E080E100E0F5
:101B9000047C0040ADB00120119000020F9023485A
:101BA0000078411E224E022900D33EE1FFF7A8F93A
:101BB0000F2003F061FA1F4940B2002803D40878CF
:101BC000AA2800D1C8E103F087F90121CD031A4802
:101BD00000681A4F002800D097E119A000240E4693
:101BE000214600F03FFEFFF735FA10940E940D9653
:101BF000184B30460E4E316829420CD13968149189
:101C0000149914213A68D203D2175118FAD13168C5
:101C1000294200D182E0E1B2032900D97AE0C0462E
:101C20007944097949008F44173655651100002021
:101C3000100000501C000020FC07080810E000E025
:101C4000E7A1ACE4BBB6E78988E69CACE8AEBEE7AA
:101C5000BDAE000010040050196809070BD43968A4
:101C60001491149914213A68D203D2175118FAD159
:101C70001968090758D51968C9064BD439681491F1
:101C8000149914213A68D203D2175118FAD119685D
:101C9000C9063FD458E0196809070BD43968149174
:101CA000149914213A68D203D2175118FAD119683D
:101CB000090741D51968C9062CD4396814911499BB
:101CC00014213A68D203D2175118FAD11968C906FB
:101CD00020D440E0196809071CD43968149114997C
:101CE00014213A68D203D2175118FAD1196809079A
:101CF00010D4D2E0196809070CD4396814911499EA
:101D000014213A68D203D2175118FAD11968090779
:101D100000D4F8E0002600282DD16AE7E0B20328BD
:101D20000D9E21D2641C20E00E99C8B2092801D270
:101D3000491C0E910D9E17E01099C8B2092801D2D6
:101D4000491C10910D9E14E00E99C8B200280D9EFA
:101D500008D10E9008E01099C8B200280D9E06D157
:101D6000109006E0491E0E910024012003E0491E58
:101D70001091012004461968C9073CD112961098A9
:101D8000C0B200900E98C3B21394DB480F99DBA247
:101D900004F006FBDF480090DF4C0194042100268C
:101DA00030463246D44BFFF73CFADA4800900194B3
:101DB000082130463246D9A3FFF733FAD5480090C0
:101DC0000194139C0C2130463246DDA3FFF729FA1B
:101DD000FF2000908420072124220123FFF790F99F
:101DE000E0B2811E02290AD301280AD00028304619
:101DF0000DD1842006E0002E064611D1F8E6601EC3
:101E000005E09C200721D34AFFF7F4F93046C0B221
:101E100000F00EFEFFF7B6FB1298002800D1E7E6AF
:101E2000FEF7CCFFFFF716F9E2E6032800D093E0B7
:101E30000F2003F021F98007C74B1FD41868000753
:101E40000CD4C64801681491149914210268D20375
:101E5000D2175118FAD11868000719D51868C006AA
:101E600016D4BE4801681491149914210268D20353
:101E7000D2175118FAD11868C00609D40F25284680
:101E800003F0FAF8FD210140284603F012F963E05F
:101E900003F022F800F022FE5EE0386814900E98FD
:101EA000C0B21099C9B209044018AD49421814983B
:101EB0007D20C100AB480B464469E40705D03C686F
:101EC000E403E417E318F7D11DE00368DB0703D050
:101ED000A54B8360A54B8360A54B1A603A681492AA
:101EE000149A4269D20705D03A68D203D217511822
:101EF000F7D108E0016801220A4302600068C007C8
:101F000001D09B480068FEF7A9FF9AA0022100F0CB
:101F1000A9FCFFF79FF8002004219A4AFFF76AF90D
:101F2000FFF730FBFFF7ACFD30682842FCD1386882
:101F30001490149814203968C903C9170818FAD1E5
:101F400030682842F0D1FEF789FF02F0A5FCAA20F4
:101F50008D49087003F0F0F802F0BEFF8B4803F0E3
:101F600023F8002630460B30C5B2284603F084F82B
:101F7000014680242143284603F09BF8761C032E5B
:101F8000F0D10E27384603F077F80146022013906F
:101F90000143384603F08DF80F25284603F06CF80E
:101FA0000146FD200B900140284603F082F8384698
:101FB00003F062F80146FE263140384603F079F816
:101FC000284603F059F806402846314603F071F8D8
:101FD000384603F051F80146042631430A97384643
:101FE00003F067F86A4803F04FF91398FFF720FAF7
:101FF000FFF7A4F8674800681090FEF789FD0546D2
:102000000F46654A654BFEF7C5FC002807D1644AB8
:10201000644B28463946FEF7A7FC002802D1FEF79C
:1020200027FE1090584880681099FEF765FC1199BA
:10203000CD020F03890700280E950D970C9100D053
:10204000BEE00A2003F018F8AA280ED00020564A55
:102050000146FFF7CFF8FFF795FAFFF711FDFFF7FD
:10206000D4F90A20AA2103F024F80E25284603F00B
:1020700003F801460B9C2140284603F01AF80F256F
:10208000284602F0F9FF04402846214603F011F8E3
:10209000464A106840060F9F03D5106840218843C8
:1020A00010601020424CA0610820A0614020A06177
:1020B000294DAE60FEF79EFD0C9A106A3D4908401E
:1020C000106211680120814311603B4A1168C90701
:1020D00002D01168814311602020A8610D98A06191
:1020E0000E98A060354DA7613220FFF74DFCA76028
:1020F0002846FFF749FCF6E734000020E7A1ACE4EE
:10210000BBB6E78988E69CACEFBC9A5625642E25C1
:1021100064000000E17400084E9800085BE6B3A874
:10212000E6848FEFBC9AE8AEBEE7BDAEE4BF9DE5A6
:10213000AD98E5908EE4B88DE4BC9AE5868D0000FC
:10214000E698BEE7A4BAE6ADA4E88F9CE58D955D60
:1021500000000000C5BB00081004005010E000E0C3
:10216000302E300004200240EFCDAB89050403027D
:10217000FC070808E6ACA2E8BF8EE4BDBFE794A860
:102180000000000029CF00081C00002038010020BA
:1021900014000020502800409A9999999999B93FC4
:1021A000CDCCCCCCCCCC0C40A6BC0008003001403F
:1021B00010000050FFFEFFFF005400408813000095
:1021C0000A200021139102F074FF7D26E74B597914
:1021D000481EC0B20B280B960CD81A79501EC0B2FC
:1021E0001E2807D830019B791818E14BC318C82B5B
:1021F00000D2D4E0DF4800210170DF480170DF48E1
:1022000001701398DE4D2F6869681191FF260396BF
:102210000836089621361C2132460546FEF7ACFFEB
:10222000682128463246FEF7A7FFD52043214C22DD
:10223000FEF7A2FFCA200421022208230A91099373
:10224000FFF764F93846FEF763FCCE4ACE4F3B46B3
:10225000FDF794FFFEF770FC0646FEF7FDFB0590C8
:10226000FEF7DAFB01463046FEF7C3FAC749FEF730
:10227000C8FA0790119D28461399FEF74BFB0646B6
:102280002846FEF745FC02460B46002E129400D06D
:10229000BF4FBC48BD4C3946FDF770FFFEF74CFC04
:1022A0000646FEF7D9FB0490FEF7B6FB0146304622
:1022B000FEF79FFA2146FEF7A4FA0690139B1846F4
:1022C00011900720382519460E4614A90B7019469F
:1022D000129C2246C24011436D1E2A0603D0401CA8
:1022E0000828F6D100E01D46C84314AF38702420FA
:1022F00003F0E4F801243846214603F037F9139B34
:10230000711C072E1846DFD31199481C0029D7D01D
:10231000F048456828461099FEF718FB07460698CE
:10232000FEF79AFB11900798FEF796FB0646002FE2
:1023300012900CD1F6482946FEF75BFA0746FEF7E5
:10234000E7FBF44AF44BFEF73BFB002802D10021E7
:10235000F54A92E01397EE49109F3846FEF7E8FAE7
:10236000002867D138462946FEF743FA0546EB496F
:102370001398FEF783FA01462846FEF77FFAFEF728
:10238000C7FB0022E64BFDF7F9FEFEF77FFB0028B6
:10239000D94E51D0142800D3142004464CE0DD1C43
:1023A000AF00D64EF659099646024F013743174300
:1023B000099EBE4200D99D1CAD00D04B5F5902F072
:1023C00009FF06461F223A40F802000DF905090FE1
:1023D00002F000FF301A431CC9494859C1030A0FD3
:1023E0000D25119E31466D1EAE400640EE40012E79
:1023F00001D01D2600E01E269FB2BE4205D29B1BC7
:10240000491C002D119EEED10A99BE48139D0570FE
:10241000002A08D0CDB2AA4205D2521CAA4201D14C
:1024200001220270491E1398AF4DB74A1370B74A84
:102430001170E8E61424B04E14ADBA496322284660
:10244000FEF762F9563500211391039F7219D35D8F
:1024500030462646F8241C40D4556B1E139C1C7035
:102460002B781F241C402C7034460646FE32491C33
:10247000A1421546EAD3002114AA0898FEF7BAFE35
:102480000F9F984CA379E0786179227901920091AD
:102490008000A649081802908F4DA5A2284639460B
:1024A00003F07EFF8D4E01968D48009000200122A2
:1024B000014613922B46FEF7B4FE207A002815D071
:1024C000E079002808D086480090844E01960020CC
:1024D000092102229DA307E0814800907F4E0196CA
:1024E0000020052102229AA3FEF79BFEA3786078C4
:1024F0000090794D974A2846394603F051FF207ADB
:10250000019695490091002801D0222000E0162074
:10251000049C139E052106222B46FEF782FE09200D
:10252000C043844202DC6C488E4A08E0632C04DC21
:102530001198009068488A4A01E06748874A3946FE
:10254000234603F02DFF059D6448654900910190E5
:10255000D52005210027604B3A46FEF762FE632D29
:1025600018DC129800905C48804A15E03801002081
:1025700030F8FFFF0E000020100000200C000020AB
:10258000140000209A9999999999A93F0000204137
:102590009999A9BF5048744A0F9C21462B4603F0D5
:1025A000FFFE4E484E4900910190D52009214A4D29
:1025B0003A462B46FEF735FE53480078072148433C
:1025C0006B4A10184F4A1278504B1B7801904B43BE
:1025D0006848C0180090900067490B18674A284661
:1025E000214603F0DDFE6648009701900E2102228D
:1025F00038462B46FEF715FEFEF7C4FFFFF740FAFC
:10260000FEF736FB5F490A68224202D10A6822437C
:102610000A60364B18600868374A1040086018682E
:10262000FEF7F3FE334C206840060E9A0D9B03D54F
:1026300020684021884320601020234DA86109981C
:10264000A8614020A86121490A988860284C206828
:10265000C00702D02068B043206020208861AB61B1
:10266000AA60FEF7C7FA0C99086A234A104008626C
:102670000868B0430860F003154C0B9E29680142BE
:10268000FCD021681491149914212268D203D21726
:102690005118FAD129680142F0D0FFF7BFF920683C
:1026A00014901498F0002168C903C9170818FAD1CA
:1026B000FFF7B4F9BFF34F8F334834490160BFF3DC
:1026C0004F8F00BFFDE7C0461000005010040050BF
:1026D00010E000E01C000020340000204E980008AC
:1026E000E174000838010020140000205028004048
:1026F0000054004000300140FFFEFFFF0CE20008E4
:10270000DCDE00080C0000200E000020100000207D
:1027100000004040FCA9F1D24D62503F0000A041B2
:102720000000E03FE0BB000843BC00083FDE0008BB
:1027300032253033642F253032642F253032642027
:10274000E6989FE69C9F257300000000504D000016
:10275000414D0000F9E50008418200085BE60008F1
:1027600064E6000852E6000802E700080BE70008EC
:1027700066DD000867DE00085FDE00083EE6000850
:10278000D2920008007000400CED00E00400FA0551
:10279000F0B587B02D490868022420430860086816
:1027A0002040069001270597049703970326029679
:1027B000019440200090069825486D462946FFF771
:1027C00003F80597049701A8D0C080200090204806
:1027D0002946FEF7F9FF78051C4AD1680143D1600C
:1027E000D16801400691069879061A4842680A4362
:1027F0004260C26818490A40C260FA040368934301
:1028000003607A040368934303600268BA4302607A
:102810001F221202036893430360104A0261026898
:102820003A43026082680A40826082680C4B1A4018
:102830008260320504689443046042680A40426042
:10284000591CC2680A40C26007B0F0BD2C1002409B
:102850000004005000540040FF7FFFFF0B021000F7
:1028600000F8FFFFF0B587B00C4605900220FEF798
:10287000DFFD012004900702002506950394FEF772
:102880005DFC00955A480190284629462A46059B3A
:10289000FEF7C7FCA4202946564E3246FEF7AAFC96
:1028A000D42029463246FEF7A5FC381D294632467B
:1028B000FEF7A0FC032C00D984E0C0467C442479B8
:1028C0006400A74401314461002400944A48019007
:1028D00098200126314622464E4BFEF7A2FC00947A
:1028E00045480190D020314622464C4BFEF799FCDA
:1028F000009441480190384631462246484BFEF745
:1029000090FC00943C480190D3200D26314622468D
:1029100044A3FEF786FC009437480190B81C31466A
:102920002246039C414B4BE0002400943248019026
:102930009820012631462246364BFEF772FC009461
:102940002D480190C82031462246334B11E0002427
:1029500000942948019098200126314622462B4BAD
:10296000FEF75FFC009424480190D02031462246B7
:10297000274BFEF756FC00941F480190384631461D
:102980002246039C224B1BE0002400941A4801902D
:10299000982001263146224618A3FEF742FC0094F7
:1029A00015480190D0203146224616A3FEF739FC87
:1029B000009411480190384631462246039C12A3E8
:1029C000FEF72FFC3A46283200201B21FEF7D4FBED
:1029D0000698002809D1FEF7D5FDFFF751F8049EAF
:1029E0003046FEF725FD069649E707B0F0BDC04624
:1029F0004E980008D4BB0008D2920008E8BF9BE5BF
:102A000085A50000E4B88A00E4B88B00BCE70008A4
:102A100030E80008A7E70008AEE70008A3E70008D1
:102A200086E70008E4BF9DE5AD9800007FE7000859
:102A3000F0B583B00546FF260096D3200F214F2224
:102A400001242346FEF75CFB2402002D05D0022D55
:102A50001CD0012D20D1DD201AE00096C8200125D0
:102A6000212202232946FEF74BFB164F0026009633
:102A70000197D020144B29463246FEF7D2FB009630
:102A80000197124B20462946324616E020460C306C
:102A90000F210F4AFEF7AEFB0A4F00250095019764
:102AA000C82001260B4B31462A46FEF7BAFB00959B
:102AB0000197094B204631462A46FEF7B2FB03B088
:102AC000F0BDC046D2920008A3E7000886E70008E0
:102AD000C5BB0008AEE7000830E80008F0B59BB0C1
:102AE000FEF7BCF91AA8401C0A90012001020C91C3
:102AF000C10313910023F84AF84C11930B9001463F
:102B0000109300294CD11068C00612D4206815908B
:102B1000159814202168C903C9170818FAD110683C
:102B2000C00606D4109BD8B20021092843D31091C7
:102B300047E01068000711D42068159015981420FC
:102B40002168C903C9170818FAD11068000705D40D
:102B50001099080632D0491E109131E0E348006810
:102B60000027139908420ED120681590159814205B
:102B70002168C903C9170818FAD1DC4800681399FD
:102B8000084200D152E112971199481E0D46854125
:102B9000002900D001231806129916D100238FE0D6
:102BA0000321D3A0FFF75EFEFEF754FACD4A0123BE
:102BB0000027394693E05B1C109302E00920109037
:102BC000002101230B9D11930F461068C00777D198
:102BD0000E9512910D97FF200090002704211822D6
:102BE0000C233846FEF78CFAC44DC5482860C5480A
:102BF0000090C54801900324109E30462040604359
:102C0000011D38463A462B46FEF70BFB0094F4B202
:102C1000A008431C28460C99BC4A03F0C1FBB948E4
:102C200006460090B8480190EC200D210F973A46D7
:102C30002B46FEF7F6FA032C56D8B04F3846B44967
:102C40003CC93CC0097801700096AF480190192436
:102C50000421002520462A463B46FEF7E2FAAD480D
:102C60003946CCC8CCC102880A8080788870A548D3
:102C70000090A5480190072120462A469F4E3346E2
:102C8000FEF7CFFA3046A449CCC9CCC00A880280EE
:102C9000897881709B4E00969B4F01970A212046B0
:102CA0002A46964C2346FEF7BCFA9C4821463CC86F
:102CB0003CC102880A80807888708B4C304658E08E
:102CC000002D0CD03E461F460D46FEF777F8FEF766
:102CD000C1F929463B463746824A00201190002F11
:102CE00000D10EE701F098FD072C54D8834E3046F2
:102CF0008B490CC90CC01CC91CC082480090824F73
:102D0000019719240421002520462A463346FEF760
:102D100088FA304683490CC90CC04CC94CC00978AC
:102D20000170784800900197072120462A46734E8B
:102D30003346FEF776FA30467B490CC90CC04CC9C5
:102D40004CC0097801706F4F00976F4E01960A21B1
:102D500020462A46694C2346FEF763FA204673490B
:102D60003CC93CC00A880280897881703846374661
:102D70005D4C0E9D0090019719200D2100225F4BA4
:102D8000FEF74FFAFEF7FEFB002D564A0F9B0D9FF4
:102D9000129997D1A3E70B2C534C0E9DF2D8574EA6
:102DA000304663490CC90CC01CC91CC009780170AD
:102DB00054480090544801901924042100252046CD
:102DC0002A463346FEF72DFA30465A49CCC9CCC0C4
:102DD0000A880280897881704A4800904A480190A8
:102DE000072120462A46454E3346FEF71AFA30465A
:102DF00051494CC94CC00A88028089788170414E83
:102E00000096414F01970A2120462A460E9D3B4CD1
:102E10002346FEF706FA204647491CC91CC0324C1F
:102E20000A880280897881703046A3E70F93FEF705
:102E300015F81098C0B201211291092801D901F0AA
:102E4000E3FC40007844808840008744090010007B
:102E50001700A50143040B071808190991092E0A48
:102E6000002301271297119310931E4A8CE601F05C
:102E700013FD01201090129001F0C6FC0027F848C5
:102E80003946FFF7EFFCFEF7E5F8F748817808913F
:102E90004078079001201290124A14480068139954
:102EA0000842114B0ED11868159015981420196816
:102EB000C903C9170818FAD10C48006813990842C9
:102EC00000D1A5E0F8B20025032800D9C2E004A192
:102ED000085C40008744C0461004005010E000E049
:102EE000325C73861004005010E000E010000050C7
:102EF000E4B8BBE88F9CE58D95000000340000200D
:102F0000E296B600E17400084E98000827E8000831
:102F100044E8000880E800086CE8000858E8000869
:102F2000BCE80008D0E80008E8E8000894E80008D9
:102F300000E90008A8E8000834E800081068000765
:102F40000BD418681590159814201968C903C9176F
:102F50000818FAD11068000710D51068C00679D497
:102F600018681590159814201968C903C91708180E
:102F7000FAD11068C00612982C466DD4BA4B587816
:102F8000414241415970002701200B9D3C466DE0B4
:102F90001068000742D41868159015981420196815
:102FA000C903C9170818FAD11068000736D4AE4B08
:102FB000997800240120092949D8491C46E0106865
:102FC000000747D418681590159814201968C9038C
:102FD000C9170818FAD11068000712982C463BD47C
:102FE00001F016FC106800073AD41868159015987F
:102FF00014201968C903C9170818FAD110680821E4
:1030000001404C424C410007C0171299084023E090
:10301000F8B20024032826D3274625E01068C0060E
:1030200018D418681590159814201968C903C91781
:103030000818FAD11068C00612982C460CD48A4B96
:10304000997800240120022901D3491E99700B9D13
:1030500007460BE012982C460106129506D174E043
:1030600000241298F8E77F1C01200B9D1168C90706
:1030700054D109940E9510977C4D00957C4C019489
:10308000042700203946129002467A4BFEF7C9F811
:10309000754E7078009501940028774B00D0774BDF
:1030A000C0203946129D2A46FEF7BBF8B3780A20A5
:1030B0000090734C20460C99724A03F071F96B48EA
:1030C00000906B4801900D970827284639462A46FC
:1030D0002346FEF7A6F8FF250095F02018240326C6
:1030E0000D9922463346FEF70BF80095CC20394661
:1030F00022463346FEF704F8109FF8B2811E0229DB
:103100000ED30128099C0ED00028129D16D15748D5
:10311000009057480190F02004210AE0129014E03A
:103120007D1E099C0AE05148009051480190CC2036
:10313000082100252A46544BFEF773F8E8B2FFF742
:1031400077FCFEF71FFA514A0E9D002C07D1022C86
:103150000ED101F0F1FF002D15D002240BE0424802
:103160000899817007994170002D0CD0012402E06C
:103170000024002D04D0FDF721FEFDF76BFF434A2C
:10318000002C00D189E6FDF769FE404A012012902B
:103190000027022001F062F900273D483946FFF779
:1031A00061FBFDF757FF304841680E9180680124AC
:1031B0001297059710970746344B2146354800680B
:1031C000139A1042344C0ED1206815901598142093
:1031D0002268D203D2171018FAD12E480068139A29
:1031E000104200D1F3E02B480068139A10420DD131
:1031F00020681590159814202268D203D217101851
:10320000FAD124480068139A10421FD018680007AA
:103210000BD420681590159814202268D203D21779
:103220001018FAD11868000710D51868C0060BD41A
:1032300020681590159814202268D203D217101810
:10324000FAD11868C00601D5062010901298C0B2B5
:10325000032800D9B5E003A2105C40008744C046B3
:1032600006E800081E5B8FA01C000020E174000827
:103270004E9800088AE70008B5E7000820E8000833
:1032800034000020DDE500084EE600081004005080
:10329000E9E700081000005010E000E0186800079F
:1032A0000CD420681590159814202268D203D217E8
:1032B0001018FAD11868000700D497E01868C00603
:1032C0007FD420681590159814202268D203D21755
:1032D0001018FAD11868C00673D40D970E98FDF730
:1032E00017FC04460D46F64F3A46F64BFCF746FFF0
:1032F000F54AF64BFDF77AFB0646204629463A4644
:10330000F34BFCF73BFFFDF717FC002E00D10E98A6
:103310000021129186E0186800070CD420681590EF
:10332000159814202268D203D2171018FAD1186801
:10333000000700D4A2E11868C00642D420681590A6
:10334000159814202268D203D2171018FAD11868E1
:10335000C00636D43846FDF7DBFB04460D460D9714
:10336000D74F3A46D74BFCF709FFD74AD74BFDF763
:103370003DFB0646204629463A46D54B92E1186861
:1033800000071ED420681590159814202268D203D7
:10339000D2171018FAD11868000712D401F016F8E5
:1033A000186800070DD4206815901598142022681D
:1033B000D203D2171018FAD11868000701D401F00F
:1033C0000BF80024002900D1F7E60E982EE01299A0
:1033D000C8B2032802D30020129001E0491C1291C8
:1033E0000E98FF21109101210B9C1FE00D970E9E5E
:1033F0003046FDF78DFB04460D46B14AE84BFCF71D
:10340000BDFE00221292E74BFDF7C4FA07462046A4
:103410002946AB4AE44BFCF7B1FEFDF78DFB002FCC
:1034200000D1304601210B9CE04B0D9F1A68D2075A
:103430000E9000D0AEE00994FDF76AFBA04AD84B8D
:10344000FCF79CFEFDF778FB0546FDF705FB0446FF
:10345000FDF7E2FA01462846FDF7CBF9D449FDF71E
:10346000D0F9FDF7F9FA0090D24805460C9E314696
:10347000D14A234602F094FFD0480090D0480190F2
:10348000042108910024204622462B46FDF7C9FE60
:103490000D973846FDF73CFB894AC14BFCF76EFEA1
:1034A000FDF74AFB0746FDF7D7FA0546FDF7B4FAE4
:1034B00001463846FDF79DF9BD49FDF7A2F9FDF734
:1034C000CBFA0090BB4F38463146BE4A2B4602F03D
:1034D00067FFBA480090BA4801900821079120463A
:1034E00022463B46FDF79DFEFDF7C2FBFDF710FBB4
:1034F000734AAB4BFCF742FEFDF71EFB0546FDF79A
:10350000ABFA0746FDF788FA01462846FDF771F940
:10351000A749FDF776F9FDF79FFA0090A54D2846DB
:103520003146A94A3B4602F03BFFA4480090A4481C
:1035300001900C21204622462B46FDF772FEFF200B
:1035400006900090B42518270326284608993A4685
:103550003346FDF7D5FD06980090284607993A4670
:103560003346FDF7CDFD129AD0B2811E022915D344
:10357000012815D0002825460D9F1DD18F480090A9
:103580008F480190B420042100252A468F4BFDF777
:1035900048FE11E0002C0C4618D10EE6551E0AE03C
:1035A0008648009086480190B420082100252A46CC
:1035B000864BFDF736FE0D9FE8B2FFF739FAFDF7AF
:1035C000E1FF09980028794B00D1F6E51098000634
:1035D0004ED0FDF7F3FB754B1868C0060CD47C4A3F
:1035E00010681590159814201168C903C917081898
:1035F000FAD11868C00625D5186800070CD4744A9B
:1036000010681590159814201168C903C917081877
:10361000FAD11868000715D56E480068139908425A
:1036200000D0CAE56A4A10681590159814201168F0
:10363000C903C9170818FAD16648006813990842E7
:1036400000D0BAE5624A10681590159801201168FB
:10365000C903C9170818FAD1109AD1B20020FF295E
:1036600001D0521E00E0C24310921106B4D103E013
:10367000FDF7CCFB4D4B059810909EE53846FDF7C5
:1036800047FA04460D460D970D4F3A46444BFCF75A
:1036900075FD0022434BFDF77DF90646204629467D
:1036A0003A46414BFCF76AFDFDF746FA0746002E05
:1036B00000D10D9F01210B9C12913C4B85E6C04629
:1036C0007B14AE47E17A74BF9A9999999999E93F29
:1036D000E17A84BF002740483946FFF7C3F8FDF779
:1036E000B9FC3E48C168006906900124109705970F
:1036F00012970F462D4B214636480068139A104208
:10370000334C0ED120681590159814202268D203EE
:10371000D2171018FAD12F480068139A104200D11E
:10372000EBE02C480068139A10420DD120681590E8
:10373000159814202268D203D2171018FAD1254800
:103740000068139A10421FD0186800070BD4206835
:103750001590159814202268D203D2171018FAD1A8
:103760001868000710D51868C0060BD4206815909B
:10377000159814202268D203D2171018FAD11868AD
:10378000C00601D5062010901298C0B2032800D9B7
:10379000AFE0C046784400794000874421558899BD
:1037A000E17A743F00000840E17A843F1004005041
:1037B0000000C842340000205BE50008E174000806
:1037C0004E98000873E500088BE500084EE60008F7
:1037D00010E000E010000050F6E700081C00002098
:1037E000186800070CD420681590159814202268DA
:1037F000D203D2171018FAD11868000700D48AE053
:103800001868C00675D42068159015981420226891
:10381000D203D2171018FAD11868C00669D43846F6
:10382000FDF776F904460D46FA4AFB4BFCF7A6FC79
:1038300000221292F94BFDF7D9F83E460746204682
:103840002946F44AF64B7AE0186800070BD4206842
:103850001590159814202268D203D2171018FAD1A7
:103860001868000777D51868C00642D420681590FC
:10387000159814202268D203D2171018FAD11868AC
:10388000C00636D40E970698FDF742F904460D4659
:10389000E04F3A46E04BFCF771FC0022DF4BFDF7AE
:1038A000A5F80646204629463A46DD4B67E01868EB
:1038B00000071ED420681590159814202268D203A2
:1038C000D2171018FAD11868000712D400F08CFD36
:1038D000186800070DD420681590159814202268E8
:1038E000D203D2171018FAD11868000701D400F0DB
:1038F00085FD002400294FD1FDE61299C8B20328A6
:1039000002D30020129001E0491C1291FF20109078
:1039100001210B9C40E03846FDF7FAF804460D46BD
:10392000BC4AC04BFCF72AFC00221292BE4BFDF7AA
:1039300031F83E46074620462946B64ABB4BFCF7BF
:103940001DFCFDF7F9F8002F00D1304601210B9C3A
:103950000746B74B20E00E970698FDF7D9F80446C6
:103960000D46AC4F3A46AF4BFCF708FC0022AE4B7D
:10397000FDF710F80646204629463A46AB4BFCF7C1
:10398000FDFBFDF7D9F8002E00D1069801210B9C14
:1039900006901291A64B0E9F1868C00700D0C4E095
:1039A0000D94002438462146FCF7D0FF05460E97BB
:1039B0003846FDF7ADF802460B46002D994900D177
:1039C00095499448FCF7DAFBFDF7B6F80746FDF792
:1039D00043F80990FDF720F801463846FCF709FF47
:1039E0009449FCF70EFFFDF737F8C11746184E4013
:1039F00038469149FCF780FF05463846FDF788F8C0
:103A0000844A874BFCF7F2FF009600288B4800D1D0
:103A10008B48002D894A0C99069E00D10246894D9B
:103A20002846099B02F0BCFC87480090874801901B
:103A300004212046099122462B46FDF7F2FB304631
:103A40002146FCF783FF05463046FDF761F8024644
:103A50000B46002D734900D16F496E48FCF78EFB71
:103A6000FDF76AF80746FCF7F7FF0890FCF7D4FF6C
:103A700001463846FCF7BDFE6E49FCF7C2FEFCF776
:103A8000EBFFC11746184E4038466B49FCF742FF22
:103A900005463846FDF73CF85E4A614BFCF7A6FF49
:103AA000009600286A4800D16A48002D684A0C999F
:103AB00000D10246634D2846089B02F071FC624823
:103AC00000906248019008210891204622462B462A
:103AD000FDF7A7FBFF2007900090D82718260325A5
:103AE0003846099932462B46FDF70AFB07980090A5
:103AF0003846089932462B46FDF702FB129AD0B29F
:103B0000811E022915D3012815D0002825460E9FB5
:103B10001DD14D4800904D480190D820042100252A
:103B20002A464D4BFDF77DFB11E0002C0C4618D1C9
:103B3000E1E5551E0AE04448009044480190D82031
:103B4000082100252A46444BFDF76BFB0E9FE8B287
:103B5000FEF76EFFFDF716FD0D980028344B00D1DF
:103B6000C9E5109800064ED0FDF728F9304B1868CB
:103B7000C0060CD4394A10681590159814201168A5
:103B8000C903C9170818FAD11868C00625D51868DE
:103B900000070CD4314A106815901598142011684C
:103BA000C903C9170818FAD11868000715D52C4899
:103BB00000681399084200D09DE5284A10681590C6
:103BC000159814201168C903C9170818FAD1244898
:103BD00000681399084200D08DE5204A10681590BE
:103BE000159801201168C903C9170818FAD1109A4D
:103BF000D1B20020FF2901D0521E00E0C243109232
:103C00001106B4D103E0FDF701F9094B05981090B6
:103C100071E5C0467B14AE47E17A74BF000024C052
:103C2000E17A84BFE17A743F00002440E17A843F66
:103C3000100400500000C842000080BFE5E6000804
:103C4000C8E6000834000020E17400084E9800081F
:103C500062E7000845E700084EE6000810E000E0D3
:103C6000100000500024F3482146FEF7FBFDFDF74D
:103C7000F1F9F14A10680C9908431060106820218E
:103C80000143102081431160EC48858A0126EC4BEA
:103C90003046EC490968139A11420ED1EA4F39684F
:103CA0001591159914213A68D203D2175118FAD1F7
:103CB000E4490968139A114253D0E1B202292AD08B
:103CC000012939D0002948D1196809070CD4DE4EE2
:103CD00031681591159914213268D203D217511801
:103CE000FAD11968090741D51968C90635D4D64EE5
:103CF00031681591159914213268D203D2175118E1
:103D0000FAD11968C90628D47E20C04329B281425D
:103D100030DD6D1E2EE0196809071ED4CA4F3968C0
:103D20001591159914213A68D203D2175118FAD176
:103D30001968090711D470E3196809070DD4C24F37
:103D400039681591159914213A68D203D217511880
:103D5000FAD11968090700D459E30026002897D042
:103D60000BE0E0B2022805D2641C04E028B27F28F0
:103D700000DA6D1C002401200B9E1968C90775D15B
:103D8000109612952FB2B14805460C99B04A3B46A1
:103D900002F006FBAF480090AF48019004210E915D
:103DA0000026304632462B46FDF73BFAAB480088EA
:103DB000FCF73DFEAA49FCF724FD05463846FCF712
:103DC0002BFEA749FCF71DFD01462846FCF7C0FC69
:103DD000FCF79EFEA34AA44BFCF7D0F9FCF7ACFE1F
:103DE0000546FCF739FE0746FCF716FE0146284655
:103DF000FCF7FFFC9D49FCF704FDFCF72DFE00904D
:103E0000924D28460C999A4A3B4602F0C9FA9148CD
:103E10000090914801900821304632462B46FDF72C
:103E200000FAFF200090A820182203230E99FDF726
:103E300067F9E0B2411E022921460CD3002809D1BE
:103E40008448009084480190A82004210022894BD6
:103E5000FDF7E7F93146C8B2FEF7EAFDFDF792FB40
:103E600010980028764B129D04D111E7002E0646CB
:103E700000D10DE7FCF7A2FFFDF7ECF807E70024FF
:103E80007D482146FEF7EEFCFDF7E4F86B48807DA7
:103E9000129001256A4B28466A4D2968139A1142EF
:103EA0000ED1694F39681591159914213A68D203DA
:103EB000D2175118FAD163490968139A114257D0A1
:103EC000E1B202292CD001293BD000294AD119683E
:103ED00009070CD45C4D29681591159914212A689D
:103EE000D203D2175118FAD11968090748D51968B1
:103EF000C90637D4544D29681591159914212A689B
:103F0000D203D2175118FAD11968C9062AD47E20D3
:103F1000C043129A51B281423ADD521E129237E0EA
:103F2000196809071ED4484F39681591159914214D
:103F30003A68D203D2175118FAD11968090711D477
:103F400085E2196809070DD43F4F39681591159915
:103F500014213A68D203D2175118FAD11968090707
:103F600000D46BE20025002895D02A46374D13E097
:103F7000E0B2022801D3002400E0641C334D09E0C4
:103F80001299C8B27F2801D1129001E0491C129108
:103F90002E4D002401200B9A1968C90740D11092B8
:103FA000129843B228460C99294A02F0F9F9294897
:103FB0000090294F019704262B46002528463146BC
:103FC0002A46FDF72EF92348009001970821012287
:103FD00028462A4BFDF725F9FF200090A82018223B
:103FE00003233146FDF78CF8E0B2411E0229214639
:103FF0000CD3002809D11748009017480190A82039
:10400000042100221B4BFDF70CF92946C8B2FEF72C
:104010000FFDFDF7B7FA10980028094B04D13AE7D5
:10402000002A054600D136E7FCF7C8FEFDF712F876
:1040300030E7C046C3E70008200001401C00002014
:10404000100400501000005010E000E03400002088
:1040500003E60008E17400084E9800087800F81F95
:10406000B98B3B3FFCA9F1D24D62403F00007A443E
:10407000A5E500084EE60008D6E70008C2E50008FE
:104080000221F848FEF7EEFBFCF7E4FF0C9CFF2052
:1040900010900006F449096881431491F3482146C1
:1040A000F34AF44B02F07CF9F34F0097F34F01977A
:1040B0000421002528462A46EC4E3346FDF7B1F888
:1040C00030462146EE4AEF4B02F06AF9EA4800908A
:1040D0000197062128462A463346FDF7A2F814AB7D
:1040E00030462146E8A202F05BF9E34800900197D0
:1040F000082128462A463346FDF793F812951AA957
:10410000E648FCF7E5FD002800D0FBE01AAE308859
:1041100001F0B8F904467088FCF789FC0146204696
:10412000FCF76FFBDE49FCF7A9FB0646DD4F7C88F8
:104130002046FCF77CFC01463046FCF75AFBDA4986
:10414000FCF75FFB0646F888001BFCF765FC0146A0
:104150003046FCF793FBD549FCF7FAFA15A948510C
:104160002D1D142DCBD115A801F044F90546CAE048
:104170000D970125CEA02946FEF774FBFCF76AFFD8
:104180008120400012902F46CD4B2846CD4D296806
:10419000139A11420DD121681591159914212268A5
:1041A000D203D2175118FAD1C6490968139A11429D
:1041B00028D0F9B2012911D000291FD119680907A7
:1041C0001CD421681591159914212268D203D217A5
:1041D0005118FAD11968090710D4BBE11968090709
:1041E0000CD421681591159914212268D203D21795
:1041F0005118FAD11968090700D40AE200250028ED
:10420000C3D004E0F8B24742474101200B9D196832
:10421000C9070FD1FF200090D3200F214F22012387
:10422000FCF76EFFF8B20128109506D000280AD1DD
:10423000DD2004E0002D05462FE012980A300F2102
:10424000A14AFCF7D7FFA14C0094A14E019605218D
:10425000002528462A469FA3FCF7E3FF0094019619
:10426000092128462A46A5A3FCF7DBFF0095A74CA9
:104270000194D3200D2631462A46A54BFCF7D1FFE9
:1042800000950194129831462A46A24BFCF7C9FFCB
:10429000FDF778F910980028894B9F4C00D174E7FE
:1042A000FCF78CFDFCF7D6FE6EE700273846FDF7DD
:1042B000BFF8FCF743FFFDF765F9FDF7E1FB7D2053
:1042C000C4002046FDF760FB0097812042002632A3
:1042D000102338463946FCF713FFFDF753F9FDF775
:1042E000CFFB2046FDF750FBFCF728FFFDF74AF90E
:1042F000FDF7C6FB2046884CFDF746FBFCF7AEFDFC
:10430000092080E2129D002428462146FCF71EFB6E
:1043100006462846FCF7FCFB02460B46002E7F496A
:1043200000D17F497F48FBF729FFFCF705FC0646D3
:10433000FCF792FB0546FCF76FFB01463046FCF7A5
:1043400058FA5949FCF75DFAFCF786FB76490B6889
:104350000968090CC217801850400091019502901D
:1043600072480340414D28460C99714A02F018F8F2
:1043700041480090414801900A21204622462B46A0
:10438000FCF74FFF15A800F07FFF169D2846214639
:10439000FCF7DCFA06462846FCF7BAFB02460B4659
:1043A000002E5E4900D15E495E48FBF7E7FEFCF750
:1043B000C3FB054616901AA903225E4800F0ECFFE5
:1043C00000285DA600D12FE1FE245BE15C480E9938
:1043D0004160876000F0B0FEFCF740FD384A0120E4
:1043E00012900027032010E05548C760069901612C
:1043F000544807605448016000F09EFEFCF72EFD13
:104400002F4A01201290002704201090FDE14F4810
:1044100005804B48858200F08FFE0120129000023B
:104420004B4A116881431160106830218843106045
:10443000FCF714FDFA4A002705200FE0FB4812990B
:104440008175C9B2102000F034FE00F075FEFCF753
:1044500005FDF34A01201290002706201090F14C30
:10446000D3E1C04613E80008FC0708083400002028
:1044700018E6000848E50008648A0008589000081B
:104480002BE600083CE50008E7A1ACE4BBB6E789F1
:1044900088E69CAC20203A2025730000000006CC62
:1044A00000803B457800F81F0000C8420000F04142
:1044B000E681A2E5A48DE8AEBEE7BDAE0000000037
:1044C0001004005010000050C5BB0008E174000843
:1044D0004E980008E6B885E999A4E695B0E68DAE59
:1044E000E5B9B6E681A2E5A48DE588B0E5889DE54D
:1044F000A78BE8AEBEE7BDAE00000000E7BBA7E7B4
:10450000BBADE59097EFBC9F00000000D292000881
:10451000BCE700087FE7000810E000E0E17A743FA4
:10452000E17A74BF7B14AE4700580140FF0F0000D2
:104530009FE600082DF3000080200804100201000F
:104540001C0000203401002008000020420100204F
:1045500020000140FCF782FCB44D2846B2491CC93A
:104560001CC01CC91CC0AF4CAA20287000F0E4FD80
:10457000FDF714F8FF200090129A26320027052537
:104580000B2338462946FCF7BBFDAA480090A84EED
:104590000196384629463A46A7A3FCF742FEA548AD
:1045A00000900196092138463A46A7A3FCF739FE48
:1045B000FCF7E8FF9D484078002821D0F920A94960
:1045C000C8604868FA2800D34F6098488078FCF7A4
:1045D0006BFDA44AD0684008506010680C990843ED
:1045E00010602068159015980846F4302168C903BA
:1045F000C9170818FAD1012000021168814311601F
:10460000FDF73EFA9848FDF7BFF901201290082007
:10461000F9E0FCF723FC824A012012900820109058
:104620000F9B0D9FFEF7B0FA1AA8109A017851401F
:1046300022464B00090601D531214B40D9B2531C0B
:10464000072A1A46F5D3421C0A9B984210460A468E
:10465000ECD11AA88078884213D11AA90878497831
:1046600000221446B35C032A02D8034202D104E0BC
:104670000B4202D04023D3401C43521C072AF1D1E5
:1046800000E0FF242846FCF7E7F91290FCF7C4F994
:1046900001462846FCF7ADF87749FCF7B2F8FCF77D
:1046A000DBF90546159F3846FCF7D6F90646FCF7B8
:1046B000B3F901463846FCF79CF86F49FCF7A1F8BE
:1046C000FCF7CAF9E9176A184A40129900AB46C3C9
:1046D0000390E3B2654C20460C9E31466A4A01F0D5
:1046E0005FFE64480090624801900C210027384624
:1046F0003A462346FCF795FD112000F0BDFC8024CE
:1047000004408500122000F0B7FC80092818012120
:10471000002C129104D00A46FF3630404902081A94
:10472000FBF7D4FE02460B46002C584900D05849EE
:104730003846FBF7D5FDFCF7FFF904463946FCF790
:1047400005F905462046FCF7E3F902460B46002D25
:104750004A4900D14A494B48FBF710FDFCF7ECF9F8
:104760000546FCF779F90646FCF756F90146284656
:10477000FCF73FF84049FCF744F8FCF76DF90546B3
:104780000E20109000F078FC0E900F2000F074FCCA
:104790000446102000F070FCE9176A184A400094A3
:1047A000019002960392314C20460C99394A0E9B97
:1047B00001F0F6FD2F4800902D48019038461099E1
:1047C0003A462346FCF72DFDFCF7DCFEFDF758F9D1
:1047D000144C12480068139908420DD120681A90B1
:1047E0001A9814202168C903C9170818FAD10B4870
:1047F00000681399084203D03220FDF7C5F8E8E7B6
:10480000FCF72CFB07201090054A0F9BFEF7BCF924
:1048100000F092FCFEF7B7FC1BB0F0BD100000509A
:104820001004005010E000E0C07400081C000020DC
:104830004E980008E1740008E681A2E5A48DE5AE7B
:104840008CE6889000000000E4B889E7A792E59024
:104850008EE8BF94E59B9EE4B8BBE88F9CE58D9500
:104860000000000020000040B80B000034000020D1
:1048700058900008648A00080000C842E17A743F3A
:10488000E17A74BF7B14AE4716E700080000D03F02
:104890000000D0BF6FE60008F0B59FB031A0002146
:1048A0001391FDF7DFFFFCF7D5FB1AA800F07CFBA6
:1048B0000F20049000F0E0FB40B2002803D41AA8B7
:1048C0004079002805D12B481AA90CC80CC10078E2
:1048D00008701AA8811D0C91411D0B91011D0A91B0
:1048E000C11C0791C11D0691014608310591811C2B
:1048F0000891401C0990FF200E901C300F90012061
:1049000001021591C10316911B4C1C4F1C4E0D90BA
:104910001990139818901B480068169908420DD1F9
:1049200020681D901D9814202168C903C917081814
:10493000FAD1144800681699084228D01898C0B2D5
:104940000022112800D9CFE0784400794000874444
:104950001B51565A5E62676B71767C868A8F93987C
:10496000A2B6C046E697B6E997B4E8AEBEE7BDAEDC
:1049700000000000D874000810E000E034000020BF
:10498000E1740008100000500221012234E018995F
:10499000C8B20022112802D31546114601E015467F
:1049A000491C09224A401AA8007A0243D2B2534253
:1049B0005341C9181891012119911399002900D167
:1049C000CCE01AA909783C2902D31AA93B220A7023
:1049D0001AA949783C2902D31AA93B224A701AA97C
:1049E0008978002800D182E00D2900D288E01AA839
:1049F0000C2189E00121092200230C98B4E009224E
:104A000000210C9840E0012100230B9825E00922A9
:104A100000210B9838E00121032200230A98A3E02B
:104A2000092200210A982FE000210722012307987C
:104A30000D469AE0012200210598139202E001221E
:104A4000002106980D460B468FE01AA8007A012136
:104A5000002800D185E0002308980A4684E0092256
:104A60000021089810E001210522002309987BE02D
:104A700009220021099807E01AA801210522002334
:104A800072E01AA8092200210D460B46FCF75EFAD7
:104A9000012113916BE0E9480068000724D42068E5
:104AA0001D901D9814202168C903C9170818FAD150
:104AB000E2480068000717D40020022512E0DF4812
:104AC0000068000710D420681D901D9814202168EC
:104AD000C903C9170818FAD1D8480068000703D4D9
:104AE00000200125199042E0154610463FE01829A4
:104AF00002D31AA8172181701AA80021C17104E0FD
:104B0000002902D11AA8012181701AA8C0780728AB
:104B100001D9072002E0002802D101201AA9C8709B
:104B20001AA800791F2801D91F2002E0002802D10D
:104B300001201AA908711AA840790C2801D90C2063
:104B400002E0002802D101201AA948711AA8807930
:104B5000C008192802D31AA8C72181710D9A13958C
:104B600010E00222002308981D46FCF7EFF9411ED1
:104B700002468A41002801D1199800E001201990CD
:104B8000000639D0AD480068C00700D0BBE01792DE
:104B900014951AACA37960792179E27800AD07C544
:104BA00038461599A8A201F0FBFB0096AE4D019581
:104BB00007200421052212903B46FCF732FB207AA5
:104BC00000281CD03846AAA11CC91CC01CC91CC086
:104BD0000A88028089788170009601950520082155
:104BE00000223B46FCF71DFB1AA8C07907220028CB
:104BF0001CD03846A5A11BE00020199083E0384660
:104C0000A6A11CC91CC01CC91CC00A8802808978C6
:104C100081700096019505240821002220463B461C
:104C2000FCF7FFFA3846A4A1224601E0384699A1D4
:104C3000FBF76AFD00220092019505240C26204610
:104C4000314619923B46FCF7ECFA1AA88378417872
:104C50000078009101903846159999A201F0A0FBC7
:104C60008248009001953A20314622463B46FCF7A7
:104C7000D8FA1898C0B2022803D81121414318313C
:104C80000BE0042803D811214143353105E0062803
:104C900000D9A8E01121414352311191129810908E
:104CA0000E9F009705260721012430460F9D2A46B6
:104CB0002346FCF725FA00970B2130462A46234667
:104CC000FCF71EFA00970F2130462A462346FCF7D0
:104CD00017FAFE2018990840102802D108460F380C
:104CE00007E0119880B21099C9B2794AFCF782FAAC
:104CF0001998534C5D4EC0B2FDF79AFEFCF742FC8A
:104D0000504F149D179A022D64D117921DAC1A981A
:104D100020701B9820711AA8417861708178A17069
:104D2000417961718179A171C078C01D0721FBF7BC
:104D3000DFF9481CE0700026062E0AD11DA88079F4
:104D4000642806D364381DA98871487980220243FB
:104D50004A711DAFBC5D0A212046FBF7C9F9092144
:104D6000C9434143611800010843B855761C072E1A
:104D7000E2D11AA8007A00280DD01DA98A781F2038
:104D80001040024640328A701AA9C979002902D01F
:104D900060301DA9887007201DA900F0A7F9002820
:104DA000284F14D10E26304600F066F901467F24C4
:104DB0002140304600F07DF9002808D10F2630460A
:104DC00000F05AF904403046214600F072F91C4CBC
:104DD000264E179A002A03D0FBF7F0FFFCF73AF9AA
:104DE000002D26D197E5092807D0082808D00728E4
:104DF0000AD10F98C01F119050E71720119016E0AC
:104E0000842011900B204AE70B2803D8112141433D
:104E100070390BE00D2803D8112141435F3905E0BB
:104E20000F2800D93CE7112141434E3911910498D4
:104E300035E7FCF713F81FB0F0BDC0461004005072
:104E400010E000E0340000203225303364E5B9B4CE
:104E500025303264E69C8825303264E697A520E54B
:104E600091A82564000000004E980008E174000835
:104E7000E697B6E997B4E6A0BCE5BC8FEFBC9A31E3
:104E800032E5B08FE697B6E588B60000E4B88BE56A
:104E90008D880000E4B88AE58D880000E697B6E9C1
:104EA00097B4E6A0BCE5BC8FEFBC9A3234E5B08F76
:104EB000E697B6E588B6000020202020000000001C
:104EC000253032643A253032643A253032640000AD
:104ED000C5BB00087047704781B0104804210160CD
:104EE0000F494020086008220A6010220A606946C3
:104EF00064220A800A880988002A06D0491E6A4668
:104F0000118013881188002BF8D106490A685206CF
:104F100002D40A6802430A6001B0704728040050B6
:104F2000180000500030014080B51849C8680007DB
:104F3000820F17487A441279520097440108250DD0
:104F40000120000449680904490F884080BD0868B1
:104F5000C00609D5104880BDCA68D20307D40868C6
:104F6000C00603D50C4802E00A4880BD0948CA685B
:104F70009202120F09A39A5C4243C8680002800F94
:104F8000411C1046FBF7B4F880BDC046001002403B
:104F900000127A000024F40000093D000304060812
:104FA0000C1018203000000070B50446D0200021FD
:104FB0000122FCF73FFB00280DD100263046FCF70C
:104FC000E1FB002807D1D020012507222946FCF764
:104FD00031FB002804D009212046FBF7AEFB70BD51
:104FE000FCF70EFBA055761C072EF9D1FCF79AFBB7
:104FF000002001467F220A40022A05D0052A0CD152
:105000002256002A14D520E0225C520607D4002242
:10501000E2712272235C3F2208E0225C08E02572E4
:10502000225C9206D20FE271235C1F221A402254A6
:105030000F231340D2B212090A265643F218225403
:10504000491C401C0728D5D10EE00F21D3060A4089
:10505000DB0F0A256B439A182254A07901400009FE
:10506000684308186430A071E0780C300721FBF722
:105070003FF8481CE07070BDB0B50546D020002454
:1050800001222146FCF7D6FA002810D12846FCF769
:1050900079FB00280BD1D02001210A46FCF7CAFA7F
:1050A000002804D1FCF7ACFA0446FCF73BFB204691
:1050B000B0BDF0B581B00E460746D02000240222D4
:1050C0002146FCF7B7FA012500280CD13846FCF739
:1050D00059FB002807D13046FCF754FB002802D1C9
:1050E000FCF720FB2546284601B0F0BDF0B581B0A5
:1050F0000C460546401CC2B2D0200021FCF79AFAAB
:105100000127002813D100263046FCF73BFB00287E
:105110000DD102E0641C6D1E06D02078FCF732FB36
:105120000028F7D0012700E03746FCF7FBFA3846A5
:1051300001B0F0BD70470000F0B583B07D20C00025
:10514000009000211D4A1E4B1E4C1F4D0E4626434B
:1051500030786F5CB84221D01868019001980098AF
:105160005569ED0705D01D68ED03ED172818F7D137
:1051700013E01068C00703D0144890601448906092
:10518000377018680290029800985569ED0709D0A9
:105190001D68ED03ED172818F7D10B4D491C182990
:1051A000D4D109E010680125054315601068C007D7
:1051B000054DF3D03078F1E703B0F0BD0420024094
:1051C00010E000E0000008081C000020EFCDAB89D3
:1051D00005040302F0B581B000920A460546093283
:1051E0000C211046FAF784FF0E460A270846394676
:1051F000FAF77EFF0446992040007043401D39466F
:10520000FAF776FF00990818291B8CB2A1084018FC
:10521000FF216E316143451864212046FAF768FF8B
:105220002D1A192001012046FAF762FF2818401EA6
:10523000C11701B0F0BD7047012002020E490B6892
:1052400013430B60CA680D4B1340CB600A680C4BCC
:1052500013400B608A6882438A6082040B68934320
:105260000B60FD221204CB689343CB6000220A61DD
:10527000C006044908607047001002400C40FF88D7
:10528000F6FFF6FE08ED00E0F0B583B004463A48BC
:1052900001A9062200F080F800286BD101AA511C58
:1052A000FF2513786B4000255E0031201B0600D5DA
:1052B0004640F3B26E1C072D3546F5D3551C8A4285
:1052C0002A461D46EDD101A98978994252D101AAF9
:1052D000111DD21CFF2513786B4000255E001B06B4
:1052E00000D54640F3B26E1C072D3546F6D3551C4B
:1052F0008A422A461D46EED101A84079984239D10A
:1053000001AF3888000400BAFBF7E0F800251B4E17
:105310002A463346FBF74CF8194B2A46FAF7E0FFCA
:10532000184B2A46FAF72AFFFBF706FC01461648F7
:105330000068FBF70DFA60603879F97809020818FF
:10534000FBF7C4F82A463346FBF732F80F4B2A46E0
:10535000FAF7C6FFFBF7F0FB01460D480068FBF7C4
:10536000F7F905460B4E3146FBF7F0FA002800D15D
:105370002E46266003B0F0BD062C0000E0FFEF4093
:1053800000E06540008046C0340100200000594024
:10539000080000200000C842F0B581B014460D4658
:1053A0000746882000210222FCF744F90126002844
:1053B0001CD1380AFCF7E6F9002817D1F8B2FCF73F
:1053C000E1F9002812D18820012631462246FCF757
:1053D00031F900280AD1FCF713F928706D1C641EFE
:1053E000F9D1FCF79FF90646401E8641304601B0D0
:1053F000F0BD0000F0B583B001460026042204464B
:10540000374602900192F8B2800008582568294674
:10541000FBF79CFA002803D037460299019A10E066
:105420000097019FF8B28000029908582946FBF7BF
:105430007FFA002802D13246029901E002993A46E9
:10544000009F241D761C052EDCD1F8B28400D0B25A
:10545000870000263546B4420BD0B74209D08859A0
:105460000749FBF70BFA01462846FBF771F9029949
:105470000546361D142EEED1284603B0F0BDC046B9
:1054800000004040B0B50446094800880949098831
:1054900009B2091808484843FBF7C9FA05462046EF
:1054A000FBF7C5FA01462846FBF7E8F9B0BDC04650
:1054B0007800F81F42010020B80B000070B584B0DE
:1054C0003E4D0821296101A9087040262E6103A8DC
:1054D0000124048001880088002906D0401E03A909
:1054E00008800A880888002AF8D101A8214600F01F
:1054F00023FF02A8048001880088002906D0401EEE
:1055000002A908800A880888002AF8D12E6004B011
:1055100070BDC04670B584B0284D0821296001A92E
:10552000087040262E6103A80124048001880088A9
:10553000002906D0401E03A908800A880888002A8E
:10554000F8D101A8214600F0F7FE02A804800188E6
:105550000088002906D0401E02A908800A88088811
:10556000002AF8D12E6004B070BDC046F0B583B0FB
:10557000124C082222604025256102AA01261680CD
:1055800013881288002B06D0521E02AB1A801F8887
:105590001A88002FF8D100F0CFFE01A806800188FC
:1055A0000088002906D0401E01A908800A880888C2
:1055B000002AF8D1256003B0F0BDC04618000050A5
:1055C000F0B587B0514C216820680127B8432060AE
:1055D000394004910A202168C90701D0401EFAD140
:1055E00078054B490A6802430A600A6882430A60E8
:1055F00048480168484A1140BB03C9180160416826
:10560000802631434160C1681140C918C1600168FA
:10561000424B19403D034919016041684022114342
:105620004160C16819404919C16001968661826173
:1056300006A964260E800B880988002B06D0491E17
:1056400006AB19801D881988002DF8D10020039021
:10565000C04302902F48016909062BD40097304BB4
:105660001968059105997D21CF00002F25D0196873
:105670002848826206AD2E80C9032C882D88002C14
:1056800003D06C1E06AD2C80F7E7C9172148826154
:1056900006AC268020882588002803D0681E06AC2A
:1056A0002080F7E7CF191B4800690006DDD5039D70
:1056B000029E04E0039D029E1AE0039D2E461548BB
:1056C000019A8262186806900698009F39460F4C2E
:1056D0001868C003C0174118FAD10E4882611868D3
:1056E0000690069801201968C903C9170818FAD14D
:1056F000FDF74EF80498002802D020683843206057
:10570000E843301A411E884107B0F0BD0054004004
:105710002810024000040050FF3FFFFFFFCFFFFFB3
:1057200010E000E070B5194C2168C90703D1216869
:1057300001220A432260FBF781F9154A154BFAF75B
:1057400037FE0022144BFAF719FDFBF7C3F9A268E4
:1057500012490A400243A2602246083A1368022016
:105760000343136001225307ED4D2E681E432E6044
:1057700052030B4B1A60FF310A4A13680B40136047
:105780002168014304208143216070BD107C0040EA
:10579000D0BAC114F9ACDB3F0000E03F0000FFFFCE
:1057A00000E100E00CE400E0A1B0104D686B0122C4
:1057B00010436863686B10401A901A981107A86B21
:1057C0000843A863A86B079108401A901A98084BE1
:1057D000986920210F910843102112918843986104
:1057E0000448001F01689143016005E00010024079
:1057F00008000140042002400168C907FCD10324CD
:10580000E002054B19688143D00215900818186012
:1058100028681043286001E00070004028684007B5
:10582000FCD51F20000269688143100313900818FB
:105830006860286D10432865286D8007FCD5E868EE
:10584000802109910843702105918843E86007236E
:105850001802E9688143E9600E93D802E968814340
:10586000E960E8681043022118918843E860E8681D
:105870000C2101400429FAD1A249A348486000271D
:105880008F6005200860E3431693E96C1940E964D2
:10589000E96C9E4B1940E964E96C9D4B19409304F7
:1058A0000D93C918E9641F971E971D971C97E96A05
:1058B00004263143E962E96A31401196209120992A
:1058C000E96A1143E962E96A114020912099E96A85
:1058D000189B1943E962E96A19402091209905074C
:1058E000149523460824AC621298A86240200A90BE
:1058F000A8621398A86287480F99816211020891E3
:1059000081628661A9611598A8611E971B93900317
:105910000C901A901793804D19921AAE2846314672
:10592000FBF752FF1E9717981B901998C00306901B
:105930001A902846254610943146FBF745FF1E97DE
:105940001D9717981C903C4619981B901A95149D0A
:1059500028463146FBF738FF1E971D971C9719986C
:105960001B9012981A9028463146FBF72DFF1E9780
:105970001D97179F1C9719981B900A981A902846F4
:105980003146FBF721FF1E941B9718981A90614F20
:1059900038463146FBF718FF1E941D941C94199845
:1059A0001B9011981A9038463146FBF70DFF1E9454
:1059B0001D941C9419981B90089F1A9728463146ED
:1059C000FBF702FF1E941D941C9419981B901598C8
:1059D0001A9028463146FBF7F7FE1E941D941C943E
:1059E00019981B9013981A9028463146FBF7ECFE45
:1059F0001E941B9406981A9028463146FBF7E4FE45
:105A00001E941B9410981A9042483146FBF7DCFE16
:105A10001E941B9412981A903E483146FBF7D4FE10
:105A20001E941D941C9419981B900F981A90394835
:105A30003146FBF7C9FE1E941D941C9419981B90C7
:105A40001A97344807463146199EFBF7BDFE334A84
:105A5000106830430E2188431060F868189B184383
:105A6000F2431040F86038681699084038602C48B6
:105A700041681140416001683143016081680492CE
:105A800011408160C1683143C1601F941E941D9410
:105A900016941C947102234A506B08435063506B58
:105AA0000B91084020902098D06A3043D062D06A91
:105AB0003040209017981B901A931F4620981AA9DF
:105AC0002846FBF781FE184B986A38439862986A1B
:105AD0000D9908439862154D286815490840F2054C
