:020000040800F2
:1000000048040020D5000008CD0A0008B10500080A
:1000100000000000000000000000000000000000E0
:10002000000000000000000000000000B30B00080A
:100030000000000000000000CF0A0008B50B000817
:10004000E7000008E7000008E7000008E7000008F4
:10005000E700000869050008E7000008E70000085D
:1000600000000000E7000008E7000008E7000008C3
:10007000E7000008E700000800000000E7000008B3
:1000800000000000E7000008000000000000000081
:10009000E700000800000000E7000008E700000893
:1000A000E7000008E7000008E7000008E700000894
:1000B000E7000008E7000008000000000000000062
:1000C0000348854600F092F800480047810E00087A
:1000D000480400200448804704480047FEE7FEE744
:1000E000FEE7FEE7FEE7FEE7B90B0008C1000008E7
:1000F00030B50B46014600202022012409E00D46C0
:10010000D5409D4205D31D469540491B2546954047
:1001100040191546521E002DF1DC30BDF0B51FB45C
:1001200088B00B990998002448400999C00F4900EC
:1001300049080991C0070B990090490049080B91A3
:1001400009990898A64608431CD00B990A980843B9
:1001500018D0099801244000420D4800410D09982B
:1001600024050003000B204309900B980003000BAB
:1001700020430B9050181C4940180022019014464F
:10018000104605E0002001460DB0F0BD032801DA5D
:10019000034600E003239C46C11A0AAE0AE05F0052
:1001A00008ADED5B4F00F75B7D430027AA187C414B
:1001B000491C5B1E6145F2DD410004AB5A5221042B
:1001C000120C0A43240C401C0828DFDB0198029023
:1001D0000099704601910090059B049A0799069832
:1001E00000F044F8D0E700000DFCFFFF064C0125AD
:1001F000064E05E0E36807CC2B430C3C98471034CF
:10020000B442F7D3FFF760FF181A0008281A000855
:1002100010B5202A04DB0146203A9140002010BD91
:10022000914020239C1A0346E3401943904010BD9F
:1002300010B5202A04DB0846203AD040002110BD2A
:100240000B46D340D0402024A21A914008431946BF
:1002500010BD10B5002B08DA0024401C6141921833
:100260005B411A4301D14008400010BDF0B51FB4F6
:1002700082B005460C0003D0084601F0F1F902E017
:1002800001F0EEF920300246009021462846FFF7A3
:10029000BFFF049B059A04460F46184311430843C9
:1002A00014D0184610431BD0009840210A1A184653
:1002B0000599FFF7BDFF05460E46009A059904987B
:1002C000FFF7A6FF084305D0012004E02046394689
:1002D00007B0F0BD0020C11705430E432C43374340
:1002E00000990E986305401A7905E40A00220C4330
:1002F000FD0A0A3002D500200146E9E70105101980
:1003000069410C9C0D9D00196941FFF7A2FFDFE7D1
:10031000F8B502464A40D40F42004B0052085B0831
:100320009A4202D20246084611464A0023D0C30D23
:100330004A00DDB2120EAD1A202D35DA490201262F
:10034000490AF6058A19002C00D0524220214F1B81
:100350001146B9402A411018C20D9A4221D0002CF2
:1003600017D0012D08DCDA05801AD20F8019D207C8
:10037000DBB200F0C0F8F8BDDA05801A01234000B6
:100380001B06C01880185A428018CA0F1043490033
:1003900007E04908C2071143DA05801A80194008AE
:1003A000801800F0A0F8F8BD61000122511A001B6E
:1003B000F7E70122D2075140AAE70122D2075040B5
:1003C000A6E7024670B54A40D30FDB0740002DD0A8
:1003D0004A002AD0010E140E000212020919400A26
:1003E000520A8418E50104465443000A120A2E04F6
:1003F0005043A4194219200CC543AA18120C012518
:10040000AD03521C521912047F39240400D0521C2F
:10041000104301D44000491EC2B20C06C009201886
:10042000401C4008802A02D003E0002070BD400834
:100430004000002900DA0020184370BDC217C10F28
:10044000504010B54018CA079623002100F053F819
:1004500010BD00000EB5C217C10F5040CA074018AA
:100460000021054B0293019200910A460B46FFF7CB
:10047000FDFE03B000BD000033040000C20F4100C8
:1004800040020123400ADB05D207090EC0187F296C
:1004900001DA00207047962903DC9623591AC840D8
:1004A00001E096398840002AF4D040427047CB0FD3
:1004B000DB07490010B5490802460A4307D00A0D78
:1004C00007240903E401090B121B002A01DC0020A8
:1004D00010BDC900440F0C43C100E018D2058018BC
:1004E00000F001F810BD002904DA401C490001D1D8
:1004F00040084000704770B40024050C05D110245A
:10050000000402D1002921D01124050E01D10002DE
:100510000834050F01D10001241D850F01D1800091
:10052000A41C002801DB4000641C002908D0202501
:100530002E1B0D46F540A14000D001212943084360
:1005400001061B1B000ADB1D02D5002070BC704792
:10055000DB05181880180029F8DA401C4900F5D18D
:1005600070BC40084000704703480168C90701D0CB
:10057000012101607047C0461404014080B582B07B
:10058000744801680191019901210268D203D217D0
:100590005118FAD10220002100F03EF80E2000F0A0
:1005A000BBF81C2000F0B8F800F09AF802B080BD4B
:1005B00082B0084D08A4204600F046FB2868019050
:1005C00001987D20C0002968C903C9170818FAD10D
:1005D000F1E7C04610E000E0494E20484152442077
:1005E0004641554C5421000080B582B0F148016865
:1005F00001910199584A56490B685B0708D4036872
:10060000DB03DB179A18F7D100F094FB002000E021
:10061000C868C0B202B080BD70B582B03D4A131F39
:100620001C68E40703D11C68012525431D600124D3
:10063000E30215689D431560284D6B1C16681E402B
:10064000D03616601368002902D0A5022B4300E0C3
:100650002B401360230615689D431560FF231B0480
:1006600015689D43000428181060600613688343D2
:1006700013606003136803431360CE48036801935B
:10068000019B00290DD0344900291DD053695B0717
:1006900020D40368DB03DB1759185369DB06F3D555
:1006A0000CE02D4900290FD05369DB0712D10368F4
:1006B000DB03DB1759185369DB06F3D5906910216A
:1006C00001439161032406E000F034FB002802D0CE
:1006D000022400E00024204602B070BDFFFBFFFFB3
:1006E00080B582B0012081030A4802680A43026093
:1006F000B0490A680192019A174A43691B0406D55A
:100700000B68DB03DB179A18F7D100F013FB02B07C
:1007100080BDC0460454004080B582B00C490861D9
:10072000A44802680192019A0B4A0B68DB070AD1C0
:100730000368DB03DB179A18F7D100F0FBFA0028F7
:1007400003D0022002E0002000E0012002B080BDC2
:100750001854004010E000E0B80B0000F0B584B081
:100760000C68002C55D00123019303915A1E019F60
:100770009740274048D04A68551E022D02943D46B6
:1007800015D27D4303998C686C4303266E438168C0
:10079000B143214381600399C9680092029A514391
:1007A00044689443009A0C434460039902E07D43FB
:1007B00003266E43F64309696943C46834400C4319
:1007C000C460022A029C19D13C0A01D0242200E014
:1007D000202203994F6902928258002C02D0644370
:1007E000644301E02C466C430F2161438A43674315
:1007F00017430299475003990C684A6855430168AA
:1008000031402943016003992246DA405B1C002AEB
:10081000ACD104B0F0BD000090B065480078654DE3
:10082000012803D0032804D0022832D1FFF7A6FE06
:100830002FE028680F900F9801202968C903C91775
:100840000818FAD10122D0035B490B681B040BD4B2
:100850002B680F930F9B0A232C68E403E417E3181B
:10086000FAD10B680342F3D02B680F930F9B2B68D0
:10087000DB03DB179A18FAD108E02A680F920F9A67
:100880000A222B68DB03DB179A18FAD10A680242A6
:10089000F3D04A4E01200021FFF7BEFE002840D1D0
:1008A00000242046FFF738FF00283AD10720012115
:1008B000FFF7B2FE002834D1FFF796FE3055641CD6
:1008C000072CF9D1FFF70CFF0024052C03D10520DC
:1008D000305600280ED4305D6421FFF709FC0F204C
:1008E000084009090A224A4310183055641C072C95
:1008F000EBD10FE00E210140C006C00F0A22504389
:1009000040187071B0790F21014000095043081858
:100910006430B071F0780C300721FFF7E9FB481C18
:10092000F070B0790E90777930790D90F0780C9066
:10093000B0780B9070780A903078099000F008F940
:10094000044600F005F9064600F002F9FFF796FDAF
:10095000FFF774FD01463046FFF72BFD1849FFF7FE
:1009600030FDFFF78BFD06462046FFF787FD009719
:100970000D9901910C9902910B9903910A99049197
:1009800009990591069007963D210E4C20460EA22E
:100990000E9B00F049FE204600F056F928680F90A3
:1009A0000F9864202968C903C9170818FAD170E79D
:1009B0000000002010E000E01000005001000020C6
:1009C0000000C842080000205254433A203225302B
:1009D000336420256420256420256420253032647A
:1009E0003A253032643A2530326420543A25303288
:1009F000642E253032640000F0B587B02D490868B8
:100A000002242043086008682040069001270597CB
:100A100004970397032602960194402000900698BD
:100A200025486D462946FFF799FE0597049701A8CA
:100A3000D0C08020009020482946FFF78FFE78051F
:100A40001C4AD1680143D160D168014006910698E3
:100A500079061A4842680A434260C26818490A4047
:100A6000C260FA040368934303607A040368934303
:100A700003600268BA4302601F22120203689343B4
:100A80000360104A026102683A43026082680A40C9
:100A9000826082680C4B1A4082603205046894437D
:100AA000046042680A404260591CC2680A40C26041
:100AB00007B0F0BD2C10024000040050005400406C
:100AC000FF7FFFFF0B02100000F8FFFF7047704729
:100AD00080B51849C8680007820F17487A44127910
:100AE000520097440108250D0120000449680904BB
:100AF000490F884080BD0868C00609D5104880BDF0
:100B0000CA68D20307D40868C00603D50C4802E0BF
:100B10000A4880BD0948CA689202120F09A39A5C6C
:100B20004243C8680002800F411C1046FFF7E0FAFC
:100B300080BDC0460010024000127A000024F4007C
:100B400000093D00030406080C10182030000000C6
:100B500010B5112000F012F88400122000F00EF8F9
:100B600080092018FFF776FC0022034BFFF7D6FA26
:100B7000FFF79DFC10BDC0460000D03FB0B5054654
:100B8000012000242146FFF747FD00280FD1284609
:100B9000FFF7C2FD00280AD101200146FFF73CFD06
:100BA000002804D1FFF720FD0446FFF799FD2046F9
:100BB000B0BD704770470000012002020E490B686B
:100BC00013430B60CA680D4B1340CB600A680C4B93
:100BD00013400B608A6882438A6082040B689343E7
:100BE0000B60FD221204CB689343CB6000220A61A4
:100BF000C006044908607047001002400C40FF889E
:100C0000F6FFF6FE08ED00E010B502781949002A5B
:100C100015D0431C0022521CD2B21C78002C0CD0E0
:100C20005B1CFF2AF7D108E00B681B06FCD54023AC
:100C30004B600378CB60521E401C002AF4D1086838
:100C40004006FCD510BDC04680B5FFF7DDFF384932
:100C50000222084803681B06FCD5402343600B783A
:100C6000C360521E491C002AF4D101684906FCD514
:100C700080BDC0461C38014070B584B00C460546A6
:100C800013A0FFF7C1FF16A0FFF7BEFF17A0FFF7E5
:100C9000BBFF1BA0FFF7B8FF1CA0FFF7B5FF1DA00F
:100CA000FFF7B2FF01AE0B211DA230462B4600F02C
:100CB000BBFC3046FFF7A8FF1AA0FFF7A5FF2046B0
:100CC000FFF7A2FF1A48FFF79FFF04B070BDC046B0
:100CD0000D0A2A2A4445425547205052494E540095
:100CE0000D0A46494C4520203A2000002E2E2F5355
:100CF00072632F555345522F66756E632E63000045
:100D00000D0A46554E4320203A200000496E697472
:100D1000000000000D0A4C494E4520203A200000FA
:100D2000256400000D0A494E464F20203A2000005D
:100D3000121A0008F0B585B04A490A6801208243BA
:100D40000A600A220B68DB0701D0521EFAD1410566
:100D5000454A13680B43136013688B431360434980
:100D60000A68434B1A40840312190A604A688026B5
:100D700032434A60CA681A401219CA600A683D4B79
:100D80001A40050352190A604A68402422434A6007
:100D9000CA681A405219CA6001968E6102948C6129
:100DA00004AAC825158016881388002E06D05A1E5E
:100DB00004AB1A801A881B88002AF8D12B490A69CB
:100DC000120630D42C4B1A680392039A2B4E002E35
:100DD0002BD01A682549029C8C6204A90D80D70388
:100DE0000C880A88002C06D0511E04AA1180118894
:100DF00012880029F8D1FF171C49029A8A6104A9B8
:100E00000D800C880A88002C06D0511E04AA11807F
:100E1000118812880029F8D1BE19144909690906F8
:100E2000D5D5002402E0002416E004460F49019ABB
:100E30008A621968049104991968C903C9170818C6
:100E4000FAD10A4882611868049004980120196850
:100E5000C903C9170818FAD1FFF7CEFD204605B01F
:100E6000F0BDC0460054004028100240000400506D
:100E7000FF3FFFFFFFCFFFFF10E000E0B80B0000D7
:100E80009CB0104C606B012210436063606B10409B
:100E9000159015981107A06B0843A063A06B0391F0
:100EA000084015901598084B986920211091084327
:100EB00010210D91884398610448016891430160B5
:100EC00006E0C04600100240080001400020024039
:100ED0000168C907FCD103201390C002054B1968B3
:100EE0008143D0020F9008181860206810432060DA
:100EF00002E0C0460070004020684007FCD51F207B
:100F000000026168814310030A9008186060E0687D
:100F1000802109910843702105918843E0600723EF
:100F20001802E1688143E1600893D802E1688143D7
:100F3000E160E068104302239843E060E0680C2120
:100F400001400429FAD1A548A549416000258560E2
:100F5000052101601398C6430796E06C3040E064B9
:100F6000E06CA04E3040E0641A95199518951795DD
:100F7000E06A04263043E062E06A30400E961B903F
:100F80001B98E06A1043E062E06A10401B901B98D7
:100F9000E06A1843E062E06A18401B901B981293C5
:100FA00004910F0708201190B8620D98B862402094
:100FB0000190B8620A98B8628B4910988862100252
:100FC0000B9088628E61B8610F98B8611995139C77
:100FD00016949003029015908448149215AE3146F1
:100FE000FFF7BCFB199516941498C0030690159052
:100FF0007E483146FFF7B2FB19951895179414985F
:1010000016901198159038463146FFF7A7FB1995B1
:1010100018951795149816900D98159038463146E6
:10102000FFF79CFB19951895179414981690019842
:10103000159038463146FFF791FB19951694129892
:101040001590694C20463146FFF788FB1995189595
:101050001795149816900E98159020463146FFF774
:101060007DFB199518951795149816900B98159067
:1010700038463146FFF772FB199518951795149865
:1010800016900F98159038463146FFF767FB199573
:1010900018951795149816900A9815903846314669
:1010A000FFF75CFB19951695069815903846314662
:1010B000FFF754FB19951695119815902046314667
:1010C000FFF74CFB199516950D9815902046314663
:1010D000FFF744FB199518951795149816901098DA
:1010E000159020463146FFF739FB1995189517954D
:1010F000149816900B98159020463146FFF72EFB5A
:101100003B4A1068149908430E2188431060224618
:10111000E06814990843129CA043D06010680799B6
:10112000084010601498C043324B59680140596020
:101130001968149A11431960D9680140D9609868F8
:101140001499084398602C48BF302C490A68024023
:101150000A602B48109901601A95199518951795F2
:1011600014984102274A506B08435063506B079113
:1011700008401B901B98D06A14990843D062D06A2B
:10118000149908401B901398169015941B9815A954
:101190000C973846FFF7E2FAFB48416A22462143A2
:1011A000416214998904426A0A434262F7490A6813
:1011B000F74B1A40149CE405019412190A60149A22
:1011C0005204466A16434662149C0A681A40A305F4
:1011D000D2180A604268D2071AD115E010E000E088
:1011E0003F1F0000FFCFFFFF000400500008005029
:1011F00008000140000401404000FFFF04E400E05B
:1012000000E100E0001002408268E24B134083607E
:101210000269089B1A430261C268A243C2600E9A27
:10122000D24383681340836063060E689E430E605A
:10123000149E0168114001600168119A9143016098
:101240004168D54A0A4003990A434260B30741689E
:10125000C90709D18168D14A0A4082601399890778
:10126000C2688A431A43C2600393FFF7C5FBBF4CB1
:10127000606B0A9908436063606B0840159015988D
:10128000E06A3043E062E06A30401B901A9519959D
:1012900018952F46139D1795129C1694109815902B
:1012A0001B9815A90A910C9E3046FFF757FA1A971A
:1012B000199716A8B0C00998159030460A99FFF7FB
:1012C0004DFAB74801684906B64D0E9B07D4016830
:1012D000AC4A114029430160416899434160C169AA
:1012E0000F9A9143C16141680D9A914341609F4AB1
:1012F000506B029908435063506B08401590159845
:10130000D06A14990843D062D06A08401B901A939F
:101310001997189713981790129816900798159088
:101320001B9815A90A910C9E30461C46FFF716FA29
:101330001A948E4C19970D97189713981790129826
:101340001690F935159530460A99FFF707FA964E2B
:101350003068C007954A119B52D1306894490140CA
:101360000C313160706884490840706010467030FC
:10137000B1680140B160E06C13990840090440185D
:101380008C4988420BD08C4988420ED08B49144638
:10139000884213D1FFF79CFB2246119B1FE0734844
:1013A000006D80010699084019E0704C20684007E4
:1013B00026D52068C00616D5824815E0FFF788FBC1
:1013C0006A4AD168D2689204520F7FA39A5C0906D8
:1013D000090F7FA3595C119BC840D04022460028CA
:1013E000624C02D10CE07648604CE12116460A02BC
:1013F00080184902FEF77CFE32466B4E119BF0606E
:101400000920C002716881437160B0682A21884355
:10141000B06030683146149E30430860A06B3043A2
:10142000A063A06B304015901598039D286810406C
:101430002860F920E8620898A8626869304368610A
:101440000998C743296839402960A9681046644A49
:101450000A40AA60E9691943E961296A0B9A914334
:101460002962296A6A68EB696A6060221A43132359
:101470009A43EA617C22EA63703008400799084386
:101480002862E9690E9B9943E9616968059A91436D
:101490006960A9683940A960E06A3043E062E06AA7
:1014A00030401B90129F1A970D9819901890179022
:1014B000169715931B9815A90C9D2846FFF74EF912
:1014C000262048A1FFF7D8FB2D4A106804998843CD
:1014D0001060274A9069302188439061206D000197
:1014E00013D4206D000E26D022490868119A1043AB
:1014F000086040480670206D01990843206530203F
:1015000045A1FFF7B9FB1D4C0FE01A490868119A75
:101510001043086037480770206D01990843206523
:10152000164C2D2039A1FFF7A7FB0F98A862109841
:10153000A061FFF771F90F4A50681168119B1943B8
:1015400011608007C017139908402A490870216D5F
:10155000019A114321650128D1D00328074C02D0FC
:101560000228DED0E1E7332023A1DCE700100240AF
:101570000800014000700040FFCFFFFF0004005052
:10158000000401404000FFFF0424014008270140FF
:10159000FFFF3FFF3CC2FEFFE8FFFF6FC73FFFFFBB
:1015A0000030014007030000003801408FFCFFFFBE
:1015B000F369FFEF030003000200030001000300D2
:1015C0000024F40000093D000000000001020304B3
:1015D00000000000000000000102030406070809E3
:1015E000F8BFFFFF53595354454D205245534554BE
:1015F000000000000000002057616B6575702066D8
:10160000726F6D207374616E64627900504F522066
:1016100072657365740000004E6F726D616C2072AC
:1016200065736574000000000FB47CB50C0009AD53
:1016300001D0611E00E0002101910090074B6A4635
:101640002946089800F032F8002C02D0009A0021B8
:1016500011707CBC08BC04B018470000FD190008DC
:101660002021020C01D010211046020A01D01046A0
:101670000839020901D01046091F820801D010461E
:10168000891E420801D0881E7047081A704702E080
:1016900008C8121F08C1002AFAD1704770470020FD
:1016A00001E001C1121F002AFBD17047FFB58FB0C6
:1016B0000546002606E025280AD0129A119990477F
:1016C0006D1C761C28780028F5D1304613B0F0BD8B
:1016D000002402940121B54A009400E004436D1CEB
:1016E0002B780846203B98401042F7D128782A28CA
:1016F0000ED00222287801463039092916D80299DD
:101700000A2359433039401814436D1C0290F1E705
:10171000109802C802911090002904DA01204003B9
:10172000044348420290022004436D1C28782E286E
:1017300017D10420044368786D1C2A280CD1109816
:101740006D1C02C8009110900BE000990A225143D1
:10175000303940186D1C009028780146303909292D
:10176000F3D928786C2810D006DC4C281AD06828C9
:101770000ED06A2817D104E0742813D07A2812D129
:1017800010E00120400504430CE00121090501E0BF
:10179000032109050C436978814203D1012000052A
:1017A00024186D1C6D1C2878692874D006DC00286C
:1017B0008BD0632827D0642806D16CE06E2808D02F
:1017C00073282CD0752878D0129A11999047761CDE
:1017D0005FE06002400F022809D003280DD00428E2
:1017E000109801680DD00E60001D109051E0109807
:1017F000F21701680E604A60F6E7109801680E80E3
:10180000F2E70E70F0E710986A4601781173001D38
:1018100010900020507303A80190012005E010985B
:1018200002C8019110900020C04361070CD5002729
:1018300000E07F1C00998F420FDA8742F9DB0199A3
:10184000C95D0029F5D108E0002700E07F1C874230
:10185000FCDB0199C95D0029F8D102982146C01B23
:101860000290129B119A00F0B3F88019C61907E094
:10187000019801990078491C0191129A1199904799
:101880007F1EF5D22146129B119A029800F090F823
:1018900086196D1C16E70A200190109901C9109154
:1018A0006102490F032900D100B2042900D140B2DE
:1018B000002803DA40422D2103E00DE0210504D584
:1018C0002B216A461173012103E0E10711D0202189
:1018D000F7E70CAF0C9114E00A200190109901C9B0
:1018E00010916102490F032900D180B2042900D16F
:1018F000C0B20021EDE70199FEF7FAFB30317F1EFF
:1019000039700028F7D104A8C01B2030019060076F
:1019100004D5012000048443009801E001200090D8
:101920000199884201DD401A00E000204118009032
:101930000C9809180298401A0290E00306D4214638
:10194000129B119A029800F043F8861900200D901E
:1019500008E003A9085C129A119990470D98401C61
:10196000761C0D900C998842F3DBE0030CD52146E0
:10197000129B119A029800F02BF8861904E0129A33
:10198000302011999047761C0099481E009000293C
:10199000F5DC05E03878129A7F1C11999047761C87
:1019A0000199481E01900029F4DC6BE70928010029
:1019B000F8B5044600251E461746880404D405E001
:1019C00039462020B0476D1C641EF9D52846F8BD65
:1019D000FFB50446002581B01E46C80301D5302757
:1019E00000E02027880404D505E038460399B04775
:1019F0006D1C641EF9D5284605B0F0BD4A68002A62
:101A000006D00A68531C0B6010704868401E48607E
:101A100070470D0A00000000281A0008000000208E
:081A2000480400009E160008B6
:04000005080000C12E
:00000001FF
