:020000040800F2
:1000000098050020B5010008BD460008B92C00087D
:1000100000000000000000000000000000000000E0
:10002000000000000000000000000000A94B0008D4
:100030000000000000000000BF460008AB4B0008B5
:10004000C7010008C7010008C7010008C701000870
:10005000C70100086D270008C7010008C701000894
:1000600000000000C7010008C7010008C701000820
:10007000C7010008C701000800000000C701000810
:1000800000000000C70100080000000000000000A0
:10009000C701000800000000C7010008C7010008F0
:1000A000C7010008C7010008C7010008C701000810
:1000B000C7010008C70100080000000000000000A0
:1000C00000F002F800F04BF80CA030C808382418F3
:1000D0002D18A246671EAB4654465D46AC4201D180
:1000E00000F03DF87E460F3E0FCCB6460126334267
:1000F00000D0FB1AA246AB4633431847BC8A000027
:10010000DC8A0000103A02D378C878C1FAD85207C6
:1001100001D330C830C101D504680C6070470000BD
:100120000023002400250026103A01D378C1FBD813
:10013000520700D330C100D50B60704710B5642959
:1001400002D100F095F810BD782902D100F0C6F870
:1001500010BD002010BD1FB51FBD10B510BD01F0B2
:1001600065FB1146FFF7F7FF05F0C0FC01F07DFBD2
:1001700003B4FFF7F2FF03BC01F0BAFB70B505460C
:100180000C46164602E00FCC0FC5103E102EFAD2D8
:10019000082E02D303CC03C5083E042E07D301CC9E
:1001A00001C5361F03E021782970641C6D1C761E82
:1001B000F9D270BD0748804707480047FEE7FEE7D1
:1001C000FEE7FEE7FEE7FEE704480549034A054B64
:1001D00070470000614C0008C10000089801002031
:1001E00098050020980100200FB41CB50C0007AA48
:1001F000009001D00019401E084B7B4469460190D5
:10020000069801F0BCF9002C03D06946002001F0EB
:10021000C9F91CBC08BC04B018470000B1130000A9
:1002200070B5044685690068C10601D5302600E036
:100230002026C00707D070BD62683046A16890478D
:10024000206A401C20626D1EF6D570BD70B5044654
:1002500085690078C00707D170BD6268A168202059
:100260009047206A401C20626D1EF6D570BD0000CC
:10027000F7B5002575291068009914A611D0C0465D
:10028000C046002802DA404211A608E00099096839
:100290008A0701D50FA602E0490704D50EA601255D
:1002A00001E0C046C046009F0024243704E001F06E
:1002B00086F930313955641C0028F8D12B46324676
:1002C0002146009801F0FEF8FEBD0000000000008D
:1002D0002D0000002B0000002000000070B5044637
:1002E0000D4621461068C046C0462188090502D542
:1002F0000F4A7A4402E00E4A7A440E322346002125
:10030000243305E006070009360F965D5E54491C4C
:100310000028F7D120780023000705D5702D03D0E1
:10032000002901D002231132204601F0CBF870BD24
:10033000DD860000F3B50446002081B0206220462F
:10034000E168884700287DD0252802D06268A1682E
:1003500083E0454F00257F442046E16888472028F8
:10036000064608DB312E06D2B8192038007800285E
:1003700001D00543F0E7A80701D5042085430020FC
:10038000E0610746A0612A2E0AD0304605F032F916
:10039000002827D0B8000019303E0090866119E08F
:1003A0000298BA00121902C8916102902046E168D1
:1003B0008847012F064617D1E06900281FDA202060
:1003C00085431CE000980A21806948430099801900
:1003D000303888612046E1688847064605F00AF90A
:1003E0000028EFD1012F0AD02E2E08D12046E16837
:1003F00088470646202005437F1C022FC3DBA069E7
:10040000002803DA4042A06101200543E80701D03B
:1004100010208543002E24D030464138192803D8B7
:100420000120C00205432036204625603146029A4D
:100430001546FFF783FE00280CD0012807D0ED1DDC
:10044000E80800E00DE0C0000830029077E72D1DBD
:10045000029574E762683046A1689047206A401CA4
:100460006CE7206AFEBD0000A186000001E004C028
:10047000091F0429FBD28B0701D50280801CC90704
:1004800000D00270704700290BD0C30702D0027061
:10049000401C491E022904D3830702D50280801C18
:1004A000891EE3E70022EEE70022DFE700220309CE
:1004B0008B4273D3030A8B4258D3030B8B423CD33A
:1004C000030C8B4221D312E003460B437FD400225E
:1004D00043088B4274D303098B425FD3030A8B42D8
:1004E00044D3030B8B4228D3030C8B420DD3FF2242
:1004F000090212BA030C8B4202D31212090265D010
:10050000030B8B4219D300E0090AC30B8B4201D3C2
:10051000CB03C01A5241830B8B4201D38B03C01A09
:100520005241430B8B4201D34B03C01A5241030B80
:100530008B4201D30B03C01A5241C30A8B4201D331
:10054000CB02C01A5241830A8B4201D38B02C01ADC
:100550005241430A8B4201D34B02C01A5241030A53
:100560008B4201D30B02C01A5241CDD2C3098B4238
:1005700001D3CB01C01A524183098B4201D38B01B5
:10058000C01A524143098B4201D34B01C01A524158
:1005900003098B4201D30B01C01A5241C3088B429D
:1005A00001D3CB00C01A524183088B4201D38B0088
:1005B000C01A524143088B4201D34B00C01A52412A
:1005C000411A00D201465241104670475DE0CA0F01
:1005D00000D04942031000D34042534000229C46C1
:1005E00003098B422DD3030A8B4212D3FC228901CB
:1005F00012BA030A8B420CD3890192118B4208D3A1
:10060000890192118B4204D389013AD0921100E002
:100610008909C3098B4201D3CB01C01A5241830916
:100620008B4201D38B01C01A524143098B4201D343
:100630004B01C01A524103098B4201D30B01C01A6E
:100640005241C3088B4201D3CB00C01A52418308E8
:100650008B4201D38B00C01A5241D9D243088B423E
:1006600001D34B00C01A5241411A00D201466346E1
:1006700052415B10104601D34042002B00D5494245
:10068000704763465B1000D3404201B50020C0466E
:10069000C04602BD70477047704700000246C80F51
:1006A000C00781434B0030B54B405B009B0D20D011
:1006B0001923DB06C91801231B05994220DB0324FB
:1006C000A40704251346AB400BD3002B04D1EB0643
:1006D00013409B00E34204D4012464070023121951
:1006E0005941FF231B0599420BD2C9000143500F0A
:1006F00009E0CB0204D501430803024305D00548B5
:1007000030BDFF21C905084330BD08460721090552
:10071000884330BD0000C07FF0B50C46871A9C416D
:100720000D46861A9D4103D2C01BA141D2196341D7
:100730000D0D1F0DC94EEC1BAE435CD07F057F0D28
:100740000026002F51D02D05AC46A943DD02012320
:10075000ED0A1B051D4320231B1B24D41746E7402D
:10076000381871412F46E740CC199D402818314672
:1007700061410C0D27D161449A4013D50023401CE0
:10078000594152000ED14008400001224B00520551
:10079000D34207D305204007C14201D5B04900E04C
:1007A000B0493046F0BD6B00002A00D001229A18F3
:1007B0001F23203C1B1B01D5002302E0E540281825
:1007C00071410C0DD7D0012424050919C407CD07A8
:1007D00040084908E40F28436144002CD5D0002488
:1007E000401C61419A40D0D1CDE76A05520DD9D164
:1007F000C90FC907D5E79C4D4E00002801D0012440
:1008000000E0002434195F00002A01D0012600E036
:100810000026BE19954FAC420CD8AE420AD8B4425D
:1008200006D001256D05EC42BCD010461946F0BD3E
:100830009942FCD000203946F0BDF0B51FB40C46FB
:100840000F46811A9F412546861A9D4106D20125F1
:10085000ED076F40401ABC4152187B41210D1E0D1F
:100860008D1BAC467D4D8D437ED075056D0D7CD0C6
:100870000D05AE46AC431B031B0B794D52429D4107
:10088000202366469B1B14D31746F74038180026D2
:100890000090744160462F460741E41900989D403E
:1008A0002818664116D4714671189A4025D501233F
:1008B00020E093182A466A415200002B00D0521CB7
:1008C0001E23203E9B1B002B61DD3541EE172818AF
:1008D0006641E8D5001876415B1C9A4000D3401C65
:1008E0004B05F3181524E34010D3002B52D071466A
:1008F0007118D30FC01802D3491C05B0F0BD0123F5
:10090000DB079A42F9D140084000F6E70122520580
:10091000B21801D1002853D00123CC0ADB0299433D
:10092000891E002A08D1020C03D0020C00041039E1
:1009300002E00246002020390023550B05D11202A7
:100940000823550B01D152010D23550C01D1120181
:100950001B1DD50C01D192009B1C150D01D152001D
:100960005B1C2025EE1A01E02CE022E00546F54054
:1009700015439840CA1AE10769181305C918002AD7
:10098000BBDA032040070818C10FC9070FE0714602
:100990006118B2E7F10740080843711071444A003A
:1009A0000CD001235B059A42A7D2C90FC9070020CA
:1009B000A3E74905490D26D1002001E00028F4D124
:1009C00000219AE7284D6600002801D0012100E0AF
:1009D000002171185F00002A01D0012600E00026E6
:1009E000BE19224FA94210D8AE420ED8B14208D04B
:1009F00001256D05E94206D01946A802414010467E
:100A00007BE79C4201D0214677E70020394674E716
:100A100010B50C465C4005D50124E4076340FFF7A0
:100A20000CFF10BDFFF778FE10BD30B40C465C40E3
:100A300004D50124E407634030BC6DE630BCFCE61D
:100A400070B50124E40761400D465D4002D4FFF714
:100A500063FE70BD6340FFF7F0FE70BDFF0700004E
:100A60000000F0FF0000F07F0000E0FF0000F87FD2
:100A7000F0B5F94D0C091E092C402E402F468BB0C5
:100A8000A7437DD0B543FCD0002E7AD0002CFCD0FB
:100A90000D465D40ED0F2543AC1BFF25AD046419E9
:100AA0000894C502440DC9022143500DDC020443E1
:100AB0000120C00701430443D2020191200C110C14
:100AC00000958C46010423468B430A916146090434
:100AD000E24D8A430991010A7D4449198039097818
:100AE00005464D4301266D18F605751B6943C90C73
:100AF000640B891C4C436418B5012C1B250C2E0477
:100B0000B4434C434D43210C691889090591009D5C
:100B1000E90701D00121C90704912C460199670812
:100B2000CD072F434C08059DE10B4D432D0C294665
:100B30006646754302950D4645432E46029D7D1B34
:100B4000B44100950D465D4301942C0C2F040D46D5
:100B50005543AE462D0C3D43029503947546049CC7
:100B60002D04641B049406D2029C039D641C002681
:100B700075410395029401AC70CC009F7D1B01E090
:100B80003EE162E1B44109040095079101940599A1
:100B9000A4086143090C0C464443650BE7040C466A
:100BA00066467443A646640B3C4303950294744620
:100BB000049DE4042C1B049406D2029C039D641C37
:100BC000002675410395029401AC70CC009F7D1BFB
:100BD000B44101940C465C430095650FE7000C4658
:100BE0005443A646640F3C43039502947446049D07
:100BF000E4002C1B049406D2029C039D641C002676
:100C000075410395029401AC70CC009F7D1BB441EB
:100C1000AE09AF06049DC900AD092F43049DA4068B
:100C2000AD060495079D344369180791059DE10BB6
:100C30004D432D0C29466646754302950D464543A6
:100C40002E46029D7D1BB44100950D465D430194E7
:100C50002C0C2F040D465543AE462D0C3D430295FA
:100C600003947546049C2D04641B049406D2029CD4
:100C7000039D641C002675410395029401AC70CC61
:100C8000009F7D1BB44101948C050694079C890A42
:100C9000611800950791019C0599A4086143090C0E
:100CA0000D464543680BEF040D46644665436C0BE7
:100CB0003C43049FED047D1BAC4602D20025641C1E
:100CC0006841009E019D371B8541084658430195A8
:100CD0000C46460FC5005443600F28436546E400A8
:100CE0002C1B02D20025401C6E41019D3F1AB541CC
:100CF0002846BD09800628438446A009BF064E0247
:100D00000699A40676180743079D002068410A99B2
:100D1000079019430020099B00906046FF19134378
:100D20004041E20F64003A43A4460446D71A8C417E
:100D3000A04203D90120009020463A46C70F9418DC
:100D400040416246D20F2243644664000494009CF2
:100D5000BE466400D71AA446044602978C417746E3
:100D6000002F01D1A04204D96046401C8446029A5B
:100D70002046C40FA64694184041049A0546D20F57
:100D8000224364466400D31A8D417146002901D183
:100D9000A84202D928461A46641C104301220028A2
:100DA00000D0164361020020079B891904465C416C
:100DB0000223002C02DB491813466441089DCE0A29
:100DC0002D145D194B056705E10A2C050D190899CD
:100DD0003E43C9076940002B08D0934006D3002248
:100DE000761C5141002B01D1760876001C4A002D5B
:100DF00043DB154241D0AA433FD030460BB0F0BD93
:100E000006180D464D41174C7642AC411AD3951841
:100E10001C465C41134A6D42A24113D30122520584
:100E20004C00D4420AD15C00D4420BD04B4002D5D6
:100E300092021143E2E749004908DFE75940C90F30
:100E4000C90718E000200849D8E7054801420DD13C
:100E50000342F7D0F2E700000000FF07307F0000F8
:100E60000000F07F0000E0FF0000F87F11485940CB
:100E70000143C01241400020C0E70123089A9B06AD
:100E80009A4205DC032252078918C90FC907B5E742
:100E9000052252078918074A1143D2125140ADE783
:100EA00070B515461C4602460B4628462146FFF7FC
:100EB000DFFD70BDFFFFFF7F30B50346CA02400D66
:100EC0001043164D164C0A1502D02043002A06DBAB
:100ED000AA1A002A12DDD040FF2A0BDC30BD5205D1
:100EE000520D01D140004008AA1A07D4D040404218
:100EF000FF2A01DD002030BD0028FCDD4A00002B68
:100F000001D0012000E00020101801225205D0423B
:100F1000F0D8C817C043604030BD00001E04000078
:100F2000000000800346CA02400D10B510430A15A8
:100F300004D00124E4072043002A05DB0A4CA21A4E
:100F400004D4D040FF2A00DD002010BD4A00002B51
:100F500001D0012000E00020101801225205D042EB
:100F6000F2D8C817C04310BD1E0400001F22030C96
:100F700002D10F22000402D0030E03D004E00020AF
:100F8000014670470002083A030F01D10001121F09
:100F9000830F01D18000921E002801DB4000521E09
:100FA000120551184205C012411810467047C10F72
:100FB000C90700D04042012292071143D6E7012120
:100FC0008907D3E7F0B58B4C0F09254689B0BD439F
:100FD0007BD01D092646AE43FAD00E465E40274020
:100FE000F60F3E43254071D024012142FBD0FF245F
:100FF000AD19A4042D1B039501252D05DB02DB0A89
:10100000C9022B43C90A29431E010901040F130F0A
:10101000050121431701880B820391432D098C465A
:10102000A90B1E438A039543B30B9A0396433F09CA
:10103000BA0B9403A74302962E467E430497B64606
:101040004E19D7190C460196544305977E43371B1A
:101050007646BF1B3601B646BE0B3619009676465D
:10106000BC043719009C01D3641C00946400002F59
:1010700001D001263443029E049F754366467E4399
:101080000496760034196E0034190094029C019E77
:101090001C196643751BAE46069465464519059CAA
:1010A00005956C43594375460891691A0191049E50
:1010B00001465143A41B0491611A009C0791E1066B
:1010C00005D061090122114302E072E06EE061097E
:1010D000089D00272C0A2D066918049D7C412A0AC8
:1010E0002D066918019D6241AC0DAD026D18544189
:1010F000079A910D920255196141029A644658432C
:101100005443069B059A5A43121A131B9A0E9B01CD
:101110005B187A41010B0005C3185141220A2006D1
:1011200044195A419A4200D2491C0120400281428E
:1011300003D315230226F64302E014230326F643C5
:101140002020C51AA9401746AF40DA400A4320467E
:101150000399D8400914731819055118039A384394
:10116000D2075140AC4009D00122944006D300225E
:10117000401C5141002C01D1400840001E4A9342BE
:1011800012D3012203989206904207DB0520400704
:1011900009181A480143C012414004E003204007E7
:1011A0000818C10FC907002009B0F0BD0020F107E1
:1011B000FAE705180C464C4111486D42A04115D381
:1011C00094181A465A410E48644290410ED30120A9
:1011D0004A004005824209D35A00824206D3594050
:1011E000C90F084AC90700201143DDE7002006495E
:1011F000DAE700000000FF07FE070000FFFFFF7FA7
:101200000000E0FF0000F07F0000F87F70B50546A9
:101210004800440D124B0020002C0AD0634008D037
:101220009A4206DA6642B24203DD12054019514184
:1012300070BD002C08D0002B09D0C90FC907002AA7
:10124000F6DB084A114370BDC90FC90770BD2846B7
:101250000A03104302D00020034970BD284670BD28
:10126000FF0700000000F07F0000F87F0121C905A2
:101270000123411842001B06D3185B0E0AD0C1108F
:101280000722D206891840075242D14201D55200A6
:1012900089187047090208D50146002A03D0C10FFA
:1012A000C9070020704710467047420202D0002054
:1012B00002497047072109050143F4E70000F87F60
:1012C000F0B5FF252D04C609C209FF2704462E40AC
:1012D0000137CB093E4348402A402B400746002AAD
:1012E0006BD0002B69D0AA4267D0AB4265D00028F2
:1012F00000DA32460125ED0529432C43090220027C
:10130000090AD21A4B0C7F24E31A434C000A7C448E
:10131000E35C7D242404121914145B00A218884293
:1013200001D3521C00E0400049420C465C432411AA
:101330005C43DB016415E318040A5C43C502200D1D
:101340000C4644436419250A5D432303EC0C0D4607
:10135000654300030019EB184C42A34201D35B180C
:10136000401CD4052018002B07D05B00C91804D3FB
:10137000401C002901D1400840003F2189048A42D5
:1013800009D3002A08DC1106090F04D003214907FC
:101390004018C00FC007F0BD012241001206891895
:1013A0007F2252069142F6D205214907C84201D553
:1013B0009010F0BDFF20C005F0BD002F00DA3246CE
:1013C0001648AA4207D2AB4205D21902090E17D01D
:1013D000F80FC007F0BDFF2563002D06AB42F9D81A
:1013E0004900A942F6D8AB4201D1A942F2D0A942A4
:1013F00001D1002101E061004908D0050843F0BD9A
:101400001102090EFBD0FF200243D005F0BD0A46B1
:101410000146104654E700007A7700000000C07FC4
:101420000102C21504D00123DB071943002A0ADB9D
:101430009E239A1A02D40846D0407047FF224100EA
:101440001206914201D900207047C017C04370476F
:101450001F22030C02D10F2200041CD0030E01D165
:101460000002083A030F01D10001121F830F01D1BE
:101470008000921E002801DB4000521ED205511848
:10148000021251181922904004D3491C002801D19E
:101490004908490008467047C10FC90700D04042BB
:1014A000012292071143D3E701218907D0E710B544
:1014B00000F0CCF8006810BD10B5044600F0C6F886
:1014C000046010BDFFB504460D4681B02430009085
:1014D0002168880604D51022E0699143216000E06C
:1014E0000120A84201DD471B00E000270498A16904
:1014F0007A191018081AA0612078C00602D4204674
:10150000FEF78EFE002608E003986268A168805D01
:101510009047206A401C761C206204988642F3DBC8
:101520002078C0060AD52046FEF77AFE06E06268FB
:10153000A16830209047206A401C206238467F1EF8
:101540000028F4DC07E000986268A168405D9047DD
:10155000206A401C206228466D1E0028F3DC2046CD
:10156000FEF774FE2078000602D5022005B0F0BD1B
:101570000120FBE701694A1C02610878704700B549
:101580008FB002910021059105490193794403919F
:10159000114604906846FEF7CDFE0FB000BD000076
:1015A000E5FFFFFF0A681070521C0A6070470CC903
:1015B00008399A4202D2531C0B60107070470146E2
:1015C0008008081A02091018020A1018020C1018D4
:1015D000C008820012185200891A01E0401C0A3922
:1015E0000A29FBD27047000010B5FF231B064400F8
:1015F0009C421DD84C009C421AD80346124A0B4309
:1016000007D4401A02D3EFF3008010BDEFF300803F
:1016100010BD081A06D2EFF3008001219043C907DC
:10162000084302E0EFF30080904380F3008810BD90
:101630000D231B041A4204D01146002000F00AF8C2
:1016400010BD00F0E7F810BD0000009000487047A2
:1016500038010020C80212D54803400F002804D0EA
:10166000C803C043012188407047EFF300800001A8
:10167000000903210907084380F300887047002010
:1016800070470000F8B5224C4E00069DA6420AD8CD
:10169000A64201D1002806D15E00A64203D8A64288
:1016A0000AD1002A08D00D24240425422CD0294632
:1016B0000020FFF7CFFFF8BD0C461C430CD4994225
:1016C00002D0EFF30080F8BD904202D0EFF300802B
:1016D000F8BDEFF30080F8BD09242407E5008B4234
:1016E00006D0EFF30080A043591A06D2284304E045
:1016F000101A05D3EFF30080A04380F30088F8BDF3
:10170000EFF30080A043F1E7009500F0B7F8F8BDD3
:101710000000E0FFF0B53D4B02460C461C400020A7
:10172000002C63D03A4D8B4366D000296BDB0B0D48
:101730001D05A94301252D0529430124FD33E3405F
:1017400001D392184941FF3381339C468B02940D9B
:101750000121234389074C42920200271B198C1058
:101760005D1A04D42D1B02D42B466500491992182A
:101770005B416408F4D15C1A08D40125ED07EE172B
:101780005519744102D42A462346491C94185B41DA
:10179000012292071D46E61B8D4106D4B61A8541EB
:1017A00003D42B46550034467F1924195B41520857
:1017B000802AEFD1234300D0022338460A22D040AA
:1017C00001D3012213438A0510436246890A120598
:1017D0008918002B09D00122D34002D30022401CDB
:1017E0005141002B01D140084000F0BD0B031343D1
:1017F00007D0C90FC907F0BD0803104303D1002962
:1018000001DB1046F0BD00202946F0BD0000F07F4E
:101810000000F87F10B5024800F03AF810BD000053
:101820000000C07F00487047380100207546FFF770
:10183000F9FFAE46050069465346C008C00085461C
:1018400018B020B5FEF7C0FC60BC00274908B646BA
:101850000026C0C5C0C5C0C5C0C5C0C5C0C5C0C5BF
:10186000C0C5403D49008D46704710B50446C0468E
:10187000C0462046FEF77CFC10BD000010B50020DD
:101880000249029A00F004F810BD00000000F87F41
:1018900010B50C461107090F092904D00A290AD0EE
:1018A00008290CD104E011460820FFF7D3FE06E01A
:1018B000510606D501E0510601D50120C007214699
:1018C00010BDD10607D501010909CC084907000E52
:1018D0000006044309E0410F20024907000A0143C2
:1018E000200E00061D22D14101430846E7E7000013
:1018F00001491820ABBEFEE7260002007047000039
:1019000038B41F488168C943C90733D181681D4C69
:10191000C9434A071C491D4B13D482682240103228
:1019200082601D690A46009505E01D69ED0300D53A
:10193000521E002A21D08568ED43ED06F5D5002A18
:101940001BD082682240921C82601A69009205E0D6
:101950001A69D20300D5491E00290ED08268D243ED
:10196000D207F5D0002908D0012101608168084A1A
:101970001140816038BC0020704738BC012070479E
:1019800000240140E8FFFF7FE803000000E000E0E2
:10199000E8FFFF6F10B4344883B08168C943C907BA
:1019A0004ED0012101608168304C01222140120794
:1019B000114381602E4903220B6892059343134320
:1019C0000B60642269460A810A890A800988002915
:1019D00069463DD00988002908D069460988C907A9
:1019E000C90F03D06B461A89521E1A816A461288A3
:1019F000491C521C91420BDA6A4613895B1E138103
:101A000013895B1E13811288891C521C9142F3DBDF
:101A10006946098981682140491C8160154A7D21F8
:101A20001369C900019305E01369DB0300D5491E62
:101A3000002909D00368DB43DB07F5D1002903D077
:101A400003B010BC0020704703B010BC01207047E9
:101A500009890029DCD06A461189491E1181118942
:101A60000029F8D1D4E7000000240140E8FFFF7FFF
:101A70000827014000E000E0F0B51D4900248BB0CC
:101A80000843054602AF022208A9284600F09CF848
:101A9000002802D000200BB0F0BD6846408CFFF754
:101AA00003FD064613481449008B4843FFF7FCFC2E
:101AB0003146FFF705FC06466846008CFFF7F4FC4C
:101AC00001900E493046FFF7FBFB019904F090FEB0
:101AD0000B49FFF7F5FBA100641CE4B27850052C1C
:101AE000D1D3052102A803F08DFD0BB0F0BD00009D
:101AF000000002C46000F81FB80B000000F07F4532
:101B000000007A4410B42E4883B08168C943C907E5
:101B100047D0C314036081681722914342051143E3
:101B20008160284A7D211469C900019405E0146987
:101B3000E40300D5491E002933D00468E44324059A
:101B4000F5D400292DD00360022168460181018966
:101B5000018000880028684627D00088002808D027
:101B600068460088C007C00F03D06A461189491E25
:101B7000118169460988401C491C88420BDA694674
:101B80000A89521E0A810A89521E0A810988801C0C
:101B9000491C8842F3DB6846008903B010BC002072
:101BA000704703B010BC0120704700890028F2D0B4
:101BB00069460889401E088108890028F8D1EAE7AB
:101BC0000024014000E000E0F8B42C4D2B68DB431A
:101BD000DB074FD1002802D04003400BA862082049
:101BE0002860042028607D260027F600244C002A67
:101BF00023D9A868C043400704D5A868214B1840E2
:101C0000001DA86023693046009305E02369DB03CB
:101C100000D5401E00282DD02B68DB435B07F5D490
:101C2000002827D0286C0005000D7B00C852042036
:101C300028607F1CFFB29742DBD3A868C0434007EF
:101C400013D4A8680F4908401030A860206900909C
:101C500005E02069C00300D5761E002E0AD0A868D2
:101C6000C043C006F5D5002E04D008202860F8BC7B
:101C700000207047F8BC012070470000002401409C
:101C800000E000E0E8FFFF7F8108044A890089182E
:101C9000096D8007C00EC140C8B2704700280040DF
:101CA000024980004018006D704700000028004085
:101CB00010B413480168134AC943C90502D5016825
:101CC0001143016010490C690123DB041C430C61C2
:101CD0000C699C430C610168914301600B4A002030
:101CE00081008918096D002902D010BC01207047BD
:101CF000401CC0B20528F3D310BC00207047000080
:101D00000070004000010000401002400028004028
:101D100010B40C4A1368DB43DC050B4B02D5146886
:101D20001C431460840009482018016514689C4312
:101D30001460006D884202D010BC0120704710BCB6
:101D400000207047007000400001000000280040A3
:101D5000FFB581B001987D2104781D46C900204659
:101D60000A9F0B9EFEF7A2FB694608707D21C90001
:101D70004843241A64212046FEF7A6FBC2B26946F6
:101D80004A7064204243A41A0A212046FEF79CFBB5
:101D9000694688700A214843201A6946C87002982B
:101DA0000321081AC117890F091889088900401AE8
:101DB000C4B22D480069C04300070FD5132001F0BD
:101DC00049FD29480069C043000707D56846015D01
:101DD000039A914215D2491C015513E0224800692B
:101DE000C043C0062BD5132001F034FD1E48006906
:101DF000C043C00623D56846015DA9420AD9491EE1
:101E000009E0055501203870184C3070207B0028FF
:101E100009D114E00399015501203870134C30703A
:101E2000207B00280BD07D256D01284600F058F856
:101E3000607B00F071F81321284600F019F868461D
:101E4000C17800787D22D20050430A186846417854
:101E500064204143684680780A2358430818019952
:101E60001018087005B0F0BD0004005024000020D8
:101E700070B50E460F4C104D010014D00F4A914220
:101E800001D9012006E01046FEF710FB0C498842FC
:101E900000D90020E062616A814201D900206062BD
:101EA000206A28432062304601F0D4FC206AA8430F
:101EB000206270BD000000400001000040420F00A1
:101EC000FFFF0000FF2201329005016A9143016289
:101ED0000021416201680122114301607047000046
:101EE0000B4A10B50146904201D9012006E0104688
:101EF000FEF7DCFA0749884200D900200121890752
:101F0000C8624A6A824201D90020486210BD0000BE
:101F100040420F00FFFF0000F8B50126B607F76A40
:101F20000B21FEF7C3FA0846FFF749F800223346B3
:101F300003F00CFE04460D463846FFF740F8002239
:101F4000D243FFF763F90022054BFEF791FD2246CD
:101F50002B46FFF737F8FEF7E5FFF063F8BD00000A
:101F600000005940F0B583B00D46044603F054FC20
:101F7000002836D1204B58682121090108435860B8
:101F800000206D1C0090A8B28446644520D27D25B7
:101F9000ED001A4800271A49A20056183760026956
:101FA0002946019205E00269D20300D5491E0029A5
:101FB00007D09A69D207F6D1002902D031680029EA
:101FC00002D00120009003E0641CA4B26445E2D377
:101FD0005868212109018843586003F0F9FB002863
:101FE00002D0012003B0F0BD00980028FAD0641C94
:101FF000A0B203B0F0BD00000020024000E000E00D
:1020000000000808014940180078704700000808DF
:1020100070B50C46054603F0FFFB002809D10748C0
:102020002D182C7003F0D4FB002802D12878A04290
:1020300001D0012070BD002070BD00000000080824
:1020400004480069C043C00701D000207047012048
:10205000704700000004005070B5FF2629360021AB
:1020600010233246084600F01DFB242003F0FCFB41
:1020700000243501FF2003F00BFC641CA4B2AC4229
:10208000F8D3002110233246084600F00BFB70BD48
:10209000FFB589B00A994A070C99520F5118491E89
:1020A000CA17520F5118C910491CC9B201910A9997
:1020B000019BC9080B9A00F0F5FA002006900B98D6
:1020C000002846D9019800250A9E0C9C002839D981
:1020D0000020694608747007400F08280FD280223C
:1020E0001146C1406B461B7C641E19436B46240697
:1020F0001974240E03D0401CC0B20828F0D36946DE
:10210000087C0026C043087404A8039001272420FB
:1021100003F0AAFB0297082005273F07B86140207B
:10212000B862012003F01DFB0299039804F056FAEF
:10213000012003F016FB4020B8616D1C0198EDB240
:102140008542C5D30698401C80B206900B99884200
:10215000B8D30DB0F0BD70B515465278D6082A78C0
:10216000334600F09FFA2878AC1C7043801E85B27D
:10217000242003F079FB082005263607B0614020B3
:10218000B062012003F0EDFA2946204604F026FA59
:10219000012003F0E6FA4020B06170BDFFB587B0C2
:1021A000002002900A980078002879D0119FF81D2D
:1021B00004901098BD1D001D7E1D3F1D03901098BA
:1021C000002844D00A980178080640D4202935D048
:1021D0001098039B4278807894464243D408109A22
:1021E0001278891A039A614389180A190091109983
:1021F000C9786143C9188A4220D8C3080799029850
:102200006246081880B2089900F04CFA242003F0C6
:102210002BFB009800940190082005242407A0615E
:102220004020A062012003F09CFA0099019804F07C
:10223000D5F9012003F095FA4020A0611098029989
:10224000427809980818101880B20290B4E01198EA
:1022500000287DD00A98007801067AD5012142062F
:1022600009D50221820606D50321C20603D5042121
:10227000020700D50521022904D0032911D0042921
:1022800067D124E00A994978002962D0C006410D3F
:102290000A98401C0A9000788006800E084333E0BC
:1022A00091E00A99497800297ED00A998978002915
:1022B0007AD00007020C0A984178801C0A9089069F
:1022C0000078090D80061143800E08431CE00A992E
:1022D0004978002968D00A998978002964D00A9938
:1022E000C978002960D04007C10A0A98427892064E
:1022F000920B0A438178C01C0A9089060078090D68
:1023000080061143800E084300284DD01199119A80
:1023100049780591927800245143C9080191119997
:102320009646C9788C4600293ED90199C91C00916E
:102330006143CA5D13048A5D495D12021A43114369
:1023400081422BD17046C30802990798401801E0DA
:1023500032E029E080B2059A089900F0A3F90098CC
:1023600004996043401800902420019C03F07CFAFB
:10237000009800940190082005242407A0614020C3
:10238000A062012003F0EDF90099019804F026F90C
:10239000012003F0E6F94020A06105E0641CE4B2EE
:1023A000A44501D90099C3E7119809994278029888
:1023B0004018101880B202900A98401C0A900078C9
:1023C000002800D0FBE60BB0F0BDFFB589B00A993C
:1023D0004A070B99520F5118491ECA17520F51182C
:1023E000C910491CC9B201910A99019BC9080C9AEC
:1023F00000F058F9002006900C98002846D9019862
:1024000000250A9E0B9C002839D9002069460874D3
:102410007007400F08280FD280221146C1406B463A
:102420001B7C641E19436B4624061974240E03D0CA
:10243000401CC0B20828F0D36946087C0026C0437F
:10244000087404A803900127242003F00DFA0297D2
:10245000082005273F07B8614020B862012003F03B
:1024600080F90299039804F0B9F8012003F079F992
:102470004020B8616D1C0198EDB28542C5D3069825
:102480000C99401C80B206908842B8D30DB0F0BDC4
:1024900008B5222003F0E8F9032003F0F9F9202021
:1024A00003F0E2F90A2003F05CF90D4B0B481969BF
:1024B00000910C4906E01A69D20301D5401E80B292
:1024C000002803D00A69D243D207F4D0102003F0C9
:1024D000CBF9012003F0DCF908BD00001027000053
:1024E00000E000E00004005008B5222003F0BCF931
:1024F000022003F0CDF9202003F0B6F90A2003F002
:1025000030F90A4B084819690091094906E01A692F
:10251000D20301D5401E80B2002803D00A69D243FD
:10252000D207F4D008BD00001027000000E000E052
:1025300000040050F8B50546102005242407A062C9
:10254000002001F087F91020A061002001F082F93D
:10255000012D16D0122003F087F90A2003F001F9AB
:102560004B4B4A4918694B4A009006E01869C00372
:1025700001D5491E89B2002903D01069C043C007A4
:10258000F4D0012003F070F9272003F081F9012035
:1025900003F07EF9002003F07BF90C2003F064F9CE
:1025A000D72003F075F9D62003F072F99D2003F0CF
:1025B0006FF9112003F058F9012003F069F92C207C
:1025C00003F052F99A2003F063F93A2003F04CF932
:1025D0001A2003F05DF93B2003F046F9082003F0D0
:1025E00057F9012D1FD03C2003F03EF9332003F0B2
:1025F0004FF9002D33D0022D14D1322003F034F9DD
:102600001E25254E0820A0614020A062012003F075
:10261000A8F82946304603F0E1FF012003F0A1F8B5
:102620004020A061F8BD3C2003F01EF9012003F01A
:102630002FF9322003F018F91E25184E0820A0614A
:102640004020A062012003F08CF82946304603F0B8
:10265000C5FF012003F085F84020A061F8BD3220BD
:1026600003F002F91E250E4E0820A0614020A06252
:10267000012003F076F82946304603F0AFFF012031
:1026800003F06FF84020A061F8BD000010270000A3
:1026900000E000E000040050B589000897890008B8
:1026A00079890008F8B50D46FF2128310C1AA61AC1
:1026B0005F194420761C7F1E03F0D6F8284603F0ED
:1026C000E7F8F806C00E03F0E3F8452003F0CCF875
:1026D000E0B203F0DDF8E005C70F384603F0D8F8A4
:1026E000F0B203F0D5F8F005C00F03F0D1F84E209A
:1026F00003F0BAF8284603F0CBF84F2003F0B4F803
:10270000E0B203F0C5F8384603F0C2F8F8BD0000A7
:1027100038B50446222003F0A7F8C42003F0B8F827
:10272000202003F0A1F8002C15D00A2003F019F89E
:102730000C490B480A6900920B4A06E00B69DB035F
:1027400001D5401E80B2002807D01369DB43DB07A8
:10275000F4D0002801D0002038BD012038BD000091
:102760001027000000E000E0000400500348416929
:10277000C943C90701D101214161704700040140EB
:1027800070B5054600242046FFF73CFC2855641C24
:10279000E4B2142CF7D32878AA280CD006A3104A48
:1027A000104911A002F0CAFD1448014620311EC98B
:1027B0001EC5006B286070BD52656164207365742E
:1027C00074696E67206661696C2C2075736520647E
:1027D000656661756C742073657474696E6700005A
:1027E00062030000688900082E2E5C5372635C55FA
:1027F0005345525C66756E632E63000010890008B5
:1028000030B583B0054600242046FFF7FBFB295D69
:10281000884202D02046FFF7FBFB641CE4B2142C74
:10282000F2D31AA002F0AAF919A002F0A7F91C48E5
:1028300002F0A4F900240125ED0220070BD113A01A
:1028400002F09CF9234617A20A216846FDF7CCFC4A
:10285000684602F083F92046FFF7D4FB034614A232
:102860000A216846FDF7C0FC684602F077F9641C4F
:10287000A4B2AC42E1D305A002F080F90EA002F0B0
:102880007DF902A002F07AF903B030BD000000002B
:10289000454550524F4D2044554D503A00000000E0
:1028A000608B00083078253034582020202000002C
:1028B0003078253032582000454550524F4D204445
:1028C000554D5020454E4400F0B57D2085B0400167
:1028D000FFF706FB0320FFF71FFB7D24E4003121F7
:1028E0002046FFF7C5FA312000F0B4FF3121204621
:1028F000FFF7BEFA312000F0ADFF31212046FFF78F
:10290000B7FAFF2291A370329649974802F016FD5C
:10291000FF2296A371329349934802F00FFD02F013
:1029200041F8002807D0FF2294A374328D498E48C5
:1029300002F004FD06E0FF2294A3783289498A4818
:1029400002F0FCFCFF2295A37A328649864802F009
:10295000F5FC02F015FA002807D0FF2293A37D3280
:102960008049814802F0EAFC06E0FF2294A381320C
:102970007C497D4802F0E2FCFF2296A3833279492C
:10298000794802F0DBFCFFF793F9002807D0FF221B
:1029900094A386327349744802F0D0FC06E0FF220B
:1029A00094A38A326F49704802F0C8FCFF2295A3B5
:1029B0008C326C496C4802F0C1FC96490020FFF74C
:1029C000D1FA002807D0FF2293A38F3265496648C9
:1029D00002F0B4FC06E0FF2294A3933261496248FE
:1029E00002F0ACFCFF2296A395325E495E4802F0ED
:1029F000A5FC974802F0C2F8964802F0BFF8964846
:102A000002F0BCF800240125ED0220070BD190480C
:102A100002F0B4F82346914A0A216846FDF7E4FB28
:102A2000684602F09BF82046FFF7ECFA03468C4A12
:102A30000A216846FDF7D8FB684602F08FF8641C4F
:102A4000A4B2AC42E1D3824802F098F8854802F083
:102A500095F87F4802F092F87D4802F08FF882A046
:102A600002F08CF8002031253026039001F07CFF25
:102A70000446824800220423684480210F46D74040
:102A8000274201D0457000E04670571CF9402142B2
:102A900001D0857000E08670801C921C5B1E1B06B6
:102AA0001B0EEAD1002069460872684602F056F80B
:102AB000234673A209216846FDF796FB684602F09B
:102AC0005DF80398401CC0B203901328CED36EA0CB
:102AD00002F054F85E4802F051F85D4802F04EF8FA
:102AE0006EA002F04BF85C4802F048F80024200782
:102AF0000BD1574802F042F82346584A0A2168464B
:102B0000FDF772FB684602F029F8E0B2FFF7BCF867
:102B10000346534A0A216846FDF766FB684602F001
:102B20001DF8641CA4B2142CE1D3494802F026F825
:102B30005DA002F023F8464802F020F87D20C7216E
:102B4000C000FFF795F905B0F0BD000042454749C8
:102B50004E20524553455420414C4C204441544151
:102B6000000000005F890008E82700085254432055
:102B700072657365742E2E2E00000000525443209F
:102B80007265736574206661696C0000525443205D
:102B9000726573657420646F6E65000053454E5313
:102BA0004F522072657365742E2E2E0053454E537E
:102BB0004F52207265736574206661696C00000075
:102BC00053454E534F5220726573657420646F6E87
:102BD00065000000424B50522072657365742E2EC2
:102BE0002E000000424B50522072657365742066BF
:102BF00061696C00424B50522072657365742064A9
:102C00006F6E6500454550524F4D20726573657477
:102C10002E2E2E00FF010000454550524F4D2072D0
:102C200065736574206661696C000000454550520B
:102C30004F4D20726573657420646F6E65000000EF
:102C400050726F6365737320646F6E6500000000DF
:102C50008C28000890280008608B0008A428000831
:102C6000B0280008B82800084453333233312052CA
:102C700045472044554D503A00000000FFFFFFFF3C
:102C800020307825303258004453333233312052CB
:102C900045472044554D5020454E4400424B50522C
:102CA0002044554D503A0000424B50522044554D5F
:102CB0005020454E4400000007A001F05FFF0D4882
:102CC00000F0C8FDBFF34F8F0C490B48C860BFF33D
:102CD0004F8F00BFFDE700002A2A2A2A2A20494EEA
:102CE0002048415244204641554C5421202A2A2A4A
:102CF0002A2A0000E70300000400FA0500ED00E0C6
:102D000008B50D4B7D201969C00000910B4905E005
:102D10001A69D20300D5401E002808D08A69D24320
:102D20005207F5D4002802D0486AC0B208BD02F0AC
:102D3000C3FD002008BD000000E000E0005400409A
:102D4000F8B53C4DAB693C4E1B043C4FDB0F0FD03C
:102D50003C693346009405E03C69E40300D55B1E02
:102D6000002B31D0AC69E443E407F5D1002B2BD024
:102D70006B680124E402A3436B606B689B0A9B02AF
:102D800003436B6060106B68002922D083430343C8
:102D90006B60686801231B06984368606868FF23BE
:102DA0001B049843120410436860686801225206AD
:102DB0009043686068681213104368603869009037
:102DC0001020002911D024E002F076FD00282ED03A
:102DD0002BE08343DCE73969C90300D5761EA96976
:102DE000C943C9060ED5002E1BD0A969C943C9071E
:102DF000F1D112E03969C90300D5761EA969C9432A
:102E0000C90604D4E9690143E9610320F8BD002E35
:102E100007D0A969C9434907ECD4002E01D000208E
:102E2000F8BD02F049FD002801D00220F8BD0120C4
:102E3000F8BD000000540040E803000000E000E09E
:102E400038B51B4B7D20C0001A6901460092194A13
:102E500005E01C69E40300D5491E00290DD09469E2
:102E6000E443E407F5D1002907D051680124A40305
:102E700021435160196900910AE002F01DFD00280C
:102E800014D011E01969C90300D5401E002807D0ED
:102E900091690904C90FF5D1002801D0002038BD7F
:102EA00002F00AFD002801D0022038BD012038BD03
:102EB00000E000E00054004038B50F4B7D211A6956
:102EC000C90000920D4A05E01C69E40300D5491EC3
:102ED000002908D09469E443E407F5D1002902D021
:102EE0009062002038BD02F0E7FC002801D00220EB
:102EF00038BD012038BD000000E000E00054004073
:102F0000F0B583B095A001F039FE132000F0A2FCCB
:102F10009A4905200A6882430A609949086A302262
:102F20009043086200F0F4FC964D012828707DD093
:102F300002287CD003287BD0FF2293A3B732964986
:102F400096A002F0FBF90120C00205221207906250
:102F5000974C2020A061C10191611426684606812A
:102F60000389038000880028684671D00088002803
:102F700008D068460088C007C00F03D06F463B8961
:102F80005B1E3B816B461B88401C5B1C98420BDA26
:102F90006B461F897F1E1F811F897F1E1F811B8813
:102FA000801C5B1C9842F3DB68460089916268468E
:102FB0000681038903800088002868467ED0008847
:102FC000002808D068460088C007C00F03D06E46AE
:102FD00033895B1E33816B461B88401C5B1C984207
:102FE0000BDA6B461E89761E1E811E89761E1E8197
:102FF0001B88801C5B1C9842F3DB6846008991614A
:10300000012000F027FC6B480168C943C90703D0C1
:103010000168012211430160FEF772FCFEF772FDA8
:10302000FEF7B8FCFEF74EFF0A2002E011E007E0D1
:1030300017E0FEF771FF28785F4E012819D045E0B0
:10304000FF225EA3AE32544954A002F077F97AE72A
:103050006CE0FF225DA3B1324F4950A002F06EF93F
:1030600071E7FF225DA3B4324B494CA002F066F930
:1030700069E72069C043000711D5132000F0EAFB7F
:103080002069C04300070AD52069C043C00606D5A1
:10309000132000F0DFFB2069C043C00604D40420E5
:1030A000FEF7F2FDAA2811D1FFF70EFC5048FFF7FA
:1030B000A7FB314620311EC94E4800E042E00546DC
:1030C0000C351EC5316BC16101F024F84A4D002456
:1030D0002046FEF797FF2855641CE4B2142CF7D362
:1030E0002878AA280BD0454B454A4649464802F065
:1030F00025F9304620300FC80FC5306B2860434893
:10310000FEF7BAFC3C49896803F048FB0CD2FF2269
:103110003FA3CC32204921A002F010F901F019FBA5
:1031200001F010FB00F0CEFB03B0F0BD00890028D9
:1031300000D139E76B461889401E1881188900288C
:10314000F8D131E70089002800D156E768460389A5
:103150005B1E038100890028F8D14EE70D0A0D0A95
:103160002A2A2A2A2A2053595354454D205245537E
:103170004554202A2A2A2A2A0D0A00000004014068
:103180000000014004000020556E6B6E6F772072C6
:103190006573657400000000106A00082E2E5C53F1
:1031A00072635C555345525C66756E632E63000016
:1031B000000400500054004010890008506F7765EB
:1031C00072206F6E20726573657400004E6F726DB1
:1031D000616C2072657365740000000057616B6557
:1031E00075702066726F6D207374616E6462790011
:1031F000308900081800002024000020B8270008AB
:103200006203000068890008E82700080200000443
:1032100042617474657279206C6F772C20446972F6
:1032200065637420656E746572207374616E646288
:1032300079206D6F6465000070B483680022DB4301
:10324000DB0710D08C684B68C5682343CC68084EF8
:1032500035402C432343C360036909689B009B08E6
:103260000B43036100E0012270BC10467047000070
:10327000C73FFFFF30B483680022DB43DB070ED07B
:103280004C680B68CD6823438C6809692C43234341
:103290000B43C168044C21400B43C36000E0012292
:1032A00030BC1046704700003CC2FEFF10B40479E9
:1032B00000232B490268002C47D0002A4CD04479C7
:1032C000002C0FD0012C15D0022C1BD001238279A9
:1032D000002A41D0012A1DD0022A24D0032A2BD053
:1032E000012339E04C6894434C6002680C68144335
:1032F0000C60ECE70C6894430C6002684C68144363
:103300004C60E4E70C6814430C6002684C6814439A
:103310004C60DCE70268CC689443CC6000688A6843
:1033200002438A6018E002688C6894438C600068ED
:10333000CA680243CA600FE002688C6814438C605C
:103340000068CA680243CA6006E00C6894430C60D7
:1033500000684A6882434A6010BC18467047000003
:1033600000040140F0B40A680024002A51D001236F
:103370000A68A3401A4048D04B68012B01D0022BA9
:1033800010D18E688568134653435F00DF19BD4333
:1033900073431D438560CE680B6845689D43734346
:1033A0001D4345600F69C668134653435D005D19B0
:1033B000AE435F433E43C6604E68022E1FD1FF2AD4
:1033C0000ED817464A69066A94461A467A437A43E3
:1033D0001701BF1ABE4367467A43164306620EE0E2
:1033E000160A324672434F6972437243BC46160155
:1033F000B71A466ABE4367467A43164346624E682A
:1034000002687343AA431A4302600A68641CE240DC
:10341000ADD1F0BC0020704702460E4B00200E4993
:103420009A4208D101228B6A520513438B628B6A40
:1034300093438B627047094B9A4208D101228B6AF1
:10344000920513438B628B6A93438B627047012012
:103450007047000000540040001002400058004037
:1034600030B402685208520002608C68CA6803686F
:103470001F252D021202AB432243134303604A6807
:103480000261026801231A4302608268DB039A43E7
:1034900082608C690A6985682243ED0AED02154352
:1034A00085600A69002A02D082681A4382600C682B
:1034B000026803252D05AA43224302604A69416838
:1034C00099431143416030BC0020704710B57D2105
:1034D000C900FCF7EBFF0449401E486100208861E9
:1034E0000520086110BD000000E000E0F8B5324B97
:1034F000014600209E00F025304A314C03291BD0A4
:103500000C2918D1D7680F4009040F432D497918A9
:103510003CD004293DD0082947D001F0D1F8E1681A
:1035200029400A092849895CC840E168274A4905B9
:10353000490F515CC840F8BDD16803278907890F3E
:103540003F043943FF43C91920D0012910D0022973
:1035500017D001F0B5F8E16829400A091A49895CD9
:10356000C840E168194A8904490F515CC840F8BD58
:103570002168C9434907FAD42068C043C00610D562
:1035800011E011698905C90F13D1F8BD01F098F850
:10359000F8BD2168C9434907FAD42068C043C00672
:1035A00001D41846F8BD3046F8BD11698905C90F28
:1035B000FAD00120C003F8BD00093D0040100240D0
:1035C00000100240FCFFF3FFEE690008076A0008E4
:1035D00010B403680122DB435B0625D54B680A68FB
:1035E000CC681A438B6823431A430B691A434B690F
:1035F0001A438B691A43CB691A430B6A1A4303684F
:103600000D4C23401A430260426804239A434B69DD
:103610001B0C1A43426001230A6A5B039A4202D1DF
:10362000898C89B201610022C1690123DB029943BF
:10363000C16110BC104670474000FFFF014908609F
:10364000704700000000002070B4026801239B074F
:10365000114C124D984203D0A04201D0A84203D190
:103660007026B2434E683243984203D0A04201D044
:10367000A84204D103231B029A43CB681A43026079
:103680008A68C262098881624169012211434161ED
:1036900070BC002070470000000801400014014089
:1036A000F0B401240023702501292AD00326360214
:1036B000102940D0FF39491E5BD00F252D02A942A9
:1036C0001CD1016A2503A9430162016A4768C469E4
:1036D000B44307263603B4431668360234436E00FB
:1036E000B143D66836033143A943556847602D037B
:1036F0002943C4619268026401621C462046F0BC02
:103700007047016A490849000162046A4668816994
:1037100089088900A943156829430225AC43D56867
:103720002C436408556864002C43466081619168AD
:10373000416304621BE0016A1025A9430162016A2A
:1037400047688469B44307263603B44316683602D3
:1037500034432026B143D66836013143A943556826
:1037600047602D01294384619268826301621C468F
:10377000C4E7016AFF260136B1430162016A476866
:10378000C469A408A400AC4315682C437500A94380
:10379000D5682D0229435568B1432D02294347605E
:1037A000C4619268C26301621C46A7E770B5044613
:1037B00000680D460126C043C00741D0E96868682B
:1037C000AA69084329691143084321681D4A114029
:1037D00008432060A96860680322120390430843ED
:1037E00060606969A068121190430843A0601648A0
:1037F000844201D1032003E01448844220D10C20EC
:10380000FFF774FE00281BD02968002918D0012377
:10381000AA690026DB039A420CD140004A088018AE
:10382000FCF744FE81B20A4808400907490F0143EA
:10383000E16005E04A081018FCF738FE80B2E0604D
:10384000304670BDF369FFEF00380140004400408E
:10385000F0FF0000074981B00A690092421C00D0C5
:10386000401C0A69D20300D5401E0028F9D101B0DE
:103870007047000000E000E010B40E480521026827
:103880008A4302600168002202600B4A42610368B9
:10389000052213430360094A13690424A3431361F7
:1038A000074A136808242343136030BF016010BC2B
:1038B0007047000000040140FFFF7B0000ED00E0C6
:1038C0000020024010B41048FF21426801318A43B1
:1038D00042600368042213430360036808242343FF
:1038E000036043680B43436001684315194301605B
:1038F0000168022399431943016004480169114397
:10390000016130BF10BC70470070004000ED00E066
:1039100010B40F4A10690F490001C00F01D00220F6
:103920000BE01069000E01D0012006E04868C0439A
:10393000800701D4032000E000200B680824234303
:103940000B60116923051943116110BC7047000019
:1039500040100240007000403548007801280AD02D
:10396000022802D0032812D108E000F009FF002845
:1039700001D000F0CFFBFEF79BF908E000F0F7FE66
:10398000002802D000F0E5FE01E000F0C3FBFF22BA
:1039900028A3EE322D492EA001F0D0FC01F018FA38
:1039A000FF2230A3F032294929A001F0C7FC0524E9
:1039B00024072069C0430004FBD41320FFF74AFF0B
:1039C0002069C0430004F4D4FF222CA3F4321F4921
:1039D0001FA001F0B3FCFFF775FFFF222EA3F93201
:1039E0001A491BA001F0AAFC3148FFF733FFFF2260
:1039F00030A3FB32154916A001F0A0FCFFF762FFCF
:103A0000FF2225A3FD32114911A001F097FCFF22EE
:103A100030A3FE320D490EA001F090FCBFF34F8F92
:103A200033493248C860BFF34F8F00BFFDE7000045
:103A300004000020426567696E20686F6D657061E3
:103A4000676520757064617465000000156A000880
:103A50002E2E5C5372635C555345525C66756E63E3
:103A60002E630000486F6D65706167652075706436
:103A700061746520646F6E650000000052656164CA
:103A80007920746F20656E746572207374616E6442
:103A90006279206D6F646500456E74657220737481
:103AA000616E646279206D6F6465206661696C0087
:103AB000E703000054727920746F20656E7465729C
:103AC000207374616E646279206D6F646520616734
:103AD00061696E0054727920746F20726573657429
:103AE000207468652073797374656D000400FA05AD
:103AF00000ED00E070B590B00025029503950495A7
:103B0000009501950795089509953D4806950C95F2
:103B10000D950E950F950121426B49020A434263B0
:103B2000426B0A400592C26A01210A43C262C06A1E
:103B3000022608400A96059003200B9005200AA94A
:103B40000007FFF70FFC2F4CA06A3043A062A06A69
:103B500071040843A0622C4E4A013168032080059D
:103B6000814311433160A16A92111143A16231680E
:103B700052018143114331600095019502950395EF
:103B8000694620460495FFF775FB6169072081436C
:103B9000014361612069400840002061E168042020
:103BA0008143E1603168C2059143316061688143BE
:103BB00061606068082188436060A068134908401C
:103BC000D1000843A060134811490068FCF76EFC5F
:103BD0000A214843FCF76AFC002802D00E4A9042B2
:103BE0000BD80120800706900795089506A909952E
:103BF0002046FFF721FB10B070BD401EFDD1F0E75D
:103C0000001002400024014008270140E8FFFF7F28
:103C1000400D030000000020FFFFFF7FF0B589B0DA
:103C20000024009401947549049405940694079423
:103C3000C96A0420714A0143D162D16A01400891E6
:103C4000D16A01200143D162D06AC007C00F089039
:103C5000D16A02200143D162D16A01400891082053
:103C6000052109078862102088624020886280014F
:103C70008862634D2020A862C700AF620420A8615B
:103C80008F6140028861C0000326029002A903965A
:103C90005C48FFF767FB6801029002A9039606944F
:103CA0005848FFF75FFB0820029001200390052091
:103CB000059402A9049606940007FFF753FB102011
:103CC00002900120039005200494059402A9069413
:103CD0000007FFF747FB40200290012003900520DA
:103CE000059402A9049606940007FFF73BFB022007
:103CF000029002A9039606942846FFF733FB04209E
:103D00000290012003900494059402A90694284689
:103D1000FFF728FB0120039005200494059402A9D5
:103D2000029706940007FFF71DFBF80002900120A0
:103D3000039005200494059402A906940007FFF758
:103D400011FB380102900120039005200494059492
:103D500002A906940007FFF705FB68010290052001
:103D6000039402A906940007FFF7FCFA08200290CA
:103D7000039402A906942846FFF7F4FA1020029053
:103D8000039402A906942846FFF7ECFA01202026A6
:103D900003900494059402A9029606942846FFF71E
:103DA000E1FA012003900494059402A90297069475
:103DB0002846FFF7D7FA144881680122090909014A
:103DC00011438160E8680221800880000843E860B0
:103DD000286880088000286068460092027144715B
:103DE0008171FFF763FA09490868FF2212029043C4
:103DF00008600748066009B0F0BD000000100240EE
:103E000000040050000800500000014004E400E0FD
:103E100000E100E0F0B58FB0002506950795284C2D
:103E2000089509950A950B950C95E16A02200143C6
:103E3000E162E16A01260140402000900D910320DB
:103E400002270290019703960496694605961D483D
:103E5000FFF788FA802000900320029001970396D4
:103E60000496694605961748FFF77CFAA16B700522
:103E70000143A163A16B144C01400D916068710670
:103E800008436060E06889128843E06020680901A7
:103E90008843206020688910884320600B480C9577
:103EA00006950790089509950A950B9506A9204651
:103EB000FFF7D6FAE06806490840E0600FB0F0BDB1
:103EC0000010024000040050005400400B0210009B
:103ED00001F8FFFFF0B591B000240094039404941E
:103EE0000194029405940894099423480694079435
:103EF0000D940E940F940121426B09030A4342630F
:103F0000426B0A401092C26A01210A43C262C06A2F
:103F10000527084010902020022503263F070A901D
:103F20000AA90C960B953846FFF71CFA80200F94CF
:103F30000A900D940E940AA90C960B953846FFF73B
:103F400011FAFF20053001900120009404900395A0
:103F50000294400206940794089405900720074CA9
:103F6000099069462046FFF733FB606810218843BB
:103F7000606011B0F0BD0000001002400030014050
:103F8000F0B591B00026009601960396049605962A
:103F90000696079608962E4F09960A960B960C964B
:103FA0000D96B96B01200143B963B86B6946C00730
:103FB000C00F0E9007200880F92084070290204649
:103FC000FFF742FB2168802081432160A0682149DE
:103FD0000840A0602048A1150279204815182868DB
:103FE0001F4A137908229A401043286060200490E9
:103FF0007C20069002200790059604AA2046FFF731
:104000004FFB2968164802790420034693409943E0
:1040100029606168702291436160A16880229143A8
:10402000A160FA6A01210A43FA62F96A0890C90795
:10403000C90F0E91022009900D9005200A960B964B
:1040400008A90C960007FFF78DF911B0F0BD00002C
:1040500000100240F8BFFFFFE069000818000040B0
:10406000E7690008F0B58FB000240694079408941F
:10407000099426480A940B940C9403940494012107
:10408000426B89030A434263426B0A400D92C26A43
:1040900001210A43C262C06A042708400D90480209
:1040A0000597009002250326052069460296019592
:1040B0000007FFF757F96802059700900520039461
:1040C00069460296019504940007FFF74BF9E12039
:1040D000400206900794089409940B940C940C20C9
:1040E0000B4C0A9006A92046FFF760FB6068092187
:1040F000C90288436060A0682A218843A0602068C4
:104100000121084320600FB0F0BD00000010024004
:1041100000380140F0B5FF488DB0007B002810D07A
:104120007D2464012046FDF7DBFEFA48407BFDF765
:10413000F3FE1D21A010FDF79BFE1D212046FDF77B
:1041400097FEF54904208862402005252D07A861C7
:104150000820A8611020A8616421684601810189B6
:1041600001800088002868467ED00088002808D09A
:1041700068460088C007C00F03D06A461189491EEF
:10418000118169460988401C491C88420BDA69463E
:104190000A89521E0A810A89521E0A810988801CD6
:1041A000491C8842F3DB68460089DC4F3868C0430D
:1041B000400603D538684021084338600220FEF7E6
:1041C000B9F9FDF749FF0022D54ED64CD6A31146CA
:1041D000104601960094FDF7E1FFFF2202232932E9
:1041E0001B210020FDF754FF0120FEF791FA01206A
:1041F000FEF7A0F9FDF730FF0022CBA311461046D1
:1042000001960094FDF7CAFFFF22022329321B21E9
:104210000020FDF73DFFFEF767F9BF4C2869C0435A
:104220000004FBD42069C0430007F7D42069C043D1
:10423000C006F3D41320FFF70DFB2869C043000428
:10424000ECD42069C0430007E8D42069C043C0060D
:10425000E4D404A800F09DFA00F092FA002805D1F9
:104260006846407D002800E014E206D1B54A916B13
:10427000506BD26B06920591049001206A4610772C
:10428000002608AA1670022206A80A920B90286936
:10429000C04300041FD51320FFF7DCFA2869C04390
:1042A000000418D5112E26D201206946087708A9E6
:1042B000984C0870761C207BF6B200280BD07D202D
:1042C0004001FDF70DFE607BFDF726FE7D201321EA
:1042D0004001FDF7CDFD122E73D2300078440079F5
:1042E000001887441E272F39424A545C656F7D9021
:1042F00098A0AAB5C0D401206946087708A9854CC2
:104300000870207B002600280BD07D204001FDF79F
:10431000E7FD607BFDF700FE7D2013214001FDF7E6
:10432000A7FD07A908A800230191009001221946C2
:104330000B988AE007A908A80023012201910090A8
:10434000022106E007A908A8002309220191009094
:10435000012105A8023078E007A908A80023092256
:104360000191009019460A386FE007A9002308A8B8
:10437000012201910090114606E007A9002308A838
:10438000019109220090194605A801305DE007A9B6
:1043900008A80023032201910090012106E007A94B
:1043A000002308A8019109220090194605A84CE0B5
:1043B00007A908A8019101230722009000210D38C8
:1043C00043E077E06846007E002800D10A2607A96E
:1043D00008A800230122019100901946093834E011
:1043E0006846007E07A9002808A80191009004D023
:1043F0000122002311460E3827E00023022201216A
:1044000004A8023021E007A9002308A8019109228D
:1044100000901946F4E707A908A800230522019196
:104420000090012106E007A9002308A801910922B4
:104430000090194604A8013007E007A908A80191D7
:10444000009000230522012104A8FDF781FC31E042
:1044500007A908A80023019100900922194604A881
:10446000FDF776FC26E02C4C2069C043000721D5DF
:104470001320FFF7EFF92069C04300071AD5002089
:1044800001210A9108A90870694608778BE0224C3F
:104490002069C04300070DD51320FFF7DBF9206921
:1044A000C043000706D5002008A90A900870694695
:1044B000087778E06846007F002874D0FDF7C0FDDB
:1044C000002876D1002168460177C37C027D417DBA
:1044D000807D6C460FC46846037EFF211AA201311D
:1044E0002148FBF781FE0F480D4C002200901E4B27
:1044F000042101941046FDF751FE6846027C417C80
:10450000807C0191029200906846FF21C37D17A232
:10451000013137E024000020000400500030014049
:104520001A6A00089D720008E697B6E997B4E8AEEB
:10453000BEE7BDAEEFBC9A204E455854202B202D2F
:1045400000000000108900084953313248523A25D2
:104550006420322530336420253032642025303207
:10456000642025303164000038000020504D3A2589
:104570006420253032643A253032643A2530326482
:10458000000000004948FBF72FFE49480022009038
:10459000464B072101941046FDF700FE0020FEF770
:1045A000B7F806E0FFE7FDF74BFD002801D1FDF766
:1045B0009BFF08A8007800281ED03E4C2869C04305
:1045C0000004FBD42069C0430007F7D42069C0432E
:1045D000C006F3D41320FFF73DF92869C043000457
:1045E000ECD42069C0430007E8D42069C043C0066A
:1045F000E4D4002008A908700A98002808D004A86C
:1046000000F006FA00F0ACF80A98022800D13EE665
:104610003868C043400603D4386840218843386076
:104620001020A8620820A8624020A862214C042023
:10463000A061214E307B00280FD07D277F013846B6
:10464000FDF74EFC707BFDF767FC1D21B810FDF7F0
:104650000FFC1D213846FDF70BFC2869C043000400
:10466000FBD42069C0430007F7D42069C043C006CB
:10467000F3D41320FFF7EEF82869C0430004ECD40C
:104680002069C0430007E8D42069C043C006E4D4D1
:104690000DB0F0BD0089002800D184E56946088985
:1046A000401E088108890028F8D17CE538000020E8
:1046B0009D720008000400502400002070477047DD
:1046C00070B51C48C5680C210D401B4908D01B4A19
:1046D0009300042D0BD05400082D10D00C2D10D0B9
:1046E00040680004420F0846521C904070BD0068AC
:1046F000C043C00601D4104670BD184670BD2046A8
:1047000070BDC16801252D04294205D10168C94346
:10471000C90602D51A4600E02246C168C0680902EF
:10472000890F8002064B000F185C491C5043FBF7B1
:10473000BDFE70BD001002400080000000093D0079
:10474000FE69000810B5002201210F2000F0ECF8EE
:1047500010BD10B5002202210F2000F0E5F810BDB9
:1047600010B5002280210F2000F0DEF810BD10B53A
:104770000F20022400F0F8F8204000D0012010BDE6
:1047800010B50F20802400F0EFF8204000D0012069
:1047900010BDF8B504460025072601222946D02081
:1047A000FEF7CEFA012700280BD12846FEF784FB3E
:1047B000002806D132460121D020FEF7C1FA002898
:1047C00005D009212046FBF76DFE0120F8BD00252C
:1047D000FEF796FA60556D1CEDB2B542F8D3FEF7C0
:1047E0002FFB0021084630E0022802D005282CD1FA
:1047F00014E0A27852060BD52772A278920601D552
:10480000E77100E0E171A278D306DB0EA3701CE033
:104810002172E171A27893069B0EF7E76279130685
:1048200013D5D006C00E020700090A23120F584301
:1048300080186071A2790A25130712091B0F6A43B9
:104840000620D2186432A27107E0225C0A25130701
:1048500012091B0F6A43D2182254401CC0B2072809
:10486000C2D3E07807210C30FBF720FE491CE17031
:104870000020F8BD10B5002800D00120024601211B
:104880000E2000F051F810BD10B5002800D0022015
:10489000024602210E2000F047F810BD70B500243A
:1048A000064601252846A040304206D0E01D802261
:1048B000C0B2114600F038F805E0E01DC0B2002299
:1048C000802100F031F8641CE4B2042CEAD3002803
:1048D00000D0012070BD70B5002406460125284691
:1048E000A040304207D020460B308022C0B2114693
:1048F00000F01AF806E020460B30C0B200228021FA
:1049000000F012F8641CE4B2032CE8D3002800D0B5
:10491000012070BD10B5002800D0042002460421FB
:104920000E2000F001F810BD70B514460E46054685
:1049300000F01AF8B0433440044302220021D02092
:10494000FEF7FEF9002809D12846FEF7B5FA00283F
:1049500004D12046FEF7B0FA002801D0012070BD36
:10496000FEF76EFA002070BD10B50446012200214A
:10497000D020FEF7E5F900280BD12046FEF79CFA7F
:10498000002806D101221146D020FEF7D9F90028CF
:1049900001D0002010BDFEF7B3F90446FEF750FA2F
:1049A000204610BDF0B515A01EC885B06D461EC5C9
:1049B00000680024049011276E4612222146D02060
:1049C000FEF7BEF9002804D12046FEF775FA00284C
:1049D00002D0012005B0F0BD00252C46305DFEF769
:1049E0006BFA002801D0012503E0641CE4B2BC424C
:1049F000F4D3FEF725FA284605B0F0BD000000000C
:104A0000000000000000000000001C8B00000000FF
:104A1000F0B583B005460178684601706978417049
:104A2000A9788170E8780721C01DFBF73FFD491C7C
:104A30006846C1702979017169794171A9790024A9
:104A400081716E4680270BE0062C09D1684680797B
:104A5000632805D9694664388871487938434871B4
:104A6000305D0A21FBF722FD000140183055641C1F
:104A7000E4B2072CE8D3287A00280ED0694688785B
:104A80004021C006C00E084369468870E9790029B4
:104A900003D02021084369468870002407266D460C
:104AA00008222146D020FEF74BF9002820D12046CD
:104AB000FEF702FA00281BD1285DFEF7FDF9002859
:104AC00002D0FEF7BDF913E0641CE4B2B442F3D3A4
:104AD000FEF7B6F9002280210E20FFF725FF0028FF
:104AE00006D1002280210F20FFF71EFF002800D0F2
:104AF000012003B0F0BD0000F8B47D26F600154C8F
:104B0000154D002916D0402723693246009305E051
:104B10002369DB0300D5521E002A18D0EB69DB4362
:104B20001B06F5D4002A12D02F620278AA62401C1C
:104B3000491EE9D12069009005E02069C00300D535
:104B4000761E002E03D0E869C0434006F5D4F8BCB9
:104B50007047000000E000E00038014000B500218F
:104B6000024602E0491CC9B2521C1378002B01D046
:104B7000FF29F7D3FFF7C0FF00BD000000B50346D3
:104B8000002102E0491CC9B2401C0278002A01D071
:104B9000FF29F7D31846FFF7AFFF022101A0FFF767
:104BA000ABFF00BD0D0A00007047704710B52748E5
:104BB00001684908490001600168C907C90FFBD1B4
:104BC000234801220168D2020323DB0299431143E7
:104BD0000160204801680122114301600168C94356
:104BE0004907FBD441681F2212029143012212039C
:104BF00011434160C1688022F02399431143C16091
:104C0000C168072212029143C160C168D20091437A
:104C1000C160C2680121920892000A43C2600C225E
:104C2000C16811400429FBD10B4C2046FEF74EFC15
:104C30002046FEF703FD0948C16889088900C16064
:104C4000C168032212039143C16010BD00200240DD
:104C5000007000400010024000127A004010024034
:104C600010480168821511430160C1680E4A114065
:104C7000C16001680D4A114001608168490849001E
:104C8000816001680122920491430160C168FD22A4
:104C900012049143C160002101610549C00388608D
:104CA00070470000001002400C40FF88F6FFF6FE3F
:104CB00000ED00E010B5194A82B00C46002803D080
:104CC000012803D0022803D0104602E0144800E077
:104CD00014480622694600F027F8002802D0012077
:104CE00002B010BD0221684600F01CFD69468978BB
:104CF000884208D100A80221033000F013FD694664
:104D00004979884202D0022002B010BD214668468F
:104D100001F01AFC002002B010BD0000062C0000BB
:104D20000D2C0000102C000070B515460E460446F0
:104D3000022200218820FEF703F800281ED1200A55
:104D4000FEF7BAF8002819D1E0B2FEF7B5F800284E
:104D500014D12A4601218820FDF7F2FF00280DD149
:104D60000024002D06D9FDF7CBFF3055641CE4B2BA
:104D7000AC42F8D3FEF764F8002800D0012070BDE3
:104D800010B5054800F00AF8040002D10120FEF732
:104D900061FD204610BD00004130000010B5044602
:104DA000022200218820FDF7CBFF00280DD1200A28
:104DB000FEF782F8002808D1E0B2FEF77DF800285F
:104DC00003D1FEF73DF8002800D0012010BD0000FF
:104DD000F0B5A3B0FE48FFF7DCFCFE490020FFF76A
:104DE00069FF0020FFF796FD0020FFF757FD002028
:104DF000FFF740FDFFF7A6FC0720FFF76CFD012041
:104E0000FFF742FDFFF7A5FC0120FFF783FDF24805
:104E10000168C943C90703D1016849084900016015
:104E2000EE4920208862C1010520000781624910F7
:104E300081610020FCF734FFE94905464018E94943
:104E4000884203D3E848FCF717FE0546E748854249
:104E50000ADAFF22E6A30932EF49F04800F06EFAC1
:104E6000FEF730FD23B0F0BDDA4EFF217068C905B2
:104E70000090C8420DD3FCF7F9F9E94AE94BFBF77A
:104E8000D4FDFCF719F80146200A0002C9B2084314
:104E90000CE0FCF7EBF9E24AE24BFBF7B9FDFCF75B
:104EA0000BF80146200A0002C9B2084340B204468A
:104EB000FCF7F2FA009901F01FFDDB4901F098FCC4
:104EC000FCF7AEFA46B2C348FF210068C90500905E
:104ED000C8420CD3FCF7CAF9D14AD24BFBF7A5FD67
:104EE000FBF7EAFF3F0A3F02C0B207430BE0FCF7C3
:104EF000BDF9CB4ACB4BFBF78BFDFBF7DDFF3F0A40
:104F00003F02C0B2074378B20390FCF7C5FA00999C
:104F100001F0F2FCC44901F06BFCFCF781FAFF21BF
:104F200040B209028F430102FF22120211400F43D7
:104F30000590AA49049704208862402105200007B3
:104F400081610821816110218161642168460181AC
:104F5000018901800088002868467DD000880028EB
:104F600008D068460088C007C00F03D06A46118980
:104F7000491E118169460988401C491C88420BDA88
:104F80006A461189491E11811189491E11811188B2
:104F9000801C491C8842F3DB68460089A3480068EE
:104FA000C043400604D5A148016840221143016076
:104FB0000220FDF7BFFAFDF74FF8FF27293702233C
:104FC0003A461C210020FDF763F802233A46682187
:104FD0000020FDF75DF802234C224321D520FDF788
:104FE00057F8022338222721CA20FDF7EEF990480E
:104FF0000290904847682846394601F0CFFB06D218
:10500000FF208D4A00210830FDF7A5F841E0394620
:10501000284601F07DFC05463946029801F078FCEF
:105020008649FCF74DF901462846FCF749F9FCF79B
:105030001DF90022824BFBF7EBFCFBF773FF050623
:105040002D0E4ED0142D00D9142564227D4909A8B7
:10505000FBF794F8002100E05EE109A84A008A18F5
:1050600053239B1AC75C491CFF08FF00C7545427F1
:105070000023BF1AC35555239A1A835CDB06DB0E47
:1050800083546D1EEAD10246FF2000210830FDF74F
:1050900062F84F4DEA78297968790191029200907F
:1050A000FF21AB7968A201316C48FBF79DF86D4890
:1050B0006B4F00210090694B012201970846FDF7D4
:1050C0006DF8287A002814D0E879019700286548FF
:1050D000009008D064A3022209210020FDF75EF8A9
:1050E00007E00125B1E761A3022205210020FDF7B9
:1050F00055F868780090FF21AB785DA201315748E0
:10510000FBF772F8297A5D48544B0029019700900B
:1051100003D006220521222002E0062205211620C6
:10512000FDF73CF80920C44208DAFF21234654A2C7
:1051300001314A480096FBF757F810E0642C2346EB
:10514000009606DAFF2151A201314448FBF74CF8E2
:1051500005E0FF2150A201314048FBF745F8414CE2
:105160003E4B00220521D52001970094FDF716F84B
:105170000498039B40B264280598009006DAFF214A
:1051800048A201313548FBF72FF805E0FF2148A27E
:1051900001313248FBF728F8304B00220921D52095
:1051A00001970094FCF7FAFF0A484068FCF75EF8A4
:1051B00001910090FF2141A201312848FBF714F82A
:1051C000414800220190254B0E21009410467DE0BD
:1051D0001800002008000020005400400004005087
:1051E000333333C23433D302020000049A99593F57
:1051F00042617474657279206C6F772C20446972F7
:1052000065637420656E746572207374616E646288
:1052100079206D6F646500004D890008E82700085B
:105220009A9999999999A93F00002041003001402D
:1052300000004040240000205E8800080000A041DB
:105240000000E03FFC87000832253033642F2564DE
:105250002F253032642025303164000038000020D2
:105260001A6A00089D720008504D0000414D000070
:10527000253032643A25303264000000D97F0008BE
:105280002530326420E2848300000000253032643F
:105290002E2564E2848300002530336420E2848379
:1052A00000000000253032642E2564EFBC8500002C
:1052B0002530336420EFBC8500000000E5869CE5C6
:1052C0008E86EFBC9A000000C0880008FCF766FFDD
:1052D0000020FDF71DFAFEF7CFFA1548FCF7CCFBCE
:1052E00001460020FCF714FDFDF7D2F811480168D3
:1052F000C943490603D4026840218A430260102151
:1053000005200007816208218162402181620A49EB
:105310000420886123B0F0BD0089002800D13BE65D
:1053200069460889401E088108890028F8D133E6BB
:10533000020000040030014000040050F0B50746B0
:1053400015460E464DA083B01C460246002102E0E1
:10535000491CC9B2401C0378002B01D0FF29F7D3A8
:105360001046FFF7C9FB49A00246002102E0491C94
:10537000C9B2401C0378002B01D0FF29F7D3104697
:10538000FFF7BAFB0021384602E0491CC9B2401CB5
:105390000278002A01D0FF29F7D33846FFF7ACFB8B
:1053A0003DA20021104602E0491CC9B2401C03780E
:1053B000002B01D0FF29F7D31046FFF79DFB0021FA
:1053C000304602E0491CC9B2401C0278002A01D0D4
:1053D000FF29F7D33046FFF78FFB32A2002110469A
:1053E00002E0491CC9B2401C0378002B01D0FF2900
:1053F000F7D31046FFF780FB2B462DA20B21684602
:10540000FAF7F2FE6A460021104602E0491CC9B2D2
:10541000401C0378002B01D0FF29F7D31046FFF77B
:105420006BFB24A00246002102E0491CC9B2401CCB
:105430000378002B01D0FF29F7D31046FFF75CFB60
:1054400020460021234602E0491CC9B25B1C1A78A1
:10545000002A01D0FF29F7D3FFF74EFB18A0002147
:105460000246491C5378521CC9B2002B01D0FF29B7
:10547000F7D3FFF741FB03B0F0BD00000D0A2A2A65
:105480004445425547205052494E54000D0A464962
:105490004C4520203A2000000D0A46554E4320205E
:1054A0003A2000000D0A4C494E4520203A200000C9
:1054B000256400000D0A494E464F20203A20000086
:1054C0000D0A0D0A000000004900CA020243100044
:1054D00000D004204A0D01D001221043044A490D96
:1054E000914201D102210843012800D105207047D3
:1054F000FF070000F8B504464F1EC8000838211801
:1055000015461E46086849683A4606239A4310D055
:105510002A463346FBF756FD3A46D200083AA3180E
:105520001A687F1E5B68FBF773FA06223B469343BB
:10553000EED1022F23D0042F11D0062F2FD12A46CF
:105540003346FBF73FFDE36AA26AFBF761FA2A469E
:105550003346FBF737FD636A226AFBF759FA2A469E
:105560003346FBF72FFDE369A269FBF751FA2A46A0
:105570003346FBF727FD63692269FBF749FA2A46A0
:105580003346FBF71FFDE368A268FBF741FA2A46A2
:105590003346FBF717FD63682268FBF739FAF8BD5D
:1055A000002210B5134610460149FBF761FA10BD01
:1055B0000000F03F10B5FBF72BFA10BD002210B52C
:1055C000134610461146FBF753FA10BD10B50721DC
:1055D000024A00200907FBF719FE10BD0103000075
:1055E000034A10B500201107FBF710FE10BD0000A4
:1055F00001FDFFFF30380A2801D20120704700204A
:1056000070470000F8B504460068002604250146EE
:1056100001F046F905D32168206901F0BFF800D2F6
:1056200000256168206801F03BF901D2012606E0FF
:10563000A8002058616801F0B1F800D20125B0003F
:105640002058A16801F02CF901D2022606E0A8003A
:105650002058A16801F0A2F800D20225B00020581D
:10566000E16801F01DF901D2032606E0A8002058E8
:10567000E16801F093F800D20325B00020582169B9
:1056800001F00EF902D20426002709E0A8002058F4
:10569000216901F083F800D204250027002E0BD0E9
:1056A000002D07D01E492068FBF70AFE394601F09D
:1056B0002FF80746012E0BD0012D07D0184960683E
:1056C000FBF7FEFD394601F023F80746022E0BD00A
:1056D000022D07D01249A068FBF7F2FD394601F010
:1056E00017F80746032E0BD0032D15D00C49E068A0
:1056F000FBF7E6FD394601F00BF80746042E09D00A
:10570000042D07D006492069FBF7DAFD394600F081
:10571000FFFF07463846F8BD042EF3D1FAE7000034
:105720000000404030B40346FF20002231241978A5
:10573000484004215B1C050602D54000604000E0A3
:105740004000C0B2050602D54000604000E04000C5
:10575000C0B2491EEFD1521CD2B2022AE7D330BCEC
:10576000704701B481B068468188018000880028B4
:10577000684621D00088002808D068460088C00705
:10578000C00F03D06A469188491E918069460988F6
:10579000401C491C88420BDA69468A88521E8A805E
:1057A0008A88521E8A800988801C491C8842F3DB43
:1057B0006846808802B0704780880028F8D0684624
:1057C0008188491E818080880028F8D1F0E7000098
:1057D00018B40F4B7D221869D200009001240D48A7
:1057E00005E01969C90300D5521E002A0DD0816950
:1057F000C907F6D1002A08D04168214341604068BA
:10580000C00702D018BC0020704718BC01207047A8
:1058100000E000E0002002400F4B7D21186981B0BC
:10582000C90000900D4805E01A69D20300D5491E51
:1058300000290ED08269D207F6D1002909D041682B
:10584000C90703D00649C1600649C160002001B004
:105850007047012001B0704700E000E000200240E6
:10586000EFCDAB890504030231B5082005242407D8
:10587000A0624020A0620120FFF773FF012168466B
:1058800000F0ACFE0120FFF76CFF4020A06138BDA6
:1058900031B5082005242407A0614020A062012022
:1058A000FFF75FFF0121684600F098FE0120FFF737
:1058B00058FF4020A06138BDF0B5894885B0016827
:1058C000CF070168FF0F4908490001600021026805
:1058D000D243D20706D10268D243D20702D1891C33
:1058E0000A29F4D37E48FDF797FD7E4D28682901EB
:1058F000032292039043084328606B68802083430F
:10590000044623436B60E86890430843E8602868D6
:105910008A100321090388431043286068684023E4
:10592000984318436860E86888431043E860AC61B6
:10593000AB616423684603810189018000880028E7
:1059400068467DD00088002808D068460088C007D7
:10595000C00F03D06A461189491E11816946098822
:10596000401C491C88420BDA6A461189491E118184
:105970001189491E11811188801C491C8842F3DB62
:10598000684600892869C043000673D5564E7D24B9
:105990003069E40000903069C00300D5641E4020E7
:1059A000A862684683818189018000880028684652
:1059B00070D00088002808D068460088C007C00F53
:1059C00003D06A469189491E918169460988401C25
:1059D000491C88420BDA69468A89521E8A818A8963
:1059E000521E8A810988801C491C8842F3DB684664
:1059F00080894020A8616846838181890180008870
:105A00000028684661D00088002808D068460088D1
:105A1000C007C00F03D06A469189491E918169462B
:105A20000988401C491C88420DDA69468A89521E41
:105A30008A818A89521E8A810988801C491C00E05B
:105A40002CE08842F1DB684680892869C043000663
:105A500002D40024E44301E0002C9CD18020A86201
:105A60000020FDF7F7FE8020A8610020FDF7F2FE80
:105A700002E0FFE70024E443FEF7CCF9002F04D056
:105A800017490868012210430860641C03D00120F4
:105A900005B0F0BD0EE0002005B0F0BD0089002883
:105AA00000D16DE769460889401E088108890028F1
:105AB000F8D165E78089002899D069468889401E19
:105AC000888188890028F8D191E780890028BAD098
:105AD00069468889401E888188890028F8D1B2E704
